{"contracts/fees/TokenDistributor.sol":{"TokenDistributor":{"abi":[{"anonymous":false,"inputs":[{"indexed":false,"internalType":"address","name":"receiver","type":"address"},{"indexed":false,"internalType":"uint256","name":"percentage","type":"uint256"},{"indexed":false,"internalType":"uint256","name":"amount","type":"uint256"}],"name":"Distributed","type":"event"},{"anonymous":false,"inputs":[{"indexed":false,"internalType":"address[]","name":"receivers","type":"address[]"},{"indexed":false,"internalType":"uint256[]","name":"percentages","type":"uint256[]"}],"name":"DistributionUpdated","type":"event"},{"inputs":[],"name":"DISTRIBUTION_BASE","outputs":[{"internalType":"uint256","name":"","type":"uint256"}],"stateMutability":"view","type":"function"},{"inputs":[],"name":"IMPLEMENTATION_REVISION","outputs":[{"internalType":"uint256","name":"","type":"uint256"}],"stateMutability":"view","type":"function"},{"inputs":[],"name":"KYBER_ETH_MOCK_ADDRESS","outputs":[{"internalType":"address","name":"","type":"address"}],"stateMutability":"view","type":"function"},{"inputs":[],"name":"MAX_UINT","outputs":[{"internalType":"uint256","name":"","type":"uint256"}],"stateMutability":"view","type":"function"},{"inputs":[],"name":"MAX_UINT_MINUS_ONE","outputs":[{"internalType":"uint256","name":"","type":"uint256"}],"stateMutability":"view","type":"function"},{"inputs":[],"name":"MIN_CONVERSION_RATE","outputs":[{"internalType":"uint256","name":"","type":"uint256"}],"stateMutability":"view","type":"function"},{"inputs":[{"internalType":"contract IERC20[]","name":"_tokens","type":"address[]"}],"name":"distribute","outputs":[],"stateMutability":"nonpayable","type":"function"},{"inputs":[{"internalType":"contract IERC20[]","name":"_tokens","type":"address[]"},{"internalType":"uint256[]","name":"_amounts","type":"uint256[]"}],"name":"distributeWithAmounts","outputs":[],"stateMutability":"nonpayable","type":"function"},{"inputs":[{"internalType":"contract IERC20[]","name":"_tokens","type":"address[]"},{"internalType":"uint256[]","name":"_percentages","type":"uint256[]"}],"name":"distributeWithPercentages","outputs":[],"stateMutability":"nonpayable","type":"function"},{"inputs":[],"name":"getDistribution","outputs":[{"internalType":"address[]","name":"receivers","type":"address[]"},{"internalType":"uint256[]","name":"percentages","type":"uint256[]"}],"stateMutability":"view","type":"function"},{"inputs":[{"internalType":"address[]","name":"_receivers","type":"address[]"},{"internalType":"uint256[]","name":"_percentages","type":"uint256[]"}],"name":"initialize","outputs":[],"stateMutability":"nonpayable","type":"function"},{"inputs":[],"name":"recipientBurn","outputs":[{"internalType":"address","name":"","type":"address"}],"stateMutability":"view","type":"function"},{"inputs":[],"name":"tokenToBurn","outputs":[{"internalType":"address","name":"","type":"address"}],"stateMutability":"view","type":"function"},{"stateMutability":"payable","type":"receive"}],"evm":{"bytecode":{"linkReferences":{},"object":"60808060405234610020576001600055600060015561113990816100268239f35b600080fdfe6080604052600436101561001b575b361561001957600080fd5b005b60003560e01c8063043c41d41461011f57806313520658146101165780631cced51b1461010d578063217ab8061461010457806323879bb1146100fb57806340d58a4a146100f25780634f1b86eb146100e95780636138889b146100e05780637fbbe46f146100d75780638c0c9a25146100ce578063cc8cc9d8146100c5578063e5b5019a146100bc5763eed64c300361000e576100b7610741565b61000e565b506100b7610723565b506100b76106d6565b506100b761065f565b506100b76105b2565b506100b7610416565b506100b76102ce565b506100b76102b1565b506100b7610294565b506100b761026a565b506100b76101db565b506100b7610142565b503461013d57600036600319011261013d5760206040516001198152f35b600080fd5b503461013d57600036600319011261013d5760206040516127108152f35b6040810190604081528251809252606081019160208094019060005b8181106101be575050508281830391015281808451928381520193019160005b8281106101aa575050505090565b83518552938101939281019260010161019c565b82516001600160a01b03168552938501939185019160010161017c565b503461013d57600036600319011261013d57604051808160355480835260208093019060356000526000805160206110c4833981519152936000905b828210610247578461022b81860382610354565b610233610bb2565b9061024360405192839283610160565b0390f35b85546001600160a01b031684526001958601958795509381019390910190610217565b503461013d57600036600319011261013d576038546040516001600160a01b039091168152602090f35b503461013d57600036600319011261013d57602060405160048152f35b503461013d57600036600319011261013d57602060405160018152f35b503461013d57600036600319011261013d576037546040516001600160a01b039091168152602090f35b50634e487b7160e01b600052604160045260246000fd5b6040810190811067ffffffffffffffff82111761032b57604052565b6103336102f8565b604052565b6080810190811067ffffffffffffffff82111761032b57604052565b90601f8019910116810190811067ffffffffffffffff82111761032b57604052565b60209067ffffffffffffffff8111610390575b60051b0190565b6103986102f8565b610389565b6001600160a01b0381160361013d57565b81601f8201121561013d578035916103c583610376565b926103d36040519485610354565b808452602092838086019260051b82010192831161013d578301905b8282106103fd575050505090565b838091833561040b8161039d565b8152019101906103ef565b503461013d5760208060031936011261013d57600490813567ffffffffffffffff811161013d5761044a90369084016103ae565b60005b8151811015610019578073eeeeeeeeeeeeeeeeeeeeeeeeeeeeeeeeeeeeeeee61049b61048f61048f6104826105099688610a78565b516001600160a01b031690565b6001600160a01b031690565b1461054e576104b061048f6104828386610a78565b6040516370a0823160e01b815230878201908152909186918391908290819060200103915afa908115610541575b600091610514575b505b801561050e57610504906104ff6104828487610a78565b610d65565b610a5c565b61044d565b50610a5c565b6105349150853d871161053a575b61052c8183610354565b810190610aa2565b386104e6565b503d610522565b610549610ab1565b6104de565b476104e8565b81601f8201121561013d5780359161056b83610376565b926105796040519485610354565b808452602092838086019260051b82010192831161013d578301905b8282106105a3575050505090565b81358152908301908301610595565b503461013d57604036600319011261013d5767ffffffffffffffff60043581811161013d573660238201121561013d5780600401356105f081610376565b916105fe6040519384610354565b81835260209160248385019160051b8301019136831161013d57602401905b828210610646576024358587821161013d57610640610019923690600401610554565b90610834565b83809183356106548161039d565b81520191019061061d565b503461013d57600036600319011261013d57602060405173eeeeeeeeeeeeeeeeeeeeeeeeeeeeeeeeeeeeeeee8152f35b90604060031983011261013d5767ffffffffffffffff60043581811161013d57836106bc916004016103ae565b9260243591821161013d576106d391600401610554565b90565b503461013d576106e53661068f565b9060005b81518110156100195761071e906105046001600160a01b0361070b8386610a78565b51166107178387610a78565b5190610d65565b6106e9565b503461013d57600036600319011261013d5760206040516000198152f35b503461013d576107503661068f565b9060005b8151811015610019578073eeeeeeeeeeeeeeeeeeeeeeeeeeeeeeeeeeeeeeee61078961048f61048f6104826107ef9688610a78565b1461081e576104e86107e86107a461048f6104828588610a78565b6040516370a0823160e01b81523060048201526020918290829060249082905afa918215610811575b6000926107f4575b50506107e18488610a78565b5190610abe565b6064900490565b610754565b61080a9250803d1061053a5761052c8183610354565b38806107d5565b610819610ab1565b6107cd565b61082f6107e8476107e18488610a78565b6104e8565b60ff6002541691821592836108fe575b80156108f2575b156108965761085e918361087557610907565b61086457565b61087360ff1960025416600255565b565b610887600160ff196002541617600255565b6108916004600155565b610907565b60405162461bcd60e51b815260206004820152602e60248201527f436f6e747261637420696e7374616e63652068617320616c726561647920626560448201526d195b881a5b9a5d1a585b1a5e995960921b6064820152608490fd5b5060015460041161084b565b50303b15610844565b908151815103610a005760405161091d8161030f565b828152602080910190828252835190600160401b82116109f3575b6109488260355481603555610af4565b8085019060356000526000805160206110c48339815191526000925b8484106109c457505050505061097a9051610b21565b604051917fdc9f439f707945ade720b0154668dd64af0689fb88b40abdb0f0289156d23e9d83806109ad85858598610160565b0390a16109bf60405192839283610160565b0390a1565b805182546001600160a01b0319166001600160a01b039190911617825560019384019391909101908201610964565b6109fb6102f8565b610938565b60405162461bcd60e51b815260206004820152601d60248201527f4172726179206c656e677468732073686f756c6420626520657175616c0000006044820152606490fd5b50634e487b7160e01b600052601160045260246000fd5b6001906000198114610a6c570190565b610a74610a45565b0190565b8051821015610a8c5760209160051b010190565b634e487b7160e01b600052603260045260246000fd5b9081602091031261013d575190565b506040513d6000823e3d90fd5b8060001904821181151516610ad1570290565b610ad9610a45565b0290565b818110610ae8575050565b60008155600101610add565b808210610aff575050565b6108739160356000526000805160206110c48339815191529182019101610add565b805190600160401b8211610ba5575b60365482603655808310610b81575b5060208091019060366000526000805160206110e48339815191526000925b848410610b6c575050505050565b60018382829351855501920193019290610b5e565b610b9f90836000805160206110e48339815191529182019101610add565b38610b3f565b610bad6102f8565b610b30565b60405190603654808352826020918282019060366000526000805160206110e4833981519152936000905b828210610bf35750505061087392500383610354565b855484526001958601958895509381019390910190610bdd565b60405190610c1a8261030f565b816040518060355480835281602080940160356000526000805160206110c48339815191529260005b86828210610cb457505050610c5a92500382610354565b825260405191828383603654928381520160366000526000805160206110e48339815191529260005b86828210610c9e57505050610c9a92500384610354565b0152565b8554845260019586019589955093019201610c83565b85546001600160a01b0316845260019586019587955093019201610c43565b3d15610d1c573d9067ffffffffffffffff8211610d0f575b60405191610d03601f8201601f191660200184610354565b82523d6000602084013e565b610d176102f8565b610ceb565b606090565b15610d2857565b60405162461bcd60e51b81526020600482015260156024820152742932bb32b93a32b21022aa24103a3930b739b332b960591b6044820152606490fd5b919091610d70610c0d565b6001600160a01b03821673eeeeeeeeeeeeeeeeeeeeeeeeeeeeeeeeeeeeeeee141591600091602081019190835b815151811015610e985780610dcb610dc3610dbc610e5f948851610a78565b518b610abe565b612710900490565b801561050e577f60ce3cc2d133631eac66a476f14997a9fa682bd05a60dd993cf02285822d78d8908815610e6457610e1181610e0b610482868951610a78565b88610ea2565b610e1f610482848751610a78565b610e57610e2d858a51610a78565b51604080516001600160a01b03909416845260208401919091528201929092529081906060820190565b0390a1610a5c565b610d9d565b610e93888080610e7e61048f61048f6104828a8d51610a78565b85604051915af1610e8d610cd3565b50610d21565b610e11565b5050505050509050565b60405163a9059cbb60e01b602082019081526001600160a01b039384166024830152604480830195909552938152610f31929091610edf83610338565b1660405191610eed8361030f565b602083527f5361666545524332303a206c6f772d6c6576656c2063616c6c206661696c65646020840152600080958192519082855af1610f2b610cd3565b91611025565b8051908115918215610f4a575b50506108739150610f7a565b8192509060209181010312610f765760200151908115158203610f735750610873903880610f3e565b80fd5b5080fd5b15610f8157565b60405162461bcd60e51b815260206004820152602a60248201527f5361666545524332303a204552433230206f7065726174696f6e20646964206e6044820152691bdd081cdd58d8d9595960b21b6064820152608490fd5b15610fe057565b60405162461bcd60e51b815260206004820152601d60248201527f416464726573733a2063616c6c20746f206e6f6e2d636f6e74726163740000006044820152606490fd5b919290156110455750815115611039575090565b6106d3903b1515610fd9565b8251909150156110585750805190602001fd5b6040519062461bcd60e51b82528160208060048301528251928360248401526000915b8483106110aa57505091806044931161109d575b601f01601f19168101030190fd5b600083828401015261108f565b818301810151868401604401528593509182019161107b56fecfa4bec1d3298408bb5afcfcd9c430549c5b31f8aa5c5848151c0a55f473c34d4a11f94e20a93c79f6ec743a1954ec4fc2c08429ae2122118bf234b2185c81b8a2646970667358221220cb541bf064fa7e1636045ffe2468948b11f170613fc8b684f38f5f307b45fdb264736f6c634300080d0033","opcodes":"PUSH1 0x80 DUP1 PUSH1 0x40 MSTORE CALLVALUE PUSH2 0x20 JUMPI PUSH1 0x1 PUSH1 0x0 SSTORE PUSH1 0x0 PUSH1 0x1 SSTORE PUSH2 0x1139 SWAP1 DUP2 PUSH2 0x26 DUP3 CODECOPY RETURN JUMPDEST PUSH1 0x0 DUP1 REVERT INVALID PUSH1 0x80 PUSH1 0x40 MSTORE PUSH1 0x4 CALLDATASIZE LT ISZERO PUSH2 0x1B JUMPI JUMPDEST CALLDATASIZE ISZERO PUSH2 0x19 JUMPI PUSH1 0x0 DUP1 REVERT JUMPDEST STOP JUMPDEST PUSH1 0x0 CALLDATALOAD PUSH1 0xE0 SHR DUP1 PUSH4 0x43C41D4 EQ PUSH2 0x11F JUMPI DUP1 PUSH4 0x13520658 EQ PUSH2 0x116 JUMPI DUP1 PUSH4 0x1CCED51B EQ PUSH2 0x10D JUMPI DUP1 PUSH4 0x217AB806 EQ PUSH2 0x104 JUMPI DUP1 PUSH4 0x23879BB1 EQ PUSH2 0xFB JUMPI DUP1 PUSH4 0x40D58A4A EQ PUSH2 0xF2 JUMPI DUP1 PUSH4 0x4F1B86EB EQ PUSH2 0xE9 JUMPI DUP1 PUSH4 0x6138889B EQ PUSH2 0xE0 JUMPI DUP1 PUSH4 0x7FBBE46F EQ PUSH2 0xD7 JUMPI DUP1 PUSH4 0x8C0C9A25 EQ PUSH2 0xCE JUMPI DUP1 PUSH4 0xCC8CC9D8 EQ PUSH2 0xC5 JUMPI DUP1 PUSH4 0xE5B5019A EQ PUSH2 0xBC JUMPI PUSH4 0xEED64C30 SUB PUSH2 0xE JUMPI PUSH2 0xB7 PUSH2 0x741 JUMP JUMPDEST PUSH2 0xE JUMP JUMPDEST POP PUSH2 0xB7 PUSH2 0x723 JUMP JUMPDEST POP PUSH2 0xB7 PUSH2 0x6D6 JUMP JUMPDEST POP PUSH2 0xB7 PUSH2 0x65F JUMP JUMPDEST POP PUSH2 0xB7 PUSH2 0x5B2 JUMP JUMPDEST POP PUSH2 0xB7 PUSH2 0x416 JUMP JUMPDEST POP PUSH2 0xB7 PUSH2 0x2CE JUMP JUMPDEST POP PUSH2 0xB7 PUSH2 0x2B1 JUMP JUMPDEST POP PUSH2 0xB7 PUSH2 0x294 JUMP JUMPDEST POP PUSH2 0xB7 PUSH2 0x26A JUMP JUMPDEST POP PUSH2 0xB7 PUSH2 0x1DB JUMP JUMPDEST POP PUSH2 0xB7 PUSH2 0x142 JUMP JUMPDEST POP CALLVALUE PUSH2 0x13D JUMPI PUSH1 0x0 CALLDATASIZE PUSH1 0x3 NOT ADD SLT PUSH2 0x13D JUMPI PUSH1 0x20 PUSH1 0x40 MLOAD PUSH1 0x1 NOT DUP2 MSTORE RETURN JUMPDEST PUSH1 0x0 DUP1 REVERT JUMPDEST POP CALLVALUE PUSH2 0x13D JUMPI PUSH1 0x0 CALLDATASIZE PUSH1 0x3 NOT ADD SLT PUSH2 0x13D JUMPI PUSH1 0x20 PUSH1 0x40 MLOAD PUSH2 0x2710 DUP2 MSTORE RETURN JUMPDEST PUSH1 0x40 DUP2 ADD SWAP1 PUSH1 0x40 DUP2 MSTORE DUP3 MLOAD DUP1 SWAP3 MSTORE PUSH1 0x60 DUP2 ADD SWAP2 PUSH1 0x20 DUP1 SWAP5 ADD SWAP1 PUSH1 0x0 JUMPDEST DUP2 DUP2 LT PUSH2 0x1BE JUMPI POP POP POP DUP3 DUP2 DUP4 SUB SWAP2 ADD MSTORE DUP2 DUP1 DUP5 MLOAD SWAP3 DUP4 DUP2 MSTORE ADD SWAP4 ADD SWAP2 PUSH1 0x0 JUMPDEST DUP3 DUP2 LT PUSH2 0x1AA JUMPI POP POP POP POP SWAP1 JUMP JUMPDEST DUP4 MLOAD DUP6 MSTORE SWAP4 DUP2 ADD SWAP4 SWAP3 DUP2 ADD SWAP3 PUSH1 0x1 ADD PUSH2 0x19C JUMP JUMPDEST DUP3 MLOAD PUSH1 0x1 PUSH1 0x1 PUSH1 0xA0 SHL SUB AND DUP6 MSTORE SWAP4 DUP6 ADD SWAP4 SWAP2 DUP6 ADD SWAP2 PUSH1 0x1 ADD PUSH2 0x17C JUMP JUMPDEST POP CALLVALUE PUSH2 0x13D JUMPI PUSH1 0x0 CALLDATASIZE PUSH1 0x3 NOT ADD SLT PUSH2 0x13D JUMPI PUSH1 0x40 MLOAD DUP1 DUP2 PUSH1 0x35 SLOAD DUP1 DUP4 MSTORE PUSH1 0x20 DUP1 SWAP4 ADD SWAP1 PUSH1 0x35 PUSH1 0x0 MSTORE PUSH1 0x0 DUP1 MLOAD PUSH1 0x20 PUSH2 0x10C4 DUP4 CODECOPY DUP2 MLOAD SWAP2 MSTORE SWAP4 PUSH1 0x0 SWAP1 JUMPDEST DUP3 DUP3 LT PUSH2 0x247 JUMPI DUP5 PUSH2 0x22B DUP2 DUP7 SUB DUP3 PUSH2 0x354 JUMP JUMPDEST PUSH2 0x233 PUSH2 0xBB2 JUMP JUMPDEST SWAP1 PUSH2 0x243 PUSH1 0x40 MLOAD SWAP3 DUP4 SWAP3 DUP4 PUSH2 0x160 JUMP JUMPDEST SUB SWAP1 RETURN JUMPDEST DUP6 SLOAD PUSH1 0x1 PUSH1 0x1 PUSH1 0xA0 SHL SUB AND DUP5 MSTORE PUSH1 0x1 SWAP6 DUP7 ADD SWAP6 DUP8 SWAP6 POP SWAP4 DUP2 ADD SWAP4 SWAP1 SWAP2 ADD SWAP1 PUSH2 0x217 JUMP JUMPDEST POP CALLVALUE PUSH2 0x13D JUMPI PUSH1 0x0 CALLDATASIZE PUSH1 0x3 NOT ADD SLT PUSH2 0x13D JUMPI PUSH1 0x38 SLOAD PUSH1 0x40 MLOAD PUSH1 0x1 PUSH1 0x1 PUSH1 0xA0 SHL SUB SWAP1 SWAP2 AND DUP2 MSTORE PUSH1 0x20 SWAP1 RETURN JUMPDEST POP CALLVALUE PUSH2 0x13D JUMPI PUSH1 0x0 CALLDATASIZE PUSH1 0x3 NOT ADD SLT PUSH2 0x13D JUMPI PUSH1 0x20 PUSH1 0x40 MLOAD PUSH1 0x4 DUP2 MSTORE RETURN JUMPDEST POP CALLVALUE PUSH2 0x13D JUMPI PUSH1 0x0 CALLDATASIZE PUSH1 0x3 NOT ADD SLT PUSH2 0x13D JUMPI PUSH1 0x20 PUSH1 0x40 MLOAD PUSH1 0x1 DUP2 MSTORE RETURN JUMPDEST POP CALLVALUE PUSH2 0x13D JUMPI PUSH1 0x0 CALLDATASIZE PUSH1 0x3 NOT ADD SLT PUSH2 0x13D JUMPI PUSH1 0x37 SLOAD PUSH1 0x40 MLOAD PUSH1 0x1 PUSH1 0x1 PUSH1 0xA0 SHL SUB SWAP1 SWAP2 AND DUP2 MSTORE PUSH1 0x20 SWAP1 RETURN JUMPDEST POP PUSH4 0x4E487B71 PUSH1 0xE0 SHL PUSH1 0x0 MSTORE PUSH1 0x41 PUSH1 0x4 MSTORE PUSH1 0x24 PUSH1 0x0 REVERT JUMPDEST PUSH1 0x40 DUP2 ADD SWAP1 DUP2 LT PUSH8 0xFFFFFFFFFFFFFFFF DUP3 GT OR PUSH2 0x32B JUMPI PUSH1 0x40 MSTORE JUMP JUMPDEST PUSH2 0x333 PUSH2 0x2F8 JUMP JUMPDEST PUSH1 0x40 MSTORE JUMP JUMPDEST PUSH1 0x80 DUP2 ADD SWAP1 DUP2 LT PUSH8 0xFFFFFFFFFFFFFFFF DUP3 GT OR PUSH2 0x32B JUMPI PUSH1 0x40 MSTORE JUMP JUMPDEST SWAP1 PUSH1 0x1F DUP1 NOT SWAP2 ADD AND DUP2 ADD SWAP1 DUP2 LT PUSH8 0xFFFFFFFFFFFFFFFF DUP3 GT OR PUSH2 0x32B JUMPI PUSH1 0x40 MSTORE JUMP JUMPDEST PUSH1 0x20 SWAP1 PUSH8 0xFFFFFFFFFFFFFFFF DUP2 GT PUSH2 0x390 JUMPI JUMPDEST PUSH1 0x5 SHL ADD SWAP1 JUMP JUMPDEST PUSH2 0x398 PUSH2 0x2F8 JUMP JUMPDEST PUSH2 0x389 JUMP JUMPDEST PUSH1 0x1 PUSH1 0x1 PUSH1 0xA0 SHL SUB DUP2 AND SUB PUSH2 0x13D JUMPI JUMP JUMPDEST DUP2 PUSH1 0x1F DUP3 ADD SLT ISZERO PUSH2 0x13D JUMPI DUP1 CALLDATALOAD SWAP2 PUSH2 0x3C5 DUP4 PUSH2 0x376 JUMP JUMPDEST SWAP3 PUSH2 0x3D3 PUSH1 0x40 MLOAD SWAP5 DUP6 PUSH2 0x354 JUMP JUMPDEST DUP1 DUP5 MSTORE PUSH1 0x20 SWAP3 DUP4 DUP1 DUP7 ADD SWAP3 PUSH1 0x5 SHL DUP3 ADD ADD SWAP3 DUP4 GT PUSH2 0x13D JUMPI DUP4 ADD SWAP1 JUMPDEST DUP3 DUP3 LT PUSH2 0x3FD JUMPI POP POP POP POP SWAP1 JUMP JUMPDEST DUP4 DUP1 SWAP2 DUP4 CALLDATALOAD PUSH2 0x40B DUP2 PUSH2 0x39D JUMP JUMPDEST DUP2 MSTORE ADD SWAP2 ADD SWAP1 PUSH2 0x3EF JUMP JUMPDEST POP CALLVALUE PUSH2 0x13D JUMPI PUSH1 0x20 DUP1 PUSH1 0x3 NOT CALLDATASIZE ADD SLT PUSH2 0x13D JUMPI PUSH1 0x4 SWAP1 DUP2 CALLDATALOAD PUSH8 0xFFFFFFFFFFFFFFFF DUP2 GT PUSH2 0x13D JUMPI PUSH2 0x44A SWAP1 CALLDATASIZE SWAP1 DUP5 ADD PUSH2 0x3AE JUMP JUMPDEST PUSH1 0x0 JUMPDEST DUP2 MLOAD DUP2 LT ISZERO PUSH2 0x19 JUMPI DUP1 PUSH20 0xEEEEEEEEEEEEEEEEEEEEEEEEEEEEEEEEEEEEEEEE PUSH2 0x49B PUSH2 0x48F PUSH2 0x48F PUSH2 0x482 PUSH2 0x509 SWAP7 DUP9 PUSH2 0xA78 JUMP JUMPDEST MLOAD PUSH1 0x1 PUSH1 0x1 PUSH1 0xA0 SHL SUB AND SWAP1 JUMP JUMPDEST PUSH1 0x1 PUSH1 0x1 PUSH1 0xA0 SHL SUB AND SWAP1 JUMP JUMPDEST EQ PUSH2 0x54E JUMPI PUSH2 0x4B0 PUSH2 0x48F PUSH2 0x482 DUP4 DUP7 PUSH2 0xA78 JUMP JUMPDEST PUSH1 0x40 MLOAD PUSH4 0x70A08231 PUSH1 0xE0 SHL DUP2 MSTORE ADDRESS DUP8 DUP3 ADD SWAP1 DUP2 MSTORE SWAP1 SWAP2 DUP7 SWAP2 DUP4 SWAP2 SWAP1 DUP3 SWAP1 DUP2 SWAP1 PUSH1 0x20 ADD SUB SWAP2 GAS STATICCALL SWAP1 DUP2 ISZERO PUSH2 0x541 JUMPI JUMPDEST PUSH1 0x0 SWAP2 PUSH2 0x514 JUMPI JUMPDEST POP JUMPDEST DUP1 ISZERO PUSH2 0x50E JUMPI PUSH2 0x504 SWAP1 PUSH2 0x4FF PUSH2 0x482 DUP5 DUP8 PUSH2 0xA78 JUMP JUMPDEST PUSH2 0xD65 JUMP JUMPDEST PUSH2 0xA5C JUMP JUMPDEST PUSH2 0x44D JUMP JUMPDEST POP PUSH2 0xA5C JUMP JUMPDEST PUSH2 0x534 SWAP2 POP DUP6 RETURNDATASIZE DUP8 GT PUSH2 0x53A JUMPI JUMPDEST PUSH2 0x52C DUP2 DUP4 PUSH2 0x354 JUMP JUMPDEST DUP2 ADD SWAP1 PUSH2 0xAA2 JUMP JUMPDEST CODESIZE PUSH2 0x4E6 JUMP JUMPDEST POP RETURNDATASIZE PUSH2 0x522 JUMP JUMPDEST PUSH2 0x549 PUSH2 0xAB1 JUMP JUMPDEST PUSH2 0x4DE JUMP JUMPDEST SELFBALANCE PUSH2 0x4E8 JUMP JUMPDEST DUP2 PUSH1 0x1F DUP3 ADD SLT ISZERO PUSH2 0x13D JUMPI DUP1 CALLDATALOAD SWAP2 PUSH2 0x56B DUP4 PUSH2 0x376 JUMP JUMPDEST SWAP3 PUSH2 0x579 PUSH1 0x40 MLOAD SWAP5 DUP6 PUSH2 0x354 JUMP JUMPDEST DUP1 DUP5 MSTORE PUSH1 0x20 SWAP3 DUP4 DUP1 DUP7 ADD SWAP3 PUSH1 0x5 SHL DUP3 ADD ADD SWAP3 DUP4 GT PUSH2 0x13D JUMPI DUP4 ADD SWAP1 JUMPDEST DUP3 DUP3 LT PUSH2 0x5A3 JUMPI POP POP POP POP SWAP1 JUMP JUMPDEST DUP2 CALLDATALOAD DUP2 MSTORE SWAP1 DUP4 ADD SWAP1 DUP4 ADD PUSH2 0x595 JUMP JUMPDEST POP CALLVALUE PUSH2 0x13D JUMPI PUSH1 0x40 CALLDATASIZE PUSH1 0x3 NOT ADD SLT PUSH2 0x13D JUMPI PUSH8 0xFFFFFFFFFFFFFFFF PUSH1 0x4 CALLDATALOAD DUP2 DUP2 GT PUSH2 0x13D JUMPI CALLDATASIZE PUSH1 0x23 DUP3 ADD SLT ISZERO PUSH2 0x13D JUMPI DUP1 PUSH1 0x4 ADD CALLDATALOAD PUSH2 0x5F0 DUP2 PUSH2 0x376 JUMP JUMPDEST SWAP2 PUSH2 0x5FE PUSH1 0x40 MLOAD SWAP4 DUP5 PUSH2 0x354 JUMP JUMPDEST DUP2 DUP4 MSTORE PUSH1 0x20 SWAP2 PUSH1 0x24 DUP4 DUP6 ADD SWAP2 PUSH1 0x5 SHL DUP4 ADD ADD SWAP2 CALLDATASIZE DUP4 GT PUSH2 0x13D JUMPI PUSH1 0x24 ADD SWAP1 JUMPDEST DUP3 DUP3 LT PUSH2 0x646 JUMPI PUSH1 0x24 CALLDATALOAD DUP6 DUP8 DUP3 GT PUSH2 0x13D JUMPI PUSH2 0x640 PUSH2 0x19 SWAP3 CALLDATASIZE SWAP1 PUSH1 0x4 ADD PUSH2 0x554 JUMP JUMPDEST SWAP1 PUSH2 0x834 JUMP JUMPDEST DUP4 DUP1 SWAP2 DUP4 CALLDATALOAD PUSH2 0x654 DUP2 PUSH2 0x39D JUMP JUMPDEST DUP2 MSTORE ADD SWAP2 ADD SWAP1 PUSH2 0x61D JUMP JUMPDEST POP CALLVALUE PUSH2 0x13D JUMPI PUSH1 0x0 CALLDATASIZE PUSH1 0x3 NOT ADD SLT PUSH2 0x13D JUMPI PUSH1 0x20 PUSH1 0x40 MLOAD PUSH20 0xEEEEEEEEEEEEEEEEEEEEEEEEEEEEEEEEEEEEEEEE DUP2 MSTORE RETURN JUMPDEST SWAP1 PUSH1 0x40 PUSH1 0x3 NOT DUP4 ADD SLT PUSH2 0x13D JUMPI PUSH8 0xFFFFFFFFFFFFFFFF PUSH1 0x4 CALLDATALOAD DUP2 DUP2 GT PUSH2 0x13D JUMPI DUP4 PUSH2 0x6BC SWAP2 PUSH1 0x4 ADD PUSH2 0x3AE JUMP JUMPDEST SWAP3 PUSH1 0x24 CALLDATALOAD SWAP2 DUP3 GT PUSH2 0x13D JUMPI PUSH2 0x6D3 SWAP2 PUSH1 0x4 ADD PUSH2 0x554 JUMP JUMPDEST SWAP1 JUMP JUMPDEST POP CALLVALUE PUSH2 0x13D JUMPI PUSH2 0x6E5 CALLDATASIZE PUSH2 0x68F JUMP JUMPDEST SWAP1 PUSH1 0x0 JUMPDEST DUP2 MLOAD DUP2 LT ISZERO PUSH2 0x19 JUMPI PUSH2 0x71E SWAP1 PUSH2 0x504 PUSH1 0x1 PUSH1 0x1 PUSH1 0xA0 SHL SUB PUSH2 0x70B DUP4 DUP7 PUSH2 0xA78 JUMP JUMPDEST MLOAD AND PUSH2 0x717 DUP4 DUP8 PUSH2 0xA78 JUMP JUMPDEST MLOAD SWAP1 PUSH2 0xD65 JUMP JUMPDEST PUSH2 0x6E9 JUMP JUMPDEST POP CALLVALUE PUSH2 0x13D JUMPI PUSH1 0x0 CALLDATASIZE PUSH1 0x3 NOT ADD SLT PUSH2 0x13D JUMPI PUSH1 0x20 PUSH1 0x40 MLOAD PUSH1 0x0 NOT DUP2 MSTORE RETURN JUMPDEST POP CALLVALUE PUSH2 0x13D JUMPI PUSH2 0x750 CALLDATASIZE PUSH2 0x68F JUMP JUMPDEST SWAP1 PUSH1 0x0 JUMPDEST DUP2 MLOAD DUP2 LT ISZERO PUSH2 0x19 JUMPI DUP1 PUSH20 0xEEEEEEEEEEEEEEEEEEEEEEEEEEEEEEEEEEEEEEEE PUSH2 0x789 PUSH2 0x48F PUSH2 0x48F PUSH2 0x482 PUSH2 0x7EF SWAP7 DUP9 PUSH2 0xA78 JUMP JUMPDEST EQ PUSH2 0x81E JUMPI PUSH2 0x4E8 PUSH2 0x7E8 PUSH2 0x7A4 PUSH2 0x48F PUSH2 0x482 DUP6 DUP9 PUSH2 0xA78 JUMP JUMPDEST PUSH1 0x40 MLOAD PUSH4 0x70A08231 PUSH1 0xE0 SHL DUP2 MSTORE ADDRESS PUSH1 0x4 DUP3 ADD MSTORE PUSH1 0x20 SWAP2 DUP3 SWAP1 DUP3 SWAP1 PUSH1 0x24 SWAP1 DUP3 SWAP1 GAS STATICCALL SWAP2 DUP3 ISZERO PUSH2 0x811 JUMPI JUMPDEST PUSH1 0x0 SWAP3 PUSH2 0x7F4 JUMPI JUMPDEST POP POP PUSH2 0x7E1 DUP5 DUP9 PUSH2 0xA78 JUMP JUMPDEST MLOAD SWAP1 PUSH2 0xABE JUMP JUMPDEST PUSH1 0x64 SWAP1 DIV SWAP1 JUMP JUMPDEST PUSH2 0x754 JUMP JUMPDEST PUSH2 0x80A SWAP3 POP DUP1 RETURNDATASIZE LT PUSH2 0x53A JUMPI PUSH2 0x52C DUP2 DUP4 PUSH2 0x354 JUMP JUMPDEST CODESIZE DUP1 PUSH2 0x7D5 JUMP JUMPDEST PUSH2 0x819 PUSH2 0xAB1 JUMP JUMPDEST PUSH2 0x7CD JUMP JUMPDEST PUSH2 0x82F PUSH2 0x7E8 SELFBALANCE PUSH2 0x7E1 DUP5 DUP9 PUSH2 0xA78 JUMP JUMPDEST PUSH2 0x4E8 JUMP JUMPDEST PUSH1 0xFF PUSH1 0x2 SLOAD AND SWAP2 DUP3 ISZERO SWAP3 DUP4 PUSH2 0x8FE JUMPI JUMPDEST DUP1 ISZERO PUSH2 0x8F2 JUMPI JUMPDEST ISZERO PUSH2 0x896 JUMPI PUSH2 0x85E SWAP2 DUP4 PUSH2 0x875 JUMPI PUSH2 0x907 JUMP JUMPDEST PUSH2 0x864 JUMPI JUMP JUMPDEST PUSH2 0x873 PUSH1 0xFF NOT PUSH1 0x2 SLOAD AND PUSH1 0x2 SSTORE JUMP JUMPDEST JUMP JUMPDEST PUSH2 0x887 PUSH1 0x1 PUSH1 0xFF NOT PUSH1 0x2 SLOAD AND OR PUSH1 0x2 SSTORE JUMP JUMPDEST PUSH2 0x891 PUSH1 0x4 PUSH1 0x1 SSTORE JUMP JUMPDEST PUSH2 0x907 JUMP JUMPDEST PUSH1 0x40 MLOAD PUSH3 0x461BCD PUSH1 0xE5 SHL DUP2 MSTORE PUSH1 0x20 PUSH1 0x4 DUP3 ADD MSTORE PUSH1 0x2E PUSH1 0x24 DUP3 ADD MSTORE PUSH32 0x436F6E747261637420696E7374616E63652068617320616C7265616479206265 PUSH1 0x44 DUP3 ADD MSTORE PUSH14 0x195B881A5B9A5D1A585B1A5E9959 PUSH1 0x92 SHL PUSH1 0x64 DUP3 ADD MSTORE PUSH1 0x84 SWAP1 REVERT JUMPDEST POP PUSH1 0x1 SLOAD PUSH1 0x4 GT PUSH2 0x84B JUMP JUMPDEST POP ADDRESS EXTCODESIZE ISZERO PUSH2 0x844 JUMP JUMPDEST SWAP1 DUP2 MLOAD DUP2 MLOAD SUB PUSH2 0xA00 JUMPI PUSH1 0x40 MLOAD PUSH2 0x91D DUP2 PUSH2 0x30F JUMP JUMPDEST DUP3 DUP2 MSTORE PUSH1 0x20 DUP1 SWAP2 ADD SWAP1 DUP3 DUP3 MSTORE DUP4 MLOAD SWAP1 PUSH1 0x1 PUSH1 0x40 SHL DUP3 GT PUSH2 0x9F3 JUMPI JUMPDEST PUSH2 0x948 DUP3 PUSH1 0x35 SLOAD DUP2 PUSH1 0x35 SSTORE PUSH2 0xAF4 JUMP JUMPDEST DUP1 DUP6 ADD SWAP1 PUSH1 0x35 PUSH1 0x0 MSTORE PUSH1 0x0 DUP1 MLOAD PUSH1 0x20 PUSH2 0x10C4 DUP4 CODECOPY DUP2 MLOAD SWAP2 MSTORE PUSH1 0x0 SWAP3 JUMPDEST DUP5 DUP5 LT PUSH2 0x9C4 JUMPI POP POP POP POP POP PUSH2 0x97A SWAP1 MLOAD PUSH2 0xB21 JUMP JUMPDEST PUSH1 0x40 MLOAD SWAP2 PUSH32 0xDC9F439F707945ADE720B0154668DD64AF0689FB88B40ABDB0F0289156D23E9D DUP4 DUP1 PUSH2 0x9AD DUP6 DUP6 DUP6 SWAP9 PUSH2 0x160 JUMP JUMPDEST SUB SWAP1 LOG1 PUSH2 0x9BF PUSH1 0x40 MLOAD SWAP3 DUP4 SWAP3 DUP4 PUSH2 0x160 JUMP JUMPDEST SUB SWAP1 LOG1 JUMP JUMPDEST DUP1 MLOAD DUP3 SLOAD PUSH1 0x1 PUSH1 0x1 PUSH1 0xA0 SHL SUB NOT AND PUSH1 0x1 PUSH1 0x1 PUSH1 0xA0 SHL SUB SWAP2 SWAP1 SWAP2 AND OR DUP3 SSTORE PUSH1 0x1 SWAP4 DUP5 ADD SWAP4 SWAP2 SWAP1 SWAP2 ADD SWAP1 DUP3 ADD PUSH2 0x964 JUMP JUMPDEST PUSH2 0x9FB PUSH2 0x2F8 JUMP JUMPDEST PUSH2 0x938 JUMP JUMPDEST PUSH1 0x40 MLOAD PUSH3 0x461BCD PUSH1 0xE5 SHL DUP2 MSTORE PUSH1 0x20 PUSH1 0x4 DUP3 ADD MSTORE PUSH1 0x1D PUSH1 0x24 DUP3 ADD MSTORE PUSH32 0x4172726179206C656E677468732073686F756C6420626520657175616C000000 PUSH1 0x44 DUP3 ADD MSTORE PUSH1 0x64 SWAP1 REVERT JUMPDEST POP PUSH4 0x4E487B71 PUSH1 0xE0 SHL PUSH1 0x0 MSTORE PUSH1 0x11 PUSH1 0x4 MSTORE PUSH1 0x24 PUSH1 0x0 REVERT JUMPDEST PUSH1 0x1 SWAP1 PUSH1 0x0 NOT DUP2 EQ PUSH2 0xA6C JUMPI ADD SWAP1 JUMP JUMPDEST PUSH2 0xA74 PUSH2 0xA45 JUMP JUMPDEST ADD SWAP1 JUMP JUMPDEST DUP1 MLOAD DUP3 LT ISZERO PUSH2 0xA8C JUMPI PUSH1 0x20 SWAP2 PUSH1 0x5 SHL ADD ADD SWAP1 JUMP JUMPDEST PUSH4 0x4E487B71 PUSH1 0xE0 SHL PUSH1 0x0 MSTORE PUSH1 0x32 PUSH1 0x4 MSTORE PUSH1 0x24 PUSH1 0x0 REVERT JUMPDEST SWAP1 DUP2 PUSH1 0x20 SWAP2 SUB SLT PUSH2 0x13D JUMPI MLOAD SWAP1 JUMP JUMPDEST POP PUSH1 0x40 MLOAD RETURNDATASIZE PUSH1 0x0 DUP3 RETURNDATACOPY RETURNDATASIZE SWAP1 REVERT JUMPDEST DUP1 PUSH1 0x0 NOT DIV DUP3 GT DUP2 ISZERO ISZERO AND PUSH2 0xAD1 JUMPI MUL SWAP1 JUMP JUMPDEST PUSH2 0xAD9 PUSH2 0xA45 JUMP JUMPDEST MUL SWAP1 JUMP JUMPDEST DUP2 DUP2 LT PUSH2 0xAE8 JUMPI POP POP JUMP JUMPDEST PUSH1 0x0 DUP2 SSTORE PUSH1 0x1 ADD PUSH2 0xADD JUMP JUMPDEST DUP1 DUP3 LT PUSH2 0xAFF JUMPI POP POP JUMP JUMPDEST PUSH2 0x873 SWAP2 PUSH1 0x35 PUSH1 0x0 MSTORE PUSH1 0x0 DUP1 MLOAD PUSH1 0x20 PUSH2 0x10C4 DUP4 CODECOPY DUP2 MLOAD SWAP2 MSTORE SWAP2 DUP3 ADD SWAP2 ADD PUSH2 0xADD JUMP JUMPDEST DUP1 MLOAD SWAP1 PUSH1 0x1 PUSH1 0x40 SHL DUP3 GT PUSH2 0xBA5 JUMPI JUMPDEST PUSH1 0x36 SLOAD DUP3 PUSH1 0x36 SSTORE DUP1 DUP4 LT PUSH2 0xB81 JUMPI JUMPDEST POP PUSH1 0x20 DUP1 SWAP2 ADD SWAP1 PUSH1 0x36 PUSH1 0x0 MSTORE PUSH1 0x0 DUP1 MLOAD PUSH1 0x20 PUSH2 0x10E4 DUP4 CODECOPY DUP2 MLOAD SWAP2 MSTORE PUSH1 0x0 SWAP3 JUMPDEST DUP5 DUP5 LT PUSH2 0xB6C JUMPI POP POP POP POP POP JUMP JUMPDEST PUSH1 0x1 DUP4 DUP3 DUP3 SWAP4 MLOAD DUP6 SSTORE ADD SWAP3 ADD SWAP4 ADD SWAP3 SWAP1 PUSH2 0xB5E JUMP JUMPDEST PUSH2 0xB9F SWAP1 DUP4 PUSH1 0x0 DUP1 MLOAD PUSH1 0x20 PUSH2 0x10E4 DUP4 CODECOPY DUP2 MLOAD SWAP2 MSTORE SWAP2 DUP3 ADD SWAP2 ADD PUSH2 0xADD JUMP JUMPDEST CODESIZE PUSH2 0xB3F JUMP JUMPDEST PUSH2 0xBAD PUSH2 0x2F8 JUMP JUMPDEST PUSH2 0xB30 JUMP JUMPDEST PUSH1 0x40 MLOAD SWAP1 PUSH1 0x36 SLOAD DUP1 DUP4 MSTORE DUP3 PUSH1 0x20 SWAP2 DUP3 DUP3 ADD SWAP1 PUSH1 0x36 PUSH1 0x0 MSTORE PUSH1 0x0 DUP1 MLOAD PUSH1 0x20 PUSH2 0x10E4 DUP4 CODECOPY DUP2 MLOAD SWAP2 MSTORE SWAP4 PUSH1 0x0 SWAP1 JUMPDEST DUP3 DUP3 LT PUSH2 0xBF3 JUMPI POP POP POP PUSH2 0x873 SWAP3 POP SUB DUP4 PUSH2 0x354 JUMP JUMPDEST DUP6 SLOAD DUP5 MSTORE PUSH1 0x1 SWAP6 DUP7 ADD SWAP6 DUP9 SWAP6 POP SWAP4 DUP2 ADD SWAP4 SWAP1 SWAP2 ADD SWAP1 PUSH2 0xBDD JUMP JUMPDEST PUSH1 0x40 MLOAD SWAP1 PUSH2 0xC1A DUP3 PUSH2 0x30F JUMP JUMPDEST DUP2 PUSH1 0x40 MLOAD DUP1 PUSH1 0x35 SLOAD DUP1 DUP4 MSTORE DUP2 PUSH1 0x20 DUP1 SWAP5 ADD PUSH1 0x35 PUSH1 0x0 MSTORE PUSH1 0x0 DUP1 MLOAD PUSH1 0x20 PUSH2 0x10C4 DUP4 CODECOPY DUP2 MLOAD SWAP2 MSTORE SWAP3 PUSH1 0x0 JUMPDEST DUP7 DUP3 DUP3 LT PUSH2 0xCB4 JUMPI POP POP POP PUSH2 0xC5A SWAP3 POP SUB DUP3 PUSH2 0x354 JUMP JUMPDEST DUP3 MSTORE PUSH1 0x40 MLOAD SWAP2 DUP3 DUP4 DUP4 PUSH1 0x36 SLOAD SWAP3 DUP4 DUP2 MSTORE ADD PUSH1 0x36 PUSH1 0x0 MSTORE PUSH1 0x0 DUP1 MLOAD PUSH1 0x20 PUSH2 0x10E4 DUP4 CODECOPY DUP2 MLOAD SWAP2 MSTORE SWAP3 PUSH1 0x0 JUMPDEST DUP7 DUP3 DUP3 LT PUSH2 0xC9E JUMPI POP POP POP PUSH2 0xC9A SWAP3 POP SUB DUP5 PUSH2 0x354 JUMP JUMPDEST ADD MSTORE JUMP JUMPDEST DUP6 SLOAD DUP5 MSTORE PUSH1 0x1 SWAP6 DUP7 ADD SWAP6 DUP10 SWAP6 POP SWAP4 ADD SWAP3 ADD PUSH2 0xC83 JUMP JUMPDEST DUP6 SLOAD PUSH1 0x1 PUSH1 0x1 PUSH1 0xA0 SHL SUB AND DUP5 MSTORE PUSH1 0x1 SWAP6 DUP7 ADD SWAP6 DUP8 SWAP6 POP SWAP4 ADD SWAP3 ADD PUSH2 0xC43 JUMP JUMPDEST RETURNDATASIZE ISZERO PUSH2 0xD1C JUMPI RETURNDATASIZE SWAP1 PUSH8 0xFFFFFFFFFFFFFFFF DUP3 GT PUSH2 0xD0F JUMPI JUMPDEST PUSH1 0x40 MLOAD SWAP2 PUSH2 0xD03 PUSH1 0x1F DUP3 ADD PUSH1 0x1F NOT AND PUSH1 0x20 ADD DUP5 PUSH2 0x354 JUMP JUMPDEST DUP3 MSTORE RETURNDATASIZE PUSH1 0x0 PUSH1 0x20 DUP5 ADD RETURNDATACOPY JUMP JUMPDEST PUSH2 0xD17 PUSH2 0x2F8 JUMP JUMPDEST PUSH2 0xCEB JUMP JUMPDEST PUSH1 0x60 SWAP1 JUMP JUMPDEST ISZERO PUSH2 0xD28 JUMPI JUMP JUMPDEST PUSH1 0x40 MLOAD PUSH3 0x461BCD PUSH1 0xE5 SHL DUP2 MSTORE PUSH1 0x20 PUSH1 0x4 DUP3 ADD MSTORE PUSH1 0x15 PUSH1 0x24 DUP3 ADD MSTORE PUSH21 0x2932BB32B93A32B21022AA24103A3930B739B332B9 PUSH1 0x59 SHL PUSH1 0x44 DUP3 ADD MSTORE PUSH1 0x64 SWAP1 REVERT JUMPDEST SWAP2 SWAP1 SWAP2 PUSH2 0xD70 PUSH2 0xC0D JUMP JUMPDEST PUSH1 0x1 PUSH1 0x1 PUSH1 0xA0 SHL SUB DUP3 AND PUSH20 0xEEEEEEEEEEEEEEEEEEEEEEEEEEEEEEEEEEEEEEEE EQ ISZERO SWAP2 PUSH1 0x0 SWAP2 PUSH1 0x20 DUP2 ADD SWAP2 SWAP1 DUP4 JUMPDEST DUP2 MLOAD MLOAD DUP2 LT ISZERO PUSH2 0xE98 JUMPI DUP1 PUSH2 0xDCB PUSH2 0xDC3 PUSH2 0xDBC PUSH2 0xE5F SWAP5 DUP9 MLOAD PUSH2 0xA78 JUMP JUMPDEST MLOAD DUP12 PUSH2 0xABE JUMP JUMPDEST PUSH2 0x2710 SWAP1 DIV SWAP1 JUMP JUMPDEST DUP1 ISZERO PUSH2 0x50E JUMPI PUSH32 0x60CE3CC2D133631EAC66A476F14997A9FA682BD05A60DD993CF02285822D78D8 SWAP1 DUP9 ISZERO PUSH2 0xE64 JUMPI PUSH2 0xE11 DUP2 PUSH2 0xE0B PUSH2 0x482 DUP7 DUP10 MLOAD PUSH2 0xA78 JUMP JUMPDEST DUP9 PUSH2 0xEA2 JUMP JUMPDEST PUSH2 0xE1F PUSH2 0x482 DUP5 DUP8 MLOAD PUSH2 0xA78 JUMP JUMPDEST PUSH2 0xE57 PUSH2 0xE2D DUP6 DUP11 MLOAD PUSH2 0xA78 JUMP JUMPDEST MLOAD PUSH1 0x40 DUP1 MLOAD PUSH1 0x1 PUSH1 0x1 PUSH1 0xA0 SHL SUB SWAP1 SWAP5 AND DUP5 MSTORE PUSH1 0x20 DUP5 ADD SWAP2 SWAP1 SWAP2 MSTORE DUP3 ADD SWAP3 SWAP1 SWAP3 MSTORE SWAP1 DUP2 SWAP1 PUSH1 0x60 DUP3 ADD SWAP1 JUMP JUMPDEST SUB SWAP1 LOG1 PUSH2 0xA5C JUMP JUMPDEST PUSH2 0xD9D JUMP JUMPDEST PUSH2 0xE93 DUP9 DUP1 DUP1 PUSH2 0xE7E PUSH2 0x48F PUSH2 0x48F PUSH2 0x482 DUP11 DUP14 MLOAD PUSH2 0xA78 JUMP JUMPDEST DUP6 PUSH1 0x40 MLOAD SWAP2 GAS CALL PUSH2 0xE8D PUSH2 0xCD3 JUMP JUMPDEST POP PUSH2 0xD21 JUMP JUMPDEST PUSH2 0xE11 JUMP JUMPDEST POP POP POP POP POP POP SWAP1 POP JUMP JUMPDEST PUSH1 0x40 MLOAD PUSH4 0xA9059CBB PUSH1 0xE0 SHL PUSH1 0x20 DUP3 ADD SWAP1 DUP2 MSTORE PUSH1 0x1 PUSH1 0x1 PUSH1 0xA0 SHL SUB SWAP4 DUP5 AND PUSH1 0x24 DUP4 ADD MSTORE PUSH1 0x44 DUP1 DUP4 ADD SWAP6 SWAP1 SWAP6 MSTORE SWAP4 DUP2 MSTORE PUSH2 0xF31 SWAP3 SWAP1 SWAP2 PUSH2 0xEDF DUP4 PUSH2 0x338 JUMP JUMPDEST AND PUSH1 0x40 MLOAD SWAP2 PUSH2 0xEED DUP4 PUSH2 0x30F JUMP JUMPDEST PUSH1 0x20 DUP4 MSTORE PUSH32 0x5361666545524332303A206C6F772D6C6576656C2063616C6C206661696C6564 PUSH1 0x20 DUP5 ADD MSTORE PUSH1 0x0 DUP1 SWAP6 DUP2 SWAP3 MLOAD SWAP1 DUP3 DUP6 GAS CALL PUSH2 0xF2B PUSH2 0xCD3 JUMP JUMPDEST SWAP2 PUSH2 0x1025 JUMP JUMPDEST DUP1 MLOAD SWAP1 DUP2 ISZERO SWAP2 DUP3 ISZERO PUSH2 0xF4A JUMPI JUMPDEST POP POP PUSH2 0x873 SWAP2 POP PUSH2 0xF7A JUMP JUMPDEST DUP2 SWAP3 POP SWAP1 PUSH1 0x20 SWAP2 DUP2 ADD SUB SLT PUSH2 0xF76 JUMPI PUSH1 0x20 ADD MLOAD SWAP1 DUP2 ISZERO ISZERO DUP3 SUB PUSH2 0xF73 JUMPI POP PUSH2 0x873 SWAP1 CODESIZE DUP1 PUSH2 0xF3E JUMP JUMPDEST DUP1 REVERT JUMPDEST POP DUP1 REVERT JUMPDEST ISZERO PUSH2 0xF81 JUMPI JUMP JUMPDEST PUSH1 0x40 MLOAD PUSH3 0x461BCD PUSH1 0xE5 SHL DUP2 MSTORE PUSH1 0x20 PUSH1 0x4 DUP3 ADD MSTORE PUSH1 0x2A PUSH1 0x24 DUP3 ADD MSTORE PUSH32 0x5361666545524332303A204552433230206F7065726174696F6E20646964206E PUSH1 0x44 DUP3 ADD MSTORE PUSH10 0x1BDD081CDD58D8D95959 PUSH1 0xB2 SHL PUSH1 0x64 DUP3 ADD MSTORE PUSH1 0x84 SWAP1 REVERT JUMPDEST ISZERO PUSH2 0xFE0 JUMPI JUMP JUMPDEST PUSH1 0x40 MLOAD PUSH3 0x461BCD PUSH1 0xE5 SHL DUP2 MSTORE PUSH1 0x20 PUSH1 0x4 DUP3 ADD MSTORE PUSH1 0x1D PUSH1 0x24 DUP3 ADD MSTORE PUSH32 0x416464726573733A2063616C6C20746F206E6F6E2D636F6E7472616374000000 PUSH1 0x44 DUP3 ADD MSTORE PUSH1 0x64 SWAP1 REVERT JUMPDEST SWAP2 SWAP3 SWAP1 ISZERO PUSH2 0x1045 JUMPI POP DUP2 MLOAD ISZERO PUSH2 0x1039 JUMPI POP SWAP1 JUMP JUMPDEST PUSH2 0x6D3 SWAP1 EXTCODESIZE ISZERO ISZERO PUSH2 0xFD9 JUMP JUMPDEST DUP3 MLOAD SWAP1 SWAP2 POP ISZERO PUSH2 0x1058 JUMPI POP DUP1 MLOAD SWAP1 PUSH1 0x20 ADD REVERT JUMPDEST PUSH1 0x40 MLOAD SWAP1 PUSH3 0x461BCD PUSH1 0xE5 SHL DUP3 MSTORE DUP2 PUSH1 0x20 DUP1 PUSH1 0x4 DUP4 ADD MSTORE DUP3 MLOAD SWAP3 DUP4 PUSH1 0x24 DUP5 ADD MSTORE PUSH1 0x0 SWAP2 JUMPDEST DUP5 DUP4 LT PUSH2 0x10AA JUMPI POP POP SWAP2 DUP1 PUSH1 0x44 SWAP4 GT PUSH2 0x109D JUMPI JUMPDEST PUSH1 0x1F ADD PUSH1 0x1F NOT AND DUP2 ADD SUB ADD SWAP1 REVERT JUMPDEST PUSH1 0x0 DUP4 DUP3 DUP5 ADD ADD MSTORE PUSH2 0x108F JUMP JUMPDEST DUP2 DUP4 ADD DUP2 ADD MLOAD DUP7 DUP5 ADD PUSH1 0x44 ADD MSTORE DUP6 SWAP4 POP SWAP2 DUP3 ADD SWAP2 PUSH2 0x107B JUMP INVALID 0xCF LOG4 0xBE 0xC1 0xD3 0x29 DUP5 ADDMOD 0xBB GAS 0xFC 0xFC 0xD9 0xC4 ADDRESS SLOAD SWAP13 JUMPDEST BALANCE 0xF8 0xAA 0x5C PC BASEFEE ISZERO SHR EXP SSTORE DELEGATECALL PUSH20 0xC34D4A11F94E20A93C79F6EC743A1954EC4FC2C0 DUP5 0x29 0xAE 0x21 0x22 GT DUP12 CALLCODE CALLVALUE 0xB2 XOR 0x5C DUP2 0xB8 LOG2 PUSH5 0x6970667358 0x22 SLT KECCAK256 0xCB SLOAD SHL CREATE PUSH5 0xFA7E163604 0x5F INVALID 0x24 PUSH9 0x948B11F170613FC8B6 DUP5 RETURN DUP16 0x5F ADDRESS PUSH28 0x45FDB264736F6C634300080D00330000000000000000000000000000 "},"methodIdentifiers":{"DISTRIBUTION_BASE()":"13520658","IMPLEMENTATION_REVISION()":"23879bb1","KYBER_ETH_MOCK_ADDRESS()":"8c0c9a25","MAX_UINT()":"e5b5019a","MAX_UINT_MINUS_ONE()":"043c41d4","MIN_CONVERSION_RATE()":"40d58a4a","distribute(address[])":"6138889b","distributeWithAmounts(address[],uint256[])":"cc8cc9d8","distributeWithPercentages(address[],uint256[])":"eed64c30","getDistribution()":"1cced51b","initialize(address[],uint256[])":"7fbbe46f","recipientBurn()":"217ab806","tokenToBurn()":"4f1b86eb"}}}}}