{"contracts/oracle/TestLendingRateOracle.sol":{"TestLendingRateOracle":{"abi":[{"inputs":[{"internalType":"address","name":"_asset","type":"address"}],"name":"getMarketBorrowRate","outputs":[{"internalType":"uint256","name":"","type":"uint256"}],"stateMutability":"view","type":"function"},{"inputs":[{"internalType":"address","name":"_asset","type":"address"},{"internalType":"uint256","name":"_lendingRate","type":"uint256"}],"name":"setMarketBorrowRate","outputs":[],"stateMutability":"nonpayable","type":"function"}],"evm":{"bytecode":{"linkReferences":{},"object":"608080604052346100155760ee908161001b8239f35b600080fdfe6080806040526004361015601257600080fd5b600090813560e01c90816372eb293d14606a575063bb85c0bb14603457600080fd5b3460675760203660031901126067576020906040906001600160a01b036057609e565b1681528083522054604051908152f35b80fd5b905034609a576040366003190112609a576001600160a01b036089609e565b168252816020526024356040832055f35b5080fd5b600435906001600160a01b038216820360b357565b600080fdfea26469706673582212209318a07a358fb23039c6905ec728954268f7adc1e659f98c735c12ec2cd21eeb64736f6c634300080d0033","opcodes":"PUSH1 0x80 DUP1 PUSH1 0x40 MSTORE CALLVALUE PUSH2 0x15 JUMPI PUSH1 0xEE SWAP1 DUP2 PUSH2 0x1B DUP3 CODECOPY RETURN JUMPDEST PUSH1 0x0 DUP1 REVERT INVALID PUSH1 0x80 DUP1 PUSH1 0x40 MSTORE PUSH1 0x4 CALLDATASIZE LT ISZERO PUSH1 0x12 JUMPI PUSH1 0x0 DUP1 REVERT JUMPDEST PUSH1 0x0 SWAP1 DUP2 CALLDATALOAD PUSH1 0xE0 SHR SWAP1 DUP2 PUSH4 0x72EB293D EQ PUSH1 0x6A JUMPI POP PUSH4 0xBB85C0BB EQ PUSH1 0x34 JUMPI PUSH1 0x0 DUP1 REVERT JUMPDEST CALLVALUE PUSH1 0x67 JUMPI PUSH1 0x20 CALLDATASIZE PUSH1 0x3 NOT ADD SLT PUSH1 0x67 JUMPI PUSH1 0x20 SWAP1 PUSH1 0x40 SWAP1 PUSH1 0x1 PUSH1 0x1 PUSH1 0xA0 SHL SUB PUSH1 0x57 PUSH1 0x9E JUMP JUMPDEST AND DUP2 MSTORE DUP1 DUP4 MSTORE KECCAK256 SLOAD PUSH1 0x40 MLOAD SWAP1 DUP2 MSTORE RETURN JUMPDEST DUP1 REVERT JUMPDEST SWAP1 POP CALLVALUE PUSH1 0x9A JUMPI PUSH1 0x40 CALLDATASIZE PUSH1 0x3 NOT ADD SLT PUSH1 0x9A JUMPI PUSH1 0x1 PUSH1 0x1 PUSH1 0xA0 SHL SUB PUSH1 0x89 PUSH1 0x9E JUMP JUMPDEST AND DUP3 MSTORE DUP2 PUSH1 0x20 MSTORE PUSH1 0x24 CALLDATALOAD PUSH1 0x40 DUP4 KECCAK256 SSTORE RETURN JUMPDEST POP DUP1 REVERT JUMPDEST PUSH1 0x4 CALLDATALOAD SWAP1 PUSH1 0x1 PUSH1 0x1 PUSH1 0xA0 SHL SUB DUP3 AND DUP3 SUB PUSH1 0xB3 JUMPI JUMP JUMPDEST PUSH1 0x0 DUP1 REVERT INVALID LOG2 PUSH5 0x6970667358 0x22 SLT KECCAK256 SWAP4 XOR LOG0 PUSH27 0x358FB23039C6905EC728954268F7ADC1E659F98C735C12EC2CD21E 0xEB PUSH5 0x736F6C6343 STOP ADDMOD 0xD STOP CALLER "},"methodIdentifiers":{"getMarketBorrowRate(address)":"bb85c0bb","setMarketBorrowRate(address,uint256)":"72eb293d"}}}}}