{
  "_format": "hh-sol-artifact-1",
  "contractName": "LendingBoardConfigurator",
  "sourceName": "contracts/lendingboard/LendingBoardConfigurator.sol",
  "abi": [
    {
      "anonymous": false,
      "inputs": [
        {
          "indexed": true,
          "internalType": "address",
          "name": "_reserve",
          "type": "address"
        }
      ],
      "name": "BorrowingDisabledOnReserve",
      "type": "event"
    },
    {
      "anonymous": false,
      "inputs": [
        {
          "indexed": false,
          "internalType": "address",
          "name": "_reserve",
          "type": "address"
        },
        {
          "indexed": false,
          "internalType": "bool",
          "name": "_stableRateEnabled",
          "type": "bool"
        }
      ],
      "name": "BorrowingEnabledOnReserve",
      "type": "event"
    },
    {
      "anonymous": false,
      "inputs": [
        {
          "indexed": true,
          "internalType": "address",
          "name": "_reserve",
          "type": "address"
        }
      ],
      "name": "ReserveActivated",
      "type": "event"
    },
    {
      "anonymous": false,
      "inputs": [
        {
          "indexed": false,
          "internalType": "address",
          "name": "_reserve",
          "type": "address"
        },
        {
          "indexed": false,
          "internalType": "uint256",
          "name": "_ltv",
          "type": "uint256"
        }
      ],
      "name": "ReserveBaseLtvChanged",
      "type": "event"
    },
    {
      "anonymous": false,
      "inputs": [
        {
          "indexed": true,
          "internalType": "address",
          "name": "_reserve",
          "type": "address"
        }
      ],
      "name": "ReserveDeactivated",
      "type": "event"
    },
    {
      "anonymous": false,
      "inputs": [
        {
          "indexed": false,
          "internalType": "address",
          "name": "_reserve",
          "type": "address"
        },
        {
          "indexed": false,
          "internalType": "uint256",
          "name": "_decimals",
          "type": "uint256"
        }
      ],
      "name": "ReserveDecimalsChanged",
      "type": "event"
    },
    {
      "anonymous": false,
      "inputs": [
        {
          "indexed": true,
          "internalType": "address",
          "name": "_reserve",
          "type": "address"
        }
      ],
      "name": "ReserveDisabledAsCollateral",
      "type": "event"
    },
    {
      "anonymous": false,
      "inputs": [
        {
          "indexed": true,
          "internalType": "address",
          "name": "_reserve",
          "type": "address"
        },
        {
          "indexed": false,
          "internalType": "uint256",
          "name": "_ltv",
          "type": "uint256"
        },
        {
          "indexed": false,
          "internalType": "uint256",
          "name": "_liquidationThreshold",
          "type": "uint256"
        },
        {
          "indexed": false,
          "internalType": "uint256",
          "name": "_liquidationBonus",
          "type": "uint256"
        }
      ],
      "name": "ReserveEnabledAsCollateral",
      "type": "event"
    },
    {
      "anonymous": false,
      "inputs": [
        {
          "indexed": true,
          "internalType": "address",
          "name": "_reserve",
          "type": "address"
        }
      ],
      "name": "ReserveFreezed",
      "type": "event"
    },
    {
      "anonymous": false,
      "inputs": [
        {
          "indexed": true,
          "internalType": "address",
          "name": "_reserve",
          "type": "address"
        },
        {
          "indexed": true,
          "internalType": "address",
          "name": "_aToken",
          "type": "address"
        },
        {
          "indexed": false,
          "internalType": "address",
          "name": "_interestRateStrategyAddress",
          "type": "address"
        }
      ],
      "name": "ReserveInitialized",
      "type": "event"
    },
    {
      "anonymous": false,
      "inputs": [
        {
          "indexed": false,
          "internalType": "address",
          "name": "_reserve",
          "type": "address"
        },
        {
          "indexed": false,
          "internalType": "address",
          "name": "_strategy",
          "type": "address"
        }
      ],
      "name": "ReserveInterestRateStrategyChanged",
      "type": "event"
    },
    {
      "anonymous": false,
      "inputs": [
        {
          "indexed": false,
          "internalType": "address",
          "name": "_reserve",
          "type": "address"
        },
        {
          "indexed": false,
          "internalType": "uint256",
          "name": "_bonus",
          "type": "uint256"
        }
      ],
      "name": "ReserveLiquidationBonusChanged",
      "type": "event"
    },
    {
      "anonymous": false,
      "inputs": [
        {
          "indexed": false,
          "internalType": "address",
          "name": "_reserve",
          "type": "address"
        },
        {
          "indexed": false,
          "internalType": "uint256",
          "name": "_threshold",
          "type": "uint256"
        }
      ],
      "name": "ReserveLiquidationThresholdChanged",
      "type": "event"
    },
    {
      "anonymous": false,
      "inputs": [
        {
          "indexed": true,
          "internalType": "address",
          "name": "_reserve",
          "type": "address"
        }
      ],
      "name": "ReserveRemoved",
      "type": "event"
    },
    {
      "anonymous": false,
      "inputs": [
        {
          "indexed": true,
          "internalType": "address",
          "name": "_reserve",
          "type": "address"
        }
      ],
      "name": "ReserveUnfreezed",
      "type": "event"
    },
    {
      "anonymous": false,
      "inputs": [
        {
          "indexed": true,
          "internalType": "address",
          "name": "_reserve",
          "type": "address"
        }
      ],
      "name": "StableRateDisabledOnReserve",
      "type": "event"
    },
    {
      "anonymous": false,
      "inputs": [
        {
          "indexed": true,
          "internalType": "address",
          "name": "_reserve",
          "type": "address"
        }
      ],
      "name": "StableRateEnabledOnReserve",
      "type": "event"
    },
    {
      "inputs": [],
      "name": "CONFIGURATOR_REVISION",
      "outputs": [
        {
          "internalType": "uint256",
          "name": "",
          "type": "uint256"
        }
      ],
      "stateMutability": "view",
      "type": "function"
    },
    {
      "inputs": [
        {
          "internalType": "address",
          "name": "_reserve",
          "type": "address"
        }
      ],
      "name": "activateReserve",
      "outputs": [],
      "stateMutability": "nonpayable",
      "type": "function"
    },
    {
      "inputs": [],
      "name": "boardAddressesProvider",
      "outputs": [
        {
          "internalType": "contract LendingBoardAddressesProvider",
          "name": "",
          "type": "address"
        }
      ],
      "stateMutability": "view",
      "type": "function"
    },
    {
      "inputs": [
        {
          "internalType": "address",
          "name": "_reserve",
          "type": "address"
        }
      ],
      "name": "deactivateReserve",
      "outputs": [],
      "stateMutability": "nonpayable",
      "type": "function"
    },
    {
      "inputs": [
        {
          "internalType": "address",
          "name": "_reserve",
          "type": "address"
        }
      ],
      "name": "disableBorrowingOnReserve",
      "outputs": [],
      "stateMutability": "nonpayable",
      "type": "function"
    },
    {
      "inputs": [
        {
          "internalType": "address",
          "name": "_reserve",
          "type": "address"
        }
      ],
      "name": "disableReserveAsCollateral",
      "outputs": [],
      "stateMutability": "nonpayable",
      "type": "function"
    },
    {
      "inputs": [
        {
          "internalType": "address",
          "name": "_reserve",
          "type": "address"
        }
      ],
      "name": "disableReserveStableBorrowRate",
      "outputs": [],
      "stateMutability": "nonpayable",
      "type": "function"
    },
    {
      "inputs": [
        {
          "internalType": "address",
          "name": "_reserve",
          "type": "address"
        },
        {
          "internalType": "bool",
          "name": "_stableBorrowRateEnabled",
          "type": "bool"
        }
      ],
      "name": "enableBorrowingOnReserve",
      "outputs": [],
      "stateMutability": "nonpayable",
      "type": "function"
    },
    {
      "inputs": [
        {
          "internalType": "address",
          "name": "_reserve",
          "type": "address"
        },
        {
          "internalType": "uint256",
          "name": "_baseLTVasCollateral",
          "type": "uint256"
        },
        {
          "internalType": "uint256",
          "name": "_liquidationThreshold",
          "type": "uint256"
        },
        {
          "internalType": "uint256",
          "name": "_liquidationBonus",
          "type": "uint256"
        }
      ],
      "name": "enableReserveAsCollateral",
      "outputs": [],
      "stateMutability": "nonpayable",
      "type": "function"
    },
    {
      "inputs": [
        {
          "internalType": "address",
          "name": "_reserve",
          "type": "address"
        }
      ],
      "name": "enableReserveStableBorrowRate",
      "outputs": [],
      "stateMutability": "nonpayable",
      "type": "function"
    },
    {
      "inputs": [
        {
          "internalType": "address",
          "name": "_reserve",
          "type": "address"
        }
      ],
      "name": "freezeReserve",
      "outputs": [],
      "stateMutability": "nonpayable",
      "type": "function"
    },
    {
      "inputs": [
        {
          "internalType": "address",
          "name": "_reserve",
          "type": "address"
        },
        {
          "internalType": "uint8",
          "name": "_underlyingAssetDecimals",
          "type": "uint8"
        },
        {
          "internalType": "address",
          "name": "_interestRateStrategyAddress",
          "type": "address"
        }
      ],
      "name": "initReserve",
      "outputs": [],
      "stateMutability": "nonpayable",
      "type": "function"
    },
    {
      "inputs": [
        {
          "internalType": "address",
          "name": "_reserve",
          "type": "address"
        },
        {
          "internalType": "string",
          "name": "_aTokenName",
          "type": "string"
        },
        {
          "internalType": "string",
          "name": "_aTokenSymbol",
          "type": "string"
        },
        {
          "internalType": "uint8",
          "name": "_underlyingAssetDecimals",
          "type": "uint8"
        },
        {
          "internalType": "address",
          "name": "_interestRateStrategyAddress",
          "type": "address"
        }
      ],
      "name": "initReserveWithData",
      "outputs": [],
      "stateMutability": "nonpayable",
      "type": "function"
    },
    {
      "inputs": [
        {
          "internalType": "contract LendingBoardAddressesProvider",
          "name": "_boardAddressesProvider",
          "type": "address"
        }
      ],
      "name": "initialize",
      "outputs": [],
      "stateMutability": "nonpayable",
      "type": "function"
    },
    {
      "inputs": [],
      "name": "refreshLendingBoardCoreConfiguration",
      "outputs": [],
      "stateMutability": "nonpayable",
      "type": "function"
    },
    {
      "inputs": [
        {
          "internalType": "address",
          "name": "_reserveToRemove",
          "type": "address"
        }
      ],
      "name": "removeLastAddedReserve",
      "outputs": [],
      "stateMutability": "nonpayable",
      "type": "function"
    },
    {
      "inputs": [
        {
          "internalType": "address",
          "name": "_reserve",
          "type": "address"
        },
        {
          "internalType": "uint256",
          "name": "_ltv",
          "type": "uint256"
        }
      ],
      "name": "setReserveBaseLTVasCollateral",
      "outputs": [],
      "stateMutability": "nonpayable",
      "type": "function"
    },
    {
      "inputs": [
        {
          "internalType": "address",
          "name": "_reserve",
          "type": "address"
        },
        {
          "internalType": "uint256",
          "name": "_decimals",
          "type": "uint256"
        }
      ],
      "name": "setReserveDecimals",
      "outputs": [],
      "stateMutability": "nonpayable",
      "type": "function"
    },
    {
      "inputs": [
        {
          "internalType": "address",
          "name": "_reserve",
          "type": "address"
        },
        {
          "internalType": "address",
          "name": "_rateStrategyAddress",
          "type": "address"
        }
      ],
      "name": "setReserveInterestRateStrategyAddress",
      "outputs": [],
      "stateMutability": "nonpayable",
      "type": "function"
    },
    {
      "inputs": [
        {
          "internalType": "address",
          "name": "_reserve",
          "type": "address"
        },
        {
          "internalType": "uint256",
          "name": "_bonus",
          "type": "uint256"
        }
      ],
      "name": "setReserveLiquidationBonus",
      "outputs": [],
      "stateMutability": "nonpayable",
      "type": "function"
    },
    {
      "inputs": [
        {
          "internalType": "address",
          "name": "_reserve",
          "type": "address"
        },
        {
          "internalType": "uint256",
          "name": "_threshold",
          "type": "uint256"
        }
      ],
      "name": "setReserveLiquidationThreshold",
      "outputs": [],
      "stateMutability": "nonpayable",
      "type": "function"
    },
    {
      "inputs": [
        {
          "internalType": "address",
          "name": "_reserve",
          "type": "address"
        }
      ],
      "name": "unfreezeReserve",
      "outputs": [],
      "stateMutability": "nonpayable",
      "type": "function"
    }
  ],
  "bytecode": "0x6080806040523461001a5760008055614ed090816100208239f35b600080fdfe6080604052600436101562000014575b600080fd5b60003560e01c8063071033e4146200020c5780631d2118f914620002015780633443a14b14620001f657806336805a6214620001eb5780633e72a45414620001e057806366bbd92814620001d557806370fb84f414620001ca5780637aca76eb14620001bf5780637af635a614620001b4578063a5bc826c14620001a9578063a8dc0f45146200019e578063b75d6f341462000193578063b8c0f7451462000188578063c4d66de8146200017d578063d06e2ec11462000172578063d466016f1462000167578063dae4c4e7146200015c578063e8ae2f5b1462000151578063ee502a6c1462000146578063eede87c1146200013b578063ef1f937314620001305763fd7d6f1d146200012657600080fd5b6200000f62001e26565b506200000f62001cce565b506200000f62001b3f565b506200000f62001b13565b506200000f620019bb565b506200000f62001863565b506200000f62001733565b506200000f620015db565b506200000f620014a4565b506200000f6200134c565b506200000f620011f4565b506200000f6200109c565b506200000f62000efa565b506200000f62000edb565b506200000f62000d77565b506200000f62000c47565b506200000f62000b17565b506200000f62000904565b506200000f6200087c565b506200000f6200061b565b506200000f62000450565b506200000f6200023a565b6001600160a01b038116036200000f57565b6024359060ff821682036200000f57565b50346200000f5760603660031901126200000f5760006004356200025e8162000217565b620003a56200026c62000229565b604435906200027b8262000217565b6200037c6200032860018060a01b039562000389876034541697620002ce6004602060409b8c519283809263594b6dbd60e01b82525afa90811562000440575b8c916200040b575b508216331462001f7a565b821660048a8a516306fdde0360e01b815281818481875afa908115620003fb575b8291620003de575b508b5175020b0bb329024b73a32b932b9ba103132b0b934b733960551b6020820152968791603683015b906200207a565b03926200033e601f1994858101895288620007dd565b8b516395d89b4160e01b815292839182905afa908115620003ce575b8b91620003a8575b508951606160f81b60208201529586916021830162000321565b03908101855284620007dd565b6200039f83836200039962002093565b620023ca565b620020e8565b51f35b620003c7913d8091833e620003be8183620007dd565b81019062002011565b3862000362565b620003d862001f6d565b6200035a565b620003f4913d8091833e620003be8183620007dd565b38620002f7565b6200040562001f6d565b620002ef565b62000431915060203d811162000438575b620004288183620007dd565b81019062001f52565b38620002c3565b503d6200041c565b6200044a62001f6d565b620002bb565b50346200000f576040806003193601126200000f5760043590620004748262000217565b602435620004828162000217565b603454825163594b6dbd60e01b81526001600160a01b0391602091600491839190851690620004cf9083818681865afa9081156200060b575b600091620005e9575b508616331462001f7a565b8651630774f5f560e21b815292839182905afa918215620005d9575b600092620005b7575b50501690813b156200000f578251631d2118f960e01b81526001600160a01b038581166004830152821660248201526000947f5644b64ebb0ce18c4032248ca52f58355469092ff072866c3dcd8640e817d6a59390919086908290604490829084905af18015620005a7575b62000589575b5083516001600160a01b0391821681529116602082015280604081015b0390a151f35b8062000599620005a092620007b9565b8062000ecf565b3862000566565b620005b162001f6d565b62000560565b620005d19250803d106200043857620004288183620007dd565b3880620004f4565b620005e362001f6d565b620004eb565b620006049150843d86116200043857620004288183620007dd565b38620004c4565b6200061562001f6d565b620004bb565b50346200000f576040806003193601126200000f57600435906200063f8262000217565b603454815163594b6dbd60e01b8152602435916001600160a01b039160209160049183918516906200068d9083818681865afa9081156200060b57600091620005e957508616331462001f7a565b8651630774f5f560e21b815292839182905afa91821562000792575b60009262000770575b50501690813b156200000f578251633443a14b60e01b81526001600160a01b0385166004820152602481018290526000947f437dd3b61b7c7eee7fc70515c8846482dfca92e2e1e02af5d638c5d4878d67149390919086908290818381604481015b03925af1801562000760575b62000749575b5083516001600160a01b0390911681526020810191909152806040810162000583565b80620005996200075992620007b9565b3862000726565b6200076a62001f6d565b62000720565b6200078a9250803d106200043857620004288183620007dd565b3880620006b2565b6200079c62001f6d565b620006a9565b50634e487b7160e01b600052604160045260246000fd5b67ffffffffffffffff8111620007ce57604052565b620007d8620007a2565b604052565b90601f8019910116810190811067ffffffffffffffff821117620007ce57604052565b60209067ffffffffffffffff81116200081f575b601f01601f19160190565b62000829620007a2565b62000814565b81601f820112156200000f57803590620008498262000800565b92620008596040519485620007dd565b828452602083830101116200000f57816000926020809301838601378301015290565b50346200000f5760a03660031901126200000f576004356200089e8162000217565b67ffffffffffffffff906024358281116200000f57620008c39036906004016200082f565b916044359081116200000f57620008df9036906004016200082f565b6064359060ff821682036200000f576200090293608435936200039f8562000217565b005b50346200000f576020806003193601126200000f57600435620009278162000217565b60018060a01b03620009da8160048582603454166200097060405163594b6dbd60e01b815283818681865afa90811562000b07575b60009162000ae5575b508516331462001f7a565b604051630774f5f560e21b815292839182905afa90811562000ad5575b60009162000ab3575b50604051630c33cfd960e41b81526001600160a01b0386166004820152911694908181602481895afa91821562000aa3575b60009262000a6f575b5050156200236a565b823b156200000f57604051630f9ca91560e21b81526001600160a01b038316600482015260009384908290602490829084905af1801562000a5f575b62000a48575b5060405191167f6f60cf8bd0f218cabe1ea3150bd07b0b758c35c4cfdf7138017a283e65564d5e8383a2f35b806200059962000a5892620007b9565b3862000a1c565b62000a6962001f6d565b62000a16565b62000a939250803d1062000a9b575b62000a8a8183620007dd565b8101906200235a565b3880620009d1565b503d62000a7e565b62000aad62001f6d565b620009c8565b62000ace9150863d88116200043857620004288183620007dd565b3862000996565b62000adf62001f6d565b6200098d565b62000b009150843d86116200043857620004288183620007dd565b3862000965565b62000b1162001f6d565b6200095c565b50346200000f576040806003193601126200000f576004359062000b3b8262000217565b603454815163594b6dbd60e01b8152602435916001600160a01b0391602091600491839185169062000b899083818681865afa9081156200060b57600091620005e957508616331462001f7a565b8651630774f5f560e21b815292839182905afa91821562000c37575b60009262000c15575b50501690813b156200000f578251630cd77b2560e31b81526001600160a01b0385166004820152602481018290526000947f2e73b7f1df792712003e6859f940c1e8711c3f1329474771fee71d2ec116312993909190869082908183816044810162000714565b62000c2f9250803d106200043857620004288183620007dd565b388062000bae565b62000c4162001f6d565b62000ba5565b50346200000f576040806003193601126200000f576004359062000c6b8262000217565b603454815163594b6dbd60e01b8152602435916001600160a01b0391602091600491839185169062000cb99083818681865afa9081156200060b57600091620005e957508616331462001f7a565b8651630774f5f560e21b815292839182905afa91821562000d67575b60009262000d45575b50501690813b156200000f578251631c3ee13d60e21b81526001600160a01b0385166004820152602481018290526000947fe3ba662f7011e701056a43e8cf832242322eeff01453e7a72d01ec2af36d9aec93909190869082908183816044810162000714565b62000d5f9250803d106200043857620004288183620007dd565b388062000cde565b62000d7162001f6d565b62000cd5565b50346200000f576020806003193601126200000f5760043562000d9a8162000217565b60018060a01b038260048294836034541662000dde60405163594b6dbd60e01b815283818681865afa9081156200060b57600091620005e957508616331462001f7a565b604051630774f5f560e21b815292839182905afa91821562000ebf575b60009262000e9d575b50501691823b156200000f57604051637aca76eb60e01b81526001600160a01b038316600482015260009384908290602490829084905af1801562000e8d575b62000e76575b5060405191167fda5cdb66c77023db6abe5226a4d4a40c3b8e768012f4ff4e446f62f60127fc568383a2f35b806200059962000e8692620007b9565b3862000e4a565b62000e9762001f6d565b62000e44565b62000eb79250803d106200043857620004288183620007dd565b388062000e04565b62000ec962001f6d565b62000dfb565b60009103126200000f57565b50346200000f5760003660031901126200000f57602060405160038152f35b50346200000f5760803660031901126200000f5760043562000f1c8162000217565b60345460405163594b6dbd60e01b815260243592604435926001600160a01b0392606435918491602091600491839185169062000f759083818681865afa9081156200060b57600091620005e957508616331462001f7a565b604051630774f5f560e21b815292839182905afa9182156200108c575b6000926200106a575b50501690813b156200000f5760405163296f209b60e21b81526001600160a01b03841660048201526024810187905260448101869052606481018290527fdfe62f53e7707d64f99bca15d2bdf3facc4074bc047e7dec2ea130300e992744956200103e939091906000908290608490829084905af180156200105a575b62001043575b506040519485941696846040919493926060820195825260208201520152565b0390a2005b80620005996200105392620007b9565b386200101e565b6200106462001f6d565b62001018565b620010849250803d106200043857620004288183620007dd565b388062000f9b565b6200109662001f6d565b62000f92565b50346200000f576020806003193601126200000f57600435620010bf8162000217565b60018060a01b03826004829483603454166200110360405163594b6dbd60e01b815283818681865afa9081156200060b57600091620005e957508616331462001f7a565b604051630774f5f560e21b815292839182905afa918215620011e4575b600092620011c2575b50501691823b156200000f5760405163a8dc0f4560e01b81526001600160a01b038316600482015260009384908290602490829084905af18015620011b2575b6200119b575b5060405191167fe9a7e5fd4fc8ea18e602350324bf48e8f05d12434af0ce0be05743e6a5fdcb9e8383a2f35b8062000599620011ab92620007b9565b386200116f565b620011bc62001f6d565b62001169565b620011dc9250803d106200043857620004288183620007dd565b388062001129565b620011ee62001f6d565b62001120565b50346200000f576020806003193601126200000f57600435620012178162000217565b60018060a01b03826004829483603454166200125b60405163594b6dbd60e01b815283818681865afa9081156200060b57600091620005e957508616331462001f7a565b604051630774f5f560e21b815292839182905afa9182156200133c575b6000926200131a575b50501691823b156200000f57604051632dd75bcd60e21b81526001600160a01b038316600482015260009384908290602490829084905af180156200130a575b620012f3575b5060405191167f35b80cd8ea3440e9a8454f116fa658b858da1b64c86c48451f4559cefcdfb56c8383a2f35b80620005996200130392620007b9565b38620012c7565b6200131462001f6d565b620012c1565b620013349250803d106200043857620004288183620007dd565b388062001281565b6200134662001f6d565b62001278565b50346200000f576020806003193601126200000f576004356200136f8162000217565b60018060a01b0382600482948360345416620013b360405163594b6dbd60e01b815283818681865afa9081156200060b57600091620005e957508616331462001f7a565b604051630774f5f560e21b815292839182905afa91821562001494575b60009262001472575b50501691823b156200000f5760405163b8c0f74560e01b81526001600160a01b038316600482015260009384908290602490829084905af1801562001462575b6200144b575b5060405191167f8bbf35441ac2c607ddecadd3d8ee58636d32f217fad201fb2655581502dd84e38383a2f35b80620005996200145b92620007b9565b386200141f565b6200146c62001f6d565b62001419565b6200148c9250803d106200043857620004288183620007dd565b3880620013d9565b6200149e62001f6d565b620013d0565b50346200000f5760203660031901126200000f57600435620014c68162000217565b60ff600154169081159182620015d1575b8015620015c4575b156200156857620015129082620015295760018060a01b03166bffffffffffffffffffffffff60a01b6034541617603455565b6200151957005b6200090260ff1960015416600155565b6200153b600160ff1981541617600155565b620015466003600055565b60018060a01b03166bffffffffffffffffffffffff60a01b6034541617603455565b60405162461bcd60e51b815260206004820152602e60248201527f436f6e747261637420696e7374616e63652068617320616c726561647920626560448201526d195b881a5b9a5d1a585b1a5e995960921b6064820152608490fd5b50600054600311620014df565b50303b15620014d7565b50346200000f576020806003193601126200000f57600435620015fe8162000217565b60018060a01b03826004829483603454166200164260405163594b6dbd60e01b815283818681865afa9081156200060b57600091620005e957508616331462001f7a565b604051630774f5f560e21b815292839182905afa91821562001723575b60009262001701575b50501691823b156200000f5760405163d06e2ec160e01b81526001600160a01b038316600482015260009384908290602490829084905af18015620016f1575b620016da575b5060405191167f19dbf059e4d3a0cb998d4328b7b991bbe312827eeb053d8ff63edf33158e01db8383a2f35b8062000599620016ea92620007b9565b38620016ae565b620016fb62001f6d565b620016a8565b6200171b9250803d106200043857620004288183620007dd565b388062001668565b6200172d62001f6d565b6200165f565b50346200000f576040806003193601126200000f5760043590620017578262000217565b603454815163594b6dbd60e01b8152602435916001600160a01b03916020916004918391851690620017a59083818681865afa9081156200060b57600091620005e957508616331462001f7a565b8651630774f5f560e21b815292839182905afa91821562001853575b60009262001831575b50501690813b156200000f57825163d466016f60e01b81526001600160a01b0385166004820152602481018290526000947fda47540c7f7fd5a68c3285f3bb708f322424f948f41df6f51622fa24b396866493909190869082908183816044810162000714565b6200184b9250803d106200043857620004288183620007dd565b3880620017ca565b6200185d62001f6d565b620017c1565b50346200000f576020806003193601126200000f57600435620018868162000217565b60018060a01b0382600482948360345416620018ca60405163594b6dbd60e01b815283818681865afa9081156200060b57600091620005e957508616331462001f7a565b604051630774f5f560e21b815292839182905afa918215620019ab575b60009262001989575b50501691823b156200000f5760405163dae4c4e760e01b81526001600160a01b038316600482015260009384908290602490829084905af1801562001979575b62001962575b5060405191167f8dee2b2f3e98319ae6347eda521788f73f4086c9be9a594942b370b137fb8cb18383a2f35b80620005996200197292620007b9565b3862001936565b6200198362001f6d565b62001930565b620019a39250803d106200043857620004288183620007dd565b3880620018f0565b620019b562001f6d565b620018e7565b50346200000f576020806003193601126200000f57600435620019de8162000217565b60018060a01b038260048294836034541662001a2260405163594b6dbd60e01b815283818681865afa9081156200060b57600091620005e957508616331462001f7a565b604051630774f5f560e21b815292839182905afa91821562001b03575b60009262001ae1575b50501691823b156200000f5760405163e8ae2f5b60e01b81526001600160a01b038316600482015260009384908290602490829084905af1801562001ad1575b62001aba575b5060405191167f9cc75e4cafc9a556a369bc53468649075680eb554d225d5918f199453824796d8383a2f35b806200059962001aca92620007b9565b3862001a8e565b62001adb62001f6d565b62001a88565b62001afb9250803d106200043857620004288183620007dd565b388062001a48565b62001b0d62001f6d565b62001a3f565b50346200000f5760003660031901126200000f576034546040516001600160a01b039091168152602090f35b50346200000f576040806003193601126200000f576004359062001b638262000217565b60243580151581036200000f57603454825163594b6dbd60e01b81526001600160a01b039160209160049183919085169062001bbb9083818681865afa9081156200060b57600091620005e957508616331462001f7a565b8651630774f5f560e21b815292839182905afa91821562001cbe575b60009262001c9c575b50501690813b156200000f57825163eede87c160e01b81526001600160a01b038516600482015281151560248201526000947fab2f7f9e5ca2772fafa94f355c1842a80ae6b9e41f83083098d81f67d7a0b5089390919086908290604490829084905af1801562001c8c575b62001c75575b5083516001600160a01b0390911681529015156020820152806040810162000583565b806200059962001c8592620007b9565b3862001c52565b62001c9662001f6d565b62001c4c565b62001cb69250803d106200043857620004288183620007dd565b388062001be0565b62001cc862001f6d565b62001bd7565b50346200000f576020806003193601126200000f5760043562001cf18162000217565b60018060a01b038260048294836034541662001d3560405163594b6dbd60e01b815283818681865afa9081156200060b57600091620005e957508616331462001f7a565b604051630774f5f560e21b815292839182905afa91821562001e16575b60009262001df4575b50501691823b156200000f5760405163ef1f937360e01b81526001600160a01b038316600482015260009384908290602490829084905af1801562001de4575b62001dcd575b5060405191167f995959c2ceab6ce20e8cd89c904e449fd3e21918a0f420c9ec9340595585526b8383a2f35b806200059962001ddd92620007b9565b3862001da1565b62001dee62001f6d565b62001d9b565b62001e0e9250803d106200043857620004288183620007dd565b388062001d5b565b62001e2062001f6d565b62001d52565b50346200000f5760008060031936011262001f4f5760345460405163594b6dbd60e01b815282916001600160a01b0391602091600491839185169062001e889083818681865afa90811562001f3f575b8891620005e957508616331462001f7a565b604051630774f5f560e21b815292839182905afa91821562001f2f575b849262001f0d575b505016803b1562001f0a578190600460405180948193636468108360e01b83525af1801562001efa575b62001ee3575b50604051f35b806200059962001ef392620007b9565b3862001edd565b62001f0462001f6d565b62001ed7565b50fd5b62001f279250803d106200043857620004288183620007dd565b388062001ead565b62001f3962001f6d565b62001ea5565b62001f4962001f6d565b62001e76565b80fd5b908160209103126200000f575162001f6a8162000217565b90565b506040513d6000823e3d90fd5b1562001f8257565b60405162461bcd60e51b815260206004820152602960248201527f5468652063616c6c6572206d7573742062652061206c656e64696e6720706f6f604482015268361036b0b730b3b2b960b91b6064820152608490fd5b918091926000905b82821062001ffb57501162001ff4575050565b6000910152565b9150806020918301518186015201829162001fe1565b6020818303126200000f5780519067ffffffffffffffff82116200000f570181601f820112156200000f578051620020498162000800565b92620020596040519485620007dd565b818452602082840101116200000f5762001f6a916020808501910162001fd9565b906200208f6020928281519485920162001fd9565b0190565b604051906040820182811067ffffffffffffffff821117620020d8575b604052601682527518551bdad95b8813985b5948185b990814de5b589bdb60521b6020830152565b620020e2620007a2565b620020b0565b80919294939460018060a01b03928391620021968360345416918460405163594b6dbd60e01b81526200213c60209182816004818a5afa908115620022d8575b600091620022b6575b508316331462001f7a565b604051630774f5f560e21b81528181600481895afa918215620022a6575b60009262002284575b505016978a604051958695612a4d8088019088821067ffffffffffffffff83111762002274575b6200244e89396200230f565b03906000f0801562002264575b1694833b156200000f57604051630114cc2960e61b81526001600160a01b038381166004830152878116602483015260ff92909216604482015290851660648201527f1d9fcd0dc935b4778d5af97f55c4d7b2553257382f1ef25c412114c8eeebd88e936000908290608490829084905af1801562002254575b6200223d575b506040516001600160a01b039490941684521691602090a3565b80620005996200224d92620007b9565b3862002223565b6200225e62001f6d565b6200221d565b6200226e62001f6d565b620021a3565b6200227e620007a2565b6200218a565b6200229e9250803d106200043857620004288183620007dd565b388062002163565b620022b062001f6d565b6200215a565b620022d19150833d85116200043857620004288183620007dd565b3862002131565b620022e262001f6d565b62002128565b90602091620023038151809281855285808601910162001fd9565b601f01601f1916010190565b6001600160a01b0391821681529116602082015260ff909116604082015260a06060820181905262001f6a9391926200234b91840190620022e8565b916080818403910152620022e8565b908160209103126200000f575190565b156200237257565b60405162461bcd60e51b815260206004820152602a60248201527f546865206c6971756964697479206f66207468652072657365727665206e65656044820152690647320746f20626520360b41b6064820152608490fd5b600092916200243a84936200242b6040519384926200241b620024076020860198632ced7cef60e01b8a52606060248801526084870190620022e8565b6023199384878303016044880152620022e8565b91848303016064850152620022e8565b03601f198101835282620007dd565b51906a636f6e736f6c652e6c6f675afa5056fe60808060405234620000b75762002a4d8038038091620000208285620000d3565b8339810160a082820312620000b7578151906200003d8262000106565b60208301516200004d8162000106565b604084015160ff811603620000b75760608401516001600160401b039490858111620000b757836200008191830162000118565b926080820151958611620000b757620000a795620000a0920162000118565b92620001d9565b60405161232a9081620007238239f35b600080fd5b50634e487b7160e01b600052604160045260246000fd5b601f909101601f19168101906001600160401b03821190821017620000f757604052565b62000101620000bc565b604052565b6001600160a01b03811603620000b757565b9080601f83011215620000b7578151906001600160401b038211620001a1575b6040519260209162000154601f8501601f1916840186620000d3565b838552828483010111620000b75782906000905b8383831062000188575050116200017e57505090565b6000918301015290565b8193508281939201015182828801015201839162000168565b620001ab620000bc565b62000138565b90816020910312620000b75751620001c98162000106565b90565b506040513d6000823e3d90fd5b620001ee6200036a9462000210939462000609565b600a80546001600160a01b0319166001600160a01b0392909216919091179055565b600a54620003489062000233906001600160a01b03165b6001600160a01b031690565b6040518091630774f5f560e21b825281600460209384935afa91821562000406575b600092620003e2575b50600b80546001600160a01b0319166001600160a01b03938416179055620002e2826004836200029962000227600a5460018060a01b031690565b604051630cc3b2e360e21b815292839182905afa908115620003d2575b600091620003b0575b50600c8054919092166001600160a01b03166001600160a01b0319909116179055565b600a546004908290620002fe906001600160a01b031662000227565b6040516352cb335b60e11b815292839182905afa918215620003a0575b6000926200036c575b5050600d8054919092166001600160a01b03166001600160a01b0319909116179055565b600580546001600160a01b0319166001600160a01b0392909216919091179055565b565b620003909250803d1062000398575b620003878183620000d3565b810190620001b1565b388062000324565b503d6200037b565b620003aa620001cc565b6200031b565b620003cb9150843d86116200039857620003878183620000d3565b38620002bf565b620003dc620001cc565b620002b6565b81620003fe9293503d84116200039857620003878183620000d3565b90386200025e565b62000410620001cc565b62000255565b90600182811c9216801562000448575b60208310146200043257565b634e487b7160e01b600052602260045260246000fd5b91607f169162000426565b601f811162000460575050565b6000906003825260208220906020601f850160051c83019410620004a1575b601f0160051c01915b8281106200049557505050565b81815560010162000488565b90925082906200047f565b601f8111620004b9575050565b6000906004825260208220906020601f850160051c83019410620004fa575b601f0160051c01915b828110620004ee57505050565b818155600101620004e1565b9092508290620004d8565b80519091906001600160401b038111620005f9575b62000532816200052c60045462000416565b620004ac565b602080601f831160011462000571575081929360009262000565575b50508160011b916000199060031b1c191617600455565b0151905038806200054e565b6004600052601f198316949091907f8a35acfbc15ff81a39ae7d344fd709f28e8600b4aa8c65c6b64bfe7fe36bd19b926000905b878210620005e0575050836001959610620005c6575b505050811b01600455565b015160001960f88460031b161c19169055388080620005bb565b80600185968294968601518155019501930190620005a5565b62000603620000bc565b6200051a565b80519091906001600160401b03811162000712575b62000636816200063060035462000416565b62000453565b602080601f83116001146200067d575081906200036a9460009262000671575b50508160011b916000199060031b1c19161760035562000505565b01519050388062000656565b60036000529293919291601f1984167fc2575a0e9e593c00f959f8c92f12db2869c3395a3b0502d05e2516446f71f85b936000905b828210620006f95750509160019391856200036a97969410620006df575b505050811b0160035562000505565b015160001960f88460031b161c19169055388080620006d0565b80600186978294978701518155019601940190620006b2565b6200071c620000bc565b6200061e56fe60806040526004361015610013575b600080fd5b60003560e01c806306fdde0314610207578063095ea7b3146101fe5780630e49072d146101f557806312c87c2d146101ec57806318160ddd146101e35780631d51e7cf146101da57806323b872dd146101d1578063313ce567146101c8578063325a9b13146101bf57806339509351146101b65780633edb7cb8146101ad578063445e8010146101a45780635eae177c1461019b57806370a082311461019257806389d1a0fc1461018957806394362e8b1461018057806395d89b4114610177578063a457c2d71461016e578063a9059cbb14610165578063c634dfaa1461015c578063d0fc81d214610153578063db006a751461014a578063dd62ed3e14610141578063ee9907a4146101385763f866c3191461013057600080fd5b61000e610ed9565b5061000e610e9e565b5061000e610e45565b5061000e610cb4565b5061000e610c96565b5061000e610c5b565b5061000e610ae8565b5061000e610a39565b5061000e610975565b5061000e6108f2565b5061000e6108c8565b5061000e6108a4565b5061000e610872565b5061000e610836565b5061000e610759565b5061000e610700565b5061000e610649565b5061000e61062c565b5061000e610575565b5061000e610505565b5061000e6104e1565b5061000e61040b565b5061000e6103e6565b5061000e6103b4565b5061000e610280565b600091031261000e57565b91908251928382526000905b848210610254575092806020939411610247575b601f01601f1916010190565b600083828401015261023b565b90602090818082850101519082860101520190610227565b90602061027d92818152019061021b565b90565b503461000e576000806003193601126103855760405190806003549060019180831c9280821692831561037b575b602092838610851461036757858852602088019490811561034b57506001146102f2575b6102ee876102e28189038261100a565b6040519182918261026c565b0390f35b600360005294509192917fc2575a0e9e593c00f959f8c92f12db2869c3395a3b0502d05e2516446f71f85b5b83861061033a57505050910190506102e2826102ee38806102d2565b80548587015294820194810161031e565b60ff191685525050500191506102e29050826102ee38806102d2565b634e487b7160e01b82526022600452602482fd5b93607f16936102ae565b80fd5b600435906001600160a01b038216820361000e57565b602435906001600160a01b038216820361000e57565b503461000e57604036600319011261000e576103db6103d1610388565b6024359033611074565b602060405160018152f35b503461000e57602036600319011261000e57610409610403610388565b33612059565b005b503461000e57602036600319011261000e57610425610388565b6001600160a01b03811633811461048e5733600090815260096020526040812080546001600160a01b0319166001600160a01b039094169390931790925560405190337fc2d6a42a9d5273283f73009a07aacfb043f2f91173a8d9d33b504afe898db08b8484a3f35b60405162461bcd60e51b815260206004820152602560248201527f557365722063616e6e6f74206769766520616c6c6f77616e636520746f20686960448201526436b9b2b63360d91b6064820152608490fd5b503461000e57600036600319011261000e5760206104fd611709565b604051908152f35b503461000e57602036600319011261000e576001600160a01b03610527610388565b1660005260086020526020604060002054604051908152f35b606090600319011261000e576001600160a01b0390600435828116810361000e5791602435908116810361000e579060443590565b503461000e5761058436610540565b6001600160a01b038316600090815260016020908152604080832033845290915290209091905492600184016105cb575b6105bf93506111f0565b60405160018152602090f35b8284106105e7576105e2836105bf95033383611074565b6105b5565b60405162461bcd60e51b815260206004820152601d60248201527f45524332303a20696e73756666696369656e7420616c6c6f77616e63650000006044820152606490fd5b503461000e57600036600319011261000e57602060405160128152f35b503461000e57604036600319011261000e57610663610388565b61066b61039e565b6001600160a01b038281166000908152600960205260409020541633036106955761040991612059565b60405162461bcd60e51b815260206004820152603a60248201527f43616c6c6572206973206e6f7420616c6c6f77656420746f207265646972656360448201527f742074686520696e746572657374206f662074686520757365720000000000006064820152608490fd5b503461000e57604036600319011261000e576103db61071d610388565b33600052600160205261075260243561074c8360406000209060018060a01b0316600052602052604060002090565b54611068565b9033611074565b503461000e57604036600319011261000e57610773610388565b7f90e5d3d68ec162d9c7de393037a3ede04dd44f68e051bf2ace4a73c299dbc4db6024359160018060a01b03906107af82600c541633146114e4565b61080f6107bb826118cc565b919092506107ca888487611bdb565b6107d48886611398565b87600091818110610829575b1461081a575b1561081457506000905b6040519485941696846040919493926060820195825260208201520152565b0390a2005b906107f0565b50610824846121f9565b6107e6565b61083161102c565b6107e0565b503461000e57602036600319011261000e5760206001600160a01b038061085b610388565b166000526007825260406000205416604051908152f35b503461000e57604036600319011261000e57602061089a610891610388565b6024359061182f565b6040519015158152f35b503461000e57602036600319011261000e5760206104fd6108c3610388565b611603565b503461000e57600036600319011261000e576005546040516001600160a01b039091168152602090f35b503461000e57604036600319011261000e5761090c610388565b7fbe7799898ca2d813ff902b487c1b434ab45b47edd8f38b77ad5e99aae8341b7a6024359160018060a01b039061094882600c541633146114e4565b61080f610954826118cc565b9250905061096b6109658883611068565b856119c7565b6107f0878561154b565b503461000e576000806003193601126103855760405190806004549060019180831c92808216928315610a2f575b602092838610851461036757858852602088019490811561034b57506001146109d6576102ee876102e28189038261100a565b600460005294509192917f8a35acfbc15ff81a39ae7d344fd709f28e8600b4aa8c65c6b64bfe7fe36bd19b5b838610610a1e57505050910190506102e2826102ee38806102d2565b805485870152948201948101610a02565b93607f16936109a3565b503461000e57604036600319011261000e57610a53610388565b60243590336000526001602052610a808160406000209060018060a01b0316600052602052604060002090565b5491808310610a95576105bf92039033611074565b60405162461bcd60e51b815260206004820152602560248201527f45524332303a2064656372656173656420616c6c6f77616e63652062656c6f77604482015264207a65726f60d81b6064820152608490fd5b503461000e57604036600319011261000e57610b02610388565b602435610b17610b12823361182f565b6111a4565b8015610bfd577f89a178eaa27e0cd201bd795ca8ff716ac0df9618494510ca79771cfc66ffcde8610bda610b4a336118cc565b90969250610b5a839492946118cc565b939250959050610b6b888a33611bdb565b610b7e610b788988611068565b866119c7565b610b89888633611ec5565b610b95886000926114cd565b15610bee575b15610be9575060005b60405194859460018060a01b0316983398869192608093969594919660a084019784526020840152604083015260608201520152565b0390a360405160018152602090f35b610ba4565b50610bf8336121f9565b610b9b565b60405162461bcd60e51b815260206004820152603060248201527f5472616e7366657272656420616d6f756e74206e6565647320746f206265206760448201526f726561746572207468616e207a65726f60801b6064820152608490fd5b503461000e57602036600319011261000e576001600160a01b03610c7d610388565b1660005260006020526020604060002054604051908152f35b503461000e57600036600319011261000e5760206040516000198152f35b503461000e57602036600319011261000e57600435610cd48115156112d9565b610cdd336118cc565b919250906000198414610e3c575b610cf783851115611324565b610d04610b12853361182f565b610d0f848333611bdb565b610d198433611398565b6000610d2585856114cd565b15610e2d575b600c54610d48906001600160a01b03165b6001600160a01b031690565b600554610d609087906001600160a01b0316966114cd565b94813b1561000e57604051631312bc7b60e31b81526001600160a01b039190911660048201523360248201526044810187905260648101959095527fbd5034ffbd47e4e72a94baa2cdb74c6fad73cb3bcdc13036b72ec8306f5a764694906000908290608490829084905af18015610e20575b610e07575b5015610e0157506000905b6040805194855260208501919091528301523391806060810161080f565b90610de3565b80610e14610e1a92610fe9565b80610210565b38610dd8565b610e2861138b565b610dd3565b50610e37336121f9565b610d2b565b92508192610ceb565b503461000e57604036600319011261000e576020610e95610e64610388565b610e6c61039e565b6001600160a01b0391821660009081526001855260408082209290931681526020919091522090565b54604051908152f35b503461000e57602036600319011261000e576001600160a01b03610ec0610388565b1660005260066020526020604060002054604051908152f35b503461000e57610ee836610540565b9060018060a01b03610eff81600c541633146114e4565b8215610bfd577f89a178eaa27e0cd201bd795ca8ff716ac0df9618494510ca79771cfc66ffcde891610fb8610f33866118cc565b925090610f3f856118cc565b959250929050610f508a858d611bdb565b610f63610f5d8b85611068565b886119c7565b610f6e8a888d611ec5565b610f7a8a6000926114cd565b15610fc3575b15610fbd57506000915b60408051998a5260208a019190915288015260608701526080860152908216949091169290819060a0820190565b0390a3005b91610f8a565b50610fcd8a6121f9565b610f80565b50634e487b7160e01b600052604160045260246000fd5b67ffffffffffffffff8111610ffd57604052565b611005610fd2565b604052565b90601f8019910116810190811067ffffffffffffffff821117610ffd57604052565b50634e487b7160e01b600052601160045260246000fd5b6b019d971e4fe8401e740000008119811161105c570190565b61106461102c565b0190565b8119811161105c570190565b6001600160a01b03808216929190831561115357821693841561110357806110ed7f8c5be1e5ebec7d5bd14f71427d1e84f3dd0314c0f7b2291e5b200ac8c7c3b925946110d66110fe9560018060a01b03166000526001602052604060002090565b9060018060a01b0316600052602052604060002090565b556040519081529081906020820190565b0390a3565b60405162461bcd60e51b815260206004820152602260248201527f45524332303a20617070726f766520746f20746865207a65726f206164647265604482015261737360f01b6064820152608490fd5b60405162461bcd60e51b8152602060048201526024808201527f45524332303a20617070726f76652066726f6d20746865207a65726f206164646044820152637265737360e01b6064820152608490fd5b156111ab57565b60405162461bcd60e51b815260206004820152601b60248201527f5472616e736665722063616e6e6f7420626520616c6c6f7765642e00000000006044820152606490fd5b91906111ff610b12838561182f565b8115610bfd576110fe7f89a178eaa27e0cd201bd795ca8ff716ac0df9618494510ca79771cfc66ffcde891611233856118cc565b9190949250611241846118cc565b94925092905061125289888c611bdb565b61126561125f8a85611068565b876119c7565b61127089878c611ec5565b61127c896000926114cd565b156112ca575b156112c457506000905b60405195869560018060a01b038091169a1698869192608093969594919660a084019784526020840152604083015260608201520152565b9061128c565b506112d4896121f9565b611282565b156112e057565b606460405162461bcd60e51b815260206004820152602060248201527f416d6f756e7420746f2072656465656d206e6565647320746f206265203e20306044820152fd5b1561132b57565b60405162461bcd60e51b815260206004820152603260248201527f557365722063616e6e6f742072656465656d206d6f7265207468616e2074686560448201527120617661696c61626c652062616c616e636560701b6064820152608490fd5b506040513d6000823e3d90fd5b6001600160a01b03811690811561147e576001600160a01b03811660009081526020819052604090205483811061142e57837fddf252ad1be2c89b69c2b068fc378daa952ba7f163c4a11628f55a4df523b3ef926114106000966110fe94039160018060a01b03166000526000602052604060002090565b5561141e8160025403600255565b6040519081529081906020820190565b60405162461bcd60e51b815260206004820152602260248201527f45524332303a206275726e20616d6f756e7420657863656564732062616c616e604482015261636560f01b6064820152608490fd5b60405162461bcd60e51b815260206004820152602160248201527f45524332303a206275726e2066726f6d20746865207a65726f206164647265736044820152607360f81b6064820152608490fd5b8181106114d8570390565b6114e061102c565b0390565b156114eb57565b60405162461bcd60e51b815260206004820152603260248201527f5468652063616c6c6572206f6620746869732066756e6374696f6e206d7573746044820152710818994818481b195b991a5b99c81c1bdbdb60721b6064820152608490fd5b6001600160a01b0381169182156115be576020816115af6000946115927fddf252ad1be2c89b69c2b068fc378daa952ba7f163c4a11628f55a4df523b3ef95600254611068565b6002556001600160a01b0316600090815260208190526040902090565b818154019055604051908152a3565b60405162461bcd60e51b815260206004820152601f60248201527f45524332303a206d696e7420746f20746865207a65726f2061646472657373006044820152606490fd5b60018060a01b038082166000526000602052604060002054611662816040516040810181811067ffffffffffffffff8211176116ed575b6040526013815272557365722041546f6b656e2042616c616e636560681b602082015261229c565b6001600160a01b038316600090815260086020526040902054918115806116e5575b6116dc576001600160a01b0384811660009081526007602052604090205416166116c45761027d926116b9836116bf93611068565b90611cf0565b6114cd565b90806116bf6116d69261027d95611cf0565b90611068565b50505050600090565b508215611684565b6116f5610fd2565b61163a565b9081602091031261000e575190565b60025480156117cc576b033b2e3c9fd0803ce800000061178961178461176a61173461027d956117d2565b600b5460055460405163d15e005360e01b81526001600160a01b0391821660048201529360209285921690829081906024820190565b03915afa9182156117bf575b60009261178f575b506117f7565b611043565b0461180a565b6117b191925060203d81116117b8575b6117a9818361100a565b8101906116fa565b903861177e565b503d61179f565b6117c761138b565b611776565b50600090565b633b9aca009080600019048211811515166117eb570290565b6117f361102c565b0290565b80600019048211811515166117eb570290565b633b9aca0090631dcd65008119811161182257010490565b61182a61102c565b010490565b600d546005546040516376e9d61560e01b81526001600160a01b03918216600482015292811660248401526044830193909352909160209183916064918391165afa9081156118bf575b600091611884575090565b6020813d82116118b7575b8161189c6020938361100a565b810103126118b35751908115158203610385575090565b5080fd5b3d915061188f565b6118c761138b565b611879565b60018060a01b038116600052600060205261194c60406000205492836118f184611603565b8181106119ba575b0392611905848261154b565b600b5460209061191d906001600160a01b0316610d3c565b60055460405163d15e005360e01b81526001600160a01b03909116600482015294859190829081906024820190565b03915afa9283156119ad575b60009361198b575b506001600160a01b0316600090815260066020526040902082905b556119868385611068565b929190565b61197b93506119a79060203d81116117b8576117a9818361100a565b92611960565b6119b561138b565b611958565b6119c261102c565b6118f9565b6001600160a01b039081166000908152600760205260409020548116918215611aca577f70ff8cf632603e2bfd1afb7e4061acce53d95356b1be9726b99fa22ba733b01f91608091611a18856118cc565b9250939050611a3d8361074c8960018060a01b03166000526008602052604060002090565b6001600160a01b0388166000908152600860209081526040808320939093556007905220541680611a84575b506040519283526020830152604082015260006060820152a2565b611ac3611aa78561074c8460018060a01b03166000526008602052604060002090565b6001600160a01b03909216600090815260086020526040902090565b5538611a69565b505050565b6001600160a01b039081166000908152600760205260409020548116918215611aca577f70ff8cf632603e2bfd1afb7e4061acce53d95356b1be9726b99fa22ba733b01f91608091611b20856118cc565b925093905082611b428860018060a01b03166000526008602052604060002090565b54818110611bce575b03611b688860018060a01b03166000526008602052604060002090565b556001600160a01b0387166000908152600760205260409020541680611ba4575b506040519283526020830152600060408301526060820152a2565b611bc7611aa78561074c8460018060a01b03166000526008602052604060002090565b5538611b89565b611bd661102c565b611b4b565b6001600160a01b0390811660009081526007602052604090205481169291908315611cea577f70ff8cf632603e2bfd1afb7e4061acce53d95356b1be9726b99fa22ba733b01f92608092611c2e866118cc565b925094905083611c548461074c8b60018060a01b03166000526008602052604060002090565b818110611cdd575b03611c798960018060a01b03166000526008602052604060002090565b556001600160a01b0388166000908152600760205260409020541680611cb3575b50604051938452602084015260408301526060820152a2565b611cd6611aa78661074c8460018060a01b03166000526008602052604060002090565b5538611c9a565b611ce561102c565b611c5c565b50505050565b611d7a90611d736b033b2e3c9fd0803ce8000000611d59611784611d3e61027d97633b9aca00908060001904821181151516611dac57600b5460209061191d906001600160a01b0316610d3c565b03915afa928315611d9f575b600093611d7f575b50026117f7565b049160018060a01b03166000526006602052604060002090565b5490611db9565b61180a565b611d9891935060203d81116117b8576117a9818361100a565b9138611d52565b611da761138b565b611d4a565b611db461102c565b611905565b611de5906b033b2e3c9fd0803ce8000000908060001904821181151516611e05575b028260011c611068565b8115611def570490565b634e487b7160e01b600052601260045260246000fd5b611e0d61102c565b611ddb565b15611e1957565b60405162461bcd60e51b815260206004820152602360248201527f45524332303a207472616e7366657220746f20746865207a65726f206164647260448201526265737360e81b6064820152608490fd5b15611e7157565b60405162461bcd60e51b815260206004820152602660248201527f45524332303a207472616e7366657220616d6f756e7420657863656564732062604482015265616c616e636560d01b6064820152608490fd5b916001600160a01b038084169290918315611f8957611f73827fddf252ad1be2c89b69c2b068fc378daa952ba7f163c4a11628f55a4df523b3ef946110fe941696611f11881515611e12565b611f5884611f318360018060a01b03166000526000602052604060002090565b54611f3e82821015611e6a565b039160018060a01b03166000526000602052604060002090565b556001600160a01b0316600090815260208190526040902090565b8054820190556040519081529081906020820190565b60405162461bcd60e51b815260206004820152602560248201527f45524332303a207472616e736665722066726f6d20746865207a65726f206164604482015264647265737360d81b6064820152608490fd5b15611fe357565b60405162461bcd60e51b815260206004820152604260248201527f496e7465726573742073747265616d2063616e206f6e6c79206265207265646960448201527f72656374656420696620746865726520697320612076616c69642062616c616e606482015261636560f01b608482015260a490fd5b6001600160a01b0381811660009081526007602052604090205491928082169290919081168381146121a15761208e856118cc565b97929094919361209f851515611fdc565b612191575b5081169384861461213c579561211f838361211a7f5e3cad45b1fe24159d1cb39788d82d0f69cc15770aa96fba1d3d1a734873559498999a6120fb6110fe9760018060a01b03166000526007602052604060002090565b80546001600160a01b0319166001600160a01b03909216919091179055565b6119c7565b604051938493846040919493926060820195825260208201520152565b506001600160a01b0316600090815260076020526040812080546001600160a01b0319169055949293507f5e3cad45b1fe24159d1cb39788d82d0f69cc15770aa96fba1d3d1a7348735594926110fe9061211f565b61219b9083611acf565b386120a4565b60405162461bcd60e51b815260206004820152602a60248201527f496e74657265737420697320616c72656164792072656469726563746564207460448201526937903a3432903ab9b2b960b11b6064820152608490fd5b60018060a01b03811690600082819382526007602052604082206bffffffffffffffffffffffff60a01b81541690557f5e3cad45b1fe24159d1cb39788d82d0f69cc15770aa96fba1d3d1a73487355946060604051848152846020820152846040820152a36001600160a01b038116600090815260086020526040902054612298576001600160a01b0316600090815260066020526040902055600190565b5090565b6000919082916122e160405180926122cd6020830195632d839cb360e21b875260406024850152606484019061021b565b90604483015203601f19810183528261100a565b51906a636f6e736f6c652e6c6f675afa5056fea264697066735822122065b2e8b1ffb2371037c144bf5e3b96b991caad79872df3b2ec890cf8bc58c6ee64736f6c634300080d0033a2646970667358221220cbfeab6d3ae5cfcaca032f9d8166b81b42cdb4a5595c32becff998924170db5564736f6c634300080d0033",
  "linkReferences": {},
  "deployedLinkReferences": {}
}