{
  "_format": "hh-sol-artifact-1",
  "contractName": "LendingBoardNFT",
  "sourceName": "contracts/lendingboard/LendingBoardNFT.sol",
  "abi": [
    {
      "inputs": [],
      "stateMutability": "nonpayable",
      "type": "constructor"
    },
    {
      "anonymous": false,
      "inputs": [
        {
          "indexed": true,
          "internalType": "address",
          "name": "owner",
          "type": "address"
        },
        {
          "indexed": true,
          "internalType": "address",
          "name": "approved",
          "type": "address"
        },
        {
          "indexed": true,
          "internalType": "uint256",
          "name": "tokenId",
          "type": "uint256"
        }
      ],
      "name": "Approval",
      "type": "event"
    },
    {
      "anonymous": false,
      "inputs": [
        {
          "indexed": true,
          "internalType": "address",
          "name": "owner",
          "type": "address"
        },
        {
          "indexed": true,
          "internalType": "address",
          "name": "operator",
          "type": "address"
        },
        {
          "indexed": false,
          "internalType": "bool",
          "name": "approved",
          "type": "bool"
        }
      ],
      "name": "ApprovalForAll",
      "type": "event"
    },
    {
      "anonymous": false,
      "inputs": [
        {
          "indexed": false,
          "internalType": "uint256",
          "name": "_fromTokenId",
          "type": "uint256"
        },
        {
          "indexed": false,
          "internalType": "uint256",
          "name": "_toTokenId",
          "type": "uint256"
        }
      ],
      "name": "BatchMetadataUpdate",
      "type": "event"
    },
    {
      "anonymous": false,
      "inputs": [
        {
          "indexed": false,
          "internalType": "uint256",
          "name": "_tokenId",
          "type": "uint256"
        }
      ],
      "name": "MetadataUpdate",
      "type": "event"
    },
    {
      "anonymous": false,
      "inputs": [
        {
          "indexed": true,
          "internalType": "address",
          "name": "from",
          "type": "address"
        },
        {
          "indexed": true,
          "internalType": "address",
          "name": "to",
          "type": "address"
        },
        {
          "indexed": true,
          "internalType": "uint256",
          "name": "tokenId",
          "type": "uint256"
        }
      ],
      "name": "Transfer",
      "type": "event"
    },
    {
      "inputs": [
        {
          "internalType": "address",
          "name": "to",
          "type": "address"
        },
        {
          "internalType": "uint256",
          "name": "tokenId",
          "type": "uint256"
        }
      ],
      "name": "approve",
      "outputs": [],
      "stateMutability": "nonpayable",
      "type": "function"
    },
    {
      "inputs": [
        {
          "internalType": "address",
          "name": "owner",
          "type": "address"
        }
      ],
      "name": "balanceOf",
      "outputs": [
        {
          "internalType": "uint256",
          "name": "",
          "type": "uint256"
        }
      ],
      "stateMutability": "view",
      "type": "function"
    },
    {
      "inputs": [
        {
          "internalType": "uint256",
          "name": "tokenId",
          "type": "uint256"
        }
      ],
      "name": "burnNFT",
      "outputs": [],
      "stateMutability": "nonpayable",
      "type": "function"
    },
    {
      "inputs": [
        {
          "internalType": "uint256",
          "name": "tokenId",
          "type": "uint256"
        }
      ],
      "name": "getApproved",
      "outputs": [
        {
          "internalType": "address",
          "name": "",
          "type": "address"
        }
      ],
      "stateMutability": "view",
      "type": "function"
    },
    {
      "inputs": [
        {
          "internalType": "uint256",
          "name": "_tokenId",
          "type": "uint256"
        }
      ],
      "name": "getNFTMetadata",
      "outputs": [
        {
          "components": [
            {
              "internalType": "uint256",
              "name": "proposalId",
              "type": "uint256"
            },
            {
              "internalType": "address",
              "name": "borrower",
              "type": "address"
            },
            {
              "internalType": "uint256",
              "name": "amount",
              "type": "uint256"
            },
            {
              "internalType": "uint256",
              "name": "dueDate",
              "type": "uint256"
            },
            {
              "internalType": "uint256",
              "name": "contractTimestamp",
              "type": "uint256"
            },
            {
              "internalType": "uint256",
              "name": "interestRate",
              "type": "uint256"
            },
            {
              "internalType": "uint256",
              "name": "paybackAmountMinusFee",
              "type": "uint256"
            }
          ],
          "internalType": "struct LendingBoardNFT.Metadata",
          "name": "",
          "type": "tuple"
        }
      ],
      "stateMutability": "view",
      "type": "function"
    },
    {
      "inputs": [
        {
          "internalType": "address",
          "name": "_user",
          "type": "address"
        }
      ],
      "name": "getUserTokenList",
      "outputs": [
        {
          "internalType": "uint256[]",
          "name": "",
          "type": "uint256[]"
        }
      ],
      "stateMutability": "view",
      "type": "function"
    },
    {
      "inputs": [
        {
          "internalType": "address",
          "name": "owner",
          "type": "address"
        },
        {
          "internalType": "address",
          "name": "operator",
          "type": "address"
        }
      ],
      "name": "isApprovedForAll",
      "outputs": [
        {
          "internalType": "bool",
          "name": "",
          "type": "bool"
        }
      ],
      "stateMutability": "view",
      "type": "function"
    },
    {
      "inputs": [
        {
          "internalType": "uint256",
          "name": "",
          "type": "uint256"
        }
      ],
      "name": "mappedNFT",
      "outputs": [
        {
          "internalType": "uint256",
          "name": "proposalId",
          "type": "uint256"
        },
        {
          "internalType": "address",
          "name": "borrower",
          "type": "address"
        },
        {
          "internalType": "uint256",
          "name": "amount",
          "type": "uint256"
        },
        {
          "internalType": "uint256",
          "name": "dueDate",
          "type": "uint256"
        },
        {
          "internalType": "uint256",
          "name": "contractTimestamp",
          "type": "uint256"
        },
        {
          "internalType": "uint256",
          "name": "interestRate",
          "type": "uint256"
        },
        {
          "internalType": "uint256",
          "name": "paybackAmountMinusFee",
          "type": "uint256"
        }
      ],
      "stateMutability": "view",
      "type": "function"
    },
    {
      "inputs": [
        {
          "internalType": "address",
          "name": "_recipient",
          "type": "address"
        },
        {
          "internalType": "uint256",
          "name": "_proposalId",
          "type": "uint256"
        },
        {
          "internalType": "address",
          "name": "_borrower",
          "type": "address"
        },
        {
          "internalType": "uint256",
          "name": "_amount",
          "type": "uint256"
        },
        {
          "internalType": "uint256",
          "name": "_dueDate",
          "type": "uint256"
        },
        {
          "internalType": "uint256",
          "name": "_contractTimestamp",
          "type": "uint256"
        },
        {
          "internalType": "uint256",
          "name": "_interestRate",
          "type": "uint256"
        },
        {
          "internalType": "uint256",
          "name": "_paybackAmountMinusFee",
          "type": "uint256"
        }
      ],
      "name": "mintNFT",
      "outputs": [
        {
          "internalType": "uint256",
          "name": "",
          "type": "uint256"
        }
      ],
      "stateMutability": "nonpayable",
      "type": "function"
    },
    {
      "inputs": [],
      "name": "name",
      "outputs": [
        {
          "internalType": "string",
          "name": "",
          "type": "string"
        }
      ],
      "stateMutability": "view",
      "type": "function"
    },
    {
      "inputs": [
        {
          "internalType": "uint256",
          "name": "tokenId",
          "type": "uint256"
        }
      ],
      "name": "ownerOf",
      "outputs": [
        {
          "internalType": "address",
          "name": "",
          "type": "address"
        }
      ],
      "stateMutability": "view",
      "type": "function"
    },
    {
      "inputs": [
        {
          "internalType": "address",
          "name": "from",
          "type": "address"
        },
        {
          "internalType": "address",
          "name": "to",
          "type": "address"
        },
        {
          "internalType": "uint256",
          "name": "tokenId",
          "type": "uint256"
        }
      ],
      "name": "safeTransferFrom",
      "outputs": [],
      "stateMutability": "nonpayable",
      "type": "function"
    },
    {
      "inputs": [
        {
          "internalType": "address",
          "name": "from",
          "type": "address"
        },
        {
          "internalType": "address",
          "name": "to",
          "type": "address"
        },
        {
          "internalType": "uint256",
          "name": "tokenId",
          "type": "uint256"
        },
        {
          "internalType": "bytes",
          "name": "data",
          "type": "bytes"
        }
      ],
      "name": "safeTransferFrom",
      "outputs": [],
      "stateMutability": "nonpayable",
      "type": "function"
    },
    {
      "inputs": [
        {
          "internalType": "address",
          "name": "operator",
          "type": "address"
        },
        {
          "internalType": "bool",
          "name": "approved",
          "type": "bool"
        }
      ],
      "name": "setApprovalForAll",
      "outputs": [],
      "stateMutability": "nonpayable",
      "type": "function"
    },
    {
      "inputs": [
        {
          "internalType": "uint256",
          "name": "_tokenId",
          "type": "uint256"
        },
        {
          "internalType": "uint256",
          "name": "_proposalId",
          "type": "uint256"
        },
        {
          "internalType": "address",
          "name": "_borrower",
          "type": "address"
        },
        {
          "internalType": "uint256",
          "name": "_amount",
          "type": "uint256"
        },
        {
          "internalType": "uint256",
          "name": "_dueDate",
          "type": "uint256"
        },
        {
          "internalType": "uint256",
          "name": "_contractTimestamp",
          "type": "uint256"
        },
        {
          "internalType": "uint256",
          "name": "_interestRate",
          "type": "uint256"
        },
        {
          "internalType": "uint256",
          "name": "_paybackAmountMinusFee",
          "type": "uint256"
        }
      ],
      "name": "setMetadataAndmappingNFTWithMetadata",
      "outputs": [],
      "stateMutability": "nonpayable",
      "type": "function"
    },
    {
      "inputs": [
        {
          "internalType": "bytes4",
          "name": "interfaceId",
          "type": "bytes4"
        }
      ],
      "name": "supportsInterface",
      "outputs": [
        {
          "internalType": "bool",
          "name": "",
          "type": "bool"
        }
      ],
      "stateMutability": "view",
      "type": "function"
    },
    {
      "inputs": [],
      "name": "symbol",
      "outputs": [
        {
          "internalType": "string",
          "name": "",
          "type": "string"
        }
      ],
      "stateMutability": "view",
      "type": "function"
    },
    {
      "inputs": [
        {
          "internalType": "uint256",
          "name": "index",
          "type": "uint256"
        }
      ],
      "name": "tokenByIndex",
      "outputs": [
        {
          "internalType": "uint256",
          "name": "",
          "type": "uint256"
        }
      ],
      "stateMutability": "view",
      "type": "function"
    },
    {
      "inputs": [
        {
          "internalType": "address",
          "name": "owner",
          "type": "address"
        },
        {
          "internalType": "uint256",
          "name": "index",
          "type": "uint256"
        }
      ],
      "name": "tokenOfOwnerByIndex",
      "outputs": [
        {
          "internalType": "uint256",
          "name": "",
          "type": "uint256"
        }
      ],
      "stateMutability": "view",
      "type": "function"
    },
    {
      "inputs": [
        {
          "internalType": "uint256",
          "name": "tokenId",
          "type": "uint256"
        }
      ],
      "name": "tokenURI",
      "outputs": [
        {
          "internalType": "string",
          "name": "",
          "type": "string"
        }
      ],
      "stateMutability": "view",
      "type": "function"
    },
    {
      "inputs": [],
      "name": "totalSupply",
      "outputs": [
        {
          "internalType": "uint256",
          "name": "",
          "type": "uint256"
        }
      ],
      "stateMutability": "view",
      "type": "function"
    },
    {
      "inputs": [
        {
          "internalType": "address",
          "name": "from",
          "type": "address"
        },
        {
          "internalType": "address",
          "name": "to",
          "type": "address"
        },
        {
          "internalType": "uint256",
          "name": "tokenId",
          "type": "uint256"
        }
      ],
      "name": "transferFrom",
      "outputs": [],
      "stateMutability": "nonpayable",
      "type": "function"
    }
  ],
  "bytecode": "0x6080604052346200015c576200001462000178565b60206713919508109bdb9960c21b8183015262000030620001ad565b6327232a2160e11b8282015282519091906001600160401b0381116200014c575b6000916200006b82620000658554620001e2565b6200021f565b80601f8311600114620000be57508190620000a2958492620000b2575b50508160011b916000199060031b1c1916179055620002d3565b604051611d419081620003d68239f35b01519050388062000088565b600080529194601f1986167f290decd9548b62a8d60345a988386fc84ba6bc95484008f6362f93160ef3e5639385905b82821062000133575050916001939187620000a298941062000119575b505050811b019055620002d3565b015160001960f88460031b161c191690553880806200010b565b80600186978294978701518155019601940190620000ee565b6200015662000161565b62000051565b600080fd5b50634e487b7160e01b600052604160045260246000fd5b60408051919082016001600160401b038111838210176200019d575b60405260088252565b620001a762000161565b62000194565b60408051919082016001600160401b03811183821017620001d2575b60405260048252565b620001dc62000161565b620001c9565b90600182811c9216801562000214575b6020831014620001fe57565b634e487b7160e01b600052602260045260246000fd5b91607f1691620001f2565b601f81116200022c575050565b60009081805260208220906020601f850160051c830194106200026c575b601f0160051c01915b8281106200026057505050565b81815560010162000253565b90925082906200024a565b90601f821162000285575050565b60019160009083825260208220906020601f850160051c83019410620002c8575b601f0160051c01915b828110620002bd5750505050565b8181558301620002af565b9092508290620002a6565b80519091906001600160401b038111620003c5575b6001906200030281620002fc8454620001e2565b62000277565b602080601f83116001146200034057508192939460009262000334575b5050600019600383901b1c191690821b179055565b0151905038806200031f565b6001600052601f198316959091907fb10e2d527612073b26eecdfd717e6a320cf44b4afac2b0732d9fcbe2b7fa0cf6926000905b888210620003ad575050838596971062000393575b505050811b019055565b015160001960f88460031b161c1916905538808062000389565b80878596829496860151815501950193019062000374565b620003cf62000161565b620002e856fe60806040526004361015610013575b600080fd5b60003560e01c806301ffc9a7146101cb57806306fdde03146101c2578063081812fc146101b9578063095ea7b3146101b057806318160ddd146101a757806323b872dd1461019e5780632890e0d7146101955780632f745c591461018c57806342842e0e146101835780634f6ccce71461017a57806354098092146101715780636352211e146101685780636be9a6f11461015f5780636ee5a0c41461015657806370a082311461014d57806382d69beb1461014457806395d89b411461013b5780639ec4fd9c14610132578063a22cb46514610129578063b88d4fde14610120578063c87b56dd146101175763e985e9c51461010f57600080fd5b61000e610f30565b5061000e610efc565b5061000e610e72565b5061000e610cdc565b5061000e610b4b565b5061000e610aa5565b5061000e610a68565b5061000e610a44565b5061000e6109ce565b5061000e6108ce565b5061000e6108af565b5061000e6107fb565b5061000e610714565b5061000e6106eb565b5061000e6106bb565b5061000e61059a565b5061000e610570565b5061000e61051c565b5061000e610445565b5061000e6103d2565b5061000e6102f7565b5061000e6101e6565b6001600160e01b031981160361000e57565b503461000e57602036600319011261000e576020600435610206816101d4565b63ffffffff60e01b1663780e9d6360e01b811490811561022c575b506040519015158152f35b632483248360e11b811491508115610246575b5038610221565b6380ac58cd60e01b811491508115610278575b8115610267575b503861023f565b6301ffc9a760e01b14905038610260565b635b5e139f60e01b81149150610259565b918091926000905b8282106102a95750116102a2575050565b6000910152565b91508060209183015181860152018291610291565b906020916102d781518092818552858086019101610289565b601f01601f1916010190565b9060206102f49281815201906102be565b90565b503461000e576000806003193601126103cf576040519080805461031a81611074565b808552916001918083169081156103ae5750600114610354575b6103508561034481870382610e25565b604051918291826102e3565b0390f35b80809450527f290decd9548b62a8d60345a988386fc84ba6bc95484008f6362f93160ef3e5635b82841061039657505050810160200161034482610350610334565b8054602085870181019190915290930192810161037b565b60ff1916602087015250506040840192506103449150839050610350610334565b80fd5b503461000e57602036600319011261000e5760206103f1600435611120565b6040516001600160a01b039091168152f35b600435906001600160a01b038216820361000e57565b604435906001600160a01b038216820361000e57565b602435906001600160a01b038216820361000e57565b503461000e57604036600319011261000e5761045f610403565b60243561046b81611051565b916001600160a01b0380841690821681146104cd5761049d9361049891331490811561049f575b506110ae565b6114a6565b005b6001600160a01b0316600090815260056020908152604080832033845290915290205460ff16905038610492565b60405162461bcd60e51b815260206004820152602160248201527f4552433732313a20617070726f76616c20746f2063757272656e74206f776e656044820152603960f91b6064820152608490fd5b503461000e57600036600319011261000e576020600954604051908152f35b606090600319011261000e576001600160a01b0390600435828116810361000e5791602435908116810361000e579060443590565b503461000e5761049d6105823661053b565b91610595610590843361128d565b61115e565b61135f565b503461000e57602036600319011261000e576004358060006105bb82611051565b6001600160a01b0390838183161584146106ad576105d99150611ab6565b6105e283611bf6565b6105eb83611051565b610612610602856000526004602052604060002090565b80546001600160a01b0319169055565b6001600160a01b038116600090815260036020526040902083198154019055610648610602856000526002602052604060002090565b167fddf252ad1be2c89b69c2b068fc378daa952ba7f163c4a11628f55a4df523b3ef82604051a461068b610686826000526006602052604060002090565b611811565b61069157005b6106a861049d916000526006602052604060002090565b61181b565b6106b691611b2f565b6105d9565b503461000e57604036600319011261000e5760206106e36106da610403565b60243590611783565b604051908152f35b503461000e5761049d6106fd3661053b565b906040519261070b84610e09565b600084526111f2565b503461000e57602036600319011261000e576004356009548110156107665760096000527f6e1540171b6c0c960b71a7020d9f60077f6af931a8bbf590da0223dacf75c7af0154604051908152602090f35b60405162461bcd60e51b815260206004820152602c60248201527f455243373231456e756d657261626c653a20676c6f62616c20696e646578206f60448201526b7574206f6620626f756e647360a01b6064820152608490fd5b6020908160408183019282815285518094520193019160005b8281106107e7575050505090565b8351855293810193928101926001016107d9565b503461000e5760208060031936011261000e57610816610403565b9061082082610f8e565b9061082a82611745565b926108386040519485610e25565b828452601f1961084784611745565b01368386013760005b838110610865576040518061035087826107c0565b8061087260019284611783565b86518210156108a2575b848260051b880101526000198114610895575b01610850565b61089d61176c565b61088f565b6108aa611645565b61087c565b503461000e57602036600319011261000e5760206103f1600435611051565b503461000e57602036600319011261000e5761035060408060c081516108f381610de0565b600091818380935282602082015282858201528260608201528260808201528260a082015201526004358152600c6020522090600681519261093484610de0565b8054845260018101546001600160a01b031660208501526002810154838501526003810154606085015260048101546080850152600581015460a0850152015460c0830152519182918291909160c08060e08301948051845260018060a01b03602082015116602085015260408101516040850152606081015160608501526080810151608085015260a081015160a08501520151910152565b503461000e57602036600319011261000e57600435600052600c60205260e0604060002080549060018060a01b0360018201541690600281015460038201546004830154916006600585015494015494604051968752602087015260408601526060850152608084015260a083015260c0820152f35b503461000e57602036600319011261000e5760206106e3610a63610403565b610f8e565b503461000e5761010036600319011261000e5761049d610a86610419565b60e4359060c4359060a4359060843590606435906024356004356116a8565b503461000e576000806003193601126103cf5760405190806001805491610acb83611074565b808652928281169081156103ae5750600114610af1576103508561034481870382610e25565b92508083527fb10e2d527612073b26eecdfd717e6a320cf44b4afac2b0732d9fcbe2b7fa0cf65b828410610b3357505050810160200161034482610350610334565b80546020858701810191909152909301928101610b18565b503461000e5761010036600319011261000e57610b66610403565b610b6e610419565b600b805460010190819055906001600160a01b038316908115610c985782610c8892610c4361035096610bc5610bc0610bbc86600052600260205260018060a01b0360406000205416151590565b1590565b61165c565b610bcf84826119f7565b600084815260026020526040902054610bf1906001600160a01b03161561165c565b6001600160a01b038116600090815260036020526040902060018154019055610c24846000526002602052604060002090565b80546001600160a01b0319166001600160a01b03909216919091179055565b60007fddf252ad1be2c89b69c2b068fc378daa952ba7f163c4a11628f55a4df523b3ef81604051a460e4359060c4359060a435906084359060643590602435886116a8565b6040519081529081906020820190565b606460405162461bcd60e51b815260206004820152602060248201527f4552433732313a206d696e7420746f20746865207a65726f20616464726573736044820152fd5b503461000e57604036600319011261000e57610cf6610403565b602435801515810361000e576001600160a01b03821691338314610d845781610d41610d529233600052600560205260406000209060018060a01b0316600052602052604060002090565b9060ff801983541691151516179055565b604051901515815233907f17307eab39ab6107e8899845ad3d59bd9653f200f220920489ca2b5937696c3190602090a3005b60405162461bcd60e51b815260206004820152601960248201527f4552433732313a20617070726f766520746f2063616c6c6572000000000000006044820152606490fd5b50634e487b7160e01b600052604160045260246000fd5b60e0810190811067ffffffffffffffff821117610dfc57604052565b610e04610dc9565b604052565b6020810190811067ffffffffffffffff821117610dfc57604052565b90601f8019910116810190811067ffffffffffffffff821117610dfc57604052565b60209067ffffffffffffffff8111610e65575b601f01601f19160190565b610e6d610dc9565b610e5a565b503461000e57608036600319011261000e57610e8c610403565b610e9461042f565b6064359167ffffffffffffffff831161000e573660238401121561000e57826004013591610ec183610e47565b92610ecf6040519485610e25565b808452366024828701011161000e57602081600092602461049d98018388013785010152604435916111f2565b503461000e57602036600319011261000e57610350610f1c600435611890565b6040519182916020835260208301906102be565b503461000e57604036600319011261000e57602060ff610f82610f51610403565b610f5961042f565b6001600160a01b0391821660009081526005865260408082209290931681526020919091522090565b54166040519015158152f35b6001600160a01b03168015610fae57600052600360205260406000205490565b60405162461bcd60e51b815260206004820152602960248201527f4552433732313a2061646472657373207a65726f206973206e6f7420612076616044820152683634b21037bbb732b960b91b6064820152608490fd5b1561100c57565b60405162461bcd60e51b815260206004820152601860248201527f4552433732313a20696e76616c696420746f6b656e20494400000000000000006044820152606490fd5b6000908152600260205260409020546001600160a01b03166102f4811515611005565b90600182811c921680156110a4575b602083101461108e57565b634e487b7160e01b600052602260045260246000fd5b91607f1691611083565b156110b557565b60405162461bcd60e51b815260206004820152603d60248201527f4552433732313a20617070726f76652063616c6c6572206973206e6f7420746f60448201527f6b656e206f776e6572206f7220617070726f76656420666f7220616c6c0000006064820152608490fd5b600081815260026020526040902054611143906001600160a01b03161515611005565b6000908152600460205260409020546001600160a01b031690565b1561116557565b60405162461bcd60e51b815260206004820152602d60248201527f4552433732313a2063616c6c6572206973206e6f7420746f6b656e206f776e6560448201526c1c881bdc88185c1c1c9bdd9959609a1b6064820152608490fd5b604051906020820182811067ffffffffffffffff8211176111e5575b60405260008252565b6111ed610dc9565b6111dc565b90611216939291611206610590843361128d565b61121183838361135f565b611582565b1561121d57565b60405162461bcd60e51b8152806112366004820161123a565b0390fd5b60809060208152603260208201527f4552433732313a207472616e7366657220746f206e6f6e20455243373231526560408201527131b2b4bb32b91034b6b83632b6b2b73a32b960711b60608201520190565b6001600160a01b038061129f84611051565b1692818316928484149485156112d5575b505083156112bf575b50505090565b6112cb91929350611120565b16143880806112b9565b60009081526005602090815260408083206001600160a01b03949094168352929052205460ff16935038806112b0565b1561130c57565b60405162461bcd60e51b815260206004820152602560248201527f4552433732313a207472616e736665722066726f6d20696e636f72726563742060448201526437bbb732b960d91b6064820152608490fd5b6113839061136c84611051565b6001600160a01b0382811693909182168414611305565b8316928315611455576113f18261139e878461142c96611a22565b6113c0856113ba6113ae8a611051565b6001600160a01b031690565b14611305565b6113d7610602886000526004602052604060002090565b6001600160a01b0316600090815260036020526040902090565b80546000190190556001600160a01b038116600090815260036020526040902060018154019055610c24856000526002602052604060002090565b7fddf252ad1be2c89b69c2b068fc378daa952ba7f163c4a11628f55a4df523b3ef6000604051a4565b60405162461bcd60e51b8152602060048201526024808201527f4552433732313a207472616e7366657220746f20746865207a65726f206164646044820152637265737360e01b6064820152608490fd5b600082815260046020526040902080546001600160a01b0319166001600160a01b0383161790556001600160a01b03806114df84611051565b169116907f8c5be1e5ebec7d5bd14f71427d1e84f3dd0314c0f7b2291e5b200ac8c7c3b9256000604051a4565b9081602091031261000e57516102f4816101d4565b6001600160a01b0391821681529116602082015260408101919091526080606082018190526102f4929101906102be565b3d1561157d573d9061156382610e47565b916115716040519384610e25565b82523d6000602084013e565b606090565b92909190823b1561163c576115b5926020926000604051809681958294630a85bd0160e11b9a8b85523360048601611521565b03926001600160a01b03165af16000918161160c575b506115fe576115d8611552565b805190816115f95760405162461bcd60e51b8152806112366004820161123a565b602001fd5b6001600160e01b0319161490565b61162e91925060203d8111611635575b6116268183610e25565b81019061150c565b90386115cb565b503d61161c565b50505050600190565b50634e487b7160e01b600052603260045260246000fd5b1561166357565b60405162461bcd60e51b815260206004820152601c60248201527f4552433732313a20746f6b656e20616c7265616479206d696e746564000000006044820152606490fd5b6006969492611727919896949298604051996116c38b610de0565b8a526001600160a01b039182166020808c019182526040808d0196875260608d0197885260808d0198895260a08d01998a5260c08d019a8b526000938452600c90915290912099518a555160018a0180546001600160a01b03191691909216179055565b51600287015551600386015551600485015551600584015551910155565b60209067ffffffffffffffff811161175f575b60051b0190565b611767610dc9565b611758565b50634e487b7160e01b600052601160045260246000fd5b61178c81610f8e565b8210156117b85760018060a01b0316600052600760205260406000209060005260205260406000205490565b60405162461bcd60e51b815260206004820152602b60248201527f455243373231456e756d657261626c653a206f776e657220696e646578206f7560448201526a74206f6620626f756e647360a81b6064820152608490fd5b6102f49054611074565b6118258154611074565b908161182f575050565b601f82116001146118425760009150555b565b600091818352601f60208420910160051c810160018092015b81811061186f575050508160208120915555565b848155820161185b565b9061188c60209282815194859201610289565b0190565b6000818152600260205260409020546118b3906001600160a01b03161515611005565b60009080825260206006815260408320604051848195908354906118d682611074565b808552946001928084169081156119925750600114611956575b5050506118ff92500384610e25565b6119076111c0565b9283511561194f5780516119215750506102f491506119b2565b6102f492506119419061193b604051958694850190611879565b90611879565b03601f198101835282610e25565b9250505090565b869350819291528282205b85831061197a5750506118ff93508201013880806118f0565b8054838a018501528894508693909201918101611961565b965050505050505060ff1916818401526118ff83604081013880806118f0565b6000908152600260205260409020546119d5906001600160a01b03161515611005565b60006040516119e381610e09565b526040516119f081610e09565b6000815290565b90611a0181611ab6565b6001600160a01b038216611a19576118409150611bf6565b61184091611a7e565b9091906001600160a01b038082169182611a5c5750611a4083611ab6565b831680611a535750506118409150611bf6565b03611a19575050565b838286168403611a6e575b5050611a40565b611a7791611b2f565b3883611a67565b604090611a8a81610f8e565b9260009160018060a01b0316825260076020528282208483526020528083832055815260086020522055565b60095481600052600a6020528060406000205568010000000000000000811015611b22575b6001810180600955811015611b15575b60096000527f6e1540171b6c0c960b71a7020d9f60077f6af931a8bbf590da0223dacf75c7af0155565b611b1d611645565b611aeb565b611b2a610dc9565b611adb565b90611b94611b7992611b4081610f8e565b60018110611be9575b6000190192600094818692835260086020526040832054868103611ba1575b506000526008602052604060002090565b556001600160a01b0316600090815260076020526040902090565b9082526020526040812055565b6001600160a01b0385168085526007602081815260408088208b8952825280882054600094855292825280842085895282528088208390559183526008905290205538611b68565b611bf161176c565b611b49565b6009805460018110611cfe575b600090838252600a60205281611ca560408220549560001996848881011015611cf1575b868452611c947f6e1540171b6c0c960b71a7020d9f60077f6af931a8bbf590da0223dacf75c7ae958681015490831015611ce4575b88865280837f6e1540171b6c0c960b71a7020d9f60077f6af931a8bbf590da0223dacf75c7af0155600052600a602052604060002090565b55600052600a602052604060002090565b558254938415611cd05784019380851015611cc3575b838352015555565b611ccb611645565b611cbb565b634e487b7160e01b83526031600452602483fd5b611cec611645565b611c5c565b611cf9611645565b611c27565b611d0661176c565b611c0356fea2646970667358221220facd34c206a665057ff98cd1e25909401adeee523daf993a47cf528e54fcff2f64736f6c634300080d0033",
  "linkReferences": {},
  "deployedLinkReferences": {}
}