{
  "_format": "hh-sol-artifact-1",
  "contractName": "TestOracle",
  "sourceName": "contracts/oracle/TestOracle.sol",
  "abi": [
    {
      "inputs": [
        {
          "internalType": "address",
          "name": "_asset",
          "type": "address"
        }
      ],
      "name": "getAssetPrice",
      "outputs": [
        {
          "internalType": "uint256",
          "name": "",
          "type": "uint256"
        }
      ],
      "stateMutability": "view",
      "type": "function"
    },
    {
      "inputs": [
        {
          "internalType": "address",
          "name": "_asset",
          "type": "address"
        },
        {
          "internalType": "uint256",
          "name": "_price",
          "type": "uint256"
        }
      ],
      "name": "setAssetPrice",
      "outputs": [],
      "stateMutability": "nonpayable",
      "type": "function"
    }
  ],
  "bytecode": "0x608080604052346100155760ee908161001b8239f35b600080fdfe6080806040526004361015601257600080fd5b600090813560e01c90816351323f7214606a575063b3596f0714603457600080fd5b3460675760203660031901126067576020906040906001600160a01b036057609e565b1681528083522054604051908152f35b80fd5b905034609a576040366003190112609a576001600160a01b036089609e565b168252816020526024356040832055f35b5080fd5b600435906001600160a01b038216820360b357565b600080fdfea2646970667358221220c6fdf6e5979975eaf935a9b77f8e926aca1edeb28e89a16e8bf54cbc62a919d264736f6c634300080d0033",
  "linkReferences": {},
  "deployedLinkReferences": {}
}