{
  "_format": "hh-sol-artifact-1",
  "contractName": "LendingBoardDataProvider",
  "sourceName": "contracts/lendingboard/LendingBoardDataProvider.sol",
  "abi": [
    {
      "inputs": [],
      "name": "DATA_PROVIDER_REVISION",
      "outputs": [
        {
          "internalType": "uint256",
          "name": "",
          "type": "uint256"
        }
      ],
      "stateMutability": "view",
      "type": "function"
    },
    {
      "inputs": [],
      "name": "HEALTH_FACTOR_LIQUIDATION_THRESHOLD",
      "outputs": [
        {
          "internalType": "uint256",
          "name": "",
          "type": "uint256"
        }
      ],
      "stateMutability": "view",
      "type": "function"
    },
    {
      "inputs": [],
      "name": "addressesProvider",
      "outputs": [
        {
          "internalType": "contract LendingBoardAddressesProvider",
          "name": "",
          "type": "address"
        }
      ],
      "stateMutability": "view",
      "type": "function"
    },
    {
      "inputs": [
        {
          "internalType": "address",
          "name": "_reserve",
          "type": "address"
        },
        {
          "internalType": "address",
          "name": "_user",
          "type": "address"
        },
        {
          "internalType": "uint256",
          "name": "_amount",
          "type": "uint256"
        }
      ],
      "name": "balanceDecreaseAllowed",
      "outputs": [
        {
          "internalType": "bool",
          "name": "",
          "type": "bool"
        }
      ],
      "stateMutability": "view",
      "type": "function"
    },
    {
      "inputs": [
        {
          "internalType": "address",
          "name": "_reserve",
          "type": "address"
        },
        {
          "internalType": "uint256",
          "name": "_amount",
          "type": "uint256"
        },
        {
          "internalType": "uint256",
          "name": "_fee",
          "type": "uint256"
        },
        {
          "internalType": "uint256",
          "name": "_userCurrentBorrowBalanceTH",
          "type": "uint256"
        },
        {
          "internalType": "uint256",
          "name": "_userCurrentFeesETH",
          "type": "uint256"
        },
        {
          "internalType": "uint256",
          "name": "_userCurrentLtv",
          "type": "uint256"
        }
      ],
      "name": "calculateCollateralNeededInETH",
      "outputs": [
        {
          "internalType": "uint256",
          "name": "",
          "type": "uint256"
        }
      ],
      "stateMutability": "view",
      "type": "function"
    },
    {
      "inputs": [
        {
          "internalType": "address",
          "name": "_user",
          "type": "address"
        }
      ],
      "name": "calculateUserGlobalData",
      "outputs": [
        {
          "internalType": "uint256",
          "name": "totalLiquidityBalanceETH",
          "type": "uint256"
        },
        {
          "internalType": "uint256",
          "name": "totalCollateralBalanceETH",
          "type": "uint256"
        },
        {
          "internalType": "uint256",
          "name": "totalBorrowBalanceETH",
          "type": "uint256"
        },
        {
          "internalType": "uint256",
          "name": "totalFeesETH",
          "type": "uint256"
        },
        {
          "internalType": "uint256",
          "name": "currentLtv",
          "type": "uint256"
        },
        {
          "internalType": "uint256",
          "name": "currentLiquidationThreshold",
          "type": "uint256"
        },
        {
          "internalType": "uint256",
          "name": "healthFactor",
          "type": "uint256"
        },
        {
          "internalType": "bool",
          "name": "healthFactorBelowThreshold",
          "type": "bool"
        }
      ],
      "stateMutability": "view",
      "type": "function"
    },
    {
      "inputs": [],
      "name": "core",
      "outputs": [
        {
          "internalType": "contract LendingBoardCore",
          "name": "",
          "type": "address"
        }
      ],
      "stateMutability": "view",
      "type": "function"
    },
    {
      "inputs": [],
      "name": "getHealthFactorLiquidationThreshold",
      "outputs": [
        {
          "internalType": "uint256",
          "name": "",
          "type": "uint256"
        }
      ],
      "stateMutability": "pure",
      "type": "function"
    },
    {
      "inputs": [
        {
          "internalType": "address",
          "name": "_reserve",
          "type": "address"
        }
      ],
      "name": "getReserveConfigurationData",
      "outputs": [
        {
          "internalType": "uint256",
          "name": "ltv",
          "type": "uint256"
        },
        {
          "internalType": "uint256",
          "name": "liquidationThreshold",
          "type": "uint256"
        },
        {
          "internalType": "uint256",
          "name": "liquidationBonus",
          "type": "uint256"
        },
        {
          "internalType": "address",
          "name": "rateStrategyAddress",
          "type": "address"
        },
        {
          "internalType": "bool",
          "name": "usageAsCollateralEnabled",
          "type": "bool"
        },
        {
          "internalType": "bool",
          "name": "borrowingEnabled",
          "type": "bool"
        },
        {
          "internalType": "bool",
          "name": "stableBorrowRateEnabled",
          "type": "bool"
        },
        {
          "internalType": "bool",
          "name": "isActive",
          "type": "bool"
        }
      ],
      "stateMutability": "view",
      "type": "function"
    },
    {
      "inputs": [
        {
          "internalType": "address",
          "name": "_reserve",
          "type": "address"
        }
      ],
      "name": "getReserveData",
      "outputs": [
        {
          "internalType": "uint256",
          "name": "totalLiquidity",
          "type": "uint256"
        },
        {
          "internalType": "uint256",
          "name": "availableLiquidity",
          "type": "uint256"
        },
        {
          "internalType": "uint256",
          "name": "totalBorrowsStable",
          "type": "uint256"
        },
        {
          "internalType": "uint256",
          "name": "totalBorrowsVariable",
          "type": "uint256"
        },
        {
          "internalType": "uint256",
          "name": "liquidityRate",
          "type": "uint256"
        },
        {
          "internalType": "uint256",
          "name": "variableBorrowRate",
          "type": "uint256"
        },
        {
          "internalType": "uint256",
          "name": "stableBorrowRate",
          "type": "uint256"
        },
        {
          "internalType": "uint256",
          "name": "averageStableBorrowRate",
          "type": "uint256"
        },
        {
          "internalType": "uint256",
          "name": "utilizationRate",
          "type": "uint256"
        },
        {
          "internalType": "uint256",
          "name": "liquidityIndex",
          "type": "uint256"
        },
        {
          "internalType": "uint256",
          "name": "variableBorrowIndex",
          "type": "uint256"
        },
        {
          "internalType": "address",
          "name": "aTokenAddress",
          "type": "address"
        },
        {
          "internalType": "uint40",
          "name": "lastUpdateTimestamp",
          "type": "uint40"
        }
      ],
      "stateMutability": "view",
      "type": "function"
    },
    {
      "inputs": [
        {
          "internalType": "address",
          "name": "_user",
          "type": "address"
        }
      ],
      "name": "getUserAccountData",
      "outputs": [
        {
          "internalType": "uint256",
          "name": "totalLiquidityETH",
          "type": "uint256"
        },
        {
          "internalType": "uint256",
          "name": "totalCollateralETH",
          "type": "uint256"
        },
        {
          "internalType": "uint256",
          "name": "totalBorrowsETH",
          "type": "uint256"
        },
        {
          "internalType": "uint256",
          "name": "totalFeesETH",
          "type": "uint256"
        },
        {
          "internalType": "uint256",
          "name": "availableBorrowsETH",
          "type": "uint256"
        },
        {
          "internalType": "uint256",
          "name": "currentLiquidationThreshold",
          "type": "uint256"
        },
        {
          "internalType": "uint256",
          "name": "ltv",
          "type": "uint256"
        },
        {
          "internalType": "uint256",
          "name": "healthFactor",
          "type": "uint256"
        }
      ],
      "stateMutability": "view",
      "type": "function"
    },
    {
      "inputs": [
        {
          "internalType": "address",
          "name": "_reserve",
          "type": "address"
        },
        {
          "internalType": "address",
          "name": "_user",
          "type": "address"
        }
      ],
      "name": "getUserReserveData",
      "outputs": [
        {
          "internalType": "uint256",
          "name": "currentATokenBalance",
          "type": "uint256"
        },
        {
          "internalType": "uint256",
          "name": "currentBorrowBalance",
          "type": "uint256"
        },
        {
          "internalType": "uint256",
          "name": "principalBorrowBalance",
          "type": "uint256"
        },
        {
          "internalType": "uint256",
          "name": "borrowRateMode",
          "type": "uint256"
        },
        {
          "internalType": "uint256",
          "name": "borrowRate",
          "type": "uint256"
        },
        {
          "internalType": "uint256",
          "name": "liquidityRate",
          "type": "uint256"
        },
        {
          "internalType": "uint256",
          "name": "originationFee",
          "type": "uint256"
        },
        {
          "internalType": "uint256",
          "name": "variableBorrowIndex",
          "type": "uint256"
        },
        {
          "internalType": "uint256",
          "name": "lastUpdateTimestamp",
          "type": "uint256"
        },
        {
          "internalType": "bool",
          "name": "usageAsCollateralEnabled",
          "type": "bool"
        }
      ],
      "stateMutability": "view",
      "type": "function"
    },
    {
      "inputs": [
        {
          "internalType": "contract LendingBoardAddressesProvider",
          "name": "_addressesProvider",
          "type": "address"
        }
      ],
      "name": "initialize",
      "outputs": [],
      "stateMutability": "nonpayable",
      "type": "function"
    }
  ],
  "bytecode": "0x6080806040523461001a576000805561222f90816100208239f35b600080fdfe60806040526004361015610013575b600080fd5b60003560e01c806312737c331461010e57806328dd2d01146101055780632c6d0e9b146100fc57806335ea6a75146100f35780633e150141146100ea5780633e44bee8146100c657806376e9d615146100e15780638daf609f146100d8578063bf92857c146100cf578063c3525c28146100c6578063c4d66de8146100bd578063c72c4d10146100b45763f2f4eb26146100ac57600080fd5b61000e611569565b5061000e61153f565b5061000e61144f565b5061000e611369565b5061000e6113ec565b5061000e6113cf565b5061000e61138d565b5061000e61102c565b5061000e6109b1565b5061000e610954565b5061000e610347565b5061000e610128565b6001600160a01b0381160361000e57565b503461000e5760c036600319011261000e5761029361028361025c60043561014f81610117565b60345461016c906001600160a01b03165b6001600160a01b031690565b60405163288d4ff760e21b81526001600160a01b0383166004820152916020918290849060249082905afa92831561033a575b60009361030b575b508161021d81610250936004610256966101cb61016060355460018060a01b031690565b604051631f94a27560e31b815292839182905afa9081156102fe575b6000916102d1575b5060405163b3596f0760e01b81526001600160a01b0390921660048301529092839190829081906024820190565b03916001600160a01b03165afa9182156102c4575b600092610297575b505061024a604435602435611cf8565b90611d26565b91611838565b90611d39565b61027e61027960a43592610274608435606435611cf8565b611cf8565b611d04565b611d39565b6040519081529081906020820190565b0390f35b6102b69250803d106102bd575b6102ae81836115aa565b810190611854565b388061023a565b503d6102a4565b6102cc6115d9565b610232565b6102f19150833d85116102f7575b6102e981836115aa565b810190611689565b386101ef565b503d6102df565b6103066115d9565b6101e7565b6102509193509161021d8161032f61025695823d84116102bd576102ae81836115aa565b9593509350506101a7565b6103426115d9565b61019f565b503461000e5760408060031936011261000e57600490813561036881610117565b6024359161037583610117565b6034546000949061038e906001600160a01b0316610160565b93825193631a59df7760e11b85526020938486806103bd85888301919091602081019260018060a01b03169052565b03818a5afa958615610947575b8896610928575b5080516370a0823160e01b81526001600160a01b038416858201908152909686918891908290819060200103916001600160a01b03165afa95861561091b575b88966108fc575b508051631ca19f1960e01b81526001600160a01b03808416868301908152908516602082015290919086908390819060400103818b5afa9182156108ef575b89926108c0575b508051639fb8afcd60e01b81526001600160a01b0380851687830190815290861660208201529091906060908390819060400103818c5afa9889156108b3575b8a928b9a610868575b5091839188878097956102939c9d9e6104c2610544996121d9565b600187036107e057508351631bffeac360e21b81526001600160a01b03808916828e0190815290841660208201528490829081906040010381855afa9081156107d3575b6000916107b6575b50965b61051a876121d9565b84516362a00a4760e11b81526001600160a01b038216818e01908152909985918b91829160200190565b0381855afa9889156107a9575b60009961078a575b508451633faacc6b60e21b81526001600160a01b03808316828f019081529b1660208c01529984908b9081906040010381855afa998a1561077d575b60009a61075e575b508451637b7546bb60e11b81526001600160a01b03808316828f019081529c1660208d01529a84908c9081906040010381855afa9a8b15610751575b60009b610732575b5084516366d103f360e01b81526001600160a01b038083168e83019081529085166020820152909c9085908e9081906040010381865afa9c8d15610725575b60009d6106fa575b508551639e3c4f3b60e01b81526001600160a01b039283169181019182529190931660208401529291839190829081906040015b03915afa998a156106ed575b60009a6106be575b5050519a8b9a8b9895926101209895929b9a9794919b6101408b019c8b5260208b015260408a01526060890152608088015260a087015260c086015260e08501526101008401521515910152565b6106de929a50803d106106e6575b6106d681836115aa565b810190611d59565b973880610670565b503d6106cc565b6106f56115d9565b610668565b85949392919d5061071a9061065c963d87116102bd576102ae81836115aa565b9c9091929394610628565b61072d6115d9565b610620565b61074a919b50843d86116102bd576102ae81836115aa565b99386105e1565b6107596115d9565b6105d9565b610776919a50843d86116102bd576102ae81836115aa565b983861059d565b6107856115d9565b610595565b6107a2919950843d86116102bd576102ae81836115aa565b9738610559565b6107b16115d9565b610551565b6107cd9150843d86116102bd576102ae81836115aa565b3861050e565b6107db6115d9565b610506565b966107ea876121d9565b8b600288146107fa575b50610511565b855163906c0a4160e01b81526001600160a01b038316918101918252919891908590829081906020010381865afa91821561085b575b9161083e575b50968b6107f4565b6108559150843d86116102bd576102ae81836115aa565b38610836565b6108636115d9565b610830565b610293999a5086959350918886610899610544979560603d81116108ac575b61089181836115aa565b8101906121be565b509d9c5095975093959193506104a79050565b503d610887565b6108bb6115d9565b61049e565b6108e1919250863d88116108e8575b6108d981836115aa565b8101906121a6565b903861045e565b503d6108cf565b6108f76115d9565b610457565b610914919650853d87116102bd576102ae81836115aa565b9438610418565b6109236115d9565b610411565b610940919650853d87116102f7576102e981836115aa565b94386103d1565b61094f6115d9565b6103ca565b503461000e57602036600319011261000e5761010061097d60043561097881610117565b611863565b95604095919594929451978852602088015260408701526060860152608085015260a084015260c0830152151560e0820152f35b503461000e5760208060031936011261000e5760049081356109d281610117565b6034546109e7906001600160a01b0316610160565b60408051630c33cfd960e41b81526001600160a01b0384168187019081529195929490939092918390859081906020010381885afa93841561101f575b600094611000575b50855163e240301960e01b81526001600160a01b0382168382019081529095908490879081906020010381845afa958615610ff3575b600096610fb6575b5091610c37610bf7610bb7610b77610b37610af7610ab78d8b6102939d9e9f9a819c82828d829f519788928392637f90fec560e01b84528301919091602081019260018060a01b03169052565b0381845afa948515610fa9575b600095610f8a575b5083516398bd473760e01b81526001600160a01b038316818e01908152909684918891829160200190565b0381845afa958615610f7d575b600096610f5e575b5083516362a00a4760e11b81526001600160a01b038316818e01908152909784918991829160200190565b0381845afa968715610f51575b600097610f32575b50835163906c0a4160e01b81526001600160a01b038316818e01908152909884918a91829160200190565b0381845afa978815610f25575b600098610f06575b508351631100f3b160e31b81526001600160a01b038316818e01908152909984918b91829160200190565b0381845afa988915610ef9575b600099610eda575b5083516308d781e560e31b81526001600160a01b038316818e01908152909a84918c91829160200190565b0381845afa998a15610ecd575b60009a610eae575b508351632feb2b6160e21b81526001600160a01b038316818e01908152909b84918d91829160200190565b0381845afa9a8b15610ea1575b60009b610e82575b508351635ebfebcd60e11b81526001600160a01b0383168d8201908152909c9084908e9081906020010381855afa9c8d15610e75575b60009d610e56575b50845163b701d09360e01b81526001600160a01b038416828201908152909e908f9081906020010381855afa9d8e15610e49575b60009e610e2a575b5084519e8f631a59df7760e11b815280610cf186858301919091602081019260018060a01b03169052565b0381855afa9e8f15610e1d575b60009f610df4575b508451634f14460960e01b81526001600160a01b03909316908301908152919291839190829081906020015b03915afa9c8d15610de7575b60009d610db8575b5050519d8e9d8e9b99979593919d9c9a98969492909d6101a08d019e8d5260208d015260408c015260608b015260808a015260a089015260c088015260e0870152610100860152610120850152610140840152600160a01b600190031661016083015264ffffffffff16906101800152565b610dd8929d50803d10610de0575b610dd081836115aa565b810190612079565b9a3880610d46565b503d610dc6565b610def6115d9565b610d3e565b849392919f50610e1390610d32953d86116102f7576102e981836115aa565b9e90919293610d06565b610e256115d9565b610cfe565b610e42919e50843d86116102bd576102ae81836115aa565b9c38610cc6565b610e516115d9565b610cbe565b610e6e919d50843d86116102bd576102ae81836115aa565b9b38610c8a565b610e7d6115d9565b610c82565b610e9a919b50833d85116102bd576102ae81836115aa565b9938610c4c565b610ea96115d9565b610c44565b610ec6919a50833d85116102bd576102ae81836115aa565b9838610c0c565b610ed56115d9565b610c04565b610ef2919950833d85116102bd576102ae81836115aa565b9738610bcc565b610f016115d9565b610bc4565b610f1e919850833d85116102bd576102ae81836115aa565b9638610b8c565b610f2d6115d9565b610b84565b610f4a919750833d85116102bd576102ae81836115aa565b9538610b4c565b610f596115d9565b610b44565b610f76919650833d85116102bd576102ae81836115aa565b9438610b0c565b610f856115d9565b610b04565b610fa2919550833d85116102bd576102ae81836115aa565b9338610acc565b610fb16115d9565b610ac4565b8493919795965083928391823d8411610fec575b610fd481836115aa565b8101610fdf91611854565b9796989294509250610a6a565b503d610fca565b610ffb6115d9565b610a62565b611018919450833d85116102bd576102ae81836115aa565b9238610a2c565b6110276115d9565b610a24565b503461000e5760208060031936011261000e5760049081359061104e82610117565b603454611063906001600160a01b0316610160565b60408051635fc526ff60e01b81526001600160a01b0385168682019081529094929190608090869081906020010381855afa801561135c575b60009485968692611320575b5082516313cce90960e31b81526001600160a01b038616818a0190815297989697610293979195908390879081906020010381845afa958615611313575b6000966112f4575b508451632e79732b60e11b81526001600160a01b0388168382019081529095908490879081906020010381855afa9586156112e7575b6000966112c8575b508051630283aeb760e11b81526001600160a01b03891684820190815290989085908a9081906020010381865afa9889156112bb575b60009961129a575b5081516331da9b2760e21b81526001600160a01b03821685820190815290938692918390869081906020010381845afa94851561128d575b60009561126a575b508351633570a20b60e11b81526001600160a01b03909216958201958652939492939092839190829081906020015b03915afa93841561125d575b60009461123e575b505051978852602088019890985260408701979097526001600160a01b039096166060860152941515608085015293151560a084015292151560c083015291151560e0820152908190610100820190565b611255929450803d106102f7576102e981836115aa565b9138806111ed565b6112656115d9565b6111e5565b6111d994955061128690843d86116102bd576102ae81836115aa565b94936111aa565b6112956115d9565b6111a2565b859199506112b490823d84116106e6576106d681836115aa565b989061116a565b6112c36115d9565b611162565b6112e0919650843d86116106e6576106d681836115aa565b943861112c565b6112ef6115d9565b611124565b61130c919650833d85116106e6576106d681836115aa565b94386110ee565b61131b6115d9565b6110e6565b9096506102939550611349915060803d8111611355575b61134181836115aa565b810190611812565b909791969092506110a8565b503d611337565b6113646115d9565b61109c565b503461000e57600036600319011261000e576020604051670de0b6b3a76400008152f35b503461000e57606036600319011261000e5760206113c56004356113b081610117565b6024356113bc81610117565b60443591611d6d565b6040519015158152f35b503461000e57600036600319011261000e57602060405160018152f35b503461000e57602036600319011261000e5761010061141060043561097881610117565b5094919361142385858386979597612096565b92604051978852602088015260408701526060860152608085015260a084015260c083015260e0820152f35b503461000e57602036600319011261000e5760043561146d81610117565b60ff600154169081159182611536575b801561152a575b156114ce5761149790826114ae576115e6565b61149d57005b6114ac60ff1960015416600155565b005b6114bf600160ff1981541617600155565b6114c96001600055565b6115e6565b60405162461bcd60e51b815260206004820152602e60248201527f436f6e747261637420696e7374616e63652068617320616c726561647920626560448201526d195b881a5b9a5d1a585b1a5e995960921b6064820152608490fd5b50600054600111611484565b50303b1561147d565b503461000e57600036600319011261000e576035546040516001600160a01b039091168152602090f35b503461000e57600036600319011261000e576034546040516001600160a01b039091168152602090f35b50634e487b7160e01b600052604160045260246000fd5b90601f8019910116810190811067ffffffffffffffff8211176115cc57604052565b6115d4611593565b604052565b506040513d6000823e3d90fd5b603580546001600160a01b039283166001600160a01b03199182168117909255604051630774f5f560e21b8152909291602090829060049082905afa90811561167c575b60009161163f575b5016906034541617603455565b906020823d8211611674575b81611658602093836115aa565b8101031261167157505161166b81610117565b38611632565b80fd5b3d915061164b565b6116846115d9565b61162a565b9081602091031261000e575161169e81610117565b90565b60405190610160820182811067ffffffffffffffff821117611707575b604052816101406000918281528260208201528260408201528260608201528260808201528260a08201528260c08201528260e082015282610100820152826101208201520152565b61170f611593565b6116be565b90602090818382031261000e57825167ffffffffffffffff9384821161000e570181601f8201121561000e57805193841161179b575b8360051b906040519461175f858401876115aa565b8552838086019282010192831161000e578301905b828210611782575050505090565b838091835161179081610117565b815201910190611774565b6117a3611593565b61174a565b50634e487b7160e01b600052601160045260246000fd5b60019060001981146117cf570190565b6117d76117a8565b0190565b80518210156117ef5760209160051b010190565b634e487b7160e01b600052603260045260246000fd5b5190811515820361000e57565b919082608091031261000e5781519160208101519161169e606060408401519301611805565b604d8111611847575b600a0a90565b61184f6117a8565b611841565b9081602091031261000e575190565b90600460008060009060009260008091602061188961016060355460018060a01b031690565b604051631f94a27560e31b815298899182905afa968715611ceb575b600097611cca575b506118b66116a1565b6034549097906118ce906001600160a01b0316610160565b604051630240bc6b60e21b8152600081600481855afa908115611cbd575b600091611c9a575b5060005b8151811015611c39578a61196c60808f61193661192561191887896117db565b516001600160a01b031690565b6001600160a01b0316610140860152565b61014084015160405163e10076ad60e01b81526001600160a01b0391821660048201529116602482015291829081906044820190565b0381885afa908115611c2c575b600090600092600091600091611c01575b5015156101208501525b60e0840152816060840152806040840152159081611bf8575b50611bee576101400151604051635fc526ff60e01b81526001600160a01b039091166004820152611a1e90608081602481885afa8015611be1575b8d600091600090600090600090611bb3575b1515610100840152929350839260809291905b60c083015260a08201520152611838565b60208c01528a611a666020611a3d61014084015160018060a01b031690565b60405163b3596f0760e01b81526001600160a01b03909116600482015291829081906024820190565b03816001600160a01b038a165afa908115611ba6575b600091611b87575b50808252604082015180611afd575b5050606081015180611ab0575b5050611aab906117bf565b6118f8565b611aab929b9a611ad6836020611acd611adc95611af39751611d26565b91015190611d39565b90611cf8565b99611ad68d6020611acd60e0830151835190611d26565b9990508a38611aa0565b611b0d611b1891611b1f93611d26565b602084015190611d39565b8097611cf8565b95611b2e610100830151151590565b80611b79575b611b3f575b80611a93565b8060c0611b68611b59611ad694611b71979d969c9e611cf8565b9c611ad660a08d015185611d26565b99015190611d26565b958a38611b39565b506101208201511515611b34565b611ba0915060203d6020116102bd576102ae81836115aa565b38611a84565b611bae6115d9565b611a7c565b50505090506080611bd3611a0d93823d84116113555761134181836115aa565b9295508594935090916119fa565b611be96115d9565b6119e8565b50611aab906117bf565b905015386119ad565b9150506119949250611c22915060803d6080116113555761134181836115aa565b919390919061198a565b611c346115d9565b611979565b505050509750929450949094858015159384600014611c925781611c5c91611d39565b9315611c8857611c6b91611d39565b905b611c7982858789612016565b90670de0b6b3a7640000821090565b5050600090611c6d565b506000611c5c565b611cb791503d806000833e611caf81836115aa565b810190611714565b386118f4565b611cc56115d9565b6118ec565b611ce491975060203d6020116102f7576102e981836115aa565b95386118ad565b611cf36115d9565b6118a5565b811981116117cf570190565b6064908060001904821181151516611d1a570290565b611d226117a8565b0290565b8060001904821181151516611d1a570290565b8115611d43570490565b634e487b7160e01b600052601260045260246000fd5b9081602091031261000e5761169e90611805565b9190611d776116a1565b603454909290611d8f906001600160a01b0316610160565b604051635fc526ff60e01b81526001600160a01b03861660048201529290608084602481845afa8015611ff2575b600080958192611fc4575b50611df591611df19160a0890197611de76101408b0193849015159052565b8852885251151590565b1590565b908115611f4f575b50611f4557611e0b90611863565b505096939592989194505060209182880198604089019660608a019660808b01998a5287528188528a5215611f375782611e5d81611e81946004611e8b976101cb61016060355460018060a01b031690565b03916001600160a01b03165afa918215611f2a575b600092611f0d575b5050611d26565b6102568751611838565b94611e9e60c08201968088528851611fff565b9160e082019280845215611f0057611ee4611efc97611ede611eec93611ed46101009a670de0b6b3a76400009d51905190611d26565b9251905190611d26565b90611fff565b835190611d39565b9485910152519151905191612016565b1190565b5050505050505050600090565b611f239250803d106102bd576102ae81836115aa565b3880611e7a565b611f326115d9565b611e72565b505050505050505050600190565b5050505050600190565b604051639e3c4f3b60e01b81526001600160a01b038881166004830152841660248201529150602090829060449082905afa908115611fb7575b600091611f99575b501538611dfd565b611fb1915060203d81116106e6576106d681836115aa565b38611f91565b611fbf6115d9565b611f89565b611df19650611df59250611fe6915060803d81116113555761134181836115aa565b90979093509050611dc8565b611ffa6115d9565b611dbd565b81811061200a570390565b6120126117a8565b0390565b92909192821561206f5761169e93606461203661027e9461203d94611d26565b0493611cf8565b91670de0b6b3a7640000908060001904821181151516612062575b028260011c611cf8565b61206a6117a8565b612058565b5050505060001990565b9081602091031261000e575164ffffffffff8116810361000e5790565b6120ab91936120a491611d26565b6064900490565b82811061219e57611ede6120c29261169e94611cf8565b6035546120d7906001600160a01b0316610160565b906040518092633efbbf0f60e21b825281600460209586935afa908115612191575b600091612174575b50604051630e563a7d60e41b815233600482015260248101839052908390829060449082906001600160a01b03165afa928315612167575b600093612148575b5050611fff565b61215f929350803d106102bd576102ae81836115aa565b903880612141565b61216f6115d9565b612139565b61218b9150833d85116102f7576102e981836115aa565b38612101565b6121996115d9565b6120f9565b505050600090565b9081602091031261000e5751600381101561000e5790565b9081606091031261000e578051916040602083015192015190565b600311156121e357565b634e487b7160e01b600052602160045260246000fdfea26469706673582212206909c9d00eae4e9114a7990ff31b2d4e1a690bfea39d0d5487cbc8f10fa7206a64736f6c634300080d0033",
  "linkReferences": {},
  "deployedLinkReferences": {}
}