{
  "_format": "hh-sol-artifact-1",
  "contractName": "LendingBoardDataProvider",
  "sourceName": "contracts/lendingboard/LendingBoardDataProvider.sol",
  "abi": [
    {
      "inputs": [],
      "name": "DATA_PROVIDER_REVISION",
      "outputs": [
        {
          "internalType": "uint256",
          "name": "",
          "type": "uint256"
        }
      ],
      "stateMutability": "view",
      "type": "function"
    },
    {
      "inputs": [],
      "name": "HEALTH_FACTOR_LIQUIDATION_THRESHOLD",
      "outputs": [
        {
          "internalType": "uint256",
          "name": "",
          "type": "uint256"
        }
      ],
      "stateMutability": "view",
      "type": "function"
    },
    {
      "inputs": [],
      "name": "addressesProvider",
      "outputs": [
        {
          "internalType": "contract LendingBoardAddressesProvider",
          "name": "",
          "type": "address"
        }
      ],
      "stateMutability": "view",
      "type": "function"
    },
    {
      "inputs": [
        {
          "internalType": "address",
          "name": "_reserve",
          "type": "address"
        },
        {
          "internalType": "address",
          "name": "_user",
          "type": "address"
        },
        {
          "internalType": "uint256",
          "name": "_amount",
          "type": "uint256"
        }
      ],
      "name": "balanceDecreaseAllowed",
      "outputs": [
        {
          "internalType": "bool",
          "name": "",
          "type": "bool"
        }
      ],
      "stateMutability": "view",
      "type": "function"
    },
    {
      "inputs": [
        {
          "internalType": "address",
          "name": "_reserve",
          "type": "address"
        },
        {
          "internalType": "uint256",
          "name": "_amount",
          "type": "uint256"
        },
        {
          "internalType": "uint256",
          "name": "_fee",
          "type": "uint256"
        },
        {
          "internalType": "uint256",
          "name": "_userCurrentBorrowBalanceTH",
          "type": "uint256"
        },
        {
          "internalType": "uint256",
          "name": "_userCurrentFeesETH",
          "type": "uint256"
        },
        {
          "internalType": "uint256",
          "name": "_userCurrentLtv",
          "type": "uint256"
        }
      ],
      "name": "calculateCollateralNeededInETH",
      "outputs": [
        {
          "internalType": "uint256",
          "name": "",
          "type": "uint256"
        }
      ],
      "stateMutability": "view",
      "type": "function"
    },
    {
      "inputs": [
        {
          "internalType": "address",
          "name": "_user",
          "type": "address"
        }
      ],
      "name": "calculateUserGlobalData",
      "outputs": [
        {
          "internalType": "uint256",
          "name": "totalLiquidityBalanceETH",
          "type": "uint256"
        },
        {
          "internalType": "uint256",
          "name": "totalCollateralBalanceETH",
          "type": "uint256"
        },
        {
          "internalType": "uint256",
          "name": "totalBorrowBalanceETH",
          "type": "uint256"
        },
        {
          "internalType": "uint256",
          "name": "totalFeesETH",
          "type": "uint256"
        },
        {
          "internalType": "uint256",
          "name": "currentLtv",
          "type": "uint256"
        },
        {
          "internalType": "uint256",
          "name": "currentLiquidationThreshold",
          "type": "uint256"
        },
        {
          "internalType": "uint256",
          "name": "healthFactor",
          "type": "uint256"
        },
        {
          "internalType": "bool",
          "name": "healthFactorBelowThreshold",
          "type": "bool"
        }
      ],
      "stateMutability": "view",
      "type": "function"
    },
    {
      "inputs": [],
      "name": "core",
      "outputs": [
        {
          "internalType": "contract LendingBoardCore",
          "name": "",
          "type": "address"
        }
      ],
      "stateMutability": "view",
      "type": "function"
    },
    {
      "inputs": [],
      "name": "getHealthFactorLiquidationThreshold",
      "outputs": [
        {
          "internalType": "uint256",
          "name": "",
          "type": "uint256"
        }
      ],
      "stateMutability": "pure",
      "type": "function"
    },
    {
      "inputs": [
        {
          "internalType": "address",
          "name": "_reserve",
          "type": "address"
        }
      ],
      "name": "getReserveConfigurationData",
      "outputs": [
        {
          "internalType": "uint256",
          "name": "ltv",
          "type": "uint256"
        },
        {
          "internalType": "uint256",
          "name": "liquidationThreshold",
          "type": "uint256"
        },
        {
          "internalType": "uint256",
          "name": "liquidationBonus",
          "type": "uint256"
        },
        {
          "internalType": "address",
          "name": "rateStrategyAddress",
          "type": "address"
        },
        {
          "internalType": "bool",
          "name": "usageAsCollateralEnabled",
          "type": "bool"
        },
        {
          "internalType": "bool",
          "name": "borrowingEnabled",
          "type": "bool"
        },
        {
          "internalType": "bool",
          "name": "stableBorrowRateEnabled",
          "type": "bool"
        },
        {
          "internalType": "bool",
          "name": "isActive",
          "type": "bool"
        }
      ],
      "stateMutability": "view",
      "type": "function"
    },
    {
      "inputs": [
        {
          "internalType": "address",
          "name": "_reserve",
          "type": "address"
        }
      ],
      "name": "getReserveData",
      "outputs": [
        {
          "internalType": "uint256",
          "name": "totalLiquidity",
          "type": "uint256"
        },
        {
          "internalType": "uint256",
          "name": "availableLiquidity",
          "type": "uint256"
        },
        {
          "internalType": "uint256",
          "name": "totalBorrowsStable",
          "type": "uint256"
        },
        {
          "internalType": "uint256",
          "name": "totalBorrowsVariable",
          "type": "uint256"
        },
        {
          "internalType": "uint256",
          "name": "liquidityRate",
          "type": "uint256"
        },
        {
          "internalType": "uint256",
          "name": "variableBorrowRate",
          "type": "uint256"
        },
        {
          "internalType": "uint256",
          "name": "stableBorrowRate",
          "type": "uint256"
        },
        {
          "internalType": "uint256",
          "name": "averageStableBorrowRate",
          "type": "uint256"
        },
        {
          "internalType": "uint256",
          "name": "utilizationRate",
          "type": "uint256"
        },
        {
          "internalType": "uint256",
          "name": "liquidityIndex",
          "type": "uint256"
        },
        {
          "internalType": "uint256",
          "name": "variableBorrowIndex",
          "type": "uint256"
        },
        {
          "internalType": "address",
          "name": "aTokenAddress",
          "type": "address"
        },
        {
          "internalType": "uint40",
          "name": "lastUpdateTimestamp",
          "type": "uint40"
        }
      ],
      "stateMutability": "view",
      "type": "function"
    },
    {
      "inputs": [
        {
          "internalType": "address",
          "name": "_user",
          "type": "address"
        }
      ],
      "name": "getUserAccountData",
      "outputs": [
        {
          "internalType": "uint256",
          "name": "totalLiquidityETH",
          "type": "uint256"
        },
        {
          "internalType": "uint256",
          "name": "totalCollateralETH",
          "type": "uint256"
        },
        {
          "internalType": "uint256",
          "name": "totalBorrowsETH",
          "type": "uint256"
        },
        {
          "internalType": "uint256",
          "name": "totalFeesETH",
          "type": "uint256"
        },
        {
          "internalType": "uint256",
          "name": "availableBorrowsETH",
          "type": "uint256"
        },
        {
          "internalType": "uint256",
          "name": "currentLiquidationThreshold",
          "type": "uint256"
        },
        {
          "internalType": "uint256",
          "name": "ltv",
          "type": "uint256"
        },
        {
          "internalType": "uint256",
          "name": "healthFactor",
          "type": "uint256"
        }
      ],
      "stateMutability": "view",
      "type": "function"
    },
    {
      "inputs": [
        {
          "internalType": "address",
          "name": "_reserve",
          "type": "address"
        },
        {
          "internalType": "address",
          "name": "_user",
          "type": "address"
        }
      ],
      "name": "getUserReserveData",
      "outputs": [
        {
          "internalType": "uint256",
          "name": "currentATokenBalance",
          "type": "uint256"
        },
        {
          "internalType": "uint256",
          "name": "currentBorrowBalance",
          "type": "uint256"
        },
        {
          "internalType": "uint256",
          "name": "principalBorrowBalance",
          "type": "uint256"
        },
        {
          "internalType": "uint256",
          "name": "borrowRateMode",
          "type": "uint256"
        },
        {
          "internalType": "uint256",
          "name": "borrowRate",
          "type": "uint256"
        },
        {
          "internalType": "uint256",
          "name": "liquidityRate",
          "type": "uint256"
        },
        {
          "internalType": "uint256",
          "name": "originationFee",
          "type": "uint256"
        },
        {
          "internalType": "uint256",
          "name": "variableBorrowIndex",
          "type": "uint256"
        },
        {
          "internalType": "uint256",
          "name": "lastUpdateTimestamp",
          "type": "uint256"
        },
        {
          "internalType": "bool",
          "name": "usageAsCollateralEnabled",
          "type": "bool"
        }
      ],
      "stateMutability": "view",
      "type": "function"
    },
    {
      "inputs": [
        {
          "internalType": "contract LendingBoardAddressesProvider",
          "name": "_addressesProvider",
          "type": "address"
        }
      ],
      "name": "initialize",
      "outputs": [],
      "stateMutability": "nonpayable",
      "type": "function"
    }
  ],
  "bytecode": "0x6080806040523461001a576000805561240990816100208239f35b600080fdfe60806040526004361015610013575b600080fd5b60003560e01c806312737c331461010e57806328dd2d01146101055780632c6d0e9b146100fc57806335ea6a75146100f35780633e150141146100ea5780633e44bee8146100c657806376e9d615146100e15780638daf609f146100d8578063bf92857c146100cf578063c3525c28146100c6578063c4d66de8146100bd578063c72c4d10146100b45763f2f4eb26146100ac57600080fd5b61000e6115a4565b5061000e61157a565b5061000e61148a565b5061000e6113a4565b5061000e611427565b5061000e61140a565b5061000e6113c8565b5061000e611067565b5061000e6109ec565b5061000e61098f565b5061000e610347565b5061000e610128565b6001600160a01b0381160361000e57565b503461000e5760c036600319011261000e5761029361028361025c60043561014f81610117565b60345461016c906001600160a01b03165b6001600160a01b031690565b60405163288d4ff760e21b81526001600160a01b0383166004820152916020918290849060249082905afa92831561033a575b60009361030b575b508161021d81610250936004610256966101cb61016060355460018060a01b031690565b604051631f94a27560e31b815292839182905afa9081156102fe575b6000916102d1575b5060405163b3596f0760e01b81526001600160a01b0390921660048301529092839190829081906024820190565b03916001600160a01b03165afa9182156102c4575b600092610297575b505061024a604435602435611d4f565b90611d7d565b9161188f565b90611d90565b61027e61027960a43592610274608435606435611d4f565b611d4f565b611d5b565b611d90565b6040519081529081906020820190565b0390f35b6102b69250803d106102bd575b6102ae818361160e565b8101906118ab565b388061023a565b503d6102a4565b6102cc611630565b610232565b6102f19150833d85116102f7575b6102e9818361160e565b8101906116e0565b386101ef565b503d6102df565b610306611630565b6101e7565b6102509193509161021d8161032f61025695823d84116102bd576102ae818361160e565b9593509350506101a7565b610342611630565b61019f565b503461000e5760408060031936011261000e57600490813561036881610117565b6024359161037583610117565b6000936103886103836121fd565b612336565b60345461039d906001600160a01b0316610160565b93825193631a59df7760e11b85526020938486806103cc85888301919091602081019260018060a01b03169052565b03818a5afa958615610982575b8896610963575b5080516370a0823160e01b81526001600160a01b038416858201908152909686918891908290819060200103916001600160a01b03165afa958615610956575b8896610937575b5061043361038361222b565b8051631ca19f1960e01b81526001600160a01b03808416868301908152908516602082015290919086908390819060400103818b5afa91821561092a575b89926108fb575b50610484610383612271565b8051639fb8afcd60e01b81526001600160a01b0380851687830190815290861660208201529091906060908390819060400103818c5afa9889156108ee575b8a928b9a6108a3575b509161057f939188878097956102939c9d9e6104e96103836122ba565b6104f2876122e8565b6001870361081b57508351631bffeac360e21b81526001600160a01b03808916828e0190815290841660208201528490829081906040010381855afa90811561080e575b6000916107f1575b50965b61054c610383612308565b610555876122e8565b84516362a00a4760e11b81526001600160a01b038216818e01908152909985918b91829160200190565b0381855afa9889156107e4575b6000996107c5575b508451633faacc6b60e21b81526001600160a01b03808316828f019081529b1660208c01529984908b9081906040010381855afa998a156107b8575b60009a610799575b508451637b7546bb60e11b81526001600160a01b03808316828f019081529c1660208d01529a84908c9081906040010381855afa9a8b1561078c575b60009b61076d575b5084516366d103f360e01b81526001600160a01b038083168e83019081529085166020820152909c9085908e9081906040010381865afa9c8d15610760575b60009d610735575b508551639e3c4f3b60e01b81526001600160a01b039283169181019182529190931660208401529291839190829081906040015b03915afa998a15610728575b60009a6106f9575b5050519a8b9a8b9895926101209895929b9a9794919b6101408b019c8b5260208b015260408a01526060890152608088015260a087015260c086015260e08501526101008401521515910152565b610719929a50803d10610721575b610711818361160e565b810190611db0565b9738806106ab565b503d610707565b610730611630565b6106a3565b85949392919d5061075590610697963d87116102bd576102ae818361160e565b9c9091929394610663565b610768611630565b61065b565b610785919b50843d86116102bd576102ae818361160e565b993861061c565b610794611630565b610614565b6107b1919a50843d86116102bd576102ae818361160e565b98386105d8565b6107c0611630565b6105d0565b6107dd919950843d86116102bd576102ae818361160e565b9738610594565b6107ec611630565b61058c565b6108089150843d86116102bd576102ae818361160e565b3861053e565b610816611630565b610536565b96610825876122e8565b8b60028814610835575b50610541565b855163906c0a4160e01b81526001600160a01b038316918101918252919891908590829081906020010381865afa918215610896575b91610879575b50968b61082f565b6108909150843d86116102bd576102ae818361160e565b38610871565b61089e611630565b61086b565b610293999a50869593509188866108d461057f979560603d81116108e7575b6108cc818361160e565b81019061229f565b509d9c5095975093959193506104cc9050565b503d6108c2565b6108f6611630565b6104c3565b61091c919250863d8811610923575b610914818361160e565b810190612259565b9038610478565b503d61090a565b610932611630565b610471565b61094f919650853d87116102bd576102ae818361160e565b9438610427565b61095e611630565b610420565b61097b919650853d87116102f7576102e9818361160e565b94386103e0565b61098a611630565b6103d9565b503461000e57602036600319011261000e576101006109b86004356109b381610117565b6118ba565b95604095919594929451978852602088015260408701526060860152608085015260a084015260c0830152151560e0820152f35b503461000e5760208060031936011261000e576004908135610a0d81610117565b603454610a22906001600160a01b0316610160565b60408051630c33cfd960e41b81526001600160a01b0384168187019081529195929490939092918390859081906020010381885afa93841561105a575b60009461103b575b50855163e240301960e01b81526001600160a01b0382168382019081529095908490879081906020010381845afa95861561102e575b600096610ff1575b5091610c72610c32610bf2610bb2610b72610b32610af28d8b6102939d9e9f9a819c82828d829f519788928392637f90fec560e01b84528301919091602081019260018060a01b03169052565b0381845afa948515610fe4575b600095610fc5575b5083516398bd473760e01b81526001600160a01b038316818e01908152909684918891829160200190565b0381845afa958615610fb8575b600096610f99575b5083516362a00a4760e11b81526001600160a01b038316818e01908152909784918991829160200190565b0381845afa968715610f8c575b600097610f6d575b50835163906c0a4160e01b81526001600160a01b038316818e01908152909884918a91829160200190565b0381845afa978815610f60575b600098610f41575b508351631100f3b160e31b81526001600160a01b038316818e01908152909984918b91829160200190565b0381845afa988915610f34575b600099610f15575b5083516308d781e560e31b81526001600160a01b038316818e01908152909a84918c91829160200190565b0381845afa998a15610f08575b60009a610ee9575b508351632feb2b6160e21b81526001600160a01b038316818e01908152909b84918d91829160200190565b0381845afa9a8b15610edc575b60009b610ebd575b508351635ebfebcd60e11b81526001600160a01b0383168d8201908152909c9084908e9081906020010381855afa9c8d15610eb0575b60009d610e91575b50845163b701d09360e01b81526001600160a01b038416828201908152909e908f9081906020010381855afa9d8e15610e84575b60009e610e65575b5084519e8f631a59df7760e11b815280610d2c86858301919091602081019260018060a01b03169052565b0381855afa9e8f15610e58575b60009f610e2f575b508451634f14460960e01b81526001600160a01b03909316908301908152919291839190829081906020015b03915afa9c8d15610e22575b60009d610df3575b5050519d8e9d8e9b99979593919d9c9a98969492909d6101a08d019e8d5260208d015260408c015260608b015260808a015260a089015260c088015260e0870152610100860152610120850152610140840152600160a01b600190031661016083015264ffffffffff16906101800152565b610e13929d50803d10610e1b575b610e0b818361160e565b8101906120d0565b9a3880610d81565b503d610e01565b610e2a611630565b610d79565b849392919f50610e4e90610d6d953d86116102f7576102e9818361160e565b9e90919293610d41565b610e60611630565b610d39565b610e7d919e50843d86116102bd576102ae818361160e565b9c38610d01565b610e8c611630565b610cf9565b610ea9919d50843d86116102bd576102ae818361160e565b9b38610cc5565b610eb8611630565b610cbd565b610ed5919b50833d85116102bd576102ae818361160e565b9938610c87565b610ee4611630565b610c7f565b610f01919a50833d85116102bd576102ae818361160e565b9838610c47565b610f10611630565b610c3f565b610f2d919950833d85116102bd576102ae818361160e565b9738610c07565b610f3c611630565b610bff565b610f59919850833d85116102bd576102ae818361160e565b9638610bc7565b610f68611630565b610bbf565b610f85919750833d85116102bd576102ae818361160e565b9538610b87565b610f94611630565b610b7f565b610fb1919650833d85116102bd576102ae818361160e565b9438610b47565b610fc0611630565b610b3f565b610fdd919550833d85116102bd576102ae818361160e565b9338610b07565b610fec611630565b610aff565b8493919795965083928391823d8411611027575b61100f818361160e565b810161101a916118ab565b9796989294509250610aa5565b503d611005565b611036611630565b610a9d565b611053919450833d85116102bd576102ae818361160e565b9238610a67565b611062611630565b610a5f565b503461000e5760208060031936011261000e5760049081359061108982610117565b60345461109e906001600160a01b0316610160565b60408051635fc526ff60e01b81526001600160a01b0385168682019081529094929190608090869081906020010381855afa8015611397575b6000948596869261135b575b5082516313cce90960e31b81526001600160a01b038616818a0190815297989697610293979195908390879081906020010381845afa95861561134e575b60009661132f575b508451632e79732b60e11b81526001600160a01b0388168382019081529095908490879081906020010381855afa958615611322575b600096611303575b508051630283aeb760e11b81526001600160a01b03891684820190815290989085908a9081906020010381865afa9889156112f6575b6000996112d5575b5081516331da9b2760e21b81526001600160a01b03821685820190815290938692918390869081906020010381845afa9485156112c8575b6000956112a5575b508351633570a20b60e11b81526001600160a01b03909216958201958652939492939092839190829081906020015b03915afa938415611298575b600094611279575b505051978852602088019890985260408701979097526001600160a01b039096166060860152941515608085015293151560a084015292151560c083015291151560e0820152908190610100820190565b611290929450803d106102f7576102e9818361160e565b913880611228565b6112a0611630565b611220565b6112149495506112c190843d86116102bd576102ae818361160e565b94936111e5565b6112d0611630565b6111dd565b859199506112ef90823d841161072157610711818361160e565b98906111a5565b6112fe611630565b61119d565b61131b919650843d861161072157610711818361160e565b9438611167565b61132a611630565b61115f565b611347919650833d851161072157610711818361160e565b9438611129565b611356611630565b611121565b9096506102939550611384915060803d8111611390575b61137c818361160e565b810190611869565b909791969092506110e3565b503d611372565b61139f611630565b6110d7565b503461000e57600036600319011261000e576020604051670de0b6b3a76400008152f35b503461000e57606036600319011261000e5760206114006004356113eb81610117565b6024356113f781610117565b60443591611dc4565b6040519015158152f35b503461000e57600036600319011261000e57602060405160018152f35b503461000e57602036600319011261000e5761010061144b6004356109b381610117565b5094919361145e858583869795976120ed565b92604051978852602088015260408701526060860152608085015260a084015260c083015260e0820152f35b503461000e57602036600319011261000e576004356114a881610117565b60ff600154169081159182611571575b8015611565575b15611509576114d290826114e95761163d565b6114d857005b6114e760ff1960015416600155565b005b6114fa600160ff1981541617600155565b6115046001600055565b61163d565b60405162461bcd60e51b815260206004820152602e60248201527f436f6e747261637420696e7374616e63652068617320616c726561647920626560448201526d195b881a5b9a5d1a585b1a5e995960921b6064820152608490fd5b506000546001116114bf565b50303b156114b8565b503461000e57600036600319011261000e576035546040516001600160a01b039091168152602090f35b503461000e57600036600319011261000e576034546040516001600160a01b039091168152602090f35b50634e487b7160e01b600052604160045260246000fd5b6040810190811067ffffffffffffffff82111761160157604052565b6116096115ce565b604052565b90601f8019910116810190811067ffffffffffffffff82111761160157604052565b506040513d6000823e3d90fd5b603580546001600160a01b039283166001600160a01b03199182168117909255604051630774f5f560e21b8152909291602090829060049082905afa9081156116d3575b600091611696575b5016906034541617603455565b906020823d82116116cb575b816116af6020938361160e565b810103126116c85750516116c281610117565b38611689565b80fd5b3d91506116a2565b6116db611630565b611681565b9081602091031261000e57516116f581610117565b90565b60405190610160820182811067ffffffffffffffff82111761175e575b604052816101406000918281528260208201528260408201528260608201528260808201528260a08201528260c08201528260e082015282610100820152826101208201520152565b6117666115ce565b611715565b90602090818382031261000e57825167ffffffffffffffff9384821161000e570181601f8201121561000e5780519384116117f2575b8360051b90604051946117b68584018761160e565b8552838086019282010192831161000e578301905b8282106117d9575050505090565b83809183516117e781610117565b8152019101906117cb565b6117fa6115ce565b6117a1565b50634e487b7160e01b600052601160045260246000fd5b6001906000198114611826570190565b61182e6117ff565b0190565b80518210156118465760209160051b010190565b634e487b7160e01b600052603260045260246000fd5b5190811515820361000e57565b919082608091031261000e578151916020810151916116f560606040840151930161185c565b604d811161189e575b600a0a90565b6118a66117ff565b611898565b9081602091031261000e575190565b9060046000806000906000926000809160206118e061016060355460018060a01b031690565b604051631f94a27560e31b815298899182905afa968715611d42575b600097611d21575b5061190d6116f8565b603454909790611925906001600160a01b0316610160565b604051630240bc6b60e21b8152600081600481855afa908115611d14575b600091611cf1575b5060005b8151811015611c90578a6119c360808f61198d61197c61196f8789611832565b516001600160a01b031690565b6001600160a01b0316610140860152565b61014084015160405163e10076ad60e01b81526001600160a01b0391821660048201529116602482015291829081906044820190565b0381885afa908115611c83575b600090600092600091600091611c58575b5015156101208501525b60e0840152816060840152806040840152159081611c4f575b50611c45576101400151604051635fc526ff60e01b81526001600160a01b039091166004820152611a7590608081602481885afa8015611c38575b8d600091600090600090600090611c0a575b1515610100840152929350839260809291905b60c083015260a0820152015261188f565b60208c01528a611abd6020611a9461014084015160018060a01b031690565b60405163b3596f0760e01b81526001600160a01b03909116600482015291829081906024820190565b03816001600160a01b038a165afa908115611bfd575b600091611bde575b50808252604082015180611b54575b5050606081015180611b07575b5050611b0290611816565b61194f565b611b02929b9a611b2d836020611b24611b3395611b4a9751611d7d565b91015190611d90565b90611d4f565b99611b2d8d6020611b2460e0830151835190611d7d565b9990508a38611af7565b611b64611b6f91611b7693611d7d565b602084015190611d90565b8097611d4f565b95611b85610100830151151590565b80611bd0575b611b96575b80611aea565b8060c0611bbf611bb0611b2d94611bc8979d969c9e611d4f565b9c611b2d60a08d015185611d7d565b99015190611d7d565b958a38611b90565b506101208201511515611b8b565b611bf7915060203d6020116102bd576102ae818361160e565b38611adb565b611c05611630565b611ad3565b50505090506080611c2a611a6493823d84116113905761137c818361160e565b929550859493509091611a51565b611c40611630565b611a3f565b50611b0290611816565b90501538611a04565b9150506119eb9250611c79915060803d6080116113905761137c818361160e565b91939091906119e1565b611c8b611630565b6119d0565b505050509750929450949094858015159384600014611ce95781611cb391611d90565b9315611cdf57611cc291611d90565b905b611cd08285878961206d565b90670de0b6b3a7640000821090565b5050600090611cc4565b506000611cb3565b611d0e91503d806000833e611d06818361160e565b81019061176b565b3861194b565b611d1c611630565b611943565b611d3b91975060203d6020116102f7576102e9818361160e565b9538611904565b611d4a611630565b6118fc565b81198111611826570190565b6064908060001904821181151516611d71570290565b611d796117ff565b0290565b8060001904821181151516611d71570290565b8115611d9a570490565b634e487b7160e01b600052601260045260246000fd5b9081602091031261000e576116f59061185c565b9190611dce6116f8565b603454909290611de6906001600160a01b0316610160565b604051635fc526ff60e01b81526001600160a01b03861660048201529290608084602481845afa8015612049575b60008095819261201b575b50611e4c91611e489160a0890197611e3e6101408b0193849015159052565b8852885251151590565b1590565b908115611fa6575b50611f9c57611e62906118ba565b505096939592989194505060209182880198604089019660608a019660808b01998a5287528188528a5215611f8e5782611eb481611ed8946004611ee2976101cb61016060355460018060a01b031690565b03916001600160a01b03165afa918215611f81575b600092611f64575b5050611d7d565b610256875161188f565b94611ef560c08201968088528851612056565b9160e082019280845215611f5757611f3b611f5397611f35611f4393611f2b6101009a670de0b6b3a76400009d51905190611d7d565b9251905190611d7d565b90612056565b835190611d90565b948591015251915190519161206d565b1190565b5050505050505050600090565b611f7a9250803d106102bd576102ae818361160e565b3880611ed1565b611f89611630565b611ec9565b505050505050505050600190565b5050505050600190565b604051639e3c4f3b60e01b81526001600160a01b038881166004830152841660248201529150602090829060449082905afa90811561200e575b600091611ff0575b501538611e54565b612008915060203d811161072157610711818361160e565b38611fe8565b612016611630565b611fe0565b611e489650611e4c925061203d915060803d81116113905761137c818361160e565b90979093509050611e1f565b612051611630565b611e14565b818110612061570390565b6120696117ff565b0390565b9290919282156120c6576116f593606461208d61027e9461209494611d7d565b0493611d4f565b91670de0b6b3a76400009080600019048211811515166120b9575b028260011c611d4f565b6120c16117ff565b6120af565b5050505060001990565b9081602091031261000e575164ffffffffff8116810361000e5790565b61210291936120fb91611d7d565b6064900490565b8281106121f557611f35612119926116f594611d4f565b60355461212e906001600160a01b0316610160565b906040518092633efbbf0f60e21b825281600460209586935afa9081156121e8575b6000916121cb575b50604051630e563a7d60e41b815233600482015260248101839052908390829060449082906001600160a01b03165afa9283156121be575b60009361219f575b5050612056565b6121b6929350803d106102bd576102ae818361160e565b903880612198565b6121c6611630565b612190565b6121e29150833d85116102f7576102e9818361160e565b38612158565b6121f0611630565b612150565b505050600090565b6040519061220a826115e5565b6012825271202020202020203d3e204c424450203a203160701b6020830152565b60405190612238826115e5565b6012825271101010101010101e9f1026212228101d101960711b6020830152565b9081602091031261000e5751600381101561000e5790565b6040519061227e826115e5565b6012825271202020202020203d3e204c424450203a203360701b6020830152565b9081606091031261000e578051916040602083015192015190565b604051906122c7826115e5565b6012825271080808080808080f4f8813109114080e880d60721b6020830152565b600311156122f257565b634e487b7160e01b600052602160045260246000fd5b60405190612315826115e5565b6012825271202020202020203d3e204c424450203a203560701b6020830152565b90604051602063104c13eb60e21b818301528060248301528351908160448401526000945b8286106123a25750506064828261238e93612393969711612395575b601f8019910116810103604481018452018261160e565b6123b8565b565b6000838284010152612377565b858101820151848701606401529481019461235b565b600080916020815191016a636f6e736f6c652e6c6f675afa5056fea2646970667358221220e39f531e7469dc4d05c883f6e83bffa7f8485d8e17e62e34938ab0b7e237665f64736f6c634300080d0033",
  "linkReferences": {},
  "deployedLinkReferences": {}
}