{
  "_format": "hh-sol-artifact-1",
  "contractName": "LendingBoardProposeModeTemporal",
  "sourceName": "contracts/lendingboard/LendingBoardProposeModeTemporal.sol",
  "abi": [
    {
      "anonymous": false,
      "inputs": [
        {
          "indexed": true,
          "internalType": "address",
          "name": "_reserve",
          "type": "address"
        },
        {
          "indexed": true,
          "internalType": "address",
          "name": "_user",
          "type": "address"
        },
        {
          "indexed": false,
          "internalType": "uint256",
          "name": "_amount",
          "type": "uint256"
        },
        {
          "indexed": false,
          "internalType": "uint256",
          "name": "_borrowRateMode",
          "type": "uint256"
        },
        {
          "indexed": false,
          "internalType": "uint256",
          "name": "_borrowRate",
          "type": "uint256"
        },
        {
          "indexed": false,
          "internalType": "uint256",
          "name": "_originationFee",
          "type": "uint256"
        },
        {
          "indexed": false,
          "internalType": "uint256",
          "name": "_borrowBalanceIncrease",
          "type": "uint256"
        },
        {
          "indexed": false,
          "internalType": "uint256",
          "name": "_timestamp",
          "type": "uint256"
        }
      ],
      "name": "Borrow",
      "type": "event"
    },
    {
      "anonymous": false,
      "inputs": [
        {
          "indexed": true,
          "internalType": "address",
          "name": "_reserveToLend",
          "type": "address"
        },
        {
          "indexed": true,
          "internalType": "address",
          "name": "_lender",
          "type": "address"
        },
        {
          "indexed": false,
          "internalType": "address",
          "name": "_borrower",
          "type": "address"
        },
        {
          "indexed": true,
          "internalType": "uint256",
          "name": "_proposalId",
          "type": "uint256"
        },
        {
          "indexed": false,
          "internalType": "uint256",
          "name": "_amount",
          "type": "uint256"
        },
        {
          "indexed": false,
          "internalType": "uint256",
          "name": "_originationFee",
          "type": "uint256"
        },
        {
          "indexed": false,
          "internalType": "uint256",
          "name": "_timestamp",
          "type": "uint256"
        }
      ],
      "name": "BorrowAccepted",
      "type": "event"
    },
    {
      "anonymous": false,
      "inputs": [
        {
          "indexed": true,
          "internalType": "address",
          "name": "_reserveToBorrow",
          "type": "address"
        },
        {
          "indexed": true,
          "internalType": "address",
          "name": "_borrowProposer",
          "type": "address"
        },
        {
          "indexed": true,
          "internalType": "uint256",
          "name": "_proposalId",
          "type": "uint256"
        },
        {
          "indexed": false,
          "internalType": "uint256",
          "name": "_amount",
          "type": "uint256"
        },
        {
          "indexed": false,
          "internalType": "address",
          "name": "_reserveForCollateral",
          "type": "address"
        },
        {
          "indexed": false,
          "internalType": "uint256",
          "name": "_interestRate",
          "type": "uint256"
        },
        {
          "indexed": false,
          "internalType": "uint256",
          "name": "_originationFee",
          "type": "uint256"
        },
        {
          "indexed": false,
          "internalType": "uint256",
          "name": "_dueDate",
          "type": "uint256"
        },
        {
          "indexed": false,
          "internalType": "uint256",
          "name": "_timestamp",
          "type": "uint256"
        }
      ],
      "name": "BorrowProposed",
      "type": "event"
    },
    {
      "anonymous": false,
      "inputs": [
        {
          "indexed": true,
          "internalType": "address",
          "name": "_reserve",
          "type": "address"
        },
        {
          "indexed": true,
          "internalType": "address",
          "name": "_user",
          "type": "address"
        },
        {
          "indexed": false,
          "internalType": "uint256",
          "name": "_amount",
          "type": "uint256"
        },
        {
          "indexed": false,
          "internalType": "uint256",
          "name": "_timestamp",
          "type": "uint256"
        }
      ],
      "name": "Deposit",
      "type": "event"
    },
    {
      "anonymous": false,
      "inputs": [
        {
          "indexed": true,
          "internalType": "address",
          "name": "_reserveToLend",
          "type": "address"
        },
        {
          "indexed": true,
          "internalType": "address",
          "name": "_lender",
          "type": "address"
        },
        {
          "indexed": false,
          "internalType": "address",
          "name": "_borrower",
          "type": "address"
        },
        {
          "indexed": true,
          "internalType": "uint256",
          "name": "_proposalId",
          "type": "uint256"
        },
        {
          "indexed": false,
          "internalType": "uint256",
          "name": "_amount",
          "type": "uint256"
        },
        {
          "indexed": false,
          "internalType": "uint256",
          "name": "_originationFee",
          "type": "uint256"
        },
        {
          "indexed": false,
          "internalType": "uint256",
          "name": "_timestamp",
          "type": "uint256"
        }
      ],
      "name": "LendAccepted",
      "type": "event"
    },
    {
      "anonymous": false,
      "inputs": [
        {
          "indexed": true,
          "internalType": "address",
          "name": "_reserveToLend",
          "type": "address"
        },
        {
          "indexed": true,
          "internalType": "address",
          "name": "_lendProposer",
          "type": "address"
        },
        {
          "indexed": true,
          "internalType": "uint256",
          "name": "_proposalId",
          "type": "uint256"
        },
        {
          "indexed": false,
          "internalType": "uint256",
          "name": "_amount",
          "type": "uint256"
        },
        {
          "indexed": false,
          "internalType": "uint256",
          "name": "_interestRate",
          "type": "uint256"
        },
        {
          "indexed": false,
          "internalType": "uint256",
          "name": "_originationFee",
          "type": "uint256"
        },
        {
          "indexed": false,
          "internalType": "uint256",
          "name": "_dueDate",
          "type": "uint256"
        },
        {
          "indexed": false,
          "internalType": "uint256",
          "name": "_proposalTimeStamp",
          "type": "uint256"
        }
      ],
      "name": "LendProposed",
      "type": "event"
    },
    {
      "anonymous": false,
      "inputs": [
        {
          "indexed": true,
          "internalType": "address",
          "name": "_collateral",
          "type": "address"
        },
        {
          "indexed": true,
          "internalType": "address",
          "name": "_reserve",
          "type": "address"
        },
        {
          "indexed": true,
          "internalType": "address",
          "name": "_user",
          "type": "address"
        },
        {
          "indexed": false,
          "internalType": "uint256",
          "name": "_purchaseAmount",
          "type": "uint256"
        },
        {
          "indexed": false,
          "internalType": "uint256",
          "name": "_liquidatedCollateralAmount",
          "type": "uint256"
        },
        {
          "indexed": false,
          "internalType": "uint256",
          "name": "_accruedBorrowInterest",
          "type": "uint256"
        },
        {
          "indexed": false,
          "internalType": "address",
          "name": "_liquidator",
          "type": "address"
        },
        {
          "indexed": false,
          "internalType": "bool",
          "name": "_receiveAToken",
          "type": "bool"
        },
        {
          "indexed": false,
          "internalType": "uint256",
          "name": "_timestamp",
          "type": "uint256"
        }
      ],
      "name": "LiquidationCall",
      "type": "event"
    },
    {
      "anonymous": false,
      "inputs": [
        {
          "indexed": true,
          "internalType": "address",
          "name": "_collateral",
          "type": "address"
        },
        {
          "indexed": true,
          "internalType": "address",
          "name": "_reserve",
          "type": "address"
        },
        {
          "indexed": true,
          "internalType": "address",
          "name": "_user",
          "type": "address"
        },
        {
          "indexed": false,
          "internalType": "uint256",
          "name": "_feeLiquidated",
          "type": "uint256"
        },
        {
          "indexed": false,
          "internalType": "uint256",
          "name": "_liquidatedCollateralForFee",
          "type": "uint256"
        },
        {
          "indexed": false,
          "internalType": "uint256",
          "name": "_timestamp",
          "type": "uint256"
        }
      ],
      "name": "OriginationFeeLiquidated",
      "type": "event"
    },
    {
      "anonymous": false,
      "inputs": [
        {
          "indexed": true,
          "internalType": "address",
          "name": "_reserveToReceive",
          "type": "address"
        },
        {
          "indexed": true,
          "internalType": "address",
          "name": "_lender",
          "type": "address"
        },
        {
          "indexed": false,
          "internalType": "address",
          "name": "_reserveForCollateral",
          "type": "address"
        },
        {
          "indexed": false,
          "internalType": "address",
          "name": "_borrower",
          "type": "address"
        },
        {
          "indexed": true,
          "internalType": "uint256",
          "name": "_proposalId",
          "type": "uint256"
        },
        {
          "indexed": false,
          "internalType": "uint256",
          "name": "_amount",
          "type": "uint256"
        },
        {
          "indexed": false,
          "internalType": "uint256",
          "name": "_originationFee",
          "type": "uint256"
        },
        {
          "indexed": false,
          "internalType": "uint256",
          "name": "_timestamp",
          "type": "uint256"
        }
      ],
      "name": "ProposalAccepted",
      "type": "event"
    },
    {
      "anonymous": false,
      "inputs": [
        {
          "indexed": true,
          "internalType": "address",
          "name": "_reserve",
          "type": "address"
        },
        {
          "indexed": true,
          "internalType": "address",
          "name": "_user",
          "type": "address"
        },
        {
          "indexed": false,
          "internalType": "uint256",
          "name": "_amount",
          "type": "uint256"
        },
        {
          "indexed": false,
          "internalType": "uint256",
          "name": "_timestamp",
          "type": "uint256"
        }
      ],
      "name": "RedeemUnderlying",
      "type": "event"
    },
    {
      "anonymous": false,
      "inputs": [
        {
          "indexed": true,
          "internalType": "address",
          "name": "_reserve",
          "type": "address"
        },
        {
          "indexed": true,
          "internalType": "address",
          "name": "_user",
          "type": "address"
        },
        {
          "indexed": true,
          "internalType": "address",
          "name": "_repayer",
          "type": "address"
        },
        {
          "indexed": false,
          "internalType": "uint256",
          "name": "_amountMinusFees",
          "type": "uint256"
        },
        {
          "indexed": false,
          "internalType": "uint256",
          "name": "_fees",
          "type": "uint256"
        },
        {
          "indexed": false,
          "internalType": "uint256",
          "name": "_borrowBalanceIncrease",
          "type": "uint256"
        },
        {
          "indexed": false,
          "internalType": "uint256",
          "name": "_timestamp",
          "type": "uint256"
        }
      ],
      "name": "Repay",
      "type": "event"
    },
    {
      "anonymous": false,
      "inputs": [
        {
          "indexed": true,
          "internalType": "address",
          "name": "_reserve",
          "type": "address"
        },
        {
          "indexed": true,
          "internalType": "address",
          "name": "_user",
          "type": "address"
        }
      ],
      "name": "ReserveUsedAsCollateralDisabled",
      "type": "event"
    },
    {
      "anonymous": false,
      "inputs": [
        {
          "indexed": true,
          "internalType": "address",
          "name": "_reserve",
          "type": "address"
        },
        {
          "indexed": true,
          "internalType": "address",
          "name": "_user",
          "type": "address"
        }
      ],
      "name": "ReserveUsedAsCollateralEnabled",
      "type": "event"
    },
    {
      "inputs": [],
      "name": "LENDINGPOOL_REVISION",
      "outputs": [
        {
          "internalType": "uint256",
          "name": "",
          "type": "uint256"
        }
      ],
      "stateMutability": "view",
      "type": "function"
    },
    {
      "inputs": [],
      "name": "UINT_MAX_VALUE",
      "outputs": [
        {
          "internalType": "uint256",
          "name": "",
          "type": "uint256"
        }
      ],
      "stateMutability": "view",
      "type": "function"
    },
    {
      "inputs": [],
      "name": "addressesProvider",
      "outputs": [
        {
          "internalType": "contract LendingBoardAddressesProvider",
          "name": "",
          "type": "address"
        }
      ],
      "stateMutability": "view",
      "type": "function"
    },
    {
      "inputs": [
        {
          "internalType": "address",
          "name": "_reserve",
          "type": "address"
        },
        {
          "internalType": "uint256",
          "name": "_amount",
          "type": "uint256"
        },
        {
          "internalType": "uint256",
          "name": "_interestRateMode",
          "type": "uint256"
        }
      ],
      "name": "borrow",
      "outputs": [],
      "stateMutability": "nonpayable",
      "type": "function"
    },
    {
      "inputs": [
        {
          "internalType": "address",
          "name": "_reserveToBorrow",
          "type": "address"
        },
        {
          "internalType": "uint256",
          "name": "_amount",
          "type": "uint256"
        },
        {
          "internalType": "address",
          "name": "_reserveForCollateral",
          "type": "address"
        },
        {
          "internalType": "uint256",
          "name": "_interestRate",
          "type": "uint256"
        },
        {
          "internalType": "uint256",
          "name": "_dueDate",
          "type": "uint256"
        }
      ],
      "name": "borrowProposal",
      "outputs": [],
      "stateMutability": "nonpayable",
      "type": "function"
    },
    {
      "inputs": [
        {
          "internalType": "uint256",
          "name": "_proposalId",
          "type": "uint256"
        }
      ],
      "name": "borrowProposalAccept",
      "outputs": [],
      "stateMutability": "nonpayable",
      "type": "function"
    },
    {
      "inputs": [],
      "name": "borrowProposalListCount",
      "outputs": [
        {
          "internalType": "uint256",
          "name": "",
          "type": "uint256"
        }
      ],
      "stateMutability": "view",
      "type": "function"
    },
    {
      "inputs": [],
      "name": "core",
      "outputs": [
        {
          "internalType": "contract LendingBoardCore",
          "name": "",
          "type": "address"
        }
      ],
      "stateMutability": "view",
      "type": "function"
    },
    {
      "inputs": [],
      "name": "dataProvider",
      "outputs": [
        {
          "internalType": "contract LendingBoardDataProvider",
          "name": "",
          "type": "address"
        }
      ],
      "stateMutability": "view",
      "type": "function"
    },
    {
      "inputs": [
        {
          "internalType": "address",
          "name": "_reserve",
          "type": "address"
        },
        {
          "internalType": "uint256",
          "name": "_amount",
          "type": "uint256"
        },
        {
          "internalType": "uint16",
          "name": "_referralCode",
          "type": "uint16"
        }
      ],
      "name": "deposit",
      "outputs": [],
      "stateMutability": "payable",
      "type": "function"
    },
    {
      "inputs": [
        {
          "internalType": "uint256",
          "name": "proposalId",
          "type": "uint256"
        }
      ],
      "name": "getBorrowProposal",
      "outputs": [
        {
          "internalType": "bool",
          "name": "active",
          "type": "bool"
        },
        {
          "internalType": "address",
          "name": "borrower",
          "type": "address"
        },
        {
          "internalType": "address",
          "name": "reserveToBorrow",
          "type": "address"
        },
        {
          "internalType": "uint256",
          "name": "amount",
          "type": "uint256"
        },
        {
          "internalType": "address",
          "name": "reserveForCollateral",
          "type": "address"
        },
        {
          "internalType": "uint256",
          "name": "interestRate",
          "type": "uint256"
        },
        {
          "internalType": "uint256",
          "name": "dueDate",
          "type": "uint256"
        },
        {
          "internalType": "uint256",
          "name": "proposalDate",
          "type": "uint256"
        },
        {
          "internalType": "uint256",
          "name": "ltv",
          "type": "uint256"
        }
      ],
      "stateMutability": "view",
      "type": "function"
    },
    {
      "inputs": [
        {
          "internalType": "uint256",
          "name": "startIdx",
          "type": "uint256"
        },
        {
          "internalType": "uint256",
          "name": "endIdx",
          "type": "uint256"
        }
      ],
      "name": "getBorrowProposalList",
      "outputs": [
        {
          "components": [
            {
              "internalType": "bool",
              "name": "active",
              "type": "bool"
            },
            {
              "internalType": "address",
              "name": "proposer",
              "type": "address"
            },
            {
              "internalType": "address",
              "name": "reserveToReceive",
              "type": "address"
            },
            {
              "internalType": "uint256",
              "name": "amount",
              "type": "uint256"
            },
            {
              "internalType": "address",
              "name": "reserveForCollateral",
              "type": "address"
            },
            {
              "internalType": "uint256",
              "name": "interestRate",
              "type": "uint256"
            },
            {
              "internalType": "uint256",
              "name": "dueDate",
              "type": "uint256"
            },
            {
              "internalType": "uint256",
              "name": "proposalDate",
              "type": "uint256"
            },
            {
              "internalType": "uint256",
              "name": "serviceFee",
              "type": "uint256"
            },
            {
              "internalType": "uint256",
              "name": "ltv",
              "type": "uint256"
            }
          ],
          "internalType": "struct LendingBoardProposeModeTemporal.ProposalStructure[]",
          "name": "result",
          "type": "tuple[]"
        }
      ],
      "stateMutability": "view",
      "type": "function"
    },
    {
      "inputs": [
        {
          "internalType": "uint256",
          "name": "proposalId",
          "type": "uint256"
        }
      ],
      "name": "getLendProposal",
      "outputs": [
        {
          "internalType": "bool",
          "name": "active",
          "type": "bool"
        },
        {
          "internalType": "address",
          "name": "lender",
          "type": "address"
        },
        {
          "internalType": "address",
          "name": "reserveToLend",
          "type": "address"
        },
        {
          "internalType": "uint256",
          "name": "amount",
          "type": "uint256"
        },
        {
          "internalType": "address",
          "name": "reserveForCollateral",
          "type": "address"
        },
        {
          "internalType": "uint256",
          "name": "interestRate",
          "type": "uint256"
        },
        {
          "internalType": "uint256",
          "name": "dueDate",
          "type": "uint256"
        },
        {
          "internalType": "uint256",
          "name": "proposalDate",
          "type": "uint256"
        },
        {
          "internalType": "uint256",
          "name": "ltv",
          "type": "uint256"
        }
      ],
      "stateMutability": "view",
      "type": "function"
    },
    {
      "inputs": [
        {
          "internalType": "uint256",
          "name": "startIdx",
          "type": "uint256"
        },
        {
          "internalType": "uint256",
          "name": "endIdx",
          "type": "uint256"
        }
      ],
      "name": "getLendProposalList",
      "outputs": [
        {
          "components": [
            {
              "internalType": "bool",
              "name": "active",
              "type": "bool"
            },
            {
              "internalType": "address",
              "name": "proposer",
              "type": "address"
            },
            {
              "internalType": "address",
              "name": "reserveToReceive",
              "type": "address"
            },
            {
              "internalType": "uint256",
              "name": "amount",
              "type": "uint256"
            },
            {
              "internalType": "address",
              "name": "reserveForCollateral",
              "type": "address"
            },
            {
              "internalType": "uint256",
              "name": "interestRate",
              "type": "uint256"
            },
            {
              "internalType": "uint256",
              "name": "dueDate",
              "type": "uint256"
            },
            {
              "internalType": "uint256",
              "name": "proposalDate",
              "type": "uint256"
            },
            {
              "internalType": "uint256",
              "name": "serviceFee",
              "type": "uint256"
            },
            {
              "internalType": "uint256",
              "name": "ltv",
              "type": "uint256"
            }
          ],
          "internalType": "struct LendingBoardProposeModeTemporal.ProposalStructure[]",
          "name": "result",
          "type": "tuple[]"
        }
      ],
      "stateMutability": "view",
      "type": "function"
    },
    {
      "inputs": [
        {
          "internalType": "address",
          "name": "_reserve",
          "type": "address"
        }
      ],
      "name": "getReserveConfigurationData",
      "outputs": [
        {
          "internalType": "uint256",
          "name": "ltv",
          "type": "uint256"
        },
        {
          "internalType": "uint256",
          "name": "liquidationThreshold",
          "type": "uint256"
        },
        {
          "internalType": "uint256",
          "name": "liquidationBonus",
          "type": "uint256"
        },
        {
          "internalType": "address",
          "name": "interestRateStrategyAddress",
          "type": "address"
        },
        {
          "internalType": "bool",
          "name": "usageAsCollateralEnabled",
          "type": "bool"
        },
        {
          "internalType": "bool",
          "name": "borrowingEnabled",
          "type": "bool"
        },
        {
          "internalType": "bool",
          "name": "stableBorrowRateEnabled",
          "type": "bool"
        },
        {
          "internalType": "bool",
          "name": "isActive",
          "type": "bool"
        }
      ],
      "stateMutability": "view",
      "type": "function"
    },
    {
      "inputs": [
        {
          "internalType": "address",
          "name": "_reserve",
          "type": "address"
        }
      ],
      "name": "getReserveData",
      "outputs": [
        {
          "internalType": "uint256",
          "name": "totalLiquidity",
          "type": "uint256"
        },
        {
          "internalType": "uint256",
          "name": "availableLiquidity",
          "type": "uint256"
        },
        {
          "internalType": "uint256",
          "name": "totalBorrowsStable",
          "type": "uint256"
        },
        {
          "internalType": "uint256",
          "name": "totalBorrowsVariable",
          "type": "uint256"
        },
        {
          "internalType": "uint256",
          "name": "liquidityRate",
          "type": "uint256"
        },
        {
          "internalType": "uint256",
          "name": "variableBorrowRate",
          "type": "uint256"
        },
        {
          "internalType": "uint256",
          "name": "stableBorrowRate",
          "type": "uint256"
        },
        {
          "internalType": "uint256",
          "name": "averageStableBorrowRate",
          "type": "uint256"
        },
        {
          "internalType": "uint256",
          "name": "utilizationRate",
          "type": "uint256"
        },
        {
          "internalType": "uint256",
          "name": "liquidityIndex",
          "type": "uint256"
        },
        {
          "internalType": "uint256",
          "name": "variableBorrowIndex",
          "type": "uint256"
        },
        {
          "internalType": "address",
          "name": "aTokenAddress",
          "type": "address"
        },
        {
          "internalType": "uint40",
          "name": "lastUpdateTimestamp",
          "type": "uint40"
        }
      ],
      "stateMutability": "view",
      "type": "function"
    },
    {
      "inputs": [],
      "name": "getReserves",
      "outputs": [
        {
          "internalType": "address[]",
          "name": "",
          "type": "address[]"
        }
      ],
      "stateMutability": "view",
      "type": "function"
    },
    {
      "inputs": [
        {
          "internalType": "address",
          "name": "_user",
          "type": "address"
        }
      ],
      "name": "getUserAccountData",
      "outputs": [
        {
          "internalType": "uint256",
          "name": "totalLiquidityETH",
          "type": "uint256"
        },
        {
          "internalType": "uint256",
          "name": "totalCollateralETH",
          "type": "uint256"
        },
        {
          "internalType": "uint256",
          "name": "totalBorrowsETH",
          "type": "uint256"
        },
        {
          "internalType": "uint256",
          "name": "totalFeesETH",
          "type": "uint256"
        },
        {
          "internalType": "uint256",
          "name": "availableBorrowsETH",
          "type": "uint256"
        },
        {
          "internalType": "uint256",
          "name": "currentLiquidationThreshold",
          "type": "uint256"
        },
        {
          "internalType": "uint256",
          "name": "ltv",
          "type": "uint256"
        },
        {
          "internalType": "uint256",
          "name": "healthFactor",
          "type": "uint256"
        }
      ],
      "stateMutability": "view",
      "type": "function"
    },
    {
      "inputs": [
        {
          "internalType": "address",
          "name": "_reserve",
          "type": "address"
        },
        {
          "internalType": "address",
          "name": "_user",
          "type": "address"
        }
      ],
      "name": "getUserReserveBalance",
      "outputs": [
        {
          "internalType": "uint256",
          "name": "",
          "type": "uint256"
        }
      ],
      "stateMutability": "view",
      "type": "function"
    },
    {
      "inputs": [
        {
          "internalType": "address",
          "name": "_reserve",
          "type": "address"
        },
        {
          "internalType": "address",
          "name": "_user",
          "type": "address"
        }
      ],
      "name": "getUserReserveData",
      "outputs": [
        {
          "internalType": "uint256",
          "name": "currentATokenBalance",
          "type": "uint256"
        },
        {
          "internalType": "uint256",
          "name": "currentBorrowBalance",
          "type": "uint256"
        },
        {
          "internalType": "uint256",
          "name": "principalBorrowBalance",
          "type": "uint256"
        },
        {
          "internalType": "uint256",
          "name": "borrowRateMode",
          "type": "uint256"
        },
        {
          "internalType": "uint256",
          "name": "borrowRate",
          "type": "uint256"
        },
        {
          "internalType": "uint256",
          "name": "liquidityRate",
          "type": "uint256"
        },
        {
          "internalType": "uint256",
          "name": "originationFee",
          "type": "uint256"
        },
        {
          "internalType": "uint256",
          "name": "variableBorrowIndex",
          "type": "uint256"
        },
        {
          "internalType": "uint256",
          "name": "lastUpdateTimestamp",
          "type": "uint256"
        },
        {
          "internalType": "bool",
          "name": "usageAsCollateralEnabled",
          "type": "bool"
        }
      ],
      "stateMutability": "view",
      "type": "function"
    },
    {
      "inputs": [
        {
          "internalType": "contract LendingBoardAddressesProvider",
          "name": "_addressesProvider",
          "type": "address"
        }
      ],
      "name": "initialize",
      "outputs": [],
      "stateMutability": "nonpayable",
      "type": "function"
    },
    {
      "inputs": [
        {
          "internalType": "address",
          "name": "_reserveToLend",
          "type": "address"
        },
        {
          "internalType": "uint256",
          "name": "_amount",
          "type": "uint256"
        },
        {
          "internalType": "address",
          "name": "_reserveForCollateral",
          "type": "address"
        },
        {
          "internalType": "uint256",
          "name": "_interestRate",
          "type": "uint256"
        },
        {
          "internalType": "uint256",
          "name": "_dueDate",
          "type": "uint256"
        }
      ],
      "name": "lendProposal",
      "outputs": [],
      "stateMutability": "nonpayable",
      "type": "function"
    },
    {
      "inputs": [
        {
          "internalType": "uint256",
          "name": "_proposalId",
          "type": "uint256"
        }
      ],
      "name": "lendProposalAccept",
      "outputs": [],
      "stateMutability": "nonpayable",
      "type": "function"
    },
    {
      "inputs": [],
      "name": "lendProposalListCount",
      "outputs": [
        {
          "internalType": "uint256",
          "name": "",
          "type": "uint256"
        }
      ],
      "stateMutability": "view",
      "type": "function"
    },
    {
      "inputs": [
        {
          "internalType": "address",
          "name": "_collateral",
          "type": "address"
        },
        {
          "internalType": "address",
          "name": "_reserve",
          "type": "address"
        },
        {
          "internalType": "address",
          "name": "_user",
          "type": "address"
        },
        {
          "internalType": "uint256",
          "name": "_purchaseAmount",
          "type": "uint256"
        },
        {
          "internalType": "bool",
          "name": "_receiveAToken",
          "type": "bool"
        }
      ],
      "name": "liquidationCall",
      "outputs": [],
      "stateMutability": "payable",
      "type": "function"
    },
    {
      "inputs": [],
      "name": "nft",
      "outputs": [
        {
          "internalType": "contract LendingBoardNFT",
          "name": "",
          "type": "address"
        }
      ],
      "stateMutability": "view",
      "type": "function"
    },
    {
      "inputs": [],
      "name": "parametersProvider",
      "outputs": [
        {
          "internalType": "contract LendingBoardParametersProvider",
          "name": "",
          "type": "address"
        }
      ],
      "stateMutability": "view",
      "type": "function"
    },
    {
      "inputs": [
        {
          "internalType": "uint256",
          "name": "",
          "type": "uint256"
        }
      ],
      "name": "proposalIdToTokenId",
      "outputs": [
        {
          "internalType": "uint256",
          "name": "",
          "type": "uint256"
        }
      ],
      "stateMutability": "view",
      "type": "function"
    },
    {
      "inputs": [
        {
          "internalType": "address",
          "name": "_reserve",
          "type": "address"
        },
        {
          "internalType": "address payable",
          "name": "_user",
          "type": "address"
        },
        {
          "internalType": "uint256",
          "name": "_amount",
          "type": "uint256"
        },
        {
          "internalType": "uint256",
          "name": "_aTokenBalanceAfterRedeem",
          "type": "uint256"
        }
      ],
      "name": "redeemUnderlying",
      "outputs": [],
      "stateMutability": "nonpayable",
      "type": "function"
    },
    {
      "inputs": [
        {
          "internalType": "address",
          "name": "_reserve",
          "type": "address"
        },
        {
          "internalType": "uint256",
          "name": "_amount",
          "type": "uint256"
        },
        {
          "internalType": "address payable",
          "name": "_onBehalfOf",
          "type": "address"
        }
      ],
      "name": "repay",
      "outputs": [],
      "stateMutability": "payable",
      "type": "function"
    },
    {
      "inputs": [
        {
          "internalType": "address",
          "name": "_reserve",
          "type": "address"
        },
        {
          "internalType": "uint256",
          "name": "_amount",
          "type": "uint256"
        },
        {
          "internalType": "address payable",
          "name": "_onBehalfOf",
          "type": "address"
        },
        {
          "internalType": "uint256",
          "name": "_proposalId",
          "type": "uint256"
        }
      ],
      "name": "repayPropose",
      "outputs": [],
      "stateMutability": "payable",
      "type": "function"
    },
    {
      "inputs": [
        {
          "internalType": "address",
          "name": "_reserve",
          "type": "address"
        },
        {
          "internalType": "bool",
          "name": "_useAsCollateral",
          "type": "bool"
        }
      ],
      "name": "setUserUseReserveAsCollateral",
      "outputs": [],
      "stateMutability": "nonpayable",
      "type": "function"
    }
  ],
  "bytecode": "0x6080806040523461002b57600160005560006001556000603c556000603e55615ed59081620000318239f35b600080fdfe60806040526004361015610013575b600080fd5b60003560e01c8062a718a91461029257806304ba3b48146102895780630902f1ac1461028057806328dd2d011461027757806329e6a05f1461026e57806335ea6a75146102655780633815d34c1461025c5780633cedf2df146102535780633e1501411461024a57806347ccca021461024157806348f163ea1461023857806356b045061461022f57806358707e06146102265780635a3b74b91461021d5780635ceae9c41461021457806379cc211e1461020b5780638afaff02146102025780638fabf76d146101f95780639895e3d8146101f05780639a91fe9b146101e7578063a429bcaa146101de578063ab1e8a21146101d5578063b334ed86146101cc578063bf92857c146101c3578063c0c8ab65146101ba578063c1bce0b7146101b1578063c4d66de8146101a8578063c72c4d101461019f578063d0fc81d214610196578063d2d0e0661461018d578063de314862146101845763f2f4eb261461017c57600080fd5b61000e6131ad565b5061000e61318e565b5061000e612ead565b5061000e612e8f565b5061000e612e65565b5061000e612d76565b5061000e61274a565b5061000e61265a565b5061000e612536565b5061000e61250c565b5061000e6121bc565b5061000e6120f8565b5061000e611bcd565b5061000e611b0e565b5061000e6114f4565b5061000e6114a3565b5061000e61134f565b5061000e611304565b5061000e61109e565b5061000e611074565b5061000e611047565b5061000e610c47565b5061000e610c1d565b5061000e610b12565b5061000e610af0565b5061000e6109ee565b5061000e61077a565b5061000e61075b565b5061000e61066f565b5061000e610536565b5061000e610492565b5061000e6102b6565b6001600160a01b0381160361000e57565b8015150361000e57565b5060a036600319011261000e576004356102cf8161029b565b6024356102db8161029b565b6103db6000806044356102ed8161029b565b608435946102fa866102ac565b61030261353e565b61030b81615be6565b61031487615be6565b603554610331906001600160a01b03165b6001600160a01b031690565b91604051968793632bd7cfb760e11b855284600460209a8b935afa938415610485575b8594610452575b5060405162a718a960e01b8982019081526001600160a01b039a8b166024830152938a166044820152989091166064808a0191909152356084890152151560a48801528660c481015b03966103b8601f199889810183528261322b565b51915af46103cd6103c7614ec1565b91614ef1565b828082518301019101614f72565b906103ec576103ea6001600055565b005b61044e926104249261042a6104369360405195869384016014907302634b8bab4b230ba34b7b7103330b4b632b21d160651b81520190565b90614fd9565b0390810183528261322b565b60405162461bcd60e51b815291829160048301615011565b0390fd5b6103a491945061047790893d8b1161047e575b61046f818361322b565b81019061324d565b939061035b565b503d610465565b61048d613262565b610354565b50608036600319011261000e576104e06004356104ae8161029b565b6044356024356104bd8261029b565b6104c561353e565b6104ce83615be6565b6104d781615d67565b606435926145ca565b6001600055005b600091031261000e57565b6020908160408183019282815285518094520193019160005b828110610519575050505090565b83516001600160a01b03168552938101939281019260010161050b565b503461000e5760008060031936011261062f57603654604051630240bc6b60e21b815291908190839060049082906001600160a01b03165afa90811561063a575b8091610590575b6040518061058c84826104f2565b0390f35b90503d8082843e6105a1818461322b565b820160209283818303126106325780519067ffffffffffffffff8211610636570181601f82011215610632578051906105d98261579a565b936105e7604051958661322b565b828552858086019360051b83010193841161062f57508401905b8282106106165750505061058c91503861057e565b84809183516106248161029b565b815201910190610601565b80fd5b8280fd5b8380fd5b610642613262565b610577565b604090600319011261000e5760043561065f8161029b565b9060243561066c8161029b565b90565b503461000e5761067e36610647565b6037546040516328dd2d0160e01b81526001600160a01b039384166004820152918316602483015261014092839183916044918391165afa801561074e575b6000918283848586918793889589978a9961070d575b50604051998a5260208a015260408901526060880152608087015260a086015260c085015260e08401526101008301521515610120820152f35b985050505050505050506107379150823d8411610747575b61072f818361322b565b810190615022565b97909691959294929190386106d3565b503d610725565b610756613262565b6106bd565b503461000e57600036600319011261000e576020603c54604051908152f35b503461000e57602036600319011261000e576004356107988161029b565b6037546040516335ea6a7560e01b81526001600160a01b0392831660048201526101a0929091839183916024918391165afa801561091d575b600090819282838485868791889389958a978b998c9b610866575b5061058c9b9c9d506040519d8e9d8e9b99979593919d9c9a98969492909d6101a08d019e8d5260208d015260408c015260608b015260808a015260a089015260c088015260e0870152610100860152610120850152610140840152600160a01b600190031661016083015264ffffffffff16906101800152565b9c5050505050505050505050509181813d8311610916575b610888818361322b565b8101031261091257805190602081015190604081015192606082015191608081015160a082015160c083015160e0840151610100850151916101208601519361014087015195610180610160890151986108e18a61029b565b01519864ffffffffff8a168a0361090e5761058c9b9c9d509b9c99909192939495969798998d9c9b6107ec565b8d80fd5b5080fd5b503d61087e565b610925613262565b6107d1565b60208082019080835283518092528060408094019401926000905b83821061095457505050505090565b909192939483610140600192885161096e82825115159052565b808401516001600160a01b031682850152808601516001600160a01b031682870152606081810151908301526080808201516001600160a01b03169083015260a0818101519083015260c0808201519083015260e08082015190830152610100808201519083015261012090810151908201520196019493920190610945565b503461000e57604036600319011261000e57600435602435603c54811015610a9c57610a37610a25610a208484613f89565b613f04565b610a326107d08210615743565b6157c1565b916000905b82811115610a52576040518061058c868261092a565b80610a91610a6d610a9793600052603b602052604060002090565b93610a80610a7a8261552f565b9561560d565b610a8a8289615811565b5286615811565b5061552f565b610a3c565b60405162461bcd60e51b815260206004820152602660248201527f456e6420496e646578206f76657220626f72726f7750726f706f73616c4c69736044820152651d10dbdd5b9d60d21b6064820152608490fd5b503461000e576020610b0a610b0436610647565b90615071565b604051908152f35b503461000e57602036600319011261000e57600435610b308161029b565b603754604051633e15014160e01b81526001600160a01b039283166004820152610100929091839183916024918391165afa8015610c10575b600090819282838490859286948796610bcb575b50604080519788526020880198909852968601969096526001600160a01b039095166060850152931515608084015292151560a083015291151560c082015290151560e08201526101009150f35b9650505050505050610bf791508261058c93903d10610c09575b610bef818361322b565b81019061528c565b95978897969591949293929190610b7d565b503d610be5565b610c18613262565b610b69565b503461000e57600036600319011261000e57603a546040516001600160a01b039091168152602090f35b503461000e5760208060031936011261000e57600435610c65615118565b50600091818352603d8152604091610c7e83852061560d565b90610c8e600183511515146156a2565b60018060a01b039283858401511692610100606082015195838301511691015193610cb761353e565b610cc081615be6565b610cc981615ca6565b610cd286615d67565b610d0086610ce8610ce33385615071565b613d53565b610cf981610cf4615a6e565b615db3565b1015615acd565b610d81610d658887610d1c61032560365460018060a01b031690565b8251630deb1bf960e21b81526001600160a01b0387166004820152336024820152604481018c9052606481019290925260016084830152909283919082908e90829060a4820190565b03925af190811561103a575b8a9161100b575b50610cf4615b4b565b6036548890610d98906001600160a01b0316610325565b95863b156109125787610f8185848989819a8f610fa89f610f9e9f9a610e16917f8548f4b1ba99a93e6efd62aabdf947babb683e6735271b67e3a3ecc73ed22a369c8e83865180968195829463fa93b2a560e01b845233906004850160409194939294606082019560018060a01b0380921683521660208201520152565b03925af18015610ffe575b610fe5575b506005610e3d85600052603d602052604060002090565b01549088866004610e5888600052603d602052604060002090565b015498610f23610e7b610e75610e6e8d87613d7c565b6064900490565b85613f20565b610ea26003610e948c600052603d602052604060002090565b01546001600160a01b031690565b9b610eaf88421115615b9a565b603a54610ec4906001600160a01b0316610325565b96516327b13f6760e21b81526001600160a01b039094166004850152602484019a909a52336044840152606483019490945260848201959095524260a482015260c481019790975260e487019190915285928391908290610104820190565b03925af1928315610fd8575b92610fab575b5050610f4b89600052603f602052604060002090565b558b516001600160a01b0390911681523360208201526040810192909252606082019290925242608082015290819060a0820190565b0390a4610f8e6001600055565b600052603d602052604060002090565b805460ff19169055565b51f35b610fca9250803d10610fd1575b610fc2818361322b565b81019061352f565b3880610f35565b503d610fb8565b610fe0613262565b610f2f565b80610ff2610ff8926131ee565b806104e7565b38610e26565b611006613262565b610e21565b61102b9150893d8b11611033575b611023818361322b565b810190613cec565b905038610d78565b503d611019565b611042613262565b610d71565b503461000e57602036600319011261000e57600435600052603f6020526020604060002054604051908152f35b503461000e57600036600319011261000e576038546040516001600160a01b039091168152602090f35b503461000e5760408060031936011261000e57600435906110be8261029b565b602435916110cb836102ac565b6110d361353e565b6110dc81615be6565b6110e581615ca6565b6036546110fa906001600160a01b0316610325565b8251630c526de560e11b81526001600160a01b03831660048201523360248201529093906111b89060209061119d90829081816044818c5afa9081156112f7575b6000916112da575b5061114f811515614dd2565b603754611164906001600160a01b0316610325565b88516376e9d61560e01b81526001600160a01b038916600482015233602482015260448101929092529092839190829081906064820190565b03915afa9182156112cd575b6000926112a0575b5050614e31565b833b1561000e578251633e94615360e21b81526001600160a01b0383166004820152336024820152811515604482015260009485908290606490829084905af18015611293575b611280575b50831461124857815133916001600160a01b0316907e058a56ea94653cdf4f152d227ace22d4c00ad99e2a43f58cb7d9e3feb295f2908590a35b610fa86001600055565b815133916001600160a01b0316907f44c58d81365b66dd4b1a7f36c25aa97b8c71c361ee4937adc1a00000227db5dd908590a361123e565b80610ff261128d926131ee565b38611204565b61129b613262565b6111ff565b6112bf9250803d106112c6575b6112b7818361322b565b810190613900565b38806111b1565b503d6112ad565b6112d5613262565b6111a9565b6112f19150823d8411610fd157610fc2818361322b565b38611143565b6112ff613262565b61113b565b50606036600319011261000e576104e06004356113208161029b565b602435604435916113308361029b565b61133861353e565b61134181615be6565b61134a82615d67565b613fa0565b503461000e57602036600319011261000e57600435611372603c54821115615702565b6000818152603b60205260409020805460ff169061058c9061139f905b5460081c6001600160a01b031690565b926113b96001610e9483600052603b602052604060002090565b9060026113d082600052603b602052604060002090565b01546113eb6003610e9484600052603b602052604060002090565b600461140184600052603b602052604060002090565b015490600561141a85600052603b602052604060002090565b015492600861144b600661143888600052603b602052604060002090565b015496600052603b602052604060002090565b015495604051998a998a9592919361010097949a999895919a61012088019b1515885260018060a01b03938480921660208a0152166040880152606087015216608085015260a084015260c083015260e08201520152565b503461000e57600036600319011261000e57602060405160038152f35b60a090600319011261000e576004356114d88161029b565b90602435906044356114e98161029b565b906064359060843590565b503461000e57611503366114c0565b61150f9493919461353e565b61151884615be6565b61152184615ca6565b61152a82615d67565b611532615118565b9461153b61388f565b81151580611b04575b61154d90615184565b6115584284116151d0565b60365461156d906001600160a01b0316610325565b60405163288d4ff760e21b81526001600160a01b038816600482015290602082602481845afa918215611af7575b600092611ad6575b506004868960206115be61032560355460018060a01b031690565b604051631f94a27560e31b815294859182905afa928315611ac9575b600093611a9f575b50604051632e79732b60e11b81526001600160a01b038216600482015292936116809361165d926020929091611630908481602481865afa908115611a92575b600091611a75575b50613915565b60405163e240301960e01b81526001600160a01b0390921660048301529092839190829081906024820190565b03915afa908115611a68575b600091611a49575b50806101608701521015615213565b61168a3389615071565b60375490919088906116a4906001600160a01b0316610325565b604051633e15014160e01b81526001600160a01b038c16600482015294908b9061010090879060249082905afa958615611a3c575b6000966119f0575b50936118148461180c886117fd6117d97fddda05bca10ccedb67628486050c0637ba56c3b1d4d271f7524748d5e3931c859f9b99611827996117ab6119589f9d8f6117a19c816117966117876117a69461176460208e98819c604051808095819463b3596f0760e01b835260048301919091602081019260018060a01b03169052565b03916001600160a01b03165afa9081156119e3575b6000916119c6575b50613d7c565b611790846152f1565b90613d8f565b9e8f92610cf461530d565b613d7c565b613d8f565b60405163b3596f0760e01b81526001600160a01b039092166004830152969092839190829081906024820190565b03916001600160a01b03165afa9081156119b9575b60009161199a575b5084613d8f565b958a611807615362565b615e11565b610cf46153c1565b61182082610cf4615411565b1015615468565b60395461183c906001600160a01b0316610325565b604051630e563a7d60e41b8152336004820152602481018590529290602090849060449082905afa92831561198d575b600093611965575b5060606118879101928084521515613b49565b6118948251610cf46154da565b60018a523360208b01526001600160a01b03891660408b015260608a018390526001600160a01b03881660808b01528460a08b01528560c08b01524260e08b015281516101008b01526101208a0152611914603c54996118fb6118f68c61552f565b603c55565b61190f8b600052603b602052604060002090565b61553f565b51604080519283526001600160a01b039788166020840152820193909352606081019290925260808201929092524260a082015233949093169290819060c0820190565b0390a46103ea6001600055565b61188791935061198560609160203d602011610fd157610fc2818361322b565b939150611874565b611995613262565b61186c565b6119b3915060203d602011610fd157610fc2818361322b565b386117f6565b6119c1613262565b6117ee565b6119dd91508b3d8d11610fd157610fc2818361322b565b38611781565b6119eb613262565b611779565b8a96509984819394989692959b6101003d61010011611a35575b611a14818361322b565b8101611a1f9161528c565b50505050505050975050999390949692916116e1565b503d611a0a565b611a44613262565b6116d9565b611a62915060203d602011610fd157610fc2818361322b565b38611671565b611a70613262565b611669565b611a8c9150853d87116112c6576112b7818361322b565b3861162a565b611a9a613262565b611622565b611680935061165d91611ac0602092833d851161047e5761046f818361322b565b945091506115e2565b611ad1613262565b6115da565b611af091925060203d602011610fd157610fc2818361322b565b90386115a3565b611aff613262565b61159b565b5060648210611544565b503461000e57608036600319011261000e57611b98600435611b2f8161029b565b60243590611b3c8261029b565b611b4461353e565b611b8b60018060a01b0360246020826036541660405192838092631a59df7760e11b825286891660048301525afa908115611bc0575b600091611ba2575b50163314613594565b606435916044359161361a565b6103ea6001600055565b611bba915060203d811161047e5761046f818361322b565b38611b82565b611bc8613262565b611b7a565b503461000e577ff8b6062ca08c00ea54f74d7f53f049ed4cb014a7787c62250e6dfa1229d7d460611bfd366114c0565b9092611c0a95929561353e565b611c1385615be6565b611c1c85615ca6565b611c2581615d67565b611958611c30615118565b96866004611c3c61583b565b92881515806120ee575b611c4f90615184565b611c5a4288116151d0565b6036548690611c71906001600160a01b0316610325565b60405163288d4ff760e21b81526001600160a01b0386168582019081529091906020908390819083010381845afa9182156120e1575b6000926120c0575b50603554602090611cc8906001600160a01b0316610325565b604051631f94a27560e31b815296879182905afa9485156120b3575b60009561208c575b50604051632e79732b60e11b81526001600160a01b0387166004820152611d7e918491611d369060208180602481015b0381865afa90811561207f575b6000916120665750613915565b60405163e240301960e01b81526001600160a01b038916600482015290602090829060249082905afa908115612059575b60009161203a575b50806101608a015210156158c3565b611d8b610ce33387615071565b603754909190611da3906001600160a01b0316610325565b604051633e15014160e01b81526001600160a01b0386166004820152959061010090879060249082905afa95861561202d575b600096611fe4575b5060405163b3596f0760e01b81526001600160a01b03909716600488015294959394611e5c94611e55928892611e4c9261179091611e4691899160209082908180602481015b03916001600160a01b03165afa908115611fd7575b600091611fbe5750613d7c565b916152f1565b8461180761593a565b1015615999565b603954611e71906001600160a01b0316610325565b604051630e563a7d60e41b8152336004820152602481018790529390602090859060449082905afa938415611fb1575b600094611f83575b5090611ec06060611efd9301948086521515613b49565b611ecd8451610cf4615a1d565b60018b523360208c01526001600160a01b038a1660408c015260608b018690526001600160a01b031660808b0152565b8660a08a01528460c08a01524260e08a015281516101008a0152610120890152611f49603e5498611f35611f308b61552f565b603e55565b61190f8a600052603d602052604060002090565b5160408051938452602084019690965294820194909452606081019190915242608082015233936001600160a01b031692819060a0820190565b611efd929194506060611fa7611ec09260203d602011610fd157610fc2818361322b565b9592935050611ea9565b611fb9613262565b611ea1565b6119dd915060203d602011610fd157610fc2818361322b565b611fdf613262565b611e39565b611e5c959650611e5592611790611e4687611e246020612017611e4c976101003d61010011610c0957610bef818361322b565b505050505050509c9b5050505050509250611dde565b612035613262565b611dd6565b612053915060203d602011610fd157610fc2818361322b565b38611d6f565b612061613262565b611d67565b611a8c915060203d6020116112c6576112b7818361322b565b612087613262565b611d29565b611d7e9195506120ab849160203d60201161047e5761046f818361322b565b959150611cec565b6120bb613262565b611ce4565b6120da91925060203d602011610fd157610fc2818361322b565b9038611caf565b6120e9613262565b611ca7565b5060648910611c46565b503461000e57604036600319011261000e57600435602435603e548110156121655761212a610a25610a208484613f89565b916000905b82811115612145576040518061058c868261092a565b80610a91610a6d61216093600052603d602052604060002090565b61212f565b60405162461bcd60e51b815260206004820152602960248201527f456e6420496e64657820657863656564696e67204c656e6450726f706f73616c604482015268131a5cdd10dbdd5b9d60ba1b6064820152608490fd5b503461000e5760208060031936011261000e576004356121da615118565b50600091818352603b81526040916121f383852061560d565b90612203600183511515146156a2565b60018060a01b03928385840151169261010060608201519583830151169101519361222c61353e565b61223581615be6565b61223e81615ca6565b61224786615d67565b61225886610ce8610ce33385615071565b6122bf610d65888761227461032560365460018060a01b031690565b8251630deb1bf960e21b81526001600160a01b03808816600483015288166024820152604481018c9052606481019290925260016084830152909283919082908e90829060a4820190565b60365488906122d6906001600160a01b0316610325565b95863b1561091257876124a585848989819a8f610fa89f610f9e9f9a612355917f8548f4b1ba99a93e6efd62aabdf947babb683e6735271b67e3a3ecc73ed22a369c898f849087519687958694859363fa93b2a560e01b85526004850160409194939294606082019560018060a01b0380921683521660208201520152565b03925af180156124ff575b6124ec575b50600561237c85600052603b602052604060002090565b0154908886600461239788600052603b602052604060002090565b0154986124446123ad610e75610e6e8d87613d7c565b6123c66003610e948c600052603b602052604060002090565b9b6123d388421115615b9a565b603a546123e8906001600160a01b0316610325565b96516327b13f6760e21b8152336004820152602481019b909b526001600160a01b0390931660448b015260648a019490945260848901959095524260a489015260c488015260e487019190915285928391908290610104820190565b03925af19283156124df575b926124c2575b505061246c89600052603f602052604060002090565b558b516001600160a01b0391821681529616602087015260408601919091526060850191909152426080850152339390819060a0820190565b0390a46124b26001600055565b600052603b602052604060002090565b6124d89250803d10610fd157610fc2818361322b565b3880612456565b6124e7613262565b612450565b80610ff26124f9926131ee565b38612365565b612507613262565b612360565b503461000e57600036600319011261000e576037546040516001600160a01b039091168152602090f35b503461000e57602036600319011261000e576004356125548161029b565b603754604051632fe4a15f60e21b81526001600160a01b0392831660048201529161010091829184916024918391165afa801561264d575b6000908192828384908592869487966125e6575b5061058c969798506040519889988994919260e0969399989794919961010087019a8752602087015260408601526060850152608084015260a083015260c08201520152565b96975050505050505082813d8311612646575b612603818361322b565b8101031261062f57508051602082015160408301516060840151608085015160a086015160c087015160e09097015194968796959490939192919061058c6125a0565b503d6125f9565b612655613262565b61258c565b503461000e57602036600319011261000e5760043561267d603e54821115615702565b6000818152603d60205260409020805460ff169061058c9061269e9061138f565b926126b86001610e9483600052603d602052604060002090565b9060026126cf82600052603d602052604060002090565b01546126ea6003610e9484600052603d602052604060002090565b600461270084600052603d602052604060002090565b015490600561271985600052603d602052604060002090565b015492600861144b600661273788600052603d602052604060002090565b015496600052603d602052604060002090565b503461000e57606036600319011261000e5761276760043561029b565b60443561277261353e565b61277d600435615be6565b612788600435615ca6565b612793602435615d67565b61279b61388f565b603654612a3a906040906127b7906001600160a01b0316610325565b8151632e79732b60e11b8152600480356001600160a01b0316908201526127e5906020818060248101611d1c565b846002148015612d6c575b6127f99061398d565b6128028561396d565b6101c084019061281286836139e5565b825163e240301960e01b8152600480356001600160a01b03169082015261285e90602081602481865afa908115612d5f575b600091612d40575b508061016088015260243511156139f1565b6037546129e990612877906001600160a01b0316610325565b8451632c6d0e9b60e01b81523360048201526020906101009061290890612903906128ff9084816024818a5afa908115612d33575b8d60009182908390849085908697612cee575b509260c09285928796956128de6101e06128f99a98019a8b9015159052565b60408501528d8401528b83015260e082015201521515613a8b565b51151590565b1590565b613ad7565b60395461296590612921906001600160a01b0316610325565b8851630e563a7d60e41b81523360048201526024803590820152908490829060449082905afa908115612ce1575b600091612cc4575b508060608c01521515613b49565b606089015160e08a0151918a0151838b015189516312737c3360e01b8152600480356001600160a01b031690820152602480359082015260448101939093526064830193909352608482015260a4810191909152918290818060c4810103915afa908115612cb7575b600091612c98575b508060a088015260c08701511015613b9f565b600182516129f68161396d565b6129ff8161396d565b14612b91575b6060850151915191612a168361396d565b60008451809681958294630deb1bf960e21b84526024353360043560048701613d02565b03925af1928315612b84575b6000918294612b61575b5061012083019384526101a08301918252603654612a76906001600160a01b0316610325565b803b1561000e5760405163fa93b2a560e01b8152600480356001600160a01b031690820152336024808301919091523560448201527fe27fbad0754d6c730a8161378bc066f66fac114445968dcfc26d42a3002960139360609290919060009082908183816064810103925af18015612b54575b612b41575b505193015193516040805160243581526020810193909352820193909352606081019390935260808301919091524260a083015233916001600160a01b0360043516919060c090a36103ea6001600055565b80610ff2612b4e926131ee565b38612aef565b612b5c613262565b612aea565b909350612b7d915060403d60401161103357611023818361322b565b9238612a50565b612b8c613262565b612a46565b825163710ba6c360e11b8152600480356001600160a01b03169082015233602480830191909152356044820152612be190602081606481865afa908115612c8b575b600091612c6c575b50613c08565b612c3b612c31610e6e60046020612c0261032560385460018060a01b031690565b88516335adc96b60e21b815292839182905afa908115612c5f575b600091612c40575b50610160890151613d7c565b6024351115613c7a565b612a05565b612c59915060203d602011610fd157610fc2818361322b565b38612c25565b612c67613262565b612c1d565b612c85915060203d6020116112c6576112b7818361322b565b38612bdb565b612c93613262565b612bd3565b612cb1915060203d602011610fd157610fc2818361322b565b386129d6565b612cbf613262565b6129ce565b612cdb9150843d8611610fd157610fc2818361322b565b38612957565b612ce9613262565b61294f565b9250505060c094506128f99350612d1b9150883d8a11612d2c575b612d13818361322b565b810190613a4a565b9995985093955091939092506128bf565b503d612d09565b612d3b613262565b6128ac565b612d59915060203d602011610fd157610fc2818361322b565b3861284c565b612d67613262565b612844565b50600185146127f0565b503461000e57602036600319011261000e57600435612d948161029b565b60ff600254169081159182612e5c575b8015612e50575b15612df457612dbe9082612dd35761326f565b612dc457005b6103ea60ff1960025416600255565b612de5600160ff196002541617600255565b612def6003600155565b61326f565b60405162461bcd60e51b815260206004820152602e60248201527f436f6e747261637420696e7374616e63652068617320616c726561647920626560448201526d195b881a5b9a5d1a585b1a5e995960921b6064820152608490fd5b50600154600311612dab565b50303b15612da4565b503461000e57600036600319011261000e576035546040516001600160a01b039091168152602090f35b503461000e57600036600319011261000e5760206040516000198152f35b50606036600319011261000e576004803590612ec88261029b565b6024359160443561ffff81160361000e57612ee161353e565b612eea83615d67565b603654612eff906001600160a01b0316610325565b60408051631a59df7760e11b81526001600160a01b0384168186019081529095919491929060209081908890819083010381855afa968715613181575b600097613162575b5085516370a0823160e01b8152338482019081526001600160a01b039889169391908390829081906020010381875afa928315613155575b600093613136575b5050803b1561000e578651632f35bfe960e21b81526001600160a01b038716858201908152336020820152604081018790529215606084015291600091839182908490829060800103925af18015613129575b613116575b50803b1561000e5784516394362e8b60e01b81523383820190815260208101859052909160009183919082908490829060400103925af18015613109575b6130f6575b50603654613035906001600160a01b0316610325565b803b1561000e5784516328fcf4d360e01b81526001600160a01b038516928101928352336020840152604083018490526000967fdcbc1c05240f31ff3ad067ef1ee35ce4997762752e3a095284754544f4c709d7936130c993919291899183919082908190606001039134905af180156130e9575b6130d6575b508551938452426020850152339416929081906040820190565b0390a3610fa86001600055565b80610ff26130e3926131ee565b386130af565b6130f1613262565b6130aa565b80610ff2613103926131ee565b3861301f565b613111613262565b61301a565b80610ff2613123926131ee565b38612fdc565b613131613262565b612fd7565b61314d929350803d10610fd157610fc2818361322b565b903880612f84565b61315d613262565b612f7c565b8161317a9298503d891161047e5761046f818361322b565b9538612f44565b613189613262565b612f3c565b503461000e57600036600319011261000e576020603e54604051908152f35b503461000e57600036600319011261000e576036546040516001600160a01b039091168152602090f35b50634e487b7160e01b600052604160045260246000fd5b67ffffffffffffffff811161320257604052565b61320a6131d7565b604052565b6060810190811067ffffffffffffffff82111761320257604052565b90601f8019910116810190811067ffffffffffffffff82111761320257604052565b9081602091031261000e575161066c8161029b565b506040513d6000823e3d90fd5b603580546001600160a01b0319166001600160a01b039290921691821790556134599061329b90610325565b6040518091630774f5f560e21b825281600460209384935afa918215613522575b600092613503575b50603680546001600160a01b0319166001600160a01b0393841617905561333f826004836132fc61032560355460018060a01b031690565b6040516352cb335b60e11b815292839182905afa9081156134f6575b6000916134d9575b501660018060a01b03166001600160601b0360a01b6037541617603755565b61339d8260048361335a61032560355460018060a01b031690565b604051639fabe17560e01b815292839182905afa9081156134cc575b6000916134af575b501660018060a01b03166001600160601b0360a01b6038541617603855565b6133fb826004836133b861032560355460018060a01b031690565b604051633efbbf0f60e21b815292839182905afa9081156134a2575b600091613485575b501660018060a01b03166001600160601b0360a01b6039541617603955565b6035546004908290613415906001600160a01b0316610325565b604051635920a6a160e01b815292839182905afa918215613478575b60009261345b575b50501660018060a01b03166001600160601b0360a01b603a541617603a55565b565b6134719250803d1061047e5761046f818361322b565b3880613439565b613480613262565b613431565b61349c9150843d861161047e5761046f818361322b565b386133dc565b6134aa613262565b6133d4565b6134c69150843d861161047e5761046f818361322b565b3861337e565b6134d4613262565b613376565b6134f09150843d861161047e5761046f818361322b565b38613320565b6134fe613262565b613318565b8161351b9293503d841161047e5761046f818361322b565b90386132c4565b61352a613262565b6132bc565b9081602091031261000e575190565b60026000541461354f576002600055565b60405162461bcd60e51b815260206004820152601f60248201527f5265656e7472616e637947756172643a207265656e7472616e742063616c6c006044820152606490fd5b1561359b57565b60405162461bcd60e51b815260206004820152604b60248201527f5468652063616c6c6572206f6620746869732066756e6374696f6e2063616e2060448201527f6f6e6c79206265207468652061546f6b656e20636f6e7472616374206f66207460648201526a686973207265736572766560a81b608482015260a490fd5b9261362484615be6565b61362d83615d67565b603654613642906001600160a01b0316610325565b60405163e240301960e01b81526001600160a01b0386166004820152613685908590602081602481875afa9081156137ec575b6000916137ce575b5010156137f9565b803b1561000e5760405163afcdbea360e01b81526001600160a01b0386811660048301528416602482015260448101859052911560648301526000908290608490829084905af180156137c1575b6137ae575b506036546136ee906001600160a01b0316610325565b803b1561000e5760405163fa93b2a560e01b81526001600160a01b03858116600483015283166024820152604481018490527f9c4ed599cd8555b9c1e8cd7643240d7d71eb76b792948c49fcb4d411f7b6b3c692613789929091906000908290606490829084905af180156137a1575b61378e575b50604080519485524260208601526001600160a01b039182169590911693918291820190565b0390a3565b80610ff261379b926131ee565b38613763565b6137a9613262565b61375e565b80610ff26137bb926131ee565b386136d8565b6137c9613262565b6136d3565b6137e6915060203d8111610fd157610fc2818361322b565b3861367d565b6137f4613262565b613675565b1561380057565b60405162461bcd60e51b81526020600482015260316024820152600080516020615e6083398151915260448201527061696c61626c6520746f2072656465656d60781b6064820152608490fd5b60405190610200820182811067ffffffffffffffff82111761320257604052565b60405190610140820182811067ffffffffffffffff82111761320257604052565b61389761384d565b9060008083528060208401528060408401528060608401528060808401528060a08401528060c08401528060e08401528061010084015280610120840152806101408401528061016084015280610180840152806101a0840152806101c08401526101e0830152565b9081602091031261000e575161066c816102ac565b1561391c57565b60405162461bcd60e51b8152602060048201526024808201527f52657365727665206973206e6f7420656e61626c656420666f7220626f72726f60448201526377696e6760e01b6064820152608490fd5b6003111561397757565b634e487b7160e01b600052602160045260246000fd5b1561399457565b60405162461bcd60e51b815260206004820152602360248201527f496e76616c696420696e7465726573742072617465206d6f64652073656c65636044820152621d195960ea1b6064820152608490fd5b60038210156139775752565b156139f857565b60405162461bcd60e51b81526020600482015260366024820152600080516020615e6083398151915260448201527561696c61626c6520696e20746865207265736572766560501b6064820152608490fd5b91908261010091031261000e5781519160208101519160408201519160608101519160808201519160a08101519160e060c083015192015161066c816102ac565b15613a9257565b60405162461bcd60e51b815260206004820152601b60248201527f54686520636f6c6c61746572616c2062616c616e6365206973203000000000006044820152606490fd5b15613ade57565b60405162461bcd60e51b815260206004820152603f60248201527f54686520626f72726f7765722063616e20616c7265616479206265206c69717560448201527f69646174656420736f2068652063616e6e6f7420626f72726f77206d6f7265006064820152608490fd5b15613b5057565b60405162461bcd60e51b815260206004820152602160248201527f54686520616d6f756e7420746f20626f72726f7720697320746f6f20736d616c6044820152601b60fa1b6064820152608490fd5b15613ba657565b60405162461bcd60e51b815260206004820152603460248201527f5468657265206973206e6f7420656e6f75676820636f6c6c61746572616c20746044820152736f20636f7665722061206e657720626f72726f7760601b6064820152608490fd5b15613c0f57565b60405162461bcd60e51b815260206004820152603960248201527f557365722063616e6e6f7420626f72726f77207468652073656c65637465642060448201527f616d6f756e742077697468206120737461626c652072617465000000000000006064820152608490fd5b15613c8157565b60405162461bcd60e51b815260206004820152603c60248201527f5573657220697320747279696e6720746f20626f72726f7720746f6f206d756360448201527f68206c6971756964697479206174206120737461626c652072617465000000006064820152608490fd5b919082604091031261000e576020825192015190565b6001600160a01b039182168152911660208201526040810191909152606081019190915260a0810192919060038210156139775760800152565b50634e487b7160e01b600052601160045260246000fd5b670de0b6b3a7640000908060001904821181151516613d70570290565b613d78613d3c565b0290565b8060001904821181151516613d70570290565b8115613d99570490565b634e487b7160e01b600052601260045260246000fd5b60405190610100820182811067ffffffffffffffff821117613e00575b6040528160e06000918281528260208201528260408201528260608201528260808201528260a08201528260c08201520152565b613e086131d7565b613dcc565b9081606091031261000e578051916040602083015192015190565b15613e2f57565b60405162461bcd60e51b815260206004820152602960248201527f546865207573657220646f6573206e6f74206861766520616e7920626f72726f604482015268772070656e64696e6760b81b6064820152608490fd5b15613e8d57565b60a460405162461bcd60e51b815260206004820152604460248201527f546f207265706179206f6e20626568616c66206f6620616e207573657220616e60448201527f206578706c6963697420616d6f756e7420746f207265706179206973206e65656064820152633232b21760e11b6084820152fd5b6001906001198111613f14570190565b613f1c613d3c565b0190565b81198111613f14570190565b15613f3357565b60405162461bcd60e51b815260206004820152602860248201527f496e76616c6964206d73672e76616c75652073656e7420666f72207468652072604482015267195c185e5b595b9d60c21b6064820152608490fd5b818110613f94570390565b613f9c613d3c565b0390565b613fa8613daf565b603654909190613fc0906001600160a01b0316610325565b60408051639fb8afcd60e01b81526001600160a01b0384811660048301528716602482015291939192909190606084604481885afa9586156145bd575b60009182958398614586575b5083850197885260208085019687529284528451633faacc6b60e21b81526001600160a01b0382811660048301528a1660248201529280846044818b5afa938415614579575b60009461455a575b5060e0850193845273eeeeeeeeeeeeeeeeeeeeeeeeeeeeeeeeeeeeeeee6001600160a01b03838116918214606088019081529199909691948c919061409e8b511515613e28565b6140b96000198214938a851591829661454c575b5050613e86565b6140c68b51895190613f20565b92608085019380855281614542575b5061453a575b506140e96128ff8751151590565b801561452f575b6140f990613f2c565b8151875181111561434757505061411560a09151875190613f89565b9101818152603654909890614132906001600160a01b0316610325565b91865192818d51935114813b1561000e5760008f9161419a899183978f51998a988997889663da12d96f60e01b885260048801949196959260a0949160c0870198600180881b0380921688521660208701526040860152606085015260808401521515910152565b03925af1801561433a575b614327575b50835191826141f8575b50509451915196519351918252506020810195909552604085019190915242606085015233941692600080516020615e80833981519152915080608081015b0390a4565b603654939792949361421d90614216906001600160a01b0316610325565b9851151590565b60009015614321575084915b6035546004908290614243906001600160a01b0316610325565b8a51637744894b60e11b815292839182905afa918215614314575b6000926142f7575b5050883b1561000e57875163c7d1423760e01b81526001600160a01b0392831660048201523360248201526044810196909652166064850152600080516020615e80833981519152966141f3949160009183916084918391905af180156142ea575b6142d7575b81968394506141b4565b80610ff26142e4926131ee565b386142cd565b6142f2613262565b6142c8565b61430d9250803d1061047e5761046f818361322b565b3880614266565b61431c613262565b61425e565b91614229565b80610ff2614334926131ee565b386141aa565b614342613262565b6141a5565b92509293955093975089969951823b1561000e578a5163da12d96f60e01b81526001600160a01b0387811660048301528d1660248201526000604482018190526064820193909352608481019190915260a4810182905291829060c490829084905af18015614522575b61450f575b506036546143d7906143d0906001600160a01b0316610325565b9651151590565b6000901561450a575081515b825160355460049084906143ff906001600160a01b0316610325565b8c51637744894b60e11b815292839182905afa9384156144fd575b6000946144de575b5050873b1561000e57895163c7d1423760e01b81526001600160a01b0395861660048201528b861660248201526044810191909152919093166064820152600080516020615e80833981519152956141f3936000918391829081608481015b03925af180156144d1575b6144be575b50519251955192839233981696429184606091949392608082019560008352602083015260408201520152565b80610ff26144cb926131ee565b38614491565b6144d9613262565b61448c565b6144f5929450803d1061047e5761046f818361322b565b913880614422565b614505613262565b61441a565b6143e3565b80610ff261451c926131ee565b386143b6565b61452a613262565b6143b1565b5081513410156140f0565b8252386140db565b90508110386140d5565b9091501633148f8b906140b2565b816145729295503d8611610fd157610fc2818361322b565b9238614057565b614581613262565b61404f565b91955096506145ac915060603d81116145b6575b6145a4818361322b565b810190613e0d565b9490949638614009565b503d61459a565b6145c5613262565b613ffd565b9291926145d5613daf565b60368054909491906145ef906001600160a01b0316610325565b60408051639fb8afcd60e01b81526001600160a01b03868116600480840191909152908a16602483015292979295919489926060836044818d5afa998a15614dc5575b6000928394849c614d9b575b508888019b8c5260208881019586529388528851633faacc6b60e21b81526001600160a01b03808516828d01908152971687860152958490879081906040010381855afa958615614d8e575b600096614d6f575b5060e0880195865273eeeeeeeeeeeeeeeeeeeeeeeeeeeeeeeeeeeeeeee6001600160a01b0384811691821460608b01908152919c909991938f91906146d989511515613e28565b60001982149182158093614d64575b6146f190613e86565b6146fe8a518c5190613f20565b92608086019380855281614d5a575b50614d52575b506147216128ff8751151590565b8015614d47575b61473190613f2c565b8151908a51821115614bb35750509060a08f9261475190518b5190613f89565b93018381528a5490989061476d906001600160a01b0316610325565b90848b51945191511493823b1561000e578f8f6000968b9488946147d493519a8b998a98899763da12d96f60e01b89528801949196959260a0949160c0870198600180881b0380921688521660208701526040860152606085015260808401521515910152565b03925af18015614ba6575b614b93575b50855180614a76575b50865461480d90614806906001600160a01b0316610325565b9251151590565b60009015614a705750614821865134613f89565b915b855192813b1561000e578a516328fcf4d360e01b81526001600160a01b038616818e01908152336020820152604081019590955261488b9490926000928492839190829060600103925af18015614a63575b614a50575b50600052603f602052604060002090565b54946148c583876148a6610325603a5460018060a01b031690565b8b516331a9108f60e11b8152808e019283529384928391829160200190565b03915afa938415614a43575b600094614a1c575b5050546148ee906001600160a01b0316610325565b90835191803b1561000e57885163fa93b2a560e01b81526001600160a01b039283168b82019081529489169092166020850152604084019290925291600091839182908490829060600103925af18015614a0f575b6149fc575b50603a5461495e906001600160a01b0316610325565b803b1561000e5760006141f39461499e92600080516020615e8083398151915299838a51809681958294632890e0d760e01b845283019190602083019252565b03925af180156149ef575b6149dc575b5051905196519351938493339916974292859094939260609260808301968352602083015260408201520152565b80610ff26149e9926131ee565b386149ae565b6149f7613262565b6149a9565b80610ff2614a09926131ee565b38614948565b614a17613262565b614943565b6148ee9294506103259181614a3c92903d1061047e5761046f818361322b565b93916148d9565b614a4b613262565b6148d1565b80610ff2614a5d926131ee565b3861487a565b614a6b613262565b614875565b91614823565b8754614a8a906001600160a01b0316610325565b8b614a958551151590565b60009015614b8d575082915b60355488908e90614aba906001600160a01b0316610325565b9051637744894b60e11b815293849182905afa918215614b80575b600092614b61575b50803b1561000e57614b31936000938f8f519687958694859363c7d1423760e01b85528d339186019293606092919594608085019660018060a01b0393848092168752166020860152604085015216910152565b03925af18015614b54575b156147ed5780610ff2614b4e926131ee565b386147ed565b614b5c613262565b614b3c565b614b79919250883d8a1161047e5761046f818361322b565b9038614add565b614b88613262565b614ad5565b91614aa1565b80610ff2614ba0926131ee565b386147e4565b614bae613262565b6147df565b9450959c9699949750975050508b989b5191813b1561000e57614c499360008f8f948e838a614c2b6148069a6103259a519889978896879563da12d96f60e01b87528601909360009360a093969560c0840197600180871b038092168552166020840152846040840152606083015260808201520152565b03925af18015614d3a575b614d27575b50546001600160a01b031690565b60009015614d2157508251935b8351928282614c6f61032560355460018060a01b031690565b8d51637744894b60e11b815292839182905afa928315614d14575b600093614cf5575b5050803b1561000e578a5163c7d1423760e01b81526001600160a01b03998a16938101938452898d166020850152604084019490945297166060820152600080516020615e80833981519152966141f39460009284929183918290608001614481565b614d0c929350803d1061047e5761046f818361322b565b903880614c92565b614d1c613262565b614c8a565b93614c56565b80610ff2614d34926131ee565b38614c3b565b614d42613262565b614c36565b508151341015614728565b825238614713565b905081103861470d565b5033848e16146146e8565b614d87919650843d8611610fd157610fc2818361322b565b9438614692565b614d96613262565b61468a565b9193509a50614db991935060603d81116145b6576145a4818361322b565b93919290939a3861463e565b614dcd613262565b614632565b15614dd957565b60405162461bcd60e51b815260206004820152602a60248201527f5573657220646f6573206e6f74206861766520616e79206c69717569646974796044820152690819195c1bdcda5d195960b21b6064820152608490fd5b15614e3857565b60405162461bcd60e51b815260206004820152603060248201527f55736572206465706f73697420697320616c7265616479206265696e6720757360448201526f195908185cc818dbdb1b185d195c985b60821b6064820152608490fd5b60209067ffffffffffffffff8111614eb4575b601f01601f19160190565b614ebc6131d7565b614ea9565b3d15614eec573d90614ed282614e96565b91614ee0604051938461322b565b82523d6000602084013e565b606090565b15614ef857565b60405162461bcd60e51b815260206004820152601760248201527f4c69717569646174696f6e2063616c6c206661696c65640000000000000000006044820152606490fd5b918091926000905b828210614f5d575011614f56575050565b6000910152565b91508060209183015181860152018291614f45565b919060408382031261000e5782519260208101519067ffffffffffffffff821161000e570181601f8201121561000e578051614fad81614e96565b92614fbb604051948561322b565b8184526020828401011161000e5761066c9160208085019101614f3d565b90613f1c60209282815194859201614f3d565b9060209161500581518092818552858086019101614f3d565b601f01601f1916010190565b90602061066c928181520190614fec565b91908261014091031261000e5781519160208101519160408201519160608101519160808201519160a08101519160c08201519160e08101519161012061010083015192015161066c816102ac565b6037546040516328dd2d0160e01b81526001600160a01b0392831660048201529282166024840152670de0b6b3a7640000929161014091829184916044918391165afa91821561510b575b60009182936150e1575b50508181106150d457030490565b6150dc613d3c565b030490565b6150fb935080919250903d106107475761072f818361322b565b50505050505050509038806150c6565b615113613262565b6150bc565b60405190610140820182811067ffffffffffffffff821117615177575b604052816101206000918281528260208201528260408201528260608201528260808201528260a08201528260c08201528260e0820152826101008201520152565b61517f6131d7565b615135565b1561518b57565b60405162461bcd60e51b815260206004820152601b60248201527f496e76616c696420496e746572657374205261746520496e70757400000000006044820152606490fd5b156151d757565b60405162461bcd60e51b8152602060048201526014602482015273125b9d985b1a5908111d594811185d194814d95d60621b6044820152606490fd5b1561521a57565b60405162461bcd60e51b81526020600482015260506024820152600080516020615e6083398151915260448201527f61696c61626c6520696e20746865207265736572766520746f206d616b65206160648201526f08189bdc9c9bddc81c1c9bdc1bdcd85b60821b608482015260a490fd5b91908261010091031261000e5781519160208101519160408201519160608101516152b68161029b565b9160808201516152c5816102ac565b9160a08101516152d4816102ac565b9160e060c08301516152e5816102ac565b92015161066c816102ac565b604d8111615300575b600a0a90565b615308613d3c565b6152fa565b6040519061531a8261320f565b603382527202fb932b9b2b93b32aa37a137b93937bb901d1606d1b6040837f2020203d3e204c42504d203a72657365727665446563696d616c7320666f722060208201520152565b6040519061536f8261320f565b603a82527f6f72726f77416d6f756e744554482c20626f72726f774c5456200000000000006040837f2020203d3e204c42504d203a205f616d6f756e742c207265717565737465644260208201520152565b604051906153ce8261320f565b602e82526d037bb90283937b837b9b0b6101d160951b6040837f2020203d3e204c42504d203a20455448204e656564656420666f7220426f727260208201520152565b6040519061541e8261320f565b6035825274037b9102137b93937bb90283937b837b9b0b6101d1605d1b6040837f2020203d3e204c42504d203a20436f6c6c61746572616c204e6565646564206660208201520152565b1561546f57565b60405162461bcd60e51b815260206004820152603d60248201527f5468657265206973206e6f7420656e6f75676820636f6c6c61746572616c207460448201527f6f20636f7665722061206e657720626f72726f772070726f706f73616c0000006064820152608490fd5b604051906154e78261320f565b60338252720103137b93937bb90383937b837b9b0b6101d1606d1b6040837f2020203d3e204c42504d203a20426f72726f772046656520666f72207468697360208201520152565b6001906000198114613f14570190565b906101206008916155656155538251151590565b859060ff801983541691151516179055565b6020810151615599906001600160a01b03168554610100600160a81b03191660089190911b610100600160a81b0316178555565b60408101516001850180546001600160a01b039283166001600160a01b03199182161790915560608301516002870155608083015160038701805491909316911617905560a0810151600485015560c0810151600585015560e0810151600685015561010081015160078501550151910155565b90600861561861386e565b9261563f815461562d60ff8216879015159052565b831c6001600160a01b03166020860152565b60018101546001600160a01b031660408501526002810154606085015260038101546001600160a01b03166080850152600481015460a0850152600581015460c0850152600681015460e085015260078101546101008501520154610120830152565b156156a957565b60405162461bcd60e51b815260206004820152602b60248201527f4f6e6c792041637469766520426f72726f772050726f706f73616c2063616e2060448201526a1899481058d8d95c1d195960aa1b6064820152608490fd5b1561570957565b60405162461bcd60e51b8152602060048201526012602482015271125b9d985b1a59081c1c9bdc1bdcd85b125960721b6044820152606490fd5b1561574a57565b60405162461bcd60e51b815260206004820152602260248201527f4d6178696d756d203230303020697465726174696f6e207065722072657175656044820152611cdd60f21b6064820152608490fd5b60209067ffffffffffffffff81116157b4575b60051b0190565b6157bc6131d7565b6157ad565b906157cb8261579a565b6157d8604051918261322b565b82815280926157e9601f199161579a565b019060005b8281106157fa57505050565b602090615805615118565b828285010152016157ee565b80518210156158255760209160051b010190565b634e487b7160e01b600052603260045260246000fd5b604051906101c0820182811067ffffffffffffffff8211176158b6575b604052816101a06000918281528260208201528260408201528260608201528260808201528260a08201528260c08201528260e082015282610100820152826101208201528261014082015282610160820152826101808201520152565b6158be6131d7565b615858565b156158ca57565b60405162461bcd60e51b815260206004820152604e6024820152600080516020615e6083398151915260448201527f61696c61626c6520696e20746865207265736572766520746f206d616b65206160648201526d081b195b99081c1c9bdc1bdcd85b60921b608482015260a490fd5b604051906159478261320f565b604082527f656e64416d6f756e74496e5765692c20636f6c6c61746572616c4c5456203a206040837f2020203d3e204c42504d203a205f616d6f756e742c207265717565737465644c60208201520152565b156159a057565b60405162461bcd60e51b815260206004820152604960248201527f5468657265206973206e6f7420656e6f7567682062616c616e636520746f206c60448201527f656e6420696e206f7264657220746f20636f7665722061206e6577206c656e64606482015268081c1c9bdc1bdcd85b60ba1b608482015260a490fd5b60405190615a2a8261320f565b602f82526e032b73210383937b837b9b0b6101d1608d1b6040837f2020203d3e204c42504d203a204c656e642046656520666f722074686973206c60208201520152565b60405190615a7b8261320f565b603d82527f626c6520526573657276652042616c616e636520696e20576569203a200000006040837f2020203d3e204c42504d203a20757365722043757272656e7420417661696c6160208201520152565b15615ad457565b60a460405162461bcd60e51b815260206004820152604460248201527f4c656e64657220646f65736e2774206861766520656e6f75676820526573657260448201527f76652042616c616e636520746f2041636365707420426f72726f772050726f706064820152631bdcd85b60e21b6084820152fd5b60405190615b588261320f565b602d82526c01024b731b932b0b9b2b2101d1609d1b6040837f2020203d3e204c42504d203a205573657220426f72726f772042616c616e636560208201520152565b15615ba157565b60405162461bcd60e51b815260206004820152601960248201527f5b215d204c6f616e3a204c6f616e2069732065787069726564000000000000006044820152606490fd5b603654604051630283aeb760e11b81526001600160a01b0392831660048201529160209183916024918391165afa908115615c99575b600091615c7b575b5015615c2c57565b60405162461bcd60e51b815260206004820152602160248201527f416374696f6e20726571756972657320616e20616374697665207265736572766044820152606560f81b6064820152608490fd5b615c93915060203d81116112c6576112b7818361322b565b38615c24565b615ca1613262565b615c1c565b603654604051634a08accb60e01b81526001600160a01b0392831660048201529160209183916024918391165afa908115615d5a575b600091615d3c575b50615ceb57565b60405162461bcd60e51b8152602060048201526024808201527f416374696f6e20726571756972657320616e20756e667265657a6564207265736044820152636572766560e01b6064820152608490fd5b615d54915060203d81116112c6576112b7818361322b565b38615ce4565b615d62613262565b615cdc565b15615d6e57565b60405162461bcd60e51b815260206004820152601d60248201527f416d6f756e74206d7573742062652067726561746572207468616e20300000006044820152606490fd5b615df6615de29161345993604051938492632d839cb360e21b6020850152604060248501526064840190614fec565b90604483015203601f19810183528261322b565b600080916020815191016a636f6e736f6c652e6c6f675afa50565b615df69161345994615e419460405195869463a7a8785360e01b60208701526080602487015260a4860190614fec565b9260448501526064840152608483015203601f19810183528261322b56fe5468657265206973206e6f7420656e6f756768206c6971756964697479206176b718f0b14f03d8c3adf35b15e3da52421b042ac879e5a689011a8b1e0036773da264697066735822122086c7cb7561814061d9d60400b3a62beb0e45cc0f0f52d69c0bf7d4b6ba55cb1f64736f6c634300080d0033",
  "linkReferences": {},
  "deployedLinkReferences": {}
}