{
  "_format": "hh-sol-artifact-1",
  "contractName": "LendingBoardNFT",
  "sourceName": "contracts/lendingboard/LendingBoardNFT.sol",
  "abi": [
    {
      "inputs": [],
      "stateMutability": "nonpayable",
      "type": "constructor"
    },
    {
      "anonymous": false,
      "inputs": [
        {
          "indexed": true,
          "internalType": "address",
          "name": "owner",
          "type": "address"
        },
        {
          "indexed": true,
          "internalType": "address",
          "name": "approved",
          "type": "address"
        },
        {
          "indexed": true,
          "internalType": "uint256",
          "name": "tokenId",
          "type": "uint256"
        }
      ],
      "name": "Approval",
      "type": "event"
    },
    {
      "anonymous": false,
      "inputs": [
        {
          "indexed": true,
          "internalType": "address",
          "name": "owner",
          "type": "address"
        },
        {
          "indexed": true,
          "internalType": "address",
          "name": "operator",
          "type": "address"
        },
        {
          "indexed": false,
          "internalType": "bool",
          "name": "approved",
          "type": "bool"
        }
      ],
      "name": "ApprovalForAll",
      "type": "event"
    },
    {
      "anonymous": false,
      "inputs": [
        {
          "indexed": false,
          "internalType": "uint256",
          "name": "_fromTokenId",
          "type": "uint256"
        },
        {
          "indexed": false,
          "internalType": "uint256",
          "name": "_toTokenId",
          "type": "uint256"
        }
      ],
      "name": "BatchMetadataUpdate",
      "type": "event"
    },
    {
      "anonymous": false,
      "inputs": [
        {
          "indexed": false,
          "internalType": "uint256",
          "name": "_tokenId",
          "type": "uint256"
        }
      ],
      "name": "MetadataUpdate",
      "type": "event"
    },
    {
      "anonymous": false,
      "inputs": [
        {
          "indexed": true,
          "internalType": "address",
          "name": "previousOwner",
          "type": "address"
        },
        {
          "indexed": true,
          "internalType": "address",
          "name": "newOwner",
          "type": "address"
        }
      ],
      "name": "OwnershipTransferred",
      "type": "event"
    },
    {
      "anonymous": false,
      "inputs": [
        {
          "indexed": true,
          "internalType": "address",
          "name": "from",
          "type": "address"
        },
        {
          "indexed": true,
          "internalType": "address",
          "name": "to",
          "type": "address"
        },
        {
          "indexed": true,
          "internalType": "uint256",
          "name": "tokenId",
          "type": "uint256"
        }
      ],
      "name": "Transfer",
      "type": "event"
    },
    {
      "inputs": [
        {
          "internalType": "address",
          "name": "to",
          "type": "address"
        },
        {
          "internalType": "uint256",
          "name": "tokenId",
          "type": "uint256"
        }
      ],
      "name": "approve",
      "outputs": [],
      "stateMutability": "nonpayable",
      "type": "function"
    },
    {
      "inputs": [
        {
          "internalType": "address",
          "name": "owner",
          "type": "address"
        }
      ],
      "name": "balanceOf",
      "outputs": [
        {
          "internalType": "uint256",
          "name": "",
          "type": "uint256"
        }
      ],
      "stateMutability": "view",
      "type": "function"
    },
    {
      "inputs": [
        {
          "internalType": "uint256",
          "name": "tokenId",
          "type": "uint256"
        }
      ],
      "name": "burnNFT",
      "outputs": [],
      "stateMutability": "nonpayable",
      "type": "function"
    },
    {
      "inputs": [
        {
          "internalType": "uint256",
          "name": "tokenId",
          "type": "uint256"
        }
      ],
      "name": "getApproved",
      "outputs": [
        {
          "internalType": "address",
          "name": "",
          "type": "address"
        }
      ],
      "stateMutability": "view",
      "type": "function"
    },
    {
      "inputs": [
        {
          "internalType": "uint256",
          "name": "_tokenId",
          "type": "uint256"
        }
      ],
      "name": "getNFTmetadata",
      "outputs": [
        {
          "components": [
            {
              "internalType": "uint256",
              "name": "proposalId",
              "type": "uint256"
            },
            {
              "internalType": "address",
              "name": "borrower",
              "type": "address"
            },
            {
              "internalType": "uint256",
              "name": "amount",
              "type": "uint256"
            },
            {
              "internalType": "uint256",
              "name": "dueDate",
              "type": "uint256"
            },
            {
              "internalType": "uint256",
              "name": "contractTimestamp",
              "type": "uint256"
            },
            {
              "internalType": "uint256",
              "name": "interestRate",
              "type": "uint256"
            },
            {
              "internalType": "uint256",
              "name": "paybackAmount",
              "type": "uint256"
            }
          ],
          "internalType": "struct LendingBoardNFT.Metadata",
          "name": "",
          "type": "tuple"
        }
      ],
      "stateMutability": "view",
      "type": "function"
    },
    {
      "inputs": [
        {
          "internalType": "address",
          "name": "_user",
          "type": "address"
        }
      ],
      "name": "getUserTokenList",
      "outputs": [
        {
          "internalType": "uint256[]",
          "name": "",
          "type": "uint256[]"
        }
      ],
      "stateMutability": "view",
      "type": "function"
    },
    {
      "inputs": [
        {
          "internalType": "address",
          "name": "owner",
          "type": "address"
        },
        {
          "internalType": "address",
          "name": "operator",
          "type": "address"
        }
      ],
      "name": "isApprovedForAll",
      "outputs": [
        {
          "internalType": "bool",
          "name": "",
          "type": "bool"
        }
      ],
      "stateMutability": "view",
      "type": "function"
    },
    {
      "inputs": [
        {
          "internalType": "uint256",
          "name": "",
          "type": "uint256"
        }
      ],
      "name": "mappedNFT",
      "outputs": [
        {
          "internalType": "uint256",
          "name": "proposalId",
          "type": "uint256"
        },
        {
          "internalType": "address",
          "name": "borrower",
          "type": "address"
        },
        {
          "internalType": "uint256",
          "name": "amount",
          "type": "uint256"
        },
        {
          "internalType": "uint256",
          "name": "dueDate",
          "type": "uint256"
        },
        {
          "internalType": "uint256",
          "name": "contractTimestamp",
          "type": "uint256"
        },
        {
          "internalType": "uint256",
          "name": "interestRate",
          "type": "uint256"
        },
        {
          "internalType": "uint256",
          "name": "paybackAmount",
          "type": "uint256"
        }
      ],
      "stateMutability": "view",
      "type": "function"
    },
    {
      "inputs": [
        {
          "internalType": "address",
          "name": "_recipient",
          "type": "address"
        },
        {
          "internalType": "uint256",
          "name": "_proposalId",
          "type": "uint256"
        },
        {
          "internalType": "address",
          "name": "_borrower",
          "type": "address"
        },
        {
          "internalType": "uint256",
          "name": "_amount",
          "type": "uint256"
        },
        {
          "internalType": "uint256",
          "name": "_dueDate",
          "type": "uint256"
        },
        {
          "internalType": "uint256",
          "name": "_contractTimestamp",
          "type": "uint256"
        },
        {
          "internalType": "uint256",
          "name": "_interestRate",
          "type": "uint256"
        },
        {
          "internalType": "uint256",
          "name": "_paybackAmount",
          "type": "uint256"
        }
      ],
      "name": "mintNFT",
      "outputs": [
        {
          "internalType": "uint256",
          "name": "",
          "type": "uint256"
        }
      ],
      "stateMutability": "nonpayable",
      "type": "function"
    },
    {
      "inputs": [],
      "name": "name",
      "outputs": [
        {
          "internalType": "string",
          "name": "",
          "type": "string"
        }
      ],
      "stateMutability": "view",
      "type": "function"
    },
    {
      "inputs": [],
      "name": "owner",
      "outputs": [
        {
          "internalType": "address",
          "name": "",
          "type": "address"
        }
      ],
      "stateMutability": "view",
      "type": "function"
    },
    {
      "inputs": [
        {
          "internalType": "uint256",
          "name": "tokenId",
          "type": "uint256"
        }
      ],
      "name": "ownerOf",
      "outputs": [
        {
          "internalType": "address",
          "name": "",
          "type": "address"
        }
      ],
      "stateMutability": "view",
      "type": "function"
    },
    {
      "inputs": [],
      "name": "renounceOwnership",
      "outputs": [],
      "stateMutability": "nonpayable",
      "type": "function"
    },
    {
      "inputs": [
        {
          "internalType": "address",
          "name": "from",
          "type": "address"
        },
        {
          "internalType": "address",
          "name": "to",
          "type": "address"
        },
        {
          "internalType": "uint256",
          "name": "tokenId",
          "type": "uint256"
        }
      ],
      "name": "safeTransferFrom",
      "outputs": [],
      "stateMutability": "nonpayable",
      "type": "function"
    },
    {
      "inputs": [
        {
          "internalType": "address",
          "name": "from",
          "type": "address"
        },
        {
          "internalType": "address",
          "name": "to",
          "type": "address"
        },
        {
          "internalType": "uint256",
          "name": "tokenId",
          "type": "uint256"
        },
        {
          "internalType": "bytes",
          "name": "data",
          "type": "bytes"
        }
      ],
      "name": "safeTransferFrom",
      "outputs": [],
      "stateMutability": "nonpayable",
      "type": "function"
    },
    {
      "inputs": [
        {
          "internalType": "address",
          "name": "operator",
          "type": "address"
        },
        {
          "internalType": "bool",
          "name": "approved",
          "type": "bool"
        }
      ],
      "name": "setApprovalForAll",
      "outputs": [],
      "stateMutability": "nonpayable",
      "type": "function"
    },
    {
      "inputs": [
        {
          "internalType": "uint256",
          "name": "_tokenId",
          "type": "uint256"
        },
        {
          "internalType": "uint256",
          "name": "_proposalId",
          "type": "uint256"
        },
        {
          "internalType": "address",
          "name": "_borrower",
          "type": "address"
        },
        {
          "internalType": "uint256",
          "name": "_amount",
          "type": "uint256"
        },
        {
          "internalType": "uint256",
          "name": "_dueDate",
          "type": "uint256"
        },
        {
          "internalType": "uint256",
          "name": "_contractTimestamp",
          "type": "uint256"
        },
        {
          "internalType": "uint256",
          "name": "_interestRate",
          "type": "uint256"
        },
        {
          "internalType": "uint256",
          "name": "_paybackAmount",
          "type": "uint256"
        }
      ],
      "name": "setMetadataAndmappingNFTWithMetadata",
      "outputs": [],
      "stateMutability": "nonpayable",
      "type": "function"
    },
    {
      "inputs": [
        {
          "internalType": "bytes4",
          "name": "interfaceId",
          "type": "bytes4"
        }
      ],
      "name": "supportsInterface",
      "outputs": [
        {
          "internalType": "bool",
          "name": "",
          "type": "bool"
        }
      ],
      "stateMutability": "view",
      "type": "function"
    },
    {
      "inputs": [],
      "name": "symbol",
      "outputs": [
        {
          "internalType": "string",
          "name": "",
          "type": "string"
        }
      ],
      "stateMutability": "view",
      "type": "function"
    },
    {
      "inputs": [
        {
          "internalType": "uint256",
          "name": "index",
          "type": "uint256"
        }
      ],
      "name": "tokenByIndex",
      "outputs": [
        {
          "internalType": "uint256",
          "name": "",
          "type": "uint256"
        }
      ],
      "stateMutability": "view",
      "type": "function"
    },
    {
      "inputs": [
        {
          "internalType": "address",
          "name": "owner",
          "type": "address"
        },
        {
          "internalType": "uint256",
          "name": "index",
          "type": "uint256"
        }
      ],
      "name": "tokenOfOwnerByIndex",
      "outputs": [
        {
          "internalType": "uint256",
          "name": "",
          "type": "uint256"
        }
      ],
      "stateMutability": "view",
      "type": "function"
    },
    {
      "inputs": [
        {
          "internalType": "uint256",
          "name": "tokenId",
          "type": "uint256"
        }
      ],
      "name": "tokenURI",
      "outputs": [
        {
          "internalType": "string",
          "name": "",
          "type": "string"
        }
      ],
      "stateMutability": "view",
      "type": "function"
    },
    {
      "inputs": [],
      "name": "totalSupply",
      "outputs": [
        {
          "internalType": "uint256",
          "name": "",
          "type": "uint256"
        }
      ],
      "stateMutability": "view",
      "type": "function"
    },
    {
      "inputs": [
        {
          "internalType": "address",
          "name": "from",
          "type": "address"
        },
        {
          "internalType": "address",
          "name": "to",
          "type": "address"
        },
        {
          "internalType": "uint256",
          "name": "tokenId",
          "type": "uint256"
        }
      ],
      "name": "transferFrom",
      "outputs": [],
      "stateMutability": "nonpayable",
      "type": "function"
    },
    {
      "inputs": [
        {
          "internalType": "address",
          "name": "newOwner",
          "type": "address"
        }
      ],
      "name": "transferOwnership",
      "outputs": [],
      "stateMutability": "nonpayable",
      "type": "function"
    }
  ],
  "bytecode": "0x60806040523462000167576200001462000183565b60206713919508109bdb9960c21b8183015262000030620001b8565b6327232a2160e11b8282015282519091906001600160401b03811162000157575b6000916200006b82620000658554620001ed565b6200022a565b80601f8311600114620000c957508190620000a2958492620000bd575b50508160011b916000199060031b1c1916179055620002de565b620000ad33620003e0565b604051611f3290816200042f8239f35b01519050388062000088565b600080529194601f1986167f290decd9548b62a8d60345a988386fc84ba6bc95484008f6362f93160ef3e5639385905b8282106200013e575050916001939187620000a298941062000124575b505050811b019055620002de565b015160001960f88460031b161c1916905538808062000116565b80600186978294978701518155019601940190620000f9565b620001616200016c565b62000051565b600080fd5b50634e487b7160e01b600052604160045260246000fd5b60408051919082016001600160401b03811183821017620001a8575b60405260088252565b620001b26200016c565b6200019f565b60408051919082016001600160401b03811183821017620001dd575b60405260048252565b620001e76200016c565b620001d4565b90600182811c921680156200021f575b60208310146200020957565b634e487b7160e01b600052602260045260246000fd5b91607f1691620001fd565b601f811162000237575050565b60009081805260208220906020601f850160051c8301941062000277575b601f0160051c01915b8281106200026b57505050565b8181556001016200025e565b909250829062000255565b90601f821162000290575050565b60019160009083825260208220906020601f850160051c83019410620002d3575b601f0160051c01915b828110620002c85750505050565b8181558301620002ba565b9092508290620002b1565b80519091906001600160401b038111620003d0575b6001906200030d81620003078454620001ed565b62000282565b602080601f83116001146200034b5750819293946000926200033f575b5050600019600383901b1c191690821b179055565b0151905038806200032a565b6001600052601f198316959091907fb10e2d527612073b26eecdfd717e6a320cf44b4afac2b0732d9fcbe2b7fa0cf6926000905b888210620003b857505083859697106200039e575b505050811b019055565b015160001960f88460031b161c1916905538808062000394565b8087859682949686015181550195019301906200037f565b620003da6200016c565b620002f3565b600b80546001600160a01b039283166001600160a01b031982168117909255604051919216907f8be0079c531659141344cd1fd0a4f28419497f9722a3daafe3b4186f6b6457e090600090a356fe60806040526004361015610013575b600080fd5b60003560e01c806301ffc9a71461020757806306fdde03146101fe578063081812fc146101f5578063095ea7b3146101ec57806318160ddd146101e357806323b872dd146101da5780632890e0d7146101d15780632f745c59146101c857806342842e0e146101bf5780634f6ccce7146101b657806352d549f1146101ad57806354098092146101a45780636352211e1461019b5780636ee5a0c41461019257806370a0823114610189578063715018a61461018057806382d69beb146101775780638da5cb5b1461016e57806395d89b41146101655780639ec4fd9c1461015c578063a22cb46514610153578063b88d4fde1461014a578063c87b56dd14610141578063e985e9c5146101385763f2fde38b1461013057600080fd5b61000e611056565b5061000e610ff8565b5061000e610fc4565b5061000e610f3a565b5061000e610da4565b5061000e610c13565b5061000e610b6d565b5061000e610b43565b5061000e610b06565b5061000e610aa4565b5061000e610a80565b5061000e610a0a565b5061000e6109eb565b5061000e610937565b5061000e6107fc565b5061000e610750565b5061000e610727565b5061000e6106f7565b5061000e6105d6565b5061000e6105ac565b5061000e610558565b5061000e610481565b5061000e61040e565b5061000e610333565b5061000e610222565b6001600160e01b031981160361000e57565b503461000e57602036600319011261000e57602060043561024281610210565b63ffffffff60e01b1663780e9d6360e01b8114908115610268575b506040519015158152f35b632483248360e11b811491508115610282575b503861025d565b6380ac58cd60e01b8114915081156102b4575b81156102a3575b503861027b565b6301ffc9a760e01b1490503861029c565b635b5e139f60e01b81149150610295565b918091926000905b8282106102e55750116102de575050565b6000910152565b915080602091830151818601520182916102cd565b90602091610313815180928185528580860191016102c5565b601f01601f1916010190565b9060206103309281815201906102fa565b90565b503461000e5760008060031936011261040b576040519080805461035681611265565b808552916001918083169081156103ea5750600114610390575b61038c8561038081870382610eed565b6040519182918261031f565b0390f35b80809450527f290decd9548b62a8d60345a988386fc84ba6bc95484008f6362f93160ef3e5635b8284106103d25750505081016020016103808261038c610370565b805460208587018101919091529093019281016103b7565b60ff191660208701525050604084019250610380915083905061038c610370565b80fd5b503461000e57602036600319011261000e57602061042d600435611311565b6040516001600160a01b039091168152f35b600435906001600160a01b038216820361000e57565b604435906001600160a01b038216820361000e57565b602435906001600160a01b038216820361000e57565b503461000e57604036600319011261000e5761049b61043f565b6024356104a781611242565b916001600160a01b038084169082168114610509576104d9936104d49133149081156104db575b5061129f565b611697565b005b6001600160a01b0316600090815260056020908152604080832033845290915290205460ff169050386104ce565b60405162461bcd60e51b815260206004820152602160248201527f4552433732313a20617070726f76616c20746f2063757272656e74206f776e656044820152603960f91b6064820152608490fd5b503461000e57600036600319011261000e576020600954604051908152f35b606090600319011261000e576001600160a01b0390600435828116810361000e5791602435908116810361000e579060443590565b503461000e576104d96105be36610577565b916105d16105cc843361147e565b61134f565b611550565b503461000e57602036600319011261000e576004358060006105f782611242565b6001600160a01b0390838183161584146106e9576106159150611ca7565b61061e83611de7565b61062783611242565b61064e61063e856000526004602052604060002090565b80546001600160a01b0319169055565b6001600160a01b03811660009081526003602052604090208319815401905561068461063e856000526002602052604060002090565b167fddf252ad1be2c89b69c2b068fc378daa952ba7f163c4a11628f55a4df523b3ef82604051a46106c76106c2826000526006602052604060002090565b611a02565b6106cd57005b6106e46104d9916000526006602052604060002090565b611a0c565b6106f291611d20565b610615565b503461000e57604036600319011261000e57602061071f61071661043f565b60243590611974565b604051908152f35b503461000e576104d961073936610577565b906040519261074784610ed1565b600084526113e3565b503461000e57602036600319011261000e576004356009548110156107a25760096000527f6e1540171b6c0c960b71a7020d9f60077f6af931a8bbf590da0223dacf75c7af0154604051908152602090f35b60405162461bcd60e51b815260206004820152602c60248201527f455243373231456e756d657261626c653a20676c6f62616c20696e646578206f60448201526b7574206f6620626f756e647360a01b6064820152608490fd5b503461000e57602036600319011261000e5761038c60408060c0815161082181610ea8565b600091818380935282602082015282858201528260608201528260808201528260a082015201526004358152600d6020522090600681519261086284610ea8565b8054845260018101546001600160a01b031660208501526002810154838501526003810154606085015260048101546080850152600581015460a0850152015460c0830152519182918291909160c08060e08301948051845260018060a01b03602082015116602085015260408101516040850152606081015160608501526080810151608085015260a081015160a08501520151910152565b6020908160408183019282815285518094520193019160005b828110610923575050505090565b835185529381019392810192600101610915565b503461000e5760208060031936011261000e5761095261043f565b9061095c8261117f565b9061096682611936565b926109746040519485610eed565b828452601f1961098384611936565b01368386013760005b8381106109a1576040518061038c87826108fc565b806109ae60019284611974565b86518210156109de575b848260051b8801015260001981146109d1575b0161098c565b6109d961195d565b6109cb565b6109e6611836565b6109b8565b503461000e57602036600319011261000e57602061042d600435611242565b503461000e57602036600319011261000e57600435600052600d60205260e0604060002080549060018060a01b0360018201541690600281015460038201546004830154916006600585015494015494604051968752602087015260408601526060850152608084015260a083015260c0820152f35b503461000e57602036600319011261000e57602061071f610a9f61043f565b61117f565b503461000e5760008060031936011261040b57610abf611127565b600b80546001600160a01b031981169091556040519082906001600160a01b03167f8be0079c531659141344cd1fd0a4f28419497f9722a3daafe3b4186f6b6457e08284a3f35b503461000e5761010036600319011261000e576104d9610b24610455565b60e4359060c4359060a435906084359060643590602435600435611899565b503461000e57600036600319011261000e57600b546040516001600160a01b039091168152602090f35b503461000e5760008060031936011261040b5760405190806001805491610b9383611265565b808652928281169081156103ea5750600114610bb95761038c8561038081870382610eed565b92508083527fb10e2d527612073b26eecdfd717e6a320cf44b4afac2b0732d9fcbe2b7fa0cf65b828410610bfb5750505081016020016103808261038c610370565b80546020858701810191909152909301928101610be0565b503461000e5761010036600319011261000e57610c2e61043f565b610c36610455565b600c805460010190819055906001600160a01b038316908115610d605782610d5092610d0b61038c96610c8d610c88610c8486600052600260205260018060a01b0360406000205416151590565b1590565b61184d565b610c978482611be8565b600084815260026020526040902054610cb9906001600160a01b03161561184d565b6001600160a01b038116600090815260036020526040902060018154019055610cec846000526002602052604060002090565b80546001600160a01b0319166001600160a01b03909216919091179055565b60007fddf252ad1be2c89b69c2b068fc378daa952ba7f163c4a11628f55a4df523b3ef81604051a460e4359060c4359060a43590608435906064359060243588611899565b6040519081529081906020820190565b606460405162461bcd60e51b815260206004820152602060248201527f4552433732313a206d696e7420746f20746865207a65726f20616464726573736044820152fd5b503461000e57604036600319011261000e57610dbe61043f565b602435801515810361000e576001600160a01b03821691338314610e4c5781610e09610e1a9233600052600560205260406000209060018060a01b0316600052602052604060002090565b9060ff801983541691151516179055565b604051901515815233907f17307eab39ab6107e8899845ad3d59bd9653f200f220920489ca2b5937696c3190602090a3005b60405162461bcd60e51b815260206004820152601960248201527f4552433732313a20617070726f766520746f2063616c6c6572000000000000006044820152606490fd5b50634e487b7160e01b600052604160045260246000fd5b60e0810190811067ffffffffffffffff821117610ec457604052565b610ecc610e91565b604052565b6020810190811067ffffffffffffffff821117610ec457604052565b90601f8019910116810190811067ffffffffffffffff821117610ec457604052565b60209067ffffffffffffffff8111610f2d575b601f01601f19160190565b610f35610e91565b610f22565b503461000e57608036600319011261000e57610f5461043f565b610f5c61046b565b6064359167ffffffffffffffff831161000e573660238401121561000e57826004013591610f8983610f0f565b92610f976040519485610eed565b808452366024828701011161000e5760208160009260246104d998018388013785010152604435916113e3565b503461000e57602036600319011261000e5761038c610fe4600435611a81565b6040519182916020835260208301906102fa565b503461000e57604036600319011261000e57602060ff61104a61101961043f565b61102161046b565b6001600160a01b0391821660009081526005865260408082209290931681526020919091522090565b54166040519015158152f35b503461000e57602036600319011261000e5761107061043f565b611078611127565b6001600160a01b039081169081156110d357600091600b5491816bffffffffffffffffffffffff60a01b841617600b5560405192167f8be0079c531659141344cd1fd0a4f28419497f9722a3daafe3b4186f6b6457e08484a3f35b60405162461bcd60e51b815260206004820152602660248201527f4f776e61626c653a206e6577206f776e657220697320746865207a65726f206160448201526564647265737360d01b6064820152608490fd5b600b546001600160a01b0316330361113b57565b606460405162461bcd60e51b815260206004820152602060248201527f4f776e61626c653a2063616c6c6572206973206e6f7420746865206f776e65726044820152fd5b6001600160a01b0316801561119f57600052600360205260406000205490565b60405162461bcd60e51b815260206004820152602960248201527f4552433732313a2061646472657373207a65726f206973206e6f7420612076616044820152683634b21037bbb732b960b91b6064820152608490fd5b156111fd57565b60405162461bcd60e51b815260206004820152601860248201527f4552433732313a20696e76616c696420746f6b656e20494400000000000000006044820152606490fd5b6000908152600260205260409020546001600160a01b03166103308115156111f6565b90600182811c92168015611295575b602083101461127f57565b634e487b7160e01b600052602260045260246000fd5b91607f1691611274565b156112a657565b60405162461bcd60e51b815260206004820152603d60248201527f4552433732313a20617070726f76652063616c6c6572206973206e6f7420746f60448201527f6b656e206f776e6572206f7220617070726f76656420666f7220616c6c0000006064820152608490fd5b600081815260026020526040902054611334906001600160a01b031615156111f6565b6000908152600460205260409020546001600160a01b031690565b1561135657565b60405162461bcd60e51b815260206004820152602d60248201527f4552433732313a2063616c6c6572206973206e6f7420746f6b656e206f776e6560448201526c1c881bdc88185c1c1c9bdd9959609a1b6064820152608490fd5b604051906020820182811067ffffffffffffffff8211176113d6575b60405260008252565b6113de610e91565b6113cd565b906114079392916113f76105cc843361147e565b611402838383611550565b611773565b1561140e57565b60405162461bcd60e51b8152806114276004820161142b565b0390fd5b60809060208152603260208201527f4552433732313a207472616e7366657220746f206e6f6e20455243373231526560408201527131b2b4bb32b91034b6b83632b6b2b73a32b960711b60608201520190565b6001600160a01b038061149084611242565b1692818316928484149485156114c6575b505083156114b0575b50505090565b6114bc91929350611311565b16143880806114aa565b60009081526005602090815260408083206001600160a01b03949094168352929052205460ff16935038806114a1565b156114fd57565b60405162461bcd60e51b815260206004820152602560248201527f4552433732313a207472616e736665722066726f6d20696e636f72726563742060448201526437bbb732b960d91b6064820152608490fd5b6115749061155d84611242565b6001600160a01b03828116939091821684146114f6565b8316928315611646576115e28261158f878461161d96611c13565b6115b1856115ab61159f8a611242565b6001600160a01b031690565b146114f6565b6115c861063e886000526004602052604060002090565b6001600160a01b0316600090815260036020526040902090565b80546000190190556001600160a01b038116600090815260036020526040902060018154019055610cec856000526002602052604060002090565b7fddf252ad1be2c89b69c2b068fc378daa952ba7f163c4a11628f55a4df523b3ef6000604051a4565b60405162461bcd60e51b8152602060048201526024808201527f4552433732313a207472616e7366657220746f20746865207a65726f206164646044820152637265737360e01b6064820152608490fd5b600082815260046020526040902080546001600160a01b0319166001600160a01b0383161790556001600160a01b03806116d084611242565b169116907f8c5be1e5ebec7d5bd14f71427d1e84f3dd0314c0f7b2291e5b200ac8c7c3b9256000604051a4565b9081602091031261000e575161033081610210565b6001600160a01b039182168152911660208201526040810191909152608060608201819052610330929101906102fa565b3d1561176e573d9061175482610f0f565b916117626040519384610eed565b82523d6000602084013e565b606090565b92909190823b1561182d576117a6926020926000604051809681958294630a85bd0160e11b9a8b85523360048601611712565b03926001600160a01b03165af1600091816117fd575b506117ef576117c9611743565b805190816117ea5760405162461bcd60e51b8152806114276004820161142b565b602001fd5b6001600160e01b0319161490565b61181f91925060203d8111611826575b6118178183610eed565b8101906116fd565b90386117bc565b503d61180d565b50505050600190565b50634e487b7160e01b600052603260045260246000fd5b1561185457565b60405162461bcd60e51b815260206004820152601c60248201527f4552433732313a20746f6b656e20616c7265616479206d696e746564000000006044820152606490fd5b6006969492611918919896949298604051996118b48b610ea8565b8a526001600160a01b039182166020808c019182526040808d0196875260608d0197885260808d0198895260a08d01998a5260c08d019a8b526000938452600d90915290912099518a555160018a0180546001600160a01b03191691909216179055565b51600287015551600386015551600485015551600584015551910155565b60209067ffffffffffffffff8111611950575b60051b0190565b611958610e91565b611949565b50634e487b7160e01b600052601160045260246000fd5b61197d8161117f565b8210156119a95760018060a01b0316600052600760205260406000209060005260205260406000205490565b60405162461bcd60e51b815260206004820152602b60248201527f455243373231456e756d657261626c653a206f776e657220696e646578206f7560448201526a74206f6620626f756e647360a81b6064820152608490fd5b6103309054611265565b611a168154611265565b9081611a20575050565b601f8211600114611a335760009150555b565b600091818352601f60208420910160051c810160018092015b818110611a60575050508160208120915555565b8481558201611a4c565b90611a7d602092828151948592016102c5565b0190565b600081815260026020526040902054611aa4906001600160a01b031615156111f6565b6000908082526020600681526040832060405184819590835490611ac782611265565b80855294600192808416908115611b835750600114611b47575b505050611af092500384610eed565b611af86113b1565b92835115611b40578051611b125750506103309150611ba3565b6103309250611b3290611b2c604051958694850190611a6a565b90611a6a565b03601f198101835282610eed565b9250505090565b869350819291528282205b858310611b6b575050611af09350820101388080611ae1565b8054838a018501528894508693909201918101611b52565b965050505050505060ff191681840152611af08360408101388080611ae1565b600090815260026020526040902054611bc6906001600160a01b031615156111f6565b6000604051611bd481610ed1565b52604051611be181610ed1565b6000815290565b90611bf281611ca7565b6001600160a01b038216611c0a57611a319150611de7565b611a3191611c6f565b9091906001600160a01b038082169182611c4d5750611c3183611ca7565b831680611c44575050611a319150611de7565b03611c0a575050565b838286168403611c5f575b5050611c31565b611c6891611d20565b3883611c58565b604090611c7b8161117f565b9260009160018060a01b0316825260076020528282208483526020528083832055815260086020522055565b60095481600052600a6020528060406000205568010000000000000000811015611d13575b6001810180600955811015611d06575b60096000527f6e1540171b6c0c960b71a7020d9f60077f6af931a8bbf590da0223dacf75c7af0155565b611d0e611836565b611cdc565b611d1b610e91565b611ccc565b90611d85611d6a92611d318161117f565b60018110611dda575b6000190192600094818692835260086020526040832054868103611d92575b506000526008602052604060002090565b556001600160a01b0316600090815260076020526040902090565b9082526020526040812055565b6001600160a01b0385168085526007602081815260408088208b8952825280882054600094855292825280842085895282528088208390559183526008905290205538611d59565b611de261195d565b611d3a565b6009805460018110611eef575b600090838252600a60205281611e9660408220549560001996848881011015611ee2575b868452611e857f6e1540171b6c0c960b71a7020d9f60077f6af931a8bbf590da0223dacf75c7ae958681015490831015611ed5575b88865280837f6e1540171b6c0c960b71a7020d9f60077f6af931a8bbf590da0223dacf75c7af0155600052600a602052604060002090565b55600052600a602052604060002090565b558254938415611ec15784019380851015611eb4575b838352015555565b611ebc611836565b611eac565b634e487b7160e01b83526031600452602483fd5b611edd611836565b611e4d565b611eea611836565b611e18565b611ef761195d565b611df456fea26469706673582212209e115cfb8c6052b457f2af7aebe8f0d2c99659d8e2066df8f332cea542f3033764736f6c634300080d0033",
  "linkReferences": {},
  "deployedLinkReferences": {}
}