{
  "_format": "hh-sol-artifact-1",
  "contractName": "LendingBoardNFT",
  "sourceName": "contracts/lendingboard/LendingBoardNFT.sol",
  "abi": [
    {
      "inputs": [],
      "stateMutability": "nonpayable",
      "type": "constructor"
    },
    {
      "anonymous": false,
      "inputs": [
        {
          "indexed": true,
          "internalType": "address",
          "name": "owner",
          "type": "address"
        },
        {
          "indexed": true,
          "internalType": "address",
          "name": "approved",
          "type": "address"
        },
        {
          "indexed": true,
          "internalType": "uint256",
          "name": "tokenId",
          "type": "uint256"
        }
      ],
      "name": "Approval",
      "type": "event"
    },
    {
      "anonymous": false,
      "inputs": [
        {
          "indexed": true,
          "internalType": "address",
          "name": "owner",
          "type": "address"
        },
        {
          "indexed": true,
          "internalType": "address",
          "name": "operator",
          "type": "address"
        },
        {
          "indexed": false,
          "internalType": "bool",
          "name": "approved",
          "type": "bool"
        }
      ],
      "name": "ApprovalForAll",
      "type": "event"
    },
    {
      "anonymous": false,
      "inputs": [
        {
          "indexed": false,
          "internalType": "uint256",
          "name": "_fromTokenId",
          "type": "uint256"
        },
        {
          "indexed": false,
          "internalType": "uint256",
          "name": "_toTokenId",
          "type": "uint256"
        }
      ],
      "name": "BatchMetadataUpdate",
      "type": "event"
    },
    {
      "anonymous": false,
      "inputs": [
        {
          "indexed": false,
          "internalType": "uint256",
          "name": "_tokenId",
          "type": "uint256"
        }
      ],
      "name": "MetadataUpdate",
      "type": "event"
    },
    {
      "anonymous": false,
      "inputs": [
        {
          "indexed": true,
          "internalType": "address",
          "name": "previousOwner",
          "type": "address"
        },
        {
          "indexed": true,
          "internalType": "address",
          "name": "newOwner",
          "type": "address"
        }
      ],
      "name": "OwnershipTransferred",
      "type": "event"
    },
    {
      "anonymous": false,
      "inputs": [
        {
          "indexed": true,
          "internalType": "address",
          "name": "from",
          "type": "address"
        },
        {
          "indexed": true,
          "internalType": "address",
          "name": "to",
          "type": "address"
        },
        {
          "indexed": true,
          "internalType": "uint256",
          "name": "tokenId",
          "type": "uint256"
        }
      ],
      "name": "Transfer",
      "type": "event"
    },
    {
      "inputs": [
        {
          "internalType": "address",
          "name": "to",
          "type": "address"
        },
        {
          "internalType": "uint256",
          "name": "tokenId",
          "type": "uint256"
        }
      ],
      "name": "approve",
      "outputs": [],
      "stateMutability": "nonpayable",
      "type": "function"
    },
    {
      "inputs": [
        {
          "internalType": "address",
          "name": "owner",
          "type": "address"
        }
      ],
      "name": "balanceOf",
      "outputs": [
        {
          "internalType": "uint256",
          "name": "",
          "type": "uint256"
        }
      ],
      "stateMutability": "view",
      "type": "function"
    },
    {
      "inputs": [
        {
          "internalType": "uint256",
          "name": "tokenId",
          "type": "uint256"
        }
      ],
      "name": "getApproved",
      "outputs": [
        {
          "internalType": "address",
          "name": "",
          "type": "address"
        }
      ],
      "stateMutability": "view",
      "type": "function"
    },
    {
      "inputs": [
        {
          "internalType": "uint256",
          "name": "tokenId",
          "type": "uint256"
        }
      ],
      "name": "getNFTInfos",
      "outputs": [
        {
          "internalType": "string",
          "name": "",
          "type": "string"
        }
      ],
      "stateMutability": "view",
      "type": "function"
    },
    {
      "inputs": [
        {
          "internalType": "address",
          "name": "owner",
          "type": "address"
        },
        {
          "internalType": "address",
          "name": "operator",
          "type": "address"
        }
      ],
      "name": "isApprovedForAll",
      "outputs": [
        {
          "internalType": "bool",
          "name": "",
          "type": "bool"
        }
      ],
      "stateMutability": "view",
      "type": "function"
    },
    {
      "inputs": [
        {
          "internalType": "address",
          "name": "recipient",
          "type": "address"
        },
        {
          "internalType": "string",
          "name": "tokenURI",
          "type": "string"
        }
      ],
      "name": "mintNFT",
      "outputs": [
        {
          "internalType": "uint256",
          "name": "",
          "type": "uint256"
        }
      ],
      "stateMutability": "nonpayable",
      "type": "function"
    },
    {
      "inputs": [],
      "name": "name",
      "outputs": [
        {
          "internalType": "string",
          "name": "",
          "type": "string"
        }
      ],
      "stateMutability": "view",
      "type": "function"
    },
    {
      "inputs": [],
      "name": "owner",
      "outputs": [
        {
          "internalType": "address",
          "name": "",
          "type": "address"
        }
      ],
      "stateMutability": "view",
      "type": "function"
    },
    {
      "inputs": [
        {
          "internalType": "uint256",
          "name": "tokenId",
          "type": "uint256"
        }
      ],
      "name": "ownerOf",
      "outputs": [
        {
          "internalType": "address",
          "name": "",
          "type": "address"
        }
      ],
      "stateMutability": "view",
      "type": "function"
    },
    {
      "inputs": [],
      "name": "renounceOwnership",
      "outputs": [],
      "stateMutability": "nonpayable",
      "type": "function"
    },
    {
      "inputs": [
        {
          "internalType": "address",
          "name": "from",
          "type": "address"
        },
        {
          "internalType": "address",
          "name": "to",
          "type": "address"
        },
        {
          "internalType": "uint256",
          "name": "tokenId",
          "type": "uint256"
        }
      ],
      "name": "safeTransferFrom",
      "outputs": [],
      "stateMutability": "nonpayable",
      "type": "function"
    },
    {
      "inputs": [
        {
          "internalType": "address",
          "name": "from",
          "type": "address"
        },
        {
          "internalType": "address",
          "name": "to",
          "type": "address"
        },
        {
          "internalType": "uint256",
          "name": "tokenId",
          "type": "uint256"
        },
        {
          "internalType": "bytes",
          "name": "data",
          "type": "bytes"
        }
      ],
      "name": "safeTransferFrom",
      "outputs": [],
      "stateMutability": "nonpayable",
      "type": "function"
    },
    {
      "inputs": [
        {
          "internalType": "address",
          "name": "operator",
          "type": "address"
        },
        {
          "internalType": "bool",
          "name": "approved",
          "type": "bool"
        }
      ],
      "name": "setApprovalForAll",
      "outputs": [],
      "stateMutability": "nonpayable",
      "type": "function"
    },
    {
      "inputs": [
        {
          "internalType": "bytes4",
          "name": "interfaceId",
          "type": "bytes4"
        }
      ],
      "name": "supportsInterface",
      "outputs": [
        {
          "internalType": "bool",
          "name": "",
          "type": "bool"
        }
      ],
      "stateMutability": "view",
      "type": "function"
    },
    {
      "inputs": [],
      "name": "symbol",
      "outputs": [
        {
          "internalType": "string",
          "name": "",
          "type": "string"
        }
      ],
      "stateMutability": "view",
      "type": "function"
    },
    {
      "inputs": [
        {
          "internalType": "uint256",
          "name": "tokenId",
          "type": "uint256"
        }
      ],
      "name": "tokenURI",
      "outputs": [
        {
          "internalType": "string",
          "name": "",
          "type": "string"
        }
      ],
      "stateMutability": "view",
      "type": "function"
    },
    {
      "inputs": [
        {
          "internalType": "address",
          "name": "from",
          "type": "address"
        },
        {
          "internalType": "address",
          "name": "to",
          "type": "address"
        },
        {
          "internalType": "uint256",
          "name": "tokenId",
          "type": "uint256"
        }
      ],
      "name": "transferFrom",
      "outputs": [],
      "stateMutability": "nonpayable",
      "type": "function"
    },
    {
      "inputs": [
        {
          "internalType": "address",
          "name": "newOwner",
          "type": "address"
        }
      ],
      "name": "transferOwnership",
      "outputs": [],
      "stateMutability": "nonpayable",
      "type": "function"
    }
  ],
  "bytecode": "0x60806040523462000167576200001462000183565b60206713919508109bdb9960c21b8183015262000030620001b8565b6327232a2160e11b8282015282519091906001600160401b03811162000157575b6000916200006b82620000658554620001ed565b6200022a565b80601f8311600114620000c957508190620000a2958492620000bd575b50508160011b916000199060031b1c1916179055620002de565b620000ad33620003e0565b6040516116d790816200042f8239f35b01519050388062000088565b600080529194601f1986167f290decd9548b62a8d60345a988386fc84ba6bc95484008f6362f93160ef3e5639385905b8282106200013e575050916001939187620000a298941062000124575b505050811b019055620002de565b015160001960f88460031b161c1916905538808062000116565b80600186978294978701518155019601940190620000f9565b620001616200016c565b62000051565b600080fd5b50634e487b7160e01b600052604160045260246000fd5b60408051919082016001600160401b03811183821017620001a8575b60405260088252565b620001b26200016c565b6200019f565b60408051919082016001600160401b03811183821017620001dd575b60405260048252565b620001e76200016c565b620001d4565b90600182811c921680156200021f575b60208310146200020957565b634e487b7160e01b600052602260045260246000fd5b91607f1691620001fd565b601f811162000237575050565b60009081805260208220906020601f850160051c8301941062000277575b601f0160051c01915b8281106200026b57505050565b8181556001016200025e565b909250829062000255565b90601f821162000290575050565b60019160009083825260208220906020601f850160051c83019410620002d3575b601f0160051c01915b828110620002c85750505050565b8181558301620002ba565b9092508290620002b1565b80519091906001600160401b038111620003d0575b6001906200030d81620003078454620001ed565b62000282565b602080601f83116001146200034b5750819293946000926200033f575b5050600019600383901b1c191690821b179055565b0151905038806200032a565b6001600052601f198316959091907fb10e2d527612073b26eecdfd717e6a320cf44b4afac2b0732d9fcbe2b7fa0cf6926000905b888210620003b857505083859697106200039e575b505050811b019055565b015160001960f88460031b161c1916905538808062000394565b8087859682949686015181550195019301906200037f565b620003da6200016c565b620002f3565b600780546001600160a01b039283166001600160a01b031982168117909255604051919216907f8be0079c531659141344cd1fd0a4f28419497f9722a3daafe3b4186f6b6457e090600090a356fe60806040526004361015610013575b600080fd5b60003560e01c806301ffc9a71461017257806306fdde0314610169578063081812fc14610160578063095ea7b31461015757806323b872dd1461014e57806342842e0e146101455780636352211e1461013c57806370a0823114610133578063715018a61461012a5780638da5cb5b1461012157806395d89b41146101185780639b32e898146100fd578063a22cb4651461010f578063b88d4fde14610106578063c87b56dd146100fd578063e985e9c5146100f4578063eacabe14146100eb5763f2fde38b146100e357600080fd5b61000e610b4a565b5061000e6109b2565b5061000e610954565b5061000e61070e565b5061000e6108f3565b5061000e610742565b5061000e610668565b5061000e61063e565b5061000e6105dc565b5061000e61053a565b5061000e61051b565b5061000e6104f2565b5061000e6104c8565b5061000e6103bc565b5061000e61035f565b5061000e610284565b5061000e61018d565b6001600160e01b031981160361000e57565b503461000e57602036600319011261000e5760206004356101ad8161017b565b63ffffffff60e01b16632483248360e11b81149081156101d3575b506040519015158152f35b6380ac58cd60e01b811491508115610205575b81156101f4575b50386101c8565b6301ffc9a760e01b149050386101ed565b635b5e139f60e01b811491506101e6565b918091926000905b82821061023657501161022f575050565b6000910152565b9150806020918301518186015201829161021e565b9060209161026481518092818552858086019101610216565b601f01601f1916010190565b90602061028192818152019061024b565b90565b503461000e5760008060031936011261035c57604051908080546102a781610ce2565b8085529160019180831690811561033b57506001146102e1575b6102dd856102d18187038261086f565b60405191829182610270565b0390f35b80809450527f290decd9548b62a8d60345a988386fc84ba6bc95484008f6362f93160ef3e5635b8284106103235750505081016020016102d1826102dd6102c1565b80546020858701810191909152909301928101610308565b60ff1916602087015250506040840192506102d191508390506102dd6102c1565b80fd5b503461000e57602036600319011261000e57602061037e600435610d8e565b6040516001600160a01b039091168152f35b600435906001600160a01b038216820361000e57565b602435906001600160a01b038216820361000e57565b503461000e57604036600319011261000e576103d6610390565b6024356103e281610cbf565b916001600160a01b038084169082168114610444576104149361040f913314908115610416575b50610d1c565b611119565b005b6001600160a01b0316600090815260056020908152604080832033845290915290205460ff16905038610409565b60405162461bcd60e51b815260206004820152602160248201527f4552433732313a20617070726f76616c20746f2063757272656e74206f776e656044820152603960f91b6064820152608490fd5b606090600319011261000e576001600160a01b0390600435828116810361000e5791602435908116810361000e579060443590565b503461000e576104146104da36610493565b916104ed6104e88433610efb565b610dcc565b610fcd565b503461000e5761041461050436610493565b906040519261051284610846565b60008452610e60565b503461000e57602036600319011261000e57602061037e600435610cbf565b503461000e57602036600319011261000e576001600160a01b0361055c610390565b1680156105855760005260036020526102dd604060002054604051918291829190602083019252565b60405162461bcd60e51b815260206004820152602960248201527f4552433732313a2061646472657373207a65726f206973206e6f7420612076616044820152683634b21037bbb732b960b91b6064820152608490fd5b503461000e5760008060031936011261035c576105f7610c1b565b600780546001600160a01b031981169091556040519082906001600160a01b03167f8be0079c531659141344cd1fd0a4f28419497f9722a3daafe3b4186f6b6457e08284a3f35b503461000e57600036600319011261000e576007546040516001600160a01b039091168152602090f35b503461000e5760008060031936011261035c576040519080600180549161068e83610ce2565b8086529282811690811561033b57506001146106b4576102dd856102d18187038261086f565b92508083527fb10e2d527612073b26eecdfd717e6a320cf44b4afac2b0732d9fcbe2b7fa0cf65b8284106106f65750505081016020016102d1826102dd6102c1565b805460208587018101919091529093019281016106db565b503461000e57602036600319011261000e576102dd61072e6004356112cf565b60405191829160208352602083019061024b565b503461000e57604036600319011261000e5761075c610390565b602435801515810361000e576001600160a01b038216913383146107ea57816107a76107b89233600052600560205260406000209060018060a01b0316600052602052604060002090565b9060ff801983541691151516179055565b604051901515815233907f17307eab39ab6107e8899845ad3d59bd9653f200f220920489ca2b5937696c3190602090a3005b60405162461bcd60e51b815260206004820152601960248201527f4552433732313a20617070726f766520746f2063616c6c6572000000000000006044820152606490fd5b50634e487b7160e01b600052604160045260246000fd5b6020810190811067ffffffffffffffff82111761086257604052565b61086a61082f565b604052565b90601f8019910116810190811067ffffffffffffffff82111761086257604052565b60209067ffffffffffffffff81116108af575b601f01601f19160190565b6108b761082f565b6108a4565b9291926108c882610891565b916108d6604051938461086f565b82948184528183011161000e578281602093846000960137010152565b503461000e57608036600319011261000e5761090d610390565b6109156103a6565b6064359167ffffffffffffffff831161000e573660238401121561000e5761094a6104149336906024816004013591016108bc565b9160443591610e60565b503461000e57604036600319011261000e57602060ff6109a6610975610390565b61097d6103a6565b6001600160a01b0391821660009081526005865260408082209290931681526020919091522090565b54166040519015158152f35b503461000e57604036600319011261000e576109cc610390565b60243567ffffffffffffffff811161000e573660238201121561000e576109fd9036906024816004013591016108bc565b6008805460010190819055906001600160a01b038316908115610b065782610af692610ac86102dd96610a54610a4f610a4b86600052600260205260018060a01b0360406000205416151590565b1590565b611436565b600084815260026020526040902054610a76906001600160a01b031615611436565b6001600160a01b038116600090815260036020526040902060018154019055610aa9846000526002602052604060002090565b80546001600160a01b0319166001600160a01b03909216919091179055565b60007fddf252ad1be2c89b69c2b068fc378daa952ba7f163c4a11628f55a4df523b3ef81604051a4826114d6565b6040519081529081906020820190565b606460405162461bcd60e51b815260206004820152602060248201527f4552433732313a206d696e7420746f20746865207a65726f20616464726573736044820152fd5b503461000e57602036600319011261000e57610b64610390565b610b6c610c1b565b6001600160a01b03908116908115610bc75760009160075491816bffffffffffffffffffffffff60a01b84161760075560405192167f8be0079c531659141344cd1fd0a4f28419497f9722a3daafe3b4186f6b6457e08484a3f35b60405162461bcd60e51b815260206004820152602660248201527f4f776e61626c653a206e6577206f776e657220697320746865207a65726f206160448201526564647265737360d01b6064820152608490fd5b6007546001600160a01b03163303610c2f57565b606460405162461bcd60e51b815260206004820152602060248201527f4f776e61626c653a2063616c6c6572206973206e6f7420746865206f776e65726044820152fd5b15610c7a57565b60405162461bcd60e51b815260206004820152601860248201527f4552433732313a20696e76616c696420746f6b656e20494400000000000000006044820152606490fd5b6000908152600260205260409020546001600160a01b0316610281811515610c73565b90600182811c92168015610d12575b6020831014610cfc57565b634e487b7160e01b600052602260045260246000fd5b91607f1691610cf1565b15610d2357565b60405162461bcd60e51b815260206004820152603d60248201527f4552433732313a20617070726f76652063616c6c6572206973206e6f7420746f60448201527f6b656e206f776e6572206f7220617070726f76656420666f7220616c6c0000006064820152608490fd5b600081815260026020526040902054610db1906001600160a01b03161515610c73565b6000908152600460205260409020546001600160a01b031690565b15610dd357565b60405162461bcd60e51b815260206004820152602d60248201527f4552433732313a2063616c6c6572206973206e6f7420746f6b656e206f776e6560448201526c1c881bdc88185c1c1c9bdd9959609a1b6064820152608490fd5b604051906020820182811067ffffffffffffffff821117610e53575b60405260008252565b610e5b61082f565b610e4a565b90610e84939291610e746104e88433610efb565b610e7f838383610fcd565b6111f5565b15610e8b57565b60405162461bcd60e51b815280610ea460048201610ea8565b0390fd5b60809060208152603260208201527f4552433732313a207472616e7366657220746f206e6f6e20455243373231526560408201527131b2b4bb32b91034b6b83632b6b2b73a32b960711b60608201520190565b6001600160a01b0380610f0d84610cbf565b169281831692848414948515610f43575b50508315610f2d575b50505090565b610f3991929350610d8e565b1614388080610f27565b60009081526005602090815260408083206001600160a01b03949094168352929052205460ff1693503880610f1e565b15610f7a57565b60405162461bcd60e51b815260206004820152602560248201527f4552433732313a207472616e736665722066726f6d20696e636f72726563742060448201526437bbb732b960d91b6064820152608490fd5b610ff190610fda84610cbf565b6001600160a01b0382811693909182168414610f73565b83169283156110c85761106461109f926110238561101d6110118a610cbf565b6001600160a01b031690565b14610f73565b61104a61103a886000526004602052604060002090565b80546001600160a01b0319169055565b6001600160a01b0316600090815260036020526040902090565b80546000190190556001600160a01b038116600090815260036020526040902060018154019055610aa9856000526002602052604060002090565b7fddf252ad1be2c89b69c2b068fc378daa952ba7f163c4a11628f55a4df523b3ef6000604051a4565b60405162461bcd60e51b8152602060048201526024808201527f4552433732313a207472616e7366657220746f20746865207a65726f206164646044820152637265737360e01b6064820152608490fd5b600082815260046020526040902080546001600160a01b0319166001600160a01b0383161790556001600160a01b038061115284610cbf565b169116907f8c5be1e5ebec7d5bd14f71427d1e84f3dd0314c0f7b2291e5b200ac8c7c3b9256000604051a4565b9081602091031261000e57516102818161017b565b6001600160a01b0391821681529116602082015260408101919091526080606082018190526102819291019061024b565b3d156111f0573d906111d682610891565b916111e4604051938461086f565b82523d6000602084013e565b606090565b92909190823b156112af57611228926020926000604051809681958294630a85bd0160e11b9a8b85523360048601611194565b03926001600160a01b03165af16000918161127f575b506112715761124b6111c5565b8051908161126c5760405162461bcd60e51b815280610ea460048201610ea8565b602001fd5b6001600160e01b0319161490565b6112a191925060203d81116112a8575b611299818361086f565b81019061117f565b903861123e565b503d61128f565b50505050600190565b906112cb60209282815194859201610216565b0190565b6000818152600260205260409020546112f2906001600160a01b03161515610c73565b600090808252602060068152604083206040518481959083549061131582610ce2565b808552946001928084169081156113d15750600114611395575b50505061133e9250038461086f565b611346610e2e565b9283511561138e57805161136057505061028191506113f1565b61028192506113809061137a6040519586948501906112b8565b906112b8565b03601f19810183528261086f565b9250505090565b869350819291528282205b8583106113b957505061133e935082010138808061132f565b8054838a0185015288945086939092019181016113a0565b965050505050505060ff19168184015261133e836040810138808061132f565b600090815260026020526040902054611414906001600160a01b03161515610c73565b600060405161142281610846565b5260405161142f81610846565b6000815290565b1561143d57565b60405162461bcd60e51b815260206004820152601c60248201527f4552433732313a20746f6b656e20616c7265616479206d696e746564000000006044820152606490fd5b90601f811161149057505050565b600091825260208220906020601f850160051c830194106114cc575b601f0160051c01915b8281106114c157505050565b8181556001016114b5565b90925082906114ac565b6000818152600260205260409020549192916001600160a01b031615611645578060005260206006815260406000209084519067ffffffffffffffff8211611638575b61152d826115278554610ce2565b85611482565b80601f83116001146115a1575090806115919493927ff8e1a15aba9398e019f0b49df1a4fde98ee17ae345cb5f6b5e2c27f5033e8ce79697600092611596575b50508160011b916000199060031b1c19161790556040519081529081906020820190565b0390a1565b01519050388061156d565b90601f198316966115b785600052602060002090565b926000905b8982106116205750509183916001936115919796957ff8e1a15aba9398e019f0b49df1a4fde98ee17ae345cb5f6b5e2c27f5033e8ce7999a10611607575b505050811b019055610af6565b015160001960f88460031b161c191690553880806115fa565b806001859682949686015181550195019301906115bc565b61164061082f565b611519565b60405162461bcd60e51b815260206004820152602e60248201527f45524337323155524953746f726167653a2055524920736574206f66206e6f6e60448201526d32bc34b9ba32b73a103a37b5b2b760911b6064820152608490fdfea26469706673582212206ca98c591e4191e960c75d21ba2478fdbf1b833077ab5638b2743104ceae4e5f64736f6c634300080d0033",
  "linkReferences": {},
  "deployedLinkReferences": {}
}