{
  "_format": "hh-sol-artifact-1",
  "contractName": "LendingBoardNFT",
  "sourceName": "contracts/lendingboard/LendingBoardNFT.sol",
  "abi": [
    {
      "inputs": [],
      "stateMutability": "nonpayable",
      "type": "constructor"
    },
    {
      "anonymous": false,
      "inputs": [
        {
          "indexed": true,
          "internalType": "address",
          "name": "owner",
          "type": "address"
        },
        {
          "indexed": true,
          "internalType": "address",
          "name": "approved",
          "type": "address"
        },
        {
          "indexed": true,
          "internalType": "uint256",
          "name": "tokenId",
          "type": "uint256"
        }
      ],
      "name": "Approval",
      "type": "event"
    },
    {
      "anonymous": false,
      "inputs": [
        {
          "indexed": true,
          "internalType": "address",
          "name": "owner",
          "type": "address"
        },
        {
          "indexed": true,
          "internalType": "address",
          "name": "operator",
          "type": "address"
        },
        {
          "indexed": false,
          "internalType": "bool",
          "name": "approved",
          "type": "bool"
        }
      ],
      "name": "ApprovalForAll",
      "type": "event"
    },
    {
      "anonymous": false,
      "inputs": [
        {
          "indexed": false,
          "internalType": "uint256",
          "name": "_fromTokenId",
          "type": "uint256"
        },
        {
          "indexed": false,
          "internalType": "uint256",
          "name": "_toTokenId",
          "type": "uint256"
        }
      ],
      "name": "BatchMetadataUpdate",
      "type": "event"
    },
    {
      "anonymous": false,
      "inputs": [
        {
          "indexed": false,
          "internalType": "uint256",
          "name": "_tokenId",
          "type": "uint256"
        }
      ],
      "name": "MetadataUpdate",
      "type": "event"
    },
    {
      "anonymous": false,
      "inputs": [
        {
          "indexed": true,
          "internalType": "address",
          "name": "previousOwner",
          "type": "address"
        },
        {
          "indexed": true,
          "internalType": "address",
          "name": "newOwner",
          "type": "address"
        }
      ],
      "name": "OwnershipTransferred",
      "type": "event"
    },
    {
      "anonymous": false,
      "inputs": [
        {
          "indexed": true,
          "internalType": "address",
          "name": "from",
          "type": "address"
        },
        {
          "indexed": true,
          "internalType": "address",
          "name": "to",
          "type": "address"
        },
        {
          "indexed": true,
          "internalType": "uint256",
          "name": "tokenId",
          "type": "uint256"
        }
      ],
      "name": "Transfer",
      "type": "event"
    },
    {
      "inputs": [
        {
          "internalType": "address",
          "name": "to",
          "type": "address"
        },
        {
          "internalType": "uint256",
          "name": "tokenId",
          "type": "uint256"
        }
      ],
      "name": "approve",
      "outputs": [],
      "stateMutability": "nonpayable",
      "type": "function"
    },
    {
      "inputs": [
        {
          "internalType": "address",
          "name": "owner",
          "type": "address"
        }
      ],
      "name": "balanceOf",
      "outputs": [
        {
          "internalType": "uint256",
          "name": "",
          "type": "uint256"
        }
      ],
      "stateMutability": "view",
      "type": "function"
    },
    {
      "inputs": [
        {
          "internalType": "uint256",
          "name": "tokenId",
          "type": "uint256"
        }
      ],
      "name": "burnNFT",
      "outputs": [],
      "stateMutability": "nonpayable",
      "type": "function"
    },
    {
      "inputs": [
        {
          "internalType": "uint256",
          "name": "tokenId",
          "type": "uint256"
        }
      ],
      "name": "getApproved",
      "outputs": [
        {
          "internalType": "address",
          "name": "",
          "type": "address"
        }
      ],
      "stateMutability": "view",
      "type": "function"
    },
    {
      "inputs": [
        {
          "internalType": "uint256",
          "name": "_tokenId",
          "type": "uint256"
        }
      ],
      "name": "getNFTmetadata",
      "outputs": [
        {
          "components": [
            {
              "internalType": "uint256",
              "name": "proposalId",
              "type": "uint256"
            },
            {
              "internalType": "address",
              "name": "borrower",
              "type": "address"
            },
            {
              "internalType": "uint256",
              "name": "amount",
              "type": "uint256"
            },
            {
              "internalType": "uint256",
              "name": "dueDate",
              "type": "uint256"
            },
            {
              "internalType": "uint256",
              "name": "contractTimestamp",
              "type": "uint256"
            },
            {
              "internalType": "uint256",
              "name": "interestRate",
              "type": "uint256"
            },
            {
              "internalType": "uint256",
              "name": "paybackAmount",
              "type": "uint256"
            }
          ],
          "internalType": "struct LendingBoardNFT.Metadata",
          "name": "",
          "type": "tuple"
        }
      ],
      "stateMutability": "view",
      "type": "function"
    },
    {
      "inputs": [
        {
          "internalType": "address",
          "name": "owner",
          "type": "address"
        },
        {
          "internalType": "address",
          "name": "operator",
          "type": "address"
        }
      ],
      "name": "isApprovedForAll",
      "outputs": [
        {
          "internalType": "bool",
          "name": "",
          "type": "bool"
        }
      ],
      "stateMutability": "view",
      "type": "function"
    },
    {
      "inputs": [
        {
          "internalType": "uint256",
          "name": "",
          "type": "uint256"
        }
      ],
      "name": "mappedNFT",
      "outputs": [
        {
          "internalType": "uint256",
          "name": "proposalId",
          "type": "uint256"
        },
        {
          "internalType": "address",
          "name": "borrower",
          "type": "address"
        },
        {
          "internalType": "uint256",
          "name": "amount",
          "type": "uint256"
        },
        {
          "internalType": "uint256",
          "name": "dueDate",
          "type": "uint256"
        },
        {
          "internalType": "uint256",
          "name": "contractTimestamp",
          "type": "uint256"
        },
        {
          "internalType": "uint256",
          "name": "interestRate",
          "type": "uint256"
        },
        {
          "internalType": "uint256",
          "name": "paybackAmount",
          "type": "uint256"
        }
      ],
      "stateMutability": "view",
      "type": "function"
    },
    {
      "inputs": [
        {
          "internalType": "address",
          "name": "_recipient",
          "type": "address"
        },
        {
          "internalType": "uint256",
          "name": "_proposalId",
          "type": "uint256"
        },
        {
          "internalType": "address",
          "name": "_borrower",
          "type": "address"
        },
        {
          "internalType": "uint256",
          "name": "_amount",
          "type": "uint256"
        },
        {
          "internalType": "uint256",
          "name": "_dueDate",
          "type": "uint256"
        },
        {
          "internalType": "uint256",
          "name": "_contractTimestamp",
          "type": "uint256"
        },
        {
          "internalType": "uint256",
          "name": "_interestRate",
          "type": "uint256"
        },
        {
          "internalType": "uint256",
          "name": "_paybackAmount",
          "type": "uint256"
        }
      ],
      "name": "mintNFT",
      "outputs": [
        {
          "internalType": "uint256",
          "name": "",
          "type": "uint256"
        }
      ],
      "stateMutability": "nonpayable",
      "type": "function"
    },
    {
      "inputs": [],
      "name": "name",
      "outputs": [
        {
          "internalType": "string",
          "name": "",
          "type": "string"
        }
      ],
      "stateMutability": "view",
      "type": "function"
    },
    {
      "inputs": [],
      "name": "owner",
      "outputs": [
        {
          "internalType": "address",
          "name": "",
          "type": "address"
        }
      ],
      "stateMutability": "view",
      "type": "function"
    },
    {
      "inputs": [
        {
          "internalType": "uint256",
          "name": "tokenId",
          "type": "uint256"
        }
      ],
      "name": "ownerOf",
      "outputs": [
        {
          "internalType": "address",
          "name": "",
          "type": "address"
        }
      ],
      "stateMutability": "view",
      "type": "function"
    },
    {
      "inputs": [],
      "name": "renounceOwnership",
      "outputs": [],
      "stateMutability": "nonpayable",
      "type": "function"
    },
    {
      "inputs": [
        {
          "internalType": "address",
          "name": "from",
          "type": "address"
        },
        {
          "internalType": "address",
          "name": "to",
          "type": "address"
        },
        {
          "internalType": "uint256",
          "name": "tokenId",
          "type": "uint256"
        }
      ],
      "name": "safeTransferFrom",
      "outputs": [],
      "stateMutability": "nonpayable",
      "type": "function"
    },
    {
      "inputs": [
        {
          "internalType": "address",
          "name": "from",
          "type": "address"
        },
        {
          "internalType": "address",
          "name": "to",
          "type": "address"
        },
        {
          "internalType": "uint256",
          "name": "tokenId",
          "type": "uint256"
        },
        {
          "internalType": "bytes",
          "name": "data",
          "type": "bytes"
        }
      ],
      "name": "safeTransferFrom",
      "outputs": [],
      "stateMutability": "nonpayable",
      "type": "function"
    },
    {
      "inputs": [
        {
          "internalType": "address",
          "name": "operator",
          "type": "address"
        },
        {
          "internalType": "bool",
          "name": "approved",
          "type": "bool"
        }
      ],
      "name": "setApprovalForAll",
      "outputs": [],
      "stateMutability": "nonpayable",
      "type": "function"
    },
    {
      "inputs": [
        {
          "internalType": "uint256",
          "name": "_tokenId",
          "type": "uint256"
        },
        {
          "internalType": "uint256",
          "name": "_proposalId",
          "type": "uint256"
        },
        {
          "internalType": "address",
          "name": "_borrower",
          "type": "address"
        },
        {
          "internalType": "uint256",
          "name": "_amount",
          "type": "uint256"
        },
        {
          "internalType": "uint256",
          "name": "_dueDate",
          "type": "uint256"
        },
        {
          "internalType": "uint256",
          "name": "_contractTimestamp",
          "type": "uint256"
        },
        {
          "internalType": "uint256",
          "name": "_interestRate",
          "type": "uint256"
        },
        {
          "internalType": "uint256",
          "name": "_paybackAmount",
          "type": "uint256"
        }
      ],
      "name": "setMetadataAndmappingNFTWithMetadata",
      "outputs": [],
      "stateMutability": "nonpayable",
      "type": "function"
    },
    {
      "inputs": [
        {
          "internalType": "bytes4",
          "name": "interfaceId",
          "type": "bytes4"
        }
      ],
      "name": "supportsInterface",
      "outputs": [
        {
          "internalType": "bool",
          "name": "",
          "type": "bool"
        }
      ],
      "stateMutability": "view",
      "type": "function"
    },
    {
      "inputs": [],
      "name": "symbol",
      "outputs": [
        {
          "internalType": "string",
          "name": "",
          "type": "string"
        }
      ],
      "stateMutability": "view",
      "type": "function"
    },
    {
      "inputs": [
        {
          "internalType": "uint256",
          "name": "index",
          "type": "uint256"
        }
      ],
      "name": "tokenByIndex",
      "outputs": [
        {
          "internalType": "uint256",
          "name": "",
          "type": "uint256"
        }
      ],
      "stateMutability": "view",
      "type": "function"
    },
    {
      "inputs": [
        {
          "internalType": "address",
          "name": "owner",
          "type": "address"
        },
        {
          "internalType": "uint256",
          "name": "index",
          "type": "uint256"
        }
      ],
      "name": "tokenOfOwnerByIndex",
      "outputs": [
        {
          "internalType": "uint256",
          "name": "",
          "type": "uint256"
        }
      ],
      "stateMutability": "view",
      "type": "function"
    },
    {
      "inputs": [
        {
          "internalType": "uint256",
          "name": "tokenId",
          "type": "uint256"
        }
      ],
      "name": "tokenURI",
      "outputs": [
        {
          "internalType": "string",
          "name": "",
          "type": "string"
        }
      ],
      "stateMutability": "view",
      "type": "function"
    },
    {
      "inputs": [],
      "name": "totalSupply",
      "outputs": [
        {
          "internalType": "uint256",
          "name": "",
          "type": "uint256"
        }
      ],
      "stateMutability": "view",
      "type": "function"
    },
    {
      "inputs": [
        {
          "internalType": "address",
          "name": "from",
          "type": "address"
        },
        {
          "internalType": "address",
          "name": "to",
          "type": "address"
        },
        {
          "internalType": "uint256",
          "name": "tokenId",
          "type": "uint256"
        }
      ],
      "name": "transferFrom",
      "outputs": [],
      "stateMutability": "nonpayable",
      "type": "function"
    },
    {
      "inputs": [
        {
          "internalType": "address",
          "name": "newOwner",
          "type": "address"
        }
      ],
      "name": "transferOwnership",
      "outputs": [],
      "stateMutability": "nonpayable",
      "type": "function"
    }
  ],
  "bytecode": "0x60806040523462000167576200001462000183565b60206713919508109bdb9960c21b8183015262000030620001b8565b6327232a2160e11b8282015282519091906001600160401b03811162000157575b6000916200006b82620000658554620001ed565b6200022a565b80601f8311600114620000c957508190620000a2958492620000bd575b50508160011b916000199060031b1c1916179055620002de565b620000ad33620003e0565b604051611df090816200042f8239f35b01519050388062000088565b600080529194601f1986167f290decd9548b62a8d60345a988386fc84ba6bc95484008f6362f93160ef3e5639385905b8282106200013e575050916001939187620000a298941062000124575b505050811b019055620002de565b015160001960f88460031b161c1916905538808062000116565b80600186978294978701518155019601940190620000f9565b620001616200016c565b62000051565b600080fd5b50634e487b7160e01b600052604160045260246000fd5b60408051919082016001600160401b03811183821017620001a8575b60405260088252565b620001b26200016c565b6200019f565b60408051919082016001600160401b03811183821017620001dd575b60405260048252565b620001e76200016c565b620001d4565b90600182811c921680156200021f575b60208310146200020957565b634e487b7160e01b600052602260045260246000fd5b91607f1691620001fd565b601f811162000237575050565b60009081805260208220906020601f850160051c8301941062000277575b601f0160051c01915b8281106200026b57505050565b8181556001016200025e565b909250829062000255565b90601f821162000290575050565b60019160009083825260208220906020601f850160051c83019410620002d3575b601f0160051c01915b828110620002c85750505050565b8181558301620002ba565b9092508290620002b1565b80519091906001600160401b038111620003d0575b6001906200030d81620003078454620001ed565b62000282565b602080601f83116001146200034b5750819293946000926200033f575b5050600019600383901b1c191690821b179055565b0151905038806200032a565b6001600052601f198316959091907fb10e2d527612073b26eecdfd717e6a320cf44b4afac2b0732d9fcbe2b7fa0cf6926000905b888210620003b857505083859697106200039e575b505050811b019055565b015160001960f88460031b161c1916905538808062000394565b8087859682949686015181550195019301906200037f565b620003da6200016c565b620002f3565b600b80546001600160a01b039283166001600160a01b031982168117909255604051919216907f8be0079c531659141344cd1fd0a4f28419497f9722a3daafe3b4186f6b6457e090600090a356fe60806040526004361015610013575b600080fd5b60003560e01c806301ffc9a7146101f357806306fdde03146101ea578063081812fc146101e1578063095ea7b3146101d857806318160ddd146101cf57806323b872dd146101c65780632890e0d7146101bd5780632f745c59146101b457806342842e0e146101ab5780634f6ccce7146101a257806352d549f1146101995780636352211e146101905780636ee5a0c41461018757806370a082311461017e578063715018a61461017557806382d69beb1461016c5780638da5cb5b1461016357806395d89b411461015a5780639ec4fd9c14610151578063a22cb46514610148578063b88d4fde1461013f578063c87b56dd14610136578063e985e9c51461012d5763f2fde38b1461012557600080fd5b61000e610fdf565b5061000e610f81565b5061000e610f4d565b5061000e610ec3565b5061000e610d2d565b5061000e610b9c565b5061000e610af6565b5061000e610acc565b5061000e610a8f565b5061000e610a2d565b5061000e610a01565b5061000e61098b565b5061000e61096c565b5061000e61086c565b5061000e6107c0565b5061000e610797565b5061000e6106e3565b5061000e6105c2565b5061000e610598565b5061000e610544565b5061000e61046d565b5061000e6103fa565b5061000e61031f565b5061000e61020e565b6001600160e01b031981160361000e57565b503461000e57602036600319011261000e57602060043561022e816101fc565b63ffffffff60e01b1663780e9d6360e01b8114908115610254575b506040519015158152f35b632483248360e11b81149150811561026e575b5038610249565b6380ac58cd60e01b8114915081156102a0575b811561028f575b5038610267565b6301ffc9a760e01b14905038610288565b635b5e139f60e01b81149150610281565b918091926000905b8282106102d15750116102ca575050565b6000910152565b915080602091830151818601520182916102b9565b906020916102ff815180928185528580860191016102b1565b601f01601f1916010190565b90602061031c9281815201906102e6565b90565b503461000e576000806003193601126103f75760405190808054610342816111ee565b808552916001918083169081156103d6575060011461037c575b6103788561036c81870382610e76565b6040519182918261030b565b0390f35b80809450527f290decd9548b62a8d60345a988386fc84ba6bc95484008f6362f93160ef3e5635b8284106103be57505050810160200161036c8261037861035c565b805460208587018101919091529093019281016103a3565b60ff19166020870152505060408401925061036c915083905061037861035c565b80fd5b503461000e57602036600319011261000e57602061041960043561129a565b6040516001600160a01b039091168152f35b600435906001600160a01b038216820361000e57565b604435906001600160a01b038216820361000e57565b602435906001600160a01b038216820361000e57565b503461000e57604036600319011261000e5761048761042b565b602435610493816111cb565b916001600160a01b0380841690821681146104f5576104c5936104c09133149081156104c7575b50611228565b611620565b005b6001600160a01b0316600090815260056020908152604080832033845290915290205460ff169050386104ba565b60405162461bcd60e51b815260206004820152602160248201527f4552433732313a20617070726f76616c20746f2063757272656e74206f776e656044820152603960f91b6064820152608490fd5b503461000e57600036600319011261000e576020600954604051908152f35b606090600319011261000e576001600160a01b0390600435828116810361000e5791602435908116810361000e579060443590565b503461000e576104c56105aa36610563565b916105bd6105b88433611407565b6112d8565b6114d9565b503461000e57602036600319011261000e576004358060006105e3826111cb565b6001600160a01b0390838183161584146106d5576106019150611ba9565b61060a83611ce1565b610613836111cb565b61063a61062a856000526004602052604060002090565b80546001600160a01b0319169055565b6001600160a01b03811660009081526003602052604090208319815401905561067061062a856000526002602052604060002090565b167fddf252ad1be2c89b69c2b068fc378daa952ba7f163c4a11628f55a4df523b3ef82604051a46106b36106ae826000526006602052604060002090565b611904565b6106b957005b6106d06104c5916000526006602052604060002090565b61190e565b6106de91611c09565b610601565b503461000e57604036600319011261000e576106fd61042b565b6024359061070a81611108565b82101561073e576001600160a01b031660009081526007602090815260408083209383529281529082902054915191825290f35b60405162461bcd60e51b815260206004820152602b60248201527f455243373231456e756d657261626c653a206f776e657220696e646578206f7560448201526a74206f6620626f756e647360a81b6064820152608490fd5b503461000e576104c56107a936610563565b90604051926107b784610e5a565b6000845261136c565b503461000e57602036600319011261000e576004356009548110156108125760096000527f6e1540171b6c0c960b71a7020d9f60077f6af931a8bbf590da0223dacf75c7af0154604051908152602090f35b60405162461bcd60e51b815260206004820152602c60248201527f455243373231456e756d657261626c653a20676c6f62616c20696e646578206f60448201526b7574206f6620626f756e647360a01b6064820152608490fd5b503461000e57602036600319011261000e5761037860408060c0815161089181610e31565b600091818380935282602082015282858201528260608201528260808201528260a082015201526004358152600d602052209060068151926108d284610e31565b8054845260018101546001600160a01b031660208501526002810154838501526003810154606085015260048101546080850152600581015460a0850152015460c0830152519182918291909160c08060e08301948051845260018060a01b03602082015116602085015260408101516040850152606081015160608501526080810151608085015260a081015160a08501520151910152565b503461000e57602036600319011261000e5760206104196004356111cb565b503461000e57602036600319011261000e57600435600052600d60205260e0604060002080549060018060a01b0360018201541690600281015460038201546004830154916006600585015494015494604051968752602087015260408601526060850152608084015260a083015260c0820152f35b503461000e57602036600319011261000e576020610a25610a2061042b565b611108565b604051908152f35b503461000e576000806003193601126103f757610a486110b0565b600b80546001600160a01b031981169091556040519082906001600160a01b03167f8be0079c531659141344cd1fd0a4f28419497f9722a3daafe3b4186f6b6457e08284a3f35b503461000e5761010036600319011261000e576104c5610aad610441565b60e4359060c4359060a435906084359060643590602435600435611867565b503461000e57600036600319011261000e57600b546040516001600160a01b039091168152602090f35b503461000e576000806003193601126103f75760405190806001805491610b1c836111ee565b808652928281169081156103d65750600114610b42576103788561036c81870382610e76565b92508083527fb10e2d527612073b26eecdfd717e6a320cf44b4afac2b0732d9fcbe2b7fa0cf65b828410610b8457505050810160200161036c8261037861035c565b80546020858701810191909152909301928101610b69565b503461000e5761010036600319011261000e57610bb761042b565b610bbf610441565b600c805460010190819055906001600160a01b038316908115610ce95782610cd992610c9461037896610c16610c11610c0d86600052600260205260018060a01b0360406000205416151590565b1590565b61181b565b610c208482611aea565b600084815260026020526040902054610c42906001600160a01b03161561181b565b6001600160a01b038116600090815260036020526040902060018154019055610c75846000526002602052604060002090565b80546001600160a01b0319166001600160a01b03909216919091179055565b60007fddf252ad1be2c89b69c2b068fc378daa952ba7f163c4a11628f55a4df523b3ef81604051a460e4359060c4359060a43590608435906064359060243588611867565b6040519081529081906020820190565b606460405162461bcd60e51b815260206004820152602060248201527f4552433732313a206d696e7420746f20746865207a65726f20616464726573736044820152fd5b503461000e57604036600319011261000e57610d4761042b565b602435801515810361000e576001600160a01b03821691338314610dd55781610d92610da39233600052600560205260406000209060018060a01b0316600052602052604060002090565b9060ff801983541691151516179055565b604051901515815233907f17307eab39ab6107e8899845ad3d59bd9653f200f220920489ca2b5937696c3190602090a3005b60405162461bcd60e51b815260206004820152601960248201527f4552433732313a20617070726f766520746f2063616c6c6572000000000000006044820152606490fd5b50634e487b7160e01b600052604160045260246000fd5b60e0810190811067ffffffffffffffff821117610e4d57604052565b610e55610e1a565b604052565b6020810190811067ffffffffffffffff821117610e4d57604052565b90601f8019910116810190811067ffffffffffffffff821117610e4d57604052565b60209067ffffffffffffffff8111610eb6575b601f01601f19160190565b610ebe610e1a565b610eab565b503461000e57608036600319011261000e57610edd61042b565b610ee5610457565b6064359167ffffffffffffffff831161000e573660238401121561000e57826004013591610f1283610e98565b92610f206040519485610e76565b808452366024828701011161000e5760208160009260246104c5980183880137850101526044359161136c565b503461000e57602036600319011261000e57610378610f6d600435611983565b6040519182916020835260208301906102e6565b503461000e57604036600319011261000e57602060ff610fd3610fa261042b565b610faa610457565b6001600160a01b0391821660009081526005865260408082209290931681526020919091522090565b54166040519015158152f35b503461000e57602036600319011261000e57610ff961042b565b6110016110b0565b6001600160a01b0390811690811561105c57600091600b5491816bffffffffffffffffffffffff60a01b841617600b5560405192167f8be0079c531659141344cd1fd0a4f28419497f9722a3daafe3b4186f6b6457e08484a3f35b60405162461bcd60e51b815260206004820152602660248201527f4f776e61626c653a206e6577206f776e657220697320746865207a65726f206160448201526564647265737360d01b6064820152608490fd5b600b546001600160a01b031633036110c457565b606460405162461bcd60e51b815260206004820152602060248201527f4f776e61626c653a2063616c6c6572206973206e6f7420746865206f776e65726044820152fd5b6001600160a01b0316801561112857600052600360205260406000205490565b60405162461bcd60e51b815260206004820152602960248201527f4552433732313a2061646472657373207a65726f206973206e6f7420612076616044820152683634b21037bbb732b960b91b6064820152608490fd5b1561118657565b60405162461bcd60e51b815260206004820152601860248201527f4552433732313a20696e76616c696420746f6b656e20494400000000000000006044820152606490fd5b6000908152600260205260409020546001600160a01b031661031c81151561117f565b90600182811c9216801561121e575b602083101461120857565b634e487b7160e01b600052602260045260246000fd5b91607f16916111fd565b1561122f57565b60405162461bcd60e51b815260206004820152603d60248201527f4552433732313a20617070726f76652063616c6c6572206973206e6f7420746f60448201527f6b656e206f776e6572206f7220617070726f76656420666f7220616c6c0000006064820152608490fd5b6000818152600260205260409020546112bd906001600160a01b0316151561117f565b6000908152600460205260409020546001600160a01b031690565b156112df57565b60405162461bcd60e51b815260206004820152602d60248201527f4552433732313a2063616c6c6572206973206e6f7420746f6b656e206f776e6560448201526c1c881bdc88185c1c1c9bdd9959609a1b6064820152608490fd5b604051906020820182811067ffffffffffffffff82111761135f575b60405260008252565b611367610e1a565b611356565b906113909392916113806105b88433611407565b61138b8383836114d9565b6116fc565b1561139757565b60405162461bcd60e51b8152806113b0600482016113b4565b0390fd5b60809060208152603260208201527f4552433732313a207472616e7366657220746f206e6f6e20455243373231526560408201527131b2b4bb32b91034b6b83632b6b2b73a32b960711b60608201520190565b6001600160a01b0380611419846111cb565b16928183169284841494851561144f575b50508315611439575b50505090565b6114459192935061129a565b1614388080611433565b60009081526005602090815260408083206001600160a01b03949094168352929052205460ff169350388061142a565b1561148657565b60405162461bcd60e51b815260206004820152602560248201527f4552433732313a207472616e736665722066726f6d20696e636f72726563742060448201526437bbb732b960d91b6064820152608490fd5b6114fd906114e6846111cb565b6001600160a01b038281169390918216841461147f565b83169283156115cf5761156b8261151887846115a696611b15565b61153a856115346115288a6111cb565b6001600160a01b031690565b1461147f565b61155161062a886000526004602052604060002090565b6001600160a01b0316600090815260036020526040902090565b80546000190190556001600160a01b038116600090815260036020526040902060018154019055610c75856000526002602052604060002090565b7fddf252ad1be2c89b69c2b068fc378daa952ba7f163c4a11628f55a4df523b3ef6000604051a4565b60405162461bcd60e51b8152602060048201526024808201527f4552433732313a207472616e7366657220746f20746865207a65726f206164646044820152637265737360e01b6064820152608490fd5b600082815260046020526040902080546001600160a01b0319166001600160a01b0383161790556001600160a01b0380611659846111cb565b169116907f8c5be1e5ebec7d5bd14f71427d1e84f3dd0314c0f7b2291e5b200ac8c7c3b9256000604051a4565b9081602091031261000e575161031c816101fc565b6001600160a01b03918216815291166020820152604081019190915260806060820181905261031c929101906102e6565b3d156116f7573d906116dd82610e98565b916116eb6040519384610e76565b82523d6000602084013e565b606090565b92909190823b156117b65761172f926020926000604051809681958294630a85bd0160e11b9a8b8552336004860161169b565b03926001600160a01b03165af160009181611786575b50611778576117526116cc565b805190816117735760405162461bcd60e51b8152806113b0600482016113b4565b602001fd5b6001600160e01b0319161490565b6117a891925060203d81116117af575b6117a08183610e76565b810190611686565b9038611745565b503d611796565b50505050600190565b50634e487b7160e01b600052603260045260246000fd5b60095481101561180e575b60096000527f6e1540171b6c0c960b71a7020d9f60077f6af931a8bbf590da0223dacf75c7af0190600090565b6118166117bf565b6117e1565b1561182257565b60405162461bcd60e51b815260206004820152601c60248201527f4552433732313a20746f6b656e20616c7265616479206d696e746564000000006044820152606490fd5b60069694926118e6919896949298604051996118828b610e31565b8a526001600160a01b039182166020808c019182526040808d0196875260608d0197885260808d0198895260a08d01998a5260c08d019a8b526000938452600d90915290912099518a555160018a0180546001600160a01b03191691909216179055565b51600287015551600386015551600485015551600584015551910155565b61031c90546111ee565b61191881546111ee565b9081611922575050565b601f82116001146119355760009150555b565b600091818352601f60208420910160051c810160018092015b818110611962575050508160208120915555565b848155820161194e565b9061197f602092828151948592016102b1565b0190565b6000818152600260205260409020546119a6906001600160a01b0316151561117f565b60009080825260206006815260408320604051848195908354906119c9826111ee565b80855294600192808416908115611a855750600114611a49575b5050506119f292500384610e76565b6119fa61133a565b92835115611a42578051611a1457505061031c9150611aa5565b61031c9250611a3490611a2e60405195869485019061196c565b9061196c565b03601f198101835282610e76565b9250505090565b869350819291528282205b858310611a6d5750506119f293508201013880806119e3565b8054838a018501528894508693909201918101611a54565b965050505050505060ff1916818401526119f283604081013880806119e3565b600090815260026020526040902054611ac8906001600160a01b0316151561117f565b6000604051611ad681610e5a565b52604051611ae381610e5a565b6000815290565b90611af481611ba9565b6001600160a01b038216611b0c576119339150611ce1565b61193391611b71565b9091906001600160a01b038082169182611b4f5750611b3383611ba9565b831680611b465750506119339150611ce1565b03611b0c575050565b838286168403611b61575b5050611b33565b611b6a91611c09565b3883611b5a565b604090611b7d81611108565b9260009160018060a01b0316825260076020528282208483526020528083832055815260086020522055565b61193390611be160095482600052600a6020528060406000205568010000000000000000811015611bfc575b600181016009556117d6565b90919082549060031b600019811b9283911b16911916179055565b611c04610e1a565b611bd5565b611c1281611108565b9160018310611ccb57611c71611c8092611c56946000190192600095818792835260086020526040832054868103611c83575b506000526008602052604060002090565b556001600160a01b0316600090815260076020526040902090565b90600052602052604060002090565b55565b6001600160a01b0385168085526007602081815260408088208b8952825280882054600094855292825280842085895282528088208390559183526008905290205538611c45565b634e487b7160e01b600052601160045260246000fd5b60095460018110611ccb57600090828252600a60205281611d6a60408220549460001995848781011015611dad575b60098452611d597f6e1540171b6c0c960b71a7020d9f60077f6af931a8bbf590da0223dacf75c7ae80960154611d4981611be1856117d6565b600052600a602052604060002090565b55600052600a602052604060002090565b55600954928315611d995783019280841015611d8c575b600983520155600955565b611d946117bf565b611d81565b634e487b7160e01b83526031600452602483fd5b611db56117bf565b611d1056fea264697066735822122000d13b05f853e18bf6f278023390134cd5d1ef36eff00cb231be89553563acb264736f6c634300080d0033",
  "linkReferences": {},
  "deployedLinkReferences": {}
}