{
  "_format": "hh-sol-artifact-1",
  "contractName": "LendingBoardNFT",
  "sourceName": "contracts/lendingboard/LendingBoardNFT.sol",
  "abi": [
    {
      "inputs": [],
      "stateMutability": "nonpayable",
      "type": "constructor"
    },
    {
      "anonymous": false,
      "inputs": [
        {
          "indexed": true,
          "internalType": "address",
          "name": "owner",
          "type": "address"
        },
        {
          "indexed": true,
          "internalType": "address",
          "name": "approved",
          "type": "address"
        },
        {
          "indexed": true,
          "internalType": "uint256",
          "name": "tokenId",
          "type": "uint256"
        }
      ],
      "name": "Approval",
      "type": "event"
    },
    {
      "anonymous": false,
      "inputs": [
        {
          "indexed": true,
          "internalType": "address",
          "name": "owner",
          "type": "address"
        },
        {
          "indexed": true,
          "internalType": "address",
          "name": "operator",
          "type": "address"
        },
        {
          "indexed": false,
          "internalType": "bool",
          "name": "approved",
          "type": "bool"
        }
      ],
      "name": "ApprovalForAll",
      "type": "event"
    },
    {
      "anonymous": false,
      "inputs": [
        {
          "indexed": false,
          "internalType": "uint256",
          "name": "_fromTokenId",
          "type": "uint256"
        },
        {
          "indexed": false,
          "internalType": "uint256",
          "name": "_toTokenId",
          "type": "uint256"
        }
      ],
      "name": "BatchMetadataUpdate",
      "type": "event"
    },
    {
      "anonymous": false,
      "inputs": [
        {
          "indexed": false,
          "internalType": "uint256",
          "name": "_tokenId",
          "type": "uint256"
        }
      ],
      "name": "MetadataUpdate",
      "type": "event"
    },
    {
      "anonymous": false,
      "inputs": [
        {
          "indexed": true,
          "internalType": "address",
          "name": "previousOwner",
          "type": "address"
        },
        {
          "indexed": true,
          "internalType": "address",
          "name": "newOwner",
          "type": "address"
        }
      ],
      "name": "OwnershipTransferred",
      "type": "event"
    },
    {
      "anonymous": false,
      "inputs": [
        {
          "indexed": true,
          "internalType": "address",
          "name": "from",
          "type": "address"
        },
        {
          "indexed": true,
          "internalType": "address",
          "name": "to",
          "type": "address"
        },
        {
          "indexed": true,
          "internalType": "uint256",
          "name": "tokenId",
          "type": "uint256"
        }
      ],
      "name": "Transfer",
      "type": "event"
    },
    {
      "inputs": [
        {
          "internalType": "address",
          "name": "to",
          "type": "address"
        },
        {
          "internalType": "uint256",
          "name": "tokenId",
          "type": "uint256"
        }
      ],
      "name": "approve",
      "outputs": [],
      "stateMutability": "nonpayable",
      "type": "function"
    },
    {
      "inputs": [
        {
          "internalType": "address",
          "name": "owner",
          "type": "address"
        }
      ],
      "name": "balanceOf",
      "outputs": [
        {
          "internalType": "uint256",
          "name": "",
          "type": "uint256"
        }
      ],
      "stateMutability": "view",
      "type": "function"
    },
    {
      "inputs": [
        {
          "internalType": "uint256",
          "name": "tokenId",
          "type": "uint256"
        }
      ],
      "name": "burnNFT",
      "outputs": [],
      "stateMutability": "nonpayable",
      "type": "function"
    },
    {
      "inputs": [
        {
          "internalType": "uint256",
          "name": "tokenId",
          "type": "uint256"
        }
      ],
      "name": "getApproved",
      "outputs": [
        {
          "internalType": "address",
          "name": "",
          "type": "address"
        }
      ],
      "stateMutability": "view",
      "type": "function"
    },
    {
      "inputs": [
        {
          "internalType": "uint256",
          "name": "_proposalId",
          "type": "uint256"
        }
      ],
      "name": "getNFTmetadatas",
      "outputs": [
        {
          "components": [
            {
              "internalType": "address",
              "name": "borrower",
              "type": "address"
            },
            {
              "internalType": "uint256",
              "name": "amount",
              "type": "uint256"
            },
            {
              "internalType": "uint256",
              "name": "dueDate",
              "type": "uint256"
            },
            {
              "internalType": "uint256",
              "name": "contractTimestamp",
              "type": "uint256"
            },
            {
              "internalType": "uint256",
              "name": "interestRate",
              "type": "uint256"
            },
            {
              "internalType": "uint256",
              "name": "paybackAmount",
              "type": "uint256"
            }
          ],
          "internalType": "struct LendingBoardNFT.metadata",
          "name": "",
          "type": "tuple"
        }
      ],
      "stateMutability": "view",
      "type": "function"
    },
    {
      "inputs": [
        {
          "internalType": "address",
          "name": "owner",
          "type": "address"
        },
        {
          "internalType": "address",
          "name": "operator",
          "type": "address"
        }
      ],
      "name": "isApprovedForAll",
      "outputs": [
        {
          "internalType": "bool",
          "name": "",
          "type": "bool"
        }
      ],
      "stateMutability": "view",
      "type": "function"
    },
    {
      "inputs": [
        {
          "internalType": "address",
          "name": "_recipient",
          "type": "address"
        }
      ],
      "name": "mintNFT",
      "outputs": [
        {
          "internalType": "uint256",
          "name": "",
          "type": "uint256"
        }
      ],
      "stateMutability": "nonpayable",
      "type": "function"
    },
    {
      "inputs": [],
      "name": "name",
      "outputs": [
        {
          "internalType": "string",
          "name": "",
          "type": "string"
        }
      ],
      "stateMutability": "view",
      "type": "function"
    },
    {
      "inputs": [
        {
          "internalType": "uint256",
          "name": "",
          "type": "uint256"
        }
      ],
      "name": "nftMetadata",
      "outputs": [
        {
          "internalType": "address",
          "name": "borrower",
          "type": "address"
        },
        {
          "internalType": "uint256",
          "name": "amount",
          "type": "uint256"
        },
        {
          "internalType": "uint256",
          "name": "dueDate",
          "type": "uint256"
        },
        {
          "internalType": "uint256",
          "name": "contractTimestamp",
          "type": "uint256"
        },
        {
          "internalType": "uint256",
          "name": "interestRate",
          "type": "uint256"
        },
        {
          "internalType": "uint256",
          "name": "paybackAmount",
          "type": "uint256"
        }
      ],
      "stateMutability": "view",
      "type": "function"
    },
    {
      "inputs": [],
      "name": "owner",
      "outputs": [
        {
          "internalType": "address",
          "name": "",
          "type": "address"
        }
      ],
      "stateMutability": "view",
      "type": "function"
    },
    {
      "inputs": [
        {
          "internalType": "uint256",
          "name": "tokenId",
          "type": "uint256"
        }
      ],
      "name": "ownerOf",
      "outputs": [
        {
          "internalType": "address",
          "name": "",
          "type": "address"
        }
      ],
      "stateMutability": "view",
      "type": "function"
    },
    {
      "inputs": [],
      "name": "renounceOwnership",
      "outputs": [],
      "stateMutability": "nonpayable",
      "type": "function"
    },
    {
      "inputs": [
        {
          "internalType": "address",
          "name": "from",
          "type": "address"
        },
        {
          "internalType": "address",
          "name": "to",
          "type": "address"
        },
        {
          "internalType": "uint256",
          "name": "tokenId",
          "type": "uint256"
        }
      ],
      "name": "safeTransferFrom",
      "outputs": [],
      "stateMutability": "nonpayable",
      "type": "function"
    },
    {
      "inputs": [
        {
          "internalType": "address",
          "name": "from",
          "type": "address"
        },
        {
          "internalType": "address",
          "name": "to",
          "type": "address"
        },
        {
          "internalType": "uint256",
          "name": "tokenId",
          "type": "uint256"
        },
        {
          "internalType": "bytes",
          "name": "data",
          "type": "bytes"
        }
      ],
      "name": "safeTransferFrom",
      "outputs": [],
      "stateMutability": "nonpayable",
      "type": "function"
    },
    {
      "inputs": [
        {
          "internalType": "address",
          "name": "operator",
          "type": "address"
        },
        {
          "internalType": "bool",
          "name": "approved",
          "type": "bool"
        }
      ],
      "name": "setApprovalForAll",
      "outputs": [],
      "stateMutability": "nonpayable",
      "type": "function"
    },
    {
      "inputs": [
        {
          "internalType": "uint256",
          "name": "_proposalId",
          "type": "uint256"
        },
        {
          "internalType": "address",
          "name": "_borrower",
          "type": "address"
        },
        {
          "internalType": "uint256",
          "name": "_amount",
          "type": "uint256"
        },
        {
          "internalType": "uint256",
          "name": "_dueDate",
          "type": "uint256"
        },
        {
          "internalType": "uint256",
          "name": "_contractTimestamp",
          "type": "uint256"
        },
        {
          "internalType": "uint256",
          "name": "_interestRate",
          "type": "uint256"
        },
        {
          "internalType": "uint256",
          "name": "_paybackAmount",
          "type": "uint256"
        }
      ],
      "name": "setNFTmetadatas",
      "outputs": [],
      "stateMutability": "nonpayable",
      "type": "function"
    },
    {
      "inputs": [
        {
          "internalType": "bytes4",
          "name": "interfaceId",
          "type": "bytes4"
        }
      ],
      "name": "supportsInterface",
      "outputs": [
        {
          "internalType": "bool",
          "name": "",
          "type": "bool"
        }
      ],
      "stateMutability": "view",
      "type": "function"
    },
    {
      "inputs": [],
      "name": "symbol",
      "outputs": [
        {
          "internalType": "string",
          "name": "",
          "type": "string"
        }
      ],
      "stateMutability": "view",
      "type": "function"
    },
    {
      "inputs": [
        {
          "internalType": "uint256",
          "name": "tokenId",
          "type": "uint256"
        }
      ],
      "name": "tokenURI",
      "outputs": [
        {
          "internalType": "string",
          "name": "",
          "type": "string"
        }
      ],
      "stateMutability": "view",
      "type": "function"
    },
    {
      "inputs": [
        {
          "internalType": "address",
          "name": "from",
          "type": "address"
        },
        {
          "internalType": "address",
          "name": "to",
          "type": "address"
        },
        {
          "internalType": "uint256",
          "name": "tokenId",
          "type": "uint256"
        }
      ],
      "name": "transferFrom",
      "outputs": [],
      "stateMutability": "nonpayable",
      "type": "function"
    },
    {
      "inputs": [
        {
          "internalType": "address",
          "name": "newOwner",
          "type": "address"
        }
      ],
      "name": "transferOwnership",
      "outputs": [],
      "stateMutability": "nonpayable",
      "type": "function"
    }
  ],
  "bytecode": "0x60806040523462000167576200001462000183565b60206713919508109bdb9960c21b8183015262000030620001b8565b6327232a2160e11b8282015282519091906001600160401b03811162000157575b6000916200006b82620000658554620001ed565b6200022a565b80601f8311600114620000c957508190620000a2958492620000bd575b50508160011b916000199060031b1c1916179055620002de565b620000ad33620003e0565b60405161183990816200042f8239f35b01519050388062000088565b600080529194601f1986167f290decd9548b62a8d60345a988386fc84ba6bc95484008f6362f93160ef3e5639385905b8282106200013e575050916001939187620000a298941062000124575b505050811b019055620002de565b015160001960f88460031b161c1916905538808062000116565b80600186978294978701518155019601940190620000f9565b620001616200016c565b62000051565b600080fd5b50634e487b7160e01b600052604160045260246000fd5b60408051919082016001600160401b03811183821017620001a8575b60405260088252565b620001b26200016c565b6200019f565b60408051919082016001600160401b03811183821017620001dd575b60405260048252565b620001e76200016c565b620001d4565b90600182811c921680156200021f575b60208310146200020957565b634e487b7160e01b600052602260045260246000fd5b91607f1691620001fd565b601f811162000237575050565b60009081805260208220906020601f850160051c8301941062000277575b601f0160051c01915b8281106200026b57505050565b8181556001016200025e565b909250829062000255565b90601f821162000290575050565b60019160009083825260208220906020601f850160051c83019410620002d3575b601f0160051c01915b828110620002c85750505050565b8181558301620002ba565b9092508290620002b1565b80519091906001600160401b038111620003d0575b6001906200030d81620003078454620001ed565b62000282565b602080601f83116001146200034b5750819293946000926200033f575b5050600019600383901b1c191690821b179055565b0151905038806200032a565b6001600052601f198316959091907fb10e2d527612073b26eecdfd717e6a320cf44b4afac2b0732d9fcbe2b7fa0cf6926000905b888210620003b857505083859697106200039e575b505050811b019055565b015160001960f88460031b161c1916905538808062000394565b8087859682949686015181550195019301906200037f565b620003da6200016c565b620002f3565b600780546001600160a01b039283166001600160a01b031982168117909255604051919216907f8be0079c531659141344cd1fd0a4f28419497f9722a3daafe3b4186f6b6457e090600090a356fe60806040526004361015610013575b600080fd5b60003560e01c806301ffc9a7146101b757806306fdde03146101ae578063078e94f0146101a5578063081812fc1461019c578063095ea7b31461019357806323b872dd1461018a5780632890e0d71461018157806342842e0e14610178578063495410151461016f57806354ba0f27146101665780635ec9a64e1461015d5780636352211e1461015457806370a082311461014b578063715018a6146101425780638da5cb5b1461013957806395d89b4114610130578063a22cb46514610127578063b88d4fde1461011e578063c87b56dd14610115578063e985e9c51461010c5763f2fde38b1461010457600080fd5b61000e610e79565b5061000e610e1b565b5061000e610de7565b5061000e610d5d565b5061000e610bc7565b5061000e610b21565b5061000e610af7565b5061000e610a95565b5061000e6109f3565b5061000e6109d4565b5061000e61091e565b5061000e6107cf565b5061000e610763565b5061000e61073a565b5061000e61063e565b5061000e610614565b5061000e610508565b5061000e6104ab565b5061000e6103a4565b5061000e6102c9565b5061000e6101d2565b6001600160e01b031981160361000e57565b503461000e57602036600319011261000e5760206004356101f2816101c0565b63ffffffff60e01b16632483248360e11b8114908115610218575b506040519015158152f35b6380ac58cd60e01b81149150811561024a575b8115610239575b503861020d565b6301ffc9a760e01b14905038610232565b635b5e139f60e01b8114915061022b565b918091926000905b82821061027b575011610274575050565b6000910152565b91508060209183015181860152018291610263565b906020916102a98151809281855285808601910161025b565b601f01601f1916010190565b9060206102c6928181520190610290565b90565b503461000e576000806003193601126103a157604051908080546102ec8161100c565b808552916001918083169081156103805750600114610326575b6103228561031681870382610d10565b604051918291826102b5565b0390f35b80809450527f290decd9548b62a8d60345a988386fc84ba6bc95484008f6362f93160ef3e5635b82841061036857505050810160200161031682610322610306565b8054602085870181019190915290930192810161034d565b60ff1916602087015250506040840192506103169150839050610322610306565b80fd5b503461000e57602036600319011261000e5760a060043560409081516103c981610ccb565b600093818580935282602082015282858201528260608201528260808201520152600181106104975761032292829160001901815260096020522090600581519261041384610ccb565b60018060a01b038154168452600181015460208501526002810154838501526003810154606085015260048101546080850152015460a0830152519182918291909160a08060c0830194600180831b038151168452602081015160208501526040810151604085015260608101516060850152608081015160808501520151910152565b634e487b7160e01b83526011600452602483fd5b503461000e57602036600319011261000e5760206104ca6004356110b8565b6040516001600160a01b039091168152f35b600435906001600160a01b038216820361000e57565b602435906001600160a01b038216820361000e57565b503461000e57604036600319011261000e576105226104dc565b60243561052e81610fe9565b916001600160a01b038084169082168114610590576105609361055b913314908115610562575b50611046565b611433565b005b6001600160a01b0316600090815260056020908152604080832033845290915290205460ff16905038610555565b60405162461bcd60e51b815260206004820152602160248201527f4552433732313a20617070726f76616c20746f2063757272656e74206f776e656044820152603960f91b6064820152608490fd5b606090600319011261000e576001600160a01b0390600435828116810361000e5791602435908116810361000e579060443590565b503461000e57610560610626366105df565b916106396106348433611225565b6110f6565b6112f7565b503461000e57602036600319011261000e5760043561065c81610fe9565b5061066681610fe9565b9080600080938282526004602052604082206001600160601b0360a01b815416905560018060a01b031680825260036020526040822060001981540190556106cb6106bb846000526002602052604060002090565b80546001600160a01b0319169055565b7fddf252ad1be2c89b69c2b068fc378daa952ba7f163c4a11628f55a4df523b3ef82604051a461070d610708826000526006602052604060002090565b61179c565b610718575b50604051f35b61072f610734916000526006602052604060002090565b6117a6565b38610712565b503461000e5761056061074c366105df565b906040519261075a84610cf4565b6000845261118a565b503461000e57602036600319011261000e57600435600052600960205260c0604060002060018060a01b038154169060018101549060028101546003820154906005600484015493015493604051958652602086015260408501526060840152608083015260a0820152f35b503461000e57602036600319011261000e576107e96104dc565b6008805460010190819055906001600160a01b0381169081156108da576000838152600260205260409020546108a1919061082d906001600160a01b031615611750565b60008481526002602052604090205461084f906001600160a01b031615611750565b6001600160a01b038116600090815260036020526040902060018154019055610882846000526002602052604060002090565b80546001600160a01b0319166001600160a01b03909216919091179055565b6103228260405193849360007fddf252ad1be2c89b69c2b068fc378daa952ba7f163c4a11628f55a4df523b3ef8187a482526020820190565b606460405162461bcd60e51b815260206004820152602060248201527f4552433732313a206d696e7420746f20746865207a65726f20616464726573736044820152fd5b503461000e5760e036600319011261000e576109386104f2565b60056040519161094783610ccb565b60018060a01b03809116835260208301604435815260408401606435815260608501906084358252608086019260a43584526109b660a088019560c435875260043560005260096020526040600020985116889060018060a01b03166001600160601b0360a01b825416179055565b51600187015551600286015551600385015551600484015551910155005b503461000e57602036600319011261000e5760206104ca600435610fe9565b503461000e57602036600319011261000e576001600160a01b03610a156104dc565b168015610a3e576000526003602052610322604060002054604051918291829190602083019252565b60405162461bcd60e51b815260206004820152602960248201527f4552433732313a2061646472657373207a65726f206973206e6f7420612076616044820152683634b21037bbb732b960b91b6064820152608490fd5b503461000e576000806003193601126103a157610ab0610f45565b600780546001600160a01b031981169091556040519082906001600160a01b03167f8be0079c531659141344cd1fd0a4f28419497f9722a3daafe3b4186f6b6457e08284a3f35b503461000e57600036600319011261000e576007546040516001600160a01b039091168152602090f35b503461000e576000806003193601126103a15760405190806001805491610b478361100c565b808652928281169081156103805750600114610b6d576103228561031681870382610d10565b92508083527fb10e2d527612073b26eecdfd717e6a320cf44b4afac2b0732d9fcbe2b7fa0cf65b828410610baf57505050810160200161031682610322610306565b80546020858701810191909152909301928101610b94565b503461000e57604036600319011261000e57610be16104dc565b602435801515810361000e576001600160a01b03821691338314610c6f5781610c2c610c3d9233600052600560205260406000209060018060a01b0316600052602052604060002090565b9060ff801983541691151516179055565b604051901515815233907f17307eab39ab6107e8899845ad3d59bd9653f200f220920489ca2b5937696c3190602090a3005b60405162461bcd60e51b815260206004820152601960248201527f4552433732313a20617070726f766520746f2063616c6c6572000000000000006044820152606490fd5b50634e487b7160e01b600052604160045260246000fd5b60c0810190811067ffffffffffffffff821117610ce757604052565b610cef610cb4565b604052565b6020810190811067ffffffffffffffff821117610ce757604052565b90601f8019910116810190811067ffffffffffffffff821117610ce757604052565b60209067ffffffffffffffff8111610d50575b601f01601f19160190565b610d58610cb4565b610d45565b503461000e57608036600319011261000e57610d776104dc565b610d7f6104f2565b6064359167ffffffffffffffff831161000e573660238401121561000e57826004013591610dac83610d32565b92610dba6040519485610d10565b808452366024828701011161000e576020816000926024610560980183880137850101526044359161118a565b503461000e57602036600319011261000e57610322610e076004356115e9565b604051918291602083526020830190610290565b503461000e57604036600319011261000e57602060ff610e6d610e3c6104dc565b610e446104f2565b6001600160a01b0391821660009081526005865260408082209290931681526020919091522090565b54166040519015158152f35b503461000e57602036600319011261000e57610e936104dc565b610e9b610f45565b6001600160a01b03908116908115610ef15760009160075491816001600160601b0360a01b84161760075560405192167f8be0079c531659141344cd1fd0a4f28419497f9722a3daafe3b4186f6b6457e08484a3f35b60405162461bcd60e51b815260206004820152602660248201527f4f776e61626c653a206e6577206f776e657220697320746865207a65726f206160448201526564647265737360d01b6064820152608490fd5b6007546001600160a01b03163303610f5957565b606460405162461bcd60e51b815260206004820152602060248201527f4f776e61626c653a2063616c6c6572206973206e6f7420746865206f776e65726044820152fd5b15610fa457565b60405162461bcd60e51b815260206004820152601860248201527f4552433732313a20696e76616c696420746f6b656e20494400000000000000006044820152606490fd5b6000908152600260205260409020546001600160a01b03166102c6811515610f9d565b90600182811c9216801561103c575b602083101461102657565b634e487b7160e01b600052602260045260246000fd5b91607f169161101b565b1561104d57565b60405162461bcd60e51b815260206004820152603d60248201527f4552433732313a20617070726f76652063616c6c6572206973206e6f7420746f60448201527f6b656e206f776e6572206f7220617070726f76656420666f7220616c6c0000006064820152608490fd5b6000818152600260205260409020546110db906001600160a01b03161515610f9d565b6000908152600460205260409020546001600160a01b031690565b156110fd57565b60405162461bcd60e51b815260206004820152602d60248201527f4552433732313a2063616c6c6572206973206e6f7420746f6b656e206f776e6560448201526c1c881bdc88185c1c1c9bdd9959609a1b6064820152608490fd5b604051906020820182811067ffffffffffffffff82111761117d575b60405260008252565b611185610cb4565b611174565b906111ae93929161119e6106348433611225565b6111a98383836112f7565b61150f565b156111b557565b60405162461bcd60e51b8152806111ce600482016111d2565b0390fd5b60809060208152603260208201527f4552433732313a207472616e7366657220746f206e6f6e20455243373231526560408201527131b2b4bb32b91034b6b83632b6b2b73a32b960711b60608201520190565b6001600160a01b038061123784610fe9565b16928183169284841494851561126d575b50508315611257575b50505090565b611263919293506110b8565b1614388080611251565b60009081526005602090815260408083206001600160a01b03949094168352929052205460ff1693503880611248565b156112a457565b60405162461bcd60e51b815260206004820152602560248201527f4552433732313a207472616e736665722066726f6d20696e636f72726563742060448201526437bbb732b960d91b6064820152608490fd5b61131b9061130484610fe9565b6001600160a01b038281169390918216841461129d565b83169283156113e25761137e6113b99261134d8561134761133b8a610fe9565b6001600160a01b031690565b1461129d565b6113646106bb886000526004602052604060002090565b6001600160a01b0316600090815260036020526040902090565b80546000190190556001600160a01b038116600090815260036020526040902060018154019055610882856000526002602052604060002090565b7fddf252ad1be2c89b69c2b068fc378daa952ba7f163c4a11628f55a4df523b3ef6000604051a4565b60405162461bcd60e51b8152602060048201526024808201527f4552433732313a207472616e7366657220746f20746865207a65726f206164646044820152637265737360e01b6064820152608490fd5b600082815260046020526040902080546001600160a01b0319166001600160a01b0383161790556001600160a01b038061146c84610fe9565b169116907f8c5be1e5ebec7d5bd14f71427d1e84f3dd0314c0f7b2291e5b200ac8c7c3b9256000604051a4565b9081602091031261000e57516102c6816101c0565b6001600160a01b0391821681529116602082015260408101919091526080606082018190526102c692910190610290565b3d1561150a573d906114f082610d32565b916114fe6040519384610d10565b82523d6000602084013e565b606090565b92909190823b156115c957611542926020926000604051809681958294630a85bd0160e11b9a8b855233600486016114ae565b03926001600160a01b03165af160009181611599575b5061158b576115656114df565b805190816115865760405162461bcd60e51b8152806111ce600482016111d2565b602001fd5b6001600160e01b0319161490565b6115bb91925060203d81116115c2575b6115b38183610d10565b810190611499565b9038611558565b503d6115a9565b50505050600190565b906115e56020928281519485920161025b565b0190565b60008181526002602052604090205461160c906001600160a01b03161515610f9d565b600090808252602060068152604083206040518481959083549061162f8261100c565b808552946001928084169081156116eb57506001146116af575b50505061165892500384610d10565b611660611158565b928351156116a857805161167a5750506102c6915061170b565b6102c6925061169a906116946040519586948501906115d2565b906115d2565b03601f198101835282610d10565b9250505090565b869350819291528282205b8583106116d35750506116589350820101388080611649565b8054838a0185015288945086939092019181016116ba565b965050505050505060ff1916818401526116588360408101388080611649565b60009081526002602052604090205461172e906001600160a01b03161515610f9d565b600060405161173c81610cf4565b5260405161174981610cf4565b6000815290565b1561175757565b60405162461bcd60e51b815260206004820152601c60248201527f4552433732313a20746f6b656e20616c7265616479206d696e746564000000006044820152606490fd5b6102c6905461100c565b6117b0815461100c565b90816117ba575050565b601f82116001146117cc576000915055565b600091818352601f60208420910160051c810160018092015b8181106117f9575050508160208120915555565b84815582016117e556fea2646970667358221220d8e4710846fce74327166273947c59dbdcb44c5b942aa87294dd802e0478436d64736f6c634300080d0033",
  "linkReferences": {},
  "deployedLinkReferences": {}
}