{
  "_format": "hh-sol-artifact-1",
  "contractName": "LendingBoardProposeMode",
  "sourceName": "contracts/lendingboard/LendingBoardProposeMode.sol",
  "abi": [
    {
      "anonymous": false,
      "inputs": [
        {
          "indexed": true,
          "internalType": "address",
          "name": "_reserve",
          "type": "address"
        },
        {
          "indexed": true,
          "internalType": "address",
          "name": "_user",
          "type": "address"
        },
        {
          "indexed": false,
          "internalType": "uint256",
          "name": "_amount",
          "type": "uint256"
        },
        {
          "indexed": false,
          "internalType": "uint256",
          "name": "_borrowRateMode",
          "type": "uint256"
        },
        {
          "indexed": false,
          "internalType": "uint256",
          "name": "_borrowRate",
          "type": "uint256"
        },
        {
          "indexed": false,
          "internalType": "uint256",
          "name": "_originationFee",
          "type": "uint256"
        },
        {
          "indexed": false,
          "internalType": "uint256",
          "name": "_borrowBalanceIncrease",
          "type": "uint256"
        },
        {
          "indexed": false,
          "internalType": "uint256",
          "name": "_timestamp",
          "type": "uint256"
        }
      ],
      "name": "Borrow",
      "type": "event"
    },
    {
      "anonymous": false,
      "inputs": [
        {
          "indexed": true,
          "internalType": "address",
          "name": "_reserveToLend",
          "type": "address"
        },
        {
          "indexed": true,
          "internalType": "address",
          "name": "_lender",
          "type": "address"
        },
        {
          "indexed": false,
          "internalType": "address",
          "name": "_borrower",
          "type": "address"
        },
        {
          "indexed": true,
          "internalType": "uint256",
          "name": "_proposalId",
          "type": "uint256"
        },
        {
          "indexed": false,
          "internalType": "uint256",
          "name": "_amount",
          "type": "uint256"
        },
        {
          "indexed": false,
          "internalType": "uint256",
          "name": "_originationFee",
          "type": "uint256"
        },
        {
          "indexed": false,
          "internalType": "uint256",
          "name": "_timestamp",
          "type": "uint256"
        }
      ],
      "name": "BorrowAccepted",
      "type": "event"
    },
    {
      "anonymous": false,
      "inputs": [
        {
          "indexed": true,
          "internalType": "address",
          "name": "_reserveToBorrow",
          "type": "address"
        },
        {
          "indexed": true,
          "internalType": "address",
          "name": "_borrowProposer",
          "type": "address"
        },
        {
          "indexed": true,
          "internalType": "uint256",
          "name": "_proposalId",
          "type": "uint256"
        },
        {
          "indexed": false,
          "internalType": "uint256",
          "name": "_amount",
          "type": "uint256"
        },
        {
          "indexed": false,
          "internalType": "address",
          "name": "_reserveForCollateral",
          "type": "address"
        },
        {
          "indexed": false,
          "internalType": "uint256",
          "name": "_interestRate",
          "type": "uint256"
        },
        {
          "indexed": false,
          "internalType": "uint256",
          "name": "_originationFee",
          "type": "uint256"
        },
        {
          "indexed": false,
          "internalType": "uint256",
          "name": "_dueDate",
          "type": "uint256"
        },
        {
          "indexed": false,
          "internalType": "uint256",
          "name": "_timestamp",
          "type": "uint256"
        }
      ],
      "name": "BorrowProposed",
      "type": "event"
    },
    {
      "anonymous": false,
      "inputs": [
        {
          "indexed": true,
          "internalType": "address",
          "name": "_reserve",
          "type": "address"
        },
        {
          "indexed": true,
          "internalType": "address",
          "name": "_user",
          "type": "address"
        },
        {
          "indexed": false,
          "internalType": "uint256",
          "name": "_amount",
          "type": "uint256"
        },
        {
          "indexed": false,
          "internalType": "uint256",
          "name": "_timestamp",
          "type": "uint256"
        }
      ],
      "name": "Deposit",
      "type": "event"
    },
    {
      "anonymous": false,
      "inputs": [
        {
          "indexed": true,
          "internalType": "address",
          "name": "_reserveToLend",
          "type": "address"
        },
        {
          "indexed": true,
          "internalType": "address",
          "name": "_lender",
          "type": "address"
        },
        {
          "indexed": true,
          "internalType": "uint256",
          "name": "_proposalId",
          "type": "uint256"
        },
        {
          "indexed": false,
          "internalType": "uint256",
          "name": "_amount",
          "type": "uint256"
        },
        {
          "indexed": false,
          "internalType": "uint256",
          "name": "_originationFee",
          "type": "uint256"
        },
        {
          "indexed": false,
          "internalType": "uint256",
          "name": "_timestamp",
          "type": "uint256"
        }
      ],
      "name": "LendAccepted",
      "type": "event"
    },
    {
      "anonymous": false,
      "inputs": [
        {
          "indexed": true,
          "internalType": "address",
          "name": "_reserveToLend",
          "type": "address"
        },
        {
          "indexed": true,
          "internalType": "address",
          "name": "_lendProposer",
          "type": "address"
        },
        {
          "indexed": true,
          "internalType": "uint256",
          "name": "_proposalId",
          "type": "uint256"
        },
        {
          "indexed": false,
          "internalType": "uint256",
          "name": "_amount",
          "type": "uint256"
        },
        {
          "indexed": false,
          "internalType": "uint256",
          "name": "_interestRate",
          "type": "uint256"
        },
        {
          "indexed": false,
          "internalType": "uint256",
          "name": "_originationFee",
          "type": "uint256"
        },
        {
          "indexed": false,
          "internalType": "uint256",
          "name": "_dueDate",
          "type": "uint256"
        },
        {
          "indexed": false,
          "internalType": "uint256",
          "name": "_proposalTimeStamp",
          "type": "uint256"
        }
      ],
      "name": "LendProposed",
      "type": "event"
    },
    {
      "anonymous": false,
      "inputs": [
        {
          "indexed": true,
          "internalType": "address",
          "name": "_collateral",
          "type": "address"
        },
        {
          "indexed": true,
          "internalType": "address",
          "name": "_reserve",
          "type": "address"
        },
        {
          "indexed": true,
          "internalType": "address",
          "name": "_user",
          "type": "address"
        },
        {
          "indexed": false,
          "internalType": "uint256",
          "name": "_purchaseAmount",
          "type": "uint256"
        },
        {
          "indexed": false,
          "internalType": "uint256",
          "name": "_liquidatedCollateralAmount",
          "type": "uint256"
        },
        {
          "indexed": false,
          "internalType": "uint256",
          "name": "_accruedBorrowInterest",
          "type": "uint256"
        },
        {
          "indexed": false,
          "internalType": "address",
          "name": "_liquidator",
          "type": "address"
        },
        {
          "indexed": false,
          "internalType": "bool",
          "name": "_receiveAToken",
          "type": "bool"
        },
        {
          "indexed": false,
          "internalType": "uint256",
          "name": "_timestamp",
          "type": "uint256"
        }
      ],
      "name": "LiquidationCall",
      "type": "event"
    },
    {
      "anonymous": false,
      "inputs": [
        {
          "indexed": true,
          "internalType": "address",
          "name": "_collateral",
          "type": "address"
        },
        {
          "indexed": true,
          "internalType": "address",
          "name": "_reserve",
          "type": "address"
        },
        {
          "indexed": true,
          "internalType": "address",
          "name": "_user",
          "type": "address"
        },
        {
          "indexed": false,
          "internalType": "uint256",
          "name": "_feeLiquidated",
          "type": "uint256"
        },
        {
          "indexed": false,
          "internalType": "uint256",
          "name": "_liquidatedCollateralForFee",
          "type": "uint256"
        },
        {
          "indexed": false,
          "internalType": "uint256",
          "name": "_timestamp",
          "type": "uint256"
        }
      ],
      "name": "OriginationFeeLiquidated",
      "type": "event"
    },
    {
      "anonymous": false,
      "inputs": [
        {
          "indexed": true,
          "internalType": "address",
          "name": "_reserve",
          "type": "address"
        },
        {
          "indexed": true,
          "internalType": "address",
          "name": "_user",
          "type": "address"
        },
        {
          "indexed": false,
          "internalType": "uint256",
          "name": "_amount",
          "type": "uint256"
        },
        {
          "indexed": false,
          "internalType": "uint256",
          "name": "_timestamp",
          "type": "uint256"
        }
      ],
      "name": "RedeemUnderlying",
      "type": "event"
    },
    {
      "anonymous": false,
      "inputs": [
        {
          "indexed": true,
          "internalType": "address",
          "name": "_reserve",
          "type": "address"
        },
        {
          "indexed": true,
          "internalType": "address",
          "name": "_user",
          "type": "address"
        },
        {
          "indexed": true,
          "internalType": "address",
          "name": "_repayer",
          "type": "address"
        },
        {
          "indexed": false,
          "internalType": "uint256",
          "name": "_amountMinusFees",
          "type": "uint256"
        },
        {
          "indexed": false,
          "internalType": "uint256",
          "name": "_fees",
          "type": "uint256"
        },
        {
          "indexed": false,
          "internalType": "uint256",
          "name": "_borrowBalanceIncrease",
          "type": "uint256"
        },
        {
          "indexed": false,
          "internalType": "uint256",
          "name": "_timestamp",
          "type": "uint256"
        }
      ],
      "name": "Repay",
      "type": "event"
    },
    {
      "anonymous": false,
      "inputs": [
        {
          "indexed": true,
          "internalType": "address",
          "name": "_reserve",
          "type": "address"
        },
        {
          "indexed": true,
          "internalType": "address",
          "name": "_user",
          "type": "address"
        }
      ],
      "name": "ReserveUsedAsCollateralDisabled",
      "type": "event"
    },
    {
      "anonymous": false,
      "inputs": [
        {
          "indexed": true,
          "internalType": "address",
          "name": "_reserve",
          "type": "address"
        },
        {
          "indexed": true,
          "internalType": "address",
          "name": "_user",
          "type": "address"
        }
      ],
      "name": "ReserveUsedAsCollateralEnabled",
      "type": "event"
    },
    {
      "inputs": [],
      "name": "LENDINGPOOL_REVISION",
      "outputs": [
        {
          "internalType": "uint256",
          "name": "",
          "type": "uint256"
        }
      ],
      "stateMutability": "view",
      "type": "function"
    },
    {
      "inputs": [],
      "name": "UINT_MAX_VALUE",
      "outputs": [
        {
          "internalType": "uint256",
          "name": "",
          "type": "uint256"
        }
      ],
      "stateMutability": "view",
      "type": "function"
    },
    {
      "inputs": [],
      "name": "addressesProvider",
      "outputs": [
        {
          "internalType": "contract LendingBoardAddressesProvider",
          "name": "",
          "type": "address"
        }
      ],
      "stateMutability": "view",
      "type": "function"
    },
    {
      "inputs": [
        {
          "internalType": "address",
          "name": "_reserve",
          "type": "address"
        },
        {
          "internalType": "uint256",
          "name": "_amount",
          "type": "uint256"
        },
        {
          "internalType": "uint256",
          "name": "_interestRateMode",
          "type": "uint256"
        }
      ],
      "name": "borrow",
      "outputs": [],
      "stateMutability": "nonpayable",
      "type": "function"
    },
    {
      "inputs": [
        {
          "internalType": "address",
          "name": "_reserveToBorrow",
          "type": "address"
        },
        {
          "internalType": "uint256",
          "name": "_amount",
          "type": "uint256"
        },
        {
          "internalType": "address",
          "name": "_reserveForCollateral",
          "type": "address"
        },
        {
          "internalType": "uint256",
          "name": "_interestRate",
          "type": "uint256"
        },
        {
          "internalType": "uint256",
          "name": "_dueDate",
          "type": "uint256"
        }
      ],
      "name": "borrowProposal",
      "outputs": [],
      "stateMutability": "nonpayable",
      "type": "function"
    },
    {
      "inputs": [
        {
          "internalType": "uint256",
          "name": "proposalId",
          "type": "uint256"
        }
      ],
      "name": "borrowProposalAccept",
      "outputs": [],
      "stateMutability": "nonpayable",
      "type": "function"
    },
    {
      "inputs": [],
      "name": "borrowProposalListCount",
      "outputs": [
        {
          "internalType": "uint256",
          "name": "",
          "type": "uint256"
        }
      ],
      "stateMutability": "view",
      "type": "function"
    },
    {
      "inputs": [],
      "name": "core",
      "outputs": [
        {
          "internalType": "contract LendingBoardCore",
          "name": "",
          "type": "address"
        }
      ],
      "stateMutability": "view",
      "type": "function"
    },
    {
      "inputs": [],
      "name": "dataProvider",
      "outputs": [
        {
          "internalType": "contract LendingBoardDataProvider",
          "name": "",
          "type": "address"
        }
      ],
      "stateMutability": "view",
      "type": "function"
    },
    {
      "inputs": [
        {
          "internalType": "address",
          "name": "_reserve",
          "type": "address"
        },
        {
          "internalType": "uint256",
          "name": "_amount",
          "type": "uint256"
        },
        {
          "internalType": "uint16",
          "name": "_referralCode",
          "type": "uint16"
        }
      ],
      "name": "deposit",
      "outputs": [],
      "stateMutability": "payable",
      "type": "function"
    },
    {
      "inputs": [
        {
          "internalType": "uint256",
          "name": "proposalId",
          "type": "uint256"
        }
      ],
      "name": "getBorrowProposal",
      "outputs": [
        {
          "internalType": "bool",
          "name": "active",
          "type": "bool"
        },
        {
          "internalType": "address",
          "name": "borrower",
          "type": "address"
        },
        {
          "internalType": "address",
          "name": "reserveToBorrow",
          "type": "address"
        },
        {
          "internalType": "uint256",
          "name": "amount",
          "type": "uint256"
        },
        {
          "internalType": "address",
          "name": "reserveForCollateral",
          "type": "address"
        },
        {
          "internalType": "uint256",
          "name": "interestRate",
          "type": "uint256"
        },
        {
          "internalType": "uint256",
          "name": "dueDate",
          "type": "uint256"
        },
        {
          "internalType": "uint256",
          "name": "proposalDate",
          "type": "uint256"
        },
        {
          "internalType": "uint256",
          "name": "ltv",
          "type": "uint256"
        }
      ],
      "stateMutability": "view",
      "type": "function"
    },
    {
      "inputs": [
        {
          "internalType": "uint256",
          "name": "startIdx",
          "type": "uint256"
        },
        {
          "internalType": "uint256",
          "name": "endIdx",
          "type": "uint256"
        }
      ],
      "name": "getBorrowProposalList",
      "outputs": [
        {
          "components": [
            {
              "internalType": "bool",
              "name": "active",
              "type": "bool"
            },
            {
              "internalType": "address",
              "name": "borrower",
              "type": "address"
            },
            {
              "internalType": "address",
              "name": "reserveToBorrow",
              "type": "address"
            },
            {
              "internalType": "uint256",
              "name": "amount",
              "type": "uint256"
            },
            {
              "internalType": "address",
              "name": "reserveForCollateral",
              "type": "address"
            },
            {
              "internalType": "uint256",
              "name": "interestRate",
              "type": "uint256"
            },
            {
              "internalType": "uint256",
              "name": "dueDate",
              "type": "uint256"
            },
            {
              "internalType": "uint256",
              "name": "proposalDate",
              "type": "uint256"
            },
            {
              "internalType": "uint256",
              "name": "borrowFee",
              "type": "uint256"
            },
            {
              "internalType": "uint256",
              "name": "ltv",
              "type": "uint256"
            }
          ],
          "internalType": "struct LendingBoardProposeMode.BorrowProposal[]",
          "name": "result",
          "type": "tuple[]"
        }
      ],
      "stateMutability": "view",
      "type": "function"
    },
    {
      "inputs": [
        {
          "internalType": "address",
          "name": "_reserve",
          "type": "address"
        }
      ],
      "name": "getReserveConfigurationData",
      "outputs": [
        {
          "internalType": "uint256",
          "name": "ltv",
          "type": "uint256"
        },
        {
          "internalType": "uint256",
          "name": "liquidationThreshold",
          "type": "uint256"
        },
        {
          "internalType": "uint256",
          "name": "liquidationBonus",
          "type": "uint256"
        },
        {
          "internalType": "address",
          "name": "interestRateStrategyAddress",
          "type": "address"
        },
        {
          "internalType": "bool",
          "name": "usageAsCollateralEnabled",
          "type": "bool"
        },
        {
          "internalType": "bool",
          "name": "borrowingEnabled",
          "type": "bool"
        },
        {
          "internalType": "bool",
          "name": "stableBorrowRateEnabled",
          "type": "bool"
        },
        {
          "internalType": "bool",
          "name": "isActive",
          "type": "bool"
        }
      ],
      "stateMutability": "view",
      "type": "function"
    },
    {
      "inputs": [
        {
          "internalType": "address",
          "name": "_reserve",
          "type": "address"
        }
      ],
      "name": "getReserveData",
      "outputs": [
        {
          "internalType": "uint256",
          "name": "totalLiquidity",
          "type": "uint256"
        },
        {
          "internalType": "uint256",
          "name": "availableLiquidity",
          "type": "uint256"
        },
        {
          "internalType": "uint256",
          "name": "totalBorrowsStable",
          "type": "uint256"
        },
        {
          "internalType": "uint256",
          "name": "totalBorrowsVariable",
          "type": "uint256"
        },
        {
          "internalType": "uint256",
          "name": "liquidityRate",
          "type": "uint256"
        },
        {
          "internalType": "uint256",
          "name": "variableBorrowRate",
          "type": "uint256"
        },
        {
          "internalType": "uint256",
          "name": "stableBorrowRate",
          "type": "uint256"
        },
        {
          "internalType": "uint256",
          "name": "averageStableBorrowRate",
          "type": "uint256"
        },
        {
          "internalType": "uint256",
          "name": "utilizationRate",
          "type": "uint256"
        },
        {
          "internalType": "uint256",
          "name": "liquidityIndex",
          "type": "uint256"
        },
        {
          "internalType": "uint256",
          "name": "variableBorrowIndex",
          "type": "uint256"
        },
        {
          "internalType": "address",
          "name": "aTokenAddress",
          "type": "address"
        },
        {
          "internalType": "uint40",
          "name": "lastUpdateTimestamp",
          "type": "uint40"
        }
      ],
      "stateMutability": "view",
      "type": "function"
    },
    {
      "inputs": [],
      "name": "getReserves",
      "outputs": [
        {
          "internalType": "address[]",
          "name": "",
          "type": "address[]"
        }
      ],
      "stateMutability": "view",
      "type": "function"
    },
    {
      "inputs": [
        {
          "internalType": "address",
          "name": "_user",
          "type": "address"
        }
      ],
      "name": "getUserAccountData",
      "outputs": [
        {
          "internalType": "uint256",
          "name": "totalLiquidityETH",
          "type": "uint256"
        },
        {
          "internalType": "uint256",
          "name": "totalCollateralETH",
          "type": "uint256"
        },
        {
          "internalType": "uint256",
          "name": "totalBorrowsETH",
          "type": "uint256"
        },
        {
          "internalType": "uint256",
          "name": "totalFeesETH",
          "type": "uint256"
        },
        {
          "internalType": "uint256",
          "name": "availableBorrowsETH",
          "type": "uint256"
        },
        {
          "internalType": "uint256",
          "name": "currentLiquidationThreshold",
          "type": "uint256"
        },
        {
          "internalType": "uint256",
          "name": "ltv",
          "type": "uint256"
        },
        {
          "internalType": "uint256",
          "name": "healthFactor",
          "type": "uint256"
        }
      ],
      "stateMutability": "view",
      "type": "function"
    },
    {
      "inputs": [
        {
          "internalType": "address",
          "name": "_reserve",
          "type": "address"
        },
        {
          "internalType": "address",
          "name": "_user",
          "type": "address"
        }
      ],
      "name": "getUserReserveData",
      "outputs": [
        {
          "internalType": "uint256",
          "name": "currentATokenBalance",
          "type": "uint256"
        },
        {
          "internalType": "uint256",
          "name": "currentBorrowBalance",
          "type": "uint256"
        },
        {
          "internalType": "uint256",
          "name": "principalBorrowBalance",
          "type": "uint256"
        },
        {
          "internalType": "uint256",
          "name": "borrowRateMode",
          "type": "uint256"
        },
        {
          "internalType": "uint256",
          "name": "borrowRate",
          "type": "uint256"
        },
        {
          "internalType": "uint256",
          "name": "liquidityRate",
          "type": "uint256"
        },
        {
          "internalType": "uint256",
          "name": "originationFee",
          "type": "uint256"
        },
        {
          "internalType": "uint256",
          "name": "variableBorrowIndex",
          "type": "uint256"
        },
        {
          "internalType": "uint256",
          "name": "lastUpdateTimestamp",
          "type": "uint256"
        },
        {
          "internalType": "bool",
          "name": "usageAsCollateralEnabled",
          "type": "bool"
        }
      ],
      "stateMutability": "view",
      "type": "function"
    },
    {
      "inputs": [
        {
          "internalType": "contract LendingBoardAddressesProvider",
          "name": "_addressesProvider",
          "type": "address"
        }
      ],
      "name": "initialize",
      "outputs": [],
      "stateMutability": "nonpayable",
      "type": "function"
    },
    {
      "inputs": [
        {
          "internalType": "address",
          "name": "_reserveToBorrow",
          "type": "address"
        },
        {
          "internalType": "uint256",
          "name": "_amount",
          "type": "uint256"
        },
        {
          "internalType": "address",
          "name": "_reserveForCollateral",
          "type": "address"
        },
        {
          "internalType": "uint256",
          "name": "_interestRate",
          "type": "uint256"
        },
        {
          "internalType": "uint256",
          "name": "_dueDate",
          "type": "uint256"
        }
      ],
      "name": "lendProposal",
      "outputs": [],
      "stateMutability": "nonpayable",
      "type": "function"
    },
    {
      "inputs": [
        {
          "internalType": "address",
          "name": "_collateral",
          "type": "address"
        },
        {
          "internalType": "address",
          "name": "_reserve",
          "type": "address"
        },
        {
          "internalType": "address",
          "name": "_user",
          "type": "address"
        },
        {
          "internalType": "uint256",
          "name": "_purchaseAmount",
          "type": "uint256"
        },
        {
          "internalType": "bool",
          "name": "_receiveAToken",
          "type": "bool"
        }
      ],
      "name": "liquidationCall",
      "outputs": [],
      "stateMutability": "payable",
      "type": "function"
    },
    {
      "inputs": [],
      "name": "parametersProvider",
      "outputs": [
        {
          "internalType": "contract LendingBoardParametersProvider",
          "name": "",
          "type": "address"
        }
      ],
      "stateMutability": "view",
      "type": "function"
    },
    {
      "inputs": [
        {
          "internalType": "address",
          "name": "_reserve",
          "type": "address"
        },
        {
          "internalType": "address payable",
          "name": "_user",
          "type": "address"
        },
        {
          "internalType": "uint256",
          "name": "_amount",
          "type": "uint256"
        },
        {
          "internalType": "uint256",
          "name": "_aTokenBalanceAfterRedeem",
          "type": "uint256"
        }
      ],
      "name": "redeemUnderlying",
      "outputs": [],
      "stateMutability": "nonpayable",
      "type": "function"
    },
    {
      "inputs": [
        {
          "internalType": "address",
          "name": "_reserve",
          "type": "address"
        },
        {
          "internalType": "uint256",
          "name": "_amount",
          "type": "uint256"
        },
        {
          "internalType": "address payable",
          "name": "_onBehalfOf",
          "type": "address"
        }
      ],
      "name": "repay",
      "outputs": [],
      "stateMutability": "payable",
      "type": "function"
    },
    {
      "inputs": [
        {
          "internalType": "address",
          "name": "_reserve",
          "type": "address"
        },
        {
          "internalType": "bool",
          "name": "_useAsCollateral",
          "type": "bool"
        }
      ],
      "name": "setUserUseReserveAsCollateral",
      "outputs": [],
      "stateMutability": "nonpayable",
      "type": "function"
    }
  ],
  "bytecode": "0x6080806040523461002557600160005560006001556000603b5561476f908161002b8239f35b600080fdfe60806040526004361015610013575b600080fd5b60003560e01c8062a718a9146101f25780630902f1ac146101e957806328dd2d01146101e057806329e6a05f146101d757806335ea6a75146101ce5780633815d34c146101c55780633e150141146101bc57806358707e06146101b35780635a3b74b9146101aa5780635ceae9c4146101a157806379cc211e146101985780638afaff021461018f5780638fabf76d146101865780639895e3d81461017d5780639a91fe9b14610174578063ab1e8a211461016b578063b334ed8614610162578063bf92857c14610159578063c1bce0b714610150578063c4d66de814610147578063c72c4d101461013e578063d0fc81d214610135578063d2d0e0661461012c5763f2f4eb261461012457600080fd5b61000e612421565b5061000e612140565b5061000e612122565b5061000e6120f8565b5061000e612009565b5061000e61198f565b5061000e61186b565b5061000e611841565b5061000e61178b565b5061000e611756565b5061000e611697565b5061000e610fce565b5061000e610f7d565b5061000e610dcb565b5061000e610d79565b5061000e610afa565b5061000e610ad0565b5061000e6109c5565b5061000e610914565b5061000e6106a0565b5061000e610681565b5061000e610552565b5061000e610441565b5061000e610216565b6001600160a01b0381160361000e57565b8015150361000e57565b5060a036600319011261000e5760043561022f816101fb565b60243561023b816101fb565b61033b60008060443561024d816101fb565b6084359461025a8661020c565b61026261272d565b61026b816144c0565b610274876144c0565b603554610291906001600160a01b03165b6001600160a01b031690565b91604051968793632bd7cfb760e11b855284600460209a8b935afa9384156103e5575b85946103b2575b5060405162a718a960e01b8982019081526001600160a01b039a8b166024830152938a166044820152989091166064808a0191909152356084890152151560a48801528660c481015b0396610318601f199889810183528261249f565b51915af461032d610327613961565b91613991565b828082518301019101613a12565b9061034c5761034a6001600055565b005b6103ae926103849261038a6103969360405195869384016014907302634b8bab4b230ba34b7b7103330b4b632b21d160651b81520190565b90613a79565b0390810183528261249f565b60405162461bcd60e51b815291829160048301613ab1565b0390fd5b6103049194506103d790893d8b116103de575b6103cf818361249f565b8101906124c1565b93906102bb565b503d6103c5565b6103ed6124d9565b6102b4565b600091031261000e57565b6020908160408183019282815285518094520193019160005b828110610424575050505090565b83516001600160a01b031685529381019392810192600101610416565b503461000e5760008060031936011261053a57603654604051630240bc6b60e21b815291908190839060049082906001600160a01b03165afa908115610545575b809161049b575b6040518061049784826103fd565b0390f35b90503d8082843e6104ac818461249f565b8201602092838183031261053d5780519067ffffffffffffffff8211610541570181601f8201121561053d578051906104e48261441f565b936104f2604051958661249f565b828552858086019360051b83010193841161053a57508401905b82821061052157505050610497915038610489565b848091835161052f816101fb565b81520191019061050c565b80fd5b8280fd5b8380fd5b61054d6124d9565b610482565b503461000e57604036600319011261000e57600435610570816101fb565b6024359061057d826101fb565b6037546040516328dd2d0160e01b81526001600160a01b03928316600482015292821660248401526101409291839183916044918391165afa8015610674575b60009081928283848590869287948896899861062a575b5061049798999a506040519a8b9a8b9895926101209895929b9a9794919b6101408b019c8b5260208b015260408a01526060890152608088015260a087015260c086015260e08501526101008401521515910152565b9850505050505050505061065891508261049793903d1061066d575b610650818361249f565b810190613b2e565b97998a999897919692959394939291906105d4565b503d610646565b61067c6124d9565b6105bd565b503461000e57600036600319011261000e576020603b54604051908152f35b503461000e57602036600319011261000e576004356106be816101fb565b6037546040516335ea6a7560e01b81526001600160a01b0392831660048201526101a0929091839183916024918391165afa8015610843575b600090819282838485868791889389958a978b998c9b61078c575b506104979b9c9d506040519d8e9d8e9b99979593919d9c9a98969492909d6101a08d019e8d5260208d015260408c015260608b015260808a015260a089015260c088015260e0870152610100860152610120850152610140840152600160a01b600190031661016083015264ffffffffff16906101800152565b9c5050505050505050505050509181813d831161083c575b6107ae818361249f565b8101031261083857805190602081015190604081015192606082015191608081015160a082015160c083015160e0840151610100850151916101208601519361014087015195610180610160890151986108078a6101fb565b01519864ffffffffff8a168a03610834576104979b9c9d509b9c99909192939495969798998d9c9b610712565b8d80fd5b5080fd5b503d6107a4565b61084b6124d9565b6106f7565b60208082019080835283518092528060408094019401926000905b83821061087a57505050505090565b909192939483610140600192885161089482825115159052565b808401516001600160a01b031682850152808601516001600160a01b031682870152606081810151908301526080808201516001600160a01b03169083015260a0818101519083015260c0808201519083015260e0808201519083015261010080820151908301526101209081015190820152019601949392019061086b565b503461000e57604036600319011261000e57600435602435610939603b54821061436d565b61096061094e610949848461317f565b6130fa565b61095b6107d082106143c8565b614446565b916000905b8281111561097b57604051806104978682610850565b806109ba6109966109c093600052603a602052604060002090565b936109a96109a382613ea5565b95613f83565b6109b38289614496565b5286614496565b50613ea5565b610965565b503461000e57602036600319011261000e576004356109e3816101fb565b603754604051633e15014160e01b81526001600160a01b039283166004820152610100929091839183916024918391165afa8015610ac3575b600090819282838490859286948796610a7e575b50604080519788526020880198909852968601969096526001600160a01b039095166060850152931515608084015292151560a083015291151560c082015290151560e08201526101009150f35b9650505050505050610aaa91508261049793903d10610abc575b610aa2818361249f565b810190613b7d565b95978897969591949293929190610a30565b503d610a98565b610acb6124d9565b610a1c565b503461000e57600036600319011261000e576038546040516001600160a01b039091168152602090f35b503461000e5760408060031936011261000e5760043590610b1a826101fb565b60243591610b278361020c565b610b2f61272d565b610b38816144c0565b610b4181614580565b603654610b56906001600160a01b0316610285565b8251630c526de560e11b81526001600160a01b0383166004820152336024820152909390610c1490602090610bf990829081816044818c5afa908115610d6c575b600091610d3f575b50610bab811515613872565b603754610bc0906001600160a01b0316610285565b88516376e9d61560e01b81526001600160a01b038916600482015233602482015260448101929092529092839190829081906064820190565b03915afa918215610d32575b600092610d05575b50506138d1565b833b1561000e578251633e94615360e21b81526001600160a01b0383166004820152336024820152811515604482015260009485908290606490829084905af18015610cf8575b610cdf575b508314610ca757815133916001600160a01b0316907e058a56ea94653cdf4f152d227ace22d4c00ad99e2a43f58cb7d9e3feb295f2908590a35b610ca46001600055565b51f35b815133916001600160a01b0316907f44c58d81365b66dd4b1a7f36c25aa97b8c71c361ee4937adc1a00000227db5dd908590a3610c9a565b80610cec610cf292612462565b806103f2565b38610c60565b610d006124d9565b610c5b565b610d249250803d10610d2b575b610d1c818361249f565b810190612b01565b3880610c0d565b503d610d12565b610d3a6124d9565b610c05565b610d5f9150823d8411610d65575b610d57818361249f565b81019061271e565b38610b9f565b503d610d4d565b610d746124d9565b610b97565b50606036600319011261000e57610dc4600435610d95816101fb565b60243560443591610da5836101fb565b610dad61272d565b610db6816144c0565b610dbf82614641565b613196565b6001600055005b503461000e57602036600319011261000e57600435603b548111610f4357610e07610e0082600052603a602052604060002090565b5460ff1690565b610497610e31610e2184600052603a602052604060002090565b5460081c6001600160a01b031690565b92610e596001610e4b83600052603a602052604060002090565b01546001600160a01b031690565b906002610e7082600052603a602052604060002090565b0154610e8b6003610e4b84600052603a602052604060002090565b6004610ea184600052603a602052604060002090565b0154906005610eba85600052603a602052604060002090565b0154926008610eeb6006610ed888600052603a602052604060002090565b015496600052603a602052604060002090565b015495604051998a998a9592919361010097949a999895919a61012088019b1515885260018060a01b03938480921660208a0152166040880152606087015216608085015260a084015260c083015260e08201520152565b60405162461bcd60e51b8152602060048201526012602482015271125b9d985b1a59081c1c9bdc1bdcd85b125960721b6044820152606490fd5b503461000e57600036600319011261000e57602060405160038152f35b60a090600319011261000e57600435610fb2816101fb565b9060243590604435610fc3816101fb565b906064359060843590565b503461000e57610fdd36610f9a565b610fe99493919461272d565b610ff2846144c0565b610ffb84614580565b61100482614641565b61100c613ac2565b94611015612a90565b60365460049061102d906001600160a01b0316610285565b60405163288d4ff760e21b81526001600160a01b038916838201908152909187918a91906020908590819083010381845afa93841561168a575b600094611669575b506035548c9060209061108a906001600160a01b0316610285565b604051631f94a27560e31b815297889182905afa95861561165c575b600096611628575b5061115d939261113a926110cf836110c860209560019052565b3390850152565b604051632e79732b60e11b81526001600160a01b038316600482015261110d908481602481865afa90811561161b575b6000916115fe575b50612b16565b60405163e240301960e01b81526001600160a01b0390921660048301529092839190829081906024820190565b03915afa9081156115f1575b6000916115d2575b50806101608701521015612bf2565b603754611172906001600160a01b0316610285565b6040516328dd2d0160e01b81526001600160a01b038916600482015233602482015290929088906111d3906111c59061014080826044818b5afa9182156115c5575b600091829361159b575b505061317f565b670de0b6b3a7640000900490565b604051633e15014160e01b81526001600160a01b038c166004820152949093908b9061010090879060249082905afa95861561158e575b600096611542575b50936113568461134e8861133361130f7fddda05bca10ccedb67628486050c0637ba56c3b1d4d271f7524748d5e3931c859f9b99611369996112e16114a09f9d8f6112d79c816112c76112b86112dc9461129560208e98819c604051808095819463b3596f0760e01b835260048301919091602081019260018060a01b03169052565b03916001600160a01b03165afa908115611535575b600091611518575b50612f66565b6112c184613be2565b90612f85565b9e8f926112d2613bfe565b61468d565b612f66565b612f85565b60405163b3596f0760e01b81526001600160a01b039092166004830152969092839190829081906024820190565b03916001600160a01b03165afa90811561150b575b6000916114ec575b5084612f85565b95611340866112d2613c53565b8a611349613c9e565b6146eb565b6112d2613cfd565b611362826112d2613d4d565b1015613da4565b60395461137e906001600160a01b0316610285565b604051630e563a7d60e41b8152336004820152602481018590529290602090849060449082905afa9283156114df575b6000936114b7575b5060606113c99101928084521515612d5c565b6001600160a01b03891660408b015260608a018390526001600160a01b03881660808b0152841515806114ad575b61140090613e16565b8460a08b0152611411428711613e62565b8560c08b01524260e08b015281516101008b01526101208a015261145c603b549961144361143e8c613ea5565b603b55565b6114578b600052603a602052604060002090565b613eb5565b51604080519283526001600160a01b039788166020840152820193909352606081019290925260808201929092524260a082015233949093169290819060c0820190565b0390a461034a6001600055565b50606485106113f7565b6113c99193506114d760609160203d602011610d6557610d57818361249f565b9391506113b6565b6114e76124d9565b6113ae565b611505915060203d602011610d6557610d57818361249f565b3861132c565b6115136124d9565b611324565b61152f91508b3d8d11610d6557610d57818361249f565b386112b2565b61153d6124d9565b6112aa565b8a96509984819394989692959b6101003d61010011611587575b611566818361249f565b810161157191613b7d565b5050505050505097505099939094969291611212565b503d61155c565b6115966124d9565b61120a565b6115b5935080919250903d1061066d57610650818361249f565b50505050505050509038806111be565b6115cd6124d9565b6111b4565b6115eb915060203d602011610d6557610d57818361249f565b3861114e565b6115f96124d9565b611146565b6116159150853d8711610d2b57610d1c818361249f565b38611107565b6116236124d9565b6110ff565b60209196509261113a926110cf61164f61115d9796853d87116103de576103cf818361249f565b98935050925092936110ae565b6116646124d9565b6110a6565b61168391945060203d602011610d6557610d57818361249f565b923861106f565b6116926124d9565b611067565b503461000e57608036600319011261000e576117216004356116b8816101fb565b602435906116c5826101fb565b6116cd61272d565b61171460018060a01b0360246020826036541660405192838092631a59df7760e11b825286891660048301525afa908115611749575b60009161172b575b50163314612783565b6064359160443591612809565b61034a6001600055565b611743915060203d81116103de576103cf818361249f565b3861170b565b6117516124d9565b611703565b503461000e57610dc461178661176b36610f9a565b505050919061177861272d565b611781816144c0565b614580565b614641565b503461000e57602036600319011261000e576004356117a8613ac2565b5080600052603a6020526117bf6040600020613f83565b90600182511515036117e857604082015160609092015161034a926001600160a01b0316614018565b60405162461bcd60e51b815260206004820152602b60248201527f4f6e6c792041637469766520426f72726f772050726f706f73616c2063616e2060448201526a1899481058d8d95c1d195960aa1b6064820152608490fd5b503461000e57600036600319011261000e576037546040516001600160a01b039091168152602090f35b503461000e57602036600319011261000e57600435611889816101fb565b603754604051632fe4a15f60e21b81526001600160a01b0392831660048201529161010091829184916024918391165afa8015611982575b60009081928283849085928694879661191b575b50610497969798506040519889988994919260e0969399989794919961010087019a8752602087015260408601526060850152608084015260a083015260c08201520152565b96975050505050505082813d831161197b575b611938818361249f565b8101031261053a57508051602082015160408301516060840151608085015160a086015160c087015160e0909701519496879695949093919291906104976118d5565b503d61192e565b61198a6124d9565b6118c1565b503461000e57606036600319011261000e576119ac6004356101fb565b6044356119b761272d565b6119c26004356144c0565b6119cd600435614580565b6119d8602435614641565b6119e0612a90565b603654611c90906040906119fc906001600160a01b0316610285565b8151632e79732b60e11b8152600480356001600160a01b031690820152611a3b90602081602481865afa908115611ffc575b600091611fe35750612b16565b846002148015611fd9575b611a4f90612b8e565b611a5885612b6e565b6101c0840190611a688683612be6565b825163e240301960e01b8152600480356001600160a01b031690820152611ab490602081602481865afa908115611fcc575b600091611fad575b50806101608801526024351115612bf2565b603754611c3f90611acd906001600160a01b0316610285565b8451632c6d0e9b60e01b815233600482015260209061010090611b5e90611b5990611b559084816024818a5afa908115611fa0575b8d60009182908390849085908697611f5b575b509260c0928592879695611b346101e0611b4f9a98019a8b9015159052565b60408501528d8401528b83015260e082015201521515612c9e565b51151590565b1590565b612cea565b603954611bbb90611b77906001600160a01b0316610285565b8851630e563a7d60e41b81523360048201526024803590820152908490829060449082905afa908115611f4e575b600091611f31575b508060608c01521515612d5c565b606089015160e08a0151918a0151838b015189516312737c3360e01b8152600480356001600160a01b031690820152602480359082015260448101939093526064830193909352608482015260a4810191909152918290818060c4810103915afa908115611f24575b600091611f05575b508060a088015260c08701511015612db2565b60018251611c4c81612b6e565b611c5581612b6e565b14611df7575b6060850151915191611c6c83612b6e565b60008451809681958294630deb1bf960e21b84526024353360043560048701612f15565b03925af1928315611dea575b6000918294611db7575b5061012083019384526101a08301918252603654611ccc906001600160a01b0316610285565b803b1561000e5760405163fa93b2a560e01b8152600480356001600160a01b031690820152336024808301919091523560448201527fe27fbad0754d6c730a8161378bc066f66fac114445968dcfc26d42a3002960139360609290919060009082908183816064810103925af18015611daa575b611d97575b505193015193516040805160243581526020810193909352820193909352606081019390935260808301919091524260a083015233916001600160a01b0360043516919060c090a361034a6001600055565b80610cec611da492612462565b38611d45565b611db26124d9565b611d40565b909350611ddc915060403d604011611de3575b611dd4818361249f565b810190612eff565b9238611ca6565b503d611dca565b611df26124d9565b611c9c565b825163710ba6c360e11b8152600480356001600160a01b03169082015233602480830191909152356044820152611e4790602081606481865afa908115611ef8575b600091611ed9575b50612e1b565b611ea8611e9e611e9760046020611e6861028560385460018060a01b031690565b88516335adc96b60e21b815292839182905afa908115611ecc575b600091611ead575b50610160890151612f66565b6064900490565b6024351115612e8d565b611c5b565b611ec6915060203d602011610d6557610d57818361249f565b38611e8b565b611ed46124d9565b611e83565b611ef2915060203d602011610d2b57610d1c818361249f565b38611e41565b611f006124d9565b611e39565b611f1e915060203d602011610d6557610d57818361249f565b38611c2c565b611f2c6124d9565b611c24565b611f489150843d8611610d6557610d57818361249f565b38611bad565b611f566124d9565b611ba5565b9250505060c09450611b4f9350611f889150883d8a11611f99575b611f80818361249f565b810190612c5d565b999598509395509193909250611b15565b503d611f76565b611fa86124d9565b611b02565b611fc6915060203d602011610d6557610d57818361249f565b38611aa2565b611fd46124d9565b611a9a565b5060018514611a46565b611615915060203d602011610d2b57610d1c818361249f565b6120046124d9565b611a2e565b503461000e57602036600319011261000e57600435612027816101fb565b60ff6002541690811591826120ef575b80156120e3575b15612087576120519082612066576124e6565b61205757005b61034a60ff1960025416600255565b612078600160ff196002541617600255565b6120826003600155565b6124e6565b60405162461bcd60e51b815260206004820152602e60248201527f436f6e747261637420696e7374616e63652068617320616c726561647920626560448201526d195b881a5b9a5d1a585b1a5e995960921b6064820152608490fd5b5060015460031161203e565b50303b15612037565b503461000e57600036600319011261000e576035546040516001600160a01b039091168152602090f35b503461000e57600036600319011261000e5760206040516000198152f35b50606036600319011261000e57600480359061215b826101fb565b6024359160443561ffff81160361000e5761217461272d565b61217d83614641565b603654612192906001600160a01b0316610285565b60408051631a59df7760e11b81526001600160a01b0384168186019081529095919491929060209081908890819083010381855afa968715612414575b6000976123f5575b5085516370a0823160e01b8152338482019081526001600160a01b039889169391908390829081906020010381875afa9283156123e8575b6000936123c9575b5050803b1561000e578651632f35bfe960e21b81526001600160a01b038716858201908152336020820152604081018790529215606084015291600091839182908490829060800103925af180156123bc575b6123a9575b50803b1561000e5784516394362e8b60e01b81523383820190815260208101859052909160009183919082908490829060400103925af1801561239c575b612389575b506036546122c8906001600160a01b0316610285565b803b1561000e5784516328fcf4d360e01b81526001600160a01b038516928101928352336020840152604083018490526000967fdcbc1c05240f31ff3ad067ef1ee35ce4997762752e3a095284754544f4c709d79361235c93919291899183919082908190606001039134905af1801561237c575b612369575b508551938452426020850152339416929081906040820190565b0390a3610ca46001600055565b80610cec61237692612462565b38612342565b6123846124d9565b61233d565b80610cec61239692612462565b386122b2565b6123a46124d9565b6122ad565b80610cec6123b692612462565b3861226f565b6123c46124d9565b61226a565b6123e0929350803d10610d6557610d57818361249f565b903880612217565b6123f06124d9565b61220f565b8161240d9298503d89116103de576103cf818361249f565b95386121d7565b61241c6124d9565b6121cf565b503461000e57600036600319011261000e576036546040516001600160a01b039091168152602090f35b50634e487b7160e01b600052604160045260246000fd5b67ffffffffffffffff811161247657604052565b61247e61244b565b604052565b6060810190811067ffffffffffffffff82111761247657604052565b90601f8019910116810190811067ffffffffffffffff82111761247657604052565b9081602091031261000e57516124d6816101fb565b90565b506040513d6000823e3d90fd5b603580546001600160a01b0319166001600160a01b039290921691821790556126729061251290610285565b6040518091630774f5f560e21b825281600460209384935afa918215612711575b6000926126f2575b50603680546001600160a01b0319166001600160a01b039384161790556125b68260048361257361028560355460018060a01b031690565b6040516352cb335b60e11b815292839182905afa9081156126e5575b6000916126c8575b501660018060a01b03166001600160601b0360a01b6037541617603755565b612614826004836125d161028560355460018060a01b031690565b604051639fabe17560e01b815292839182905afa9081156126bb575b60009161269e575b501660018060a01b03166001600160601b0360a01b6038541617603855565b603554600490829061262e906001600160a01b0316610285565b604051633efbbf0f60e21b815292839182905afa918215612691575b600092612674575b50501660018060a01b03166001600160601b0360a01b6039541617603955565b565b61268a9250803d106103de576103cf818361249f565b3880612652565b6126996124d9565b61264a565b6126b59150843d86116103de576103cf818361249f565b386125f5565b6126c36124d9565b6125ed565b6126df9150843d86116103de576103cf818361249f565b38612597565b6126ed6124d9565b61258f565b8161270a9293503d84116103de576103cf818361249f565b903861253b565b6127196124d9565b612533565b9081602091031261000e575190565b60026000541461273e576002600055565b60405162461bcd60e51b815260206004820152601f60248201527f5265656e7472616e637947756172643a207265656e7472616e742063616c6c006044820152606490fd5b1561278a57565b60405162461bcd60e51b815260206004820152604b60248201527f5468652063616c6c6572206f6620746869732066756e6374696f6e2063616e2060448201527f6f6e6c79206265207468652061546f6b656e20636f6e7472616374206f66207460648201526a686973207265736572766560a81b608482015260a490fd5b92612813846144c0565b61281c83614641565b603654612831906001600160a01b0316610285565b60405163e240301960e01b81526001600160a01b0386166004820152612874908590602081602481875afa9081156129db575b6000916129bd575b5010156129e8565b803b1561000e5760405163afcdbea360e01b81526001600160a01b0386811660048301528416602482015260448101859052911560648301526000908290608490829084905af180156129b0575b61299d575b506036546128dd906001600160a01b0316610285565b803b1561000e5760405163fa93b2a560e01b81526001600160a01b03858116600483015283166024820152604481018490527f9c4ed599cd8555b9c1e8cd7643240d7d71eb76b792948c49fcb4d411f7b6b3c692612978929091906000908290606490829084905af18015612990575b61297d575b50604080519485524260208601526001600160a01b039182169590911693918291820190565b0390a3565b80610cec61298a92612462565b38612952565b6129986124d9565b61294d565b80610cec6129aa92612462565b386128c7565b6129b86124d9565b6128c2565b6129d5915060203d8111610d6557610d57818361249f565b3861286c565b6129e36124d9565b612864565b156129ef57565b60405162461bcd60e51b815260206004820152603160248201527f5468657265206973206e6f7420656e6f756768206c697175696469747920617660448201527061696c61626c6520746f2072656465656d60781b6064820152608490fd5b60405190610200820182811067ffffffffffffffff82111761247657604052565b60405190610140820182811067ffffffffffffffff82111761247657604052565b612a98612a4e565b9060008083528060208401528060408401528060608401528060808401528060a08401528060c08401528060e08401528061010084015280610120840152806101408401528061016084015280610180840152806101a0840152806101c08401526101e0830152565b9081602091031261000e57516124d68161020c565b15612b1d57565b60405162461bcd60e51b8152602060048201526024808201527f52657365727665206973206e6f7420656e61626c656420666f7220626f72726f60448201526377696e6760e01b6064820152608490fd5b60031115612b7857565b634e487b7160e01b600052602160045260246000fd5b15612b9557565b60405162461bcd60e51b815260206004820152602360248201527f496e76616c696420696e7465726573742072617465206d6f64652073656c65636044820152621d195960ea1b6064820152608490fd5b6003821015612b785752565b15612bf957565b60405162461bcd60e51b815260206004820152603660248201527f5468657265206973206e6f7420656e6f756768206c697175696469747920617660448201527561696c61626c6520696e20746865207265736572766560501b6064820152608490fd5b91908261010091031261000e5781519160208101519160408201519160608101519160808201519160a08101519160e060c08301519201516124d68161020c565b15612ca557565b60405162461bcd60e51b815260206004820152601b60248201527f54686520636f6c6c61746572616c2062616c616e6365206973203000000000006044820152606490fd5b15612cf157565b60405162461bcd60e51b815260206004820152603f60248201527f54686520626f72726f7765722063616e20616c7265616479206265206c69717560448201527f69646174656420736f2068652063616e6e6f7420626f72726f77206d6f7265006064820152608490fd5b15612d6357565b60405162461bcd60e51b815260206004820152602160248201527f54686520616d6f756e7420746f20626f72726f7720697320746f6f20736d616c6044820152601b60fa1b6064820152608490fd5b15612db957565b60405162461bcd60e51b815260206004820152603460248201527f5468657265206973206e6f7420656e6f75676820636f6c6c61746572616c20746044820152736f20636f7665722061206e657720626f72726f7760601b6064820152608490fd5b15612e2257565b60405162461bcd60e51b815260206004820152603960248201527f557365722063616e6e6f7420626f72726f77207468652073656c65637465642060448201527f616d6f756e742077697468206120737461626c652072617465000000000000006064820152608490fd5b15612e9457565b60405162461bcd60e51b815260206004820152603c60248201527f5573657220697320747279696e6720746f20626f72726f7720746f6f206d756360448201527f68206c6971756964697479206174206120737461626c652072617465000000006064820152608490fd5b919082604091031261000e576020825192015190565b6001600160a01b039182168152911660208201526040810191909152606081019190915260a081019291906003821015612b785760800152565b50634e487b7160e01b600052601160045260246000fd5b8060001904821181151516612f79570290565b612f81612f4f565b0290565b8115612f8f570490565b634e487b7160e01b600052601260045260246000fd5b60405190610100820182811067ffffffffffffffff821117612ff6575b6040528160e06000918281528260208201528260408201528260608201528260808201528260a08201528260c08201520152565b612ffe61244b565b612fc2565b9081606091031261000e578051916040602083015192015190565b1561302557565b60405162461bcd60e51b815260206004820152602960248201527f546865207573657220646f6573206e6f74206861766520616e7920626f72726f604482015268772070656e64696e6760b81b6064820152608490fd5b1561308357565b60a460405162461bcd60e51b815260206004820152604460248201527f546f207265706179206f6e20626568616c66206f6620616e207573657220616e60448201527f206578706c6963697420616d6f756e7420746f207265706179206973206e65656064820152633232b21760e11b6084820152fd5b600190600119811161310a570190565b613112612f4f565b0190565b8119811161310a570190565b1561312957565b60405162461bcd60e51b815260206004820152602860248201527f496e76616c6964206d73672e76616c75652073656e7420666f72207468652072604482015267195c185e5b595b9d60c21b6064820152608490fd5b81811061318a570390565b613192612f4f565b0390565b61319e612fa5565b6036549091906131b6906001600160a01b0316610285565b60408051639fb8afcd60e01b81526001600160a01b038481166004830152871660248201529491939091606086604481885afa958615613865575b60009081908298613830575b5083850197885260208085019182529184528451633faacc6b60e21b81526001600160a01b0387811660048301528a1660248201529180836044818b5afa928315613823575b600093613804575b5060e0850192835273eeeeeeeeeeeeeeeeeeeeeeeeeeeeeeeeeeeeeeee6001600160a01b03888116918214606088019081529199909691958c91906132928651151561301e565b6132ad6000198214938a85159182966137f6575b505061307c565b6132ba8651885190613116565b926080850193808552816137ec575b506137e4575b506132dd611b558851151590565b80156137d9575b6132ed90613122565b815186518111156135e257505061330960a0915186519061317f565b9101818152603654909390613326906001600160a01b0316610285565b91855192818d51935114813b1561000e5760008f9161338e8e9183978f51998a988997889663da12d96f60e01b885260048801949196959260a0949160c0870198600180881b0380921688521660208701526040860152606085015260808401521515910152565b03925af180156135d5575b6135c2575b50825190816134ac575b50506036546133ca906133c3906001600160a01b0316610285565b9351151590565b600090156134a657506133de82513461317f565b955b815196843b1561000e5786516328fcf4d360e01b81526001600160a01b0392909216600483015233602483015260448201979097527fb718f0b14f03d8c3adf35b15e3da52421b042ac879e5a689011a8b1e0036773d9661348194600091839160649183915af18015613499575b613486575b5051905196519351938493339916974292859094939260609260808301968352602083015260408201520152565b0390a4565b80610cec61349392612462565b38613453565b6134a16124d9565b61344e565b956133e0565b6036546134c1906001600160a01b0316610285565b906134cc8651151590565b600090156135bc575082915b60355460049083906134f2906001600160a01b0316610285565b8b51637744894b60e11b815292839182905afa9283156135af575b600093613590575b5050803b1561000e57885163c7d1423760e01b81526001600160a01b038b81166004830152336024830152604482019590955291909316606482015291600091839160849183915af18015613583575b613570575b806133a8565b80610cec61357d92612462565b3861356a565b61358b6124d9565b613565565b6135a7929350803d106103de576103cf818361249f565b903880613515565b6135b76124d9565b61350d565b916134d8565b80610cec6135cf92612462565b3861339e565b6135dd6124d9565b613399565b9250929350935089969997949751823b1561000e578a5163da12d96f60e01b81526001600160a01b0387811660048301528d1660248201526000604482018190526064820193909352608481019190915260a4810182905291829060c490829084905af180156137cc575b6137b9575b506036546136739061366c906001600160a01b0316610285565b9651151590565b600090156137b4575081515b8251603554600490849061369b906001600160a01b0316610285565b8c51637744894b60e11b815292839182905afa9384156137a7575b600094613788575b5050873b1561000e57895163c7d1423760e01b81526001600160a01b0395861660048201528b8616602482015260448101919091529190931660648201527fb718f0b14f03d8c3adf35b15e3da52421b042ac879e5a689011a8b1e0036773d956134819360009183916084918391905af1801561377b575b613768575b50519251955192839233981696429184606091949392608082019560008352602083015260408201520152565b80610cec61377592612462565b3861373b565b6137836124d9565b613736565b61379f929450803d106103de576103cf818361249f565b9138806136be565b6137af6124d9565b6136b6565b61367f565b80610cec6137c692612462565b38613652565b6137d46124d9565b61364d565b5081513410156132e4565b8252386132cf565b90508110386132c9565b9091501633148f8b906132a6565b8161381c9294503d8511610d6557610d57818361249f565b913861324b565b61382b6124d9565b613243565b91505061385591965060603d811161385e575b61384d818361249f565b810190613003565b969190386131fd565b503d613843565b61386d6124d9565b6131f1565b1561387957565b60405162461bcd60e51b815260206004820152602a60248201527f5573657220646f6573206e6f74206861766520616e79206c69717569646974796044820152690819195c1bdcda5d195960b21b6064820152608490fd5b156138d857565b60405162461bcd60e51b815260206004820152603060248201527f55736572206465706f73697420697320616c7265616479206265696e6720757360448201526f195908185cc818dbdb1b185d195c985b60821b6064820152608490fd5b60209067ffffffffffffffff8111613954575b601f01601f19160190565b61395c61244b565b613949565b3d1561398c573d9061397282613936565b91613980604051938461249f565b82523d6000602084013e565b606090565b1561399857565b60405162461bcd60e51b815260206004820152601760248201527f4c69717569646174696f6e2063616c6c206661696c65640000000000000000006044820152606490fd5b918091926000905b8282106139fd5750116139f6575050565b6000910152565b915080602091830151818601520182916139e5565b919060408382031261000e5782519260208101519067ffffffffffffffff821161000e570181601f8201121561000e578051613a4d81613936565b92613a5b604051948561249f565b8184526020828401011161000e576124d691602080850191016139dd565b90613112602092828151948592016139dd565b90602091613aa5815180928185528580860191016139dd565b601f01601f1916010190565b9060206124d6928181520190613a8c565b60405190610140820182811067ffffffffffffffff821117613b21575b604052816101206000918281528260208201528260408201528260608201528260808201528260a08201528260c08201528260e0820152826101008201520152565b613b2961244b565b613adf565b91908261014091031261000e5781519160208101519160408201519160608101519160808201519160a08101519160c08201519160e0810151916101206101008301519201516124d68161020c565b91908261010091031261000e578151916020810151916040820151916060810151613ba7816101fb565b916080820151613bb68161020c565b9160a0810151613bc58161020c565b9160e060c0830151613bd68161020c565b9201516124d68161020c565b604d8111613bf1575b600a0a90565b613bf9612f4f565b613beb565b60405190613c0b82612483565b603382527202fb932b9b2b93b32aa37a137b93937bb901d1606d1b6040837f2020203d3e204c42504d203a72657365727665446563696d616c7320666f722060208201520152565b60405190613c6082612483565b6029825268030ba32b930b6101d160bd1b6040837f2020203d3e204c42504d203a205573657220417661696c61626c6520436f6c6c60208201520152565b60405190613cab82612483565b603a82527f6f72726f77416d6f756e744554482c20626f72726f774c5456200000000000006040837f2020203d3e204c42504d203a205f616d6f756e742c207265717565737465644260208201520152565b60405190613d0a82612483565b602e82526d037bb90283937b837b9b0b6101d160951b6040837f2020203d3e204c42504d203a20455448204e656564656420666f7220426f727260208201520152565b60405190613d5a82612483565b6035825274037b9102137b93937bb90283937b837b9b0b6101d1605d1b6040837f2020203d3e204c42504d203a20436f6c6c61746572616c204e6565646564206660208201520152565b15613dab57565b60405162461bcd60e51b815260206004820152603d60248201527f5468657265206973206e6f7420656e6f75676820636f6c6c61746572616c207460448201527f6f20636f7665722061206e657720626f72726f772070726f706f73616c0000006064820152608490fd5b15613e1d57565b60405162461bcd60e51b815260206004820152601b60248201527f496e76616c696420496e746572657374205261746520496e70757400000000006044820152606490fd5b15613e6957565b60405162461bcd60e51b8152602060048201526014602482015273125b9d985b1a5908111d594811185d194814d95d60621b6044820152606490fd5b600190600019811461310a570190565b90610120600891613edb613ec98251151590565b859060ff801983541691151516179055565b6020810151613f0f906001600160a01b03168554610100600160a81b03191660089190911b610100600160a81b0316178555565b60408101516001850180546001600160a01b039283166001600160a01b03199182161790915560608301516002870155608083015160038701805491909316911617905560a0810151600485015560c0810151600585015560e0810151600685015561010081015160078501550151910155565b906008613f8e612a6f565b92613fb58154613fa360ff8216879015159052565b831c6001600160a01b03166020860152565b60018101546001600160a01b031660408501526002810154606085015260038101546001600160a01b03166080850152600481015460a0850152600581015460c0850152600681015460e085015260078101546101008501520154610120830152565b9061402161272d565b61402a826144c0565b61403382614580565b61403c81614641565b603754614051906001600160a01b0316610285565b604080516328dd2d0160e01b81526001600160a01b03851660048201523360248201529092916140af9183916140a89190610140908190839060449082905afa9182156115c557600091829361159b57505061317f565b10156142a0565b6140c6610e2185600052603a602052604060002090565b603654614156906140df906001600160a01b0316610285565b848460076140f78a600052603a602052604060002090565b01548251630deb1bf960e21b81526001600160a01b038a8116600483015287166024820152604481019290925260648201526001608482015291829060a49082906000905af1908115614293575b600091614274575b506112d261431e565b6036546001600160a01b039182169490614171908316610285565b803b1561000e57845163fa93b2a560e01b81526001600160a01b03838116600483015287166024820152604481018590527f1d5f1286927606ccc65484e7c2d0e9e65df4f504f9e6f173819c9c9114ea674094614247929091906000908290606490829084905af18015614267575b614254575b506142076141fd89600052603a602052604060002090565b805460ff19169055565b600761421d89600052603a602052604060002090565b01549551338152602081019190915260408101959095524260608601529116929081906080820190565b0390a46126726001600055565b80610cec61426192612462565b386141e5565b61426f6124d9565b6141e0565b61428b9150853d8711611de357611dd4818361249f565b90503861414d565b61429b6124d9565b614145565b156142a757565b60a460405162461bcd60e51b815260206004820152604460248201527f4c656e64657220646f65736e2774206861766520656e6f75676820526573657260448201527f76652042616c616e636520746f2041636365707420426f72726f772050726f706064820152631bdcd85b60e21b6084820152fd5b6040519061432b82612483565b602d82526c01024b731b932b0b9b2b2101d1609d1b6040837f2020203d3e204c42504d203a205573657220426f72726f772042616c616e636560208201520152565b1561437457565b60405162461bcd60e51b815260206004820152602660248201527f456e6420496e646578206f76657220626f72726f7750726f706f73616c4c69736044820152651d10dbdd5b9d60d21b6064820152608490fd5b156143cf57565b60405162461bcd60e51b815260206004820152602260248201527f4d6178696d756d203230303020697465726174696f6e207065722072657175656044820152611cdd60f21b6064820152608490fd5b60209067ffffffffffffffff8111614439575b60051b0190565b61444161244b565b614432565b906144508261441f565b61445d604051918261249f565b828152809261446e601f199161441f565b019060005b82811061447f57505050565b60209061448a613ac2565b82828501015201614473565b80518210156144aa5760209160051b010190565b634e487b7160e01b600052603260045260246000fd5b603654604051630283aeb760e11b81526001600160a01b0392831660048201529160209183916024918391165afa908115614573575b600091614555575b501561450657565b60405162461bcd60e51b815260206004820152602160248201527f416374696f6e20726571756972657320616e20616374697665207265736572766044820152606560f81b6064820152608490fd5b61456d915060203d8111610d2b57610d1c818361249f565b386144fe565b61457b6124d9565b6144f6565b603654604051634a08accb60e01b81526001600160a01b0392831660048201529160209183916024918391165afa908115614634575b600091614616575b506145c557565b60405162461bcd60e51b8152602060048201526024808201527f416374696f6e20726571756972657320616e20756e667265657a6564207265736044820152636572766560e01b6064820152608490fd5b61462e915060203d8111610d2b57610d1c818361249f565b386145be565b61463c6124d9565b6145b6565b1561464857565b60405162461bcd60e51b815260206004820152601d60248201527f416d6f756e74206d7573742062652067726561746572207468616e20300000006044820152606490fd5b6146d06146bc9161267293604051938492632d839cb360e21b6020850152604060248501526064840190613a8c565b90604483015203601f19810183528261249f565b600080916020815191016a636f6e736f6c652e6c6f675afa50565b6146d0916126729461471b9460405195869463a7a8785360e01b60208701526080602487015260a4860190613a8c565b9260448501526064840152608483015203601f19810183528261249f56fea26469706673582212205f12ae5b572f1f5160360883fae75b9d47242749e1cffb455bbcf1640d1baaf264736f6c634300080d0033",
  "linkReferences": {},
  "deployedLinkReferences": {}
}