{
  "_format": "hh-sol-artifact-1",
  "contractName": "LendingBoardProposeMode",
  "sourceName": "contracts/lendingboard/LendingBoardProposeMode.sol",
  "abi": [
    {
      "anonymous": false,
      "inputs": [
        {
          "indexed": true,
          "internalType": "address",
          "name": "_reserve",
          "type": "address"
        },
        {
          "indexed": true,
          "internalType": "address",
          "name": "_user",
          "type": "address"
        },
        {
          "indexed": false,
          "internalType": "uint256",
          "name": "_amount",
          "type": "uint256"
        },
        {
          "indexed": false,
          "internalType": "uint256",
          "name": "_borrowRateMode",
          "type": "uint256"
        },
        {
          "indexed": false,
          "internalType": "uint256",
          "name": "_borrowRate",
          "type": "uint256"
        },
        {
          "indexed": false,
          "internalType": "uint256",
          "name": "_originationFee",
          "type": "uint256"
        },
        {
          "indexed": false,
          "internalType": "uint256",
          "name": "_borrowBalanceIncrease",
          "type": "uint256"
        },
        {
          "indexed": false,
          "internalType": "uint256",
          "name": "_timestamp",
          "type": "uint256"
        }
      ],
      "name": "Borrow",
      "type": "event"
    },
    {
      "anonymous": false,
      "inputs": [
        {
          "indexed": true,
          "internalType": "address",
          "name": "_reserve",
          "type": "address"
        },
        {
          "indexed": true,
          "internalType": "address",
          "name": "_user",
          "type": "address"
        },
        {
          "indexed": false,
          "internalType": "uint256",
          "name": "_amount",
          "type": "uint256"
        },
        {
          "indexed": false,
          "internalType": "uint256",
          "name": "_timestamp",
          "type": "uint256"
        }
      ],
      "name": "Deposit",
      "type": "event"
    },
    {
      "anonymous": false,
      "inputs": [
        {
          "indexed": true,
          "internalType": "address",
          "name": "_collateral",
          "type": "address"
        },
        {
          "indexed": true,
          "internalType": "address",
          "name": "_reserve",
          "type": "address"
        },
        {
          "indexed": true,
          "internalType": "address",
          "name": "_user",
          "type": "address"
        },
        {
          "indexed": false,
          "internalType": "uint256",
          "name": "_purchaseAmount",
          "type": "uint256"
        },
        {
          "indexed": false,
          "internalType": "uint256",
          "name": "_liquidatedCollateralAmount",
          "type": "uint256"
        },
        {
          "indexed": false,
          "internalType": "uint256",
          "name": "_accruedBorrowInterest",
          "type": "uint256"
        },
        {
          "indexed": false,
          "internalType": "address",
          "name": "_liquidator",
          "type": "address"
        },
        {
          "indexed": false,
          "internalType": "bool",
          "name": "_receiveAToken",
          "type": "bool"
        },
        {
          "indexed": false,
          "internalType": "uint256",
          "name": "_timestamp",
          "type": "uint256"
        }
      ],
      "name": "LiquidationCall",
      "type": "event"
    },
    {
      "anonymous": false,
      "inputs": [
        {
          "indexed": true,
          "internalType": "address",
          "name": "_collateral",
          "type": "address"
        },
        {
          "indexed": true,
          "internalType": "address",
          "name": "_reserve",
          "type": "address"
        },
        {
          "indexed": true,
          "internalType": "address",
          "name": "_user",
          "type": "address"
        },
        {
          "indexed": false,
          "internalType": "uint256",
          "name": "_feeLiquidated",
          "type": "uint256"
        },
        {
          "indexed": false,
          "internalType": "uint256",
          "name": "_liquidatedCollateralForFee",
          "type": "uint256"
        },
        {
          "indexed": false,
          "internalType": "uint256",
          "name": "_timestamp",
          "type": "uint256"
        }
      ],
      "name": "OriginationFeeLiquidated",
      "type": "event"
    },
    {
      "anonymous": false,
      "inputs": [
        {
          "indexed": true,
          "internalType": "address",
          "name": "_reserve",
          "type": "address"
        },
        {
          "indexed": true,
          "internalType": "address",
          "name": "_user",
          "type": "address"
        },
        {
          "indexed": false,
          "internalType": "uint256",
          "name": "_amount",
          "type": "uint256"
        },
        {
          "indexed": false,
          "internalType": "uint256",
          "name": "_timestamp",
          "type": "uint256"
        }
      ],
      "name": "RedeemUnderlying",
      "type": "event"
    },
    {
      "anonymous": false,
      "inputs": [
        {
          "indexed": true,
          "internalType": "address",
          "name": "_reserve",
          "type": "address"
        },
        {
          "indexed": true,
          "internalType": "address",
          "name": "_user",
          "type": "address"
        },
        {
          "indexed": true,
          "internalType": "address",
          "name": "_repayer",
          "type": "address"
        },
        {
          "indexed": false,
          "internalType": "uint256",
          "name": "_amountMinusFees",
          "type": "uint256"
        },
        {
          "indexed": false,
          "internalType": "uint256",
          "name": "_fees",
          "type": "uint256"
        },
        {
          "indexed": false,
          "internalType": "uint256",
          "name": "_borrowBalanceIncrease",
          "type": "uint256"
        },
        {
          "indexed": false,
          "internalType": "uint256",
          "name": "_timestamp",
          "type": "uint256"
        }
      ],
      "name": "Repay",
      "type": "event"
    },
    {
      "anonymous": false,
      "inputs": [
        {
          "indexed": true,
          "internalType": "address",
          "name": "_reserve",
          "type": "address"
        },
        {
          "indexed": true,
          "internalType": "address",
          "name": "_user",
          "type": "address"
        }
      ],
      "name": "ReserveUsedAsCollateralDisabled",
      "type": "event"
    },
    {
      "anonymous": false,
      "inputs": [
        {
          "indexed": true,
          "internalType": "address",
          "name": "_reserve",
          "type": "address"
        },
        {
          "indexed": true,
          "internalType": "address",
          "name": "_user",
          "type": "address"
        }
      ],
      "name": "ReserveUsedAsCollateralEnabled",
      "type": "event"
    },
    {
      "inputs": [],
      "name": "LENDINGPOOL_REVISION",
      "outputs": [
        {
          "internalType": "uint256",
          "name": "",
          "type": "uint256"
        }
      ],
      "stateMutability": "view",
      "type": "function"
    },
    {
      "inputs": [],
      "name": "UINT_MAX_VALUE",
      "outputs": [
        {
          "internalType": "uint256",
          "name": "",
          "type": "uint256"
        }
      ],
      "stateMutability": "view",
      "type": "function"
    },
    {
      "inputs": [],
      "name": "addressesProvider",
      "outputs": [
        {
          "internalType": "contract LendingBoardAddressesProvider",
          "name": "",
          "type": "address"
        }
      ],
      "stateMutability": "view",
      "type": "function"
    },
    {
      "inputs": [
        {
          "internalType": "address",
          "name": "_reserve",
          "type": "address"
        },
        {
          "internalType": "uint256",
          "name": "_amount",
          "type": "uint256"
        },
        {
          "internalType": "uint256",
          "name": "_interestRateMode",
          "type": "uint256"
        }
      ],
      "name": "borrow",
      "outputs": [],
      "stateMutability": "nonpayable",
      "type": "function"
    },
    {
      "inputs": [],
      "name": "core",
      "outputs": [
        {
          "internalType": "contract LendingBoardCore",
          "name": "",
          "type": "address"
        }
      ],
      "stateMutability": "view",
      "type": "function"
    },
    {
      "inputs": [],
      "name": "dataProvider",
      "outputs": [
        {
          "internalType": "contract LendingBoardDataProvider",
          "name": "",
          "type": "address"
        }
      ],
      "stateMutability": "view",
      "type": "function"
    },
    {
      "inputs": [
        {
          "internalType": "address",
          "name": "_reserve",
          "type": "address"
        },
        {
          "internalType": "uint256",
          "name": "_amount",
          "type": "uint256"
        },
        {
          "internalType": "uint16",
          "name": "_referralCode",
          "type": "uint16"
        }
      ],
      "name": "deposit",
      "outputs": [],
      "stateMutability": "payable",
      "type": "function"
    },
    {
      "inputs": [
        {
          "internalType": "address",
          "name": "_reserve",
          "type": "address"
        }
      ],
      "name": "getReserveConfigurationData",
      "outputs": [
        {
          "internalType": "uint256",
          "name": "ltv",
          "type": "uint256"
        },
        {
          "internalType": "uint256",
          "name": "liquidationThreshold",
          "type": "uint256"
        },
        {
          "internalType": "uint256",
          "name": "liquidationBonus",
          "type": "uint256"
        },
        {
          "internalType": "address",
          "name": "interestRateStrategyAddress",
          "type": "address"
        },
        {
          "internalType": "bool",
          "name": "usageAsCollateralEnabled",
          "type": "bool"
        },
        {
          "internalType": "bool",
          "name": "borrowingEnabled",
          "type": "bool"
        },
        {
          "internalType": "bool",
          "name": "stableBorrowRateEnabled",
          "type": "bool"
        },
        {
          "internalType": "bool",
          "name": "isActive",
          "type": "bool"
        }
      ],
      "stateMutability": "view",
      "type": "function"
    },
    {
      "inputs": [
        {
          "internalType": "address",
          "name": "_reserve",
          "type": "address"
        }
      ],
      "name": "getReserveData",
      "outputs": [
        {
          "internalType": "uint256",
          "name": "totalLiquidity",
          "type": "uint256"
        },
        {
          "internalType": "uint256",
          "name": "availableLiquidity",
          "type": "uint256"
        },
        {
          "internalType": "uint256",
          "name": "totalBorrowsStable",
          "type": "uint256"
        },
        {
          "internalType": "uint256",
          "name": "totalBorrowsVariable",
          "type": "uint256"
        },
        {
          "internalType": "uint256",
          "name": "liquidityRate",
          "type": "uint256"
        },
        {
          "internalType": "uint256",
          "name": "variableBorrowRate",
          "type": "uint256"
        },
        {
          "internalType": "uint256",
          "name": "stableBorrowRate",
          "type": "uint256"
        },
        {
          "internalType": "uint256",
          "name": "averageStableBorrowRate",
          "type": "uint256"
        },
        {
          "internalType": "uint256",
          "name": "utilizationRate",
          "type": "uint256"
        },
        {
          "internalType": "uint256",
          "name": "liquidityIndex",
          "type": "uint256"
        },
        {
          "internalType": "uint256",
          "name": "variableBorrowIndex",
          "type": "uint256"
        },
        {
          "internalType": "address",
          "name": "aTokenAddress",
          "type": "address"
        },
        {
          "internalType": "uint40",
          "name": "lastUpdateTimestamp",
          "type": "uint40"
        }
      ],
      "stateMutability": "view",
      "type": "function"
    },
    {
      "inputs": [],
      "name": "getReserves",
      "outputs": [
        {
          "internalType": "address[]",
          "name": "",
          "type": "address[]"
        }
      ],
      "stateMutability": "view",
      "type": "function"
    },
    {
      "inputs": [
        {
          "internalType": "address",
          "name": "_user",
          "type": "address"
        }
      ],
      "name": "getUserAccountData",
      "outputs": [
        {
          "internalType": "uint256",
          "name": "totalLiquidityETH",
          "type": "uint256"
        },
        {
          "internalType": "uint256",
          "name": "totalCollateralETH",
          "type": "uint256"
        },
        {
          "internalType": "uint256",
          "name": "totalBorrowsETH",
          "type": "uint256"
        },
        {
          "internalType": "uint256",
          "name": "totalFeesETH",
          "type": "uint256"
        },
        {
          "internalType": "uint256",
          "name": "availableBorrowsETH",
          "type": "uint256"
        },
        {
          "internalType": "uint256",
          "name": "currentLiquidationThreshold",
          "type": "uint256"
        },
        {
          "internalType": "uint256",
          "name": "ltv",
          "type": "uint256"
        },
        {
          "internalType": "uint256",
          "name": "healthFactor",
          "type": "uint256"
        }
      ],
      "stateMutability": "view",
      "type": "function"
    },
    {
      "inputs": [
        {
          "internalType": "address",
          "name": "_reserve",
          "type": "address"
        },
        {
          "internalType": "address",
          "name": "_user",
          "type": "address"
        }
      ],
      "name": "getUserReserveData",
      "outputs": [
        {
          "internalType": "uint256",
          "name": "currentATokenBalance",
          "type": "uint256"
        },
        {
          "internalType": "uint256",
          "name": "currentBorrowBalance",
          "type": "uint256"
        },
        {
          "internalType": "uint256",
          "name": "principalBorrowBalance",
          "type": "uint256"
        },
        {
          "internalType": "uint256",
          "name": "borrowRateMode",
          "type": "uint256"
        },
        {
          "internalType": "uint256",
          "name": "borrowRate",
          "type": "uint256"
        },
        {
          "internalType": "uint256",
          "name": "liquidityRate",
          "type": "uint256"
        },
        {
          "internalType": "uint256",
          "name": "originationFee",
          "type": "uint256"
        },
        {
          "internalType": "uint256",
          "name": "variableBorrowIndex",
          "type": "uint256"
        },
        {
          "internalType": "uint256",
          "name": "lastUpdateTimestamp",
          "type": "uint256"
        },
        {
          "internalType": "bool",
          "name": "usageAsCollateralEnabled",
          "type": "bool"
        }
      ],
      "stateMutability": "view",
      "type": "function"
    },
    {
      "inputs": [
        {
          "internalType": "contract LendingBoardAddressesProvider",
          "name": "_addressesProvider",
          "type": "address"
        }
      ],
      "name": "initialize",
      "outputs": [],
      "stateMutability": "nonpayable",
      "type": "function"
    },
    {
      "inputs": [
        {
          "internalType": "address",
          "name": "_collateral",
          "type": "address"
        },
        {
          "internalType": "address",
          "name": "_reserve",
          "type": "address"
        },
        {
          "internalType": "address",
          "name": "_user",
          "type": "address"
        },
        {
          "internalType": "uint256",
          "name": "_purchaseAmount",
          "type": "uint256"
        },
        {
          "internalType": "bool",
          "name": "_receiveAToken",
          "type": "bool"
        }
      ],
      "name": "liquidationCall",
      "outputs": [],
      "stateMutability": "payable",
      "type": "function"
    },
    {
      "inputs": [],
      "name": "parametersProvider",
      "outputs": [
        {
          "internalType": "contract LendingBoardParametersProvider",
          "name": "",
          "type": "address"
        }
      ],
      "stateMutability": "view",
      "type": "function"
    },
    {
      "inputs": [
        {
          "internalType": "address",
          "name": "_reserve",
          "type": "address"
        },
        {
          "internalType": "address payable",
          "name": "_user",
          "type": "address"
        },
        {
          "internalType": "uint256",
          "name": "_amount",
          "type": "uint256"
        },
        {
          "internalType": "uint256",
          "name": "_aTokenBalanceAfterRedeem",
          "type": "uint256"
        }
      ],
      "name": "redeemUnderlying",
      "outputs": [],
      "stateMutability": "nonpayable",
      "type": "function"
    },
    {
      "inputs": [
        {
          "internalType": "address",
          "name": "_reserve",
          "type": "address"
        },
        {
          "internalType": "uint256",
          "name": "_amount",
          "type": "uint256"
        },
        {
          "internalType": "address payable",
          "name": "_onBehalfOf",
          "type": "address"
        }
      ],
      "name": "repay",
      "outputs": [],
      "stateMutability": "payable",
      "type": "function"
    },
    {
      "inputs": [
        {
          "internalType": "address",
          "name": "_reserve",
          "type": "address"
        },
        {
          "internalType": "bool",
          "name": "_useAsCollateral",
          "type": "bool"
        }
      ],
      "name": "setUserUseReserveAsCollateral",
      "outputs": [],
      "stateMutability": "nonpayable",
      "type": "function"
    }
  ],
  "bytecode": "0x60808060405234610020576001600055600060015561314690816100268239f35b600080fdfe60806040526004361015610013575b600080fd5b60003560e01c8062a718a91461017a5780630902f1ac1461017157806328dd2d011461016857806335ea6a751461015f5780633e1501411461015657806358707e061461014d5780635a3b74b9146101445780635ceae9c41461013b5780638afaff02146101325780639895e3d814610129578063b334ed8614610120578063bf92857c14610117578063c1bce0b71461010e578063c4d66de814610105578063c72c4d10146100fc578063d0fc81d2146100f3578063d2d0e066146100ea5763f2f4eb26146100e257600080fd5b61000e611919565b5061000e611638565b5061000e61161a565b5061000e6115f0565b5061000e611501565b5061000e610e80565b5061000e610d5c565b5061000e610d32565b5061000e610c73565b5061000e610c56565b5061000e610c04565b5061000e610985565b5061000e61095b565b5061000e6107fe565b5061000e610652565b5061000e6104e8565b5061000e6103c9565b5061000e61019e565b6001600160a01b0381160361000e57565b8015150361000e57565b5060a036600319011261000e576004356101b781610183565b6024356101c381610183565b6102c36000806044356101d581610183565b608435946101e286610194565b6101ea611c09565b6101f381612f43565b6101fc87612f43565b603554610219906001600160a01b03165b6001600160a01b031690565b91604051968793632bd7cfb760e11b855284600460209a8b935afa93841561036d575b859461033a575b5060405162a718a960e01b8982019081526001600160a01b039a8b166024830152938a166044820152989091166064808a0191909152356084890152151560a48801528660c481015b03966102a0601f199889810183528261197b565b51915af46102b56102af612dec565b91612e1c565b828082518301019101612e9d565b906102d4576102d26001600055565b005b6103369261030c9261031261031e9360405195869384016014907302634b8bab4b230ba34b7b7103330b4b632b21d160651b81520190565b90612f04565b0390810183528261197b565b60405162461bcd60e51b815291829160048301612f17565b0390fd5b61028c91945061035f90893d8b11610366575b610357818361197b565b81019061199d565b9390610243565b503d61034d565b6103756119b5565b61023c565b600091031261000e57565b6020908160408183019282815285518094520193019160005b8281106103ac575050505090565b83516001600160a01b03168552938101939281019260010161039e565b503461000e576000806003193601126104c357603654604051630240bc6b60e21b8152908290829060049082906001600160a01b03165afa9081156104db575b8291610422575b6040518061041e8482610385565b0390f35b90503d8083833e610433818361197b565b810160209283838303126104c357825167ffffffffffffffff938482116104d7570182601f820112156104d35780519384116104c6575b8360051b916040519461047f8785018761197b565b855285808601938301019384116104c357508401905b8282106104aa5750505061041e915038610410565b84809183516104b881610183565b815201910190610495565b80fd5b6104ce611943565b61046a565b5080fd5b8280fd5b6104e36119b5565b610409565b503461000e57604036600319011261000e5760043561050681610183565b60243561051281610183565b6037546040516328dd2d0160e01b81526001600160a01b0393841660048201529183166024830152909161014091829184916044918391165afa8015610645575b6000908192828384859086928794889689986105c0575b5061041e98999a506040519a8b9a8b9895926101209895929b9a9794919b6101408b019c8b5260208b015260408a01526060890152608088015260a087015260c086015260e08501526101008401521515910152565b989950505050505050505082813d831161063e575b6105df818361197b565b810103126104c3575080519061041e602082015191604081015193606082015191608081015160a082015160c08301519060e0840151926101206101008601519501519561062c87610194565b989996909192939495968a999861056a565b503d6105d5565b61064d6119b5565b610553565b503461000e57602036600319011261000e5760043561067081610183565b6037546040516335ea6a7560e01b81526001600160a01b0392831660048201526101a0929091839183916024918391165afa80156107f1575b600090819282838485868791889389958a978b998c9b61073e575b5061041e9b9c9d506040519d8e9d8e9b99979593919d9c9a98969492909d6101a08d019e8d5260208d015260408c015260608b015260808a015260a089015260c088015260e0870152610100860152610120850152610140840152600160a01b600190031661016083015264ffffffffff16906101800152565b9c5050505050505050505050509181813d83116107ea575b610760818361197b565b810103126104d357805190602081015190604081015192606082015191608081015160a082015160c083015160e0840151610100850151916101208601519361014087015195610180610160890151986107b98a610183565b01519864ffffffffff8a168a036107e65761041e9b9c9d509b9c99909192939495969798998d9c9b6106c4565b8d80fd5b503d610756565b6107f96119b5565b6106a9565b503461000e57602036600319011261000e5760043561081c81610183565b603754604051633e15014160e01b81526001600160a01b0392831660048201529161010091829184916024918391165afa801561094e575b6000908192828384908592869487966108b6575b50604080519788526020880198909852968601969096526001600160a01b039095166060850152931515608084015292151560a083015291151560c082015290151560e08201526101009150f35b96975050505050505082813d8311610947575b6108d3818361197b565b810103126104c3575080519061041e6020820151916040810151936060820151916108fd83610183565b608081015161090b81610194565b60a08201519061091a82610194565b60e060c08401519361092b85610194565b01519361093785610194565b9697949091929394889796610868565b503d6108c9565b6109566119b5565b610854565b503461000e57600036600319011261000e576038546040516001600160a01b039091168152602090f35b503461000e5760408060031936011261000e57600435906109a582610183565b602435916109b283610194565b6109ba611c09565b6109c381612f43565b6109cc81613003565b6036546109e1906001600160a01b031661020d565b8251630c526de560e11b81526001600160a01b0383166004820152336024820152909390610a9f90602090610a8490829081816044818c5afa908115610bf7575b600091610bca575b50610a36811515612cfd565b603754610a4b906001600160a01b031661020d565b88516376e9d61560e01b81526001600160a01b038916600482015233602482015260448101929092529092839190829081906064820190565b03915afa918215610bbd575b600092610b90575b5050612d5c565b833b1561000e578251633e94615360e21b81526001600160a01b0383166004820152336024820152811515604482015260009485908290606490829084905af18015610b83575b610b6a575b508314610b3257815133916001600160a01b0316907e058a56ea94653cdf4f152d227ace22d4c00ad99e2a43f58cb7d9e3feb295f2908590a35b610b2f6001600055565b51f35b815133916001600160a01b0316907f44c58d81365b66dd4b1a7f36c25aa97b8c71c361ee4937adc1a00000227db5dd908590a3610b25565b80610b77610b7d9261195a565b8061037a565b38610aeb565b610b8b6119b5565b610ae6565b610baf9250803d10610bb6575b610ba7818361197b565b810190611fbc565b3880610a98565b503d610b9d565b610bc56119b5565b610a90565b610bea9150823d8411610bf0575b610be2818361197b565b810190611bfa565b38610a2a565b503d610bd8565b610bff6119b5565b610a22565b50606036600319011261000e57610c4f600435610c2081610183565b60243560443591610c3083610183565b610c38611c09565b610c4181612f43565b610c4a826130c4565b612621565b6001600055005b503461000e57600036600319011261000e57602060405160038152f35b503461000e57608036600319011261000e57610cfd600435610c9481610183565b60243590610ca182610183565b610ca9611c09565b610cf060018060a01b0360246020826036541660405192838092631a59df7760e11b825286891660048301525afa908115610d25575b600091610d07575b50163314611c5f565b6064359160443591611ce5565b6102d26001600055565b610d1f915060203d811161036657610357818361197b565b38610ce7565b610d2d6119b5565b610cdf565b503461000e57600036600319011261000e576037546040516001600160a01b039091168152602090f35b503461000e57602036600319011261000e57600435610d7a81610183565b603754604051632fe4a15f60e21b81526001600160a01b0392831660048201529161010091829184916024918391165afa8015610e73575b600090819282838490859286948796610e0c575b5061041e969798506040519889988994919260e0969399989794919961010087019a8752602087015260408601526060850152608084015260a083015260c08201520152565b96975050505050505082813d8311610e6c575b610e29818361197b565b810103126104c357508051602082015160408301516060840151608085015160a086015160c087015160e09097015194968796959490939192919061041e610dc6565b503d610e1f565b610e7b6119b5565b610db2565b503461000e57606036600319011261000e57610e9d600435610183565b604435610ea8611c09565b610eb3600435612f43565b610ebe600435613003565b610ec96024356130c4565b610ed1611f4b565b60365461118290604090610eed906001600160a01b031661020d565b8151632e79732b60e11b8152600480356001600160a01b031690820152610f2d90602081602481865afa9081156114f4575b6000916114d5575b50611fd1565b8460021480156114cb575b610f4190612049565b610f4a85612029565b6101c0840190610f5a86836120a1565b825163e240301960e01b8152600480356001600160a01b031690820152610fa690602081602481865afa9081156114be575b60009161149f575b508061016088015260243511156120ad565b60375461113190610fbf906001600160a01b031661020d565b8451632c6d0e9b60e01b8152336004820152602090610100906110509061104b906110479084816024818a5afa908115611492575b8d6000918290839084908590869761144d575b509260c09285928796956110266101e06110419a98019a8b9015159052565b60408501528d8401528b83015260e082015201521515612159565b51151590565b1590565b6121a5565b6039546110ad90611069906001600160a01b031661020d565b8851630e563a7d60e41b81523360048201526024803590820152908490829060449082905afa908115611440575b600091611423575b508060608c01521515612217565b606089015160e08a0151918a0151838b015189516312737c3360e01b8152600480356001600160a01b031690820152602480359082015260448101939093526064830193909352608482015260a4810191909152918290818060c4810103915afa908115611416575b6000916113f7575b508060a088015260c0870151101561226d565b6001825161113e81612029565b61114781612029565b146112e9575b606085015191519161115e83612029565b60008451809681958294630deb1bf960e21b845260243533600435600487016123d0565b03925af19283156112dc575b60009182946112a9575b5061012083019384526101a083019182526036546111be906001600160a01b031661020d565b803b1561000e5760405163fa93b2a560e01b8152600480356001600160a01b031690820152336024808301919091523560448201527fe27fbad0754d6c730a8161378bc066f66fac114445968dcfc26d42a3002960139360609290919060009082908183816064810103925af1801561129c575b611289575b505193015193516040805160243581526020810193909352820193909352606081019390935260808301919091524260a083015233916001600160a01b0360043516919060c090a36102d26001600055565b80610b776112969261195a565b38611237565b6112a46119b5565b611232565b9093506112ce915060403d6040116112d5575b6112c6818361197b565b8101906123ba565b9238611198565b503d6112bc565b6112e46119b5565b61118e565b825163710ba6c360e11b8152600480356001600160a01b0316908201523360248083019190915235604482015261133990602081606481865afa9081156113ea575b6000916113cb575b506122d6565b61139a6113906113896004602061135a61020d60385460018060a01b031690565b88516335adc96b60e21b815292839182905afa9081156113be575b60009161139f575b50610160890151612421565b6064900490565b6024351115612348565b61114d565b6113b8915060203d602011610bf057610be2818361197b565b3861137d565b6113c66119b5565b611375565b6113e4915060203d602011610bb657610ba7818361197b565b38611333565b6113f26119b5565b61132b565b611410915060203d602011610bf057610be2818361197b565b3861111e565b61141e6119b5565b611116565b61143a9150843d8611610bf057610be2818361197b565b3861109f565b6114486119b5565b611097565b9250505060c09450611041935061147a9150883d8a1161148b575b611472818361197b565b810190612118565b999598509395509193909250611007565b503d611468565b61149a6119b5565b610ff4565b6114b8915060203d602011610bf057610be2818361197b565b38610f94565b6114c66119b5565b610f8c565b5060018514610f38565b6114ee915060203d602011610bb657610ba7818361197b565b38610f27565b6114fc6119b5565b610f1f565b503461000e57602036600319011261000e5760043561151f81610183565b60ff6002541690811591826115e7575b80156115db575b1561157f57611549908261155e576119c2565b61154f57005b6102d260ff1960025416600255565b611570600160ff196002541617600255565b61157a6003600155565b6119c2565b60405162461bcd60e51b815260206004820152602e60248201527f436f6e747261637420696e7374616e63652068617320616c726561647920626560448201526d195b881a5b9a5d1a585b1a5e995960921b6064820152608490fd5b50600154600311611536565b50303b1561152f565b503461000e57600036600319011261000e576035546040516001600160a01b039091168152602090f35b503461000e57600036600319011261000e5760206040516000198152f35b50606036600319011261000e57600480359061165382610183565b6024359160443561ffff81160361000e5761166c611c09565b611675836130c4565b60365461168a906001600160a01b031661020d565b60408051631a59df7760e11b81526001600160a01b0384168186019081529095919491929060209081908890819083010381855afa96871561190c575b6000976118ed575b5085516370a0823160e01b8152338482019081526001600160a01b039889169391908390829081906020010381875afa9283156118e0575b6000936118c1575b5050803b1561000e578651632f35bfe960e21b81526001600160a01b038716858201908152336020820152604081018790529215606084015291600091839182908490829060800103925af180156118b4575b6118a1575b50803b1561000e5784516394362e8b60e01b81523383820190815260208101859052909160009183919082908490829060400103925af18015611894575b611881575b506036546117c0906001600160a01b031661020d565b803b1561000e5784516328fcf4d360e01b81526001600160a01b038516928101928352336020840152604083018490526000967fdcbc1c05240f31ff3ad067ef1ee35ce4997762752e3a095284754544f4c709d79361185493919291899183919082908190606001039134905af18015611874575b611861575b508551938452426020850152339416929081906040820190565b0390a3610b2f6001600055565b80610b7761186e9261195a565b3861183a565b61187c6119b5565b611835565b80610b7761188e9261195a565b386117aa565b61189c6119b5565b6117a5565b80610b776118ae9261195a565b38611767565b6118bc6119b5565b611762565b6118d8929350803d10610bf057610be2818361197b565b90388061170f565b6118e86119b5565b611707565b816119059298503d891161036657610357818361197b565b95386116cf565b6119146119b5565b6116c7565b503461000e57600036600319011261000e576036546040516001600160a01b039091168152602090f35b50634e487b7160e01b600052604160045260246000fd5b67ffffffffffffffff811161196e57604052565b611976611943565b604052565b90601f8019910116810190811067ffffffffffffffff82111761196e57604052565b9081602091031261000e57516119b281610183565b90565b506040513d6000823e3d90fd5b603580546001600160a01b0319166001600160a01b03929092169182179055611b4e906119ee9061020d565b6040518091630774f5f560e21b825281600460209384935afa918215611bed575b600092611bce575b50603680546001600160a01b0319166001600160a01b03938416179055611a9282600483611a4f61020d60355460018060a01b031690565b6040516352cb335b60e11b815292839182905afa908115611bc1575b600091611ba4575b501660018060a01b03166001600160601b0360a01b6037541617603755565b611af082600483611aad61020d60355460018060a01b031690565b604051639fabe17560e01b815292839182905afa908115611b97575b600091611b7a575b501660018060a01b03166001600160601b0360a01b6038541617603855565b6035546004908290611b0a906001600160a01b031661020d565b604051633efbbf0f60e21b815292839182905afa918215611b6d575b600092611b50575b50501660018060a01b03166001600160601b0360a01b6039541617603955565b565b611b669250803d1061036657610357818361197b565b3880611b2e565b611b756119b5565b611b26565b611b919150843d861161036657610357818361197b565b38611ad1565b611b9f6119b5565b611ac9565b611bbb9150843d861161036657610357818361197b565b38611a73565b611bc96119b5565b611a6b565b81611be69293503d841161036657610357818361197b565b9038611a17565b611bf56119b5565b611a0f565b9081602091031261000e575190565b600260005414611c1a576002600055565b60405162461bcd60e51b815260206004820152601f60248201527f5265656e7472616e637947756172643a207265656e7472616e742063616c6c006044820152606490fd5b15611c6657565b60405162461bcd60e51b815260206004820152604b60248201527f5468652063616c6c6572206f6620746869732066756e6374696f6e2063616e2060448201527f6f6e6c79206265207468652061546f6b656e20636f6e7472616374206f66207460648201526a686973207265736572766560a81b608482015260a490fd5b92611cef84612f43565b611cf8836130c4565b603654611d0d906001600160a01b031661020d565b60405163e240301960e01b81526001600160a01b0386166004820152611d50908590602081602481875afa908115611eb7575b600091611e99575b501015611ec4565b803b1561000e5760405163afcdbea360e01b81526001600160a01b0386811660048301528416602482015260448101859052911560648301526000908290608490829084905af18015611e8c575b611e79575b50603654611db9906001600160a01b031661020d565b803b1561000e5760405163fa93b2a560e01b81526001600160a01b03858116600483015283166024820152604481018490527f9c4ed599cd8555b9c1e8cd7643240d7d71eb76b792948c49fcb4d411f7b6b3c692611e54929091906000908290606490829084905af18015611e6c575b611e59575b50604080519485524260208601526001600160a01b039182169590911693918291820190565b0390a3565b80610b77611e669261195a565b38611e2e565b611e746119b5565b611e29565b80610b77611e869261195a565b38611da3565b611e946119b5565b611d9e565b611eb1915060203d8111610bf057610be2818361197b565b38611d48565b611ebf6119b5565b611d40565b15611ecb57565b60405162461bcd60e51b815260206004820152603160248201527f5468657265206973206e6f7420656e6f756768206c697175696469747920617660448201527061696c61626c6520746f2072656465656d60781b6064820152608490fd5b60405190610200820182811067ffffffffffffffff82111761196e57604052565b611f53611f2a565b9060008083528060208401528060408401528060608401528060808401528060a08401528060c08401528060e08401528061010084015280610120840152806101408401528061016084015280610180840152806101a0840152806101c08401526101e0830152565b9081602091031261000e57516119b281610194565b15611fd857565b60405162461bcd60e51b8152602060048201526024808201527f52657365727665206973206e6f7420656e61626c656420666f7220626f72726f60448201526377696e6760e01b6064820152608490fd5b6003111561203357565b634e487b7160e01b600052602160045260246000fd5b1561205057565b60405162461bcd60e51b815260206004820152602360248201527f496e76616c696420696e7465726573742072617465206d6f64652073656c65636044820152621d195960ea1b6064820152608490fd5b60038210156120335752565b156120b457565b60405162461bcd60e51b815260206004820152603660248201527f5468657265206973206e6f7420656e6f756768206c697175696469747920617660448201527561696c61626c6520696e20746865207265736572766560501b6064820152608490fd5b91908261010091031261000e5781519160208101519160408201519160608101519160808201519160a08101519160e060c08301519201516119b281610194565b1561216057565b60405162461bcd60e51b815260206004820152601b60248201527f54686520636f6c6c61746572616c2062616c616e6365206973203000000000006044820152606490fd5b156121ac57565b60405162461bcd60e51b815260206004820152603f60248201527f54686520626f72726f7765722063616e20616c7265616479206265206c69717560448201527f69646174656420736f2068652063616e6e6f7420626f72726f77206d6f7265006064820152608490fd5b1561221e57565b60405162461bcd60e51b815260206004820152602160248201527f54686520616d6f756e7420746f20626f72726f7720697320746f6f20736d616c6044820152601b60fa1b6064820152608490fd5b1561227457565b60405162461bcd60e51b815260206004820152603460248201527f5468657265206973206e6f7420656e6f75676820636f6c6c61746572616c20746044820152736f20636f7665722061206e657720626f72726f7760601b6064820152608490fd5b156122dd57565b60405162461bcd60e51b815260206004820152603960248201527f557365722063616e6e6f7420626f72726f77207468652073656c65637465642060448201527f616d6f756e742077697468206120737461626c652072617465000000000000006064820152608490fd5b1561234f57565b60405162461bcd60e51b815260206004820152603c60248201527f5573657220697320747279696e6720746f20626f72726f7720746f6f206d756360448201527f68206c6971756964697479206174206120737461626c652072617465000000006064820152608490fd5b919082604091031261000e576020825192015190565b6001600160a01b039182168152911660208201526040810191909152606081019190915260a0810192919060038210156120335760800152565b50634e487b7160e01b600052601160045260246000fd5b8060001904821181151516612434570290565b61243c61240a565b0290565b60405190610100820182811067ffffffffffffffff821117612491575b6040528160e06000918281528260208201528260408201528260608201528260808201528260a08201528260c08201520152565b612499611943565b61245d565b9081606091031261000e578051916040602083015192015190565b156124c057565b60405162461bcd60e51b815260206004820152602960248201527f546865207573657220646f6573206e6f74206861766520616e7920626f72726f604482015268772070656e64696e6760b81b6064820152608490fd5b1561251e57565b60a460405162461bcd60e51b815260206004820152604460248201527f546f207265706179206f6e20626568616c66206f6620616e207573657220616e60448201527f206578706c6963697420616d6f756e7420746f207265706179206973206e65656064820152633232b21760e11b6084820152fd5b811981116125a1570190565b6125a961240a565b0190565b156125b457565b60405162461bcd60e51b815260206004820152602860248201527f496e76616c6964206d73672e76616c75652073656e7420666f72207468652072604482015267195c185e5b595b9d60c21b6064820152608490fd5b818110612615570390565b61261d61240a565b0390565b612629612440565b603654909190612641906001600160a01b031661020d565b60408051639fb8afcd60e01b81526001600160a01b038481166004830152871660248201529491939091606086604481885afa958615612cf0575b60009081908298612cbb575b5083850197885260208085019182529184528451633faacc6b60e21b81526001600160a01b0387811660048301528a1660248201529180836044818b5afa928315612cae575b600093612c8f575b5060e0850192835273eeeeeeeeeeeeeeeeeeeeeeeeeeeeeeeeeeeeeeee6001600160a01b03888116918214606088019081529199909691958c919061271d865115156124b9565b6127386000198214938a8515918296612c81575b5050612517565b6127458651885190612595565b92608085019380855281612c77575b50612c6f575b506127686110478851151590565b8015612c64575b612778906125ad565b81518651811115612a6d57505061279460a0915186519061260a565b91018181526036549093906127b1906001600160a01b031661020d565b91855192818d51935114813b1561000e5760008f916128198e9183978f51998a988997889663da12d96f60e01b885260048801949196959260a0949160c0870198600180881b0380921688521660208701526040860152606085015260808401521515910152565b03925af18015612a60575b612a4d575b5082519081612937575b50506036546128559061284e906001600160a01b031661020d565b9351151590565b60009015612931575061286982513461260a565b955b815196843b1561000e5786516328fcf4d360e01b81526001600160a01b0392909216600483015233602483015260448201979097527fb718f0b14f03d8c3adf35b15e3da52421b042ac879e5a689011a8b1e0036773d9661290c94600091839160649183915af18015612924575b612911575b5051905196519351938493339916974292859094939260609260808301968352602083015260408201520152565b0390a4565b80610b7761291e9261195a565b386128de565b61292c6119b5565b6128d9565b9561286b565b60365461294c906001600160a01b031661020d565b906129578651151590565b60009015612a47575082915b603554600490839061297d906001600160a01b031661020d565b8b51637744894b60e11b815292839182905afa928315612a3a575b600093612a1b575b5050803b1561000e57885163c7d1423760e01b81526001600160a01b038b81166004830152336024830152604482019590955291909316606482015291600091839160849183915af18015612a0e575b6129fb575b80612833565b80610b77612a089261195a565b386129f5565b612a166119b5565b6129f0565b612a32929350803d1061036657610357818361197b565b9038806129a0565b612a426119b5565b612998565b91612963565b80610b77612a5a9261195a565b38612829565b612a686119b5565b612824565b9250929350935089969997949751823b1561000e578a5163da12d96f60e01b81526001600160a01b0387811660048301528d1660248201526000604482018190526064820193909352608481019190915260a4810182905291829060c490829084905af18015612c57575b612c44575b50603654612afe90612af7906001600160a01b031661020d565b9651151590565b60009015612c3f575081515b82516035546004908490612b26906001600160a01b031661020d565b8c51637744894b60e11b815292839182905afa938415612c32575b600094612c13575b5050873b1561000e57895163c7d1423760e01b81526001600160a01b0395861660048201528b8616602482015260448101919091529190931660648201527fb718f0b14f03d8c3adf35b15e3da52421b042ac879e5a689011a8b1e0036773d9561290c9360009183916084918391905af18015612c06575b612bf3575b50519251955192839233981696429184606091949392608082019560008352602083015260408201520152565b80610b77612c009261195a565b38612bc6565b612c0e6119b5565b612bc1565b612c2a929450803d1061036657610357818361197b565b913880612b49565b612c3a6119b5565b612b41565b612b0a565b80610b77612c519261195a565b38612add565b612c5f6119b5565b612ad8565b50815134101561276f565b82523861275a565b9050811038612754565b9091501633148f8b90612731565b81612ca79294503d8511610bf057610be2818361197b565b91386126d6565b612cb66119b5565b6126ce565b915050612ce091965060603d8111612ce9575b612cd8818361197b565b81019061249e565b96919038612688565b503d612cce565b612cf86119b5565b61267c565b15612d0457565b60405162461bcd60e51b815260206004820152602a60248201527f5573657220646f6573206e6f74206861766520616e79206c69717569646974796044820152690819195c1bdcda5d195960b21b6064820152608490fd5b15612d6357565b60405162461bcd60e51b815260206004820152603060248201527f55736572206465706f73697420697320616c7265616479206265696e6720757360448201526f195908185cc818dbdb1b185d195c985b60821b6064820152608490fd5b60209067ffffffffffffffff8111612ddf575b601f01601f19160190565b612de7611943565b612dd4565b3d15612e17573d90612dfd82612dc1565b91612e0b604051938461197b565b82523d6000602084013e565b606090565b15612e2357565b60405162461bcd60e51b815260206004820152601760248201527f4c69717569646174696f6e2063616c6c206661696c65640000000000000000006044820152606490fd5b918091926000905b828210612e88575011612e81575050565b6000910152565b91508060209183015181860152018291612e70565b919060408382031261000e5782519260208101519067ffffffffffffffff821161000e570181601f8201121561000e578051612ed881612dc1565b92612ee6604051948561197b565b8184526020828401011161000e576119b29160208085019101612e68565b906125a960209282815194859201612e68565b60409160208252612f378151809281602086015260208686019101612e68565b601f01601f1916010190565b603654604051630283aeb760e11b81526001600160a01b0392831660048201529160209183916024918391165afa908115612ff6575b600091612fd8575b5015612f8957565b60405162461bcd60e51b815260206004820152602160248201527f416374696f6e20726571756972657320616e20616374697665207265736572766044820152606560f81b6064820152608490fd5b612ff0915060203d8111610bb657610ba7818361197b565b38612f81565b612ffe6119b5565b612f79565b603654604051634a08accb60e01b81526001600160a01b0392831660048201529160209183916024918391165afa9081156130b7575b600091613099575b5061304857565b60405162461bcd60e51b8152602060048201526024808201527f416374696f6e20726571756972657320616e20756e667265657a6564207265736044820152636572766560e01b6064820152608490fd5b6130b1915060203d8111610bb657610ba7818361197b565b38613041565b6130bf6119b5565b613039565b156130cb57565b60405162461bcd60e51b815260206004820152601d60248201527f416d6f756e74206d7573742062652067726561746572207468616e20300000006044820152606490fdfea26469706673582212205c895e02910bb0172df9a72765f517c5c8998ba166b46af833ecbfd84fdbe9ab64736f6c634300080d0033",
  "linkReferences": {},
  "deployedLinkReferences": {}
}