{
  "_format": "hh-sol-artifact-1",
  "contractName": "LendingBoardProposeMode",
  "sourceName": "contracts/lendingboard/LendingBoardProposeMode.sol",
  "abi": [
    {
      "anonymous": false,
      "inputs": [
        {
          "indexed": true,
          "internalType": "address",
          "name": "_reserve",
          "type": "address"
        },
        {
          "indexed": true,
          "internalType": "address",
          "name": "_user",
          "type": "address"
        },
        {
          "indexed": false,
          "internalType": "uint256",
          "name": "_amount",
          "type": "uint256"
        },
        {
          "indexed": false,
          "internalType": "uint256",
          "name": "_borrowRateMode",
          "type": "uint256"
        },
        {
          "indexed": false,
          "internalType": "uint256",
          "name": "_borrowRate",
          "type": "uint256"
        },
        {
          "indexed": false,
          "internalType": "uint256",
          "name": "_originationFee",
          "type": "uint256"
        },
        {
          "indexed": false,
          "internalType": "uint256",
          "name": "_borrowBalanceIncrease",
          "type": "uint256"
        },
        {
          "indexed": false,
          "internalType": "uint256",
          "name": "_timestamp",
          "type": "uint256"
        }
      ],
      "name": "Borrow",
      "type": "event"
    },
    {
      "anonymous": false,
      "inputs": [
        {
          "indexed": true,
          "internalType": "address",
          "name": "_reserveToLend",
          "type": "address"
        },
        {
          "indexed": true,
          "internalType": "address",
          "name": "_lender",
          "type": "address"
        },
        {
          "indexed": false,
          "internalType": "address",
          "name": "_borrower",
          "type": "address"
        },
        {
          "indexed": true,
          "internalType": "uint256",
          "name": "_proposalId",
          "type": "uint256"
        },
        {
          "indexed": false,
          "internalType": "uint256",
          "name": "_amount",
          "type": "uint256"
        },
        {
          "indexed": false,
          "internalType": "uint256",
          "name": "_originationFee",
          "type": "uint256"
        },
        {
          "indexed": false,
          "internalType": "uint256",
          "name": "_timestamp",
          "type": "uint256"
        }
      ],
      "name": "BorrowAccepted",
      "type": "event"
    },
    {
      "anonymous": false,
      "inputs": [
        {
          "indexed": true,
          "internalType": "address",
          "name": "_reserveToBorrow",
          "type": "address"
        },
        {
          "indexed": true,
          "internalType": "address",
          "name": "_borrowProposer",
          "type": "address"
        },
        {
          "indexed": true,
          "internalType": "uint256",
          "name": "_proposalId",
          "type": "uint256"
        },
        {
          "indexed": false,
          "internalType": "uint256",
          "name": "_amount",
          "type": "uint256"
        },
        {
          "indexed": false,
          "internalType": "address",
          "name": "_reserveForCollateral",
          "type": "address"
        },
        {
          "indexed": false,
          "internalType": "uint256",
          "name": "_interestRate",
          "type": "uint256"
        },
        {
          "indexed": false,
          "internalType": "uint256",
          "name": "_originationFee",
          "type": "uint256"
        },
        {
          "indexed": false,
          "internalType": "uint256",
          "name": "_dueDate",
          "type": "uint256"
        },
        {
          "indexed": false,
          "internalType": "uint256",
          "name": "_timestamp",
          "type": "uint256"
        }
      ],
      "name": "BorrowProposed",
      "type": "event"
    },
    {
      "anonymous": false,
      "inputs": [
        {
          "indexed": true,
          "internalType": "address",
          "name": "_reserve",
          "type": "address"
        },
        {
          "indexed": true,
          "internalType": "address",
          "name": "_user",
          "type": "address"
        },
        {
          "indexed": false,
          "internalType": "uint256",
          "name": "_amount",
          "type": "uint256"
        },
        {
          "indexed": false,
          "internalType": "uint256",
          "name": "_timestamp",
          "type": "uint256"
        }
      ],
      "name": "Deposit",
      "type": "event"
    },
    {
      "anonymous": false,
      "inputs": [
        {
          "indexed": true,
          "internalType": "address",
          "name": "_reserveToLend",
          "type": "address"
        },
        {
          "indexed": true,
          "internalType": "address",
          "name": "_lender",
          "type": "address"
        },
        {
          "indexed": false,
          "internalType": "address",
          "name": "_borrower",
          "type": "address"
        },
        {
          "indexed": true,
          "internalType": "uint256",
          "name": "_proposalId",
          "type": "uint256"
        },
        {
          "indexed": false,
          "internalType": "uint256",
          "name": "_amount",
          "type": "uint256"
        },
        {
          "indexed": false,
          "internalType": "uint256",
          "name": "_originationFee",
          "type": "uint256"
        },
        {
          "indexed": false,
          "internalType": "uint256",
          "name": "_timestamp",
          "type": "uint256"
        }
      ],
      "name": "LendAccepted",
      "type": "event"
    },
    {
      "anonymous": false,
      "inputs": [
        {
          "indexed": true,
          "internalType": "address",
          "name": "_reserveToLend",
          "type": "address"
        },
        {
          "indexed": true,
          "internalType": "address",
          "name": "_lendProposer",
          "type": "address"
        },
        {
          "indexed": true,
          "internalType": "uint256",
          "name": "_proposalId",
          "type": "uint256"
        },
        {
          "indexed": false,
          "internalType": "uint256",
          "name": "_amount",
          "type": "uint256"
        },
        {
          "indexed": false,
          "internalType": "uint256",
          "name": "_interestRate",
          "type": "uint256"
        },
        {
          "indexed": false,
          "internalType": "uint256",
          "name": "_originationFee",
          "type": "uint256"
        },
        {
          "indexed": false,
          "internalType": "uint256",
          "name": "_dueDate",
          "type": "uint256"
        },
        {
          "indexed": false,
          "internalType": "uint256",
          "name": "_proposalTimeStamp",
          "type": "uint256"
        }
      ],
      "name": "LendProposed",
      "type": "event"
    },
    {
      "anonymous": false,
      "inputs": [
        {
          "indexed": true,
          "internalType": "address",
          "name": "_collateral",
          "type": "address"
        },
        {
          "indexed": true,
          "internalType": "address",
          "name": "_reserve",
          "type": "address"
        },
        {
          "indexed": true,
          "internalType": "address",
          "name": "_user",
          "type": "address"
        },
        {
          "indexed": false,
          "internalType": "uint256",
          "name": "_purchaseAmount",
          "type": "uint256"
        },
        {
          "indexed": false,
          "internalType": "uint256",
          "name": "_liquidatedCollateralAmount",
          "type": "uint256"
        },
        {
          "indexed": false,
          "internalType": "uint256",
          "name": "_accruedBorrowInterest",
          "type": "uint256"
        },
        {
          "indexed": false,
          "internalType": "address",
          "name": "_liquidator",
          "type": "address"
        },
        {
          "indexed": false,
          "internalType": "bool",
          "name": "_receiveAToken",
          "type": "bool"
        },
        {
          "indexed": false,
          "internalType": "uint256",
          "name": "_timestamp",
          "type": "uint256"
        }
      ],
      "name": "LiquidationCall",
      "type": "event"
    },
    {
      "anonymous": false,
      "inputs": [
        {
          "indexed": true,
          "internalType": "address",
          "name": "_collateral",
          "type": "address"
        },
        {
          "indexed": true,
          "internalType": "address",
          "name": "_reserve",
          "type": "address"
        },
        {
          "indexed": true,
          "internalType": "address",
          "name": "_user",
          "type": "address"
        },
        {
          "indexed": false,
          "internalType": "uint256",
          "name": "_feeLiquidated",
          "type": "uint256"
        },
        {
          "indexed": false,
          "internalType": "uint256",
          "name": "_liquidatedCollateralForFee",
          "type": "uint256"
        },
        {
          "indexed": false,
          "internalType": "uint256",
          "name": "_timestamp",
          "type": "uint256"
        }
      ],
      "name": "OriginationFeeLiquidated",
      "type": "event"
    },
    {
      "anonymous": false,
      "inputs": [
        {
          "indexed": true,
          "internalType": "address",
          "name": "_reserveToReceive",
          "type": "address"
        },
        {
          "indexed": true,
          "internalType": "address",
          "name": "_lender",
          "type": "address"
        },
        {
          "indexed": false,
          "internalType": "address",
          "name": "_reserveForCollateral",
          "type": "address"
        },
        {
          "indexed": false,
          "internalType": "address",
          "name": "_borrower",
          "type": "address"
        },
        {
          "indexed": true,
          "internalType": "uint256",
          "name": "_proposalId",
          "type": "uint256"
        },
        {
          "indexed": false,
          "internalType": "uint256",
          "name": "_amount",
          "type": "uint256"
        },
        {
          "indexed": false,
          "internalType": "bool",
          "name": "_isBorrowProposal",
          "type": "bool"
        },
        {
          "indexed": false,
          "internalType": "uint256",
          "name": "_originationFee",
          "type": "uint256"
        },
        {
          "indexed": false,
          "internalType": "uint256",
          "name": "_timestamp",
          "type": "uint256"
        }
      ],
      "name": "ProposalAccepted",
      "type": "event"
    },
    {
      "anonymous": false,
      "inputs": [
        {
          "indexed": true,
          "internalType": "address",
          "name": "_reserve",
          "type": "address"
        },
        {
          "indexed": true,
          "internalType": "address",
          "name": "_user",
          "type": "address"
        },
        {
          "indexed": false,
          "internalType": "uint256",
          "name": "_amount",
          "type": "uint256"
        },
        {
          "indexed": false,
          "internalType": "uint256",
          "name": "_timestamp",
          "type": "uint256"
        }
      ],
      "name": "RedeemUnderlying",
      "type": "event"
    },
    {
      "anonymous": false,
      "inputs": [
        {
          "indexed": true,
          "internalType": "address",
          "name": "_reserve",
          "type": "address"
        },
        {
          "indexed": true,
          "internalType": "address",
          "name": "_user",
          "type": "address"
        },
        {
          "indexed": true,
          "internalType": "address",
          "name": "_repayer",
          "type": "address"
        },
        {
          "indexed": false,
          "internalType": "uint256",
          "name": "_amountMinusFees",
          "type": "uint256"
        },
        {
          "indexed": false,
          "internalType": "uint256",
          "name": "_fees",
          "type": "uint256"
        },
        {
          "indexed": false,
          "internalType": "uint256",
          "name": "_borrowBalanceIncrease",
          "type": "uint256"
        },
        {
          "indexed": false,
          "internalType": "uint256",
          "name": "_timestamp",
          "type": "uint256"
        }
      ],
      "name": "Repay",
      "type": "event"
    },
    {
      "anonymous": false,
      "inputs": [
        {
          "indexed": true,
          "internalType": "address",
          "name": "_reserve",
          "type": "address"
        },
        {
          "indexed": true,
          "internalType": "address",
          "name": "_user",
          "type": "address"
        }
      ],
      "name": "ReserveUsedAsCollateralDisabled",
      "type": "event"
    },
    {
      "anonymous": false,
      "inputs": [
        {
          "indexed": true,
          "internalType": "address",
          "name": "_reserve",
          "type": "address"
        },
        {
          "indexed": true,
          "internalType": "address",
          "name": "_user",
          "type": "address"
        }
      ],
      "name": "ReserveUsedAsCollateralEnabled",
      "type": "event"
    },
    {
      "inputs": [],
      "name": "LENDINGPOOL_REVISION",
      "outputs": [
        {
          "internalType": "uint256",
          "name": "",
          "type": "uint256"
        }
      ],
      "stateMutability": "view",
      "type": "function"
    },
    {
      "inputs": [],
      "name": "UINT_MAX_VALUE",
      "outputs": [
        {
          "internalType": "uint256",
          "name": "",
          "type": "uint256"
        }
      ],
      "stateMutability": "view",
      "type": "function"
    },
    {
      "inputs": [],
      "name": "addressesProvider",
      "outputs": [
        {
          "internalType": "contract LendingBoardAddressesProvider",
          "name": "",
          "type": "address"
        }
      ],
      "stateMutability": "view",
      "type": "function"
    },
    {
      "inputs": [
        {
          "internalType": "address",
          "name": "_reserve",
          "type": "address"
        },
        {
          "internalType": "uint256",
          "name": "_amount",
          "type": "uint256"
        },
        {
          "internalType": "uint256",
          "name": "_interestRateMode",
          "type": "uint256"
        }
      ],
      "name": "borrow",
      "outputs": [],
      "stateMutability": "nonpayable",
      "type": "function"
    },
    {
      "inputs": [
        {
          "internalType": "address",
          "name": "_reserveToBorrow",
          "type": "address"
        },
        {
          "internalType": "uint256",
          "name": "_amount",
          "type": "uint256"
        },
        {
          "internalType": "address",
          "name": "_reserveForCollateral",
          "type": "address"
        },
        {
          "internalType": "uint256",
          "name": "_interestRate",
          "type": "uint256"
        },
        {
          "internalType": "uint256",
          "name": "_dueDate",
          "type": "uint256"
        }
      ],
      "name": "borrowProposal",
      "outputs": [],
      "stateMutability": "nonpayable",
      "type": "function"
    },
    {
      "inputs": [
        {
          "internalType": "uint256",
          "name": "_proposalId",
          "type": "uint256"
        }
      ],
      "name": "borrowProposalAccept",
      "outputs": [],
      "stateMutability": "nonpayable",
      "type": "function"
    },
    {
      "inputs": [],
      "name": "core",
      "outputs": [
        {
          "internalType": "contract LendingBoardCore",
          "name": "",
          "type": "address"
        }
      ],
      "stateMutability": "view",
      "type": "function"
    },
    {
      "inputs": [],
      "name": "dataProvider",
      "outputs": [
        {
          "internalType": "contract LendingBoardDataProvider",
          "name": "",
          "type": "address"
        }
      ],
      "stateMutability": "view",
      "type": "function"
    },
    {
      "inputs": [
        {
          "internalType": "address",
          "name": "_reserve",
          "type": "address"
        },
        {
          "internalType": "uint256",
          "name": "_amount",
          "type": "uint256"
        },
        {
          "internalType": "uint16",
          "name": "_referralCode",
          "type": "uint16"
        }
      ],
      "name": "deposit",
      "outputs": [],
      "stateMutability": "payable",
      "type": "function"
    },
    {
      "inputs": [
        {
          "internalType": "uint256",
          "name": "_proposalId",
          "type": "uint256"
        }
      ],
      "name": "getBorrowProposal",
      "outputs": [
        {
          "internalType": "bool",
          "name": "active",
          "type": "bool"
        },
        {
          "internalType": "address",
          "name": "borrower",
          "type": "address"
        },
        {
          "internalType": "address",
          "name": "reserveToBorrow",
          "type": "address"
        },
        {
          "internalType": "uint256",
          "name": "amount",
          "type": "uint256"
        },
        {
          "internalType": "address",
          "name": "reserveForCollateral",
          "type": "address"
        },
        {
          "internalType": "uint256",
          "name": "interestRate",
          "type": "uint256"
        },
        {
          "internalType": "uint256",
          "name": "dueDate",
          "type": "uint256"
        },
        {
          "internalType": "uint256",
          "name": "proposalDate",
          "type": "uint256"
        },
        {
          "internalType": "uint256",
          "name": "ltv",
          "type": "uint256"
        },
        {
          "internalType": "uint256",
          "name": "tokenId",
          "type": "uint256"
        },
        {
          "internalType": "bool",
          "name": "isRepayed",
          "type": "bool"
        }
      ],
      "stateMutability": "view",
      "type": "function"
    },
    {
      "inputs": [
        {
          "internalType": "uint256",
          "name": "_startIdx",
          "type": "uint256"
        },
        {
          "internalType": "uint256",
          "name": "_endIdx",
          "type": "uint256"
        }
      ],
      "name": "getBorrowProposalList",
      "outputs": [
        {
          "components": [
            {
              "internalType": "bool",
              "name": "active",
              "type": "bool"
            },
            {
              "internalType": "address",
              "name": "proposer",
              "type": "address"
            },
            {
              "internalType": "address",
              "name": "reserveToReceive",
              "type": "address"
            },
            {
              "internalType": "uint256",
              "name": "amount",
              "type": "uint256"
            },
            {
              "internalType": "address",
              "name": "reserveForCollateral",
              "type": "address"
            },
            {
              "internalType": "uint256",
              "name": "interestRate",
              "type": "uint256"
            },
            {
              "internalType": "uint256",
              "name": "dueDate",
              "type": "uint256"
            },
            {
              "internalType": "uint256",
              "name": "proposalDate",
              "type": "uint256"
            },
            {
              "internalType": "uint256",
              "name": "serviceFee",
              "type": "uint256"
            },
            {
              "internalType": "uint256",
              "name": "ltv",
              "type": "uint256"
            },
            {
              "internalType": "uint256",
              "name": "tokenId",
              "type": "uint256"
            },
            {
              "internalType": "bool",
              "name": "isRepayed",
              "type": "bool"
            }
          ],
          "internalType": "struct CoreLibrary.ProposalStructure[]",
          "name": "result",
          "type": "tuple[]"
        }
      ],
      "stateMutability": "view",
      "type": "function"
    },
    {
      "inputs": [
        {
          "internalType": "uint256",
          "name": "_proposalId",
          "type": "uint256"
        }
      ],
      "name": "getLendProposal",
      "outputs": [
        {
          "internalType": "bool",
          "name": "active",
          "type": "bool"
        },
        {
          "internalType": "address",
          "name": "lender",
          "type": "address"
        },
        {
          "internalType": "address",
          "name": "reserveToLend",
          "type": "address"
        },
        {
          "internalType": "uint256",
          "name": "amount",
          "type": "uint256"
        },
        {
          "internalType": "address",
          "name": "reserveForCollateral",
          "type": "address"
        },
        {
          "internalType": "uint256",
          "name": "interestRate",
          "type": "uint256"
        },
        {
          "internalType": "uint256",
          "name": "dueDate",
          "type": "uint256"
        },
        {
          "internalType": "uint256",
          "name": "proposalDate",
          "type": "uint256"
        },
        {
          "internalType": "uint256",
          "name": "ltv",
          "type": "uint256"
        },
        {
          "internalType": "uint256",
          "name": "tokenId",
          "type": "uint256"
        },
        {
          "internalType": "bool",
          "name": "isRepayed",
          "type": "bool"
        }
      ],
      "stateMutability": "view",
      "type": "function"
    },
    {
      "inputs": [
        {
          "internalType": "uint256",
          "name": "startIdx",
          "type": "uint256"
        },
        {
          "internalType": "uint256",
          "name": "endIdx",
          "type": "uint256"
        }
      ],
      "name": "getLendProposalList",
      "outputs": [
        {
          "components": [
            {
              "internalType": "bool",
              "name": "active",
              "type": "bool"
            },
            {
              "internalType": "address",
              "name": "proposer",
              "type": "address"
            },
            {
              "internalType": "address",
              "name": "reserveToReceive",
              "type": "address"
            },
            {
              "internalType": "uint256",
              "name": "amount",
              "type": "uint256"
            },
            {
              "internalType": "address",
              "name": "reserveForCollateral",
              "type": "address"
            },
            {
              "internalType": "uint256",
              "name": "interestRate",
              "type": "uint256"
            },
            {
              "internalType": "uint256",
              "name": "dueDate",
              "type": "uint256"
            },
            {
              "internalType": "uint256",
              "name": "proposalDate",
              "type": "uint256"
            },
            {
              "internalType": "uint256",
              "name": "serviceFee",
              "type": "uint256"
            },
            {
              "internalType": "uint256",
              "name": "ltv",
              "type": "uint256"
            },
            {
              "internalType": "uint256",
              "name": "tokenId",
              "type": "uint256"
            },
            {
              "internalType": "bool",
              "name": "isRepayed",
              "type": "bool"
            }
          ],
          "internalType": "struct CoreLibrary.ProposalStructure[]",
          "name": "result",
          "type": "tuple[]"
        }
      ],
      "stateMutability": "view",
      "type": "function"
    },
    {
      "inputs": [
        {
          "internalType": "address",
          "name": "_reserve",
          "type": "address"
        }
      ],
      "name": "getReserveConfigurationData",
      "outputs": [
        {
          "internalType": "uint256",
          "name": "ltv",
          "type": "uint256"
        },
        {
          "internalType": "uint256",
          "name": "liquidationThreshold",
          "type": "uint256"
        },
        {
          "internalType": "uint256",
          "name": "liquidationBonus",
          "type": "uint256"
        },
        {
          "internalType": "address",
          "name": "interestRateStrategyAddress",
          "type": "address"
        },
        {
          "internalType": "bool",
          "name": "usageAsCollateralEnabled",
          "type": "bool"
        },
        {
          "internalType": "bool",
          "name": "borrowingEnabled",
          "type": "bool"
        },
        {
          "internalType": "bool",
          "name": "stableBorrowRateEnabled",
          "type": "bool"
        },
        {
          "internalType": "bool",
          "name": "isActive",
          "type": "bool"
        }
      ],
      "stateMutability": "view",
      "type": "function"
    },
    {
      "inputs": [
        {
          "internalType": "address",
          "name": "_reserve",
          "type": "address"
        }
      ],
      "name": "getReserveData",
      "outputs": [
        {
          "internalType": "uint256",
          "name": "totalLiquidity",
          "type": "uint256"
        },
        {
          "internalType": "uint256",
          "name": "availableLiquidity",
          "type": "uint256"
        },
        {
          "internalType": "uint256",
          "name": "totalBorrowsStable",
          "type": "uint256"
        },
        {
          "internalType": "uint256",
          "name": "totalBorrowsVariable",
          "type": "uint256"
        },
        {
          "internalType": "uint256",
          "name": "liquidityRate",
          "type": "uint256"
        },
        {
          "internalType": "uint256",
          "name": "variableBorrowRate",
          "type": "uint256"
        },
        {
          "internalType": "uint256",
          "name": "stableBorrowRate",
          "type": "uint256"
        },
        {
          "internalType": "uint256",
          "name": "averageStableBorrowRate",
          "type": "uint256"
        },
        {
          "internalType": "uint256",
          "name": "utilizationRate",
          "type": "uint256"
        },
        {
          "internalType": "uint256",
          "name": "liquidityIndex",
          "type": "uint256"
        },
        {
          "internalType": "uint256",
          "name": "variableBorrowIndex",
          "type": "uint256"
        },
        {
          "internalType": "address",
          "name": "aTokenAddress",
          "type": "address"
        },
        {
          "internalType": "uint40",
          "name": "lastUpdateTimestamp",
          "type": "uint40"
        }
      ],
      "stateMutability": "view",
      "type": "function"
    },
    {
      "inputs": [],
      "name": "getReserves",
      "outputs": [
        {
          "internalType": "address[]",
          "name": "",
          "type": "address[]"
        }
      ],
      "stateMutability": "view",
      "type": "function"
    },
    {
      "inputs": [
        {
          "internalType": "address",
          "name": "_user",
          "type": "address"
        }
      ],
      "name": "getUserAccountData",
      "outputs": [
        {
          "internalType": "uint256",
          "name": "totalLiquidityETH",
          "type": "uint256"
        },
        {
          "internalType": "uint256",
          "name": "totalCollateralETH",
          "type": "uint256"
        },
        {
          "internalType": "uint256",
          "name": "totalBorrowsETH",
          "type": "uint256"
        },
        {
          "internalType": "uint256",
          "name": "totalFeesETH",
          "type": "uint256"
        },
        {
          "internalType": "uint256",
          "name": "availableBorrowsETH",
          "type": "uint256"
        },
        {
          "internalType": "uint256",
          "name": "currentLiquidationThreshold",
          "type": "uint256"
        },
        {
          "internalType": "uint256",
          "name": "ltv",
          "type": "uint256"
        },
        {
          "internalType": "uint256",
          "name": "healthFactor",
          "type": "uint256"
        }
      ],
      "stateMutability": "view",
      "type": "function"
    },
    {
      "inputs": [
        {
          "internalType": "address",
          "name": "_reserve",
          "type": "address"
        },
        {
          "internalType": "address",
          "name": "_user",
          "type": "address"
        }
      ],
      "name": "getUserReserveBalance",
      "outputs": [
        {
          "internalType": "uint256",
          "name": "",
          "type": "uint256"
        }
      ],
      "stateMutability": "view",
      "type": "function"
    },
    {
      "inputs": [
        {
          "internalType": "address",
          "name": "_reserve",
          "type": "address"
        },
        {
          "internalType": "address",
          "name": "_user",
          "type": "address"
        }
      ],
      "name": "getUserReserveData",
      "outputs": [
        {
          "internalType": "uint256",
          "name": "currentATokenBalance",
          "type": "uint256"
        },
        {
          "internalType": "uint256",
          "name": "currentBorrowBalance",
          "type": "uint256"
        },
        {
          "internalType": "uint256",
          "name": "principalBorrowBalance",
          "type": "uint256"
        },
        {
          "internalType": "uint256",
          "name": "borrowRateMode",
          "type": "uint256"
        },
        {
          "internalType": "uint256",
          "name": "borrowRate",
          "type": "uint256"
        },
        {
          "internalType": "uint256",
          "name": "liquidityRate",
          "type": "uint256"
        },
        {
          "internalType": "uint256",
          "name": "originationFee",
          "type": "uint256"
        },
        {
          "internalType": "uint256",
          "name": "variableBorrowIndex",
          "type": "uint256"
        },
        {
          "internalType": "uint256",
          "name": "lastUpdateTimestamp",
          "type": "uint256"
        },
        {
          "internalType": "bool",
          "name": "usageAsCollateralEnabled",
          "type": "bool"
        }
      ],
      "stateMutability": "view",
      "type": "function"
    },
    {
      "inputs": [
        {
          "internalType": "contract LendingBoardAddressesProvider",
          "name": "_addressesProvider",
          "type": "address"
        }
      ],
      "name": "initialize",
      "outputs": [],
      "stateMutability": "nonpayable",
      "type": "function"
    },
    {
      "inputs": [
        {
          "internalType": "address",
          "name": "_reserveToLend",
          "type": "address"
        },
        {
          "internalType": "uint256",
          "name": "_amount",
          "type": "uint256"
        },
        {
          "internalType": "address",
          "name": "_reserveForCollateral",
          "type": "address"
        },
        {
          "internalType": "uint256",
          "name": "_interestRate",
          "type": "uint256"
        },
        {
          "internalType": "uint256",
          "name": "_dueDate",
          "type": "uint256"
        }
      ],
      "name": "lendProposal",
      "outputs": [],
      "stateMutability": "nonpayable",
      "type": "function"
    },
    {
      "inputs": [
        {
          "internalType": "uint256",
          "name": "_proposalId",
          "type": "uint256"
        }
      ],
      "name": "lendProposalAccept",
      "outputs": [],
      "stateMutability": "nonpayable",
      "type": "function"
    },
    {
      "inputs": [
        {
          "internalType": "address",
          "name": "_collateral",
          "type": "address"
        },
        {
          "internalType": "address",
          "name": "_reserve",
          "type": "address"
        },
        {
          "internalType": "address",
          "name": "_user",
          "type": "address"
        },
        {
          "internalType": "uint256",
          "name": "_purchaseAmount",
          "type": "uint256"
        },
        {
          "internalType": "bool",
          "name": "_receiveAToken",
          "type": "bool"
        }
      ],
      "name": "liquidationCall",
      "outputs": [],
      "stateMutability": "payable",
      "type": "function"
    },
    {
      "inputs": [],
      "name": "parametersProvider",
      "outputs": [
        {
          "internalType": "contract LendingBoardParametersProvider",
          "name": "",
          "type": "address"
        }
      ],
      "stateMutability": "view",
      "type": "function"
    },
    {
      "inputs": [
        {
          "internalType": "address",
          "name": "_reserve",
          "type": "address"
        },
        {
          "internalType": "address payable",
          "name": "_user",
          "type": "address"
        },
        {
          "internalType": "uint256",
          "name": "_amount",
          "type": "uint256"
        },
        {
          "internalType": "uint256",
          "name": "_aTokenBalanceAfterRedeem",
          "type": "uint256"
        }
      ],
      "name": "redeemUnderlying",
      "outputs": [],
      "stateMutability": "nonpayable",
      "type": "function"
    },
    {
      "inputs": [
        {
          "internalType": "address",
          "name": "_reserve",
          "type": "address"
        },
        {
          "internalType": "uint256",
          "name": "_amount",
          "type": "uint256"
        },
        {
          "internalType": "address payable",
          "name": "_onBehalfOf",
          "type": "address"
        }
      ],
      "name": "repay",
      "outputs": [],
      "stateMutability": "payable",
      "type": "function"
    },
    {
      "inputs": [
        {
          "internalType": "address",
          "name": "_reserve",
          "type": "address"
        },
        {
          "internalType": "bool",
          "name": "_useAsCollateral",
          "type": "bool"
        }
      ],
      "name": "setUserUseReserveAsCollateral",
      "outputs": [],
      "stateMutability": "nonpayable",
      "type": "function"
    }
  ],
  "bytecode": "0x608080604052346100215760016000556000600155615b129081620000278239f35b600080fdfe60806040526004361015610013575b600080fd5b60003560e01c8062a718a91461022e5780630902f1ac1461022557806328dd2d011461021c57806335ea6a75146102135780633815d34c1461020a5780633cedf2df146102015780633e150141146101f857806348f163ea146101ef57806358707e06146101e65780635a3b74b9146101dd5780635ceae9c4146101d457806379cc211e146101cb5780638afaff02146101c25780638fabf76d146101b95780639895e3d8146101b05780639a91fe9b146101a7578063a429bcaa1461019e578063ab1e8a2114610195578063b334ed861461018c578063bf92857c14610183578063c0c8ab651461017a578063c1bce0b714610171578063c4d66de814610168578063c72c4d101461015f578063d0fc81d214610156578063d2d0e0661461014d5763f2f4eb261461014557600080fd5b61000e612d8c565b5061000e612aab565b5061000e612a8d565b5061000e612a63565b5061000e612974565b5061000e612321565b5061000e612293565b5061000e61216f565b5061000e612145565b5061000e612055565b5061000e611f19565b5061000e611961565b5061000e6118a2565b5061000e611200565b5061000e6111af565b5061000e610fdf565b5061000e610f8d565b5061000e610d1e565b5061000e610cf4565b5061000e610bf1565b5061000e610ae6565b5061000e610ac4565b5061000e610939565b5061000e6106a1565b5061000e6105b5565b5061000e61047d565b5061000e610252565b6001600160a01b0381160361000e57565b8015150361000e57565b5060a036600319011261000e5760043561026b81610237565b60243561027781610237565b61037760008060443561028981610237565b6084359461029686610248565b61029e6130b6565b6102a781615843565b6102b087615843565b6035546102cd906001600160a01b03165b6001600160a01b031690565b91604051968793632bd7cfb760e11b855284600460209a8b935afa938415610421575b85946103ee575b5060405162a718a960e01b8982019081526001600160a01b039a8b166024830152938a166044820152989091166064808a0191909152356084890152151560a48801528660c481015b0396610354601f1998898101835282612e23565b51915af46103696103636142ea565b9161431a565b82808251830101910161439b565b90610388576103866001600055565b005b6103ea926103c0926103c66103d29360405195869384016014907302634b8bab4b230ba34b7b7103330b4b632b21d160651b81520190565b90614401565b03908101835282612e23565b60405162461bcd60e51b815291829160048301614439565b0390fd5b61034091945061041390893d8b1161041a575b61040b8183612e23565b810190612e44565b93906102f7565b503d610401565b610429612e59565b6102f0565b600091031261000e57565b6020908160408183019282815285518094520193019160005b828110610460575050505090565b83516001600160a01b031685529381019392810192600101610452565b503461000e5760008060031936011261057557603654604051630240bc6b60e21b815291908190839060049082906001600160a01b03165afa908115610580575b80916104d7575b604051806104d38482610439565b0390f35b90503d8082843e6104e88184612e23565b82016020928381830312610578578051906001600160401b03821161057c570181601f820112156105785780519061051f82614b34565b9361052d6040519586612e23565b828552858086019360051b83010193841161057557508401905b82821061055c575050506104d39150386104c5565b848091835161056a81610237565b815201910190610547565b80fd5b8280fd5b8380fd5b610588612e59565b6104be565b604090600319011261000e576004356105a581610237565b906024356105b281610237565b90565b503461000e576105c43661058d565b6037546040516328dd2d0160e01b81526001600160a01b039384166004820152918316602483015261014092839183916044918391165afa8015610694575b6000918283848586918793889589978a99610653575b50604051998a5260208a015260408901526060880152608087015260a086015260c085015260e08401526101008301521515610120820152f35b9850505050505050505061067d9150823d841161068d575b6106758183612e23565b81019061444a565b9790969195929492919038610619565b503d61066b565b61069c612e59565b610603565b503461000e57602036600319011261000e576004356106bf81610237565b6037546040516335ea6a7560e01b81526001600160a01b0392831660048201526101a0929091839183916024918391165afa8015610844575b600090819282838485868791889389958a978b998c9b61078d575b506104d39b9c9d506040519d8e9d8e9b99979593919d9c9a98969492909d6101a08d019e8d5260208d015260408c015260608b015260808a015260a089015260c088015260e0870152610100860152610120850152610140840152600160a01b600190031661016083015264ffffffffff16906101800152565b9c5050505050505050505050509181813d831161083d575b6107af8183612e23565b8101031261083957805190602081015190604081015192606082015191608081015160a082015160c083015160e0840151610100850151916101208601519361014087015195610180610160890151986108088a610237565b01519864ffffffffff8a168a03610835576104d39b9c9d509b9c99909192939495969798998d9c9b610713565b8d80fd5b5080fd5b503d6107a5565b61084c612e59565b6106f8565b8051151582526108ee91906020818101516001600160a01b0316908301526040818101516001600160a01b031690830152606081810151908301526080808201516001600160a01b03169083015260a081015160a083015260c081015160c083015260e081015160e08301526101008082015190830152610120808201519083015261014080820151908301526101608091015191019015159052565b565b6020908160408183019282815285518094520193019160005b828110610917575050505090565b90919293826101808261092d6001948951610851565b01950193929101610909565b503461000e5760408060031936011261000e576036546004906024359082359061096b906001600160a01b03166102c1565b8451630531044160e31b815261099b906020818781865afa908115610ab7575b600091610a89575b508410614a82565b6109c26109b06109ab8486613b09565b613a84565b6109bd6107d08210614add565b614b5a565b936000925b848111156109dc578651806104d388826108f0565b865163587854a560e11b81528281018281526101809591908690829081906020010381885afa958615610a7c575b600096610a43575b505090610a3882610a26610a3e9491614baa565b96610a31828b614bba565b5288614bba565b50614baa565b6109c7565b610a3e93929650610a389181610a6d92903d10610a75575b610a658183612e23565b81019061492f565b959192610a12565b503d610a5b565b610a84612e59565b610a0a565b610aaa915060203d8111610ab0575b610aa28183612e23565b8101906130a7565b38610993565b503d610a98565b610abf612e59565b61098b565b503461000e576020610ade610ad83661058d565b90614499565b604051908152f35b503461000e57602036600319011261000e57600435610b0481610237565b603754604051633e15014160e01b81526001600160a01b039283166004820152610100929091839183916024918391165afa8015610be4575b600090819282838490859286948796610b9f575b50604080519788526020880198909852968601969096526001600160a01b039095166060850152931515608084015292151560a083015291151560c082015290151560e08201526101009150f35b9650505050505050610bcb9150826104d393903d10610bdd575b610bc38183612e23565b810190614675565b95978897969591949293929190610b51565b503d610bb9565b610bec612e59565b610b3d565b503461000e57602036600319011261000e57610386610cc0600435610c14614540565b50603654610cb090610c2e906001600160a01b03166102c1565b604051636c20351d60e11b815260048101849052610180918290829060249082905afa918215610ce7575b600092610cca575b5050610c7a6001610c728351151590565b1515146149e0565b60408101516001600160a01b031660608201516020830151909291908590610100906001600160a01b0316930151933392614e74565b600052603b602052604060002090565b805460ff19169055565b610ce09250803d10610a7557610a658183612e23565b3880610c61565b610cef612e59565b610c59565b503461000e57600036600319011261000e576038546040516001600160a01b039091168152602090f35b503461000e5760408060031936011261000e5760043590610d3e82610237565b60243591610d4b83610248565b610d536130b6565b610d5c81615843565b610d6581615903565b603654610d7a906001600160a01b03166102c1565b8251630c526de560e11b81526001600160a01b0383166004820152336024820152909390610e3890602090610e1d90829081816044818c5afa908115610f80575b600091610f63575b50610dcf8115156141fc565b603754610de4906001600160a01b03166102c1565b88516376e9d61560e01b81526001600160a01b038916600482015233602482015260448101929092529092839190829081906064820190565b03915afa918215610f56575b600092610f29575b505061425b565b833b1561000e578251633e94615360e21b81526001600160a01b0383166004820152336024820152811515604482015260009485908290606490829084905af18015610f1c575b610f03575b508314610ecb57815133916001600160a01b0316907e058a56ea94653cdf4f152d227ace22d4c00ad99e2a43f58cb7d9e3feb295f2908590a35b610ec86001600055565b51f35b815133916001600160a01b0316907f44c58d81365b66dd4b1a7f36c25aa97b8c71c361ee4937adc1a00000227db5dd908590a3610ebe565b80610f10610f1692612dcd565b8061042e565b38610e84565b610f24612e59565b610e7f565b610f489250803d10610f4f575b610f408183612e23565b810190613481565b3880610e31565b503d610f36565b610f5e612e59565b610e29565b610f7a9150823d8411610ab057610aa28183612e23565b38610dc3565b610f88612e59565b610dbb565b50606036600319011261000e57610fd8600435610fa981610237565b60243560443591610fb983610237565b610fc16130b6565b610fca81615843565b610fd3826159c4565b613b20565b6001600055005b503461000e57602036600319011261000e5760365461106f906004359061100e906001600160a01b03166102c1565b90611041604051630531044160e31b8152602081600481875afa9081156111a2575b600091611184575b50821115614a40565b611049614540565b50604051809263587854a560e11b82528180610180968795600483019190602083019252565b03915afa918215611177575b60009261115a575b8261108e8151151590565b60208201516104d3906001600160a01b031660408401519093906001600160a01b0316606082015160808301519192916001600160a01b031660a083015160c08401519060e085015192610120860151946110f3610160610140890151980151151590565b976040519b8c9b8c9996936020926101409a97949d9c9996929d6101608d019e15158d528c60018060a01b0395868094169101521660408c015260608b015216608089015260a088015260c087015260e08601526101008501526101208401521515910152565b6111709250803d10610a7557610a658183612e23565b3880611083565b61117f612e59565b61107b565b61119c915060203d8111610ab057610aa28183612e23565b38611038565b6111aa612e59565b611030565b503461000e57600036600319011261000e57602060405160038152f35b60a090600319011261000e576004356111e481610237565b90602435906044356111f581610237565b906064359060843590565b503461000e5761120f366111cc565b61121a9493946130b6565b61122384615843565b61122c84615903565b611235856159c4565b61123d614540565b91611246613405565b6112514284116145b9565b603654611266906001600160a01b03166102c1565b60405163288d4ff760e21b81526001600160a01b038816600482015290979087906020816024818d5afa908115611895575b600091611876575b506035546004906020906112bc906001600160a01b03166102c1565b604051631f94a27560e31b815292839182905afa908115611869575b60009161184a575b50604051632e79732b60e11b81526001600160a01b03848116600483015291909116919061132d906020818e8180602481015b03915afa90811561183d575b60009161181e575b50613496565b60405163e240301960e01b81526001600160a01b038416600482015261137c9085906020818f81806024810103915afa908115611811575b6000916117f2575b508061016089015210156145fc565b6113863384614499565b6037548a9061139d906001600160a01b03166102c1565b604051633e15014160e01b81526001600160a01b0387166004820152949061010090869060249082905afa9485156117e5575b6000956117bb575b5060405163b3596f0760e01b8082526001600160a01b0397909716600482015294958695909190611424908990602081602481875afa9081156117ae575b60009161178f575b506138fd565b61142d866146da565b61143691613910565b9461143f6146f6565b9061144991615a10565b85611454868a6138fd565b9061145e91613910565b6040519283526001600160a01b03939093166004830152909190826024815a93602094fa6114d7956114c4936114b7926114a8918115611782575b600091611763575b5084613910565b95896114b261474b565b615a6e565b6114bf6147aa565b615a10565b6114d0826114bf6147fa565b1015614851565b6039546114ec906001600160a01b03166102c1565b604051630e563a7d60e41b8152336004820152602481018490529390602090859060449082905afa938415611756575b60009461172e575b50606061153791019380855215156136ca565b61154483516114bf6148c3565b600186523360208701526001600160a01b0388166040870152606086018290526001600160a01b03871660808701528360a08701528460c08701524260e087015282516101008701526101208601526000610140860152600061016086015260405197630531044160e31b8952602089600481845afa988915611721575b600099611700575b50803b1561000e576000809160046040518094819363259d9fd160e21b83525af180156116f3575b6116e0575b5060365461160d906001600160a01b03166102c1565b91823b1561000e5761165e60007fddda05bca10ccedb67628486050c0637ba56c3b1d4d271f7524748d5e3931c85976116b3958c8360405180968195829463967a76cb60e01b845260048401614918565b03925af180156116d3575b6116c0575b5051604080519283526001600160a01b039788166020840152820193909352606081019290925260808201929092524260a082015233949093169290819060c0820190565b0390a46103866001600055565b80610f106116cd92612dcd565b3861166e565b6116db612e59565b611669565b80610f106116ed92612dcd565b386115f7565b6116fb612e59565b6115f2565b61171a91995060203d602011610ab057610aa28183612e23565b97386115ca565b611729612e59565b6115c2565b61153791945061174e60609160203d602011610ab057610aa28183612e23565b949150611524565b61175e612e59565b61151c565b61177c915060203d602011610ab057610aa28183612e23565b386114a1565b61178a612e59565b611499565b6117a8915060203d602011610ab057610aa28183612e23565b3861141e565b6117b6612e59565b611416565b6117d79195506101003d61010011610bdd57610bc38183612e23565b5050505050505093386113d8565b6117ed612e59565b6113d0565b61180b915060203d602011610ab057610aa28183612e23565b3861136d565b611819612e59565b611365565b611837915060203d602011610f4f57610f408183612e23565b38611327565b611845612e59565b61131f565b611863915060203d60201161041a5761040b8183612e23565b386112e0565b611871612e59565b6112d8565b61188f915060203d602011610ab057610aa28183612e23565b386112a0565b61189d612e59565b611298565b503461000e57608036600319011261000e5761192c6004356118c381610237565b602435906118d082610237565b6118d86130b6565b61191f60018060a01b0360246020826036541660405192838092631a59df7760e11b825286891660048301525afa908115611954575b600091611936575b5016331461310c565b6064359160443591613192565b6103866001600055565b61194e915060203d811161041a5761040b8183612e23565b38611916565b61195c612e59565b61190e565b503461000e57611970366111cc565b61197d94939192946130b6565b61198684615843565b61198f84615903565b611998826159c4565b6119a0614540565b916119a9614be4565b926119b54284116145b9565b60365486906004906119cf906001600160a01b03166102c1565b60405163288d4ff760e21b81526001600160a01b038416838201908152919a9186919060209082908190038201818f5afa908115611f0c575b600091611eed575b50603554602090611a29906001600160a01b03166102c1565b604051631f94a27560e31b815295869182905afa938415611ee0575b600094611ebf575b50604051632e79732b60e11b81526001600160a01b0386166004820152611a7d906020818f818060248101611313565b611ad4828d6020604051809263e240301960e01b82528180611ab18d60048301919091602081019260018060a01b03169052565b03915afa908115611eb2575b600091611e93575b50806101608d01521015614c6b565b611ae6611ae13387614499565b6138d4565b603754909190611afe906001600160a01b03166102c1565b604051633e15014160e01b81526001600160a01b0386166004820152959061010090879060249082905afa958615611e86575b600096611e35575b5060405163b3596f0760e01b81526001600160a01b0390971660048801529495611c5f95611bc1949392611bba928992611bb19291611bab91611ba591899160209082908180602481015b03916001600160a01b03165afa9081156117ae5760009161178f57506138fd565b916146da565b90613910565b846114b2614ce2565b1015614d41565b603954611c1f90611bda906001600160a01b03166102c1565b604051630e563a7d60e41b81523360048201526024810188905290602090829060449082905afa908115611e28575b600091611e09575b508060608a015215156136ca565b611c2f60608801516114bf614dc5565b600184523360208501526001600160a01b0389166040850152606084018590526001600160a01b03166080840152565b8560a08301528360c08301524260e08301526060850151610100830152610120820152600061014082015260006101608201526040519663369f271360e01b8852602088600481845afa978815611dfc575b600098611ddb575b50803b1561000e5760008091600460405180948193635420f5a760e01b83525af18015611dce575b611dbb575b50603654611cfc906001600160a01b03166102c1565b803b1561000e577ff8b6062ca08c00ea54f74d7f53f049ed4cb014a7787c62250e6dfa1229d7d46094611d4f60006116b3946060948c8360405180968195829463014c0f2b60e31b845260048401614918565b03925af18015611dae575b611d9b575b50015160408051938452602084019690965294820194909452606081019190915242608082015233936001600160a01b031692819060a0820190565b80610f10611da892612dcd565b38611d5f565b611db6612e59565b611d5a565b80610f10611dc892612dcd565b38611ce6565b611dd6612e59565b611ce1565b611df591985060203d602011610ab057610aa28183612e23565b9638611cb9565b611e04612e59565b611cb1565b611e22915060203d602011610ab057610aa28183612e23565b38611c11565b611e30612e59565b611c09565b611c5f965090611bb1859493611bab611ba5611bc198611b846020611e6d611bba996101003d61010011610bdd57610bc38183612e23565b505050505050509d505050505050939495505090611b39565b611e8e612e59565b611b31565b611eac915060203d602011610ab057610aa28183612e23565b38611ac5565b611eba612e59565b611abd565b611ed991945060203d60201161041a5761040b8183612e23565b9238611a4d565b611ee8612e59565b611a45565b611f06915060203d602011610ab057610aa28183612e23565b38611a10565b611f14612e59565b611a08565b503461000e5760408060031936011261000e5760365460049060243590823590611f4b906001600160a01b03166102c1565b845163369f271360e01b8152611f7b906020818781865afa908115612048575b60009161202a575b508410614e16565b611f8b6109b06109ab8486613b09565b936000925b84811115611fa5578651806104d388826108f0565b8651636c20351d60e11b81528281018281526101809591908690829081906020010381885afa95861561201d575b600096611ff4575b505090610a3882610a26611fef9491614baa565b611f90565b611fef93929650610a38918161201592903d10610a7557610a658183612e23565b959192611fdb565b612025612e59565b611fd3565b612042915060203d8111610ab057610aa28183612e23565b38611f73565b612050612e59565b611f6b565b503461000e57602036600319011261000e57610386610cc0600435612078614540565b5060365461210b90612092906001600160a01b03166102c1565b60405163587854a560e11b815260048101849052610180918290829060249082905afa918215612138575b60009261211b575b50506120d66001610c728351151590565b60408101516001600160a01b0316606082015160208301519092908590610100906001600160a01b03169201519333936152da565b600052603a602052604060002090565b6121319250803d10610a7557610a658183612e23565b38806120c5565b612140612e59565b6120bd565b503461000e57600036600319011261000e576037546040516001600160a01b039091168152602090f35b503461000e57602036600319011261000e5760043561218d81610237565b603754604051632fe4a15f60e21b81526001600160a01b0392831660048201529161010091829184916024918391165afa8015612286575b60009081928283849085928694879661221f575b506104d3969798506040519889988994919260e0969399989794919961010087019a8752602087015260408601526060850152608084015260a083015260c08201520152565b96975050505050505082813d831161227f575b61223c8183612e23565b8101031261057557508051602082015160408301516060840151608085015160a086015160c087015160e0909701519496879695949093919291906104d36121d9565b503d612232565b61228e612e59565b6121c5565b503461000e57602036600319011261000e5760365461106f90600435906122c2906001600160a01b03166102c1565b906122f360405163369f271360e01b8152602081600481875afa9081156111a2576000916111845750821115614a40565b6122fb614540565b506040518092636c20351d60e11b82528180610180968795600483019190602083019252565b503461000e57606036600319011261000e5761233e600435610237565b6044356123496130b6565b612354600435615843565b61235f600435615903565b61236a6024356159c4565b612372613405565b6036546126219060409061238e906001600160a01b03166102c1565b8151632e79732b60e11b8152600480356001600160a01b0316908201526123cc90602081602481865afa90811561183d5760009161181e5750613496565b84600214801561296a575b6123e09061350e565b6123e9856134ee565b6101c08401906123f98683613566565b825163e240301960e01b8152600480356001600160a01b03169082015261244590602081602481865afa90811561295d575b60009161293e575b50806101608801526024351115613572565b6037546125d09061245e906001600160a01b03166102c1565b8451632c6d0e9b60e01b8152336004820152602090610100906124ef906124ea906124e69084816024818a5afa908115612931575b8d600091829083908490859086976128ec575b509260c09285928796956124c56101e06124e09a98019a8b9015159052565b60408501528d8401528b83015260e08201520152151561360c565b51151590565b1590565b613658565b60395461254c90612508906001600160a01b03166102c1565b8851630e563a7d60e41b81523360048201526024803590820152908490829060449082905afa9081156128df575b6000916128c2575b508060608c015215156136ca565b606089015160e08a0151918a0151838b015189516312737c3360e01b8152600480356001600160a01b031690820152602480359082015260448101939093526064830193909352608482015260a4810191909152918290818060c4810103915afa9081156128b5575b600091612896575b508060a088015260c08701511015613720565b600182516125dd816134ee565b6125e6816134ee565b14612788575b60608501519151916125fd836134ee565b60008451809681958294630deb1bf960e21b84526024353360043560048701613883565b03925af192831561277b575b6000918294612748575b5061012083019384526101a0830191825260365461265d906001600160a01b03166102c1565b803b1561000e5760405163fa93b2a560e01b8152600480356001600160a01b031690820152336024808301919091523560448201527fe27fbad0754d6c730a8161378bc066f66fac114445968dcfc26d42a3002960139360609290919060009082908183816064810103925af1801561273b575b612728575b505193015193516040805160243581526020810193909352820193909352606081019390935260808301919091524260a083015233916001600160a01b0360043516919060c090a36103866001600055565b80610f1061273592612dcd565b386126d6565b612743612e59565b6126d1565b90935061276d915060403d604011612774575b6127658183612e23565b81019061386d565b9238612637565b503d61275b565b612783612e59565b61262d565b825163710ba6c360e11b8152600480356001600160a01b031690820152336024808301919091523560448201526127d890602081606481865afa908115612889575b60009161286a575b50613789565b61283961282f612828600460206127f96102c160385460018060a01b031690565b88516335adc96b60e21b815292839182905afa90811561285d575b60009161283e575b506101608901516138fd565b6064900490565b60243511156137fb565b6125ec565b612857915060203d602011610ab057610aa28183612e23565b3861281c565b612865612e59565b612814565b612883915060203d602011610f4f57610f408183612e23565b386127d2565b612891612e59565b6127ca565b6128af915060203d602011610ab057610aa28183612e23565b386125bd565b6128bd612e59565b6125b5565b6128d99150843d8611610ab057610aa28183612e23565b3861253e565b6128e7612e59565b612536565b9250505060c094506124e093506129199150883d8a1161292a575b6129118183612e23565b8101906135cb565b9995985093955091939092506124a6565b503d612907565b612939612e59565b612493565b612957915060203d602011610ab057610aa28183612e23565b38612433565b612965612e59565b61242b565b50600185146123d7565b503461000e57602036600319011261000e5760043561299281610237565b60ff600254169081159182612a5a575b8015612a4e575b156129f2576129bc90826129d157612e71565b6129c257005b61038660ff1960025416600255565b6129e3600160ff196002541617600255565b6129ed6003600155565b612e71565b60405162461bcd60e51b815260206004820152602e60248201527f436f6e747261637420696e7374616e63652068617320616c726561647920626560448201526d195b881a5b9a5d1a585b1a5e995960921b6064820152608490fd5b506001546003116129a9565b50303b156129a2565b503461000e57600036600319011261000e576035546040516001600160a01b039091168152602090f35b503461000e57600036600319011261000e5760206040516000198152f35b50606036600319011261000e576004803590612ac682610237565b6024359160443561ffff81160361000e57612adf6130b6565b612ae8836159c4565b603654612afd906001600160a01b03166102c1565b60408051631a59df7760e11b81526001600160a01b0384168186019081529095919491929060209081908890819083010381855afa968715612d7f575b600097612d60575b5085516370a0823160e01b8152338482019081526001600160a01b039889169391908390829081906020010381875afa928315612d53575b600093612d34575b5050803b1561000e578651632f35bfe960e21b81526001600160a01b038716858201908152336020820152604081018790529215606084015291600091839182908490829060800103925af18015612d27575b612d14575b50803b1561000e5784516394362e8b60e01b81523383820190815260208101859052909160009183919082908490829060400103925af18015612d07575b612cf4575b50603654612c33906001600160a01b03166102c1565b803b1561000e5784516328fcf4d360e01b81526001600160a01b038516928101928352336020840152604083018490526000967fdcbc1c05240f31ff3ad067ef1ee35ce4997762752e3a095284754544f4c709d793612cc793919291899183919082908190606001039134905af18015612ce7575b612cd4575b508551938452426020850152339416929081906040820190565b0390a3610ec86001600055565b80610f10612ce192612dcd565b38612cad565b612cef612e59565b612ca8565b80610f10612d0192612dcd565b38612c1d565b612d0f612e59565b612c18565b80610f10612d2192612dcd565b38612bda565b612d2f612e59565b612bd5565b612d4b929350803d10610ab057610aa28183612e23565b903880612b82565b612d5b612e59565b612b7a565b81612d789298503d891161041a5761040b8183612e23565b9538612b42565b612d87612e59565b612b3a565b503461000e57600036600319011261000e576036546040516001600160a01b039091168152602090f35b50634e487b7160e01b600052604160045260246000fd5b6001600160401b038111612de057604052565b612de8612db6565b604052565b606081019081106001600160401b03821117612de057604052565b604081019081106001600160401b03821117612de057604052565b90601f801991011681019081106001600160401b03821117612de057604052565b9081602091031261000e57516105b281610237565b506040513d6000823e3d90fd5b51906108ee82610237565b603580546001600160a01b0319166001600160a01b039290921691821790556108ee90612e9d906102c1565b6040518091630774f5f560e21b825281600460209384935afa91821561309a575b60009261307b575b50603680546001600160a01b0319166001600160a01b03938416179055612f4182600483612efe6102c160355460018060a01b031690565b6040516352cb335b60e11b815292839182905afa90811561306e575b600091613051575b501660018060a01b03166001600160601b0360a01b6037541617603755565b612f9f82600483612f5c6102c160355460018060a01b031690565b604051639fabe17560e01b815292839182905afa908115613044575b600091613027575b501660018060a01b03166001600160601b0360a01b6038541617603855565b6035546004908290612fb9906001600160a01b03166102c1565b604051633efbbf0f60e21b815292839182905afa91821561301a575b600092612ffd575b50501660018060a01b03166001600160601b0360a01b6039541617603955565b6130139250803d1061041a5761040b8183612e23565b3880612fdd565b613022612e59565b612fd5565b61303e9150843d861161041a5761040b8183612e23565b38612f80565b61304c612e59565b612f78565b6130689150843d861161041a5761040b8183612e23565b38612f22565b613076612e59565b612f1a565b816130939293503d841161041a5761040b8183612e23565b9038612ec6565b6130a2612e59565b612ebe565b9081602091031261000e575190565b6002600054146130c7576002600055565b60405162461bcd60e51b815260206004820152601f60248201527f5265656e7472616e637947756172643a207265656e7472616e742063616c6c006044820152606490fd5b1561311357565b60405162461bcd60e51b815260206004820152604b60248201527f5468652063616c6c6572206f6620746869732066756e6374696f6e2063616e2060448201527f6f6e6c79206265207468652061546f6b656e20636f6e7472616374206f66207460648201526a686973207265736572766560a81b608482015260a490fd5b9261319c84615843565b6131a5836159c4565b6036546131ba906001600160a01b03166102c1565b60405163e240301960e01b81526001600160a01b03861660048201526131fd908590602081602481875afa908115613364575b600091613346575b501015613371565b803b1561000e5760405163afcdbea360e01b81526001600160a01b0386811660048301528416602482015260448101859052911560648301526000908290608490829084905af18015613339575b613326575b50603654613266906001600160a01b03166102c1565b803b1561000e5760405163fa93b2a560e01b81526001600160a01b03858116600483015283166024820152604481018490527f9c4ed599cd8555b9c1e8cd7643240d7d71eb76b792948c49fcb4d411f7b6b3c692613301929091906000908290606490829084905af18015613319575b613306575b50604080519485524260208601526001600160a01b039182169590911693918291820190565b0390a3565b80610f1061331392612dcd565b386132db565b613321612e59565b6132d6565b80610f1061333392612dcd565b38613250565b613341612e59565b61324b565b61335e915060203d8111610ab057610aa28183612e23565b386131f5565b61336c612e59565b6131ed565b1561337857565b60405162461bcd60e51b81526020600482015260316024820152600080516020615abd83398151915260448201527061696c61626c6520746f2072656465656d60781b6064820152608490fd5b6040519061020082018281106001600160401b03821117612de057604052565b6040519061018082018281106001600160401b03821117612de057604052565b61340d6133c5565b9060008083528060208401528060408401528060608401528060808401528060a08401528060c08401528060e08401528061010084015280610120840152806101408401528061016084015280610180840152806101a0840152806101c08401526101e0830152565b51906108ee82610248565b9081602091031261000e57516105b281610248565b1561349d57565b60405162461bcd60e51b8152602060048201526024808201527f52657365727665206973206e6f7420656e61626c656420666f7220626f72726f60448201526377696e6760e01b6064820152608490fd5b600311156134f857565b634e487b7160e01b600052602160045260246000fd5b1561351557565b60405162461bcd60e51b815260206004820152602360248201527f496e76616c696420696e7465726573742072617465206d6f64652073656c65636044820152621d195960ea1b6064820152608490fd5b60038210156134f85752565b1561357957565b60405162461bcd60e51b81526020600482015260366024820152600080516020615abd83398151915260448201527561696c61626c6520696e20746865207265736572766560501b6064820152608490fd5b91908261010091031261000e5781519160208101519160408201519160608101519160808201519160a08101519160e060c08301519201516105b281610248565b1561361357565b60405162461bcd60e51b815260206004820152601b60248201527f54686520636f6c6c61746572616c2062616c616e6365206973203000000000006044820152606490fd5b1561365f57565b60405162461bcd60e51b815260206004820152603f60248201527f54686520626f72726f7765722063616e20616c7265616479206265206c69717560448201527f69646174656420736f2068652063616e6e6f7420626f72726f77206d6f7265006064820152608490fd5b156136d157565b60405162461bcd60e51b815260206004820152602160248201527f54686520616d6f756e7420746f20626f72726f7720697320746f6f20736d616c6044820152601b60fa1b6064820152608490fd5b1561372757565b60405162461bcd60e51b815260206004820152603460248201527f5468657265206973206e6f7420656e6f75676820636f6c6c61746572616c20746044820152736f20636f7665722061206e657720626f72726f7760601b6064820152608490fd5b1561379057565b60405162461bcd60e51b815260206004820152603960248201527f557365722063616e6e6f7420626f72726f77207468652073656c65637465642060448201527f616d6f756e742077697468206120737461626c652072617465000000000000006064820152608490fd5b1561380257565b60405162461bcd60e51b815260206004820152603c60248201527f5573657220697320747279696e6720746f20626f72726f7720746f6f206d756360448201527f68206c6971756964697479206174206120737461626c652072617465000000006064820152608490fd5b919082604091031261000e576020825192015190565b6001600160a01b039182168152911660208201526040810191909152606081019190915260a0810192919060038210156134f85760800152565b50634e487b7160e01b600052601160045260246000fd5b670de0b6b3a76400009080600019048211811515166138f1570290565b6138f96138bd565b0290565b80600019048211811515166138f1570290565b811561391a570490565b634e487b7160e01b600052601260045260246000fd5b6040519061010082018281106001600160401b03821117613980575b6040528160e06000918281528260208201528260408201528260608201528260808201528260a08201528260c08201520152565b613988612db6565b61394c565b9081606091031261000e578051916040602083015192015190565b156139af57565b60405162461bcd60e51b815260206004820152602960248201527f546865207573657220646f6573206e6f74206861766520616e7920626f72726f604482015268772070656e64696e6760b81b6064820152608490fd5b15613a0d57565b60a460405162461bcd60e51b815260206004820152604460248201527f546f207265706179206f6e20626568616c66206f6620616e207573657220616e60448201527f206578706c6963697420616d6f756e7420746f207265706179206973206e65656064820152633232b21760e11b6084820152fd5b6001906001198111613a94570190565b613a9c6138bd565b0190565b81198111613a94570190565b15613ab357565b60405162461bcd60e51b815260206004820152602860248201527f496e76616c6964206d73672e76616c75652073656e7420666f72207468652072604482015267195c185e5b595b9d60c21b6064820152608490fd5b818110613b14570390565b613b1c6138bd565b0390565b613b28613930565b603654909190613b40906001600160a01b03166102c1565b60408051639fb8afcd60e01b81526001600160a01b038481166004830152871660248201529491939091606086604481885afa9586156141ef575b600090819082986141ba575b5083850197885260208085019182529184528451633faacc6b60e21b81526001600160a01b0387811660048301528a1660248201529180836044818b5afa9283156141ad575b60009361418e575b5060e0850192835273eeeeeeeeeeeeeeeeeeeeeeeeeeeeeeeeeeeeeeee6001600160a01b03888116918214606088019081529199909691958c9190613c1c865115156139a8565b613c376000198214938a8515918296614180575b5050613a06565b613c448651885190613aa0565b92608085019380855281614176575b5061416e575b50613c676124e68851151590565b8015614163575b613c7790613aac565b81518651811115613f6c575050613c9360a09151865190613b09565b9101818152603654909390613cb0906001600160a01b03166102c1565b91855192818d51935114813b1561000e5760008f91613d188e9183978f51998a988997889663da12d96f60e01b885260048801949196959260a0949160c0870198600180881b0380921688521660208701526040860152606085015260808401521515910152565b03925af18015613f5f575b613f4c575b5082519081613e36575b5050603654613d5490613d4d906001600160a01b03166102c1565b9351151590565b60009015613e305750613d68825134613b09565b955b815196843b1561000e5786516328fcf4d360e01b81526001600160a01b0392909216600483015233602483015260448201979097527fb718f0b14f03d8c3adf35b15e3da52421b042ac879e5a689011a8b1e0036773d96613e0b94600091839160649183915af18015613e23575b613e10575b5051905196519351938493339916974292859094939260609260808301968352602083015260408201520152565b0390a4565b80610f10613e1d92612dcd565b38613ddd565b613e2b612e59565b613dd8565b95613d6a565b603654613e4b906001600160a01b03166102c1565b90613e568651151590565b60009015613f46575082915b6035546004908390613e7c906001600160a01b03166102c1565b8b51637744894b60e11b815292839182905afa928315613f39575b600093613f1a575b5050803b1561000e57885163c7d1423760e01b81526001600160a01b038b81166004830152336024830152604482019590955291909316606482015291600091839160849183915af18015613f0d575b613efa575b80613d32565b80610f10613f0792612dcd565b38613ef4565b613f15612e59565b613eef565b613f31929350803d1061041a5761040b8183612e23565b903880613e9f565b613f41612e59565b613e97565b91613e62565b80610f10613f5992612dcd565b38613d28565b613f67612e59565b613d23565b9250929350935089969997949751823b1561000e578a5163da12d96f60e01b81526001600160a01b0387811660048301528d1660248201526000604482018190526064820193909352608481019190915260a4810182905291829060c490829084905af18015614156575b614143575b50603654613ffd90613ff6906001600160a01b03166102c1565b9651151590565b6000901561413e575081515b82516035546004908490614025906001600160a01b03166102c1565b8c51637744894b60e11b815292839182905afa938415614131575b600094614112575b5050873b1561000e57895163c7d1423760e01b81526001600160a01b0395861660048201528b8616602482015260448101919091529190931660648201527fb718f0b14f03d8c3adf35b15e3da52421b042ac879e5a689011a8b1e0036773d95613e0b9360009183916084918391905af18015614105575b6140f2575b50519251955192839233981696429184606091949392608082019560008352602083015260408201520152565b80610f106140ff92612dcd565b386140c5565b61410d612e59565b6140c0565b614129929450803d1061041a5761040b8183612e23565b913880614048565b614139612e59565b614040565b614009565b80610f1061415092612dcd565b38613fdc565b61415e612e59565b613fd7565b508151341015613c6e565b825238613c59565b9050811038613c53565b9091501633148f8b90613c30565b816141a69294503d8511610ab057610aa28183612e23565b9138613bd5565b6141b5612e59565b613bcd565b9150506141df91965060603d81116141e8575b6141d78183612e23565b81019061398d565b96919038613b87565b503d6141cd565b6141f7612e59565b613b7b565b1561420357565b60405162461bcd60e51b815260206004820152602a60248201527f5573657220646f6573206e6f74206861766520616e79206c69717569646974796044820152690819195c1bdcda5d195960b21b6064820152608490fd5b1561426257565b60405162461bcd60e51b815260206004820152603060248201527f55736572206465706f73697420697320616c7265616479206265696e6720757360448201526f195908185cc818dbdb1b185d195c985b60821b6064820152608490fd5b6020906001600160401b0381116142dd575b601f01601f19160190565b6142e5612db6565b6142d2565b3d15614315573d906142fb826142c0565b916143096040519384612e23565b82523d6000602084013e565b606090565b1561432157565b60405162461bcd60e51b815260206004820152601760248201527f4c69717569646174696f6e2063616c6c206661696c65640000000000000000006044820152606490fd5b918091926000905b82821061438657501161437f575050565b6000910152565b9150806020918301518186015201829161436e565b919060408382031261000e578251926020810151906001600160401b03821161000e570181601f8201121561000e5780516143d5816142c0565b926143e36040519485612e23565b8184526020828401011161000e576105b29160208085019101614366565b90613a9c60209282815194859201614366565b9060209161442d81518092818552858086019101614366565b601f01601f1916010190565b9060206105b2928181520190614414565b91908261014091031261000e5781519160208101519160408201519160608101519160808201519160a08101519160c08201519160e0810151916101206101008301519201516105b281610248565b6037546040516328dd2d0160e01b81526001600160a01b0392831660048201529282166024840152670de0b6b3a7640000929161014091829184916044918391165afa918215614533575b6000918293614509575b50508181106144fc57030490565b6145046138bd565b030490565b614523935080919250903d1061068d576106758183612e23565b50505050505050509038806144ee565b61453b612e59565b6144e4565b6040519061018082018281106001600160401b038211176145ac575b604052816101606000918281528260208201528260408201528260608201528260808201528260a08201528260c08201528260e08201528261010082015282610120820152826101408201520152565b6145b4612db6565b61455c565b156145c057565b60405162461bcd60e51b8152602060048201526014602482015273125b9d985b1a5908111d594811185d194814d95d60621b6044820152606490fd5b1561460357565b60405162461bcd60e51b81526020600482015260506024820152600080516020615abd83398151915260448201527f61696c61626c6520696e20746865207265736572766520746f206d616b65206160648201526f08189bdc9c9bddc81c1c9bdc1bdcd85b60821b608482015260a490fd5b91908261010091031261000e57815191602081015191604082015191606081015161469f81610237565b9160808201516146ae81610248565b9160a08101516146bd81610248565b9160e060c08301516146ce81610248565b9201516105b281610248565b604d81116146e9575b600a0a90565b6146f16138bd565b6146e3565b6040519061470382612ded565b603382527202fb932b9b2b93b32aa37a137b93937bb901d1606d1b6040837f2020203d3e204c42504d203a72657365727665446563696d616c7320666f722060208201520152565b6040519061475882612ded565b603a82527f6f72726f77416d6f756e744554482c20626f72726f774c5456200000000000006040837f2020203d3e204c42504d203a205f616d6f756e742c207265717565737465644260208201520152565b604051906147b782612ded565b602e82526d037bb90283937b837b9b0b6101d160951b6040837f2020203d3e204c42504d203a20455448204e656564656420666f7220426f727260208201520152565b6040519061480782612ded565b6035825274037b9102137b93937bb90283937b837b9b0b6101d1605d1b6040837f2020203d3e204c42504d203a20436f6c6c61746572616c204e6565646564206660208201520152565b1561485857565b60405162461bcd60e51b815260206004820152603d60248201527f5468657265206973206e6f7420656e6f75676820636f6c6c61746572616c207460448201527f6f20636f7665722061206e657720626f72726f772070726f706f73616c0000006064820152608490fd5b604051906148d082612ded565b60338252720103137b93937bb90383937b837b9b0b6101d1606d1b6040837f2020203d3e204c42504d203a20426f72726f772046656520666f72207468697360208201520152565b9081526101a0810192916108ee9160200190610851565b908161018091031261000e576149436133e5565b9061494d81613476565b825261495b60208201612e66565b602083015261496c60408201612e66565b60408301526060810151606083015261498760808201612e66565b608083015260a081015160a083015260c081015160c083015260e081015160e08301526101008082015190830152610120808201519083015261014080820151908301526149d9610160809201613476565b9082015290565b156149e757565b60405162461bcd60e51b815260206004820152602b60248201527f4f6e6c792041637469766520426f72726f772050726f706f73616c2063616e2060448201526a1899481058d8d95c1d195960aa1b6064820152608490fd5b15614a4757565b60405162461bcd60e51b8152602060048201526013602482015272125b9d985b1a590817dc1c9bdc1bdcd85b1259606a1b6044820152606490fd5b15614a8957565b60405162461bcd60e51b815260206004820152602660248201527f456e6420496e646578206f76657220626f72726f7750726f706f73616c4c69736044820152651d10dbdd5b9d60d21b6064820152608490fd5b15614ae457565b60405162461bcd60e51b815260206004820152602260248201527f4d6178696d756d203230303020697465726174696f6e207065722072657175656044820152611cdd60f21b6064820152608490fd5b6020906001600160401b038111614b4d575b60051b0190565b614b55612db6565b614b46565b90614b6482614b34565b614b716040519182612e23565b8281528092614b82601f1991614b34565b019060005b828110614b9357505050565b602090614b9e614540565b82828501015201614b87565b6001906000198114613a94570190565b8051821015614bce5760209160051b010190565b634e487b7160e01b600052603260045260246000fd5b604051906101c082018281106001600160401b03821117614c5e575b604052816101a06000918281528260208201528260408201528260608201528260808201528260a08201528260c08201528260e082015282610100820152826101208201528261014082015282610160820152826101808201520152565b614c66612db6565b614c00565b15614c7257565b60405162461bcd60e51b815260206004820152604e6024820152600080516020615abd83398151915260448201527f61696c61626c6520696e20746865207265736572766520746f206d616b65206160648201526d081b195b99081c1c9bdc1bdcd85b60921b608482015260a490fd5b60405190614cef82612ded565b604082527f656e64416d6f756e74496e5765692c20636f6c6c61746572616c4c5456203a206040837f2020203d3e204c42504d203a205f616d6f756e742c207265717565737465644c60208201520152565b15614d4857565b60405162461bcd60e51b815260206004820152604960248201527f5468657265206973206e6f7420656e6f7567682062616c616e636520746f206c60448201527f656e6420696e206f7264657220746f20636f7665722061206e6577206c656e64606482015268081c1c9bdc1bdcd85b60ba1b608482015260a490fd5b60405190614dd282612ded565b602f82526e032b73210383937b837b9b0b6101d1608d1b6040837f2020203d3e204c42504d203a204c656e642046656520666f722074686973206c60208201520152565b15614e1d57565b60405162461bcd60e51b815260206004820152602960248201527f456e6420496e64657820657863656564696e67204c656e6450726f706f73616c604482015268131a5cdd10dbdd5b9d60ba1b6064820152608490fd5b93949194614e806130b6565b614e8985615843565b614e9285615903565b614e9b826159c4565b614eda828487614eb56102c160365460018060a01b031690565b604051636c20351d60e11b8152600481018c9052610180958690829081906024820190565b0381855afa9586156152cd575b6000966152aa575b505060808501518491908a908d9085906001600160a01b0316610120909901516035546001600160a01b03166001600160a01b0316928a82604051808097631f94a27560e31b82525a92600491602094fa9586156150586150fc9e615037602060409f60009c6150df9b61507a9a615066996150589961529d575b600093615272575b5060405163b3596f0760e01b81526001600160a01b039091166004820152614ffe91858280602481015b03816001600160a01b0388165afa918215615265575b600092615236575b50614fed614fd883614fd3614ff694614fd3338b614499565b6138fd565b6ec097ce7bc90715b34b9f1000000000900490565b9b6114bf615551565b6114bf61558a565b61500a896114bf6155d6565b60405163b3596f0760e01b81526001600160a01b0390921660048301529092839190829081906024820190565b03916001600160a01b03165afa908115615229575b8b9161178f57506138fd565b670de0b6b3a7640000900490565b90615073826114bf615625565b101561566c565b615086896114bf6157bb565b8751637eb83b6360e11b81526001600160a01b0393841660048201529290941660248301526044820195909552606481019690965260016084870152600060a487015260c48601919091528492839190829060e4820190565b03925af190811561521c575b6000916151fb575b506114bf6157f4565b603654615111906001600160a01b03166102c1565b90813b1561000e5760405163fa93b2a560e01b81526001600160a01b03888116600483015287166024820152604481018590527f0fe896ff57f0d00b15c188699fac3b7ce27c564a706118e52c3c45e88c7bab7e956151ce939091906000908290606490829084905af180156151ee575b6151db575b50604080516001600160a01b03938416815297831660208901528701949094526000606087015260808601939093524260a0860152908216949091169290819060c0820190565b0390a46108ee6001600055565b80610f106151e892612dcd565b38615187565b6151f6612e59565b615182565b615214915060403d604011612774576127658183612e23565b9050386150f3565b615224612e59565b6150eb565b615231612e59565b61504c565b614fd39250614fd8614ff69261525b614fed938a3d8c11610ab057610aa28183612e23565b9450925050614fba565b61526d612e59565b614fb2565b614f9c9193509185615293614ffe94823d841161041a5761040b8183612e23565b9492505091614f72565b6152a5612e59565b614f6a565b8592965090816152c592903d10610a7557610a658183612e23565b949038614eef565b6152d5612e59565b614ee7565b939491946152e66130b6565b6152ef85615843565b6152f885615903565b615301826159c4565b81866154168561531b6102c160365460018060a01b031690565b60409485918a60008d6153fa61537660806153528951636c20351d60e11b81528d8180610180948593600483019190602083019252565b03818c5afa918215615544575b8792615527575b505001516001600160a01b031690565b9961539b87615388611ae13387614499565b615394816114bf6156de565b101561573d565b6153a7896114bf6157bb565b875198899788968795637eb83b6360e11b87526004870191959493909260c09360e084019760018060a01b0380921685521660208401526040830152606082015260016080820152600160a08201520152565b03925af190811561551a575b60009161550357506114bf6157f4565b60365461542b906001600160a01b03166102c1565b94853b1561000e57825163fa93b2a560e01b81526001600160a01b03898116600483015288811660248301526044820187905290969095908690886064815a6000948591f17f0fe896ff57f0d00b15c188699fac3b7ce27c564a706118e52c3c45e88c7bab7e986151ce969180156154f6575b6154e3575b50516001600160a01b03948516815298909316602089015260408801526001606088015260808701524260a08701529190921694169290819060c0820190565b80610f106154f092612dcd565b386154a3565b6154fe612e59565b61549e565b6152149150843d8611612774576127658183612e23565b615522612e59565b615406565b61553d9250803d10610a7557610a658183612e23565b3880615366565b61554c612e59565b61535f565b6040519061555e82612e08565b601d82527f2020203d3e204c42504d203a20636f6c6c61746572616c4c7476203a200000006020830152565b6040519061559782612ded565b602a825269031b2a4b72bb2b4901d160b51b6040837f2020203d3e204c42504d203a20636f6c6c61746572616c4f7261636c6550726960208201520152565b604051906155e382612ded565b602d82526c0383634b2b22b30b63ab2901d1609d1b6040837f2020203d3e204c42504d203a2075736572436f6c6c61746572616c4c7476417060208201520152565b6040519061563282612ded565b602582526403a34101d160dd1b6040837f2020203d3e204c42504d203a20626f72726f7741737365745072696365496e4560208201520152565b1561567357565b60405162461bcd60e51b815260206004820152603f60248201527f426f72726f77657220646f65736e2774206861766520656e6f75676820636f6c60448201527f6c61746572616c20746f20616363657074204c656e642050726f706f73616c006064820152608490fd5b604051906156eb82612ded565b603d82527f626c6520526573657276652042616c616e636520696e20576569203a200000006040837f2020203d3e204c42504d203a20757365722043757272656e7420417661696c6160208201520152565b1561574457565b60a460405162461bcd60e51b815260206004820152604460248201527f4c656e64657220646f65736e2774206861766520656e6f75676820526573657260448201527f76652042616c616e636520746f2041636365707420426f72726f772050726f706064820152631bdcd85b60e21b6084820152fd5b604051906157c882612e08565b601b82527f2020203d3e204c42504d203a205365727669636520466565203a2000000000006020830152565b6040519061580182612ded565b602d82526c01024b731b932b0b9b2b2101d1609d1b6040837f2020203d3e204c42504d203a205573657220426f72726f772042616c616e636560208201520152565b603654604051630283aeb760e11b81526001600160a01b0392831660048201529160209183916024918391165afa9081156158f6575b6000916158d8575b501561588957565b60405162461bcd60e51b815260206004820152602160248201527f416374696f6e20726571756972657320616e20616374697665207265736572766044820152606560f81b6064820152608490fd5b6158f0915060203d8111610f4f57610f408183612e23565b38615881565b6158fe612e59565b615879565b603654604051634a08accb60e01b81526001600160a01b0392831660048201529160209183916024918391165afa9081156159b7575b600091615999575b5061594857565b60405162461bcd60e51b8152602060048201526024808201527f416374696f6e20726571756972657320616e20756e667265657a6564207265736044820152636572766560e01b6064820152608490fd5b6159b1915060203d8111610f4f57610f408183612e23565b38615941565b6159bf612e59565b615939565b156159cb57565b60405162461bcd60e51b815260206004820152601d60248201527f416d6f756e74206d7573742062652067726561746572207468616e20300000006044820152606490fd5b615a53615a3f916108ee93604051938492632d839cb360e21b6020850152604060248501526064840190614414565b90604483015203601f198101835282612e23565b600080916020815191016a636f6e736f6c652e6c6f675afa50565b615a53916108ee94615a9e9460405195869463a7a8785360e01b60208701526080602487015260a4860190614414565b9260448501526064840152608483015203601f198101835282612e2356fe5468657265206973206e6f7420656e6f756768206c6971756964697479206176a2646970667358221220b498eb58bdd93e37cdde11a194466914f0632285c35680e1ad089d6ae33406bd64736f6c634300080d0033",
  "linkReferences": {},
  "deployedLinkReferences": {}
}