{
  "_format": "hh-sol-artifact-1",
  "contractName": "LendingBoardProposeMode",
  "sourceName": "contracts/lendingboard/LendingBoardProposeMode.sol",
  "abi": [
    {
      "anonymous": false,
      "inputs": [
        {
          "indexed": true,
          "internalType": "address",
          "name": "_reserve",
          "type": "address"
        },
        {
          "indexed": true,
          "internalType": "address",
          "name": "_user",
          "type": "address"
        },
        {
          "indexed": false,
          "internalType": "uint256",
          "name": "_amount",
          "type": "uint256"
        },
        {
          "indexed": false,
          "internalType": "uint256",
          "name": "_borrowRateMode",
          "type": "uint256"
        },
        {
          "indexed": false,
          "internalType": "uint256",
          "name": "_borrowRate",
          "type": "uint256"
        },
        {
          "indexed": false,
          "internalType": "uint256",
          "name": "_originationFee",
          "type": "uint256"
        },
        {
          "indexed": false,
          "internalType": "uint256",
          "name": "_borrowBalanceIncrease",
          "type": "uint256"
        },
        {
          "indexed": false,
          "internalType": "uint256",
          "name": "_timestamp",
          "type": "uint256"
        }
      ],
      "name": "Borrow",
      "type": "event"
    },
    {
      "anonymous": false,
      "inputs": [
        {
          "indexed": true,
          "internalType": "address",
          "name": "_reserveToLend",
          "type": "address"
        },
        {
          "indexed": true,
          "internalType": "address",
          "name": "_lender",
          "type": "address"
        },
        {
          "indexed": false,
          "internalType": "address",
          "name": "_borrower",
          "type": "address"
        },
        {
          "indexed": true,
          "internalType": "uint256",
          "name": "_proposalId",
          "type": "uint256"
        },
        {
          "indexed": false,
          "internalType": "uint256",
          "name": "_amount",
          "type": "uint256"
        },
        {
          "indexed": false,
          "internalType": "uint256",
          "name": "_originationFee",
          "type": "uint256"
        },
        {
          "indexed": false,
          "internalType": "uint256",
          "name": "_timestamp",
          "type": "uint256"
        }
      ],
      "name": "BorrowAccepted",
      "type": "event"
    },
    {
      "anonymous": false,
      "inputs": [
        {
          "indexed": true,
          "internalType": "address",
          "name": "_reserveToBorrow",
          "type": "address"
        },
        {
          "indexed": true,
          "internalType": "address",
          "name": "_borrowProposer",
          "type": "address"
        },
        {
          "indexed": true,
          "internalType": "uint256",
          "name": "_proposalId",
          "type": "uint256"
        },
        {
          "indexed": false,
          "internalType": "uint256",
          "name": "_amount",
          "type": "uint256"
        },
        {
          "indexed": false,
          "internalType": "address",
          "name": "_reserveForCollateral",
          "type": "address"
        },
        {
          "indexed": false,
          "internalType": "uint256",
          "name": "_interestRate",
          "type": "uint256"
        },
        {
          "indexed": false,
          "internalType": "uint256",
          "name": "_originationFee",
          "type": "uint256"
        },
        {
          "indexed": false,
          "internalType": "uint256",
          "name": "_dueDate",
          "type": "uint256"
        },
        {
          "indexed": false,
          "internalType": "uint256",
          "name": "_timestamp",
          "type": "uint256"
        }
      ],
      "name": "BorrowProposed",
      "type": "event"
    },
    {
      "anonymous": false,
      "inputs": [
        {
          "indexed": true,
          "internalType": "address",
          "name": "_reserve",
          "type": "address"
        },
        {
          "indexed": true,
          "internalType": "address",
          "name": "_user",
          "type": "address"
        },
        {
          "indexed": false,
          "internalType": "uint256",
          "name": "_amount",
          "type": "uint256"
        },
        {
          "indexed": false,
          "internalType": "uint256",
          "name": "_timestamp",
          "type": "uint256"
        }
      ],
      "name": "Deposit",
      "type": "event"
    },
    {
      "anonymous": false,
      "inputs": [
        {
          "indexed": true,
          "internalType": "address",
          "name": "_reserveToLend",
          "type": "address"
        },
        {
          "indexed": true,
          "internalType": "address",
          "name": "_lender",
          "type": "address"
        },
        {
          "indexed": false,
          "internalType": "address",
          "name": "_borrower",
          "type": "address"
        },
        {
          "indexed": true,
          "internalType": "uint256",
          "name": "_proposalId",
          "type": "uint256"
        },
        {
          "indexed": false,
          "internalType": "uint256",
          "name": "_amount",
          "type": "uint256"
        },
        {
          "indexed": false,
          "internalType": "uint256",
          "name": "_originationFee",
          "type": "uint256"
        },
        {
          "indexed": false,
          "internalType": "uint256",
          "name": "_timestamp",
          "type": "uint256"
        }
      ],
      "name": "LendAccepted",
      "type": "event"
    },
    {
      "anonymous": false,
      "inputs": [
        {
          "indexed": true,
          "internalType": "address",
          "name": "_reserveToLend",
          "type": "address"
        },
        {
          "indexed": true,
          "internalType": "address",
          "name": "_lendProposer",
          "type": "address"
        },
        {
          "indexed": true,
          "internalType": "uint256",
          "name": "_proposalId",
          "type": "uint256"
        },
        {
          "indexed": false,
          "internalType": "uint256",
          "name": "_amount",
          "type": "uint256"
        },
        {
          "indexed": false,
          "internalType": "uint256",
          "name": "_interestRate",
          "type": "uint256"
        },
        {
          "indexed": false,
          "internalType": "uint256",
          "name": "_originationFee",
          "type": "uint256"
        },
        {
          "indexed": false,
          "internalType": "uint256",
          "name": "_dueDate",
          "type": "uint256"
        },
        {
          "indexed": false,
          "internalType": "uint256",
          "name": "_proposalTimeStamp",
          "type": "uint256"
        }
      ],
      "name": "LendProposed",
      "type": "event"
    },
    {
      "anonymous": false,
      "inputs": [
        {
          "indexed": true,
          "internalType": "address",
          "name": "_collateral",
          "type": "address"
        },
        {
          "indexed": true,
          "internalType": "address",
          "name": "_reserve",
          "type": "address"
        },
        {
          "indexed": true,
          "internalType": "address",
          "name": "_user",
          "type": "address"
        },
        {
          "indexed": false,
          "internalType": "uint256",
          "name": "_purchaseAmount",
          "type": "uint256"
        },
        {
          "indexed": false,
          "internalType": "uint256",
          "name": "_liquidatedCollateralAmount",
          "type": "uint256"
        },
        {
          "indexed": false,
          "internalType": "uint256",
          "name": "_accruedBorrowInterest",
          "type": "uint256"
        },
        {
          "indexed": false,
          "internalType": "address",
          "name": "_liquidator",
          "type": "address"
        },
        {
          "indexed": false,
          "internalType": "bool",
          "name": "_receiveAToken",
          "type": "bool"
        },
        {
          "indexed": false,
          "internalType": "uint256",
          "name": "_timestamp",
          "type": "uint256"
        }
      ],
      "name": "LiquidationCall",
      "type": "event"
    },
    {
      "anonymous": false,
      "inputs": [
        {
          "indexed": true,
          "internalType": "address",
          "name": "_collateral",
          "type": "address"
        },
        {
          "indexed": true,
          "internalType": "address",
          "name": "_reserve",
          "type": "address"
        },
        {
          "indexed": true,
          "internalType": "address",
          "name": "_user",
          "type": "address"
        },
        {
          "indexed": false,
          "internalType": "uint256",
          "name": "_feeLiquidated",
          "type": "uint256"
        },
        {
          "indexed": false,
          "internalType": "uint256",
          "name": "_liquidatedCollateralForFee",
          "type": "uint256"
        },
        {
          "indexed": false,
          "internalType": "uint256",
          "name": "_timestamp",
          "type": "uint256"
        }
      ],
      "name": "OriginationFeeLiquidated",
      "type": "event"
    },
    {
      "anonymous": false,
      "inputs": [
        {
          "indexed": true,
          "internalType": "address",
          "name": "_reserveToReceive",
          "type": "address"
        },
        {
          "indexed": true,
          "internalType": "address",
          "name": "_lender",
          "type": "address"
        },
        {
          "indexed": false,
          "internalType": "address",
          "name": "_reserveForCollateral",
          "type": "address"
        },
        {
          "indexed": false,
          "internalType": "address",
          "name": "_borrower",
          "type": "address"
        },
        {
          "indexed": true,
          "internalType": "uint256",
          "name": "_proposalId",
          "type": "uint256"
        },
        {
          "indexed": false,
          "internalType": "uint256",
          "name": "_amount",
          "type": "uint256"
        },
        {
          "indexed": false,
          "internalType": "uint256",
          "name": "_originationFee",
          "type": "uint256"
        },
        {
          "indexed": false,
          "internalType": "uint256",
          "name": "_timestamp",
          "type": "uint256"
        }
      ],
      "name": "ProposalAccepted",
      "type": "event"
    },
    {
      "anonymous": false,
      "inputs": [
        {
          "indexed": true,
          "internalType": "address",
          "name": "_reserve",
          "type": "address"
        },
        {
          "indexed": true,
          "internalType": "address",
          "name": "_user",
          "type": "address"
        },
        {
          "indexed": false,
          "internalType": "uint256",
          "name": "_amount",
          "type": "uint256"
        },
        {
          "indexed": false,
          "internalType": "uint256",
          "name": "_timestamp",
          "type": "uint256"
        }
      ],
      "name": "RedeemUnderlying",
      "type": "event"
    },
    {
      "anonymous": false,
      "inputs": [
        {
          "indexed": true,
          "internalType": "address",
          "name": "_reserve",
          "type": "address"
        },
        {
          "indexed": true,
          "internalType": "address",
          "name": "_user",
          "type": "address"
        },
        {
          "indexed": true,
          "internalType": "address",
          "name": "_repayer",
          "type": "address"
        },
        {
          "indexed": false,
          "internalType": "uint256",
          "name": "_amountMinusFees",
          "type": "uint256"
        },
        {
          "indexed": false,
          "internalType": "uint256",
          "name": "_fees",
          "type": "uint256"
        },
        {
          "indexed": false,
          "internalType": "uint256",
          "name": "_borrowBalanceIncrease",
          "type": "uint256"
        },
        {
          "indexed": false,
          "internalType": "uint256",
          "name": "_timestamp",
          "type": "uint256"
        }
      ],
      "name": "Repay",
      "type": "event"
    },
    {
      "anonymous": false,
      "inputs": [
        {
          "indexed": true,
          "internalType": "address",
          "name": "_reserve",
          "type": "address"
        },
        {
          "indexed": true,
          "internalType": "address",
          "name": "_user",
          "type": "address"
        }
      ],
      "name": "ReserveUsedAsCollateralDisabled",
      "type": "event"
    },
    {
      "anonymous": false,
      "inputs": [
        {
          "indexed": true,
          "internalType": "address",
          "name": "_reserve",
          "type": "address"
        },
        {
          "indexed": true,
          "internalType": "address",
          "name": "_user",
          "type": "address"
        }
      ],
      "name": "ReserveUsedAsCollateralEnabled",
      "type": "event"
    },
    {
      "inputs": [],
      "name": "LENDINGPOOL_REVISION",
      "outputs": [
        {
          "internalType": "uint256",
          "name": "",
          "type": "uint256"
        }
      ],
      "stateMutability": "view",
      "type": "function"
    },
    {
      "inputs": [],
      "name": "UINT_MAX_VALUE",
      "outputs": [
        {
          "internalType": "uint256",
          "name": "",
          "type": "uint256"
        }
      ],
      "stateMutability": "view",
      "type": "function"
    },
    {
      "inputs": [],
      "name": "addressesProvider",
      "outputs": [
        {
          "internalType": "contract LendingBoardAddressesProvider",
          "name": "",
          "type": "address"
        }
      ],
      "stateMutability": "view",
      "type": "function"
    },
    {
      "inputs": [
        {
          "internalType": "address",
          "name": "_reserve",
          "type": "address"
        },
        {
          "internalType": "uint256",
          "name": "_amount",
          "type": "uint256"
        },
        {
          "internalType": "uint256",
          "name": "_interestRateMode",
          "type": "uint256"
        }
      ],
      "name": "borrow",
      "outputs": [],
      "stateMutability": "nonpayable",
      "type": "function"
    },
    {
      "inputs": [
        {
          "internalType": "address",
          "name": "_reserveToBorrow",
          "type": "address"
        },
        {
          "internalType": "uint256",
          "name": "_amount",
          "type": "uint256"
        },
        {
          "internalType": "address",
          "name": "_reserveForCollateral",
          "type": "address"
        },
        {
          "internalType": "uint256",
          "name": "_interestRate",
          "type": "uint256"
        },
        {
          "internalType": "uint256",
          "name": "_dueDate",
          "type": "uint256"
        }
      ],
      "name": "borrowProposal",
      "outputs": [],
      "stateMutability": "nonpayable",
      "type": "function"
    },
    {
      "inputs": [
        {
          "internalType": "uint256",
          "name": "_proposalId",
          "type": "uint256"
        }
      ],
      "name": "borrowProposalAccept",
      "outputs": [],
      "stateMutability": "nonpayable",
      "type": "function"
    },
    {
      "inputs": [],
      "name": "borrowProposalListCount",
      "outputs": [
        {
          "internalType": "uint256",
          "name": "",
          "type": "uint256"
        }
      ],
      "stateMutability": "view",
      "type": "function"
    },
    {
      "inputs": [],
      "name": "core",
      "outputs": [
        {
          "internalType": "contract LendingBoardCore",
          "name": "",
          "type": "address"
        }
      ],
      "stateMutability": "view",
      "type": "function"
    },
    {
      "inputs": [],
      "name": "dataProvider",
      "outputs": [
        {
          "internalType": "contract LendingBoardDataProvider",
          "name": "",
          "type": "address"
        }
      ],
      "stateMutability": "view",
      "type": "function"
    },
    {
      "inputs": [
        {
          "internalType": "address",
          "name": "_reserve",
          "type": "address"
        },
        {
          "internalType": "uint256",
          "name": "_amount",
          "type": "uint256"
        },
        {
          "internalType": "uint16",
          "name": "_referralCode",
          "type": "uint16"
        }
      ],
      "name": "deposit",
      "outputs": [],
      "stateMutability": "payable",
      "type": "function"
    },
    {
      "inputs": [
        {
          "internalType": "uint256",
          "name": "proposalId",
          "type": "uint256"
        }
      ],
      "name": "getBorrowProposal",
      "outputs": [
        {
          "internalType": "bool",
          "name": "active",
          "type": "bool"
        },
        {
          "internalType": "address",
          "name": "borrower",
          "type": "address"
        },
        {
          "internalType": "address",
          "name": "reserveToBorrow",
          "type": "address"
        },
        {
          "internalType": "uint256",
          "name": "amount",
          "type": "uint256"
        },
        {
          "internalType": "address",
          "name": "reserveForCollateral",
          "type": "address"
        },
        {
          "internalType": "uint256",
          "name": "interestRate",
          "type": "uint256"
        },
        {
          "internalType": "uint256",
          "name": "dueDate",
          "type": "uint256"
        },
        {
          "internalType": "uint256",
          "name": "proposalDate",
          "type": "uint256"
        },
        {
          "internalType": "uint256",
          "name": "ltv",
          "type": "uint256"
        }
      ],
      "stateMutability": "view",
      "type": "function"
    },
    {
      "inputs": [
        {
          "internalType": "uint256",
          "name": "startIdx",
          "type": "uint256"
        },
        {
          "internalType": "uint256",
          "name": "endIdx",
          "type": "uint256"
        }
      ],
      "name": "getBorrowProposalList",
      "outputs": [
        {
          "components": [
            {
              "internalType": "bool",
              "name": "active",
              "type": "bool"
            },
            {
              "internalType": "address",
              "name": "proposer",
              "type": "address"
            },
            {
              "internalType": "address",
              "name": "reserveToReceive",
              "type": "address"
            },
            {
              "internalType": "uint256",
              "name": "amount",
              "type": "uint256"
            },
            {
              "internalType": "address",
              "name": "reserveForCollateral",
              "type": "address"
            },
            {
              "internalType": "uint256",
              "name": "interestRate",
              "type": "uint256"
            },
            {
              "internalType": "uint256",
              "name": "dueDate",
              "type": "uint256"
            },
            {
              "internalType": "uint256",
              "name": "proposalDate",
              "type": "uint256"
            },
            {
              "internalType": "uint256",
              "name": "serviceFee",
              "type": "uint256"
            },
            {
              "internalType": "uint256",
              "name": "ltv",
              "type": "uint256"
            }
          ],
          "internalType": "struct LendingBoardProposeMode.ProposalStructure[]",
          "name": "result",
          "type": "tuple[]"
        }
      ],
      "stateMutability": "view",
      "type": "function"
    },
    {
      "inputs": [
        {
          "internalType": "uint256",
          "name": "proposalId",
          "type": "uint256"
        }
      ],
      "name": "getLendProposal",
      "outputs": [
        {
          "internalType": "bool",
          "name": "active",
          "type": "bool"
        },
        {
          "internalType": "address",
          "name": "lender",
          "type": "address"
        },
        {
          "internalType": "address",
          "name": "reserveToLend",
          "type": "address"
        },
        {
          "internalType": "uint256",
          "name": "amount",
          "type": "uint256"
        },
        {
          "internalType": "address",
          "name": "reserveForCollateral",
          "type": "address"
        },
        {
          "internalType": "uint256",
          "name": "interestRate",
          "type": "uint256"
        },
        {
          "internalType": "uint256",
          "name": "dueDate",
          "type": "uint256"
        },
        {
          "internalType": "uint256",
          "name": "proposalDate",
          "type": "uint256"
        },
        {
          "internalType": "uint256",
          "name": "ltv",
          "type": "uint256"
        }
      ],
      "stateMutability": "view",
      "type": "function"
    },
    {
      "inputs": [
        {
          "internalType": "uint256",
          "name": "startIdx",
          "type": "uint256"
        },
        {
          "internalType": "uint256",
          "name": "endIdx",
          "type": "uint256"
        }
      ],
      "name": "getLendProposalList",
      "outputs": [
        {
          "components": [
            {
              "internalType": "bool",
              "name": "active",
              "type": "bool"
            },
            {
              "internalType": "address",
              "name": "proposer",
              "type": "address"
            },
            {
              "internalType": "address",
              "name": "reserveToReceive",
              "type": "address"
            },
            {
              "internalType": "uint256",
              "name": "amount",
              "type": "uint256"
            },
            {
              "internalType": "address",
              "name": "reserveForCollateral",
              "type": "address"
            },
            {
              "internalType": "uint256",
              "name": "interestRate",
              "type": "uint256"
            },
            {
              "internalType": "uint256",
              "name": "dueDate",
              "type": "uint256"
            },
            {
              "internalType": "uint256",
              "name": "proposalDate",
              "type": "uint256"
            },
            {
              "internalType": "uint256",
              "name": "serviceFee",
              "type": "uint256"
            },
            {
              "internalType": "uint256",
              "name": "ltv",
              "type": "uint256"
            }
          ],
          "internalType": "struct LendingBoardProposeMode.ProposalStructure[]",
          "name": "result",
          "type": "tuple[]"
        }
      ],
      "stateMutability": "view",
      "type": "function"
    },
    {
      "inputs": [
        {
          "internalType": "address",
          "name": "_reserve",
          "type": "address"
        }
      ],
      "name": "getReserveConfigurationData",
      "outputs": [
        {
          "internalType": "uint256",
          "name": "ltv",
          "type": "uint256"
        },
        {
          "internalType": "uint256",
          "name": "liquidationThreshold",
          "type": "uint256"
        },
        {
          "internalType": "uint256",
          "name": "liquidationBonus",
          "type": "uint256"
        },
        {
          "internalType": "address",
          "name": "interestRateStrategyAddress",
          "type": "address"
        },
        {
          "internalType": "bool",
          "name": "usageAsCollateralEnabled",
          "type": "bool"
        },
        {
          "internalType": "bool",
          "name": "borrowingEnabled",
          "type": "bool"
        },
        {
          "internalType": "bool",
          "name": "stableBorrowRateEnabled",
          "type": "bool"
        },
        {
          "internalType": "bool",
          "name": "isActive",
          "type": "bool"
        }
      ],
      "stateMutability": "view",
      "type": "function"
    },
    {
      "inputs": [
        {
          "internalType": "address",
          "name": "_reserve",
          "type": "address"
        }
      ],
      "name": "getReserveData",
      "outputs": [
        {
          "internalType": "uint256",
          "name": "totalLiquidity",
          "type": "uint256"
        },
        {
          "internalType": "uint256",
          "name": "availableLiquidity",
          "type": "uint256"
        },
        {
          "internalType": "uint256",
          "name": "totalBorrowsStable",
          "type": "uint256"
        },
        {
          "internalType": "uint256",
          "name": "totalBorrowsVariable",
          "type": "uint256"
        },
        {
          "internalType": "uint256",
          "name": "liquidityRate",
          "type": "uint256"
        },
        {
          "internalType": "uint256",
          "name": "variableBorrowRate",
          "type": "uint256"
        },
        {
          "internalType": "uint256",
          "name": "stableBorrowRate",
          "type": "uint256"
        },
        {
          "internalType": "uint256",
          "name": "averageStableBorrowRate",
          "type": "uint256"
        },
        {
          "internalType": "uint256",
          "name": "utilizationRate",
          "type": "uint256"
        },
        {
          "internalType": "uint256",
          "name": "liquidityIndex",
          "type": "uint256"
        },
        {
          "internalType": "uint256",
          "name": "variableBorrowIndex",
          "type": "uint256"
        },
        {
          "internalType": "address",
          "name": "aTokenAddress",
          "type": "address"
        },
        {
          "internalType": "uint40",
          "name": "lastUpdateTimestamp",
          "type": "uint40"
        }
      ],
      "stateMutability": "view",
      "type": "function"
    },
    {
      "inputs": [],
      "name": "getReserves",
      "outputs": [
        {
          "internalType": "address[]",
          "name": "",
          "type": "address[]"
        }
      ],
      "stateMutability": "view",
      "type": "function"
    },
    {
      "inputs": [
        {
          "internalType": "address",
          "name": "_user",
          "type": "address"
        }
      ],
      "name": "getUserAccountData",
      "outputs": [
        {
          "internalType": "uint256",
          "name": "totalLiquidityETH",
          "type": "uint256"
        },
        {
          "internalType": "uint256",
          "name": "totalCollateralETH",
          "type": "uint256"
        },
        {
          "internalType": "uint256",
          "name": "totalBorrowsETH",
          "type": "uint256"
        },
        {
          "internalType": "uint256",
          "name": "totalFeesETH",
          "type": "uint256"
        },
        {
          "internalType": "uint256",
          "name": "availableBorrowsETH",
          "type": "uint256"
        },
        {
          "internalType": "uint256",
          "name": "currentLiquidationThreshold",
          "type": "uint256"
        },
        {
          "internalType": "uint256",
          "name": "ltv",
          "type": "uint256"
        },
        {
          "internalType": "uint256",
          "name": "healthFactor",
          "type": "uint256"
        }
      ],
      "stateMutability": "view",
      "type": "function"
    },
    {
      "inputs": [
        {
          "internalType": "address",
          "name": "_reserve",
          "type": "address"
        },
        {
          "internalType": "address",
          "name": "_user",
          "type": "address"
        }
      ],
      "name": "getUserReserveBalance",
      "outputs": [
        {
          "internalType": "uint256",
          "name": "",
          "type": "uint256"
        }
      ],
      "stateMutability": "view",
      "type": "function"
    },
    {
      "inputs": [
        {
          "internalType": "address",
          "name": "_reserve",
          "type": "address"
        },
        {
          "internalType": "address",
          "name": "_user",
          "type": "address"
        }
      ],
      "name": "getUserReserveData",
      "outputs": [
        {
          "internalType": "uint256",
          "name": "currentATokenBalance",
          "type": "uint256"
        },
        {
          "internalType": "uint256",
          "name": "currentBorrowBalance",
          "type": "uint256"
        },
        {
          "internalType": "uint256",
          "name": "principalBorrowBalance",
          "type": "uint256"
        },
        {
          "internalType": "uint256",
          "name": "borrowRateMode",
          "type": "uint256"
        },
        {
          "internalType": "uint256",
          "name": "borrowRate",
          "type": "uint256"
        },
        {
          "internalType": "uint256",
          "name": "liquidityRate",
          "type": "uint256"
        },
        {
          "internalType": "uint256",
          "name": "originationFee",
          "type": "uint256"
        },
        {
          "internalType": "uint256",
          "name": "variableBorrowIndex",
          "type": "uint256"
        },
        {
          "internalType": "uint256",
          "name": "lastUpdateTimestamp",
          "type": "uint256"
        },
        {
          "internalType": "bool",
          "name": "usageAsCollateralEnabled",
          "type": "bool"
        }
      ],
      "stateMutability": "view",
      "type": "function"
    },
    {
      "inputs": [
        {
          "internalType": "contract LendingBoardAddressesProvider",
          "name": "_addressesProvider",
          "type": "address"
        }
      ],
      "name": "initialize",
      "outputs": [],
      "stateMutability": "nonpayable",
      "type": "function"
    },
    {
      "inputs": [
        {
          "internalType": "address",
          "name": "_reserveToLend",
          "type": "address"
        },
        {
          "internalType": "uint256",
          "name": "_amount",
          "type": "uint256"
        },
        {
          "internalType": "address",
          "name": "_reserveForCollateral",
          "type": "address"
        },
        {
          "internalType": "uint256",
          "name": "_interestRate",
          "type": "uint256"
        },
        {
          "internalType": "uint256",
          "name": "_dueDate",
          "type": "uint256"
        }
      ],
      "name": "lendProposal",
      "outputs": [],
      "stateMutability": "nonpayable",
      "type": "function"
    },
    {
      "inputs": [
        {
          "internalType": "uint256",
          "name": "_proposalId",
          "type": "uint256"
        }
      ],
      "name": "lendProposalAccept",
      "outputs": [],
      "stateMutability": "nonpayable",
      "type": "function"
    },
    {
      "inputs": [],
      "name": "lendProposalListCount",
      "outputs": [
        {
          "internalType": "uint256",
          "name": "",
          "type": "uint256"
        }
      ],
      "stateMutability": "view",
      "type": "function"
    },
    {
      "inputs": [
        {
          "internalType": "address",
          "name": "_collateral",
          "type": "address"
        },
        {
          "internalType": "address",
          "name": "_reserve",
          "type": "address"
        },
        {
          "internalType": "address",
          "name": "_user",
          "type": "address"
        },
        {
          "internalType": "uint256",
          "name": "_purchaseAmount",
          "type": "uint256"
        },
        {
          "internalType": "bool",
          "name": "_receiveAToken",
          "type": "bool"
        }
      ],
      "name": "liquidationCall",
      "outputs": [],
      "stateMutability": "payable",
      "type": "function"
    },
    {
      "inputs": [],
      "name": "parametersProvider",
      "outputs": [
        {
          "internalType": "contract LendingBoardParametersProvider",
          "name": "",
          "type": "address"
        }
      ],
      "stateMutability": "view",
      "type": "function"
    },
    {
      "inputs": [
        {
          "internalType": "address",
          "name": "_reserve",
          "type": "address"
        },
        {
          "internalType": "address payable",
          "name": "_user",
          "type": "address"
        },
        {
          "internalType": "uint256",
          "name": "_amount",
          "type": "uint256"
        },
        {
          "internalType": "uint256",
          "name": "_aTokenBalanceAfterRedeem",
          "type": "uint256"
        }
      ],
      "name": "redeemUnderlying",
      "outputs": [],
      "stateMutability": "nonpayable",
      "type": "function"
    },
    {
      "inputs": [
        {
          "internalType": "address",
          "name": "_reserve",
          "type": "address"
        },
        {
          "internalType": "uint256",
          "name": "_amount",
          "type": "uint256"
        },
        {
          "internalType": "address payable",
          "name": "_onBehalfOf",
          "type": "address"
        }
      ],
      "name": "repay",
      "outputs": [],
      "stateMutability": "payable",
      "type": "function"
    },
    {
      "inputs": [
        {
          "internalType": "address",
          "name": "_reserve",
          "type": "address"
        },
        {
          "internalType": "bool",
          "name": "_useAsCollateral",
          "type": "bool"
        }
      ],
      "name": "setUserUseReserveAsCollateral",
      "outputs": [],
      "stateMutability": "nonpayable",
      "type": "function"
    }
  ],
  "bytecode": "0x6080806040523461002a57600160005560006001556000603b556000603d5561535490816100308239f35b600080fdfe60806040526004361015610013575b600080fd5b60003560e01c8062a718a9146102565780630902f1ac1461024d57806328dd2d011461024457806329e6a05f1461023b57806335ea6a75146102325780633815d34c146102295780633cedf2df146102205780633e1501411461021757806348f163ea1461020e57806358707e06146102055780635a3b74b9146101fc5780635ceae9c4146101f357806379cc211e146101ea5780638afaff02146101e15780638fabf76d146101d85780639895e3d8146101cf5780639a91fe9b146101c6578063a429bcaa146101bd578063ab1e8a21146101b4578063b334ed86146101ab578063bf92857c146101a2578063c0c8ab6514610199578063c1bce0b714610190578063c4d66de814610187578063c72c4d101461017e578063d0fc81d214610175578063d2d0e0661461016c578063de314862146101635763f2f4eb261461015b57600080fd5b61000e612e76565b5061000e612e57565b5061000e612b76565b5061000e612b58565b5061000e612b2e565b5061000e612a3f565b5061000e61240c565b5061000e61231c565b5061000e6121f8565b5061000e6121ce565b5061000e611fa8565b5061000e611ee4565b5061000e6119b9565b5061000e6118fa565b5061000e6112e0565b5061000e61128f565b5061000e61113b565b5061000e6110e9565b5061000e610e73565b5061000e610e49565b5061000e610b8c565b5061000e610a81565b5061000e610a5f565b5061000e61095d565b5061000e6106e9565b5061000e6106ca565b5061000e6105de565b5061000e6104a5565b5061000e61027a565b6001600160a01b0381160361000e57565b8015150361000e57565b5060a036600319011261000e576004356102938161025f565b60243561029f8161025f565b61039f6000806044356102b18161025f565b608435946102be86610270565b6102c661317f565b6102cf81615085565b6102d887615085565b6035546102f5906001600160a01b03165b6001600160a01b031690565b91604051968793632bd7cfb760e11b855284600460209a8b935afa938415610449575b8594610416575b5060405162a718a960e01b8982019081526001600160a01b039a8b166024830152938a166044820152989091166064808a0191909152356084890152151560a48801528660c481015b039661037c601f1998898101835282612ef4565b51915af461039161038b6143ac565b916143dc565b82808251830101910161445d565b906103b0576103ae6001600055565b005b610412926103e8926103ee6103fa9360405195869384016014907302634b8bab4b230ba34b7b7103330b4b632b21d160651b81520190565b906144c4565b03908101835282612ef4565b60405162461bcd60e51b8152918291600483016144fc565b0390fd5b61036891945061043b90893d8b11610442575b6104338183612ef4565b810190612f16565b939061031f565b503d610429565b610451612f2b565b610318565b600091031261000e57565b6020908160408183019282815285518094520193019160005b828110610488575050505090565b83516001600160a01b03168552938101939281019260010161047a565b503461000e5760008060031936011261059e57603654604051630240bc6b60e21b815291908190839060049082906001600160a01b03165afa9081156105a9575b80916104ff575b604051806104fb8482610461565b0390f35b90503d8082843e6105108184612ef4565b820160209283818303126105a15780519067ffffffffffffffff82116105a5570181601f820112156105a15780519061054882614c85565b936105566040519586612ef4565b828552858086019360051b83010193841161059e57508401905b828210610585575050506104fb9150386104ed565b84809183516105938161025f565b815201910190610570565b80fd5b8280fd5b8380fd5b6105b1612f2b565b6104e6565b604090600319011261000e576004356105ce8161025f565b906024356105db8161025f565b90565b503461000e576105ed366105b6565b6037546040516328dd2d0160e01b81526001600160a01b039384166004820152918316602483015261014092839183916044918391165afa80156106bd575b6000918283848586918793889589978a9961067c575b50604051998a5260208a015260408901526060880152608087015260a086015260c085015260e08401526101008301521515610120820152f35b985050505050505050506106a69150823d84116106b6575b61069e8183612ef4565b81019061450d565b9790969195929492919038610642565b503d610694565b6106c5612f2b565b61062c565b503461000e57600036600319011261000e576020603b54604051908152f35b503461000e57602036600319011261000e576004356107078161025f565b6037546040516335ea6a7560e01b81526001600160a01b0392831660048201526101a0929091839183916024918391165afa801561088c575b600090819282838485868791889389958a978b998c9b6107d5575b506104fb9b9c9d506040519d8e9d8e9b99979593919d9c9a98969492909d6101a08d019e8d5260208d015260408c015260608b015260808a015260a089015260c088015260e0870152610100860152610120850152610140840152600160a01b600190031661016083015264ffffffffff16906101800152565b9c5050505050505050505050509181813d8311610885575b6107f78183612ef4565b8101031261088157805190602081015190604081015192606082015191608081015160a082015160c083015160e0840151610100850151916101208601519361014087015195610180610160890151986108508a61025f565b01519864ffffffffff8a168a0361087d576104fb9b9c9d509b9c99909192939495969798998d9c9b61075b565b8d80fd5b5080fd5b503d6107ed565b610894612f2b565b610740565b60208082019080835283518092528060408094019401926000905b8382106108c357505050505090565b90919293948361014060019288516108dd82825115159052565b808401516001600160a01b031682850152808601516001600160a01b031682870152606081810151908301526080808201516001600160a01b03169083015260a0818101519083015260c0808201519083015260e080820151908301526101008082015190830152610120908101519082015201960194939201906108b4565b503461000e57604036600319011261000e57600435602435603b54811015610a0b576109a661099461098f8484613bca565b613b45565b6109a16107d08210614c2e565b614cac565b916000905b828111156109c157604051806104fb8682610899565b80610a006109dc610a0693600052603a602052604060002090565b936109ef6109e982614a1a565b95614af8565b6109f98289614cfc565b5286614cfc565b50614a1a565b6109ab565b60405162461bcd60e51b815260206004820152602660248201527f456e6420496e646578206f76657220626f72726f7750726f706f73616c4c69736044820152651d10dbdd5b9d60d21b6064820152608490fd5b503461000e576020610a79610a73366105b6565b9061455c565b604051908152f35b503461000e57602036600319011261000e57600435610a9f8161025f565b603754604051633e15014160e01b81526001600160a01b039283166004820152610100929091839183916024918391165afa8015610b7f575b600090819282838490859286948796610b3a575b50604080519788526020880198909852968601969096526001600160a01b039095166060850152931515608084015292151560a083015291151560c082015290151560e08201526101009150f35b9650505050505050610b669150826104fb93903d10610b78575b610b5e8183612ef4565b810190614777565b95978897969591949293929190610aec565b503d610b54565b610b87612f2b565b610ad8565b503461000e57602036600319011261000e57600435610ba9614603565b50600090808252603c602052604090610bc3828420614af8565b610bd260018251151514614b8d565b8083015160608201516020830151610100909301516001600160a01b03928316949093909216610c0061317f565b610c0985615085565b610c1285615145565b610c1b82615206565b610c4982610c31610c2c338961455c565b613994565b610c4281610c3d614f59565b615252565b1015614fb8565b610cca610cae8786610c656102e960365460018060a01b031690565b8251630deb1bf960e21b81526001600160a01b038b16600482015233602482015260448101889052606481019290925260016084830152909283919082908d90829060a4820190565b03925af1908115610e3c575b8991610e0d575b50610c3d615036565b603654610cdf906001600160a01b03166102e9565b94853b15610e0957865163fa93b2a560e01b81526001600160a01b038216600482015233602482015260448101849052610de096610dd69686957f8548f4b1ba99a93e6efd62aabdf947babb683e6735271b67e3a3ecc73ed22a369391929091908c908290606490829084905af18015610dfc575b610de3575b50610db9610d846003610d7689600052603c602052604060002090565b01546001600160a01b031690565b8b516001600160a01b0390911681523360208201526040810192909252606082019290925242608082015290819060a0820190565b0390a4610dc66001600055565b600052603c602052604060002090565b805460ff19169055565b51f35b80610df0610df692612eb7565b80610456565b38610d59565b610e04612f2b565b610d54565b8780fd5b610e2d9150883d8a11610e35575b610e258183612ef4565b81019061392d565b905038610cc1565b503d610e1b565b610e44612f2b565b610cba565b503461000e57600036600319011261000e576038546040516001600160a01b039091168152602090f35b503461000e5760408060031936011261000e5760043590610e938261025f565b60243591610ea083610270565b610ea861317f565b610eb181615085565b610eba81615145565b603654610ecf906001600160a01b03166102e9565b8251630c526de560e11b81526001600160a01b0383166004820152336024820152909390610f8d90602090610f7290829081816044818c5afa9081156110dc575b6000916110af575b50610f248115156142bd565b603754610f39906001600160a01b03166102e9565b88516376e9d61560e01b81526001600160a01b038916600482015233602482015260448101929092529092839190829081906064820190565b03915afa9182156110a2575b600092611075575b505061431c565b833b1561000e578251633e94615360e21b81526001600160a01b0383166004820152336024820152811515604482015260009485908290606490829084905af18015611068575b611055575b50831461101d57815133916001600160a01b0316907e058a56ea94653cdf4f152d227ace22d4c00ad99e2a43f58cb7d9e3feb295f2908590a35b610de06001600055565b815133916001600160a01b0316907f44c58d81365b66dd4b1a7f36c25aa97b8c71c361ee4937adc1a00000227db5dd908590a3611013565b80610df061106292612eb7565b38610fd9565b611070612f2b565b610fd4565b6110949250803d1061109b575b61108c8183612ef4565b810190613541565b3880610f86565b503d611082565b6110aa612f2b565b610f7e565b6110cf9150823d84116110d5575b6110c78183612ef4565b810190613170565b38610f18565b503d6110bd565b6110e4612f2b565b610f10565b50606036600319011261000e576111346004356111058161025f565b602435604435916111158361025f565b61111d61317f565b61112681615085565b61112f82615206565b613be1565b6001600055005b503461000e57602036600319011261000e5760043561115e603b54821115614bed565b6000818152603a60205260409020805460ff16906104fb9061118b905b5460081c6001600160a01b031690565b926111a56001610d7683600052603a602052604060002090565b9060026111bc82600052603a602052604060002090565b01546111d76003610d7684600052603a602052604060002090565b60046111ed84600052603a602052604060002090565b015490600561120685600052603a602052604060002090565b0154926008611237600661122488600052603a602052604060002090565b015496600052603a602052604060002090565b015495604051998a998a9592919361010097949a999895919a61012088019b1515885260018060a01b03938480921660208a0152166040880152606087015216608085015260a084015260c083015260e08201520152565b503461000e57600036600319011261000e57602060405160038152f35b60a090600319011261000e576004356112c48161025f565b90602435906044356112d58161025f565b906064359060843590565b503461000e576112ef366112ac565b6112fb9493919461317f565b61130484615085565b61130d84615145565b61131682615206565b61131e614603565b946113276134d0565b811515806118f0575b6113399061466f565b6113444284116146bb565b603654611359906001600160a01b03166102e9565b60405163288d4ff760e21b81526001600160a01b038816600482015290602082602481845afa9182156118e3575b6000926118c2575b506004868960206113aa6102e960355460018060a01b031690565b604051631f94a27560e31b815294859182905afa9283156118b5575b60009361188b575b50604051632e79732b60e11b81526001600160a01b0382166004820152929361146c9361144992602092909161141c908481602481865afa90811561187e575b600091611861575b50613556565b60405163e240301960e01b81526001600160a01b0390921660048301529092839190829081906024820190565b03915afa908115611854575b600091611835575b508061016087015210156146fe565b611476338961455c565b6037549091908890611490906001600160a01b03166102e9565b604051633e15014160e01b81526001600160a01b038c16600482015294908b9061010090879060249082905afa958615611828575b6000966117dc575b5093611600846115f8886115e96115c57fddda05bca10ccedb67628486050c0637ba56c3b1d4d271f7524748d5e3931c859f9b99611613996115976117449f9d8f61158d9c816115826115736115929461155060208e98819c604051808095819463b3596f0760e01b835260048301919091602081019260018060a01b03169052565b03916001600160a01b03165afa9081156117cf575b6000916117b2575b506139bd565b61157c846147dc565b906139d0565b9e8f92610c3d6147f8565b6139bd565b6139d0565b60405163b3596f0760e01b81526001600160a01b039092166004830152969092839190829081906024820190565b03916001600160a01b03165afa9081156117a5575b600091611786575b50846139d0565b958a6115f361484d565b6152b0565b610c3d6148ac565b61160c82610c3d6148fc565b1015614953565b603954611628906001600160a01b03166102e9565b604051630e563a7d60e41b8152336004820152602481018590529290602090849060449082905afa928315611779575b600093611751575b506060611673910192808452151561378a565b6116808251610c3d6149c5565b60018a523360208b01526001600160a01b03891660408b015260608a018390526001600160a01b03881660808b01528460a08b01528560c08b01524260e08b015281516101008b01526101208a0152611700603b54996116e76116e28c614a1a565b603b55565b6116fb8b600052603a602052604060002090565b614a2a565b51604080519283526001600160a01b039788166020840152820193909352606081019290925260808201929092524260a082015233949093169290819060c0820190565b0390a46103ae6001600055565b61167391935061177160609160203d6020116110d5576110c78183612ef4565b939150611660565b611781612f2b565b611658565b61179f915060203d6020116110d5576110c78183612ef4565b386115e2565b6117ad612f2b565b6115da565b6117c991508b3d8d116110d5576110c78183612ef4565b3861156d565b6117d7612f2b565b611565565b8a96509984819394989692959b6101003d61010011611821575b6118008183612ef4565b810161180b91614777565b50505050505050975050999390949692916114cd565b503d6117f6565b611830612f2b565b6114c5565b61184e915060203d6020116110d5576110c78183612ef4565b3861145d565b61185c612f2b565b611455565b6118789150853d871161109b5761108c8183612ef4565b38611416565b611886612f2b565b61140e565b61146c9350611449916118ac602092833d8511610442576104338183612ef4565b945091506113ce565b6118bd612f2b565b6113c6565b6118dc91925060203d6020116110d5576110c78183612ef4565b903861138f565b6118eb612f2b565b611387565b5060648210611330565b503461000e57608036600319011261000e5761198460043561191b8161025f565b602435906119288261025f565b61193061317f565b61197760018060a01b0360246020826036541660405192838092631a59df7760e11b825286891660048301525afa9081156119ac575b60009161198e575b501633146131d5565b606435916044359161325b565b6103ae6001600055565b6119a6915060203d8111610442576104338183612ef4565b3861196e565b6119b4612f2b565b611966565b503461000e577ff8b6062ca08c00ea54f74d7f53f049ed4cb014a7787c62250e6dfa1229d7d4606119e9366112ac565b90926119f695929561317f565b6119ff85615085565b611a0885615145565b611a1181615206565b611744611a1c614603565b96866004611a28614d26565b9288151580611eda575b611a3b9061466f565b611a464288116146bb565b6036548690611a5d906001600160a01b03166102e9565b60405163288d4ff760e21b81526001600160a01b0386168582019081529091906020908390819083010381845afa918215611ecd575b600092611eac575b50603554602090611ab4906001600160a01b03166102e9565b604051631f94a27560e31b815296879182905afa948515611e9f575b600095611e78575b50604051632e79732b60e11b81526001600160a01b0387166004820152611b6a918491611b229060208180602481015b0381865afa908115611e6b575b600091611e525750613556565b60405163e240301960e01b81526001600160a01b038916600482015290602090829060249082905afa908115611e45575b600091611e26575b50806101608a01521015614dae565b611b77610c2c338761455c565b603754909190611b8f906001600160a01b03166102e9565b604051633e15014160e01b81526001600160a01b0386166004820152959061010090879060249082905afa958615611e19575b600096611dd0575b5060405163b3596f0760e01b81526001600160a01b03909716600488015294959394611c4894611c41928892611c389261157c91611c3291899160209082908180602481015b03916001600160a01b03165afa908115611dc3575b600091611daa57506139bd565b916147dc565b846115f3614e25565b1015614e84565b603954611c5d906001600160a01b03166102e9565b604051630e563a7d60e41b8152336004820152602481018790529390602090859060449082905afa938415611d9d575b600094611d6f575b5090611cac6060611ce9930194808652151561378a565b611cb98451610c3d614f08565b60018b523360208c01526001600160a01b038a1660408c015260608b018690526001600160a01b031660808b0152565b8660a08a01528460c08a01524260e08a015281516101008a0152610120890152611d35603d5498611d21611d1c8b614a1a565b603d55565b6116fb8a600052603c602052604060002090565b5160408051938452602084019690965294820194909452606081019190915242608082015233936001600160a01b031692819060a0820190565b611ce9929194506060611d93611cac9260203d6020116110d5576110c78183612ef4565b9592935050611c95565b611da5612f2b565b611c8d565b6117c9915060203d6020116110d5576110c78183612ef4565b611dcb612f2b565b611c25565b611c48959650611c419261157c611c3287611c106020611e03611c38976101003d61010011610b7857610b5e8183612ef4565b505050505050509c9b5050505050509250611bca565b611e21612f2b565b611bc2565b611e3f915060203d6020116110d5576110c78183612ef4565b38611b5b565b611e4d612f2b565b611b53565b611878915060203d60201161109b5761108c8183612ef4565b611e73612f2b565b611b15565b611b6a919550611e97849160203d602011610442576104338183612ef4565b959150611ad8565b611ea7612f2b565b611ad0565b611ec691925060203d6020116110d5576110c78183612ef4565b9038611a9b565b611ed5612f2b565b611a93565b5060648910611a32565b503461000e57604036600319011261000e57600435602435603d54811015611f5157611f1661099461098f8484613bca565b916000905b82811115611f3157604051806104fb8682610899565b80610a006109dc611f4c93600052603c602052604060002090565b611f1b565b60405162461bcd60e51b815260206004820152602960248201527f456e6420496e64657820657863656564696e67204c656e6450726f706f73616c604482015268131a5cdd10dbdd5b9d60ba1b6064820152608490fd5b503461000e57602036600319011261000e57600435611fc5614603565b50600090808252603a602052604090611fdf828420614af8565b611fee60018251151514614b8d565b8083015160608201516020830151610100909301516001600160a01b0392831694909390921661201c61317f565b61202585615085565b61202e85615145565b61203782615206565b61204882610c31610c2c338961455c565b6120ab8487846120626102e960365460018060a01b031690565b8251630deb1bf960e21b81526001600160a01b03808c166004830152871660248201526044810192909252606482019390935260016084820152918290818c8160a48101610cae565b6036546120c0906001600160a01b03166102e9565b94853b15610e0957865163fa93b2a560e01b81526001600160a01b0382811660048301528316602482015260448101849052610de096610dd69686957f8548f4b1ba99a93e6efd62aabdf947babb683e6735271b67e3a3ecc73ed22a369391929091908c908290606490829084905af180156121c1575b6121ae575b506121916121596003610d7689600052603a602052604060002090565b8b516001600160a01b0391821681529616602087015260408601919091526060850191909152426080850152339390819060a0820190565b0390a461219e6001600055565b600052603a602052604060002090565b80610df06121bb92612eb7565b3861213c565b6121c9612f2b565b612137565b503461000e57600036600319011261000e576037546040516001600160a01b039091168152602090f35b503461000e57602036600319011261000e576004356122168161025f565b603754604051632fe4a15f60e21b81526001600160a01b0392831660048201529161010091829184916024918391165afa801561230f575b6000908192828384908592869487966122a8575b506104fb969798506040519889988994919260e0969399989794919961010087019a8752602087015260408601526060850152608084015260a083015260c08201520152565b96975050505050505082813d8311612308575b6122c58183612ef4565b8101031261059e57508051602082015160408301516060840151608085015160a086015160c087015160e0909701519496879695949093919291906104fb612262565b503d6122bb565b612317612f2b565b61224e565b503461000e57602036600319011261000e5760043561233f603d54821115614bed565b6000818152603c60205260409020805460ff16906104fb906123609061117b565b9261237a6001610d7683600052603c602052604060002090565b90600261239182600052603c602052604060002090565b01546123ac6003610d7684600052603c602052604060002090565b60046123c284600052603c602052604060002090565b01549060056123db85600052603c602052604060002090565b015492600861123760066123f988600052603c602052604060002090565b015496600052603c602052604060002090565b503461000e57606036600319011261000e5761242960043561025f565b60443561243461317f565b61243f600435615085565b61244a600435615145565b612455602435615206565b61245d6134d0565b6036546126fc90604090612479906001600160a01b03166102e9565b8151632e79732b60e11b8152600480356001600160a01b0316908201526124a7906020818060248101611b08565b846002148015612a35575b6124bb906135ce565b6124c4856135ae565b6101c08401906124d48683613626565b825163e240301960e01b8152600480356001600160a01b03169082015261252090602081602481865afa908115612a28575b600091612a09575b50806101608801526024351115613632565b6037546126ab90612539906001600160a01b03166102e9565b8451632c6d0e9b60e01b8152336004820152602090610100906125ca906125c5906125c19084816024818a5afa9081156129fc575b8d600091829083908490859086976129b7575b509260c09285928796956125a06101e06125bb9a98019a8b9015159052565b60408501528d8401528b83015260e0820152015215156136cc565b51151590565b1590565b613718565b603954612627906125e3906001600160a01b03166102e9565b8851630e563a7d60e41b81523360048201526024803590820152908490829060449082905afa9081156129aa575b60009161298d575b508060608c0152151561378a565b606089015160e08a0151918a0151838b015189516312737c3360e01b8152600480356001600160a01b031690820152602480359082015260448101939093526064830193909352608482015260a4810191909152918290818060c4810103915afa908115612980575b600091612961575b508060a088015260c087015110156137e0565b600182516126b8816135ae565b6126c1816135ae565b14612853575b60608501519151916126d8836135ae565b60008451809681958294630deb1bf960e21b84526024353360043560048701613943565b03925af1928315612846575b6000918294612823575b5061012083019384526101a08301918252603654612738906001600160a01b03166102e9565b803b1561000e5760405163fa93b2a560e01b8152600480356001600160a01b031690820152336024808301919091523560448201527fe27fbad0754d6c730a8161378bc066f66fac114445968dcfc26d42a3002960139360609290919060009082908183816064810103925af18015612816575b612803575b505193015193516040805160243581526020810193909352820193909352606081019390935260808301919091524260a083015233916001600160a01b0360043516919060c090a36103ae6001600055565b80610df061281092612eb7565b386127b1565b61281e612f2b565b6127ac565b90935061283f915060403d604011610e3557610e258183612ef4565b9238612712565b61284e612f2b565b612708565b825163710ba6c360e11b8152600480356001600160a01b031690820152336024808301919091523560448201526128a390602081606481865afa908115612954575b600091612935575b50613849565b6129046128fa6128f3600460206128c46102e960385460018060a01b031690565b88516335adc96b60e21b815292839182905afa908115612928575b600091612909575b506101608901516139bd565b6064900490565b60243511156138bb565b6126c7565b612922915060203d6020116110d5576110c78183612ef4565b386128e7565b612930612f2b565b6128df565b61294e915060203d60201161109b5761108c8183612ef4565b3861289d565b61295c612f2b565b612895565b61297a915060203d6020116110d5576110c78183612ef4565b38612698565b612988612f2b565b612690565b6129a49150843d86116110d5576110c78183612ef4565b38612619565b6129b2612f2b565b612611565b9250505060c094506125bb93506129e49150883d8a116129f5575b6129dc8183612ef4565b81019061368b565b999598509395509193909250612581565b503d6129d2565b612a04612f2b565b61256e565b612a22915060203d6020116110d5576110c78183612ef4565b3861250e565b612a30612f2b565b612506565b50600185146124b2565b503461000e57602036600319011261000e57600435612a5d8161025f565b60ff600254169081159182612b25575b8015612b19575b15612abd57612a879082612a9c57612f38565b612a8d57005b6103ae60ff1960025416600255565b612aae600160ff196002541617600255565b612ab86003600155565b612f38565b60405162461bcd60e51b815260206004820152602e60248201527f436f6e747261637420696e7374616e63652068617320616c726561647920626560448201526d195b881a5b9a5d1a585b1a5e995960921b6064820152608490fd5b50600154600311612a74565b50303b15612a6d565b503461000e57600036600319011261000e576035546040516001600160a01b039091168152602090f35b503461000e57600036600319011261000e5760206040516000198152f35b50606036600319011261000e576004803590612b918261025f565b6024359160443561ffff81160361000e57612baa61317f565b612bb383615206565b603654612bc8906001600160a01b03166102e9565b60408051631a59df7760e11b81526001600160a01b0384168186019081529095919491929060209081908890819083010381855afa968715612e4a575b600097612e2b575b5085516370a0823160e01b8152338482019081526001600160a01b039889169391908390829081906020010381875afa928315612e1e575b600093612dff575b5050803b1561000e578651632f35bfe960e21b81526001600160a01b038716858201908152336020820152604081018790529215606084015291600091839182908490829060800103925af18015612df2575b612ddf575b50803b1561000e5784516394362e8b60e01b81523383820190815260208101859052909160009183919082908490829060400103925af18015612dd2575b612dbf575b50603654612cfe906001600160a01b03166102e9565b803b1561000e5784516328fcf4d360e01b81526001600160a01b038516928101928352336020840152604083018490526000967fdcbc1c05240f31ff3ad067ef1ee35ce4997762752e3a095284754544f4c709d793612d9293919291899183919082908190606001039134905af18015612db2575b612d9f575b508551938452426020850152339416929081906040820190565b0390a3610de06001600055565b80610df0612dac92612eb7565b38612d78565b612dba612f2b565b612d73565b80610df0612dcc92612eb7565b38612ce8565b612dda612f2b565b612ce3565b80610df0612dec92612eb7565b38612ca5565b612dfa612f2b565b612ca0565b612e16929350803d106110d5576110c78183612ef4565b903880612c4d565b612e26612f2b565b612c45565b81612e439298503d8911610442576104338183612ef4565b9538612c0d565b612e52612f2b565b612c05565b503461000e57600036600319011261000e576020603d54604051908152f35b503461000e57600036600319011261000e576036546040516001600160a01b039091168152602090f35b50634e487b7160e01b600052604160045260246000fd5b67ffffffffffffffff8111612ecb57604052565b612ed3612ea0565b604052565b6060810190811067ffffffffffffffff821117612ecb57604052565b90601f8019910116810190811067ffffffffffffffff821117612ecb57604052565b9081602091031261000e57516105db8161025f565b506040513d6000823e3d90fd5b603580546001600160a01b0319166001600160a01b039290921691821790556130c490612f64906102e9565b6040518091630774f5f560e21b825281600460209384935afa918215613163575b600092613144575b50603680546001600160a01b0319166001600160a01b0393841617905561300882600483612fc56102e960355460018060a01b031690565b6040516352cb335b60e11b815292839182905afa908115613137575b60009161311a575b501660018060a01b03166001600160601b0360a01b6037541617603755565b613066826004836130236102e960355460018060a01b031690565b604051639fabe17560e01b815292839182905afa90811561310d575b6000916130f0575b501660018060a01b03166001600160601b0360a01b6038541617603855565b6035546004908290613080906001600160a01b03166102e9565b604051633efbbf0f60e21b815292839182905afa9182156130e3575b6000926130c6575b50501660018060a01b03166001600160601b0360a01b6039541617603955565b565b6130dc9250803d10610442576104338183612ef4565b38806130a4565b6130eb612f2b565b61309c565b6131079150843d8611610442576104338183612ef4565b38613047565b613115612f2b565b61303f565b6131319150843d8611610442576104338183612ef4565b38612fe9565b61313f612f2b565b612fe1565b8161315c9293503d8411610442576104338183612ef4565b9038612f8d565b61316b612f2b565b612f85565b9081602091031261000e575190565b600260005414613190576002600055565b60405162461bcd60e51b815260206004820152601f60248201527f5265656e7472616e637947756172643a207265656e7472616e742063616c6c006044820152606490fd5b156131dc57565b60405162461bcd60e51b815260206004820152604b60248201527f5468652063616c6c6572206f6620746869732066756e6374696f6e2063616e2060448201527f6f6e6c79206265207468652061546f6b656e20636f6e7472616374206f66207460648201526a686973207265736572766560a81b608482015260a490fd5b9261326584615085565b61326e83615206565b603654613283906001600160a01b03166102e9565b60405163e240301960e01b81526001600160a01b03861660048201526132c6908590602081602481875afa90811561342d575b60009161340f575b50101561343a565b803b1561000e5760405163afcdbea360e01b81526001600160a01b0386811660048301528416602482015260448101859052911560648301526000908290608490829084905af18015613402575b6133ef575b5060365461332f906001600160a01b03166102e9565b803b1561000e5760405163fa93b2a560e01b81526001600160a01b03858116600483015283166024820152604481018490527f9c4ed599cd8555b9c1e8cd7643240d7d71eb76b792948c49fcb4d411f7b6b3c6926133ca929091906000908290606490829084905af180156133e2575b6133cf575b50604080519485524260208601526001600160a01b039182169590911693918291820190565b0390a3565b80610df06133dc92612eb7565b386133a4565b6133ea612f2b565b61339f565b80610df06133fc92612eb7565b38613319565b61340a612f2b565b613314565b613427915060203d81116110d5576110c78183612ef4565b386132be565b613435612f2b565b6132b6565b1561344157565b60405162461bcd60e51b815260206004820152603160248201526000805160206152ff83398151915260448201527061696c61626c6520746f2072656465656d60781b6064820152608490fd5b60405190610200820182811067ffffffffffffffff821117612ecb57604052565b60405190610140820182811067ffffffffffffffff821117612ecb57604052565b6134d861348e565b9060008083528060208401528060408401528060608401528060808401528060a08401528060c08401528060e08401528061010084015280610120840152806101408401528061016084015280610180840152806101a0840152806101c08401526101e0830152565b9081602091031261000e57516105db81610270565b1561355d57565b60405162461bcd60e51b8152602060048201526024808201527f52657365727665206973206e6f7420656e61626c656420666f7220626f72726f60448201526377696e6760e01b6064820152608490fd5b600311156135b857565b634e487b7160e01b600052602160045260246000fd5b156135d557565b60405162461bcd60e51b815260206004820152602360248201527f496e76616c696420696e7465726573742072617465206d6f64652073656c65636044820152621d195960ea1b6064820152608490fd5b60038210156135b85752565b1561363957565b60405162461bcd60e51b815260206004820152603660248201526000805160206152ff83398151915260448201527561696c61626c6520696e20746865207265736572766560501b6064820152608490fd5b91908261010091031261000e5781519160208101519160408201519160608101519160808201519160a08101519160e060c08301519201516105db81610270565b156136d357565b60405162461bcd60e51b815260206004820152601b60248201527f54686520636f6c6c61746572616c2062616c616e6365206973203000000000006044820152606490fd5b1561371f57565b60405162461bcd60e51b815260206004820152603f60248201527f54686520626f72726f7765722063616e20616c7265616479206265206c69717560448201527f69646174656420736f2068652063616e6e6f7420626f72726f77206d6f7265006064820152608490fd5b1561379157565b60405162461bcd60e51b815260206004820152602160248201527f54686520616d6f756e7420746f20626f72726f7720697320746f6f20736d616c6044820152601b60fa1b6064820152608490fd5b156137e757565b60405162461bcd60e51b815260206004820152603460248201527f5468657265206973206e6f7420656e6f75676820636f6c6c61746572616c20746044820152736f20636f7665722061206e657720626f72726f7760601b6064820152608490fd5b1561385057565b60405162461bcd60e51b815260206004820152603960248201527f557365722063616e6e6f7420626f72726f77207468652073656c65637465642060448201527f616d6f756e742077697468206120737461626c652072617465000000000000006064820152608490fd5b156138c257565b60405162461bcd60e51b815260206004820152603c60248201527f5573657220697320747279696e6720746f20626f72726f7720746f6f206d756360448201527f68206c6971756964697479206174206120737461626c652072617465000000006064820152608490fd5b919082604091031261000e576020825192015190565b6001600160a01b039182168152911660208201526040810191909152606081019190915260a0810192919060038210156135b85760800152565b50634e487b7160e01b600052601160045260246000fd5b670de0b6b3a76400009080600019048211811515166139b1570290565b6139b961397d565b0290565b80600019048211811515166139b1570290565b81156139da570490565b634e487b7160e01b600052601260045260246000fd5b60405190610100820182811067ffffffffffffffff821117613a41575b6040528160e06000918281528260208201528260408201528260608201528260808201528260a08201528260c08201520152565b613a49612ea0565b613a0d565b9081606091031261000e578051916040602083015192015190565b15613a7057565b60405162461bcd60e51b815260206004820152602960248201527f546865207573657220646f6573206e6f74206861766520616e7920626f72726f604482015268772070656e64696e6760b81b6064820152608490fd5b15613ace57565b60a460405162461bcd60e51b815260206004820152604460248201527f546f207265706179206f6e20626568616c66206f6620616e207573657220616e60448201527f206578706c6963697420616d6f756e7420746f207265706179206973206e65656064820152633232b21760e11b6084820152fd5b6001906001198111613b55570190565b613b5d61397d565b0190565b81198111613b55570190565b15613b7457565b60405162461bcd60e51b815260206004820152602860248201527f496e76616c6964206d73672e76616c75652073656e7420666f72207468652072604482015267195c185e5b595b9d60c21b6064820152608490fd5b818110613bd5570390565b613bdd61397d565b0390565b613be96139f0565b603654909190613c01906001600160a01b03166102e9565b60408051639fb8afcd60e01b81526001600160a01b038481166004830152871660248201529491939091606086604481885afa9586156142b0575b6000908190829861427b575b5083850197885260208085019182529184528451633faacc6b60e21b81526001600160a01b0387811660048301528a1660248201529180836044818b5afa92831561426e575b60009361424f575b5060e0850192835273eeeeeeeeeeeeeeeeeeeeeeeeeeeeeeeeeeeeeeee6001600160a01b03888116918214606088019081529199909691958c9190613cdd86511515613a69565b613cf86000198214938a8515918296614241575b5050613ac7565b613d058651885190613b61565b92608085019380855281614237575b5061422f575b50613d286125c18851151590565b8015614224575b613d3890613b6d565b8151865181111561402d575050613d5460a09151865190613bca565b9101818152603654909390613d71906001600160a01b03166102e9565b91855192818d51935114813b1561000e5760008f91613dd98e9183978f51998a988997889663da12d96f60e01b885260048801949196959260a0949160c0870198600180881b0380921688521660208701526040860152606085015260808401521515910152565b03925af18015614020575b61400d575b5082519081613ef7575b5050603654613e1590613e0e906001600160a01b03166102e9565b9351151590565b60009015613ef15750613e29825134613bca565b955b815196843b1561000e5786516328fcf4d360e01b81526001600160a01b0392909216600483015233602483015260448201979097527fb718f0b14f03d8c3adf35b15e3da52421b042ac879e5a689011a8b1e0036773d96613ecc94600091839160649183915af18015613ee4575b613ed1575b5051905196519351938493339916974292859094939260609260808301968352602083015260408201520152565b0390a4565b80610df0613ede92612eb7565b38613e9e565b613eec612f2b565b613e99565b95613e2b565b603654613f0c906001600160a01b03166102e9565b90613f178651151590565b60009015614007575082915b6035546004908390613f3d906001600160a01b03166102e9565b8b51637744894b60e11b815292839182905afa928315613ffa575b600093613fdb575b5050803b1561000e57885163c7d1423760e01b81526001600160a01b038b81166004830152336024830152604482019590955291909316606482015291600091839160849183915af18015613fce575b613fbb575b80613df3565b80610df0613fc892612eb7565b38613fb5565b613fd6612f2b565b613fb0565b613ff2929350803d10610442576104338183612ef4565b903880613f60565b614002612f2b565b613f58565b91613f23565b80610df061401a92612eb7565b38613de9565b614028612f2b565b613de4565b9250929350935089969997949751823b1561000e578a5163da12d96f60e01b81526001600160a01b0387811660048301528d1660248201526000604482018190526064820193909352608481019190915260a4810182905291829060c490829084905af18015614217575b614204575b506036546140be906140b7906001600160a01b03166102e9565b9651151590565b600090156141ff575081515b825160355460049084906140e6906001600160a01b03166102e9565b8c51637744894b60e11b815292839182905afa9384156141f2575b6000946141d3575b5050873b1561000e57895163c7d1423760e01b81526001600160a01b0395861660048201528b8616602482015260448101919091529190931660648201527fb718f0b14f03d8c3adf35b15e3da52421b042ac879e5a689011a8b1e0036773d95613ecc9360009183916084918391905af180156141c6575b6141b3575b50519251955192839233981696429184606091949392608082019560008352602083015260408201520152565b80610df06141c092612eb7565b38614186565b6141ce612f2b565b614181565b6141ea929450803d10610442576104338183612ef4565b913880614109565b6141fa612f2b565b614101565b6140ca565b80610df061421192612eb7565b3861409d565b61421f612f2b565b614098565b508151341015613d2f565b825238613d1a565b9050811038613d14565b9091501633148f8b90613cf1565b816142679294503d85116110d5576110c78183612ef4565b9138613c96565b614276612f2b565b613c8e565b9150506142a091965060603d81116142a9575b6142988183612ef4565b810190613a4e565b96919038613c48565b503d61428e565b6142b8612f2b565b613c3c565b156142c457565b60405162461bcd60e51b815260206004820152602a60248201527f5573657220646f6573206e6f74206861766520616e79206c69717569646974796044820152690819195c1bdcda5d195960b21b6064820152608490fd5b1561432357565b60405162461bcd60e51b815260206004820152603060248201527f55736572206465706f73697420697320616c7265616479206265696e6720757360448201526f195908185cc818dbdb1b185d195c985b60821b6064820152608490fd5b60209067ffffffffffffffff811161439f575b601f01601f19160190565b6143a7612ea0565b614394565b3d156143d7573d906143bd82614381565b916143cb6040519384612ef4565b82523d6000602084013e565b606090565b156143e357565b60405162461bcd60e51b815260206004820152601760248201527f4c69717569646174696f6e2063616c6c206661696c65640000000000000000006044820152606490fd5b918091926000905b828210614448575011614441575050565b6000910152565b91508060209183015181860152018291614430565b919060408382031261000e5782519260208101519067ffffffffffffffff821161000e570181601f8201121561000e57805161449881614381565b926144a66040519485612ef4565b8184526020828401011161000e576105db9160208085019101614428565b90613b5d60209282815194859201614428565b906020916144f081518092818552858086019101614428565b601f01601f1916010190565b9060206105db9281815201906144d7565b91908261014091031261000e5781519160208101519160408201519160608101519160808201519160a08101519160c08201519160e0810151916101206101008301519201516105db81610270565b6037546040516328dd2d0160e01b81526001600160a01b0392831660048201529282166024840152670de0b6b3a7640000929161014091829184916044918391165afa9182156145f6575b60009182936145cc575b50508181106145bf57030490565b6145c761397d565b030490565b6145e6935080919250903d106106b65761069e8183612ef4565b50505050505050509038806145b1565b6145fe612f2b565b6145a7565b60405190610140820182811067ffffffffffffffff821117614662575b604052816101206000918281528260208201528260408201528260608201528260808201528260a08201528260c08201528260e0820152826101008201520152565b61466a612ea0565b614620565b1561467657565b60405162461bcd60e51b815260206004820152601b60248201527f496e76616c696420496e746572657374205261746520496e70757400000000006044820152606490fd5b156146c257565b60405162461bcd60e51b8152602060048201526014602482015273125b9d985b1a5908111d594811185d194814d95d60621b6044820152606490fd5b1561470557565b60405162461bcd60e51b815260206004820152605060248201526000805160206152ff83398151915260448201527f61696c61626c6520696e20746865207265736572766520746f206d616b65206160648201526f08189bdc9c9bddc81c1c9bdc1bdcd85b60821b608482015260a490fd5b91908261010091031261000e5781519160208101519160408201519160608101516147a18161025f565b9160808201516147b081610270565b9160a08101516147bf81610270565b9160e060c08301516147d081610270565b9201516105db81610270565b604d81116147eb575b600a0a90565b6147f361397d565b6147e5565b6040519061480582612ed8565b603382527202fb932b9b2b93b32aa37a137b93937bb901d1606d1b6040837f2020203d3e204c42504d203a72657365727665446563696d616c7320666f722060208201520152565b6040519061485a82612ed8565b603a82527f6f72726f77416d6f756e744554482c20626f72726f774c5456200000000000006040837f2020203d3e204c42504d203a205f616d6f756e742c207265717565737465644260208201520152565b604051906148b982612ed8565b602e82526d037bb90283937b837b9b0b6101d160951b6040837f2020203d3e204c42504d203a20455448204e656564656420666f7220426f727260208201520152565b6040519061490982612ed8565b6035825274037b9102137b93937bb90283937b837b9b0b6101d1605d1b6040837f2020203d3e204c42504d203a20436f6c6c61746572616c204e6565646564206660208201520152565b1561495a57565b60405162461bcd60e51b815260206004820152603d60248201527f5468657265206973206e6f7420656e6f75676820636f6c6c61746572616c207460448201527f6f20636f7665722061206e657720626f72726f772070726f706f73616c0000006064820152608490fd5b604051906149d282612ed8565b60338252720103137b93937bb90383937b837b9b0b6101d1606d1b6040837f2020203d3e204c42504d203a20426f72726f772046656520666f72207468697360208201520152565b6001906000198114613b55570190565b90610120600891614a50614a3e8251151590565b859060ff801983541691151516179055565b6020810151614a84906001600160a01b03168554610100600160a81b03191660089190911b610100600160a81b0316178555565b60408101516001850180546001600160a01b039283166001600160a01b03199182161790915560608301516002870155608083015160038701805491909316911617905560a0810151600485015560c0810151600585015560e0810151600685015561010081015160078501550151910155565b906008614b036134af565b92614b2a8154614b1860ff8216879015159052565b831c6001600160a01b03166020860152565b60018101546001600160a01b031660408501526002810154606085015260038101546001600160a01b03166080850152600481015460a0850152600581015460c0850152600681015460e085015260078101546101008501520154610120830152565b15614b9457565b60405162461bcd60e51b815260206004820152602b60248201527f4f6e6c792041637469766520426f72726f772050726f706f73616c2063616e2060448201526a1899481058d8d95c1d195960aa1b6064820152608490fd5b15614bf457565b60405162461bcd60e51b8152602060048201526012602482015271125b9d985b1a59081c1c9bdc1bdcd85b125960721b6044820152606490fd5b15614c3557565b60405162461bcd60e51b815260206004820152602260248201527f4d6178696d756d203230303020697465726174696f6e207065722072657175656044820152611cdd60f21b6064820152608490fd5b60209067ffffffffffffffff8111614c9f575b60051b0190565b614ca7612ea0565b614c98565b90614cb682614c85565b614cc36040519182612ef4565b8281528092614cd4601f1991614c85565b019060005b828110614ce557505050565b602090614cf0614603565b82828501015201614cd9565b8051821015614d105760209160051b010190565b634e487b7160e01b600052603260045260246000fd5b604051906101c0820182811067ffffffffffffffff821117614da1575b604052816101a06000918281528260208201528260408201528260608201528260808201528260a08201528260c08201528260e082015282610100820152826101208201528261014082015282610160820152826101808201520152565b614da9612ea0565b614d43565b15614db557565b60405162461bcd60e51b815260206004820152604e60248201526000805160206152ff83398151915260448201527f61696c61626c6520696e20746865207265736572766520746f206d616b65206160648201526d081b195b99081c1c9bdc1bdcd85b60921b608482015260a490fd5b60405190614e3282612ed8565b604082527f656e64416d6f756e74496e5765692c20636f6c6c61746572616c4c5456203a206040837f2020203d3e204c42504d203a205f616d6f756e742c207265717565737465644c60208201520152565b15614e8b57565b60405162461bcd60e51b815260206004820152604960248201527f5468657265206973206e6f7420656e6f7567682062616c616e636520746f206c60448201527f656e6420696e206f7264657220746f20636f7665722061206e6577206c656e64606482015268081c1c9bdc1bdcd85b60ba1b608482015260a490fd5b60405190614f1582612ed8565b602f82526e032b73210383937b837b9b0b6101d1608d1b6040837f2020203d3e204c42504d203a204c656e642046656520666f722074686973206c60208201520152565b60405190614f6682612ed8565b603d82527f626c6520526573657276652042616c616e636520696e20576569203a200000006040837f2020203d3e204c42504d203a20757365722043757272656e7420417661696c6160208201520152565b15614fbf57565b60a460405162461bcd60e51b815260206004820152604460248201527f4c656e64657220646f65736e2774206861766520656e6f75676820526573657260448201527f76652042616c616e636520746f2041636365707420426f72726f772050726f706064820152631bdcd85b60e21b6084820152fd5b6040519061504382612ed8565b602d82526c01024b731b932b0b9b2b2101d1609d1b6040837f2020203d3e204c42504d203a205573657220426f72726f772042616c616e636560208201520152565b603654604051630283aeb760e11b81526001600160a01b0392831660048201529160209183916024918391165afa908115615138575b60009161511a575b50156150cb57565b60405162461bcd60e51b815260206004820152602160248201527f416374696f6e20726571756972657320616e20616374697665207265736572766044820152606560f81b6064820152608490fd5b615132915060203d811161109b5761108c8183612ef4565b386150c3565b615140612f2b565b6150bb565b603654604051634a08accb60e01b81526001600160a01b0392831660048201529160209183916024918391165afa9081156151f9575b6000916151db575b5061518a57565b60405162461bcd60e51b8152602060048201526024808201527f416374696f6e20726571756972657320616e20756e667265657a6564207265736044820152636572766560e01b6064820152608490fd5b6151f3915060203d811161109b5761108c8183612ef4565b38615183565b615201612f2b565b61517b565b1561520d57565b60405162461bcd60e51b815260206004820152601d60248201527f416d6f756e74206d7573742062652067726561746572207468616e20300000006044820152606490fd5b615295615281916130c493604051938492632d839cb360e21b60208501526040602485015260648401906144d7565b90604483015203601f198101835282612ef4565b600080916020815191016a636f6e736f6c652e6c6f675afa50565b615295916130c4946152e09460405195869463a7a8785360e01b60208701526080602487015260a48601906144d7565b9260448501526064840152608483015203601f198101835282612ef456fe5468657265206973206e6f7420656e6f756768206c6971756964697479206176a264697066735822122024f3365682613db5e50facac158746f7ab3b12bec963776d520660142d336afb64736f6c634300080d0033",
  "linkReferences": {},
  "deployedLinkReferences": {}
}