{
  "_format": "hh-sol-artifact-1",
  "contractName": "LendingBoardProposeMode",
  "sourceName": "contracts/lendingboard/LendingBoardProposeMode.sol",
  "abi": [
    {
      "anonymous": false,
      "inputs": [
        {
          "indexed": true,
          "internalType": "address",
          "name": "_reserve",
          "type": "address"
        },
        {
          "indexed": true,
          "internalType": "address",
          "name": "_user",
          "type": "address"
        },
        {
          "indexed": false,
          "internalType": "uint256",
          "name": "_amount",
          "type": "uint256"
        },
        {
          "indexed": false,
          "internalType": "uint256",
          "name": "_borrowRateMode",
          "type": "uint256"
        },
        {
          "indexed": false,
          "internalType": "uint256",
          "name": "_borrowRate",
          "type": "uint256"
        },
        {
          "indexed": false,
          "internalType": "uint256",
          "name": "_originationFee",
          "type": "uint256"
        },
        {
          "indexed": false,
          "internalType": "uint256",
          "name": "_borrowBalanceIncrease",
          "type": "uint256"
        },
        {
          "indexed": false,
          "internalType": "uint256",
          "name": "_timestamp",
          "type": "uint256"
        }
      ],
      "name": "Borrow",
      "type": "event"
    },
    {
      "anonymous": false,
      "inputs": [
        {
          "indexed": true,
          "internalType": "address",
          "name": "_reserveToLend",
          "type": "address"
        },
        {
          "indexed": true,
          "internalType": "address",
          "name": "_lender",
          "type": "address"
        },
        {
          "indexed": true,
          "internalType": "uint256",
          "name": "_proposalId",
          "type": "uint256"
        },
        {
          "indexed": false,
          "internalType": "uint256",
          "name": "_amount",
          "type": "uint256"
        },
        {
          "indexed": false,
          "internalType": "uint256",
          "name": "_originationFee",
          "type": "uint256"
        },
        {
          "indexed": false,
          "internalType": "uint256",
          "name": "_timestamp",
          "type": "uint256"
        }
      ],
      "name": "BorrowAccepted",
      "type": "event"
    },
    {
      "anonymous": false,
      "inputs": [
        {
          "indexed": true,
          "internalType": "address",
          "name": "_reserveToBorrow",
          "type": "address"
        },
        {
          "indexed": true,
          "internalType": "address",
          "name": "_borrowProposer",
          "type": "address"
        },
        {
          "indexed": true,
          "internalType": "uint256",
          "name": "_proposalId",
          "type": "uint256"
        },
        {
          "indexed": false,
          "internalType": "uint256",
          "name": "_amount",
          "type": "uint256"
        },
        {
          "indexed": false,
          "internalType": "address",
          "name": "_reserveForCollateral",
          "type": "address"
        },
        {
          "indexed": false,
          "internalType": "uint256",
          "name": "_interestRate",
          "type": "uint256"
        },
        {
          "indexed": false,
          "internalType": "uint256",
          "name": "_originationFee",
          "type": "uint256"
        },
        {
          "indexed": false,
          "internalType": "uint256",
          "name": "_dueDate",
          "type": "uint256"
        },
        {
          "indexed": false,
          "internalType": "uint256",
          "name": "_timestamp",
          "type": "uint256"
        }
      ],
      "name": "BorrowProposed",
      "type": "event"
    },
    {
      "anonymous": false,
      "inputs": [
        {
          "indexed": true,
          "internalType": "address",
          "name": "_reserve",
          "type": "address"
        },
        {
          "indexed": true,
          "internalType": "address",
          "name": "_user",
          "type": "address"
        },
        {
          "indexed": false,
          "internalType": "uint256",
          "name": "_amount",
          "type": "uint256"
        },
        {
          "indexed": false,
          "internalType": "uint256",
          "name": "_timestamp",
          "type": "uint256"
        }
      ],
      "name": "Deposit",
      "type": "event"
    },
    {
      "anonymous": false,
      "inputs": [
        {
          "indexed": true,
          "internalType": "address",
          "name": "_collateral",
          "type": "address"
        },
        {
          "indexed": true,
          "internalType": "address",
          "name": "_reserve",
          "type": "address"
        },
        {
          "indexed": true,
          "internalType": "address",
          "name": "_user",
          "type": "address"
        },
        {
          "indexed": false,
          "internalType": "uint256",
          "name": "_purchaseAmount",
          "type": "uint256"
        },
        {
          "indexed": false,
          "internalType": "uint256",
          "name": "_liquidatedCollateralAmount",
          "type": "uint256"
        },
        {
          "indexed": false,
          "internalType": "uint256",
          "name": "_accruedBorrowInterest",
          "type": "uint256"
        },
        {
          "indexed": false,
          "internalType": "address",
          "name": "_liquidator",
          "type": "address"
        },
        {
          "indexed": false,
          "internalType": "bool",
          "name": "_receiveAToken",
          "type": "bool"
        },
        {
          "indexed": false,
          "internalType": "uint256",
          "name": "_timestamp",
          "type": "uint256"
        }
      ],
      "name": "LiquidationCall",
      "type": "event"
    },
    {
      "anonymous": false,
      "inputs": [
        {
          "indexed": true,
          "internalType": "address",
          "name": "_collateral",
          "type": "address"
        },
        {
          "indexed": true,
          "internalType": "address",
          "name": "_reserve",
          "type": "address"
        },
        {
          "indexed": true,
          "internalType": "address",
          "name": "_user",
          "type": "address"
        },
        {
          "indexed": false,
          "internalType": "uint256",
          "name": "_feeLiquidated",
          "type": "uint256"
        },
        {
          "indexed": false,
          "internalType": "uint256",
          "name": "_liquidatedCollateralForFee",
          "type": "uint256"
        },
        {
          "indexed": false,
          "internalType": "uint256",
          "name": "_timestamp",
          "type": "uint256"
        }
      ],
      "name": "OriginationFeeLiquidated",
      "type": "event"
    },
    {
      "anonymous": false,
      "inputs": [
        {
          "indexed": true,
          "internalType": "address",
          "name": "_reserve",
          "type": "address"
        },
        {
          "indexed": true,
          "internalType": "address",
          "name": "_user",
          "type": "address"
        },
        {
          "indexed": false,
          "internalType": "uint256",
          "name": "_amount",
          "type": "uint256"
        },
        {
          "indexed": false,
          "internalType": "uint256",
          "name": "_timestamp",
          "type": "uint256"
        }
      ],
      "name": "RedeemUnderlying",
      "type": "event"
    },
    {
      "anonymous": false,
      "inputs": [
        {
          "indexed": true,
          "internalType": "address",
          "name": "_reserve",
          "type": "address"
        },
        {
          "indexed": true,
          "internalType": "address",
          "name": "_user",
          "type": "address"
        },
        {
          "indexed": true,
          "internalType": "address",
          "name": "_repayer",
          "type": "address"
        },
        {
          "indexed": false,
          "internalType": "uint256",
          "name": "_amountMinusFees",
          "type": "uint256"
        },
        {
          "indexed": false,
          "internalType": "uint256",
          "name": "_fees",
          "type": "uint256"
        },
        {
          "indexed": false,
          "internalType": "uint256",
          "name": "_borrowBalanceIncrease",
          "type": "uint256"
        },
        {
          "indexed": false,
          "internalType": "uint256",
          "name": "_timestamp",
          "type": "uint256"
        }
      ],
      "name": "Repay",
      "type": "event"
    },
    {
      "anonymous": false,
      "inputs": [
        {
          "indexed": true,
          "internalType": "address",
          "name": "_reserve",
          "type": "address"
        },
        {
          "indexed": true,
          "internalType": "address",
          "name": "_user",
          "type": "address"
        }
      ],
      "name": "ReserveUsedAsCollateralDisabled",
      "type": "event"
    },
    {
      "anonymous": false,
      "inputs": [
        {
          "indexed": true,
          "internalType": "address",
          "name": "_reserve",
          "type": "address"
        },
        {
          "indexed": true,
          "internalType": "address",
          "name": "_user",
          "type": "address"
        }
      ],
      "name": "ReserveUsedAsCollateralEnabled",
      "type": "event"
    },
    {
      "inputs": [],
      "name": "LENDINGPOOL_REVISION",
      "outputs": [
        {
          "internalType": "uint256",
          "name": "",
          "type": "uint256"
        }
      ],
      "stateMutability": "view",
      "type": "function"
    },
    {
      "inputs": [],
      "name": "UINT_MAX_VALUE",
      "outputs": [
        {
          "internalType": "uint256",
          "name": "",
          "type": "uint256"
        }
      ],
      "stateMutability": "view",
      "type": "function"
    },
    {
      "inputs": [],
      "name": "addressesProvider",
      "outputs": [
        {
          "internalType": "contract LendingBoardAddressesProvider",
          "name": "",
          "type": "address"
        }
      ],
      "stateMutability": "view",
      "type": "function"
    },
    {
      "inputs": [
        {
          "internalType": "address",
          "name": "_reserve",
          "type": "address"
        },
        {
          "internalType": "uint256",
          "name": "_amount",
          "type": "uint256"
        },
        {
          "internalType": "uint256",
          "name": "_interestRateMode",
          "type": "uint256"
        }
      ],
      "name": "borrow",
      "outputs": [],
      "stateMutability": "nonpayable",
      "type": "function"
    },
    {
      "inputs": [
        {
          "internalType": "address",
          "name": "_reserveToBorrow",
          "type": "address"
        },
        {
          "internalType": "uint256",
          "name": "_amount",
          "type": "uint256"
        },
        {
          "internalType": "address",
          "name": "_reserveForCollateral",
          "type": "address"
        },
        {
          "internalType": "uint256",
          "name": "_interestRate",
          "type": "uint256"
        },
        {
          "internalType": "uint256",
          "name": "_dueDate",
          "type": "uint256"
        }
      ],
      "name": "borrowProposal",
      "outputs": [],
      "stateMutability": "nonpayable",
      "type": "function"
    },
    {
      "inputs": [
        {
          "internalType": "uint256",
          "name": "proposalId",
          "type": "uint256"
        }
      ],
      "name": "borrowProposalAccept",
      "outputs": [],
      "stateMutability": "nonpayable",
      "type": "function"
    },
    {
      "inputs": [],
      "name": "borrowProposalListCount",
      "outputs": [
        {
          "internalType": "uint256",
          "name": "",
          "type": "uint256"
        }
      ],
      "stateMutability": "view",
      "type": "function"
    },
    {
      "inputs": [],
      "name": "core",
      "outputs": [
        {
          "internalType": "contract LendingBoardCore",
          "name": "",
          "type": "address"
        }
      ],
      "stateMutability": "view",
      "type": "function"
    },
    {
      "inputs": [],
      "name": "dataProvider",
      "outputs": [
        {
          "internalType": "contract LendingBoardDataProvider",
          "name": "",
          "type": "address"
        }
      ],
      "stateMutability": "view",
      "type": "function"
    },
    {
      "inputs": [
        {
          "internalType": "address",
          "name": "_reserve",
          "type": "address"
        },
        {
          "internalType": "uint256",
          "name": "_amount",
          "type": "uint256"
        },
        {
          "internalType": "uint16",
          "name": "_referralCode",
          "type": "uint16"
        }
      ],
      "name": "deposit",
      "outputs": [],
      "stateMutability": "payable",
      "type": "function"
    },
    {
      "inputs": [
        {
          "internalType": "uint256",
          "name": "proposalId",
          "type": "uint256"
        }
      ],
      "name": "getBorrowProposal",
      "outputs": [
        {
          "internalType": "bool",
          "name": "active",
          "type": "bool"
        },
        {
          "internalType": "address",
          "name": "borrower",
          "type": "address"
        },
        {
          "internalType": "address",
          "name": "reserveToBorrow",
          "type": "address"
        },
        {
          "internalType": "uint256",
          "name": "amount",
          "type": "uint256"
        },
        {
          "internalType": "address",
          "name": "reserveForCollateral",
          "type": "address"
        },
        {
          "internalType": "uint256",
          "name": "interestRate",
          "type": "uint256"
        },
        {
          "internalType": "uint256",
          "name": "dueDate",
          "type": "uint256"
        },
        {
          "internalType": "uint256",
          "name": "proposalDate",
          "type": "uint256"
        },
        {
          "internalType": "uint256",
          "name": "ltv",
          "type": "uint256"
        }
      ],
      "stateMutability": "view",
      "type": "function"
    },
    {
      "inputs": [
        {
          "internalType": "uint256",
          "name": "startIdx",
          "type": "uint256"
        },
        {
          "internalType": "uint256",
          "name": "endIdx",
          "type": "uint256"
        }
      ],
      "name": "getBorrowProposalList",
      "outputs": [
        {
          "components": [
            {
              "internalType": "bool",
              "name": "active",
              "type": "bool"
            },
            {
              "internalType": "address",
              "name": "borrower",
              "type": "address"
            },
            {
              "internalType": "address",
              "name": "reserveToBorrow",
              "type": "address"
            },
            {
              "internalType": "uint256",
              "name": "amount",
              "type": "uint256"
            },
            {
              "internalType": "address",
              "name": "reserveForCollateral",
              "type": "address"
            },
            {
              "internalType": "uint256",
              "name": "interestRate",
              "type": "uint256"
            },
            {
              "internalType": "uint256",
              "name": "dueDate",
              "type": "uint256"
            },
            {
              "internalType": "uint256",
              "name": "proposalDate",
              "type": "uint256"
            },
            {
              "internalType": "uint256",
              "name": "borrowFee",
              "type": "uint256"
            },
            {
              "internalType": "uint256",
              "name": "ltv",
              "type": "uint256"
            }
          ],
          "internalType": "struct LendingBoardProposeMode.BorrowProposal[]",
          "name": "result",
          "type": "tuple[]"
        }
      ],
      "stateMutability": "view",
      "type": "function"
    },
    {
      "inputs": [
        {
          "internalType": "address",
          "name": "_reserve",
          "type": "address"
        }
      ],
      "name": "getReserveConfigurationData",
      "outputs": [
        {
          "internalType": "uint256",
          "name": "ltv",
          "type": "uint256"
        },
        {
          "internalType": "uint256",
          "name": "liquidationThreshold",
          "type": "uint256"
        },
        {
          "internalType": "uint256",
          "name": "liquidationBonus",
          "type": "uint256"
        },
        {
          "internalType": "address",
          "name": "interestRateStrategyAddress",
          "type": "address"
        },
        {
          "internalType": "bool",
          "name": "usageAsCollateralEnabled",
          "type": "bool"
        },
        {
          "internalType": "bool",
          "name": "borrowingEnabled",
          "type": "bool"
        },
        {
          "internalType": "bool",
          "name": "stableBorrowRateEnabled",
          "type": "bool"
        },
        {
          "internalType": "bool",
          "name": "isActive",
          "type": "bool"
        }
      ],
      "stateMutability": "view",
      "type": "function"
    },
    {
      "inputs": [
        {
          "internalType": "address",
          "name": "_reserve",
          "type": "address"
        }
      ],
      "name": "getReserveData",
      "outputs": [
        {
          "internalType": "uint256",
          "name": "totalLiquidity",
          "type": "uint256"
        },
        {
          "internalType": "uint256",
          "name": "availableLiquidity",
          "type": "uint256"
        },
        {
          "internalType": "uint256",
          "name": "totalBorrowsStable",
          "type": "uint256"
        },
        {
          "internalType": "uint256",
          "name": "totalBorrowsVariable",
          "type": "uint256"
        },
        {
          "internalType": "uint256",
          "name": "liquidityRate",
          "type": "uint256"
        },
        {
          "internalType": "uint256",
          "name": "variableBorrowRate",
          "type": "uint256"
        },
        {
          "internalType": "uint256",
          "name": "stableBorrowRate",
          "type": "uint256"
        },
        {
          "internalType": "uint256",
          "name": "averageStableBorrowRate",
          "type": "uint256"
        },
        {
          "internalType": "uint256",
          "name": "utilizationRate",
          "type": "uint256"
        },
        {
          "internalType": "uint256",
          "name": "liquidityIndex",
          "type": "uint256"
        },
        {
          "internalType": "uint256",
          "name": "variableBorrowIndex",
          "type": "uint256"
        },
        {
          "internalType": "address",
          "name": "aTokenAddress",
          "type": "address"
        },
        {
          "internalType": "uint40",
          "name": "lastUpdateTimestamp",
          "type": "uint40"
        }
      ],
      "stateMutability": "view",
      "type": "function"
    },
    {
      "inputs": [],
      "name": "getReserves",
      "outputs": [
        {
          "internalType": "address[]",
          "name": "",
          "type": "address[]"
        }
      ],
      "stateMutability": "view",
      "type": "function"
    },
    {
      "inputs": [
        {
          "internalType": "address",
          "name": "_user",
          "type": "address"
        }
      ],
      "name": "getUserAccountData",
      "outputs": [
        {
          "internalType": "uint256",
          "name": "totalLiquidityETH",
          "type": "uint256"
        },
        {
          "internalType": "uint256",
          "name": "totalCollateralETH",
          "type": "uint256"
        },
        {
          "internalType": "uint256",
          "name": "totalBorrowsETH",
          "type": "uint256"
        },
        {
          "internalType": "uint256",
          "name": "totalFeesETH",
          "type": "uint256"
        },
        {
          "internalType": "uint256",
          "name": "availableBorrowsETH",
          "type": "uint256"
        },
        {
          "internalType": "uint256",
          "name": "currentLiquidationThreshold",
          "type": "uint256"
        },
        {
          "internalType": "uint256",
          "name": "ltv",
          "type": "uint256"
        },
        {
          "internalType": "uint256",
          "name": "healthFactor",
          "type": "uint256"
        }
      ],
      "stateMutability": "view",
      "type": "function"
    },
    {
      "inputs": [
        {
          "internalType": "address",
          "name": "_reserve",
          "type": "address"
        },
        {
          "internalType": "address",
          "name": "_user",
          "type": "address"
        }
      ],
      "name": "getUserReserveData",
      "outputs": [
        {
          "internalType": "uint256",
          "name": "currentATokenBalance",
          "type": "uint256"
        },
        {
          "internalType": "uint256",
          "name": "currentBorrowBalance",
          "type": "uint256"
        },
        {
          "internalType": "uint256",
          "name": "principalBorrowBalance",
          "type": "uint256"
        },
        {
          "internalType": "uint256",
          "name": "borrowRateMode",
          "type": "uint256"
        },
        {
          "internalType": "uint256",
          "name": "borrowRate",
          "type": "uint256"
        },
        {
          "internalType": "uint256",
          "name": "liquidityRate",
          "type": "uint256"
        },
        {
          "internalType": "uint256",
          "name": "originationFee",
          "type": "uint256"
        },
        {
          "internalType": "uint256",
          "name": "variableBorrowIndex",
          "type": "uint256"
        },
        {
          "internalType": "uint256",
          "name": "lastUpdateTimestamp",
          "type": "uint256"
        },
        {
          "internalType": "bool",
          "name": "usageAsCollateralEnabled",
          "type": "bool"
        }
      ],
      "stateMutability": "view",
      "type": "function"
    },
    {
      "inputs": [
        {
          "internalType": "contract LendingBoardAddressesProvider",
          "name": "_addressesProvider",
          "type": "address"
        }
      ],
      "name": "initialize",
      "outputs": [],
      "stateMutability": "nonpayable",
      "type": "function"
    },
    {
      "inputs": [
        {
          "internalType": "address",
          "name": "_collateral",
          "type": "address"
        },
        {
          "internalType": "address",
          "name": "_reserve",
          "type": "address"
        },
        {
          "internalType": "address",
          "name": "_user",
          "type": "address"
        },
        {
          "internalType": "uint256",
          "name": "_purchaseAmount",
          "type": "uint256"
        },
        {
          "internalType": "bool",
          "name": "_receiveAToken",
          "type": "bool"
        }
      ],
      "name": "liquidationCall",
      "outputs": [],
      "stateMutability": "payable",
      "type": "function"
    },
    {
      "inputs": [],
      "name": "parametersProvider",
      "outputs": [
        {
          "internalType": "contract LendingBoardParametersProvider",
          "name": "",
          "type": "address"
        }
      ],
      "stateMutability": "view",
      "type": "function"
    },
    {
      "inputs": [
        {
          "internalType": "address",
          "name": "_reserve",
          "type": "address"
        },
        {
          "internalType": "address payable",
          "name": "_user",
          "type": "address"
        },
        {
          "internalType": "uint256",
          "name": "_amount",
          "type": "uint256"
        },
        {
          "internalType": "uint256",
          "name": "_aTokenBalanceAfterRedeem",
          "type": "uint256"
        }
      ],
      "name": "redeemUnderlying",
      "outputs": [],
      "stateMutability": "nonpayable",
      "type": "function"
    },
    {
      "inputs": [
        {
          "internalType": "address",
          "name": "_reserve",
          "type": "address"
        },
        {
          "internalType": "uint256",
          "name": "_amount",
          "type": "uint256"
        },
        {
          "internalType": "address payable",
          "name": "_onBehalfOf",
          "type": "address"
        }
      ],
      "name": "repay",
      "outputs": [],
      "stateMutability": "payable",
      "type": "function"
    },
    {
      "inputs": [
        {
          "internalType": "address",
          "name": "_reserve",
          "type": "address"
        },
        {
          "internalType": "bool",
          "name": "_useAsCollateral",
          "type": "bool"
        }
      ],
      "name": "setUserUseReserveAsCollateral",
      "outputs": [],
      "stateMutability": "nonpayable",
      "type": "function"
    }
  ],
  "bytecode": "0x6080806040523461002557600160005560006001556000603b5561469e908161002b8239f35b600080fdfe60806040526004361015610013575b600080fd5b60003560e01c8062a718a9146101de5780630902f1ac146101d557806328dd2d01146101cc57806329e6a05f146101c357806335ea6a75146101ba5780633815d34c146101b15780633e150141146101a857806358707e061461019f5780635a3b74b9146101965780635ceae9c41461018d57806379cc211e146101845780638afaff021461017b5780638fabf76d146101725780639895e3d814610169578063ab1e8a2114610160578063b334ed8614610157578063bf92857c1461014e578063c1bce0b714610145578063c4d66de81461013c578063c72c4d1014610133578063d0fc81d21461012a578063d2d0e066146101215763f2f4eb261461011957600080fd5b61000e61235d565b5061000e61207c565b5061000e61205e565b5061000e612034565b5061000e611f45565b5061000e611902565b5061000e6117de565b5061000e6117b4565b5061000e6116fe565b5061000e61163f565b5061000e610f86565b5061000e610f69565b5061000e610db7565b5061000e610d65565b5061000e610ae6565b5061000e610abc565b5061000e6109b1565b5061000e610900565b5061000e61068c565b5061000e61066d565b5061000e61053e565b5061000e61042d565b5061000e610202565b6001600160a01b0381160361000e57565b8015150361000e57565b5060a036600319011261000e5760043561021b816101e7565b602435610227816101e7565b610327600080604435610239816101e7565b60843594610246866101f8565b61024e612669565b610257816143ef565b610260876143ef565b60355461027d906001600160a01b03165b6001600160a01b031690565b91604051968793632bd7cfb760e11b855284600460209a8b935afa9384156103d1575b859461039e575b5060405162a718a960e01b8982019081526001600160a01b039a8b166024830152938a166044820152989091166064808a0191909152356084890152151560a48801528660c481015b0396610304601f19988981018352826123db565b51915af461031961031361389d565b916138cd565b82808251830101910161394e565b90610338576103366001600055565b005b61039a92610370926103766103829360405195869384016014907302634b8bab4b230ba34b7b7103330b4b632b21d160651b81520190565b906139b5565b039081018352826123db565b60405162461bcd60e51b8152918291600483016139ed565b0390fd5b6102f09194506103c390893d8b116103ca575b6103bb81836123db565b8101906123fd565b93906102a7565b503d6103b1565b6103d9612415565b6102a0565b600091031261000e57565b6020908160408183019282815285518094520193019160005b828110610410575050505090565b83516001600160a01b031685529381019392810192600101610402565b503461000e5760008060031936011261052657603654604051630240bc6b60e21b815291908190839060049082906001600160a01b03165afa908115610531575b8091610487575b6040518061048384826103e9565b0390f35b90503d8082843e61049881846123db565b820160209283818303126105295780519067ffffffffffffffff821161052d570181601f82011215610529578051906104d08261434e565b936104de60405195866123db565b828552858086019360051b83010193841161052657508401905b82821061050d57505050610483915038610475565b848091835161051b816101e7565b8152019101906104f8565b80fd5b8280fd5b8380fd5b610539612415565b61046e565b503461000e57604036600319011261000e5760043561055c816101e7565b60243590610569826101e7565b6037546040516328dd2d0160e01b81526001600160a01b03928316600482015292821660248401526101409291839183916044918391165afa8015610660575b600090819282838485908692879488968998610616575b5061048398999a506040519a8b9a8b9895926101209895929b9a9794919b6101408b019c8b5260208b015260408a01526060890152608088015260a087015260c086015260e08501526101008401521515910152565b9850505050505050505061064491508261048393903d10610659575b61063c81836123db565b810190613a6a565b97998a999897919692959394939291906105c0565b503d610632565b610668612415565b6105a9565b503461000e57600036600319011261000e576020603b54604051908152f35b503461000e57602036600319011261000e576004356106aa816101e7565b6037546040516335ea6a7560e01b81526001600160a01b0392831660048201526101a0929091839183916024918391165afa801561082f575b600090819282838485868791889389958a978b998c9b610778575b506104839b9c9d506040519d8e9d8e9b99979593919d9c9a98969492909d6101a08d019e8d5260208d015260408c015260608b015260808a015260a089015260c088015260e0870152610100860152610120850152610140840152600160a01b600190031661016083015264ffffffffff16906101800152565b9c5050505050505050505050509181813d8311610828575b61079a81836123db565b8101031261082457805190602081015190604081015192606082015191608081015160a082015160c083015160e0840151610100850151916101208601519361014087015195610180610160890151986107f38a6101e7565b01519864ffffffffff8a168a03610820576104839b9c9d509b9c99909192939495969798998d9c9b6106fe565b8d80fd5b5080fd5b503d610790565b610837612415565b6106e3565b60208082019080835283518092528060408094019401926000905b83821061086657505050505090565b909192939483610140600192885161088082825115159052565b808401516001600160a01b031682850152808601516001600160a01b031682870152606081810151908301526080808201516001600160a01b03169083015260a0818101519083015260c0808201519083015260e08082015190830152610100808201519083015261012090810151908201520196019493920190610857565b503461000e57604036600319011261000e57600435602435610925603b54821061429c565b61094c61093a61093584846130bb565b613036565b6109476107d082106142f7565b614375565b916000905b828111156109675760405180610483868261083c565b806109a66109826109ac93600052603a602052604060002090565b9361099561098f82613de1565b95613ebf565b61099f82896143c5565b52866143c5565b50613de1565b610951565b503461000e57602036600319011261000e576004356109cf816101e7565b603754604051633e15014160e01b81526001600160a01b039283166004820152610100929091839183916024918391165afa8015610aaf575b600090819282838490859286948796610a6a575b50604080519788526020880198909852968601969096526001600160a01b039095166060850152931515608084015292151560a083015291151560c082015290151560e08201526101009150f35b9650505050505050610a9691508261048393903d10610aa8575b610a8e81836123db565b810190613ab9565b95978897969591949293929190610a1c565b503d610a84565b610ab7612415565b610a08565b503461000e57600036600319011261000e576038546040516001600160a01b039091168152602090f35b503461000e5760408060031936011261000e5760043590610b06826101e7565b60243591610b13836101f8565b610b1b612669565b610b24816143ef565b610b2d816144af565b603654610b42906001600160a01b0316610271565b8251630c526de560e11b81526001600160a01b0383166004820152336024820152909390610c0090602090610be590829081816044818c5afa908115610d58575b600091610d2b575b50610b978115156137ae565b603754610bac906001600160a01b0316610271565b88516376e9d61560e01b81526001600160a01b038916600482015233602482015260448101929092529092839190829081906064820190565b03915afa918215610d1e575b600092610cf1575b505061380d565b833b1561000e578251633e94615360e21b81526001600160a01b0383166004820152336024820152811515604482015260009485908290606490829084905af18015610ce4575b610ccb575b508314610c9357815133916001600160a01b0316907e058a56ea94653cdf4f152d227ace22d4c00ad99e2a43f58cb7d9e3feb295f2908590a35b610c906001600055565b51f35b815133916001600160a01b0316907f44c58d81365b66dd4b1a7f36c25aa97b8c71c361ee4937adc1a00000227db5dd908590a3610c86565b80610cd8610cde9261239e565b806103de565b38610c4c565b610cec612415565b610c47565b610d109250803d10610d17575b610d0881836123db565b810190612a3d565b3880610bf9565b503d610cfe565b610d26612415565b610bf1565b610d4b9150823d8411610d51575b610d4381836123db565b81019061265a565b38610b8b565b503d610d39565b610d60612415565b610b83565b50606036600319011261000e57610db0600435610d81816101e7565b60243560443591610d91836101e7565b610d99612669565b610da2816143ef565b610dab82614570565b6130d2565b6001600055005b503461000e57602036600319011261000e57600435603b548111610f2f57610df3610dec82600052603a602052604060002090565b5460ff1690565b610483610e1d610e0d84600052603a602052604060002090565b5460081c6001600160a01b031690565b92610e456001610e3783600052603a602052604060002090565b01546001600160a01b031690565b906002610e5c82600052603a602052604060002090565b0154610e776003610e3784600052603a602052604060002090565b6004610e8d84600052603a602052604060002090565b0154906005610ea685600052603a602052604060002090565b0154926008610ed76006610ec488600052603a602052604060002090565b015496600052603a602052604060002090565b015495604051998a998a9592919361010097949a999895919a61012088019b1515885260018060a01b03938480921660208a0152166040880152606087015216608085015260a084015260c083015260e08201520152565b60405162461bcd60e51b8152602060048201526012602482015271125b9d985b1a59081c1c9bdc1bdcd85b125960721b6044820152606490fd5b503461000e57600036600319011261000e57602060405160038152f35b503461000e5760a036600319011261000e57610fa36004356101e7565b610fae6044356101e7565b610fb6612669565b610fc16004356143ef565b610fcc6004356144af565b610fd7602435614570565b610fdf6139fe565b6004610fe96129cc565b603654610ffe906001600160a01b0316610271565b60405163288d4ff760e21b81526001600160a01b03843516848201908152909291906020908490819083010381845afa928315611632575b600093611611575b50603554602090611057906001600160a01b0316610271565b604051631f94a27560e31b815295869182905afa938415611604575b6000946115df575b506001855261112090336020870152604051632e79732b60e11b8152600480356001600160a01b0316908201526110d09060208180602481015b0381865afa9081156115d2575b6000916115b3575b50612a52565b60405163e240301960e01b8152600480356001600160a01b03169082015290602090829081806024810103915afa9081156115a6575b600091611587575b50806101608401526024351115612b2e565b603754611135906001600160a01b0316610271565b6040516328dd2d0160e01b8152604480356001600160a01b031660048301523360248301529193916111989161118a916101409081908390818a5afa91821561157a575b6000918293611550575b50506130bb565b670de0b6b3a7640000900490565b604051633e15014160e01b8152600480356001600160a01b0316908201529361010090859081806024810103915afa938415611543575b600094611511575b5060405163b3596f0760e01b8152600480356001600160a01b031690820152939492936112fe936112eb9161125b9061124d9061123e90602081806024810103816001600160a01b0389165afa908115611504575b6000916114e5575b5060243590612ea2565b61124787613b1e565b90612ec1565b94611256613b3a565b6145bc565b6112e3876112c66112778261127289602435612ea2565b612ec1565b60405163b3596f0760e01b81526001600160a01b036044351660048201529094602090829081806024810103916001600160a01b03165afa9081156114d8575b6000916114b9575b5084612ec1565b956112d386611256613b8f565b6024356112de613bda565b61461a565b611256613c39565b6112f782611256613c89565b1015613ce0565b603954611313906001600160a01b0316610271565b604051630e563a7d60e41b815233600482015260248035908201529190602090839060449082905afa9182156114ac575b600092611484575b50606061135f9101918083521515612c98565b6001600160a01b0360043516604084015260243560608401526001600160a01b036044351660808401527fddda05bca10ccedb67628486050c0637ba56c3b1d4d271f7524748d5e3931c8561146d606435928315158061147a575b6113c390613d52565b8360a0870152608435946113d8428711613d9e565b8560c08801524260e08801528151610100880152610120870152611423603b549661140a61140589613de1565b603b55565b61141e88600052603a602052604060002090565b613df1565b516040805160243581526001600160a01b036044358116602083015291810195909552606085019190915260808401949094524260a08401523393600435169290819060c0820190565b0390a46103366001600055565b50606484106113ba565b61135f9192506114a460609160203d602011610d5157610d4381836123db565b92915061134c565b6114b4612415565b611344565b6114d2915060203d602011610d5157610d4381836123db565b386112bf565b6114e0612415565b6112b7565b6114fe915060203d602011610d5157610d4381836123db565b38611234565b61150c612415565b61122c565b6112fe9394506115346112eb916101003d61010011610aa857610a8e81836123db565b505050505050509493506111d7565b61154b612415565b6111cf565b61156a935080919250903d106106595761063c81836123db565b5050505050505050903880611183565b611582612415565b611179565b6115a0915060203d602011610d5157610d4381836123db565b3861110e565b6115ae612415565b611106565b6115cc915060203d602011610d1757610d0881836123db565b386110ca565b6115da612415565b6110c2565b6111209194506115fd9060203d6020116103ca576103bb81836123db565b939061107b565b61160c612415565b611073565b61162b91935060203d602011610d5157610d4381836123db565b913861103e565b61163a612415565b611036565b503461000e57608036600319011261000e576116c9600435611660816101e7565b6024359061166d826101e7565b611675612669565b6116bc60018060a01b0360246020826036541660405192838092631a59df7760e11b825286891660048301525afa9081156116f1575b6000916116d3575b501633146126bf565b6064359160443591612745565b6103366001600055565b6116eb915060203d81116103ca576103bb81836123db565b386116b3565b6116f9612415565b6116ab565b503461000e57602036600319011261000e5760043561171b6139fe565b5080600052603a6020526117326040600020613ebf565b906001825115150361175b576040820151606090920151610336926001600160a01b0316613f54565b60405162461bcd60e51b815260206004820152602b60248201527f4f6e6c792041637469766520426f72726f772050726f706f73616c2063616e2060448201526a1899481058d8d95c1d195960aa1b6064820152608490fd5b503461000e57600036600319011261000e576037546040516001600160a01b039091168152602090f35b503461000e57602036600319011261000e576004356117fc816101e7565b603754604051632fe4a15f60e21b81526001600160a01b0392831660048201529161010091829184916024918391165afa80156118f5575b60009081928283849085928694879661188e575b50610483969798506040519889988994919260e0969399989794919961010087019a8752602087015260408601526060850152608084015260a083015260c08201520152565b96975050505050505082813d83116118ee575b6118ab81836123db565b8101031261052657508051602082015160408301516060840151608085015160a086015160c087015160e090970151949687969594909391929190610483611848565b503d6118a1565b6118fd612415565b611834565b503461000e57606036600319011261000e5761191f6004356101e7565b60443561192a612669565b6119356004356143ef565b6119406004356144af565b61194b602435614570565b6119536129cc565b603654611bf29060409061196f906001600160a01b0316610271565b8151632e79732b60e11b8152600480356001600160a01b03169082015261199d9060208180602481016110b5565b846002148015611f3b575b6119b190612aca565b6119ba85612aaa565b6101c08401906119ca8683612b22565b825163e240301960e01b8152600480356001600160a01b031690820152611a1690602081602481865afa908115611f2e575b600091611f0f575b50806101608801526024351115612b2e565b603754611ba190611a2f906001600160a01b0316610271565b8451632c6d0e9b60e01b815233600482015260209061010090611ac090611abb90611ab79084816024818a5afa908115611f02575b8d60009182908390849085908697611ebd575b509260c0928592879695611a966101e0611ab19a98019a8b9015159052565b60408501528d8401528b83015260e082015201521515612bda565b51151590565b1590565b612c26565b603954611b1d90611ad9906001600160a01b0316610271565b8851630e563a7d60e41b81523360048201526024803590820152908490829060449082905afa908115611eb0575b600091611e93575b508060608c01521515612c98565b606089015160e08a0151918a0151838b015189516312737c3360e01b8152600480356001600160a01b031690820152602480359082015260448101939093526064830193909352608482015260a4810191909152918290818060c4810103915afa908115611e86575b600091611e67575b508060a088015260c08701511015612cee565b60018251611bae81612aaa565b611bb781612aaa565b14611d59575b6060850151915191611bce83612aaa565b60008451809681958294630deb1bf960e21b84526024353360043560048701612e51565b03925af1928315611d4c575b6000918294611d19575b5061012083019384526101a08301918252603654611c2e906001600160a01b0316610271565b803b1561000e5760405163fa93b2a560e01b8152600480356001600160a01b031690820152336024808301919091523560448201527fe27fbad0754d6c730a8161378bc066f66fac114445968dcfc26d42a3002960139360609290919060009082908183816064810103925af18015611d0c575b611cf9575b505193015193516040805160243581526020810193909352820193909352606081019390935260808301919091524260a083015233916001600160a01b0360043516919060c090a36103366001600055565b80610cd8611d069261239e565b38611ca7565b611d14612415565b611ca2565b909350611d3e915060403d604011611d45575b611d3681836123db565b810190612e3b565b9238611c08565b503d611d2c565b611d54612415565b611bfe565b825163710ba6c360e11b8152600480356001600160a01b03169082015233602480830191909152356044820152611da990602081606481865afa908115611e5a575b600091611e3b575b50612d57565b611e0a611e00611df960046020611dca61027160385460018060a01b031690565b88516335adc96b60e21b815292839182905afa908115611e2e575b600091611e0f575b50610160890151612ea2565b6064900490565b6024351115612dc9565b611bbd565b611e28915060203d602011610d5157610d4381836123db565b38611ded565b611e36612415565b611de5565b611e54915060203d602011610d1757610d0881836123db565b38611da3565b611e62612415565b611d9b565b611e80915060203d602011610d5157610d4381836123db565b38611b8e565b611e8e612415565b611b86565b611eaa9150843d8611610d5157610d4381836123db565b38611b0f565b611eb8612415565b611b07565b9250505060c09450611ab19350611eea9150883d8a11611efb575b611ee281836123db565b810190612b99565b999598509395509193909250611a77565b503d611ed8565b611f0a612415565b611a64565b611f28915060203d602011610d5157610d4381836123db565b38611a04565b611f36612415565b6119fc565b50600185146119a8565b503461000e57602036600319011261000e57600435611f63816101e7565b60ff60025416908115918261202b575b801561201f575b15611fc357611f8d9082611fa257612422565b611f9357005b61033660ff1960025416600255565b611fb4600160ff196002541617600255565b611fbe6003600155565b612422565b60405162461bcd60e51b815260206004820152602e60248201527f436f6e747261637420696e7374616e63652068617320616c726561647920626560448201526d195b881a5b9a5d1a585b1a5e995960921b6064820152608490fd5b50600154600311611f7a565b50303b15611f73565b503461000e57600036600319011261000e576035546040516001600160a01b039091168152602090f35b503461000e57600036600319011261000e5760206040516000198152f35b50606036600319011261000e576004803590612097826101e7565b6024359160443561ffff81160361000e576120b0612669565b6120b983614570565b6036546120ce906001600160a01b0316610271565b60408051631a59df7760e11b81526001600160a01b0384168186019081529095919491929060209081908890819083010381855afa968715612350575b600097612331575b5085516370a0823160e01b8152338482019081526001600160a01b039889169391908390829081906020010381875afa928315612324575b600093612305575b5050803b1561000e578651632f35bfe960e21b81526001600160a01b038716858201908152336020820152604081018790529215606084015291600091839182908490829060800103925af180156122f8575b6122e5575b50803b1561000e5784516394362e8b60e01b81523383820190815260208101859052909160009183919082908490829060400103925af180156122d8575b6122c5575b50603654612204906001600160a01b0316610271565b803b1561000e5784516328fcf4d360e01b81526001600160a01b038516928101928352336020840152604083018490526000967fdcbc1c05240f31ff3ad067ef1ee35ce4997762752e3a095284754544f4c709d79361229893919291899183919082908190606001039134905af180156122b8575b6122a5575b508551938452426020850152339416929081906040820190565b0390a3610c906001600055565b80610cd86122b29261239e565b3861227e565b6122c0612415565b612279565b80610cd86122d29261239e565b386121ee565b6122e0612415565b6121e9565b80610cd86122f29261239e565b386121ab565b612300612415565b6121a6565b61231c929350803d10610d5157610d4381836123db565b903880612153565b61232c612415565b61214b565b816123499298503d89116103ca576103bb81836123db565b9538612113565b612358612415565b61210b565b503461000e57600036600319011261000e576036546040516001600160a01b039091168152602090f35b50634e487b7160e01b600052604160045260246000fd5b67ffffffffffffffff81116123b257604052565b6123ba612387565b604052565b6060810190811067ffffffffffffffff8211176123b257604052565b90601f8019910116810190811067ffffffffffffffff8211176123b257604052565b9081602091031261000e5751612412816101e7565b90565b506040513d6000823e3d90fd5b603580546001600160a01b0319166001600160a01b039290921691821790556125ae9061244e90610271565b6040518091630774f5f560e21b825281600460209384935afa91821561264d575b60009261262e575b50603680546001600160a01b0319166001600160a01b039384161790556124f2826004836124af61027160355460018060a01b031690565b6040516352cb335b60e11b815292839182905afa908115612621575b600091612604575b501660018060a01b03166001600160601b0360a01b6037541617603755565b6125508260048361250d61027160355460018060a01b031690565b604051639fabe17560e01b815292839182905afa9081156125f7575b6000916125da575b501660018060a01b03166001600160601b0360a01b6038541617603855565b603554600490829061256a906001600160a01b0316610271565b604051633efbbf0f60e21b815292839182905afa9182156125cd575b6000926125b0575b50501660018060a01b03166001600160601b0360a01b6039541617603955565b565b6125c69250803d106103ca576103bb81836123db565b388061258e565b6125d5612415565b612586565b6125f19150843d86116103ca576103bb81836123db565b38612531565b6125ff612415565b612529565b61261b9150843d86116103ca576103bb81836123db565b386124d3565b612629612415565b6124cb565b816126469293503d84116103ca576103bb81836123db565b9038612477565b612655612415565b61246f565b9081602091031261000e575190565b60026000541461267a576002600055565b60405162461bcd60e51b815260206004820152601f60248201527f5265656e7472616e637947756172643a207265656e7472616e742063616c6c006044820152606490fd5b156126c657565b60405162461bcd60e51b815260206004820152604b60248201527f5468652063616c6c6572206f6620746869732066756e6374696f6e2063616e2060448201527f6f6e6c79206265207468652061546f6b656e20636f6e7472616374206f66207460648201526a686973207265736572766560a81b608482015260a490fd5b9261274f846143ef565b61275883614570565b60365461276d906001600160a01b0316610271565b60405163e240301960e01b81526001600160a01b03861660048201526127b0908590602081602481875afa908115612917575b6000916128f9575b501015612924565b803b1561000e5760405163afcdbea360e01b81526001600160a01b0386811660048301528416602482015260448101859052911560648301526000908290608490829084905af180156128ec575b6128d9575b50603654612819906001600160a01b0316610271565b803b1561000e5760405163fa93b2a560e01b81526001600160a01b03858116600483015283166024820152604481018490527f9c4ed599cd8555b9c1e8cd7643240d7d71eb76b792948c49fcb4d411f7b6b3c6926128b4929091906000908290606490829084905af180156128cc575b6128b9575b50604080519485524260208601526001600160a01b039182169590911693918291820190565b0390a3565b80610cd86128c69261239e565b3861288e565b6128d4612415565b612889565b80610cd86128e69261239e565b38612803565b6128f4612415565b6127fe565b612911915060203d8111610d5157610d4381836123db565b386127a8565b61291f612415565b6127a0565b1561292b57565b60405162461bcd60e51b815260206004820152603160248201527f5468657265206973206e6f7420656e6f756768206c697175696469747920617660448201527061696c61626c6520746f2072656465656d60781b6064820152608490fd5b60405190610200820182811067ffffffffffffffff8211176123b257604052565b60405190610140820182811067ffffffffffffffff8211176123b257604052565b6129d461298a565b9060008083528060208401528060408401528060608401528060808401528060a08401528060c08401528060e08401528061010084015280610120840152806101408401528061016084015280610180840152806101a0840152806101c08401526101e0830152565b9081602091031261000e5751612412816101f8565b15612a5957565b60405162461bcd60e51b8152602060048201526024808201527f52657365727665206973206e6f7420656e61626c656420666f7220626f72726f60448201526377696e6760e01b6064820152608490fd5b60031115612ab457565b634e487b7160e01b600052602160045260246000fd5b15612ad157565b60405162461bcd60e51b815260206004820152602360248201527f496e76616c696420696e7465726573742072617465206d6f64652073656c65636044820152621d195960ea1b6064820152608490fd5b6003821015612ab45752565b15612b3557565b60405162461bcd60e51b815260206004820152603660248201527f5468657265206973206e6f7420656e6f756768206c697175696469747920617660448201527561696c61626c6520696e20746865207265736572766560501b6064820152608490fd5b91908261010091031261000e5781519160208101519160408201519160608101519160808201519160a08101519160e060c0830151920151612412816101f8565b15612be157565b60405162461bcd60e51b815260206004820152601b60248201527f54686520636f6c6c61746572616c2062616c616e6365206973203000000000006044820152606490fd5b15612c2d57565b60405162461bcd60e51b815260206004820152603f60248201527f54686520626f72726f7765722063616e20616c7265616479206265206c69717560448201527f69646174656420736f2068652063616e6e6f7420626f72726f77206d6f7265006064820152608490fd5b15612c9f57565b60405162461bcd60e51b815260206004820152602160248201527f54686520616d6f756e7420746f20626f72726f7720697320746f6f20736d616c6044820152601b60fa1b6064820152608490fd5b15612cf557565b60405162461bcd60e51b815260206004820152603460248201527f5468657265206973206e6f7420656e6f75676820636f6c6c61746572616c20746044820152736f20636f7665722061206e657720626f72726f7760601b6064820152608490fd5b15612d5e57565b60405162461bcd60e51b815260206004820152603960248201527f557365722063616e6e6f7420626f72726f77207468652073656c65637465642060448201527f616d6f756e742077697468206120737461626c652072617465000000000000006064820152608490fd5b15612dd057565b60405162461bcd60e51b815260206004820152603c60248201527f5573657220697320747279696e6720746f20626f72726f7720746f6f206d756360448201527f68206c6971756964697479206174206120737461626c652072617465000000006064820152608490fd5b919082604091031261000e576020825192015190565b6001600160a01b039182168152911660208201526040810191909152606081019190915260a081019291906003821015612ab45760800152565b50634e487b7160e01b600052601160045260246000fd5b8060001904821181151516612eb5570290565b612ebd612e8b565b0290565b8115612ecb570490565b634e487b7160e01b600052601260045260246000fd5b60405190610100820182811067ffffffffffffffff821117612f32575b6040528160e06000918281528260208201528260408201528260608201528260808201528260a08201528260c08201520152565b612f3a612387565b612efe565b9081606091031261000e578051916040602083015192015190565b15612f6157565b60405162461bcd60e51b815260206004820152602960248201527f546865207573657220646f6573206e6f74206861766520616e7920626f72726f604482015268772070656e64696e6760b81b6064820152608490fd5b15612fbf57565b60a460405162461bcd60e51b815260206004820152604460248201527f546f207265706179206f6e20626568616c66206f6620616e207573657220616e60448201527f206578706c6963697420616d6f756e7420746f207265706179206973206e65656064820152633232b21760e11b6084820152fd5b6001906001198111613046570190565b61304e612e8b565b0190565b81198111613046570190565b1561306557565b60405162461bcd60e51b815260206004820152602860248201527f496e76616c6964206d73672e76616c75652073656e7420666f72207468652072604482015267195c185e5b595b9d60c21b6064820152608490fd5b8181106130c6570390565b6130ce612e8b565b0390565b6130da612ee1565b6036549091906130f2906001600160a01b0316610271565b60408051639fb8afcd60e01b81526001600160a01b038481166004830152871660248201529491939091606086604481885afa9586156137a1575b6000908190829861376c575b5083850197885260208085019182529184528451633faacc6b60e21b81526001600160a01b0387811660048301528a1660248201529180836044818b5afa92831561375f575b600093613740575b5060e0850192835273eeeeeeeeeeeeeeeeeeeeeeeeeeeeeeeeeeeeeeee6001600160a01b03888116918214606088019081529199909691958c91906131ce86511515612f5a565b6131e96000198214938a8515918296613732575b5050612fb8565b6131f68651885190613052565b92608085019380855281613728575b50613720575b50613219611ab78851151590565b8015613715575b6132299061305e565b8151865181111561351e57505061324560a091518651906130bb565b9101818152603654909390613262906001600160a01b0316610271565b91855192818d51935114813b1561000e5760008f916132ca8e9183978f51998a988997889663da12d96f60e01b885260048801949196959260a0949160c0870198600180881b0380921688521660208701526040860152606085015260808401521515910152565b03925af18015613511575b6134fe575b50825190816133e8575b5050603654613306906132ff906001600160a01b0316610271565b9351151590565b600090156133e2575061331a8251346130bb565b955b815196843b1561000e5786516328fcf4d360e01b81526001600160a01b0392909216600483015233602483015260448201979097527fb718f0b14f03d8c3adf35b15e3da52421b042ac879e5a689011a8b1e0036773d966133bd94600091839160649183915af180156133d5575b6133c2575b5051905196519351938493339916974292859094939260609260808301968352602083015260408201520152565b0390a4565b80610cd86133cf9261239e565b3861338f565b6133dd612415565b61338a565b9561331c565b6036546133fd906001600160a01b0316610271565b906134088651151590565b600090156134f8575082915b603554600490839061342e906001600160a01b0316610271565b8b51637744894b60e11b815292839182905afa9283156134eb575b6000936134cc575b5050803b1561000e57885163c7d1423760e01b81526001600160a01b038b81166004830152336024830152604482019590955291909316606482015291600091839160849183915af180156134bf575b6134ac575b806132e4565b80610cd86134b99261239e565b386134a6565b6134c7612415565b6134a1565b6134e3929350803d106103ca576103bb81836123db565b903880613451565b6134f3612415565b613449565b91613414565b80610cd861350b9261239e565b386132da565b613519612415565b6132d5565b9250929350935089969997949751823b1561000e578a5163da12d96f60e01b81526001600160a01b0387811660048301528d1660248201526000604482018190526064820193909352608481019190915260a4810182905291829060c490829084905af18015613708575b6136f5575b506036546135af906135a8906001600160a01b0316610271565b9651151590565b600090156136f0575081515b825160355460049084906135d7906001600160a01b0316610271565b8c51637744894b60e11b815292839182905afa9384156136e3575b6000946136c4575b5050873b1561000e57895163c7d1423760e01b81526001600160a01b0395861660048201528b8616602482015260448101919091529190931660648201527fb718f0b14f03d8c3adf35b15e3da52421b042ac879e5a689011a8b1e0036773d956133bd9360009183916084918391905af180156136b7575b6136a4575b50519251955192839233981696429184606091949392608082019560008352602083015260408201520152565b80610cd86136b19261239e565b38613677565b6136bf612415565b613672565b6136db929450803d106103ca576103bb81836123db565b9138806135fa565b6136eb612415565b6135f2565b6135bb565b80610cd86137029261239e565b3861358e565b613710612415565b613589565b508151341015613220565b82523861320b565b9050811038613205565b9091501633148f8b906131e2565b816137589294503d8511610d5157610d4381836123db565b9138613187565b613767612415565b61317f565b91505061379191965060603d811161379a575b61378981836123db565b810190612f3f565b96919038613139565b503d61377f565b6137a9612415565b61312d565b156137b557565b60405162461bcd60e51b815260206004820152602a60248201527f5573657220646f6573206e6f74206861766520616e79206c69717569646974796044820152690819195c1bdcda5d195960b21b6064820152608490fd5b1561381457565b60405162461bcd60e51b815260206004820152603060248201527f55736572206465706f73697420697320616c7265616479206265696e6720757360448201526f195908185cc818dbdb1b185d195c985b60821b6064820152608490fd5b60209067ffffffffffffffff8111613890575b601f01601f19160190565b613898612387565b613885565b3d156138c8573d906138ae82613872565b916138bc60405193846123db565b82523d6000602084013e565b606090565b156138d457565b60405162461bcd60e51b815260206004820152601760248201527f4c69717569646174696f6e2063616c6c206661696c65640000000000000000006044820152606490fd5b918091926000905b828210613939575011613932575050565b6000910152565b91508060209183015181860152018291613921565b919060408382031261000e5782519260208101519067ffffffffffffffff821161000e570181601f8201121561000e57805161398981613872565b9261399760405194856123db565b8184526020828401011161000e576124129160208085019101613919565b9061304e60209282815194859201613919565b906020916139e181518092818552858086019101613919565b601f01601f1916010190565b9060206124129281815201906139c8565b60405190610140820182811067ffffffffffffffff821117613a5d575b604052816101206000918281528260208201528260408201528260608201528260808201528260a08201528260c08201528260e0820152826101008201520152565b613a65612387565b613a1b565b91908261014091031261000e5781519160208101519160408201519160608101519160808201519160a08101519160c08201519160e081015191610120610100830151920151612412816101f8565b91908261010091031261000e578151916020810151916040820151916060810151613ae3816101e7565b916080820151613af2816101f8565b9160a0810151613b01816101f8565b9160e060c0830151613b12816101f8565b920151612412816101f8565b604d8111613b2d575b600a0a90565b613b35612e8b565b613b27565b60405190613b47826123bf565b603382527202fb932b9b2b93b32aa37a137b93937bb901d1606d1b6040837f2020203d3e204c42504d203a72657365727665446563696d616c7320666f722060208201520152565b60405190613b9c826123bf565b6029825268030ba32b930b6101d160bd1b6040837f2020203d3e204c42504d203a205573657220417661696c61626c6520436f6c6c60208201520152565b60405190613be7826123bf565b603a82527f6f72726f77416d6f756e744554482c20626f72726f774c5456200000000000006040837f2020203d3e204c42504d203a205f616d6f756e742c207265717565737465644260208201520152565b60405190613c46826123bf565b602e82526d037bb90283937b837b9b0b6101d160951b6040837f2020203d3e204c42504d203a20455448204e656564656420666f7220426f727260208201520152565b60405190613c96826123bf565b6035825274037b9102137b93937bb90283937b837b9b0b6101d1605d1b6040837f2020203d3e204c42504d203a20436f6c6c61746572616c204e6565646564206660208201520152565b15613ce757565b60405162461bcd60e51b815260206004820152603d60248201527f5468657265206973206e6f7420656e6f75676820636f6c6c61746572616c207460448201527f6f20636f7665722061206e657720626f72726f772070726f706f73616c0000006064820152608490fd5b15613d5957565b60405162461bcd60e51b815260206004820152601b60248201527f496e76616c696420496e746572657374205261746520496e70757400000000006044820152606490fd5b15613da557565b60405162461bcd60e51b8152602060048201526014602482015273125b9d985b1a5908111d594811185d194814d95d60621b6044820152606490fd5b6001906000198114613046570190565b90610120600891613e17613e058251151590565b859060ff801983541691151516179055565b6020810151613e4b906001600160a01b03168554610100600160a81b03191660089190911b610100600160a81b0316178555565b60408101516001850180546001600160a01b039283166001600160a01b03199182161790915560608301516002870155608083015160038701805491909316911617905560a0810151600485015560c0810151600585015560e0810151600685015561010081015160078501550151910155565b906008613eca6129ab565b92613ef18154613edf60ff8216879015159052565b831c6001600160a01b03166020860152565b60018101546001600160a01b031660408501526002810154606085015260038101546001600160a01b03166080850152600481015460a0850152600581015460c0850152600681015460e085015260078101546101008501520154610120830152565b90613f5d612669565b613f66826143ef565b613f6f826144af565b613f7881614570565b603754613f8d906001600160a01b0316610271565b604080516328dd2d0160e01b81526001600160a01b0385166004820152336024820152909291613feb918391613fe49190610140908190839060449082905afa91821561157a5760009182936115505750506130bb565b10156141cf565b614002610e0d85600052603a602052604060002090565b6036549091906140959061401e906001600160a01b0316610271565b848360076140368a600052603a602052604060002090565b01548251630deb1bf960e21b81526001600160a01b038a8116600483015288166024820152604481019290925260648201526001608482015291829060a49082906000905af19081156141c2575b6000916141a3575b5061125661424d565b6036546140aa906001600160a01b0316610271565b91823b1561000e57835163fa93b2a560e01b81526001600160a01b0386811660048301529182166024820152604481018390527fc7a916d2c9b3bd13bee6b83d7868132ae265bb8b1afb202282f2fa94054c4151936000908290606490829084905af18015614196575b614183575b5061413b61413187600052603a602052604060002090565b805460ff19169055565b614176600761415488600052603a602052604060002090565b0154945192835260208301949094524260408301523394169281906060820190565b0390a46125ae6001600055565b80610cd86141909261239e565b38614119565b61419e612415565b614114565b6141ba9150853d8711611d4557611d3681836123db565b90503861408c565b6141ca612415565b614084565b156141d657565b60a460405162461bcd60e51b815260206004820152604460248201527f4c656e64657220646f65736e2774206861766520656e6f75676820526573657260448201527f76652042616c616e636520746f2041636365707420426f72726f772050726f706064820152631bdcd85b60e21b6084820152fd5b6040519061425a826123bf565b602d82526c01024b731b932b0b9b2b2101d1609d1b6040837f2020203d3e204c42504d203a205573657220426f72726f772042616c616e636560208201520152565b156142a357565b60405162461bcd60e51b815260206004820152602660248201527f456e6420496e646578206f76657220626f72726f7750726f706f73616c4c69736044820152651d10dbdd5b9d60d21b6064820152608490fd5b156142fe57565b60405162461bcd60e51b815260206004820152602260248201527f4d6178696d756d203230303020697465726174696f6e207065722072657175656044820152611cdd60f21b6064820152608490fd5b60209067ffffffffffffffff8111614368575b60051b0190565b614370612387565b614361565b9061437f8261434e565b61438c60405191826123db565b828152809261439d601f199161434e565b019060005b8281106143ae57505050565b6020906143b96139fe565b828285010152016143a2565b80518210156143d95760209160051b010190565b634e487b7160e01b600052603260045260246000fd5b603654604051630283aeb760e11b81526001600160a01b0392831660048201529160209183916024918391165afa9081156144a2575b600091614484575b501561443557565b60405162461bcd60e51b815260206004820152602160248201527f416374696f6e20726571756972657320616e20616374697665207265736572766044820152606560f81b6064820152608490fd5b61449c915060203d8111610d1757610d0881836123db565b3861442d565b6144aa612415565b614425565b603654604051634a08accb60e01b81526001600160a01b0392831660048201529160209183916024918391165afa908115614563575b600091614545575b506144f457565b60405162461bcd60e51b8152602060048201526024808201527f416374696f6e20726571756972657320616e20756e667265657a6564207265736044820152636572766560e01b6064820152608490fd5b61455d915060203d8111610d1757610d0881836123db565b386144ed565b61456b612415565b6144e5565b1561457757565b60405162461bcd60e51b815260206004820152601d60248201527f416d6f756e74206d7573742062652067726561746572207468616e20300000006044820152606490fd5b6145ff6145eb916125ae93604051938492632d839cb360e21b60208501526040602485015260648401906139c8565b90604483015203601f1981018352826123db565b600080916020815191016a636f6e736f6c652e6c6f675afa50565b6145ff916125ae9461464a9460405195869463a7a8785360e01b60208701526080602487015260a48601906139c8565b9260448501526064840152608483015203601f1981018352826123db56fea264697066735822122054b2d233771657b35951e035c38a6ede51b6fffd40a4f71c44f6afbc42cab25a64736f6c634300080d0033",
  "linkReferences": {},
  "deployedLinkReferences": {}
}