{
  "_format": "hh-sol-artifact-1",
  "contractName": "LendingBoardProposeMode",
  "sourceName": "contracts/lendingboard/LendingBoardProposeMode.sol",
  "abi": [
    {
      "anonymous": false,
      "inputs": [
        {
          "indexed": true,
          "internalType": "address",
          "name": "_reserve",
          "type": "address"
        },
        {
          "indexed": true,
          "internalType": "address",
          "name": "_user",
          "type": "address"
        },
        {
          "indexed": false,
          "internalType": "uint256",
          "name": "_amount",
          "type": "uint256"
        },
        {
          "indexed": false,
          "internalType": "uint256",
          "name": "_borrowRateMode",
          "type": "uint256"
        },
        {
          "indexed": false,
          "internalType": "uint256",
          "name": "_borrowRate",
          "type": "uint256"
        },
        {
          "indexed": false,
          "internalType": "uint256",
          "name": "_originationFee",
          "type": "uint256"
        },
        {
          "indexed": false,
          "internalType": "uint256",
          "name": "_borrowBalanceIncrease",
          "type": "uint256"
        },
        {
          "indexed": false,
          "internalType": "uint256",
          "name": "_timestamp",
          "type": "uint256"
        }
      ],
      "name": "Borrow",
      "type": "event"
    },
    {
      "anonymous": false,
      "inputs": [
        {
          "indexed": true,
          "internalType": "address",
          "name": "_reserveToLend",
          "type": "address"
        },
        {
          "indexed": true,
          "internalType": "address",
          "name": "_lender",
          "type": "address"
        },
        {
          "indexed": false,
          "internalType": "address",
          "name": "_borrower",
          "type": "address"
        },
        {
          "indexed": true,
          "internalType": "uint256",
          "name": "_proposalId",
          "type": "uint256"
        },
        {
          "indexed": false,
          "internalType": "uint256",
          "name": "_amount",
          "type": "uint256"
        },
        {
          "indexed": false,
          "internalType": "uint256",
          "name": "_originationFee",
          "type": "uint256"
        },
        {
          "indexed": false,
          "internalType": "uint256",
          "name": "_timestamp",
          "type": "uint256"
        }
      ],
      "name": "BorrowAccepted",
      "type": "event"
    },
    {
      "anonymous": false,
      "inputs": [
        {
          "indexed": true,
          "internalType": "address",
          "name": "_reserveToBorrow",
          "type": "address"
        },
        {
          "indexed": true,
          "internalType": "address",
          "name": "_borrowProposer",
          "type": "address"
        },
        {
          "indexed": true,
          "internalType": "uint256",
          "name": "_proposalId",
          "type": "uint256"
        },
        {
          "indexed": false,
          "internalType": "uint256",
          "name": "_amount",
          "type": "uint256"
        },
        {
          "indexed": false,
          "internalType": "address",
          "name": "_reserveForCollateral",
          "type": "address"
        },
        {
          "indexed": false,
          "internalType": "uint256",
          "name": "_interestRate",
          "type": "uint256"
        },
        {
          "indexed": false,
          "internalType": "uint256",
          "name": "_originationFee",
          "type": "uint256"
        },
        {
          "indexed": false,
          "internalType": "uint256",
          "name": "_dueDate",
          "type": "uint256"
        },
        {
          "indexed": false,
          "internalType": "uint256",
          "name": "_timestamp",
          "type": "uint256"
        }
      ],
      "name": "BorrowProposed",
      "type": "event"
    },
    {
      "anonymous": false,
      "inputs": [
        {
          "indexed": true,
          "internalType": "address",
          "name": "_reserve",
          "type": "address"
        },
        {
          "indexed": true,
          "internalType": "address",
          "name": "_user",
          "type": "address"
        },
        {
          "indexed": false,
          "internalType": "uint256",
          "name": "_amount",
          "type": "uint256"
        },
        {
          "indexed": false,
          "internalType": "uint256",
          "name": "_timestamp",
          "type": "uint256"
        }
      ],
      "name": "Deposit",
      "type": "event"
    },
    {
      "anonymous": false,
      "inputs": [
        {
          "indexed": true,
          "internalType": "address",
          "name": "_reserveToLend",
          "type": "address"
        },
        {
          "indexed": true,
          "internalType": "address",
          "name": "_lender",
          "type": "address"
        },
        {
          "indexed": false,
          "internalType": "address",
          "name": "_borrower",
          "type": "address"
        },
        {
          "indexed": true,
          "internalType": "uint256",
          "name": "_proposalId",
          "type": "uint256"
        },
        {
          "indexed": false,
          "internalType": "uint256",
          "name": "_amount",
          "type": "uint256"
        },
        {
          "indexed": false,
          "internalType": "uint256",
          "name": "_originationFee",
          "type": "uint256"
        },
        {
          "indexed": false,
          "internalType": "uint256",
          "name": "_timestamp",
          "type": "uint256"
        }
      ],
      "name": "LendAccepted",
      "type": "event"
    },
    {
      "anonymous": false,
      "inputs": [
        {
          "indexed": true,
          "internalType": "address",
          "name": "_reserveToLend",
          "type": "address"
        },
        {
          "indexed": true,
          "internalType": "address",
          "name": "_lendProposer",
          "type": "address"
        },
        {
          "indexed": true,
          "internalType": "uint256",
          "name": "_proposalId",
          "type": "uint256"
        },
        {
          "indexed": false,
          "internalType": "uint256",
          "name": "_amount",
          "type": "uint256"
        },
        {
          "indexed": false,
          "internalType": "uint256",
          "name": "_interestRate",
          "type": "uint256"
        },
        {
          "indexed": false,
          "internalType": "uint256",
          "name": "_originationFee",
          "type": "uint256"
        },
        {
          "indexed": false,
          "internalType": "uint256",
          "name": "_dueDate",
          "type": "uint256"
        },
        {
          "indexed": false,
          "internalType": "uint256",
          "name": "_proposalTimeStamp",
          "type": "uint256"
        }
      ],
      "name": "LendProposed",
      "type": "event"
    },
    {
      "anonymous": false,
      "inputs": [
        {
          "indexed": true,
          "internalType": "address",
          "name": "_collateral",
          "type": "address"
        },
        {
          "indexed": true,
          "internalType": "address",
          "name": "_reserve",
          "type": "address"
        },
        {
          "indexed": true,
          "internalType": "address",
          "name": "_user",
          "type": "address"
        },
        {
          "indexed": false,
          "internalType": "uint256",
          "name": "_purchaseAmount",
          "type": "uint256"
        },
        {
          "indexed": false,
          "internalType": "uint256",
          "name": "_liquidatedCollateralAmount",
          "type": "uint256"
        },
        {
          "indexed": false,
          "internalType": "uint256",
          "name": "_accruedBorrowInterest",
          "type": "uint256"
        },
        {
          "indexed": false,
          "internalType": "address",
          "name": "_liquidator",
          "type": "address"
        },
        {
          "indexed": false,
          "internalType": "bool",
          "name": "_receiveAToken",
          "type": "bool"
        },
        {
          "indexed": false,
          "internalType": "uint256",
          "name": "_timestamp",
          "type": "uint256"
        }
      ],
      "name": "LiquidationCall",
      "type": "event"
    },
    {
      "anonymous": false,
      "inputs": [
        {
          "indexed": true,
          "internalType": "address",
          "name": "_collateral",
          "type": "address"
        },
        {
          "indexed": true,
          "internalType": "address",
          "name": "_reserve",
          "type": "address"
        },
        {
          "indexed": true,
          "internalType": "address",
          "name": "_user",
          "type": "address"
        },
        {
          "indexed": false,
          "internalType": "uint256",
          "name": "_feeLiquidated",
          "type": "uint256"
        },
        {
          "indexed": false,
          "internalType": "uint256",
          "name": "_liquidatedCollateralForFee",
          "type": "uint256"
        },
        {
          "indexed": false,
          "internalType": "uint256",
          "name": "_timestamp",
          "type": "uint256"
        }
      ],
      "name": "OriginationFeeLiquidated",
      "type": "event"
    },
    {
      "anonymous": false,
      "inputs": [
        {
          "indexed": true,
          "internalType": "address",
          "name": "_reserveToReceive",
          "type": "address"
        },
        {
          "indexed": true,
          "internalType": "address",
          "name": "_lender",
          "type": "address"
        },
        {
          "indexed": false,
          "internalType": "address",
          "name": "_reserveForCollateral",
          "type": "address"
        },
        {
          "indexed": false,
          "internalType": "address",
          "name": "_borrower",
          "type": "address"
        },
        {
          "indexed": true,
          "internalType": "uint256",
          "name": "_proposalId",
          "type": "uint256"
        },
        {
          "indexed": false,
          "internalType": "uint256",
          "name": "_amount",
          "type": "uint256"
        },
        {
          "indexed": false,
          "internalType": "bool",
          "name": "_isBorrowProposal",
          "type": "bool"
        },
        {
          "indexed": false,
          "internalType": "uint256",
          "name": "_originationFee",
          "type": "uint256"
        },
        {
          "indexed": false,
          "internalType": "uint256",
          "name": "_timestamp",
          "type": "uint256"
        }
      ],
      "name": "ProposalAccepted",
      "type": "event"
    },
    {
      "anonymous": false,
      "inputs": [
        {
          "indexed": true,
          "internalType": "address",
          "name": "_reserve",
          "type": "address"
        },
        {
          "indexed": true,
          "internalType": "address",
          "name": "_user",
          "type": "address"
        },
        {
          "indexed": false,
          "internalType": "uint256",
          "name": "_amount",
          "type": "uint256"
        },
        {
          "indexed": false,
          "internalType": "uint256",
          "name": "_timestamp",
          "type": "uint256"
        }
      ],
      "name": "RedeemUnderlying",
      "type": "event"
    },
    {
      "anonymous": false,
      "inputs": [
        {
          "indexed": true,
          "internalType": "address",
          "name": "_reserve",
          "type": "address"
        },
        {
          "indexed": true,
          "internalType": "address",
          "name": "_user",
          "type": "address"
        },
        {
          "indexed": true,
          "internalType": "address",
          "name": "_repayer",
          "type": "address"
        },
        {
          "indexed": false,
          "internalType": "uint256",
          "name": "_amountMinusFees",
          "type": "uint256"
        },
        {
          "indexed": false,
          "internalType": "uint256",
          "name": "_fees",
          "type": "uint256"
        },
        {
          "indexed": false,
          "internalType": "uint256",
          "name": "_borrowBalanceIncrease",
          "type": "uint256"
        },
        {
          "indexed": false,
          "internalType": "uint256",
          "name": "_timestamp",
          "type": "uint256"
        }
      ],
      "name": "Repay",
      "type": "event"
    },
    {
      "anonymous": false,
      "inputs": [
        {
          "indexed": true,
          "internalType": "address",
          "name": "_reserve",
          "type": "address"
        },
        {
          "indexed": true,
          "internalType": "address",
          "name": "_user",
          "type": "address"
        }
      ],
      "name": "ReserveUsedAsCollateralDisabled",
      "type": "event"
    },
    {
      "anonymous": false,
      "inputs": [
        {
          "indexed": true,
          "internalType": "address",
          "name": "_reserve",
          "type": "address"
        },
        {
          "indexed": true,
          "internalType": "address",
          "name": "_user",
          "type": "address"
        }
      ],
      "name": "ReserveUsedAsCollateralEnabled",
      "type": "event"
    },
    {
      "inputs": [],
      "name": "LENDINGPOOL_REVISION",
      "outputs": [
        {
          "internalType": "uint256",
          "name": "",
          "type": "uint256"
        }
      ],
      "stateMutability": "view",
      "type": "function"
    },
    {
      "inputs": [],
      "name": "UINT_MAX_VALUE",
      "outputs": [
        {
          "internalType": "uint256",
          "name": "",
          "type": "uint256"
        }
      ],
      "stateMutability": "view",
      "type": "function"
    },
    {
      "inputs": [],
      "name": "addressesProvider",
      "outputs": [
        {
          "internalType": "contract LendingBoardAddressesProvider",
          "name": "",
          "type": "address"
        }
      ],
      "stateMutability": "view",
      "type": "function"
    },
    {
      "inputs": [
        {
          "internalType": "address",
          "name": "_reserve",
          "type": "address"
        },
        {
          "internalType": "uint256",
          "name": "_amount",
          "type": "uint256"
        },
        {
          "internalType": "uint256",
          "name": "_interestRateMode",
          "type": "uint256"
        }
      ],
      "name": "borrow",
      "outputs": [],
      "stateMutability": "nonpayable",
      "type": "function"
    },
    {
      "inputs": [
        {
          "internalType": "address",
          "name": "_reserveToBorrow",
          "type": "address"
        },
        {
          "internalType": "uint256",
          "name": "_amount",
          "type": "uint256"
        },
        {
          "internalType": "address",
          "name": "_reserveForCollateral",
          "type": "address"
        },
        {
          "internalType": "uint256",
          "name": "_interestRate",
          "type": "uint256"
        },
        {
          "internalType": "uint256",
          "name": "_dueDate",
          "type": "uint256"
        }
      ],
      "name": "borrowProposal",
      "outputs": [],
      "stateMutability": "nonpayable",
      "type": "function"
    },
    {
      "inputs": [
        {
          "internalType": "uint256",
          "name": "_proposalId",
          "type": "uint256"
        }
      ],
      "name": "borrowProposalAccept",
      "outputs": [],
      "stateMutability": "nonpayable",
      "type": "function"
    },
    {
      "inputs": [],
      "name": "core",
      "outputs": [
        {
          "internalType": "contract LendingBoardCore",
          "name": "",
          "type": "address"
        }
      ],
      "stateMutability": "view",
      "type": "function"
    },
    {
      "inputs": [],
      "name": "dataProvider",
      "outputs": [
        {
          "internalType": "contract LendingBoardDataProvider",
          "name": "",
          "type": "address"
        }
      ],
      "stateMutability": "view",
      "type": "function"
    },
    {
      "inputs": [
        {
          "internalType": "address",
          "name": "_reserve",
          "type": "address"
        },
        {
          "internalType": "uint256",
          "name": "_amount",
          "type": "uint256"
        },
        {
          "internalType": "uint16",
          "name": "_referralCode",
          "type": "uint16"
        }
      ],
      "name": "deposit",
      "outputs": [],
      "stateMutability": "payable",
      "type": "function"
    },
    {
      "inputs": [
        {
          "internalType": "uint256",
          "name": "_proposalId",
          "type": "uint256"
        }
      ],
      "name": "getBorrowProposal",
      "outputs": [
        {
          "internalType": "bool",
          "name": "active",
          "type": "bool"
        },
        {
          "internalType": "address",
          "name": "borrower",
          "type": "address"
        },
        {
          "internalType": "address",
          "name": "reserveToBorrow",
          "type": "address"
        },
        {
          "internalType": "uint256",
          "name": "amount",
          "type": "uint256"
        },
        {
          "internalType": "address",
          "name": "reserveForCollateral",
          "type": "address"
        },
        {
          "internalType": "uint256",
          "name": "interestRate",
          "type": "uint256"
        },
        {
          "internalType": "uint256",
          "name": "dueDate",
          "type": "uint256"
        },
        {
          "internalType": "uint256",
          "name": "proposalDate",
          "type": "uint256"
        },
        {
          "internalType": "uint256",
          "name": "ltv",
          "type": "uint256"
        }
      ],
      "stateMutability": "view",
      "type": "function"
    },
    {
      "inputs": [
        {
          "internalType": "uint256",
          "name": "_startIdx",
          "type": "uint256"
        },
        {
          "internalType": "uint256",
          "name": "_endIdx",
          "type": "uint256"
        }
      ],
      "name": "getBorrowProposalList",
      "outputs": [
        {
          "components": [
            {
              "internalType": "bool",
              "name": "active",
              "type": "bool"
            },
            {
              "internalType": "address",
              "name": "proposer",
              "type": "address"
            },
            {
              "internalType": "address",
              "name": "reserveToReceive",
              "type": "address"
            },
            {
              "internalType": "uint256",
              "name": "amount",
              "type": "uint256"
            },
            {
              "internalType": "address",
              "name": "reserveForCollateral",
              "type": "address"
            },
            {
              "internalType": "uint256",
              "name": "interestRate",
              "type": "uint256"
            },
            {
              "internalType": "uint256",
              "name": "dueDate",
              "type": "uint256"
            },
            {
              "internalType": "uint256",
              "name": "proposalDate",
              "type": "uint256"
            },
            {
              "internalType": "uint256",
              "name": "serviceFee",
              "type": "uint256"
            },
            {
              "internalType": "uint256",
              "name": "ltv",
              "type": "uint256"
            }
          ],
          "internalType": "struct CoreLibrary.ProposalStructure[]",
          "name": "result",
          "type": "tuple[]"
        }
      ],
      "stateMutability": "view",
      "type": "function"
    },
    {
      "inputs": [
        {
          "internalType": "uint256",
          "name": "_proposalId",
          "type": "uint256"
        }
      ],
      "name": "getLendProposal",
      "outputs": [
        {
          "internalType": "bool",
          "name": "active",
          "type": "bool"
        },
        {
          "internalType": "address",
          "name": "lender",
          "type": "address"
        },
        {
          "internalType": "address",
          "name": "reserveToLend",
          "type": "address"
        },
        {
          "internalType": "uint256",
          "name": "amount",
          "type": "uint256"
        },
        {
          "internalType": "address",
          "name": "reserveForCollateral",
          "type": "address"
        },
        {
          "internalType": "uint256",
          "name": "interestRate",
          "type": "uint256"
        },
        {
          "internalType": "uint256",
          "name": "dueDate",
          "type": "uint256"
        },
        {
          "internalType": "uint256",
          "name": "proposalDate",
          "type": "uint256"
        },
        {
          "internalType": "uint256",
          "name": "ltv",
          "type": "uint256"
        }
      ],
      "stateMutability": "view",
      "type": "function"
    },
    {
      "inputs": [
        {
          "internalType": "uint256",
          "name": "startIdx",
          "type": "uint256"
        },
        {
          "internalType": "uint256",
          "name": "endIdx",
          "type": "uint256"
        }
      ],
      "name": "getLendProposalList",
      "outputs": [
        {
          "components": [
            {
              "internalType": "bool",
              "name": "active",
              "type": "bool"
            },
            {
              "internalType": "address",
              "name": "proposer",
              "type": "address"
            },
            {
              "internalType": "address",
              "name": "reserveToReceive",
              "type": "address"
            },
            {
              "internalType": "uint256",
              "name": "amount",
              "type": "uint256"
            },
            {
              "internalType": "address",
              "name": "reserveForCollateral",
              "type": "address"
            },
            {
              "internalType": "uint256",
              "name": "interestRate",
              "type": "uint256"
            },
            {
              "internalType": "uint256",
              "name": "dueDate",
              "type": "uint256"
            },
            {
              "internalType": "uint256",
              "name": "proposalDate",
              "type": "uint256"
            },
            {
              "internalType": "uint256",
              "name": "serviceFee",
              "type": "uint256"
            },
            {
              "internalType": "uint256",
              "name": "ltv",
              "type": "uint256"
            }
          ],
          "internalType": "struct CoreLibrary.ProposalStructure[]",
          "name": "result",
          "type": "tuple[]"
        }
      ],
      "stateMutability": "view",
      "type": "function"
    },
    {
      "inputs": [
        {
          "internalType": "address",
          "name": "_reserve",
          "type": "address"
        }
      ],
      "name": "getReserveConfigurationData",
      "outputs": [
        {
          "internalType": "uint256",
          "name": "ltv",
          "type": "uint256"
        },
        {
          "internalType": "uint256",
          "name": "liquidationThreshold",
          "type": "uint256"
        },
        {
          "internalType": "uint256",
          "name": "liquidationBonus",
          "type": "uint256"
        },
        {
          "internalType": "address",
          "name": "interestRateStrategyAddress",
          "type": "address"
        },
        {
          "internalType": "bool",
          "name": "usageAsCollateralEnabled",
          "type": "bool"
        },
        {
          "internalType": "bool",
          "name": "borrowingEnabled",
          "type": "bool"
        },
        {
          "internalType": "bool",
          "name": "stableBorrowRateEnabled",
          "type": "bool"
        },
        {
          "internalType": "bool",
          "name": "isActive",
          "type": "bool"
        }
      ],
      "stateMutability": "view",
      "type": "function"
    },
    {
      "inputs": [
        {
          "internalType": "address",
          "name": "_reserve",
          "type": "address"
        }
      ],
      "name": "getReserveData",
      "outputs": [
        {
          "internalType": "uint256",
          "name": "totalLiquidity",
          "type": "uint256"
        },
        {
          "internalType": "uint256",
          "name": "availableLiquidity",
          "type": "uint256"
        },
        {
          "internalType": "uint256",
          "name": "totalBorrowsStable",
          "type": "uint256"
        },
        {
          "internalType": "uint256",
          "name": "totalBorrowsVariable",
          "type": "uint256"
        },
        {
          "internalType": "uint256",
          "name": "liquidityRate",
          "type": "uint256"
        },
        {
          "internalType": "uint256",
          "name": "variableBorrowRate",
          "type": "uint256"
        },
        {
          "internalType": "uint256",
          "name": "stableBorrowRate",
          "type": "uint256"
        },
        {
          "internalType": "uint256",
          "name": "averageStableBorrowRate",
          "type": "uint256"
        },
        {
          "internalType": "uint256",
          "name": "utilizationRate",
          "type": "uint256"
        },
        {
          "internalType": "uint256",
          "name": "liquidityIndex",
          "type": "uint256"
        },
        {
          "internalType": "uint256",
          "name": "variableBorrowIndex",
          "type": "uint256"
        },
        {
          "internalType": "address",
          "name": "aTokenAddress",
          "type": "address"
        },
        {
          "internalType": "uint40",
          "name": "lastUpdateTimestamp",
          "type": "uint40"
        }
      ],
      "stateMutability": "view",
      "type": "function"
    },
    {
      "inputs": [],
      "name": "getReserves",
      "outputs": [
        {
          "internalType": "address[]",
          "name": "",
          "type": "address[]"
        }
      ],
      "stateMutability": "view",
      "type": "function"
    },
    {
      "inputs": [
        {
          "internalType": "address",
          "name": "_user",
          "type": "address"
        }
      ],
      "name": "getUserAccountData",
      "outputs": [
        {
          "internalType": "uint256",
          "name": "totalLiquidityETH",
          "type": "uint256"
        },
        {
          "internalType": "uint256",
          "name": "totalCollateralETH",
          "type": "uint256"
        },
        {
          "internalType": "uint256",
          "name": "totalBorrowsETH",
          "type": "uint256"
        },
        {
          "internalType": "uint256",
          "name": "totalFeesETH",
          "type": "uint256"
        },
        {
          "internalType": "uint256",
          "name": "availableBorrowsETH",
          "type": "uint256"
        },
        {
          "internalType": "uint256",
          "name": "currentLiquidationThreshold",
          "type": "uint256"
        },
        {
          "internalType": "uint256",
          "name": "ltv",
          "type": "uint256"
        },
        {
          "internalType": "uint256",
          "name": "healthFactor",
          "type": "uint256"
        }
      ],
      "stateMutability": "view",
      "type": "function"
    },
    {
      "inputs": [
        {
          "internalType": "address",
          "name": "_reserve",
          "type": "address"
        },
        {
          "internalType": "address",
          "name": "_user",
          "type": "address"
        }
      ],
      "name": "getUserReserveBalance",
      "outputs": [
        {
          "internalType": "uint256",
          "name": "",
          "type": "uint256"
        }
      ],
      "stateMutability": "view",
      "type": "function"
    },
    {
      "inputs": [
        {
          "internalType": "address",
          "name": "_reserve",
          "type": "address"
        },
        {
          "internalType": "address",
          "name": "_user",
          "type": "address"
        }
      ],
      "name": "getUserReserveData",
      "outputs": [
        {
          "internalType": "uint256",
          "name": "currentATokenBalance",
          "type": "uint256"
        },
        {
          "internalType": "uint256",
          "name": "currentBorrowBalance",
          "type": "uint256"
        },
        {
          "internalType": "uint256",
          "name": "principalBorrowBalance",
          "type": "uint256"
        },
        {
          "internalType": "uint256",
          "name": "borrowRateMode",
          "type": "uint256"
        },
        {
          "internalType": "uint256",
          "name": "borrowRate",
          "type": "uint256"
        },
        {
          "internalType": "uint256",
          "name": "liquidityRate",
          "type": "uint256"
        },
        {
          "internalType": "uint256",
          "name": "originationFee",
          "type": "uint256"
        },
        {
          "internalType": "uint256",
          "name": "variableBorrowIndex",
          "type": "uint256"
        },
        {
          "internalType": "uint256",
          "name": "lastUpdateTimestamp",
          "type": "uint256"
        },
        {
          "internalType": "bool",
          "name": "usageAsCollateralEnabled",
          "type": "bool"
        }
      ],
      "stateMutability": "view",
      "type": "function"
    },
    {
      "inputs": [
        {
          "internalType": "contract LendingBoardAddressesProvider",
          "name": "_addressesProvider",
          "type": "address"
        }
      ],
      "name": "initialize",
      "outputs": [],
      "stateMutability": "nonpayable",
      "type": "function"
    },
    {
      "inputs": [
        {
          "internalType": "address",
          "name": "_reserveToLend",
          "type": "address"
        },
        {
          "internalType": "uint256",
          "name": "_amount",
          "type": "uint256"
        },
        {
          "internalType": "address",
          "name": "_reserveForCollateral",
          "type": "address"
        },
        {
          "internalType": "uint256",
          "name": "_interestRate",
          "type": "uint256"
        },
        {
          "internalType": "uint256",
          "name": "_dueDate",
          "type": "uint256"
        }
      ],
      "name": "lendProposal",
      "outputs": [],
      "stateMutability": "nonpayable",
      "type": "function"
    },
    {
      "inputs": [
        {
          "internalType": "uint256",
          "name": "_proposalId",
          "type": "uint256"
        }
      ],
      "name": "lendProposalAccept",
      "outputs": [],
      "stateMutability": "nonpayable",
      "type": "function"
    },
    {
      "inputs": [
        {
          "internalType": "address",
          "name": "_collateral",
          "type": "address"
        },
        {
          "internalType": "address",
          "name": "_reserve",
          "type": "address"
        },
        {
          "internalType": "address",
          "name": "_user",
          "type": "address"
        },
        {
          "internalType": "uint256",
          "name": "_purchaseAmount",
          "type": "uint256"
        },
        {
          "internalType": "bool",
          "name": "_receiveAToken",
          "type": "bool"
        }
      ],
      "name": "liquidationCall",
      "outputs": [],
      "stateMutability": "payable",
      "type": "function"
    },
    {
      "inputs": [],
      "name": "parametersProvider",
      "outputs": [
        {
          "internalType": "contract LendingBoardParametersProvider",
          "name": "",
          "type": "address"
        }
      ],
      "stateMutability": "view",
      "type": "function"
    },
    {
      "inputs": [
        {
          "internalType": "address",
          "name": "_reserve",
          "type": "address"
        },
        {
          "internalType": "address payable",
          "name": "_user",
          "type": "address"
        },
        {
          "internalType": "uint256",
          "name": "_amount",
          "type": "uint256"
        },
        {
          "internalType": "uint256",
          "name": "_aTokenBalanceAfterRedeem",
          "type": "uint256"
        }
      ],
      "name": "redeemUnderlying",
      "outputs": [],
      "stateMutability": "nonpayable",
      "type": "function"
    },
    {
      "inputs": [
        {
          "internalType": "address",
          "name": "_reserve",
          "type": "address"
        },
        {
          "internalType": "uint256",
          "name": "_amount",
          "type": "uint256"
        },
        {
          "internalType": "address payable",
          "name": "_onBehalfOf",
          "type": "address"
        }
      ],
      "name": "repay",
      "outputs": [],
      "stateMutability": "payable",
      "type": "function"
    },
    {
      "inputs": [
        {
          "internalType": "address",
          "name": "_reserve",
          "type": "address"
        },
        {
          "internalType": "bool",
          "name": "_useAsCollateral",
          "type": "bool"
        }
      ],
      "name": "setUserUseReserveAsCollateral",
      "outputs": [],
      "stateMutability": "nonpayable",
      "type": "function"
    }
  ],
  "bytecode": "0x608080604052346100215760016000556000600155615b049081620000278239f35b600080fdfe60806040526004361015610013575b600080fd5b60003560e01c8062a718a91461022e5780630902f1ac1461022557806328dd2d011461021c57806335ea6a75146102135780633815d34c1461020a5780633cedf2df146102015780633e150141146101f857806348f163ea146101ef57806358707e06146101e65780635a3b74b9146101dd5780635ceae9c4146101d457806379cc211e146101cb5780638afaff02146101c25780638fabf76d146101b95780639895e3d8146101b05780639a91fe9b146101a7578063a429bcaa1461019e578063ab1e8a2114610195578063b334ed861461018c578063bf92857c14610183578063c0c8ab651461017a578063c1bce0b714610171578063c4d66de814610168578063c72c4d101461015f578063d0fc81d214610156578063d2d0e0661461014d5763f2f4eb261461014557600080fd5b61000e612d5b565b5061000e612a7a565b5061000e612a5c565b5061000e612a32565b5061000e612943565b5061000e6122f0565b5061000e612262565b5061000e61213e565b5061000e612114565b5061000e612024565b5061000e611ee8565b5061000e611926565b5061000e611867565b5061000e6111b9565b5061000e611168565b5061000e610fbe565b5061000e610f6c565b5061000e610cfd565b5061000e610cd3565b5061000e610bd0565b5061000e610ac5565b5061000e610aa3565b5061000e610918565b5061000e6106a1565b5061000e6105b5565b5061000e61047d565b5061000e610252565b6001600160a01b0381160361000e57565b8015150361000e57565b5060a036600319011261000e5760043561026b81610237565b60243561027781610237565b61037760008060443561028981610237565b6084359461029686610248565b61029e613087565b6102a781615835565b6102b087615835565b6035546102cd906001600160a01b03165b6001600160a01b031690565b91604051968793632bd7cfb760e11b855284600460209a8b935afa938415610421575b85946103ee575b5060405162a718a960e01b8982019081526001600160a01b039a8b166024830152938a166044820152989091166064808a0191909152356084890152151560a48801528660c481015b0396610354601f1998898101835282612df2565b51915af46103696103636142bb565b916142eb565b82808251830101910161436c565b90610388576103866001600055565b005b6103ea926103c0926103c66103d29360405195869384016014907302634b8bab4b230ba34b7b7103330b4b632b21d160651b81520190565b906143d2565b03908101835282612df2565b60405162461bcd60e51b81529182916004830161440a565b0390fd5b61034091945061041390893d8b1161041a575b61040b8183612df2565b810190612e13565b93906102f7565b503d610401565b610429612e28565b6102f0565b600091031261000e57565b6020908160408183019282815285518094520193019160005b828110610460575050505090565b83516001600160a01b031685529381019392810192600101610452565b503461000e5760008060031936011261057557603654604051630240bc6b60e21b815291908190839060049082906001600160a01b03165afa908115610580575b80916104d7575b604051806104d38482610439565b0390f35b90503d8082843e6104e88184612df2565b82016020928381830312610578578051906001600160401b03821161057c570181601f820112156105785780519061051f82614b26565b9361052d6040519586612df2565b828552858086019360051b83010193841161057557508401905b82821061055c575050506104d39150386104c5565b848091835161056a81610237565b815201910190610547565b80fd5b8280fd5b8380fd5b610588612e28565b6104be565b604090600319011261000e576004356105a581610237565b906024356105b281610237565b90565b503461000e576105c43661058d565b6037546040516328dd2d0160e01b81526001600160a01b039384166004820152918316602483015261014092839183916044918391165afa8015610694575b6000918283848586918793889589978a99610653575b50604051998a5260208a015260408901526060880152608087015260a086015260c085015260e08401526101008301521515610120820152f35b9850505050505050505061067d9150823d841161068d575b6106758183612df2565b81019061441b565b9790969195929492919038610619565b503d61066b565b61069c612e28565b610603565b503461000e57602036600319011261000e576004356106bf81610237565b6037546040516335ea6a7560e01b81526001600160a01b0392831660048201526101a0929091839183916024918391165afa8015610844575b600090819282838485868791889389958a978b998c9b61078d575b506104d39b9c9d506040519d8e9d8e9b99979593919d9c9a98969492909d6101a08d019e8d5260208d015260408c015260608b015260808a015260a089015260c088015260e0870152610100860152610120850152610140840152600160a01b600190031661016083015264ffffffffff16906101800152565b9c5050505050505050505050509181813d831161083d575b6107af8183612df2565b8101031261083957805190602081015190604081015192606082015191608081015160a082015160c083015160e0840151610100850151916101208601519361014087015195610180610160890151986108088a610237565b01519864ffffffffff8a168a03610835576104d39b9c9d509b9c99909192939495969798998d9c9b610713565b8d80fd5b5080fd5b503d6107a5565b61084c612e28565b6106f8565b8051151582526020818101516001600160a01b0316908301526040818101516001600160a01b031690830152606081810151908301526080808201516001600160a01b03169083015260a081015160a083015260c081015160c083015260e081015160e0830152610100808201519083015261012080910151910152565b6020908160408183019282815285518094520193019160005b8281106108f6575050505090565b90919293826101408261090c6001948951610851565b019501939291016108e8565b503461000e5760408060031936011261000e576036546004906024359082359061094a906001600160a01b03166102c1565b8451630531044160e31b815261097a906020818781865afa908115610a96575b600091610a68575b508410614a74565b6109a161098f61098a8486613ada565b613a55565b61099c6107d08210614acf565b614b4c565b936000925b848111156109bb578651806104d388826108cf565b865163587854a560e11b81528281018281526101409591908690829081906020010381885afa958615610a5b575b600096610a22575b505090610a1782610a05610a1d9491614b9c565b96610a10828b614bac565b5288614bac565b50614b9c565b6109a6565b610a1d93929650610a179181610a4c92903d10610a54575b610a448183612df2565b81019061493e565b9591926109f1565b503d610a3a565b610a63612e28565b6109e9565b610a89915060203d8111610a8f575b610a818183612df2565b810190613078565b38610972565b503d610a77565b610a9e612e28565b61096a565b503461000e576020610abd610ab73661058d565b9061446a565b604051908152f35b503461000e57602036600319011261000e57600435610ae381610237565b603754604051633e15014160e01b81526001600160a01b039283166004820152610100929091839183916024918391165afa8015610bc3575b600090819282838490859286948796610b7e575b50604080519788526020880198909852968601969096526001600160a01b039095166060850152931515608084015292151560a083015291151560c082015290151560e08201526101009150f35b9650505050505050610baa9150826104d393903d10610bbc575b610ba28183612df2565b810190614684565b95978897969591949293929190610b30565b503d610b98565b610bcb612e28565b610b1c565b503461000e57602036600319011261000e57610386610c9f600435610bf3614511565b50603654610c8f90610c0d906001600160a01b03166102c1565b604051636c20351d60e11b815260048101849052610140918290829060249082905afa918215610cc6575b600092610ca9575b5050610c596001610c518351151590565b1515146149d2565b60408101516001600160a01b031660608201516020830151909291908590610100906001600160a01b0316930151933392614e66565b600052603b602052604060002090565b805460ff19169055565b610cbf9250803d10610a5457610a448183612df2565b3880610c40565b610cce612e28565b610c38565b503461000e57600036600319011261000e576038546040516001600160a01b039091168152602090f35b503461000e5760408060031936011261000e5760043590610d1d82610237565b60243591610d2a83610248565b610d32613087565b610d3b81615835565b610d44816158f5565b603654610d59906001600160a01b03166102c1565b8251630c526de560e11b81526001600160a01b0383166004820152336024820152909390610e1790602090610dfc90829081816044818c5afa908115610f5f575b600091610f42575b50610dae8115156141cd565b603754610dc3906001600160a01b03166102c1565b88516376e9d61560e01b81526001600160a01b038916600482015233602482015260448101929092529092839190829081906064820190565b03915afa918215610f35575b600092610f08575b505061422c565b833b1561000e578251633e94615360e21b81526001600160a01b0383166004820152336024820152811515604482015260009485908290606490829084905af18015610efb575b610ee2575b508314610eaa57815133916001600160a01b0316907e058a56ea94653cdf4f152d227ace22d4c00ad99e2a43f58cb7d9e3feb295f2908590a35b610ea76001600055565b51f35b815133916001600160a01b0316907f44c58d81365b66dd4b1a7f36c25aa97b8c71c361ee4937adc1a00000227db5dd908590a3610e9d565b80610eef610ef592612d9c565b8061042e565b38610e63565b610f03612e28565b610e5e565b610f279250803d10610f2e575b610f1f8183612df2565b810190613452565b3880610e10565b503d610f15565b610f3d612e28565b610e08565b610f599150823d8411610a8f57610a818183612df2565b38610da2565b610f67612e28565b610d9a565b50606036600319011261000e57610fb7600435610f8881610237565b60243560443591610f9883610237565b610fa0613087565b610fa981615835565b610fb2826159b6565b613af1565b6001600055005b503461000e57602036600319011261000e5760365461104e9060043590610fed906001600160a01b03166102c1565b90611020604051630531044160e31b8152602081600481875afa90811561115b575b60009161113d575b50821115614a32565b611028614511565b50604051809263587854a560e11b82528180610140968795600483019190602083019252565b03915afa918215611130575b600092611113575b8261106d8151151590565b60208201516104d3906001600160a01b031660408401519093906001600160a01b0316606082015160808301519192916001600160a01b031660a08301519060c08401519261012060e086015195015195604051998a998a9592919361010097949a999895919a61012088019b1515885260018060a01b03938480921660208a0152166040880152606087015216608085015260a084015260c083015260e08201520152565b6111299250803d10610a5457610a448183612df2565b3880611062565b611138612e28565b61105a565b611155915060203d8111610a8f57610a818183612df2565b38611017565b611163612e28565b61100f565b503461000e57600036600319011261000e57602060405160038152f35b60a090600319011261000e5760043561119d81610237565b90602435906044356111ae81610237565b906064359060843590565b503461000e576111c836611185565b6111d3949394613087565b6111dc84615835565b6111e5846158f5565b6111ee856159b6565b6111f6614511565b916111ff6133d6565b8115158061185d575b6112119061457c565b61121c4284116145c8565b603654611231906001600160a01b03166102c1565b60405163288d4ff760e21b81526001600160a01b038816600482015290979087906020816024818d5afa908115611850575b600091611831575b50603554600490602090611287906001600160a01b03166102c1565b604051631f94a27560e31b815292839182905afa908115611824575b600091611805575b50604051632e79732b60e11b81526001600160a01b0384811660048301529190911691906112f8906020818e8180602481015b03915afa9081156117f8575b6000916117d9575b50613467565b60405163e240301960e01b81526001600160a01b03841660048201526113479085906020818f81806024810103915afa9081156117cc575b6000916117ad575b5080610160890152101561460b565b611351338461446a565b6037548a90611368906001600160a01b03166102c1565b604051633e15014160e01b81526001600160a01b0387166004820152949061010090869060249082905afa9485156117a0575b600095611776575b5060405163b3596f0760e01b8082526001600160a01b03979097166004820152949586959091906113ef908990602081602481875afa908115611769575b60009161174a575b506138ce565b6113f8866146e9565b611401916138e1565b9461140a614705565b9061141491615a02565b8561141f868a6138ce565b90611429916138e1565b6040519283526001600160a01b03939093166004830152909190826024815a93602094fa6114a29561148f936114829261147391811561173d575b60009161171e575b50846138e1565b958961147d61475a565b615a60565b61148a6147b9565b615a02565b61149b8261148a614809565b1015614860565b6039546114b7906001600160a01b03166102c1565b604051630e563a7d60e41b8152336004820152602481018490529390602090859060449082905afa938415611711575b6000946116e9575b506060611502910193808552151561369b565b61150f835161148a6148d2565b600186523360208701526001600160a01b0388166040870152606086018290526001600160a01b03871660808701528360a08701528460c08701524260e0870152825161010087015261012086015260405197630531044160e31b8952602089600481845afa9889156116dc575b6000996116bb575b50803b1561000e576000809160046040518094819363259d9fd160e21b83525af180156116ae575b61169b575b506036546115c8906001600160a01b03166102c1565b91823b1561000e5761161960007fddda05bca10ccedb67628486050c0637ba56c3b1d4d271f7524748d5e3931c859761166e958c83604051809681958294632528874160e01b845260048401614927565b03925af1801561168e575b61167b575b5051604080519283526001600160a01b039788166020840152820193909352606081019290925260808201929092524260a082015233949093169290819060c0820190565b0390a46103866001600055565b80610eef61168892612d9c565b38611629565b611696612e28565b611624565b80610eef6116a892612d9c565b386115b2565b6116b6612e28565b6115ad565b6116d591995060203d602011610a8f57610a818183612df2565b9738611585565b6116e4612e28565b61157d565b61150291945061170960609160203d602011610a8f57610a818183612df2565b9491506114ef565b611719612e28565b6114e7565b611737915060203d602011610a8f57610a818183612df2565b3861146c565b611745612e28565b611464565b611763915060203d602011610a8f57610a818183612df2565b386113e9565b611771612e28565b6113e1565b6117929195506101003d61010011610bbc57610ba28183612df2565b5050505050505093386113a3565b6117a8612e28565b61139b565b6117c6915060203d602011610a8f57610a818183612df2565b38611338565b6117d4612e28565b611330565b6117f2915060203d602011610f2e57610f1f8183612df2565b386112f2565b611800612e28565b6112ea565b61181e915060203d60201161041a5761040b8183612df2565b386112ab565b61182c612e28565b6112a3565b61184a915060203d602011610a8f57610a818183612df2565b3861126b565b611858612e28565b611263565b5060648210611208565b503461000e57608036600319011261000e576118f160043561188881610237565b6024359061189582610237565b61189d613087565b6118e460018060a01b0360246020826036541660405192838092631a59df7760e11b825286891660048301525afa908115611919575b6000916118fb575b501633146130dd565b6064359160443591613163565b6103866001600055565b611913915060203d811161041a5761040b8183612df2565b386118db565b611921612e28565b6118d3565b503461000e5761193536611185565b6119429493919294613087565b61194b84615835565b611954846158f5565b61195d826159b6565b611965614511565b9161196e614bd6565b84151580611ede575b6119809061457c565b61198b4284116145c8565b60365486906004906119a5906001600160a01b03166102c1565b60405163288d4ff760e21b81526001600160a01b038416838201908152919a9186919060209082908190038201818f5afa908115611ed1575b600091611eb2575b506035546020906119ff906001600160a01b03166102c1565b604051631f94a27560e31b815295869182905afa938415611ea5575b600094611e84575b50604051632e79732b60e11b81526001600160a01b0386166004820152611a53906020818f8180602481016112de565b611aaa828d6020604051809263e240301960e01b82528180611a878d60048301919091602081019260018060a01b03169052565b03915afa908115611e77575b600091611e58575b50806101608a01521015614c5d565b611abc611ab7338761446a565b6138a5565b603754909190611ad4906001600160a01b03166102c1565b604051633e15014160e01b81526001600160a01b0386166004820152959061010090879060249082905afa958615611e4b575b600096611e02575b5060405163b3596f0760e01b81526001600160a01b03909716600488015294959394611b9294611b8b928892611b8292611b7c91611b7691899160209082908180602481015b03916001600160a01b03165afa9081156117695760009161174a57506138ce565b916146e9565b906138e1565b8461147d614cd4565b1015614d33565b603954611ba7906001600160a01b03166102c1565b604051630e563a7d60e41b8152336004820152602481018690529390602090859060449082905afa938415611df5575b600094611dc7575b5090611bf66060611c33930194808652151561369b565b611c03845161148a614db7565b600187523360208801526001600160a01b0389166040880152606087018590526001600160a01b03166080870152565b8560a08601528360c08601524260e086015281516101008601526101208501526040519663369f271360e01b8852602088600481845afa978815611dba575b600098611d99575b50803b1561000e5760008091600460405180948193635420f5a760e01b83525af18015611d8c575b611d79575b50603654611cbd906001600160a01b03166102c1565b90813b1561000e57611d0e60007ff8b6062ca08c00ea54f74d7f53f049ed4cb014a7787c62250e6dfa1229d7d4609661166e948b83604051809681958294631a675fcf60e21b845260048401614927565b03925af18015611d6c575b611d59575b505160408051938452602084019690965294820194909452606081019190915242608082015233936001600160a01b031692819060a0820190565b80610eef611d6692612d9c565b38611d1e565b611d74612e28565b611d19565b80610eef611d8692612d9c565b38611ca7565b611d94612e28565b611ca2565b611db391985060203d602011610a8f57610a818183612df2565b9638611c7a565b611dc2612e28565b611c72565b611c33929194506060611deb611bf69260203d602011610a8f57610a818183612df2565b9592935050611bdf565b611dfd612e28565b611bd7565b611b92959650611b8b92611b7c611b7687611b556020611e35611b82976101003d61010011610bbc57610ba28183612df2565b505050505050509c9b5050505050509250611b0f565b611e53612e28565b611b07565b611e71915060203d602011610a8f57610a818183612df2565b38611a9b565b611e7f612e28565b611a93565b611e9e91945060203d60201161041a5761040b8183612df2565b9238611a23565b611ead612e28565b611a1b565b611ecb915060203d602011610a8f57610a818183612df2565b386119e6565b611ed9612e28565b6119de565b5060648510611977565b503461000e5760408060031936011261000e5760365460049060243590823590611f1a906001600160a01b03166102c1565b845163369f271360e01b8152611f4a906020818781865afa908115612017575b600091611ff9575b508410614e08565b611f5a61098f61098a8486613ada565b936000925b84811115611f74578651806104d388826108cf565b8651636c20351d60e11b81528281018281526101409591908690829081906020010381885afa958615611fec575b600096611fc3575b505090610a1782610a05611fbe9491614b9c565b611f5f565b611fbe93929650610a179181611fe492903d10610a5457610a448183612df2565b959192611faa565b611ff4612e28565b611fa2565b612011915060203d8111610a8f57610a818183612df2565b38611f42565b61201f612e28565b611f3a565b503461000e57602036600319011261000e57610386610c9f600435612047614511565b506036546120da90612061906001600160a01b03166102c1565b60405163587854a560e11b815260048101849052610140918290829060249082905afa918215612107575b6000926120ea575b50506120a56001610c518351151590565b60408101516001600160a01b0316606082015160208301519092908590610100906001600160a01b03169201519333936152cc565b600052603a602052604060002090565b6121009250803d10610a5457610a448183612df2565b3880612094565b61210f612e28565b61208c565b503461000e57600036600319011261000e576037546040516001600160a01b039091168152602090f35b503461000e57602036600319011261000e5760043561215c81610237565b603754604051632fe4a15f60e21b81526001600160a01b0392831660048201529161010091829184916024918391165afa8015612255575b6000908192828384908592869487966121ee575b506104d3969798506040519889988994919260e0969399989794919961010087019a8752602087015260408601526060850152608084015260a083015260c08201520152565b96975050505050505082813d831161224e575b61220b8183612df2565b8101031261057557508051602082015160408301516060840151608085015160a086015160c087015160e0909701519496879695949093919291906104d36121a8565b503d612201565b61225d612e28565b612194565b503461000e57602036600319011261000e5760365461104e9060043590612291906001600160a01b03166102c1565b906122c260405163369f271360e01b8152602081600481875afa90811561115b5760009161113d5750821115614a32565b6122ca614511565b506040518092636c20351d60e11b82528180610140968795600483019190602083019252565b503461000e57606036600319011261000e5761230d600435610237565b604435612318613087565b612323600435615835565b61232e6004356158f5565b6123396024356159b6565b6123416133d6565b6036546125f09060409061235d906001600160a01b03166102c1565b8151632e79732b60e11b8152600480356001600160a01b03169082015261239b90602081602481865afa9081156117f8576000916117d95750613467565b846002148015612939575b6123af906134df565b6123b8856134bf565b6101c08401906123c88683613537565b825163e240301960e01b8152600480356001600160a01b03169082015261241490602081602481865afa90811561292c575b60009161290d575b50806101608801526024351115613543565b60375461259f9061242d906001600160a01b03166102c1565b8451632c6d0e9b60e01b8152336004820152602090610100906124be906124b9906124b59084816024818a5afa908115612900575b8d600091829083908490859086976128bb575b509260c09285928796956124946101e06124af9a98019a8b9015159052565b60408501528d8401528b83015260e0820152015215156135dd565b51151590565b1590565b613629565b60395461251b906124d7906001600160a01b03166102c1565b8851630e563a7d60e41b81523360048201526024803590820152908490829060449082905afa9081156128ae575b600091612891575b508060608c0152151561369b565b606089015160e08a0151918a0151838b015189516312737c3360e01b8152600480356001600160a01b031690820152602480359082015260448101939093526064830193909352608482015260a4810191909152918290818060c4810103915afa908115612884575b600091612865575b508060a088015260c087015110156136f1565b600182516125ac816134bf565b6125b5816134bf565b14612757575b60608501519151916125cc836134bf565b60008451809681958294630deb1bf960e21b84526024353360043560048701613854565b03925af192831561274a575b6000918294612717575b5061012083019384526101a0830191825260365461262c906001600160a01b03166102c1565b803b1561000e5760405163fa93b2a560e01b8152600480356001600160a01b031690820152336024808301919091523560448201527fe27fbad0754d6c730a8161378bc066f66fac114445968dcfc26d42a3002960139360609290919060009082908183816064810103925af1801561270a575b6126f7575b505193015193516040805160243581526020810193909352820193909352606081019390935260808301919091524260a083015233916001600160a01b0360043516919060c090a36103866001600055565b80610eef61270492612d9c565b386126a5565b612712612e28565b6126a0565b90935061273c915060403d604011612743575b6127348183612df2565b81019061383e565b9238612606565b503d61272a565b612752612e28565b6125fc565b825163710ba6c360e11b8152600480356001600160a01b031690820152336024808301919091523560448201526127a790602081606481865afa908115612858575b600091612839575b5061375a565b6128086127fe6127f7600460206127c86102c160385460018060a01b031690565b88516335adc96b60e21b815292839182905afa90811561282c575b60009161280d575b506101608901516138ce565b6064900490565b60243511156137cc565b6125bb565b612826915060203d602011610a8f57610a818183612df2565b386127eb565b612834612e28565b6127e3565b612852915060203d602011610f2e57610f1f8183612df2565b386127a1565b612860612e28565b612799565b61287e915060203d602011610a8f57610a818183612df2565b3861258c565b61288c612e28565b612584565b6128a89150843d8611610a8f57610a818183612df2565b3861250d565b6128b6612e28565b612505565b9250505060c094506124af93506128e89150883d8a116128f9575b6128e08183612df2565b81019061359c565b999598509395509193909250612475565b503d6128d6565b612908612e28565b612462565b612926915060203d602011610a8f57610a818183612df2565b38612402565b612934612e28565b6123fa565b50600185146123a6565b503461000e57602036600319011261000e5760043561296181610237565b60ff600254169081159182612a29575b8015612a1d575b156129c15761298b90826129a057612e42565b61299157005b61038660ff1960025416600255565b6129b2600160ff196002541617600255565b6129bc6003600155565b612e42565b60405162461bcd60e51b815260206004820152602e60248201527f436f6e747261637420696e7374616e63652068617320616c726561647920626560448201526d195b881a5b9a5d1a585b1a5e995960921b6064820152608490fd5b50600154600311612978565b50303b15612971565b503461000e57600036600319011261000e576035546040516001600160a01b039091168152602090f35b503461000e57600036600319011261000e5760206040516000198152f35b50606036600319011261000e576004803590612a9582610237565b6024359160443561ffff81160361000e57612aae613087565b612ab7836159b6565b603654612acc906001600160a01b03166102c1565b60408051631a59df7760e11b81526001600160a01b0384168186019081529095919491929060209081908890819083010381855afa968715612d4e575b600097612d2f575b5085516370a0823160e01b8152338482019081526001600160a01b039889169391908390829081906020010381875afa928315612d22575b600093612d03575b5050803b1561000e578651632f35bfe960e21b81526001600160a01b038716858201908152336020820152604081018790529215606084015291600091839182908490829060800103925af18015612cf6575b612ce3575b50803b1561000e5784516394362e8b60e01b81523383820190815260208101859052909160009183919082908490829060400103925af18015612cd6575b612cc3575b50603654612c02906001600160a01b03166102c1565b803b1561000e5784516328fcf4d360e01b81526001600160a01b038516928101928352336020840152604083018490526000967fdcbc1c05240f31ff3ad067ef1ee35ce4997762752e3a095284754544f4c709d793612c9693919291899183919082908190606001039134905af18015612cb6575b612ca3575b508551938452426020850152339416929081906040820190565b0390a3610ea76001600055565b80610eef612cb092612d9c565b38612c7c565b612cbe612e28565b612c77565b80610eef612cd092612d9c565b38612bec565b612cde612e28565b612be7565b80610eef612cf092612d9c565b38612ba9565b612cfe612e28565b612ba4565b612d1a929350803d10610a8f57610a818183612df2565b903880612b51565b612d2a612e28565b612b49565b81612d479298503d891161041a5761040b8183612df2565b9538612b11565b612d56612e28565b612b09565b503461000e57600036600319011261000e576036546040516001600160a01b039091168152602090f35b50634e487b7160e01b600052604160045260246000fd5b6001600160401b038111612daf57604052565b612db7612d85565b604052565b606081019081106001600160401b03821117612daf57604052565b604081019081106001600160401b03821117612daf57604052565b90601f801991011681019081106001600160401b03821117612daf57604052565b9081602091031261000e57516105b281610237565b506040513d6000823e3d90fd5b5190612e4082610237565b565b603580546001600160a01b0319166001600160a01b03929092169182179055612e4090612e6e906102c1565b6040518091630774f5f560e21b825281600460209384935afa91821561306b575b60009261304c575b50603680546001600160a01b0319166001600160a01b03938416179055612f1282600483612ecf6102c160355460018060a01b031690565b6040516352cb335b60e11b815292839182905afa90811561303f575b600091613022575b501660018060a01b03166001600160601b0360a01b6037541617603755565b612f7082600483612f2d6102c160355460018060a01b031690565b604051639fabe17560e01b815292839182905afa908115613015575b600091612ff8575b501660018060a01b03166001600160601b0360a01b6038541617603855565b6035546004908290612f8a906001600160a01b03166102c1565b604051633efbbf0f60e21b815292839182905afa918215612feb575b600092612fce575b50501660018060a01b03166001600160601b0360a01b6039541617603955565b612fe49250803d1061041a5761040b8183612df2565b3880612fae565b612ff3612e28565b612fa6565b61300f9150843d861161041a5761040b8183612df2565b38612f51565b61301d612e28565b612f49565b6130399150843d861161041a5761040b8183612df2565b38612ef3565b613047612e28565b612eeb565b816130649293503d841161041a5761040b8183612df2565b9038612e97565b613073612e28565b612e8f565b9081602091031261000e575190565b600260005414613098576002600055565b60405162461bcd60e51b815260206004820152601f60248201527f5265656e7472616e637947756172643a207265656e7472616e742063616c6c006044820152606490fd5b156130e457565b60405162461bcd60e51b815260206004820152604b60248201527f5468652063616c6c6572206f6620746869732066756e6374696f6e2063616e2060448201527f6f6e6c79206265207468652061546f6b656e20636f6e7472616374206f66207460648201526a686973207265736572766560a81b608482015260a490fd5b9261316d84615835565b613176836159b6565b60365461318b906001600160a01b03166102c1565b60405163e240301960e01b81526001600160a01b03861660048201526131ce908590602081602481875afa908115613335575b600091613317575b501015613342565b803b1561000e5760405163afcdbea360e01b81526001600160a01b0386811660048301528416602482015260448101859052911560648301526000908290608490829084905af1801561330a575b6132f7575b50603654613237906001600160a01b03166102c1565b803b1561000e5760405163fa93b2a560e01b81526001600160a01b03858116600483015283166024820152604481018490527f9c4ed599cd8555b9c1e8cd7643240d7d71eb76b792948c49fcb4d411f7b6b3c6926132d2929091906000908290606490829084905af180156132ea575b6132d7575b50604080519485524260208601526001600160a01b039182169590911693918291820190565b0390a3565b80610eef6132e492612d9c565b386132ac565b6132f2612e28565b6132a7565b80610eef61330492612d9c565b38613221565b613312612e28565b61321c565b61332f915060203d8111610a8f57610a818183612df2565b386131c6565b61333d612e28565b6131be565b1561334957565b60405162461bcd60e51b81526020600482015260316024820152600080516020615aaf83398151915260448201527061696c61626c6520746f2072656465656d60781b6064820152608490fd5b6040519061020082018281106001600160401b03821117612daf57604052565b6040519061014082018281106001600160401b03821117612daf57604052565b6133de613396565b9060008083528060208401528060408401528060608401528060808401528060a08401528060c08401528060e08401528061010084015280610120840152806101408401528061016084015280610180840152806101a0840152806101c08401526101e0830152565b5190612e4082610248565b9081602091031261000e57516105b281610248565b1561346e57565b60405162461bcd60e51b8152602060048201526024808201527f52657365727665206973206e6f7420656e61626c656420666f7220626f72726f60448201526377696e6760e01b6064820152608490fd5b600311156134c957565b634e487b7160e01b600052602160045260246000fd5b156134e657565b60405162461bcd60e51b815260206004820152602360248201527f496e76616c696420696e7465726573742072617465206d6f64652073656c65636044820152621d195960ea1b6064820152608490fd5b60038210156134c95752565b1561354a57565b60405162461bcd60e51b81526020600482015260366024820152600080516020615aaf83398151915260448201527561696c61626c6520696e20746865207265736572766560501b6064820152608490fd5b91908261010091031261000e5781519160208101519160408201519160608101519160808201519160a08101519160e060c08301519201516105b281610248565b156135e457565b60405162461bcd60e51b815260206004820152601b60248201527f54686520636f6c6c61746572616c2062616c616e6365206973203000000000006044820152606490fd5b1561363057565b60405162461bcd60e51b815260206004820152603f60248201527f54686520626f72726f7765722063616e20616c7265616479206265206c69717560448201527f69646174656420736f2068652063616e6e6f7420626f72726f77206d6f7265006064820152608490fd5b156136a257565b60405162461bcd60e51b815260206004820152602160248201527f54686520616d6f756e7420746f20626f72726f7720697320746f6f20736d616c6044820152601b60fa1b6064820152608490fd5b156136f857565b60405162461bcd60e51b815260206004820152603460248201527f5468657265206973206e6f7420656e6f75676820636f6c6c61746572616c20746044820152736f20636f7665722061206e657720626f72726f7760601b6064820152608490fd5b1561376157565b60405162461bcd60e51b815260206004820152603960248201527f557365722063616e6e6f7420626f72726f77207468652073656c65637465642060448201527f616d6f756e742077697468206120737461626c652072617465000000000000006064820152608490fd5b156137d357565b60405162461bcd60e51b815260206004820152603c60248201527f5573657220697320747279696e6720746f20626f72726f7720746f6f206d756360448201527f68206c6971756964697479206174206120737461626c652072617465000000006064820152608490fd5b919082604091031261000e576020825192015190565b6001600160a01b039182168152911660208201526040810191909152606081019190915260a0810192919060038210156134c95760800152565b50634e487b7160e01b600052601160045260246000fd5b670de0b6b3a76400009080600019048211811515166138c2570290565b6138ca61388e565b0290565b80600019048211811515166138c2570290565b81156138eb570490565b634e487b7160e01b600052601260045260246000fd5b6040519061010082018281106001600160401b03821117613951575b6040528160e06000918281528260208201528260408201528260608201528260808201528260a08201528260c08201520152565b613959612d85565b61391d565b9081606091031261000e578051916040602083015192015190565b1561398057565b60405162461bcd60e51b815260206004820152602960248201527f546865207573657220646f6573206e6f74206861766520616e7920626f72726f604482015268772070656e64696e6760b81b6064820152608490fd5b156139de57565b60a460405162461bcd60e51b815260206004820152604460248201527f546f207265706179206f6e20626568616c66206f6620616e207573657220616e60448201527f206578706c6963697420616d6f756e7420746f207265706179206973206e65656064820152633232b21760e11b6084820152fd5b6001906001198111613a65570190565b613a6d61388e565b0190565b81198111613a65570190565b15613a8457565b60405162461bcd60e51b815260206004820152602860248201527f496e76616c6964206d73672e76616c75652073656e7420666f72207468652072604482015267195c185e5b595b9d60c21b6064820152608490fd5b818110613ae5570390565b613aed61388e565b0390565b613af9613901565b603654909190613b11906001600160a01b03166102c1565b60408051639fb8afcd60e01b81526001600160a01b038481166004830152871660248201529491939091606086604481885afa9586156141c0575b6000908190829861418b575b5083850197885260208085019182529184528451633faacc6b60e21b81526001600160a01b0387811660048301528a1660248201529180836044818b5afa92831561417e575b60009361415f575b5060e0850192835273eeeeeeeeeeeeeeeeeeeeeeeeeeeeeeeeeeeeeeee6001600160a01b03888116918214606088019081529199909691958c9190613bed86511515613979565b613c086000198214938a8515918296614151575b50506139d7565b613c158651885190613a71565b92608085019380855281614147575b5061413f575b50613c386124b58851151590565b8015614134575b613c4890613a7d565b81518651811115613f3d575050613c6460a09151865190613ada565b9101818152603654909390613c81906001600160a01b03166102c1565b91855192818d51935114813b1561000e5760008f91613ce98e9183978f51998a988997889663da12d96f60e01b885260048801949196959260a0949160c0870198600180881b0380921688521660208701526040860152606085015260808401521515910152565b03925af18015613f30575b613f1d575b5082519081613e07575b5050603654613d2590613d1e906001600160a01b03166102c1565b9351151590565b60009015613e015750613d39825134613ada565b955b815196843b1561000e5786516328fcf4d360e01b81526001600160a01b0392909216600483015233602483015260448201979097527fb718f0b14f03d8c3adf35b15e3da52421b042ac879e5a689011a8b1e0036773d96613ddc94600091839160649183915af18015613df4575b613de1575b5051905196519351938493339916974292859094939260609260808301968352602083015260408201520152565b0390a4565b80610eef613dee92612d9c565b38613dae565b613dfc612e28565b613da9565b95613d3b565b603654613e1c906001600160a01b03166102c1565b90613e278651151590565b60009015613f17575082915b6035546004908390613e4d906001600160a01b03166102c1565b8b51637744894b60e11b815292839182905afa928315613f0a575b600093613eeb575b5050803b1561000e57885163c7d1423760e01b81526001600160a01b038b81166004830152336024830152604482019590955291909316606482015291600091839160849183915af18015613ede575b613ecb575b80613d03565b80610eef613ed892612d9c565b38613ec5565b613ee6612e28565b613ec0565b613f02929350803d1061041a5761040b8183612df2565b903880613e70565b613f12612e28565b613e68565b91613e33565b80610eef613f2a92612d9c565b38613cf9565b613f38612e28565b613cf4565b9250929350935089969997949751823b1561000e578a5163da12d96f60e01b81526001600160a01b0387811660048301528d1660248201526000604482018190526064820193909352608481019190915260a4810182905291829060c490829084905af18015614127575b614114575b50603654613fce90613fc7906001600160a01b03166102c1565b9651151590565b6000901561410f575081515b82516035546004908490613ff6906001600160a01b03166102c1565b8c51637744894b60e11b815292839182905afa938415614102575b6000946140e3575b5050873b1561000e57895163c7d1423760e01b81526001600160a01b0395861660048201528b8616602482015260448101919091529190931660648201527fb718f0b14f03d8c3adf35b15e3da52421b042ac879e5a689011a8b1e0036773d95613ddc9360009183916084918391905af180156140d6575b6140c3575b50519251955192839233981696429184606091949392608082019560008352602083015260408201520152565b80610eef6140d092612d9c565b38614096565b6140de612e28565b614091565b6140fa929450803d1061041a5761040b8183612df2565b913880614019565b61410a612e28565b614011565b613fda565b80610eef61412192612d9c565b38613fad565b61412f612e28565b613fa8565b508151341015613c3f565b825238613c2a565b9050811038613c24565b9091501633148f8b90613c01565b816141779294503d8511610a8f57610a818183612df2565b9138613ba6565b614186612e28565b613b9e565b9150506141b091965060603d81116141b9575b6141a88183612df2565b81019061395e565b96919038613b58565b503d61419e565b6141c8612e28565b613b4c565b156141d457565b60405162461bcd60e51b815260206004820152602a60248201527f5573657220646f6573206e6f74206861766520616e79206c69717569646974796044820152690819195c1bdcda5d195960b21b6064820152608490fd5b1561423357565b60405162461bcd60e51b815260206004820152603060248201527f55736572206465706f73697420697320616c7265616479206265696e6720757360448201526f195908185cc818dbdb1b185d195c985b60821b6064820152608490fd5b6020906001600160401b0381116142ae575b601f01601f19160190565b6142b6612d85565b6142a3565b3d156142e6573d906142cc82614291565b916142da6040519384612df2565b82523d6000602084013e565b606090565b156142f257565b60405162461bcd60e51b815260206004820152601760248201527f4c69717569646174696f6e2063616c6c206661696c65640000000000000000006044820152606490fd5b918091926000905b828210614357575011614350575050565b6000910152565b9150806020918301518186015201829161433f565b919060408382031261000e578251926020810151906001600160401b03821161000e570181601f8201121561000e5780516143a681614291565b926143b46040519485612df2565b8184526020828401011161000e576105b29160208085019101614337565b90613a6d60209282815194859201614337565b906020916143fe81518092818552858086019101614337565b601f01601f1916010190565b9060206105b29281815201906143e5565b91908261014091031261000e5781519160208101519160408201519160608101519160808201519160a08101519160c08201519160e0810151916101206101008301519201516105b281610248565b6037546040516328dd2d0160e01b81526001600160a01b0392831660048201529282166024840152670de0b6b3a7640000929161014091829184916044918391165afa918215614504575b60009182936144da575b50508181106144cd57030490565b6144d561388e565b030490565b6144f4935080919250903d1061068d576106758183612df2565b50505050505050509038806144bf565b61450c612e28565b6144b5565b6040519061014082018281106001600160401b0382111761456f575b604052816101206000918281528260208201528260408201528260608201528260808201528260a08201528260c08201528260e0820152826101008201520152565b614577612d85565b61452d565b1561458357565b60405162461bcd60e51b815260206004820152601b60248201527f496e76616c696420496e746572657374205261746520496e70757400000000006044820152606490fd5b156145cf57565b60405162461bcd60e51b8152602060048201526014602482015273125b9d985b1a5908111d594811185d194814d95d60621b6044820152606490fd5b1561461257565b60405162461bcd60e51b81526020600482015260506024820152600080516020615aaf83398151915260448201527f61696c61626c6520696e20746865207265736572766520746f206d616b65206160648201526f08189bdc9c9bddc81c1c9bdc1bdcd85b60821b608482015260a490fd5b91908261010091031261000e5781519160208101519160408201519160608101516146ae81610237565b9160808201516146bd81610248565b9160a08101516146cc81610248565b9160e060c08301516146dd81610248565b9201516105b281610248565b604d81116146f8575b600a0a90565b61470061388e565b6146f2565b6040519061471282612dbc565b603382527202fb932b9b2b93b32aa37a137b93937bb901d1606d1b6040837f2020203d3e204c42504d203a72657365727665446563696d616c7320666f722060208201520152565b6040519061476782612dbc565b603a82527f6f72726f77416d6f756e744554482c20626f72726f774c5456200000000000006040837f2020203d3e204c42504d203a205f616d6f756e742c207265717565737465644260208201520152565b604051906147c682612dbc565b602e82526d037bb90283937b837b9b0b6101d160951b6040837f2020203d3e204c42504d203a20455448204e656564656420666f7220426f727260208201520152565b6040519061481682612dbc565b6035825274037b9102137b93937bb90283937b837b9b0b6101d1605d1b6040837f2020203d3e204c42504d203a20436f6c6c61746572616c204e6565646564206660208201520152565b1561486757565b60405162461bcd60e51b815260206004820152603d60248201527f5468657265206973206e6f7420656e6f75676820636f6c6c61746572616c207460448201527f6f20636f7665722061206e657720626f72726f772070726f706f73616c0000006064820152608490fd5b604051906148df82612dbc565b60338252720103137b93937bb90383937b837b9b0b6101d1606d1b6040837f2020203d3e204c42504d203a20426f72726f772046656520666f72207468697360208201520152565b90815261016081019291612e409160200190610851565b908161014091031261000e576149526133b6565b9061495c81613447565b825261496a60208201612e35565b602083015261497b60408201612e35565b60408301526060810151606083015261499660808201612e35565b608083015260a081015160a083015260c081015160c083015260e081015160e08301526101008082015190830152610120809101519082015290565b156149d957565b60405162461bcd60e51b815260206004820152602b60248201527f4f6e6c792041637469766520426f72726f772050726f706f73616c2063616e2060448201526a1899481058d8d95c1d195960aa1b6064820152608490fd5b15614a3957565b60405162461bcd60e51b8152602060048201526013602482015272125b9d985b1a590817dc1c9bdc1bdcd85b1259606a1b6044820152606490fd5b15614a7b57565b60405162461bcd60e51b815260206004820152602660248201527f456e6420496e646578206f76657220626f72726f7750726f706f73616c4c69736044820152651d10dbdd5b9d60d21b6064820152608490fd5b15614ad657565b60405162461bcd60e51b815260206004820152602260248201527f4d6178696d756d203230303020697465726174696f6e207065722072657175656044820152611cdd60f21b6064820152608490fd5b6020906001600160401b038111614b3f575b60051b0190565b614b47612d85565b614b38565b90614b5682614b26565b614b636040519182612df2565b8281528092614b74601f1991614b26565b019060005b828110614b8557505050565b602090614b90614511565b82828501015201614b79565b6001906000198114613a65570190565b8051821015614bc05760209160051b010190565b634e487b7160e01b600052603260045260246000fd5b604051906101c082018281106001600160401b03821117614c50575b604052816101a06000918281528260208201528260408201528260608201528260808201528260a08201528260c08201528260e082015282610100820152826101208201528261014082015282610160820152826101808201520152565b614c58612d85565b614bf2565b15614c6457565b60405162461bcd60e51b815260206004820152604e6024820152600080516020615aaf83398151915260448201527f61696c61626c6520696e20746865207265736572766520746f206d616b65206160648201526d081b195b99081c1c9bdc1bdcd85b60921b608482015260a490fd5b60405190614ce182612dbc565b604082527f656e64416d6f756e74496e5765692c20636f6c6c61746572616c4c5456203a206040837f2020203d3e204c42504d203a205f616d6f756e742c207265717565737465644c60208201520152565b15614d3a57565b60405162461bcd60e51b815260206004820152604960248201527f5468657265206973206e6f7420656e6f7567682062616c616e636520746f206c60448201527f656e6420696e206f7264657220746f20636f7665722061206e6577206c656e64606482015268081c1c9bdc1bdcd85b60ba1b608482015260a490fd5b60405190614dc482612dbc565b602f82526e032b73210383937b837b9b0b6101d1608d1b6040837f2020203d3e204c42504d203a204c656e642046656520666f722074686973206c60208201520152565b15614e0f57565b60405162461bcd60e51b815260206004820152602960248201527f456e6420496e64657820657863656564696e67204c656e6450726f706f73616c604482015268131a5cdd10dbdd5b9d60ba1b6064820152608490fd5b93949194614e72613087565b614e7b85615835565b614e84856158f5565b614e8d826159b6565b614ecc828487614ea76102c160365460018060a01b031690565b604051636c20351d60e11b8152600481018c9052610140958690829081906024820190565b0381855afa9586156152bf575b60009661529c575b505060808501518491908a908d9085906001600160a01b0316610120909901516035546001600160a01b03166001600160a01b0316928a82604051808097631f94a27560e31b82525a92600491602094fa95861561504a6150ee9e615029602060409f60009c6150d19b61506c9a6150589961504a9961528f575b600093615264575b5060405163b3596f0760e01b81526001600160a01b039091166004820152614ff091858280602481015b03816001600160a01b0388165afa918215615257575b600092615228575b50614fdf614fca83614fc5614fe894614fc5338b61446a565b6138ce565b6ec097ce7bc90715b34b9f1000000000900490565b9b61148a615543565b61148a61557c565b614ffc8961148a6155c8565b60405163b3596f0760e01b81526001600160a01b0390921660048301529092839190829081906024820190565b03916001600160a01b03165afa90811561521b575b8b9161174a57506138ce565b670de0b6b3a7640000900490565b906150658261148a615617565b101561565e565b6150788961148a6157ad565b8751637eb83b6360e11b81526001600160a01b0393841660048201529290941660248301526044820195909552606481019690965260016084870152600060a487015260c48601919091528492839190829060e4820190565b03925af190811561520e575b6000916151ed575b5061148a6157e6565b603654615103906001600160a01b03166102c1565b90813b1561000e5760405163fa93b2a560e01b81526001600160a01b03888116600483015287166024820152604481018590527f0fe896ff57f0d00b15c188699fac3b7ce27c564a706118e52c3c45e88c7bab7e956151c0939091906000908290606490829084905af180156151e0575b6151cd575b50604080516001600160a01b03938416815297831660208901528701949094526000606087015260808601939093524260a0860152908216949091169290819060c0820190565b0390a4612e406001600055565b80610eef6151da92612d9c565b38615179565b6151e8612e28565b615174565b615206915060403d604011612743576127348183612df2565b9050386150e5565b615216612e28565b6150dd565b615223612e28565b61503e565b614fc59250614fca614fe89261524d614fdf938a3d8c11610a8f57610a818183612df2565b9450925050614fac565b61525f612e28565b614fa4565b614f8e9193509185615285614ff094823d841161041a5761040b8183612df2565b9492505091614f64565b615297612e28565b614f5c565b8592965090816152b792903d10610a5457610a448183612df2565b949038614ee1565b6152c7612e28565b614ed9565b939491946152d8613087565b6152e185615835565b6152ea856158f5565b6152f3826159b6565b81866154088561530d6102c160365460018060a01b031690565b60409485918a60008d6153ec61536860806153448951636c20351d60e11b81528d8180610140948593600483019190602083019252565b03818c5afa918215615536575b8792615519575b505001516001600160a01b031690565b9961538d8761537a611ab7338761446a565b6153868161148a6156d0565b101561572f565b6153998961148a6157ad565b875198899788968795637eb83b6360e11b87526004870191959493909260c09360e084019760018060a01b0380921685521660208401526040830152606082015260016080820152600160a08201520152565b03925af190811561550c575b6000916154f5575061148a6157e6565b60365461541d906001600160a01b03166102c1565b94853b1561000e57825163fa93b2a560e01b81526001600160a01b03898116600483015288811660248301526044820187905290969095908690886064815a6000948591f17f0fe896ff57f0d00b15c188699fac3b7ce27c564a706118e52c3c45e88c7bab7e986151c0969180156154e8575b6154d5575b50516001600160a01b03948516815298909316602089015260408801526001606088015260808701524260a08701529190921694169290819060c0820190565b80610eef6154e292612d9c565b38615495565b6154f0612e28565b615490565b6152069150843d8611612743576127348183612df2565b615514612e28565b6153f8565b61552f9250803d10610a5457610a448183612df2565b3880615358565b61553e612e28565b615351565b6040519061555082612dd7565b601d82527f2020203d3e204c42504d203a20636f6c6c61746572616c4c7476203a200000006020830152565b6040519061558982612dbc565b602a825269031b2a4b72bb2b4901d160b51b6040837f2020203d3e204c42504d203a20636f6c6c61746572616c4f7261636c6550726960208201520152565b604051906155d582612dbc565b602d82526c0383634b2b22b30b63ab2901d1609d1b6040837f2020203d3e204c42504d203a2075736572436f6c6c61746572616c4c7476417060208201520152565b6040519061562482612dbc565b602582526403a34101d160dd1b6040837f2020203d3e204c42504d203a20626f72726f7741737365745072696365496e4560208201520152565b1561566557565b60405162461bcd60e51b815260206004820152603f60248201527f426f72726f77657220646f65736e2774206861766520656e6f75676820636f6c60448201527f6c61746572616c20746f20616363657074204c656e642050726f706f73616c006064820152608490fd5b604051906156dd82612dbc565b603d82527f626c6520526573657276652042616c616e636520696e20576569203a200000006040837f2020203d3e204c42504d203a20757365722043757272656e7420417661696c6160208201520152565b1561573657565b60a460405162461bcd60e51b815260206004820152604460248201527f4c656e64657220646f65736e2774206861766520656e6f75676820526573657260448201527f76652042616c616e636520746f2041636365707420426f72726f772050726f706064820152631bdcd85b60e21b6084820152fd5b604051906157ba82612dd7565b601b82527f2020203d3e204c42504d203a205365727669636520466565203a2000000000006020830152565b604051906157f382612dbc565b602d82526c01024b731b932b0b9b2b2101d1609d1b6040837f2020203d3e204c42504d203a205573657220426f72726f772042616c616e636560208201520152565b603654604051630283aeb760e11b81526001600160a01b0392831660048201529160209183916024918391165afa9081156158e8575b6000916158ca575b501561587b57565b60405162461bcd60e51b815260206004820152602160248201527f416374696f6e20726571756972657320616e20616374697665207265736572766044820152606560f81b6064820152608490fd5b6158e2915060203d8111610f2e57610f1f8183612df2565b38615873565b6158f0612e28565b61586b565b603654604051634a08accb60e01b81526001600160a01b0392831660048201529160209183916024918391165afa9081156159a9575b60009161598b575b5061593a57565b60405162461bcd60e51b8152602060048201526024808201527f416374696f6e20726571756972657320616e20756e667265657a6564207265736044820152636572766560e01b6064820152608490fd5b6159a3915060203d8111610f2e57610f1f8183612df2565b38615933565b6159b1612e28565b61592b565b156159bd57565b60405162461bcd60e51b815260206004820152601d60248201527f416d6f756e74206d7573742062652067726561746572207468616e20300000006044820152606490fd5b615a45615a3191612e4093604051938492632d839cb360e21b60208501526040602485015260648401906143e5565b90604483015203601f198101835282612df2565b600080916020815191016a636f6e736f6c652e6c6f675afa50565b615a4591612e4094615a909460405195869463a7a8785360e01b60208701526080602487015260a48601906143e5565b9260448501526064840152608483015203601f198101835282612df256fe5468657265206973206e6f7420656e6f756768206c6971756964697479206176a2646970667358221220d376d093d1b9aae74a00e08b66ac99e3e81932467b3631d67e3b394f7dbd26dd64736f6c634300080d0033",
  "linkReferences": {},
  "deployedLinkReferences": {}
}