{
  "_format": "hh-sol-artifact-1",
  "contractName": "LendingBoardProposeMode",
  "sourceName": "contracts/lendingboard/LendingBoardProposeMode.sol",
  "abi": [
    {
      "anonymous": false,
      "inputs": [
        {
          "indexed": true,
          "internalType": "address",
          "name": "_reserve",
          "type": "address"
        },
        {
          "indexed": true,
          "internalType": "address",
          "name": "_user",
          "type": "address"
        },
        {
          "indexed": false,
          "internalType": "uint256",
          "name": "_amount",
          "type": "uint256"
        },
        {
          "indexed": false,
          "internalType": "uint256",
          "name": "_borrowRateMode",
          "type": "uint256"
        },
        {
          "indexed": false,
          "internalType": "uint256",
          "name": "_borrowRate",
          "type": "uint256"
        },
        {
          "indexed": false,
          "internalType": "uint256",
          "name": "_originationFee",
          "type": "uint256"
        },
        {
          "indexed": false,
          "internalType": "uint256",
          "name": "_borrowBalanceIncrease",
          "type": "uint256"
        },
        {
          "indexed": false,
          "internalType": "uint256",
          "name": "_timestamp",
          "type": "uint256"
        }
      ],
      "name": "Borrow",
      "type": "event"
    },
    {
      "anonymous": false,
      "inputs": [
        {
          "indexed": true,
          "internalType": "address",
          "name": "_reserveToLend",
          "type": "address"
        },
        {
          "indexed": true,
          "internalType": "address",
          "name": "_lender",
          "type": "address"
        },
        {
          "indexed": false,
          "internalType": "address",
          "name": "_borrower",
          "type": "address"
        },
        {
          "indexed": true,
          "internalType": "uint256",
          "name": "_proposalId",
          "type": "uint256"
        },
        {
          "indexed": false,
          "internalType": "uint256",
          "name": "_amount",
          "type": "uint256"
        },
        {
          "indexed": false,
          "internalType": "uint256",
          "name": "_originationFee",
          "type": "uint256"
        },
        {
          "indexed": false,
          "internalType": "uint256",
          "name": "_timestamp",
          "type": "uint256"
        }
      ],
      "name": "BorrowAccepted",
      "type": "event"
    },
    {
      "anonymous": false,
      "inputs": [
        {
          "indexed": true,
          "internalType": "address",
          "name": "_reserveToBorrow",
          "type": "address"
        },
        {
          "indexed": true,
          "internalType": "address",
          "name": "_borrowProposer",
          "type": "address"
        },
        {
          "indexed": true,
          "internalType": "uint256",
          "name": "_proposalId",
          "type": "uint256"
        },
        {
          "indexed": false,
          "internalType": "uint256",
          "name": "_amount",
          "type": "uint256"
        },
        {
          "indexed": false,
          "internalType": "address",
          "name": "_reserveForCollateral",
          "type": "address"
        },
        {
          "indexed": false,
          "internalType": "uint256",
          "name": "_interestRate",
          "type": "uint256"
        },
        {
          "indexed": false,
          "internalType": "uint256",
          "name": "_originationFee",
          "type": "uint256"
        },
        {
          "indexed": false,
          "internalType": "uint256",
          "name": "_dueDate",
          "type": "uint256"
        },
        {
          "indexed": false,
          "internalType": "uint256",
          "name": "_timestamp",
          "type": "uint256"
        }
      ],
      "name": "BorrowProposed",
      "type": "event"
    },
    {
      "anonymous": false,
      "inputs": [
        {
          "indexed": true,
          "internalType": "address",
          "name": "_reserve",
          "type": "address"
        },
        {
          "indexed": true,
          "internalType": "address",
          "name": "_user",
          "type": "address"
        },
        {
          "indexed": false,
          "internalType": "uint256",
          "name": "_amount",
          "type": "uint256"
        },
        {
          "indexed": false,
          "internalType": "uint256",
          "name": "_timestamp",
          "type": "uint256"
        }
      ],
      "name": "Deposit",
      "type": "event"
    },
    {
      "anonymous": false,
      "inputs": [
        {
          "indexed": true,
          "internalType": "address",
          "name": "_reserveToLend",
          "type": "address"
        },
        {
          "indexed": true,
          "internalType": "address",
          "name": "_lender",
          "type": "address"
        },
        {
          "indexed": false,
          "internalType": "address",
          "name": "_borrower",
          "type": "address"
        },
        {
          "indexed": true,
          "internalType": "uint256",
          "name": "_proposalId",
          "type": "uint256"
        },
        {
          "indexed": false,
          "internalType": "uint256",
          "name": "_amount",
          "type": "uint256"
        },
        {
          "indexed": false,
          "internalType": "uint256",
          "name": "_originationFee",
          "type": "uint256"
        },
        {
          "indexed": false,
          "internalType": "uint256",
          "name": "_timestamp",
          "type": "uint256"
        }
      ],
      "name": "LendAccepted",
      "type": "event"
    },
    {
      "anonymous": false,
      "inputs": [
        {
          "indexed": true,
          "internalType": "address",
          "name": "_reserveToLend",
          "type": "address"
        },
        {
          "indexed": true,
          "internalType": "address",
          "name": "_lendProposer",
          "type": "address"
        },
        {
          "indexed": true,
          "internalType": "uint256",
          "name": "_proposalId",
          "type": "uint256"
        },
        {
          "indexed": false,
          "internalType": "uint256",
          "name": "_amount",
          "type": "uint256"
        },
        {
          "indexed": false,
          "internalType": "uint256",
          "name": "_interestRate",
          "type": "uint256"
        },
        {
          "indexed": false,
          "internalType": "uint256",
          "name": "_originationFee",
          "type": "uint256"
        },
        {
          "indexed": false,
          "internalType": "uint256",
          "name": "_dueDate",
          "type": "uint256"
        },
        {
          "indexed": false,
          "internalType": "uint256",
          "name": "_proposalTimeStamp",
          "type": "uint256"
        }
      ],
      "name": "LendProposed",
      "type": "event"
    },
    {
      "anonymous": false,
      "inputs": [
        {
          "indexed": true,
          "internalType": "address",
          "name": "_collateral",
          "type": "address"
        },
        {
          "indexed": true,
          "internalType": "address",
          "name": "_reserve",
          "type": "address"
        },
        {
          "indexed": true,
          "internalType": "address",
          "name": "_user",
          "type": "address"
        },
        {
          "indexed": false,
          "internalType": "uint256",
          "name": "_purchaseAmount",
          "type": "uint256"
        },
        {
          "indexed": false,
          "internalType": "uint256",
          "name": "_liquidatedCollateralAmount",
          "type": "uint256"
        },
        {
          "indexed": false,
          "internalType": "uint256",
          "name": "_accruedBorrowInterest",
          "type": "uint256"
        },
        {
          "indexed": false,
          "internalType": "address",
          "name": "_liquidator",
          "type": "address"
        },
        {
          "indexed": false,
          "internalType": "bool",
          "name": "_receiveAToken",
          "type": "bool"
        },
        {
          "indexed": false,
          "internalType": "uint256",
          "name": "_timestamp",
          "type": "uint256"
        }
      ],
      "name": "LiquidationCall",
      "type": "event"
    },
    {
      "anonymous": false,
      "inputs": [
        {
          "indexed": true,
          "internalType": "address",
          "name": "_collateral",
          "type": "address"
        },
        {
          "indexed": true,
          "internalType": "address",
          "name": "_reserve",
          "type": "address"
        },
        {
          "indexed": true,
          "internalType": "address",
          "name": "_user",
          "type": "address"
        },
        {
          "indexed": false,
          "internalType": "uint256",
          "name": "_feeLiquidated",
          "type": "uint256"
        },
        {
          "indexed": false,
          "internalType": "uint256",
          "name": "_liquidatedCollateralForFee",
          "type": "uint256"
        },
        {
          "indexed": false,
          "internalType": "uint256",
          "name": "_timestamp",
          "type": "uint256"
        }
      ],
      "name": "OriginationFeeLiquidated",
      "type": "event"
    },
    {
      "anonymous": false,
      "inputs": [
        {
          "indexed": true,
          "internalType": "address",
          "name": "_reserveToReceive",
          "type": "address"
        },
        {
          "indexed": true,
          "internalType": "address",
          "name": "_lender",
          "type": "address"
        },
        {
          "indexed": false,
          "internalType": "address",
          "name": "_reserveForCollateral",
          "type": "address"
        },
        {
          "indexed": false,
          "internalType": "address",
          "name": "_borrower",
          "type": "address"
        },
        {
          "indexed": true,
          "internalType": "uint256",
          "name": "_proposalId",
          "type": "uint256"
        },
        {
          "indexed": false,
          "internalType": "uint256",
          "name": "_amount",
          "type": "uint256"
        },
        {
          "indexed": false,
          "internalType": "bool",
          "name": "_isBorrowProposal",
          "type": "bool"
        },
        {
          "indexed": false,
          "internalType": "uint256",
          "name": "_originationFee",
          "type": "uint256"
        },
        {
          "indexed": false,
          "internalType": "uint256",
          "name": "_timestamp",
          "type": "uint256"
        }
      ],
      "name": "ProposalAccepted",
      "type": "event"
    },
    {
      "anonymous": false,
      "inputs": [
        {
          "indexed": true,
          "internalType": "address",
          "name": "_reserve",
          "type": "address"
        },
        {
          "indexed": true,
          "internalType": "address",
          "name": "_user",
          "type": "address"
        },
        {
          "indexed": false,
          "internalType": "uint256",
          "name": "_amount",
          "type": "uint256"
        },
        {
          "indexed": false,
          "internalType": "uint256",
          "name": "_timestamp",
          "type": "uint256"
        }
      ],
      "name": "RedeemUnderlying",
      "type": "event"
    },
    {
      "anonymous": false,
      "inputs": [
        {
          "indexed": true,
          "internalType": "address",
          "name": "_reserve",
          "type": "address"
        },
        {
          "indexed": true,
          "internalType": "address",
          "name": "_user",
          "type": "address"
        },
        {
          "indexed": true,
          "internalType": "address",
          "name": "_repayer",
          "type": "address"
        },
        {
          "indexed": false,
          "internalType": "uint256",
          "name": "_amountMinusFees",
          "type": "uint256"
        },
        {
          "indexed": false,
          "internalType": "uint256",
          "name": "_fees",
          "type": "uint256"
        },
        {
          "indexed": false,
          "internalType": "uint256",
          "name": "_borrowBalanceIncrease",
          "type": "uint256"
        },
        {
          "indexed": false,
          "internalType": "uint256",
          "name": "_timestamp",
          "type": "uint256"
        }
      ],
      "name": "Repay",
      "type": "event"
    },
    {
      "anonymous": false,
      "inputs": [
        {
          "indexed": true,
          "internalType": "address",
          "name": "_reserve",
          "type": "address"
        },
        {
          "indexed": true,
          "internalType": "address",
          "name": "_user",
          "type": "address"
        }
      ],
      "name": "ReserveUsedAsCollateralDisabled",
      "type": "event"
    },
    {
      "anonymous": false,
      "inputs": [
        {
          "indexed": true,
          "internalType": "address",
          "name": "_reserve",
          "type": "address"
        },
        {
          "indexed": true,
          "internalType": "address",
          "name": "_user",
          "type": "address"
        }
      ],
      "name": "ReserveUsedAsCollateralEnabled",
      "type": "event"
    },
    {
      "inputs": [],
      "name": "LENDINGPOOL_REVISION",
      "outputs": [
        {
          "internalType": "uint256",
          "name": "",
          "type": "uint256"
        }
      ],
      "stateMutability": "view",
      "type": "function"
    },
    {
      "inputs": [],
      "name": "UINT_MAX_VALUE",
      "outputs": [
        {
          "internalType": "uint256",
          "name": "",
          "type": "uint256"
        }
      ],
      "stateMutability": "view",
      "type": "function"
    },
    {
      "inputs": [],
      "name": "addressesProvider",
      "outputs": [
        {
          "internalType": "contract LendingBoardAddressesProvider",
          "name": "",
          "type": "address"
        }
      ],
      "stateMutability": "view",
      "type": "function"
    },
    {
      "inputs": [
        {
          "internalType": "address",
          "name": "_reserve",
          "type": "address"
        },
        {
          "internalType": "uint256",
          "name": "_amount",
          "type": "uint256"
        },
        {
          "internalType": "uint256",
          "name": "_interestRateMode",
          "type": "uint256"
        }
      ],
      "name": "borrow",
      "outputs": [],
      "stateMutability": "nonpayable",
      "type": "function"
    },
    {
      "inputs": [
        {
          "internalType": "address",
          "name": "_reserveToBorrow",
          "type": "address"
        },
        {
          "internalType": "uint256",
          "name": "_amount",
          "type": "uint256"
        },
        {
          "internalType": "address",
          "name": "_reserveForCollateral",
          "type": "address"
        },
        {
          "internalType": "uint256",
          "name": "_interestRate",
          "type": "uint256"
        },
        {
          "internalType": "uint256",
          "name": "_dueDate",
          "type": "uint256"
        }
      ],
      "name": "borrowProposal",
      "outputs": [],
      "stateMutability": "nonpayable",
      "type": "function"
    },
    {
      "inputs": [
        {
          "internalType": "uint256",
          "name": "_proposalId",
          "type": "uint256"
        }
      ],
      "name": "borrowProposalAccept",
      "outputs": [],
      "stateMutability": "nonpayable",
      "type": "function"
    },
    {
      "inputs": [],
      "name": "borrowProposalListCount",
      "outputs": [
        {
          "internalType": "uint256",
          "name": "",
          "type": "uint256"
        }
      ],
      "stateMutability": "view",
      "type": "function"
    },
    {
      "inputs": [],
      "name": "core",
      "outputs": [
        {
          "internalType": "contract LendingBoardCore",
          "name": "",
          "type": "address"
        }
      ],
      "stateMutability": "view",
      "type": "function"
    },
    {
      "inputs": [],
      "name": "dataProvider",
      "outputs": [
        {
          "internalType": "contract LendingBoardDataProvider",
          "name": "",
          "type": "address"
        }
      ],
      "stateMutability": "view",
      "type": "function"
    },
    {
      "inputs": [
        {
          "internalType": "address",
          "name": "_reserve",
          "type": "address"
        },
        {
          "internalType": "uint256",
          "name": "_amount",
          "type": "uint256"
        },
        {
          "internalType": "uint16",
          "name": "_referralCode",
          "type": "uint16"
        }
      ],
      "name": "deposit",
      "outputs": [],
      "stateMutability": "payable",
      "type": "function"
    },
    {
      "inputs": [
        {
          "internalType": "uint256",
          "name": "proposalId",
          "type": "uint256"
        }
      ],
      "name": "getBorrowProposal",
      "outputs": [
        {
          "internalType": "bool",
          "name": "active",
          "type": "bool"
        },
        {
          "internalType": "address",
          "name": "borrower",
          "type": "address"
        },
        {
          "internalType": "address",
          "name": "reserveToBorrow",
          "type": "address"
        },
        {
          "internalType": "uint256",
          "name": "amount",
          "type": "uint256"
        },
        {
          "internalType": "address",
          "name": "reserveForCollateral",
          "type": "address"
        },
        {
          "internalType": "uint256",
          "name": "interestRate",
          "type": "uint256"
        },
        {
          "internalType": "uint256",
          "name": "dueDate",
          "type": "uint256"
        },
        {
          "internalType": "uint256",
          "name": "proposalDate",
          "type": "uint256"
        },
        {
          "internalType": "uint256",
          "name": "ltv",
          "type": "uint256"
        }
      ],
      "stateMutability": "view",
      "type": "function"
    },
    {
      "inputs": [
        {
          "internalType": "uint256",
          "name": "startIdx",
          "type": "uint256"
        },
        {
          "internalType": "uint256",
          "name": "endIdx",
          "type": "uint256"
        }
      ],
      "name": "getBorrowProposalList",
      "outputs": [
        {
          "components": [
            {
              "internalType": "bool",
              "name": "active",
              "type": "bool"
            },
            {
              "internalType": "address",
              "name": "proposer",
              "type": "address"
            },
            {
              "internalType": "address",
              "name": "reserveToReceive",
              "type": "address"
            },
            {
              "internalType": "uint256",
              "name": "amount",
              "type": "uint256"
            },
            {
              "internalType": "address",
              "name": "reserveForCollateral",
              "type": "address"
            },
            {
              "internalType": "uint256",
              "name": "interestRate",
              "type": "uint256"
            },
            {
              "internalType": "uint256",
              "name": "dueDate",
              "type": "uint256"
            },
            {
              "internalType": "uint256",
              "name": "proposalDate",
              "type": "uint256"
            },
            {
              "internalType": "uint256",
              "name": "serviceFee",
              "type": "uint256"
            },
            {
              "internalType": "uint256",
              "name": "ltv",
              "type": "uint256"
            }
          ],
          "internalType": "struct LendingBoardProposeMode.ProposalStructure[]",
          "name": "result",
          "type": "tuple[]"
        }
      ],
      "stateMutability": "view",
      "type": "function"
    },
    {
      "inputs": [
        {
          "internalType": "uint256",
          "name": "proposalId",
          "type": "uint256"
        }
      ],
      "name": "getLendProposal",
      "outputs": [
        {
          "internalType": "bool",
          "name": "active",
          "type": "bool"
        },
        {
          "internalType": "address",
          "name": "lender",
          "type": "address"
        },
        {
          "internalType": "address",
          "name": "reserveToLend",
          "type": "address"
        },
        {
          "internalType": "uint256",
          "name": "amount",
          "type": "uint256"
        },
        {
          "internalType": "address",
          "name": "reserveForCollateral",
          "type": "address"
        },
        {
          "internalType": "uint256",
          "name": "interestRate",
          "type": "uint256"
        },
        {
          "internalType": "uint256",
          "name": "dueDate",
          "type": "uint256"
        },
        {
          "internalType": "uint256",
          "name": "proposalDate",
          "type": "uint256"
        },
        {
          "internalType": "uint256",
          "name": "ltv",
          "type": "uint256"
        }
      ],
      "stateMutability": "view",
      "type": "function"
    },
    {
      "inputs": [
        {
          "internalType": "uint256",
          "name": "startIdx",
          "type": "uint256"
        },
        {
          "internalType": "uint256",
          "name": "endIdx",
          "type": "uint256"
        }
      ],
      "name": "getLendProposalList",
      "outputs": [
        {
          "components": [
            {
              "internalType": "bool",
              "name": "active",
              "type": "bool"
            },
            {
              "internalType": "address",
              "name": "proposer",
              "type": "address"
            },
            {
              "internalType": "address",
              "name": "reserveToReceive",
              "type": "address"
            },
            {
              "internalType": "uint256",
              "name": "amount",
              "type": "uint256"
            },
            {
              "internalType": "address",
              "name": "reserveForCollateral",
              "type": "address"
            },
            {
              "internalType": "uint256",
              "name": "interestRate",
              "type": "uint256"
            },
            {
              "internalType": "uint256",
              "name": "dueDate",
              "type": "uint256"
            },
            {
              "internalType": "uint256",
              "name": "proposalDate",
              "type": "uint256"
            },
            {
              "internalType": "uint256",
              "name": "serviceFee",
              "type": "uint256"
            },
            {
              "internalType": "uint256",
              "name": "ltv",
              "type": "uint256"
            }
          ],
          "internalType": "struct LendingBoardProposeMode.ProposalStructure[]",
          "name": "result",
          "type": "tuple[]"
        }
      ],
      "stateMutability": "view",
      "type": "function"
    },
    {
      "inputs": [
        {
          "internalType": "address",
          "name": "_reserve",
          "type": "address"
        }
      ],
      "name": "getReserveConfigurationData",
      "outputs": [
        {
          "internalType": "uint256",
          "name": "ltv",
          "type": "uint256"
        },
        {
          "internalType": "uint256",
          "name": "liquidationThreshold",
          "type": "uint256"
        },
        {
          "internalType": "uint256",
          "name": "liquidationBonus",
          "type": "uint256"
        },
        {
          "internalType": "address",
          "name": "interestRateStrategyAddress",
          "type": "address"
        },
        {
          "internalType": "bool",
          "name": "usageAsCollateralEnabled",
          "type": "bool"
        },
        {
          "internalType": "bool",
          "name": "borrowingEnabled",
          "type": "bool"
        },
        {
          "internalType": "bool",
          "name": "stableBorrowRateEnabled",
          "type": "bool"
        },
        {
          "internalType": "bool",
          "name": "isActive",
          "type": "bool"
        }
      ],
      "stateMutability": "view",
      "type": "function"
    },
    {
      "inputs": [
        {
          "internalType": "address",
          "name": "_reserve",
          "type": "address"
        }
      ],
      "name": "getReserveData",
      "outputs": [
        {
          "internalType": "uint256",
          "name": "totalLiquidity",
          "type": "uint256"
        },
        {
          "internalType": "uint256",
          "name": "availableLiquidity",
          "type": "uint256"
        },
        {
          "internalType": "uint256",
          "name": "totalBorrowsStable",
          "type": "uint256"
        },
        {
          "internalType": "uint256",
          "name": "totalBorrowsVariable",
          "type": "uint256"
        },
        {
          "internalType": "uint256",
          "name": "liquidityRate",
          "type": "uint256"
        },
        {
          "internalType": "uint256",
          "name": "variableBorrowRate",
          "type": "uint256"
        },
        {
          "internalType": "uint256",
          "name": "stableBorrowRate",
          "type": "uint256"
        },
        {
          "internalType": "uint256",
          "name": "averageStableBorrowRate",
          "type": "uint256"
        },
        {
          "internalType": "uint256",
          "name": "utilizationRate",
          "type": "uint256"
        },
        {
          "internalType": "uint256",
          "name": "liquidityIndex",
          "type": "uint256"
        },
        {
          "internalType": "uint256",
          "name": "variableBorrowIndex",
          "type": "uint256"
        },
        {
          "internalType": "address",
          "name": "aTokenAddress",
          "type": "address"
        },
        {
          "internalType": "uint40",
          "name": "lastUpdateTimestamp",
          "type": "uint40"
        }
      ],
      "stateMutability": "view",
      "type": "function"
    },
    {
      "inputs": [],
      "name": "getReserves",
      "outputs": [
        {
          "internalType": "address[]",
          "name": "",
          "type": "address[]"
        }
      ],
      "stateMutability": "view",
      "type": "function"
    },
    {
      "inputs": [
        {
          "internalType": "address",
          "name": "_user",
          "type": "address"
        }
      ],
      "name": "getUserAccountData",
      "outputs": [
        {
          "internalType": "uint256",
          "name": "totalLiquidityETH",
          "type": "uint256"
        },
        {
          "internalType": "uint256",
          "name": "totalCollateralETH",
          "type": "uint256"
        },
        {
          "internalType": "uint256",
          "name": "totalBorrowsETH",
          "type": "uint256"
        },
        {
          "internalType": "uint256",
          "name": "totalFeesETH",
          "type": "uint256"
        },
        {
          "internalType": "uint256",
          "name": "availableBorrowsETH",
          "type": "uint256"
        },
        {
          "internalType": "uint256",
          "name": "currentLiquidationThreshold",
          "type": "uint256"
        },
        {
          "internalType": "uint256",
          "name": "ltv",
          "type": "uint256"
        },
        {
          "internalType": "uint256",
          "name": "healthFactor",
          "type": "uint256"
        }
      ],
      "stateMutability": "view",
      "type": "function"
    },
    {
      "inputs": [
        {
          "internalType": "address",
          "name": "_reserve",
          "type": "address"
        },
        {
          "internalType": "address",
          "name": "_user",
          "type": "address"
        }
      ],
      "name": "getUserReserveBalance",
      "outputs": [
        {
          "internalType": "uint256",
          "name": "",
          "type": "uint256"
        }
      ],
      "stateMutability": "view",
      "type": "function"
    },
    {
      "inputs": [
        {
          "internalType": "address",
          "name": "_reserve",
          "type": "address"
        },
        {
          "internalType": "address",
          "name": "_user",
          "type": "address"
        }
      ],
      "name": "getUserReserveData",
      "outputs": [
        {
          "internalType": "uint256",
          "name": "currentATokenBalance",
          "type": "uint256"
        },
        {
          "internalType": "uint256",
          "name": "currentBorrowBalance",
          "type": "uint256"
        },
        {
          "internalType": "uint256",
          "name": "principalBorrowBalance",
          "type": "uint256"
        },
        {
          "internalType": "uint256",
          "name": "borrowRateMode",
          "type": "uint256"
        },
        {
          "internalType": "uint256",
          "name": "borrowRate",
          "type": "uint256"
        },
        {
          "internalType": "uint256",
          "name": "liquidityRate",
          "type": "uint256"
        },
        {
          "internalType": "uint256",
          "name": "originationFee",
          "type": "uint256"
        },
        {
          "internalType": "uint256",
          "name": "variableBorrowIndex",
          "type": "uint256"
        },
        {
          "internalType": "uint256",
          "name": "lastUpdateTimestamp",
          "type": "uint256"
        },
        {
          "internalType": "bool",
          "name": "usageAsCollateralEnabled",
          "type": "bool"
        }
      ],
      "stateMutability": "view",
      "type": "function"
    },
    {
      "inputs": [
        {
          "internalType": "contract LendingBoardAddressesProvider",
          "name": "_addressesProvider",
          "type": "address"
        }
      ],
      "name": "initialize",
      "outputs": [],
      "stateMutability": "nonpayable",
      "type": "function"
    },
    {
      "inputs": [
        {
          "internalType": "address",
          "name": "_reserveToLend",
          "type": "address"
        },
        {
          "internalType": "uint256",
          "name": "_amount",
          "type": "uint256"
        },
        {
          "internalType": "address",
          "name": "_reserveForCollateral",
          "type": "address"
        },
        {
          "internalType": "uint256",
          "name": "_interestRate",
          "type": "uint256"
        },
        {
          "internalType": "uint256",
          "name": "_dueDate",
          "type": "uint256"
        }
      ],
      "name": "lendProposal",
      "outputs": [],
      "stateMutability": "nonpayable",
      "type": "function"
    },
    {
      "inputs": [
        {
          "internalType": "uint256",
          "name": "_proposalId",
          "type": "uint256"
        }
      ],
      "name": "lendProposalAccept",
      "outputs": [],
      "stateMutability": "nonpayable",
      "type": "function"
    },
    {
      "inputs": [],
      "name": "lendProposalListCount",
      "outputs": [
        {
          "internalType": "uint256",
          "name": "",
          "type": "uint256"
        }
      ],
      "stateMutability": "view",
      "type": "function"
    },
    {
      "inputs": [
        {
          "internalType": "address",
          "name": "_collateral",
          "type": "address"
        },
        {
          "internalType": "address",
          "name": "_reserve",
          "type": "address"
        },
        {
          "internalType": "address",
          "name": "_user",
          "type": "address"
        },
        {
          "internalType": "uint256",
          "name": "_purchaseAmount",
          "type": "uint256"
        },
        {
          "internalType": "bool",
          "name": "_receiveAToken",
          "type": "bool"
        }
      ],
      "name": "liquidationCall",
      "outputs": [],
      "stateMutability": "payable",
      "type": "function"
    },
    {
      "inputs": [],
      "name": "parametersProvider",
      "outputs": [
        {
          "internalType": "contract LendingBoardParametersProvider",
          "name": "",
          "type": "address"
        }
      ],
      "stateMutability": "view",
      "type": "function"
    },
    {
      "inputs": [
        {
          "internalType": "address",
          "name": "_reserve",
          "type": "address"
        },
        {
          "internalType": "address payable",
          "name": "_user",
          "type": "address"
        },
        {
          "internalType": "uint256",
          "name": "_amount",
          "type": "uint256"
        },
        {
          "internalType": "uint256",
          "name": "_aTokenBalanceAfterRedeem",
          "type": "uint256"
        }
      ],
      "name": "redeemUnderlying",
      "outputs": [],
      "stateMutability": "nonpayable",
      "type": "function"
    },
    {
      "inputs": [
        {
          "internalType": "address",
          "name": "_reserve",
          "type": "address"
        },
        {
          "internalType": "uint256",
          "name": "_amount",
          "type": "uint256"
        },
        {
          "internalType": "address payable",
          "name": "_onBehalfOf",
          "type": "address"
        }
      ],
      "name": "repay",
      "outputs": [],
      "stateMutability": "payable",
      "type": "function"
    },
    {
      "inputs": [
        {
          "internalType": "address",
          "name": "_reserve",
          "type": "address"
        },
        {
          "internalType": "bool",
          "name": "_useAsCollateral",
          "type": "bool"
        }
      ],
      "name": "setUserUseReserveAsCollateral",
      "outputs": [],
      "stateMutability": "nonpayable",
      "type": "function"
    }
  ],
  "bytecode": "0x6080806040523461002b57600160005560006001556000603b556000603d556157849081620000318239f35b600080fdfe60806040526004361015610013575b600080fd5b60003560e01c8062a718a9146102565780630902f1ac1461024d57806328dd2d011461024457806329e6a05f1461023b57806335ea6a75146102325780633815d34c146102295780633cedf2df146102205780633e1501411461021757806348f163ea1461020e57806358707e06146102055780635a3b74b9146101fc5780635ceae9c4146101f357806379cc211e146101ea5780638afaff02146101e15780638fabf76d146101d85780639895e3d8146101cf5780639a91fe9b146101c6578063a429bcaa146101bd578063ab1e8a21146101b4578063b334ed86146101ab578063bf92857c146101a2578063c0c8ab6514610199578063c1bce0b714610190578063c4d66de814610187578063c72c4d101461017e578063d0fc81d214610175578063d2d0e0661461016c578063de314862146101635763f2f4eb261461015b57600080fd5b61000e6130d0565b5061000e6130b1565b5061000e612dd0565b5061000e612db2565b5061000e612d88565b5061000e612c99565b5061000e612666565b5061000e612576565b5061000e612452565b5061000e612428565b5061000e612192565b5061000e6120ce565b5061000e611b9e565b5061000e611adf565b5061000e6114ca565b5061000e611479565b5061000e611317565b5061000e6112c5565b5061000e61105f565b5061000e611035565b5061000e610b8b565b5061000e610a80565b5061000e610a5e565b5061000e61095c565b5061000e6106e8565b5061000e6106c9565b5061000e6105dd565b5061000e6104a5565b5061000e61027a565b6001600160a01b0381160361000e57565b8015150361000e57565b5060a036600319011261000e576004356102938161025f565b60243561029f8161025f565b61039f6000806044356102b18161025f565b608435946102be86610270565b6102c66133f1565b6102cf816154b5565b6102d8876154b5565b6035546102f5906001600160a01b03165b6001600160a01b031690565b91604051968793632bd7cfb760e11b855284600460209a8b935afa938415610449575b8594610416575b5060405162a718a960e01b8982019081526001600160a01b039a8b166024830152938a166044820152989091166064808a0191909152356084890152151560a48801528660c481015b039661037c601f1998898101835282613167565b51915af461039161038b61461a565b9161464a565b8280825183010191016146cb565b906103b0576103ae6001600055565b005b610412926103e8926103ee6103fa9360405195869384016014907302634b8bab4b230ba34b7b7103330b4b632b21d160651b81520190565b90614731565b03908101835282613167565b60405162461bcd60e51b815291829160048301614769565b0390fd5b61036891945061043b90893d8b11610442575b6104338183613167565b810190613188565b939061031f565b503d610429565b61045161319d565b610318565b600091031261000e57565b6020908160408183019282815285518094520193019160005b828110610488575050505090565b83516001600160a01b03168552938101939281019260010161047a565b503461000e5760008060031936011261059d57603654604051630240bc6b60e21b815291908190839060049082906001600160a01b03165afa9081156105a8575b80916104ff575b604051806104fb8482610461565b0390f35b90503d8082843e6105108184613167565b820160209283818303126105a0578051906001600160401b0382116105a4570181601f820112156105a05780519061054782614ef1565b936105556040519586613167565b828552858086019360051b83010193841161059d57508401905b828210610584575050506104fb9150386104ed565b84809183516105928161025f565b81520191019061056f565b80fd5b8280fd5b8380fd5b6105b061319d565b6104e6565b604090600319011261000e576004356105cd8161025f565b906024356105da8161025f565b90565b503461000e576105ec366105b5565b6037546040516328dd2d0160e01b81526001600160a01b039384166004820152918316602483015261014092839183916044918391165afa80156106bc575b6000918283848586918793889589978a9961067b575b50604051998a5260208a015260408901526060880152608087015260a086015260c085015260e08401526101008301521515610120820152f35b985050505050505050506106a59150823d84116106b5575b61069d8183613167565b81019061477a565b9790969195929492919038610641565b503d610693565b6106c461319d565b61062b565b503461000e57600036600319011261000e576020603b54604051908152f35b503461000e57602036600319011261000e576004356107068161025f565b6037546040516335ea6a7560e01b81526001600160a01b0392831660048201526101a0929091839183916024918391165afa801561088b575b600090819282838485868791889389958a978b998c9b6107d4575b506104fb9b9c9d506040519d8e9d8e9b99979593919d9c9a98969492909d6101a08d019e8d5260208d015260408c015260608b015260808a015260a089015260c088015260e0870152610100860152610120850152610140840152600160a01b600190031661016083015264ffffffffff16906101800152565b9c5050505050505050505050509181813d8311610884575b6107f68183613167565b8101031261088057805190602081015190604081015192606082015191608081015160a082015160c083015160e08401516101008501519161012086015193610140870151956101806101608901519861084f8a61025f565b01519864ffffffffff8a168a0361087c576104fb9b9c9d509b9c99909192939495969798998d9c9b61075a565b8d80fd5b5080fd5b503d6107ec565b61089361319d565b61073f565b60208082019080835283518092528060408094019401926000905b8382106108c257505050505090565b90919293948361014060019288516108dc82825115159052565b808401516001600160a01b031682850152808601516001600160a01b031682870152606081810151908301526080808201516001600160a01b03169083015260a0818101519083015260c0808201519083015260e080820151908301526101008082015190830152610120908101519082015201960194939201906108b3565b503461000e57604036600319011261000e57600435602435603b54811015610a0a576109a561099361098e8484613e39565b613db4565b6109a06107d08210614e9a565b614f17565b916000905b828111156109c057604051806104fb8682610898565b806109ff6109db610a0593600052603a602052604060002090565b936109ee6109e882614c86565b95614d64565b6109f88289614f67565b5286614f67565b50614c86565b6109aa565b60405162461bcd60e51b815260206004820152602660248201527f456e6420496e646578206f76657220626f72726f7750726f706f73616c4c69736044820152651d10dbdd5b9d60d21b6064820152608490fd5b503461000e576020610a78610a72366105b5565b906147c9565b604051908152f35b503461000e57602036600319011261000e57600435610a9e8161025f565b603754604051633e15014160e01b81526001600160a01b039283166004820152610100929091839183916024918391165afa8015610b7e575b600090819282838490859286948796610b39575b50604080519788526020880198909852968601969096526001600160a01b039095166060850152931515608084015292151560a083015291151560c082015290151560e08201526101009150f35b9650505050505050610b659150826104fb93903d10610b77575b610b5d8183613167565b8101906149e3565b95978897969591949293929190610aeb565b503d610b53565b610b8661319d565b610ad7565b503461000e5760208060031936011261000e57600490813591610bac614870565b5060008381948252603c8452604093848320610bc790614d64565b80511515600114610bd790614df9565b600160a01b600190039184838884015116918888606086015198878a98858901511697610100015194610c086133f1565b610c11886154b5565b610c1a88615575565b610c238a615636565b610c378b600052603c602052604060002090565b600301546001600160a01b03169b8c91610c5b8d600052603c602052604060002090565b6008015495818b888383603554610c779060018060a01b031690565b6001600160a01b03168d51631f94a27560e31b815296879182905afa9788159c610d46610d9d9c610db19f9c610d8f9c610d759a610d8f9f611028575b839161100b575b50845163b3596f0760e01b8082526001600160a01b039097168882019081529290911697918a908290819060200103818b5afa928315610ffe575b92610fcf575b50610d30610d1b83610d16610d3e94610d168d33906147c9565b613c2d565b6ec097ce7bc90715b34b9f1000000000900490565b9f610d396151c3565b615682565b610d396151fc565b610d528d610d39615248565b519081526001600160a01b03909316908301908152919384928391829160200190565b03915afa918215610fc2575b8a92610f95575b5050613c2d565b670de0b6b3a7640000900490565b90610daa82610d39615297565b10156152de565b610dbd81610d3961542d565b610e37818a87610dd76102e960365460018060a01b031690565b8251630deb1bf960e21b81526001600160a01b038916818f019081523360208201526040810193909352606083019490945260016080830152839182908890829060a00103925af1908115610f88575b8491610f59575b50610d39615466565b603654610e4c906001600160a01b03166102e9565b94853b156105a057895163fa93b2a560e01b81526001600160a01b038516998101998a523360208b015260408a01829052610f3099610f269989987f0fe896ff57f0d00b15c188699fac3b7ce27c564a706118e52c3c45e88c7bab7e96610f099492939091839182908490829060600103925af18015610f4c575b610f33575b508b516001600160a01b03909116815233602082015260408101929092526000606083015260808201929092524260a082015290819060c0820190565b0390a4610f166001600055565b600052603c602052604060002090565b805460ff19169055565b51f35b80610f40610f4692613111565b80610456565b38610ecc565b610f5461319d565b610ec7565b610f7991508b3d8d11610f81575b610f718183613167565b810190613b9d565b905038610e2e565b503d610f67565b610f9061319d565b610e27565b610fb49250803d10610fbb575b610fac8183613167565b8101906133e2565b3880610d88565b503d610fa2565b610fca61319d565b610d81565b610d169250610d1b610d3e92610ff4610d30938d803d10610fbb57610fac8183613167565b9450925050610cfc565b61100661319d565b610cf6565b61102291508a3d8c11610442576104338183613167565b38610cbb565b61103061319d565b610cb4565b503461000e57600036600319011261000e576038546040516001600160a01b039091168152602090f35b503461000e5760408060031936011261000e576004359061107f8261025f565b6024359161108c83610270565b6110946133f1565b61109d816154b5565b6110a681615575565b6036546110bb906001600160a01b03166102e9565b8251630c526de560e11b81526001600160a01b03831660048201523360248201529093906111799060209061115e90829081816044818c5afa9081156112b8575b60009161129b575b5061111081151561452c565b603754611125906001600160a01b03166102e9565b88516376e9d61560e01b81526001600160a01b038916600482015233602482015260448101929092529092839190829081906064820190565b03915afa91821561128e575b600092611261575b505061458b565b833b1561000e578251633e94615360e21b81526001600160a01b0383166004820152336024820152811515604482015260009485908290606490829084905af18015611254575b611241575b50831461120957815133916001600160a01b0316907e058a56ea94653cdf4f152d227ace22d4c00ad99e2a43f58cb7d9e3feb295f2908590a35b610f306001600055565b815133916001600160a01b0316907f44c58d81365b66dd4b1a7f36c25aa97b8c71c361ee4937adc1a00000227db5dd908590a36111ff565b80610f4061124e92613111565b386111c5565b61125c61319d565b6111c0565b6112809250803d10611287575b6112788183613167565b8101906137b1565b3880611172565b503d61126e565b61129661319d565b61116a565b6112b29150823d8411610fbb57610fac8183613167565b38611104565b6112c061319d565b6110fc565b50606036600319011261000e576113106004356112e18161025f565b602435604435916112f18361025f565b6112f96133f1565b611302816154b5565b61130b82615636565b613e50565b6001600055005b503461000e57602036600319011261000e5760043561133a603b54821115614e59565b6000818152603a60205260409020805460ff16906104fb90611367905b5460081c6001600160a01b031690565b9261138f600161138183600052603a602052604060002090565b01546001600160a01b031690565b9060026113a682600052603a602052604060002090565b01546113c1600361138184600052603a602052604060002090565b60046113d784600052603a602052604060002090565b01549060056113f085600052603a602052604060002090565b0154926008611421600661140e88600052603a602052604060002090565b015496600052603a602052604060002090565b015495604051998a998a9592919361010097949a999895919a61012088019b1515885260018060a01b03938480921660208a0152166040880152606087015216608085015260a084015260c083015260e08201520152565b503461000e57600036600319011261000e57602060405160038152f35b60a090600319011261000e576004356114ae8161025f565b90602435906044356114bf8161025f565b906064359060843590565b503461000e576114d936611496565b6114e5949391946133f1565b6114ee846154b5565b6114f784615575565b61150082615636565b611508614870565b94611511613740565b81151580611ad5575b611523906148db565b61152e428411614927565b603654611543906001600160a01b03166102e9565b60405163288d4ff760e21b81526001600160a01b038816600482015290602082602481845afa918215611ac8575b600092611aa7575b506004868960206115946102e960355460018060a01b031690565b604051631f94a27560e31b815294859182905afa928315611a9a575b600093611a70575b50604051632e79732b60e11b81526001600160a01b0382166004820152929361165693611633926020929091611606908481602481865afa908115611a63575b600091611a46575b506137c6565b60405163e240301960e01b81526001600160a01b0390921660048301529092839190829081906024820190565b03915afa908115611a39575b600091611a1a575b5080610160870152101561496a565b61166033896147c9565b603754909190889061167a906001600160a01b03166102e9565b604051633e15014160e01b81526001600160a01b038c16600482015294908b9061010090879060249082905afa958615611a0d575b6000966119c1575b50936117e5846117dd886117ce6117aa7fddda05bca10ccedb67628486050c0637ba56c3b1d4d271f7524748d5e3931c859f9b996117f89961177c6119299f9d8f610d169c8161176c61175d6117779461173a60208e98819c604051808095819463b3596f0760e01b835260048301919091602081019260018060a01b03169052565b03916001600160a01b03165afa9081156119b4575b600091611997575b50613c2d565b61176684614a48565b90613c40565b9e8f92610d39614a64565b613c40565b60405163b3596f0760e01b81526001600160a01b039092166004830152969092839190829081906024820190565b03916001600160a01b03165afa90811561198a575b60009161196b575b5084613c40565b958a6117d8614ab9565b6156e0565b610d39614b18565b6117f182610d39614b68565b1015614bbf565b60395461180d906001600160a01b03166102e9565b604051630e563a7d60e41b8152336004820152602481018590529290602090849060449082905afa92831561195e575b600093611936575b50606061185891019280845215156139fa565b6118658251610d39614c31565b60018a523360208b01526001600160a01b03891660408b015260608a018390526001600160a01b03881660808b01528460a08b01528560c08b01524260e08b015281516101008b01526101208a01526118e5603b54996118cc6118c78c614c86565b603b55565b6118e08b600052603a602052604060002090565b614c96565b51604080519283526001600160a01b039788166020840152820193909352606081019290925260808201929092524260a082015233949093169290819060c0820190565b0390a46103ae6001600055565b61185891935061195660609160203d602011610fbb57610fac8183613167565b939150611845565b61196661319d565b61183d565b611984915060203d602011610fbb57610fac8183613167565b386117c7565b61199261319d565b6117bf565b6119ae91508b3d8d11610fbb57610fac8183613167565b38611757565b6119bc61319d565b61174f565b8a96509984819394989692959b6101003d61010011611a06575b6119e58183613167565b81016119f0916149e3565b50505050505050975050999390949692916116b7565b503d6119db565b611a1561319d565b6116af565b611a33915060203d602011610fbb57610fac8183613167565b38611647565b611a4161319d565b61163f565b611a5d9150853d8711611287576112788183613167565b38611600565b611a6b61319d565b6115f8565b611656935061163391611a91602092833d8511610442576104338183613167565b945091506115b8565b611aa261319d565b6115b0565b611ac191925060203d602011610fbb57610fac8183613167565b9038611579565b611ad061319d565b611571565b506064821061151a565b503461000e57608036600319011261000e57611b69600435611b008161025f565b60243590611b0d8261025f565b611b156133f1565b611b5c60018060a01b0360246020826036541660405192838092631a59df7760e11b825286891660048301525afa908115611b91575b600091611b73575b50163314613447565b60643591604435916134cd565b6103ae6001600055565b611b8b915060203d8111610442576104338183613167565b38611b53565b611b9961319d565b611b4b565b503461000e577ff8b6062ca08c00ea54f74d7f53f049ed4cb014a7787c62250e6dfa1229d7d460611bce36611496565b9092611bdb9592956133f1565b611be4856154b5565b611bed85615575565b611bf681615636565b611929611c01614870565b96866004611c0d614f91565b92881515806120c4575b611c20906148db565b611c2b428811614927565b6036548690611c42906001600160a01b03166102e9565b60405163288d4ff760e21b81526001600160a01b0386168582019081529091906020908390819083010381845afa9182156120b7575b600092612096575b50603554602090611c99906001600160a01b03166102e9565b604051631f94a27560e31b815296879182905afa948515612089575b600095612062575b50604051632e79732b60e11b81526001600160a01b0387166004820152611d4f918491611d079060208180602481015b0381865afa908115612055575b60009161203c57506137c6565b60405163e240301960e01b81526001600160a01b038916600482015290602090829060249082905afa90811561202f575b600091612010575b50806101608a01521015615018565b611d61611d5c33876147c9565b613c04565b603754909190611d79906001600160a01b03166102e9565b604051633e15014160e01b81526001600160a01b0386166004820152959061010090879060249082905afa958615612003575b600096611fba575b5060405163b3596f0760e01b81526001600160a01b03909716600488015294959394611e3294611e2b928892611e229261176691611e1c91899160209082908180602481015b03916001600160a01b03165afa908115611fad575b600091611f945750613c2d565b91614a48565b846117d861508f565b10156150ee565b603954611e47906001600160a01b03166102e9565b604051630e563a7d60e41b8152336004820152602481018790529390602090859060449082905afa938415611f87575b600094611f59575b5090611e966060611ed393019480865215156139fa565b611ea38451610d39615172565b60018b523360208c01526001600160a01b038a1660408c015260608b018690526001600160a01b031660808b0152565b8660a08a01528460c08a01524260e08a015281516101008a0152610120890152611f1f603d5498611f0b611f068b614c86565b603d55565b6118e08a600052603c602052604060002090565b5160408051938452602084019690965294820194909452606081019190915242608082015233936001600160a01b031692819060a0820190565b611ed3929194506060611f7d611e969260203d602011610fbb57610fac8183613167565b9592935050611e7f565b611f8f61319d565b611e77565b6119ae915060203d602011610fbb57610fac8183613167565b611fb561319d565b611e0f565b611e32959650611e2b92611766611e1c87611dfa6020611fed611e22976101003d61010011610b7757610b5d8183613167565b505050505050509c9b5050505050509250611db4565b61200b61319d565b611dac565b612029915060203d602011610fbb57610fac8183613167565b38611d40565b61203761319d565b611d38565b611a5d915060203d602011611287576112788183613167565b61205d61319d565b611cfa565b611d4f919550612081849160203d602011610442576104338183613167565b959150611cbd565b61209161319d565b611cb5565b6120b091925060203d602011610fbb57610fac8183613167565b9038611c80565b6120bf61319d565b611c78565b5060648910611c17565b503461000e57604036600319011261000e57600435602435603d5481101561213b5761210061099361098e8484613e39565b916000905b8281111561211b57604051806104fb8682610898565b806109ff6109db61213693600052603c602052604060002090565b612105565b60405162461bcd60e51b815260206004820152602960248201527f456e6420496e64657820657863656564696e67204c656e6450726f706f73616c604482015268131a5cdd10dbdd5b9d60ba1b6064820152608490fd5b503461000e57602036600319011261000e576004356121af614870565b50600090808252603a602052604090826121ca838220614d64565b916121da60018451151514614df9565b838301516060840151602085015161010090950151909490916001600160a01b0391821691166122086133f1565b612211816154b5565b61221a81615575565b61222386615636565b61223c600361138186600052603a602052604060002090565b926122618761224e611d5c33866147c9565b61225a81610d39615350565b10156153af565b61226d81610d3961542d565b6122ef6122d489836122896102e960365460018060a01b031690565b8251630deb1bf960e21b81526001600160a01b03808916600483015289166024820152604481018d9052606481019290925260016084830152909283919082908c90829060a4820190565b03925af190811561241b575b88916124045750610d39615466565b603654612304906001600160a01b03166102e9565b90813b1561240057885163fa93b2a560e01b81526001600160a01b0384811660048301528516602482015260448101899052610f3098610f269888977f0fe896ff57f0d00b15c188699fac3b7ce27c564a706118e52c3c45e88c7bab7e9592936123c393919290918290606490829084905af180156123f3575b6123e0575b508b516001600160a01b0391821681529616602087015260408601919091526001606086015260808501919091524260a0850152339390819060c0820190565b0390a46123d06001600055565b600052603a602052604060002090565b80610f406123ed92613111565b38612383565b6123fb61319d565b61237e565b8680fd5b610f7991508a3d8c11610f8157610f718183613167565b61242361319d565b6122e0565b503461000e57600036600319011261000e576037546040516001600160a01b039091168152602090f35b503461000e57602036600319011261000e576004356124708161025f565b603754604051632fe4a15f60e21b81526001600160a01b0392831660048201529161010091829184916024918391165afa8015612569575b600090819282838490859286948796612502575b506104fb969798506040519889988994919260e0969399989794919961010087019a8752602087015260408601526060850152608084015260a083015260c08201520152565b96975050505050505082813d8311612562575b61251f8183613167565b8101031261059d57508051602082015160408301516060840151608085015160a086015160c087015160e0909701519496879695949093919291906104fb6124bc565b503d612515565b61257161319d565b6124a8565b503461000e57602036600319011261000e57600435612599603d54821115614e59565b6000818152603c60205260409020805460ff16906104fb906125ba90611357565b926125d4600161138183600052603c602052604060002090565b9060026125eb82600052603c602052604060002090565b0154612606600361138184600052603c602052604060002090565b600461261c84600052603c602052604060002090565b015490600561263585600052603c602052604060002090565b0154926008611421600661265388600052603c602052604060002090565b015496600052603c602052604060002090565b503461000e57606036600319011261000e5761268360043561025f565b60443561268e6133f1565b6126996004356154b5565b6126a4600435615575565b6126af602435615636565b6126b7613740565b603654612956906040906126d3906001600160a01b03166102e9565b8151632e79732b60e11b8152600480356001600160a01b031690820152612701906020818060248101611ced565b846002148015612c8f575b6127159061383e565b61271e8561381e565b6101c084019061272e8683613896565b825163e240301960e01b8152600480356001600160a01b03169082015261277a90602081602481865afa908115612c82575b600091612c63575b508061016088015260243511156138a2565b60375461290590612793906001600160a01b03166102e9565b8451632c6d0e9b60e01b8152336004820152602090610100906128249061281f9061281b9084816024818a5afa908115612c56575b8d60009182908390849085908697612c11575b509260c09285928796956127fa6101e06128159a98019a8b9015159052565b60408501528d8401528b83015260e08201520152151561393c565b51151590565b1590565b613988565b6039546128819061283d906001600160a01b03166102e9565b8851630e563a7d60e41b81523360048201526024803590820152908490829060449082905afa908115612c04575b600091612be7575b508060608c015215156139fa565b606089015160e08a0151918a0151838b015189516312737c3360e01b8152600480356001600160a01b031690820152602480359082015260448101939093526064830193909352608482015260a4810191909152918290818060c4810103915afa908115612bda575b600091612bbb575b508060a088015260c08701511015613a50565b600182516129128161381e565b61291b8161381e565b14612aad575b60608501519151916129328361381e565b60008451809681958294630deb1bf960e21b84526024353360043560048701613bb3565b03925af1928315612aa0575b6000918294612a7d575b5061012083019384526101a08301918252603654612992906001600160a01b03166102e9565b803b1561000e5760405163fa93b2a560e01b8152600480356001600160a01b031690820152336024808301919091523560448201527fe27fbad0754d6c730a8161378bc066f66fac114445968dcfc26d42a3002960139360609290919060009082908183816064810103925af18015612a70575b612a5d575b505193015193516040805160243581526020810193909352820193909352606081019390935260808301919091524260a083015233916001600160a01b0360043516919060c090a36103ae6001600055565b80610f40612a6a92613111565b38612a0b565b612a7861319d565b612a06565b909350612a99915060403d604011610f8157610f718183613167565b923861296c565b612aa861319d565b612962565b825163710ba6c360e11b8152600480356001600160a01b03169082015233602480830191909152356044820152612afd90602081606481865afa908115612bae575b600091612b8f575b50613ab9565b612b5e612b54612b4d60046020612b1e6102e960385460018060a01b031690565b88516335adc96b60e21b815292839182905afa908115612b82575b600091612b63575b50610160890151613c2d565b6064900490565b6024351115613b2b565b612921565b612b7c915060203d602011610fbb57610fac8183613167565b38612b41565b612b8a61319d565b612b39565b612ba8915060203d602011611287576112788183613167565b38612af7565b612bb661319d565b612aef565b612bd4915060203d602011610fbb57610fac8183613167565b386128f2565b612be261319d565b6128ea565b612bfe9150843d8611610fbb57610fac8183613167565b38612873565b612c0c61319d565b61286b565b9250505060c094506128159350612c3e9150883d8a11612c4f575b612c368183613167565b8101906138fb565b9995985093955091939092506127db565b503d612c2c565b612c5e61319d565b6127c8565b612c7c915060203d602011610fbb57610fac8183613167565b38612768565b612c8a61319d565b612760565b506001851461270c565b503461000e57602036600319011261000e57600435612cb78161025f565b60ff600254169081159182612d7f575b8015612d73575b15612d1757612ce19082612cf6576131aa565b612ce757005b6103ae60ff1960025416600255565b612d08600160ff196002541617600255565b612d126003600155565b6131aa565b60405162461bcd60e51b815260206004820152602e60248201527f436f6e747261637420696e7374616e63652068617320616c726561647920626560448201526d195b881a5b9a5d1a585b1a5e995960921b6064820152608490fd5b50600154600311612cce565b50303b15612cc7565b503461000e57600036600319011261000e576035546040516001600160a01b039091168152602090f35b503461000e57600036600319011261000e5760206040516000198152f35b50606036600319011261000e576004803590612deb8261025f565b6024359160443561ffff81160361000e57612e046133f1565b612e0d83615636565b603654612e22906001600160a01b03166102e9565b60408051631a59df7760e11b81526001600160a01b0384168186019081529095919491929060209081908890819083010381855afa9687156130a4575b600097613085575b5085516370a0823160e01b8152338482019081526001600160a01b039889169391908390829081906020010381875afa928315613078575b600093613059575b5050803b1561000e578651632f35bfe960e21b81526001600160a01b038716858201908152336020820152604081018790529215606084015291600091839182908490829060800103925af1801561304c575b613039575b50803b1561000e5784516394362e8b60e01b81523383820190815260208101859052909160009183919082908490829060400103925af1801561302c575b613019575b50603654612f58906001600160a01b03166102e9565b803b1561000e5784516328fcf4d360e01b81526001600160a01b038516928101928352336020840152604083018490526000967fdcbc1c05240f31ff3ad067ef1ee35ce4997762752e3a095284754544f4c709d793612fec93919291899183919082908190606001039134905af1801561300c575b612ff9575b508551938452426020850152339416929081906040820190565b0390a3610f306001600055565b80610f4061300692613111565b38612fd2565b61301461319d565b612fcd565b80610f4061302692613111565b38612f42565b61303461319d565b612f3d565b80610f4061304692613111565b38612eff565b61305461319d565b612efa565b613070929350803d10610fbb57610fac8183613167565b903880612ea7565b61308061319d565b612e9f565b8161309d9298503d8911610442576104338183613167565b9538612e67565b6130ac61319d565b612e5f565b503461000e57600036600319011261000e576020603d54604051908152f35b503461000e57600036600319011261000e576036546040516001600160a01b039091168152602090f35b50634e487b7160e01b600052604160045260246000fd5b6001600160401b03811161312457604052565b61312c6130fa565b604052565b606081019081106001600160401b0382111761312457604052565b604081019081106001600160401b0382111761312457604052565b90601f801991011681019081106001600160401b0382111761312457604052565b9081602091031261000e57516105da8161025f565b506040513d6000823e3d90fd5b603580546001600160a01b0319166001600160a01b03929092169182179055613336906131d6906102e9565b6040518091630774f5f560e21b825281600460209384935afa9182156133d5575b6000926133b6575b50603680546001600160a01b0319166001600160a01b0393841617905561327a826004836132376102e960355460018060a01b031690565b6040516352cb335b60e11b815292839182905afa9081156133a9575b60009161338c575b501660018060a01b03166001600160601b0360a01b6037541617603755565b6132d8826004836132956102e960355460018060a01b031690565b604051639fabe17560e01b815292839182905afa90811561337f575b600091613362575b501660018060a01b03166001600160601b0360a01b6038541617603855565b60355460049082906132f2906001600160a01b03166102e9565b604051633efbbf0f60e21b815292839182905afa918215613355575b600092613338575b50501660018060a01b03166001600160601b0360a01b6039541617603955565b565b61334e9250803d10610442576104338183613167565b3880613316565b61335d61319d565b61330e565b6133799150843d8611610442576104338183613167565b386132b9565b61338761319d565b6132b1565b6133a39150843d8611610442576104338183613167565b3861325b565b6133b161319d565b613253565b816133ce9293503d8411610442576104338183613167565b90386131ff565b6133dd61319d565b6131f7565b9081602091031261000e575190565b600260005414613402576002600055565b60405162461bcd60e51b815260206004820152601f60248201527f5265656e7472616e637947756172643a207265656e7472616e742063616c6c006044820152606490fd5b1561344e57565b60405162461bcd60e51b815260206004820152604b60248201527f5468652063616c6c6572206f6620746869732066756e6374696f6e2063616e2060448201527f6f6e6c79206265207468652061546f6b656e20636f6e7472616374206f66207460648201526a686973207265736572766560a81b608482015260a490fd5b926134d7846154b5565b6134e083615636565b6036546134f5906001600160a01b03166102e9565b60405163e240301960e01b81526001600160a01b0386166004820152613538908590602081602481875afa90811561369f575b600091613681575b5010156136ac565b803b1561000e5760405163afcdbea360e01b81526001600160a01b0386811660048301528416602482015260448101859052911560648301526000908290608490829084905af18015613674575b613661575b506036546135a1906001600160a01b03166102e9565b803b1561000e5760405163fa93b2a560e01b81526001600160a01b03858116600483015283166024820152604481018490527f9c4ed599cd8555b9c1e8cd7643240d7d71eb76b792948c49fcb4d411f7b6b3c69261363c929091906000908290606490829084905af18015613654575b613641575b50604080519485524260208601526001600160a01b039182169590911693918291820190565b0390a3565b80610f4061364e92613111565b38613616565b61365c61319d565b613611565b80610f4061366e92613111565b3861358b565b61367c61319d565b613586565b613699915060203d8111610fbb57610fac8183613167565b38613530565b6136a761319d565b613528565b156136b357565b60405162461bcd60e51b8152602060048201526031602482015260008051602061572f83398151915260448201527061696c61626c6520746f2072656465656d60781b6064820152608490fd5b6040519061020082018281106001600160401b0382111761312457604052565b6040519061014082018281106001600160401b0382111761312457604052565b613748613700565b9060008083528060208401528060408401528060608401528060808401528060a08401528060c08401528060e08401528061010084015280610120840152806101408401528061016084015280610180840152806101a0840152806101c08401526101e0830152565b9081602091031261000e57516105da81610270565b156137cd57565b60405162461bcd60e51b8152602060048201526024808201527f52657365727665206973206e6f7420656e61626c656420666f7220626f72726f60448201526377696e6760e01b6064820152608490fd5b6003111561382857565b634e487b7160e01b600052602160045260246000fd5b1561384557565b60405162461bcd60e51b815260206004820152602360248201527f496e76616c696420696e7465726573742072617465206d6f64652073656c65636044820152621d195960ea1b6064820152608490fd5b60038210156138285752565b156138a957565b60405162461bcd60e51b8152602060048201526036602482015260008051602061572f83398151915260448201527561696c61626c6520696e20746865207265736572766560501b6064820152608490fd5b91908261010091031261000e5781519160208101519160408201519160608101519160808201519160a08101519160e060c08301519201516105da81610270565b1561394357565b60405162461bcd60e51b815260206004820152601b60248201527f54686520636f6c6c61746572616c2062616c616e6365206973203000000000006044820152606490fd5b1561398f57565b60405162461bcd60e51b815260206004820152603f60248201527f54686520626f72726f7765722063616e20616c7265616479206265206c69717560448201527f69646174656420736f2068652063616e6e6f7420626f72726f77206d6f7265006064820152608490fd5b15613a0157565b60405162461bcd60e51b815260206004820152602160248201527f54686520616d6f756e7420746f20626f72726f7720697320746f6f20736d616c6044820152601b60fa1b6064820152608490fd5b15613a5757565b60405162461bcd60e51b815260206004820152603460248201527f5468657265206973206e6f7420656e6f75676820636f6c6c61746572616c20746044820152736f20636f7665722061206e657720626f72726f7760601b6064820152608490fd5b15613ac057565b60405162461bcd60e51b815260206004820152603960248201527f557365722063616e6e6f7420626f72726f77207468652073656c65637465642060448201527f616d6f756e742077697468206120737461626c652072617465000000000000006064820152608490fd5b15613b3257565b60405162461bcd60e51b815260206004820152603c60248201527f5573657220697320747279696e6720746f20626f72726f7720746f6f206d756360448201527f68206c6971756964697479206174206120737461626c652072617465000000006064820152608490fd5b919082604091031261000e576020825192015190565b6001600160a01b039182168152911660208201526040810191909152606081019190915260a0810192919060038210156138285760800152565b50634e487b7160e01b600052601160045260246000fd5b670de0b6b3a7640000908060001904821181151516613c21570290565b613c29613bed565b0290565b8060001904821181151516613c21570290565b8115613c4a570490565b634e487b7160e01b600052601260045260246000fd5b6040519061010082018281106001600160401b03821117613cb0575b6040528160e06000918281528260208201528260408201528260608201528260808201528260a08201528260c08201520152565b613cb86130fa565b613c7c565b9081606091031261000e578051916040602083015192015190565b15613cdf57565b60405162461bcd60e51b815260206004820152602960248201527f546865207573657220646f6573206e6f74206861766520616e7920626f72726f604482015268772070656e64696e6760b81b6064820152608490fd5b15613d3d57565b60a460405162461bcd60e51b815260206004820152604460248201527f546f207265706179206f6e20626568616c66206f6620616e207573657220616e60448201527f206578706c6963697420616d6f756e7420746f207265706179206973206e65656064820152633232b21760e11b6084820152fd5b6001906001198111613dc4570190565b613dcc613bed565b0190565b81198111613dc4570190565b15613de357565b60405162461bcd60e51b815260206004820152602860248201527f496e76616c6964206d73672e76616c75652073656e7420666f72207468652072604482015267195c185e5b595b9d60c21b6064820152608490fd5b818110613e44570390565b613e4c613bed565b0390565b613e58613c60565b603654909190613e70906001600160a01b03166102e9565b60408051639fb8afcd60e01b81526001600160a01b038481166004830152871660248201529491939091606086604481885afa95861561451f575b600090819082986144ea575b5083850197885260208085019182529184528451633faacc6b60e21b81526001600160a01b0387811660048301528a1660248201529180836044818b5afa9283156144dd575b6000936144be575b5060e0850192835273eeeeeeeeeeeeeeeeeeeeeeeeeeeeeeeeeeeeeeee6001600160a01b03888116918214606088019081529199909691958c9190613f4c86511515613cd8565b613f676000198214938a85159182966144b0575b5050613d36565b613f748651885190613dd0565b926080850193808552816144a6575b5061449e575b50613f9761281b8851151590565b8015614493575b613fa790613ddc565b8151865181111561429c575050613fc360a09151865190613e39565b9101818152603654909390613fe0906001600160a01b03166102e9565b91855192818d51935114813b1561000e5760008f916140488e9183978f51998a988997889663da12d96f60e01b885260048801949196959260a0949160c0870198600180881b0380921688521660208701526040860152606085015260808401521515910152565b03925af1801561428f575b61427c575b5082519081614166575b50506036546140849061407d906001600160a01b03166102e9565b9351151590565b600090156141605750614098825134613e39565b955b815196843b1561000e5786516328fcf4d360e01b81526001600160a01b0392909216600483015233602483015260448201979097527fb718f0b14f03d8c3adf35b15e3da52421b042ac879e5a689011a8b1e0036773d9661413b94600091839160649183915af18015614153575b614140575b5051905196519351938493339916974292859094939260609260808301968352602083015260408201520152565b0390a4565b80610f4061414d92613111565b3861410d565b61415b61319d565b614108565b9561409a565b60365461417b906001600160a01b03166102e9565b906141868651151590565b60009015614276575082915b60355460049083906141ac906001600160a01b03166102e9565b8b51637744894b60e11b815292839182905afa928315614269575b60009361424a575b5050803b1561000e57885163c7d1423760e01b81526001600160a01b038b81166004830152336024830152604482019590955291909316606482015291600091839160849183915af1801561423d575b61422a575b80614062565b80610f4061423792613111565b38614224565b61424561319d565b61421f565b614261929350803d10610442576104338183613167565b9038806141cf565b61427161319d565b6141c7565b91614192565b80610f4061428992613111565b38614058565b61429761319d565b614053565b9250929350935089969997949751823b1561000e578a5163da12d96f60e01b81526001600160a01b0387811660048301528d1660248201526000604482018190526064820193909352608481019190915260a4810182905291829060c490829084905af18015614486575b614473575b5060365461432d90614326906001600160a01b03166102e9565b9651151590565b6000901561446e575081515b82516035546004908490614355906001600160a01b03166102e9565b8c51637744894b60e11b815292839182905afa938415614461575b600094614442575b5050873b1561000e57895163c7d1423760e01b81526001600160a01b0395861660048201528b8616602482015260448101919091529190931660648201527fb718f0b14f03d8c3adf35b15e3da52421b042ac879e5a689011a8b1e0036773d9561413b9360009183916084918391905af18015614435575b614422575b50519251955192839233981696429184606091949392608082019560008352602083015260408201520152565b80610f4061442f92613111565b386143f5565b61443d61319d565b6143f0565b614459929450803d10610442576104338183613167565b913880614378565b61446961319d565b614370565b614339565b80610f4061448092613111565b3861430c565b61448e61319d565b614307565b508151341015613f9e565b825238613f89565b9050811038613f83565b9091501633148f8b90613f60565b816144d69294503d8511610fbb57610fac8183613167565b9138613f05565b6144e561319d565b613efd565b91505061450f91965060603d8111614518575b6145078183613167565b810190613cbd565b96919038613eb7565b503d6144fd565b61452761319d565b613eab565b1561453357565b60405162461bcd60e51b815260206004820152602a60248201527f5573657220646f6573206e6f74206861766520616e79206c69717569646974796044820152690819195c1bdcda5d195960b21b6064820152608490fd5b1561459257565b60405162461bcd60e51b815260206004820152603060248201527f55736572206465706f73697420697320616c7265616479206265696e6720757360448201526f195908185cc818dbdb1b185d195c985b60821b6064820152608490fd5b6020906001600160401b03811161460d575b601f01601f19160190565b6146156130fa565b614602565b3d15614645573d9061462b826145f0565b916146396040519384613167565b82523d6000602084013e565b606090565b1561465157565b60405162461bcd60e51b815260206004820152601760248201527f4c69717569646174696f6e2063616c6c206661696c65640000000000000000006044820152606490fd5b918091926000905b8282106146b65750116146af575050565b6000910152565b9150806020918301518186015201829161469e565b919060408382031261000e578251926020810151906001600160401b03821161000e570181601f8201121561000e578051614705816145f0565b926147136040519485613167565b8184526020828401011161000e576105da9160208085019101614696565b90613dcc60209282815194859201614696565b9060209161475d81518092818552858086019101614696565b601f01601f1916010190565b9060206105da928181520190614744565b91908261014091031261000e5781519160208101519160408201519160608101519160808201519160a08101519160c08201519160e0810151916101206101008301519201516105da81610270565b6037546040516328dd2d0160e01b81526001600160a01b0392831660048201529282166024840152670de0b6b3a7640000929161014091829184916044918391165afa918215614863575b6000918293614839575b505081811061482c57030490565b614834613bed565b030490565b614853935080919250903d106106b55761069d8183613167565b505050505050505090388061481e565b61486b61319d565b614814565b6040519061014082018281106001600160401b038211176148ce575b604052816101206000918281528260208201528260408201528260608201528260808201528260a08201528260c08201528260e0820152826101008201520152565b6148d66130fa565b61488c565b156148e257565b60405162461bcd60e51b815260206004820152601b60248201527f496e76616c696420496e746572657374205261746520496e70757400000000006044820152606490fd5b1561492e57565b60405162461bcd60e51b8152602060048201526014602482015273125b9d985b1a5908111d594811185d194814d95d60621b6044820152606490fd5b1561497157565b60405162461bcd60e51b8152602060048201526050602482015260008051602061572f83398151915260448201527f61696c61626c6520696e20746865207265736572766520746f206d616b65206160648201526f08189bdc9c9bddc81c1c9bdc1bdcd85b60821b608482015260a490fd5b91908261010091031261000e578151916020810151916040820151916060810151614a0d8161025f565b916080820151614a1c81610270565b9160a0810151614a2b81610270565b9160e060c0830151614a3c81610270565b9201516105da81610270565b604d8111614a57575b600a0a90565b614a5f613bed565b614a51565b60405190614a7182613131565b603382527202fb932b9b2b93b32aa37a137b93937bb901d1606d1b6040837f2020203d3e204c42504d203a72657365727665446563696d616c7320666f722060208201520152565b60405190614ac682613131565b603a82527f6f72726f77416d6f756e744554482c20626f72726f774c5456200000000000006040837f2020203d3e204c42504d203a205f616d6f756e742c207265717565737465644260208201520152565b60405190614b2582613131565b602e82526d037bb90283937b837b9b0b6101d160951b6040837f2020203d3e204c42504d203a20455448204e656564656420666f7220426f727260208201520152565b60405190614b7582613131565b6035825274037b9102137b93937bb90283937b837b9b0b6101d1605d1b6040837f2020203d3e204c42504d203a20436f6c6c61746572616c204e6565646564206660208201520152565b15614bc657565b60405162461bcd60e51b815260206004820152603d60248201527f5468657265206973206e6f7420656e6f75676820636f6c6c61746572616c207460448201527f6f20636f7665722061206e657720626f72726f772070726f706f73616c0000006064820152608490fd5b60405190614c3e82613131565b60338252720103137b93937bb90383937b837b9b0b6101d1606d1b6040837f2020203d3e204c42504d203a20426f72726f772046656520666f72207468697360208201520152565b6001906000198114613dc4570190565b90610120600891614cbc614caa8251151590565b859060ff801983541691151516179055565b6020810151614cf0906001600160a01b03168554610100600160a81b03191660089190911b610100600160a81b0316178555565b60408101516001850180546001600160a01b039283166001600160a01b03199182161790915560608301516002870155608083015160038701805491909316911617905560a0810151600485015560c0810151600585015560e0810151600685015561010081015160078501550151910155565b906008614d6f613720565b92614d968154614d8460ff8216879015159052565b831c6001600160a01b03166020860152565b60018101546001600160a01b031660408501526002810154606085015260038101546001600160a01b03166080850152600481015460a0850152600581015460c0850152600681015460e085015260078101546101008501520154610120830152565b15614e0057565b60405162461bcd60e51b815260206004820152602b60248201527f4f6e6c792041637469766520426f72726f772050726f706f73616c2063616e2060448201526a1899481058d8d95c1d195960aa1b6064820152608490fd5b15614e6057565b60405162461bcd60e51b8152602060048201526012602482015271125b9d985b1a59081c1c9bdc1bdcd85b125960721b6044820152606490fd5b15614ea157565b60405162461bcd60e51b815260206004820152602260248201527f4d6178696d756d203230303020697465726174696f6e207065722072657175656044820152611cdd60f21b6064820152608490fd5b6020906001600160401b038111614f0a575b60051b0190565b614f126130fa565b614f03565b90614f2182614ef1565b614f2e6040519182613167565b8281528092614f3f601f1991614ef1565b019060005b828110614f5057505050565b602090614f5b614870565b82828501015201614f44565b8051821015614f7b5760209160051b010190565b634e487b7160e01b600052603260045260246000fd5b604051906101c082018281106001600160401b0382111761500b575b604052816101a06000918281528260208201528260408201528260608201528260808201528260a08201528260c08201528260e082015282610100820152826101208201528261014082015282610160820152826101808201520152565b6150136130fa565b614fad565b1561501f57565b60405162461bcd60e51b815260206004820152604e602482015260008051602061572f83398151915260448201527f61696c61626c6520696e20746865207265736572766520746f206d616b65206160648201526d081b195b99081c1c9bdc1bdcd85b60921b608482015260a490fd5b6040519061509c82613131565b604082527f656e64416d6f756e74496e5765692c20636f6c6c61746572616c4c5456203a206040837f2020203d3e204c42504d203a205f616d6f756e742c207265717565737465644c60208201520152565b156150f557565b60405162461bcd60e51b815260206004820152604960248201527f5468657265206973206e6f7420656e6f7567682062616c616e636520746f206c60448201527f656e6420696e206f7264657220746f20636f7665722061206e6577206c656e64606482015268081c1c9bdc1bdcd85b60ba1b608482015260a490fd5b6040519061517f82613131565b602f82526e032b73210383937b837b9b0b6101d1608d1b6040837f2020203d3e204c42504d203a204c656e642046656520666f722074686973206c60208201520152565b604051906151d08261314c565b601d82527f2020203d3e204c42504d203a20636f6c6c61746572616c4c7476203a200000006020830152565b6040519061520982613131565b602a825269031b2a4b72bb2b4901d160b51b6040837f2020203d3e204c42504d203a20636f6c6c61746572616c4f7261636c6550726960208201520152565b6040519061525582613131565b602d82526c0383634b2b22b30b63ab2901d1609d1b6040837f2020203d3e204c42504d203a2075736572436f6c6c61746572616c4c7476417060208201520152565b604051906152a482613131565b602582526403a34101d160dd1b6040837f2020203d3e204c42504d203a20626f72726f7741737365745072696365496e4560208201520152565b156152e557565b60405162461bcd60e51b815260206004820152603f60248201527f426f72726f77657220646f65736e2774206861766520656e6f75676820636f6c60448201527f6c61746572616c20746f20616363657074204c656e642050726f706f73616c006064820152608490fd5b6040519061535d82613131565b603d82527f626c6520526573657276652042616c616e636520696e20576569203a200000006040837f2020203d3e204c42504d203a20757365722043757272656e7420417661696c6160208201520152565b156153b657565b60a460405162461bcd60e51b815260206004820152604460248201527f4c656e64657220646f65736e2774206861766520656e6f75676820526573657260448201527f76652042616c616e636520746f2041636365707420426f72726f772050726f706064820152631bdcd85b60e21b6084820152fd5b6040519061543a8261314c565b601b82527f2020203d3e204c42504d203a205365727669636520466565203a2000000000006020830152565b6040519061547382613131565b602d82526c01024b731b932b0b9b2b2101d1609d1b6040837f2020203d3e204c42504d203a205573657220426f72726f772042616c616e636560208201520152565b603654604051630283aeb760e11b81526001600160a01b0392831660048201529160209183916024918391165afa908115615568575b60009161554a575b50156154fb57565b60405162461bcd60e51b815260206004820152602160248201527f416374696f6e20726571756972657320616e20616374697665207265736572766044820152606560f81b6064820152608490fd5b615562915060203d8111611287576112788183613167565b386154f3565b61557061319d565b6154eb565b603654604051634a08accb60e01b81526001600160a01b0392831660048201529160209183916024918391165afa908115615629575b60009161560b575b506155ba57565b60405162461bcd60e51b8152602060048201526024808201527f416374696f6e20726571756972657320616e20756e667265657a6564207265736044820152636572766560e01b6064820152608490fd5b615623915060203d8111611287576112788183613167565b386155b3565b61563161319d565b6155ab565b1561563d57565b60405162461bcd60e51b815260206004820152601d60248201527f416d6f756e74206d7573742062652067726561746572207468616e20300000006044820152606490fd5b6156c56156b19161333693604051938492632d839cb360e21b6020850152604060248501526064840190614744565b90604483015203601f198101835282613167565b600080916020815191016a636f6e736f6c652e6c6f675afa50565b6156c591613336946157109460405195869463a7a8785360e01b60208701526080602487015260a4860190614744565b9260448501526064840152608483015203601f19810183528261316756fe5468657265206973206e6f7420656e6f756768206c6971756964697479206176a2646970667358221220383ae552e87c68a10a10b0857a04e7d6360c23abb137359445ae3f089ffbcd5764736f6c634300080d0033",
  "linkReferences": {},
  "deployedLinkReferences": {}
}