{
  "_format": "hh-sol-artifact-1",
  "contractName": "LendingBoardProposeMode",
  "sourceName": "contracts/lendingboard/LendingBoardProposeMode.sol",
  "abi": [
    {
      "anonymous": false,
      "inputs": [
        {
          "indexed": true,
          "internalType": "address",
          "name": "_reserve",
          "type": "address"
        },
        {
          "indexed": true,
          "internalType": "address",
          "name": "_user",
          "type": "address"
        },
        {
          "indexed": false,
          "internalType": "uint256",
          "name": "_amount",
          "type": "uint256"
        },
        {
          "indexed": false,
          "internalType": "uint256",
          "name": "_borrowRateMode",
          "type": "uint256"
        },
        {
          "indexed": false,
          "internalType": "uint256",
          "name": "_borrowRate",
          "type": "uint256"
        },
        {
          "indexed": false,
          "internalType": "uint256",
          "name": "_originationFee",
          "type": "uint256"
        },
        {
          "indexed": false,
          "internalType": "uint256",
          "name": "_borrowBalanceIncrease",
          "type": "uint256"
        },
        {
          "indexed": false,
          "internalType": "uint256",
          "name": "_timestamp",
          "type": "uint256"
        }
      ],
      "name": "Borrow",
      "type": "event"
    },
    {
      "anonymous": false,
      "inputs": [
        {
          "indexed": true,
          "internalType": "address",
          "name": "_reserveToBorrow",
          "type": "address"
        },
        {
          "indexed": true,
          "internalType": "address",
          "name": "_user",
          "type": "address"
        },
        {
          "indexed": true,
          "internalType": "uint256",
          "name": "_proposalId",
          "type": "uint256"
        },
        {
          "indexed": false,
          "internalType": "uint256",
          "name": "_amount",
          "type": "uint256"
        },
        {
          "indexed": false,
          "internalType": "address",
          "name": "_reserveForCollateral",
          "type": "address"
        },
        {
          "indexed": false,
          "internalType": "uint256",
          "name": "_interestRate",
          "type": "uint256"
        },
        {
          "indexed": false,
          "internalType": "uint256",
          "name": "_originationFee",
          "type": "uint256"
        },
        {
          "indexed": false,
          "internalType": "uint256",
          "name": "_dueDate",
          "type": "uint256"
        },
        {
          "indexed": false,
          "internalType": "uint256",
          "name": "_timestamp",
          "type": "uint256"
        }
      ],
      "name": "BorrowProposed",
      "type": "event"
    },
    {
      "anonymous": false,
      "inputs": [
        {
          "indexed": true,
          "internalType": "address",
          "name": "_reserve",
          "type": "address"
        },
        {
          "indexed": true,
          "internalType": "address",
          "name": "_user",
          "type": "address"
        },
        {
          "indexed": false,
          "internalType": "uint256",
          "name": "_amount",
          "type": "uint256"
        },
        {
          "indexed": false,
          "internalType": "uint256",
          "name": "_timestamp",
          "type": "uint256"
        }
      ],
      "name": "Deposit",
      "type": "event"
    },
    {
      "anonymous": false,
      "inputs": [
        {
          "indexed": true,
          "internalType": "address",
          "name": "_collateral",
          "type": "address"
        },
        {
          "indexed": true,
          "internalType": "address",
          "name": "_reserve",
          "type": "address"
        },
        {
          "indexed": true,
          "internalType": "address",
          "name": "_user",
          "type": "address"
        },
        {
          "indexed": false,
          "internalType": "uint256",
          "name": "_purchaseAmount",
          "type": "uint256"
        },
        {
          "indexed": false,
          "internalType": "uint256",
          "name": "_liquidatedCollateralAmount",
          "type": "uint256"
        },
        {
          "indexed": false,
          "internalType": "uint256",
          "name": "_accruedBorrowInterest",
          "type": "uint256"
        },
        {
          "indexed": false,
          "internalType": "address",
          "name": "_liquidator",
          "type": "address"
        },
        {
          "indexed": false,
          "internalType": "bool",
          "name": "_receiveAToken",
          "type": "bool"
        },
        {
          "indexed": false,
          "internalType": "uint256",
          "name": "_timestamp",
          "type": "uint256"
        }
      ],
      "name": "LiquidationCall",
      "type": "event"
    },
    {
      "anonymous": false,
      "inputs": [
        {
          "indexed": true,
          "internalType": "address",
          "name": "_collateral",
          "type": "address"
        },
        {
          "indexed": true,
          "internalType": "address",
          "name": "_reserve",
          "type": "address"
        },
        {
          "indexed": true,
          "internalType": "address",
          "name": "_user",
          "type": "address"
        },
        {
          "indexed": false,
          "internalType": "uint256",
          "name": "_feeLiquidated",
          "type": "uint256"
        },
        {
          "indexed": false,
          "internalType": "uint256",
          "name": "_liquidatedCollateralForFee",
          "type": "uint256"
        },
        {
          "indexed": false,
          "internalType": "uint256",
          "name": "_timestamp",
          "type": "uint256"
        }
      ],
      "name": "OriginationFeeLiquidated",
      "type": "event"
    },
    {
      "anonymous": false,
      "inputs": [
        {
          "indexed": true,
          "internalType": "address",
          "name": "_reserve",
          "type": "address"
        },
        {
          "indexed": true,
          "internalType": "address",
          "name": "_user",
          "type": "address"
        },
        {
          "indexed": false,
          "internalType": "uint256",
          "name": "_amount",
          "type": "uint256"
        },
        {
          "indexed": false,
          "internalType": "uint256",
          "name": "_timestamp",
          "type": "uint256"
        }
      ],
      "name": "RedeemUnderlying",
      "type": "event"
    },
    {
      "anonymous": false,
      "inputs": [
        {
          "indexed": true,
          "internalType": "address",
          "name": "_reserve",
          "type": "address"
        },
        {
          "indexed": true,
          "internalType": "address",
          "name": "_user",
          "type": "address"
        },
        {
          "indexed": true,
          "internalType": "address",
          "name": "_repayer",
          "type": "address"
        },
        {
          "indexed": false,
          "internalType": "uint256",
          "name": "_amountMinusFees",
          "type": "uint256"
        },
        {
          "indexed": false,
          "internalType": "uint256",
          "name": "_fees",
          "type": "uint256"
        },
        {
          "indexed": false,
          "internalType": "uint256",
          "name": "_borrowBalanceIncrease",
          "type": "uint256"
        },
        {
          "indexed": false,
          "internalType": "uint256",
          "name": "_timestamp",
          "type": "uint256"
        }
      ],
      "name": "Repay",
      "type": "event"
    },
    {
      "anonymous": false,
      "inputs": [
        {
          "indexed": true,
          "internalType": "address",
          "name": "_reserve",
          "type": "address"
        },
        {
          "indexed": true,
          "internalType": "address",
          "name": "_user",
          "type": "address"
        }
      ],
      "name": "ReserveUsedAsCollateralDisabled",
      "type": "event"
    },
    {
      "anonymous": false,
      "inputs": [
        {
          "indexed": true,
          "internalType": "address",
          "name": "_reserve",
          "type": "address"
        },
        {
          "indexed": true,
          "internalType": "address",
          "name": "_user",
          "type": "address"
        }
      ],
      "name": "ReserveUsedAsCollateralEnabled",
      "type": "event"
    },
    {
      "inputs": [],
      "name": "LENDINGPOOL_REVISION",
      "outputs": [
        {
          "internalType": "uint256",
          "name": "",
          "type": "uint256"
        }
      ],
      "stateMutability": "view",
      "type": "function"
    },
    {
      "inputs": [],
      "name": "UINT_MAX_VALUE",
      "outputs": [
        {
          "internalType": "uint256",
          "name": "",
          "type": "uint256"
        }
      ],
      "stateMutability": "view",
      "type": "function"
    },
    {
      "inputs": [],
      "name": "addressesProvider",
      "outputs": [
        {
          "internalType": "contract LendingBoardAddressesProvider",
          "name": "",
          "type": "address"
        }
      ],
      "stateMutability": "view",
      "type": "function"
    },
    {
      "inputs": [
        {
          "internalType": "address",
          "name": "_reserve",
          "type": "address"
        },
        {
          "internalType": "uint256",
          "name": "_amount",
          "type": "uint256"
        },
        {
          "internalType": "uint256",
          "name": "_interestRateMode",
          "type": "uint256"
        }
      ],
      "name": "borrow",
      "outputs": [],
      "stateMutability": "nonpayable",
      "type": "function"
    },
    {
      "inputs": [
        {
          "internalType": "address",
          "name": "_reserveToBorrow",
          "type": "address"
        },
        {
          "internalType": "uint256",
          "name": "_amount",
          "type": "uint256"
        },
        {
          "internalType": "address",
          "name": "_reserveForCollateral",
          "type": "address"
        },
        {
          "internalType": "uint256",
          "name": "_interestRate",
          "type": "uint256"
        },
        {
          "internalType": "uint256",
          "name": "_dueDate",
          "type": "uint256"
        }
      ],
      "name": "borrowProposal",
      "outputs": [],
      "stateMutability": "nonpayable",
      "type": "function"
    },
    {
      "inputs": [
        {
          "internalType": "uint256",
          "name": "proposalId",
          "type": "uint256"
        }
      ],
      "name": "borrowProposalAccept",
      "outputs": [],
      "stateMutability": "nonpayable",
      "type": "function"
    },
    {
      "inputs": [],
      "name": "borrowProposalListCount",
      "outputs": [
        {
          "internalType": "uint256",
          "name": "",
          "type": "uint256"
        }
      ],
      "stateMutability": "view",
      "type": "function"
    },
    {
      "inputs": [],
      "name": "core",
      "outputs": [
        {
          "internalType": "contract LendingBoardCore",
          "name": "",
          "type": "address"
        }
      ],
      "stateMutability": "view",
      "type": "function"
    },
    {
      "inputs": [],
      "name": "dataProvider",
      "outputs": [
        {
          "internalType": "contract LendingBoardDataProvider",
          "name": "",
          "type": "address"
        }
      ],
      "stateMutability": "view",
      "type": "function"
    },
    {
      "inputs": [
        {
          "internalType": "address",
          "name": "_reserve",
          "type": "address"
        },
        {
          "internalType": "uint256",
          "name": "_amount",
          "type": "uint256"
        },
        {
          "internalType": "uint16",
          "name": "_referralCode",
          "type": "uint16"
        }
      ],
      "name": "deposit",
      "outputs": [],
      "stateMutability": "payable",
      "type": "function"
    },
    {
      "inputs": [
        {
          "internalType": "uint256",
          "name": "proposalId",
          "type": "uint256"
        }
      ],
      "name": "getBorrowProposal",
      "outputs": [
        {
          "internalType": "bool",
          "name": "active",
          "type": "bool"
        },
        {
          "internalType": "address",
          "name": "borrower",
          "type": "address"
        },
        {
          "internalType": "address",
          "name": "reserveToBorrow",
          "type": "address"
        },
        {
          "internalType": "uint256",
          "name": "amount",
          "type": "uint256"
        },
        {
          "internalType": "address",
          "name": "reserveForCollateral",
          "type": "address"
        },
        {
          "internalType": "uint256",
          "name": "interestRate",
          "type": "uint256"
        },
        {
          "internalType": "uint256",
          "name": "dueDate",
          "type": "uint256"
        },
        {
          "internalType": "uint256",
          "name": "proposalDate",
          "type": "uint256"
        },
        {
          "internalType": "uint256",
          "name": "ltv",
          "type": "uint256"
        }
      ],
      "stateMutability": "view",
      "type": "function"
    },
    {
      "inputs": [
        {
          "internalType": "uint256",
          "name": "startIdx",
          "type": "uint256"
        },
        {
          "internalType": "uint256",
          "name": "endIdx",
          "type": "uint256"
        }
      ],
      "name": "getBorrowProposalList",
      "outputs": [
        {
          "components": [
            {
              "internalType": "bool",
              "name": "active",
              "type": "bool"
            },
            {
              "internalType": "address",
              "name": "borrower",
              "type": "address"
            },
            {
              "internalType": "address",
              "name": "reserveToBorrow",
              "type": "address"
            },
            {
              "internalType": "uint256",
              "name": "amount",
              "type": "uint256"
            },
            {
              "internalType": "address",
              "name": "reserveForCollateral",
              "type": "address"
            },
            {
              "internalType": "uint256",
              "name": "interestRate",
              "type": "uint256"
            },
            {
              "internalType": "uint256",
              "name": "dueDate",
              "type": "uint256"
            },
            {
              "internalType": "uint256",
              "name": "proposalDate",
              "type": "uint256"
            },
            {
              "internalType": "uint256",
              "name": "ltv",
              "type": "uint256"
            }
          ],
          "internalType": "struct LendingBoardProposeMode.BorrowProposal[]",
          "name": "result",
          "type": "tuple[]"
        }
      ],
      "stateMutability": "view",
      "type": "function"
    },
    {
      "inputs": [
        {
          "internalType": "address",
          "name": "_reserve",
          "type": "address"
        }
      ],
      "name": "getReserveConfigurationData",
      "outputs": [
        {
          "internalType": "uint256",
          "name": "ltv",
          "type": "uint256"
        },
        {
          "internalType": "uint256",
          "name": "liquidationThreshold",
          "type": "uint256"
        },
        {
          "internalType": "uint256",
          "name": "liquidationBonus",
          "type": "uint256"
        },
        {
          "internalType": "address",
          "name": "interestRateStrategyAddress",
          "type": "address"
        },
        {
          "internalType": "bool",
          "name": "usageAsCollateralEnabled",
          "type": "bool"
        },
        {
          "internalType": "bool",
          "name": "borrowingEnabled",
          "type": "bool"
        },
        {
          "internalType": "bool",
          "name": "stableBorrowRateEnabled",
          "type": "bool"
        },
        {
          "internalType": "bool",
          "name": "isActive",
          "type": "bool"
        }
      ],
      "stateMutability": "view",
      "type": "function"
    },
    {
      "inputs": [
        {
          "internalType": "address",
          "name": "_reserve",
          "type": "address"
        }
      ],
      "name": "getReserveData",
      "outputs": [
        {
          "internalType": "uint256",
          "name": "totalLiquidity",
          "type": "uint256"
        },
        {
          "internalType": "uint256",
          "name": "availableLiquidity",
          "type": "uint256"
        },
        {
          "internalType": "uint256",
          "name": "totalBorrowsStable",
          "type": "uint256"
        },
        {
          "internalType": "uint256",
          "name": "totalBorrowsVariable",
          "type": "uint256"
        },
        {
          "internalType": "uint256",
          "name": "liquidityRate",
          "type": "uint256"
        },
        {
          "internalType": "uint256",
          "name": "variableBorrowRate",
          "type": "uint256"
        },
        {
          "internalType": "uint256",
          "name": "stableBorrowRate",
          "type": "uint256"
        },
        {
          "internalType": "uint256",
          "name": "averageStableBorrowRate",
          "type": "uint256"
        },
        {
          "internalType": "uint256",
          "name": "utilizationRate",
          "type": "uint256"
        },
        {
          "internalType": "uint256",
          "name": "liquidityIndex",
          "type": "uint256"
        },
        {
          "internalType": "uint256",
          "name": "variableBorrowIndex",
          "type": "uint256"
        },
        {
          "internalType": "address",
          "name": "aTokenAddress",
          "type": "address"
        },
        {
          "internalType": "uint40",
          "name": "lastUpdateTimestamp",
          "type": "uint40"
        }
      ],
      "stateMutability": "view",
      "type": "function"
    },
    {
      "inputs": [],
      "name": "getReserves",
      "outputs": [
        {
          "internalType": "address[]",
          "name": "",
          "type": "address[]"
        }
      ],
      "stateMutability": "view",
      "type": "function"
    },
    {
      "inputs": [
        {
          "internalType": "address",
          "name": "_user",
          "type": "address"
        }
      ],
      "name": "getUserAccountData",
      "outputs": [
        {
          "internalType": "uint256",
          "name": "totalLiquidityETH",
          "type": "uint256"
        },
        {
          "internalType": "uint256",
          "name": "totalCollateralETH",
          "type": "uint256"
        },
        {
          "internalType": "uint256",
          "name": "totalBorrowsETH",
          "type": "uint256"
        },
        {
          "internalType": "uint256",
          "name": "totalFeesETH",
          "type": "uint256"
        },
        {
          "internalType": "uint256",
          "name": "availableBorrowsETH",
          "type": "uint256"
        },
        {
          "internalType": "uint256",
          "name": "currentLiquidationThreshold",
          "type": "uint256"
        },
        {
          "internalType": "uint256",
          "name": "ltv",
          "type": "uint256"
        },
        {
          "internalType": "uint256",
          "name": "healthFactor",
          "type": "uint256"
        }
      ],
      "stateMutability": "view",
      "type": "function"
    },
    {
      "inputs": [
        {
          "internalType": "address",
          "name": "_reserve",
          "type": "address"
        },
        {
          "internalType": "address",
          "name": "_user",
          "type": "address"
        }
      ],
      "name": "getUserReserveData",
      "outputs": [
        {
          "internalType": "uint256",
          "name": "currentATokenBalance",
          "type": "uint256"
        },
        {
          "internalType": "uint256",
          "name": "currentBorrowBalance",
          "type": "uint256"
        },
        {
          "internalType": "uint256",
          "name": "principalBorrowBalance",
          "type": "uint256"
        },
        {
          "internalType": "uint256",
          "name": "borrowRateMode",
          "type": "uint256"
        },
        {
          "internalType": "uint256",
          "name": "borrowRate",
          "type": "uint256"
        },
        {
          "internalType": "uint256",
          "name": "liquidityRate",
          "type": "uint256"
        },
        {
          "internalType": "uint256",
          "name": "originationFee",
          "type": "uint256"
        },
        {
          "internalType": "uint256",
          "name": "variableBorrowIndex",
          "type": "uint256"
        },
        {
          "internalType": "uint256",
          "name": "lastUpdateTimestamp",
          "type": "uint256"
        },
        {
          "internalType": "bool",
          "name": "usageAsCollateralEnabled",
          "type": "bool"
        }
      ],
      "stateMutability": "view",
      "type": "function"
    },
    {
      "inputs": [
        {
          "internalType": "contract LendingBoardAddressesProvider",
          "name": "_addressesProvider",
          "type": "address"
        }
      ],
      "name": "initialize",
      "outputs": [],
      "stateMutability": "nonpayable",
      "type": "function"
    },
    {
      "inputs": [
        {
          "internalType": "address",
          "name": "_collateral",
          "type": "address"
        },
        {
          "internalType": "address",
          "name": "_reserve",
          "type": "address"
        },
        {
          "internalType": "address",
          "name": "_user",
          "type": "address"
        },
        {
          "internalType": "uint256",
          "name": "_purchaseAmount",
          "type": "uint256"
        },
        {
          "internalType": "bool",
          "name": "_receiveAToken",
          "type": "bool"
        }
      ],
      "name": "liquidationCall",
      "outputs": [],
      "stateMutability": "payable",
      "type": "function"
    },
    {
      "inputs": [],
      "name": "parametersProvider",
      "outputs": [
        {
          "internalType": "contract LendingBoardParametersProvider",
          "name": "",
          "type": "address"
        }
      ],
      "stateMutability": "view",
      "type": "function"
    },
    {
      "inputs": [
        {
          "internalType": "address",
          "name": "_reserve",
          "type": "address"
        },
        {
          "internalType": "address payable",
          "name": "_user",
          "type": "address"
        },
        {
          "internalType": "uint256",
          "name": "_amount",
          "type": "uint256"
        },
        {
          "internalType": "uint256",
          "name": "_aTokenBalanceAfterRedeem",
          "type": "uint256"
        }
      ],
      "name": "redeemUnderlying",
      "outputs": [],
      "stateMutability": "nonpayable",
      "type": "function"
    },
    {
      "inputs": [
        {
          "internalType": "address",
          "name": "_reserve",
          "type": "address"
        },
        {
          "internalType": "uint256",
          "name": "_amount",
          "type": "uint256"
        },
        {
          "internalType": "address payable",
          "name": "_onBehalfOf",
          "type": "address"
        }
      ],
      "name": "repay",
      "outputs": [],
      "stateMutability": "payable",
      "type": "function"
    },
    {
      "inputs": [
        {
          "internalType": "address",
          "name": "_reserve",
          "type": "address"
        },
        {
          "internalType": "bool",
          "name": "_useAsCollateral",
          "type": "bool"
        }
      ],
      "name": "setUserUseReserveAsCollateral",
      "outputs": [],
      "stateMutability": "nonpayable",
      "type": "function"
    }
  ],
  "bytecode": "0x6080806040523461002557600160005560006001556000603b556140f1908161002b8239f35b600080fdfe60806040526004361015610013575b600080fd5b60003560e01c8062a718a9146101de5780630902f1ac146101d557806328dd2d01146101cc57806329e6a05f146101c357806335ea6a75146101ba5780633815d34c146101b15780633e150141146101a857806358707e061461019f5780635a3b74b9146101965780635ceae9c41461018d57806379cc211e146101845780638afaff021461017b5780638fabf76d146101725780639895e3d814610169578063ab1e8a2114610160578063b334ed8614610157578063bf92857c1461014e578063c1bce0b714610145578063c4d66de81461013c578063c72c4d1014610133578063d0fc81d21461012a578063d2d0e066146101215763f2f4eb261461011957600080fd5b61000e612256565b5061000e611f75565b5061000e611f57565b5061000e611f2d565b5061000e611e3e565b5061000e611829565b5061000e611705565b5061000e6116db565b5061000e61168e565b5061000e6115cf565b5061000e610f67565b5061000e610f4a565b5061000e610d98565b5061000e610d46565b5061000e610ac7565b5061000e610a9d565b5061000e610992565b5061000e6108e1565b5061000e61068c565b5061000e61066d565b5061000e61053e565b5061000e61042d565b5061000e610202565b6001600160a01b0381160361000e57565b8015150361000e57565b5060a036600319011261000e5760043561021b816101e7565b602435610227816101e7565b610327600080604435610239816101e7565b60843594610246866101f8565b61024e612562565b61025781613e96565b61026087613e96565b60355461027d906001600160a01b03165b6001600160a01b031690565b91604051968793632bd7cfb760e11b855284600460209a8b935afa9384156103d1575b859461039e575b5060405162a718a960e01b8982019081526001600160a01b039a8b166024830152938a166044820152989091166064808a0191909152356084890152151560a48801528660c481015b0396610304601f19988981018352826122d4565b51915af46103196103136137ac565b916137dc565b82808251830101910161385d565b90610338576103366001600055565b005b61039a92610370926103766103829360405195869384016014907302634b8bab4b230ba34b7b7103330b4b632b21d160651b81520190565b906138c4565b039081018352826122d4565b60405162461bcd60e51b8152918291600483016138fc565b0390fd5b6102f09194506103c390893d8b116103ca575b6103bb81836122d4565b8101906122f6565b93906102a7565b503d6103b1565b6103d961230e565b6102a0565b600091031261000e57565b6020908160408183019282815285518094520193019160005b828110610410575050505090565b83516001600160a01b031685529381019392810192600101610402565b503461000e5760008060031936011261052657603654604051630240bc6b60e21b815291908190839060049082906001600160a01b03165afa908115610531575b8091610487575b6040518061048384826103e9565b0390f35b90503d8082843e61049881846122d4565b820160209283818303126105295780519067ffffffffffffffff821161052d570181601f82011215610529578051906104d082613df5565b936104de60405195866122d4565b828552858086019360051b83010193841161052657508401905b82821061050d57505050610483915038610475565b848091835161051b816101e7565b8152019101906104f8565b80fd5b8280fd5b8380fd5b61053961230e565b61046e565b503461000e57604036600319011261000e5760043561055c816101e7565b60243590610569826101e7565b6037546040516328dd2d0160e01b81526001600160a01b03928316600482015292821660248401526101409291839183916044918391165afa8015610660575b600090819282838485908692879488968998610616575b5061048398999a506040519a8b9a8b9895926101209895929b9a9794919b6101408b019c8b5260208b015260408a01526060890152608088015260a087015260c086015260e08501526101008401521515910152565b9850505050505050505061064491508261048393903d10610659575b61063c81836122d4565b810190613972565b97998a999897919692959394939291906105c0565b503d610632565b61066861230e565b6105a9565b503461000e57600036600319011261000e576020603b54604051908152f35b503461000e57602036600319011261000e576004356106aa816101e7565b6037546040516335ea6a7560e01b81526001600160a01b0392831660048201526101a0929091839183916024918391165afa801561082f575b600090819282838485868791889389958a978b998c9b610778575b506104839b9c9d506040519d8e9d8e9b99979593919d9c9a98969492909d6101a08d019e8d5260208d015260408c015260608b015260808a015260a089015260c088015260e0870152610100860152610120850152610140840152600160a01b600190031661016083015264ffffffffff16906101800152565b9c5050505050505050505050509181813d8311610828575b61079a81836122d4565b8101031261082457805190602081015190604081015192606082015191608081015160a082015160c083015160e0840151610100850151916101208601519361014087015195610180610160890151986107f38a6101e7565b01519864ffffffffff8a168a03610820576104839b9c9d509b9c99909192939495969798998d9c9b6106fe565b8d80fd5b5080fd5b503d610790565b61083761230e565b6106e3565b60208082019080835283518092528060408094019401926000905b83821061086657505050505090565b8451805115158752838101516001600160a01b039081168589015282820151811683890152606080830151908901526080808301519091169088015260a0808201519088015260c0808201519088015260e0808201519088015261010090810151908701526101209095019493820193600190910190610857565b503461000e57604036600319011261000e57600435602435610906603b548210613d43565b61092d61091b6109168484612fca565b612f45565b6109286107d08210613d9e565b613e1c565b916000905b828111156109485760405180610483868261083c565b8061098761096361098d93600052603a602052604060002090565b9361097661097082613be5565b95613cb8565b6109808289613e6c565b5286613e6c565b50613be5565b610932565b503461000e57602036600319011261000e576004356109b0816101e7565b603754604051633e15014160e01b81526001600160a01b039283166004820152610100929091839183916024918391165afa8015610a90575b600090819282838490859286948796610a4b575b50604080519788526020880198909852968601969096526001600160a01b039095166060850152931515608084015292151560a083015291151560c082015290151560e08201526101009150f35b9650505050505050610a7791508261048393903d10610a89575b610a6f81836122d4565b8101906139c1565b959788979695919492939291906109fd565b503d610a65565b610a9861230e565b6109e9565b503461000e57600036600319011261000e576038546040516001600160a01b039091168152602090f35b503461000e5760408060031936011261000e5760043590610ae7826101e7565b60243591610af4836101f8565b610afc612562565b610b0581613e96565b610b0e81613f56565b603654610b23906001600160a01b0316610271565b8251630c526de560e11b81526001600160a01b0383166004820152336024820152909390610be190602090610bc690829081816044818c5afa908115610d39575b600091610d0c575b50610b788115156136bd565b603754610b8d906001600160a01b0316610271565b88516376e9d61560e01b81526001600160a01b038916600482015233602482015260448101929092529092839190829081906064820190565b03915afa918215610cff575b600092610cd2575b505061371c565b833b1561000e578251633e94615360e21b81526001600160a01b0383166004820152336024820152811515604482015260009485908290606490829084905af18015610cc5575b610cac575b508314610c7457815133916001600160a01b0316907e058a56ea94653cdf4f152d227ace22d4c00ad99e2a43f58cb7d9e3feb295f2908590a35b610c716001600055565b51f35b815133916001600160a01b0316907f44c58d81365b66dd4b1a7f36c25aa97b8c71c361ee4937adc1a00000227db5dd908590a3610c67565b80610cb9610cbf92612297565b806103de565b38610c2d565b610ccd61230e565b610c28565b610cf19250803d10610cf8575b610ce981836122d4565b810190612936565b3880610bda565b503d610cdf565b610d0761230e565b610bd2565b610d2c9150823d8411610d32575b610d2481836122d4565b810190612553565b38610b6c565b503d610d1a565b610d4161230e565b610b64565b50606036600319011261000e57610d91600435610d62816101e7565b60243560443591610d72836101e7565b610d7a612562565b610d8381613e96565b610d8c82614017565b612fe1565b6001600055005b503461000e57602036600319011261000e57600435603b548111610f1057610dd4610dcd82600052603a602052604060002090565b5460ff1690565b610483610dfe610dee84600052603a602052604060002090565b5460081c6001600160a01b031690565b92610e266001610e1883600052603a602052604060002090565b01546001600160a01b031690565b906002610e3d82600052603a602052604060002090565b0154610e586003610e1884600052603a602052604060002090565b6004610e6e84600052603a602052604060002090565b0154906005610e8785600052603a602052604060002090565b0154926007610eb86006610ea588600052603a602052604060002090565b015496600052603a602052604060002090565b015495604051998a998a9592919361010097949a999895919a61012088019b1515885260018060a01b03938480921660208a0152166040880152606087015216608085015260a084015260c083015260e08201520152565b60405162461bcd60e51b8152602060048201526012602482015271125b9d985b1a59081c1c9bdc1bdcd85b125960721b6044820152606490fd5b503461000e57600036600319011261000e57602060405160038152f35b503461000e5760a036600319011261000e57610f846004356101e7565b610f8f6044356101e7565b610f97612562565b610fa2600435613e96565b610fad600435613f56565b610fb8602435614017565b610fc061390d565b610fc86128c5565b60365461128f90610fe1906001600160a01b0316610271565b60405163288d4ff760e21b8152600480356001600160a01b03169082015290602082602481845afa9182156115c2575b60009261159a575b5060355461126a91600491602090611039906001600160a01b0316610271565b604051631f94a27560e31b815293849182905afa91821561158d575b600092611568575b506001875261110290336020890152604051632e79732b60e11b8152600480356001600160a01b0316908201526110b29060208180602481015b0381865afa90811561155b575b60009161153c575b5061294b565b60405163e240301960e01b8152600480356001600160a01b03169082015290602090829081806024810103915afa90811561152f575b600091611510575b50806101608801526024351115612a27565b6037546112269061111b906001600160a01b0316610271565b6040516328dd2d0160e01b8152604480356001600160a01b0316600483015233602483015261116a9190610140908190839081875afa918215611503575b60009182936114d9575b5050612fca565b604051633e15014160e01b8152600480356001600160a01b0316908201529095909161010090839081806024810103915afa9182156114cc575b600092611496575b5060405163b3596f0760e01b81526001600160a01b03600480358216908301526112219261121c926112149261120e9161120891602090829060249082908e165afa908115611489575b60009161146a575b5060243590612dbd565b91613a26565b90612dd0565b602435612dbd565b612d9b565b612dd0565b60405163b3596f0760e01b81526001600160a01b0360443581166004830152909260209184916024918391165afa91821561145d575b60009261143c575b50612dd0565b9061127c81611277613a42565b614063565b61128882611277613a8d565b1015613ae4565b6039546112a4906001600160a01b0316610271565b604051630e563a7d60e41b8152336004820152602480359082015290602090829060449082905afa90811561142f575b600091611410575b506112ef60608301918083521515612b91565b6001600160a01b0360043516604084015260243560608401526001600160a01b036044351660808401527fddda05bca10ccedb67628486050c0637ba56c3b1d4d271f7524748d5e3931c856113f96064359283151580611406575b61135390613b56565b8360a087015260206084359561136a428811613ba2565b8660c08901524260e089015201516101008701526113af603b549661139661139189613be5565b603b55565b6113aa88600052603a602052604060002090565b613bf5565b516040805160243581526001600160a01b036044358116602083015291810195909552606085019190915260808401949094524260a08401523393600435169290819060c0820190565b0390a46103366001600055565b506064841061134a565b611429915060203d602011610d3257610d2481836122d4565b386112dc565b61143761230e565b6112d4565b61145691925060203d602011610d3257610d2481836122d4565b9038611264565b61146561230e565b61125c565b611483915060203d602011610d3257610d2481836122d4565b386111fe565b61149161230e565b6111f6565b6112219192506112146114bc61121c926101003d61010011610a8957610a6f81836122d4565b50505050505050939250506111ac565b6114d461230e565b6111a4565b6114f3935080919250903d106106595761063c81836122d4565b5050505050505050903880611163565b61150b61230e565b611159565b611529915060203d602011610d3257610d2481836122d4565b386110f0565b61153761230e565b6110e8565b611555915060203d602011610cf857610ce981836122d4565b386110ac565b61156361230e565b6110a4565b6111029192506115869060203d6020116103ca576103bb81836122d4565b919061105d565b61159561230e565b611055565b61126a9192506115ba60049160203d602011610d3257610d2481836122d4565b929150611019565b6115ca61230e565b611011565b503461000e57608036600319011261000e576116596004356115f0816101e7565b602435906115fd826101e7565b611605612562565b61164c60018060a01b0360246020826036541660405192838092631a59df7760e11b825286891660048301525afa908115611681575b600091611663575b501633146125b8565b606435916044359161263e565b6103366001600055565b61167b915060203d81116103ca576103bb81836122d4565b38611643565b61168961230e565b61163b565b503461000e57602036600319011261000e576004356116ab61390d565b5080600052603a6020526116c26040600020613cb8565b506000908152603a60205260409020805460ff19169055005b503461000e57600036600319011261000e576037546040516001600160a01b039091168152602090f35b503461000e57602036600319011261000e57600435611723816101e7565b603754604051632fe4a15f60e21b81526001600160a01b0392831660048201529161010091829184916024918391165afa801561181c575b6000908192828384908592869487966117b5575b50610483969798506040519889988994919260e0969399989794919961010087019a8752602087015260408601526060850152608084015260a083015260c08201520152565b96975050505050505082813d8311611815575b6117d281836122d4565b8101031261052657508051602082015160408301516060840151608085015160a086015160c087015160e09097015194968796959490939192919061048361176f565b503d6117c8565b61182461230e565b61175b565b503461000e57606036600319011261000e576118466004356101e7565b604435611851612562565b61185c600435613e96565b611867600435613f56565b611872602435614017565b61187a6128c5565b603654611b1790604090611896906001600160a01b0316610271565b8151632e79732b60e11b8152600480356001600160a01b0316908201526118c4906020818060248101611097565b846002148015611e34575b6118d8906129c3565b6118e1856129a3565b6101c08401906118f18683612a1b565b825163e240301960e01b8152600480356001600160a01b03169082015261193b90602081602481865afa90811561152f576000916115105750806101608801526024351115612a27565b603754611ac690611954906001600160a01b0316610271565b8451632c6d0e9b60e01b8152336004820152602090610100906119e5906119e0906119dc9084816024818a5afa908115611e27575b8d60009182908390849085908697611de2575b509260c09285928796956119bb6101e06119d69a98019a8b9015159052565b60408501528d8401528b83015260e082015201521515612ad3565b51151590565b1590565b612b1f565b603954611a42906119fe906001600160a01b0316610271565b8851630e563a7d60e41b81523360048201526024803590820152908490829060449082905afa908115611dd5575b600091611db8575b508060608c01521515612b91565b606089015160e08a0151918a0151838b015189516312737c3360e01b8152600480356001600160a01b031690820152602480359082015260448101939093526064830193909352608482015260a4810191909152918290818060c4810103915afa908115611dab575b600091611d8c575b508060a088015260c08701511015612be7565b60018251611ad3816129a3565b611adc816129a3565b14611c7e575b6060850151915191611af3836129a3565b60008451809681958294630deb1bf960e21b84526024353360043560048701612d4a565b03925af1928315611c71575b6000918294611c3e575b5061012083019384526101a08301918252603654611b53906001600160a01b0316610271565b803b1561000e5760405163fa93b2a560e01b8152600480356001600160a01b031690820152336024808301919091523560448201527fe27fbad0754d6c730a8161378bc066f66fac114445968dcfc26d42a3002960139360609290919060009082908183816064810103925af18015611c31575b611c1e575b505193015193516040805160243581526020810193909352820193909352606081019390935260808301919091524260a083015233916001600160a01b0360043516919060c090a36103366001600055565b80610cb9611c2b92612297565b38611bcc565b611c3961230e565b611bc7565b909350611c63915060403d604011611c6a575b611c5b81836122d4565b810190612d34565b9238611b2d565b503d611c51565b611c7961230e565b611b23565b825163710ba6c360e11b8152600480356001600160a01b03169082015233602480830191909152356044820152611cce90602081606481865afa908115611d7f575b600091611d60575b50612c50565b611d2f611d25611d1e60046020611cef61027160385460018060a01b031690565b88516335adc96b60e21b815292839182905afa908115611d53575b600091611d34575b50610160890151612dbd565b6064900490565b6024351115612cc2565b611ae2565b611d4d915060203d602011610d3257610d2481836122d4565b38611d12565b611d5b61230e565b611d0a565b611d79915060203d602011610cf857610ce981836122d4565b38611cc8565b611d8761230e565b611cc0565b611da5915060203d602011610d3257610d2481836122d4565b38611ab3565b611db361230e565b611aab565b611dcf9150843d8611610d3257610d2481836122d4565b38611a34565b611ddd61230e565b611a2c565b9250505060c094506119d69350611e0f9150883d8a11611e20575b611e0781836122d4565b810190612a92565b99959850939550919390925061199c565b503d611dfd565b611e2f61230e565b611989565b50600185146118cf565b503461000e57602036600319011261000e57600435611e5c816101e7565b60ff600254169081159182611f24575b8015611f18575b15611ebc57611e869082611e9b5761231b565b611e8c57005b61033660ff1960025416600255565b611ead600160ff196002541617600255565b611eb76003600155565b61231b565b60405162461bcd60e51b815260206004820152602e60248201527f436f6e747261637420696e7374616e63652068617320616c726561647920626560448201526d195b881a5b9a5d1a585b1a5e995960921b6064820152608490fd5b50600154600311611e73565b50303b15611e6c565b503461000e57600036600319011261000e576035546040516001600160a01b039091168152602090f35b503461000e57600036600319011261000e5760206040516000198152f35b50606036600319011261000e576004803590611f90826101e7565b6024359160443561ffff81160361000e57611fa9612562565b611fb283614017565b603654611fc7906001600160a01b0316610271565b60408051631a59df7760e11b81526001600160a01b0384168186019081529095919491929060209081908890819083010381855afa968715612249575b60009761222a575b5085516370a0823160e01b8152338482019081526001600160a01b039889169391908390829081906020010381875afa92831561221d575b6000936121fe575b5050803b1561000e578651632f35bfe960e21b81526001600160a01b038716858201908152336020820152604081018790529215606084015291600091839182908490829060800103925af180156121f1575b6121de575b50803b1561000e5784516394362e8b60e01b81523383820190815260208101859052909160009183919082908490829060400103925af180156121d1575b6121be575b506036546120fd906001600160a01b0316610271565b803b1561000e5784516328fcf4d360e01b81526001600160a01b038516928101928352336020840152604083018490526000967fdcbc1c05240f31ff3ad067ef1ee35ce4997762752e3a095284754544f4c709d79361219193919291899183919082908190606001039134905af180156121b1575b61219e575b508551938452426020850152339416929081906040820190565b0390a3610c716001600055565b80610cb96121ab92612297565b38612177565b6121b961230e565b612172565b80610cb96121cb92612297565b386120e7565b6121d961230e565b6120e2565b80610cb96121eb92612297565b386120a4565b6121f961230e565b61209f565b612215929350803d10610d3257610d2481836122d4565b90388061204c565b61222561230e565b612044565b816122429298503d89116103ca576103bb81836122d4565b953861200c565b61225161230e565b612004565b503461000e57600036600319011261000e576036546040516001600160a01b039091168152602090f35b50634e487b7160e01b600052604160045260246000fd5b67ffffffffffffffff81116122ab57604052565b6122b3612280565b604052565b6060810190811067ffffffffffffffff8211176122ab57604052565b90601f8019910116810190811067ffffffffffffffff8211176122ab57604052565b9081602091031261000e575161230b816101e7565b90565b506040513d6000823e3d90fd5b603580546001600160a01b0319166001600160a01b039290921691821790556124a79061234790610271565b6040518091630774f5f560e21b825281600460209384935afa918215612546575b600092612527575b50603680546001600160a01b0319166001600160a01b039384161790556123eb826004836123a861027160355460018060a01b031690565b6040516352cb335b60e11b815292839182905afa90811561251a575b6000916124fd575b501660018060a01b03166001600160601b0360a01b6037541617603755565b6124498260048361240661027160355460018060a01b031690565b604051639fabe17560e01b815292839182905afa9081156124f0575b6000916124d3575b501660018060a01b03166001600160601b0360a01b6038541617603855565b6035546004908290612463906001600160a01b0316610271565b604051633efbbf0f60e21b815292839182905afa9182156124c6575b6000926124a9575b50501660018060a01b03166001600160601b0360a01b6039541617603955565b565b6124bf9250803d106103ca576103bb81836122d4565b3880612487565b6124ce61230e565b61247f565b6124ea9150843d86116103ca576103bb81836122d4565b3861242a565b6124f861230e565b612422565b6125149150843d86116103ca576103bb81836122d4565b386123cc565b61252261230e565b6123c4565b8161253f9293503d84116103ca576103bb81836122d4565b9038612370565b61254e61230e565b612368565b9081602091031261000e575190565b600260005414612573576002600055565b60405162461bcd60e51b815260206004820152601f60248201527f5265656e7472616e637947756172643a207265656e7472616e742063616c6c006044820152606490fd5b156125bf57565b60405162461bcd60e51b815260206004820152604b60248201527f5468652063616c6c6572206f6620746869732066756e6374696f6e2063616e2060448201527f6f6e6c79206265207468652061546f6b656e20636f6e7472616374206f66207460648201526a686973207265736572766560a81b608482015260a490fd5b9261264884613e96565b61265183614017565b603654612666906001600160a01b0316610271565b60405163e240301960e01b81526001600160a01b03861660048201526126a9908590602081602481875afa908115612810575b6000916127f2575b50101561281d565b803b1561000e5760405163afcdbea360e01b81526001600160a01b0386811660048301528416602482015260448101859052911560648301526000908290608490829084905af180156127e5575b6127d2575b50603654612712906001600160a01b0316610271565b803b1561000e5760405163fa93b2a560e01b81526001600160a01b03858116600483015283166024820152604481018490527f9c4ed599cd8555b9c1e8cd7643240d7d71eb76b792948c49fcb4d411f7b6b3c6926127ad929091906000908290606490829084905af180156127c5575b6127b2575b50604080519485524260208601526001600160a01b039182169590911693918291820190565b0390a3565b80610cb96127bf92612297565b38612787565b6127cd61230e565b612782565b80610cb96127df92612297565b386126fc565b6127ed61230e565b6126f7565b61280a915060203d8111610d3257610d2481836122d4565b386126a1565b61281861230e565b612699565b1561282457565b60405162461bcd60e51b815260206004820152603160248201527f5468657265206973206e6f7420656e6f756768206c697175696469747920617660448201527061696c61626c6520746f2072656465656d60781b6064820152608490fd5b60405190610200820182811067ffffffffffffffff8211176122ab57604052565b60405190610120820182811067ffffffffffffffff8211176122ab57604052565b6128cd612883565b9060008083528060208401528060408401528060608401528060808401528060a08401528060c08401528060e08401528061010084015280610120840152806101408401528061016084015280610180840152806101a0840152806101c08401526101e0830152565b9081602091031261000e575161230b816101f8565b1561295257565b60405162461bcd60e51b8152602060048201526024808201527f52657365727665206973206e6f7420656e61626c656420666f7220626f72726f60448201526377696e6760e01b6064820152608490fd5b600311156129ad57565b634e487b7160e01b600052602160045260246000fd5b156129ca57565b60405162461bcd60e51b815260206004820152602360248201527f496e76616c696420696e7465726573742072617465206d6f64652073656c65636044820152621d195960ea1b6064820152608490fd5b60038210156129ad5752565b15612a2e57565b60405162461bcd60e51b815260206004820152603660248201527f5468657265206973206e6f7420656e6f756768206c697175696469747920617660448201527561696c61626c6520696e20746865207265736572766560501b6064820152608490fd5b91908261010091031261000e5781519160208101519160408201519160608101519160808201519160a08101519160e060c083015192015161230b816101f8565b15612ada57565b60405162461bcd60e51b815260206004820152601b60248201527f54686520636f6c6c61746572616c2062616c616e6365206973203000000000006044820152606490fd5b15612b2657565b60405162461bcd60e51b815260206004820152603f60248201527f54686520626f72726f7765722063616e20616c7265616479206265206c69717560448201527f69646174656420736f2068652063616e6e6f7420626f72726f77206d6f7265006064820152608490fd5b15612b9857565b60405162461bcd60e51b815260206004820152602160248201527f54686520616d6f756e7420746f20626f72726f7720697320746f6f20736d616c6044820152601b60fa1b6064820152608490fd5b15612bee57565b60405162461bcd60e51b815260206004820152603460248201527f5468657265206973206e6f7420656e6f75676820636f6c6c61746572616c20746044820152736f20636f7665722061206e657720626f72726f7760601b6064820152608490fd5b15612c5757565b60405162461bcd60e51b815260206004820152603960248201527f557365722063616e6e6f7420626f72726f77207468652073656c65637465642060448201527f616d6f756e742077697468206120737461626c652072617465000000000000006064820152608490fd5b15612cc957565b60405162461bcd60e51b815260206004820152603c60248201527f5573657220697320747279696e6720746f20626f72726f7720746f6f206d756360448201527f68206c6971756964697479206174206120737461626c652072617465000000006064820152608490fd5b919082604091031261000e576020825192015190565b6001600160a01b039182168152911660208201526040810191909152606081019190915260a0810192919060038210156129ad5760800152565b50634e487b7160e01b600052601160045260246000fd5b6064908060001904821181151516612db1570290565b612db9612d84565b0290565b8060001904821181151516612db1570290565b8115612dda570490565b634e487b7160e01b600052601260045260246000fd5b60405190610100820182811067ffffffffffffffff821117612e41575b6040528160e06000918281528260208201528260408201528260608201528260808201528260a08201528260c08201520152565b612e49612280565b612e0d565b9081606091031261000e578051916040602083015192015190565b15612e7057565b60405162461bcd60e51b815260206004820152602960248201527f546865207573657220646f6573206e6f74206861766520616e7920626f72726f604482015268772070656e64696e6760b81b6064820152608490fd5b15612ece57565b60a460405162461bcd60e51b815260206004820152604460248201527f546f207265706179206f6e20626568616c66206f6620616e207573657220616e60448201527f206578706c6963697420616d6f756e7420746f207265706179206973206e65656064820152633232b21760e11b6084820152fd5b6001906001198111612f55570190565b612f5d612d84565b0190565b81198111612f55570190565b15612f7457565b60405162461bcd60e51b815260206004820152602860248201527f496e76616c6964206d73672e76616c75652073656e7420666f72207468652072604482015267195c185e5b595b9d60c21b6064820152608490fd5b818110612fd5570390565b612fdd612d84565b0390565b612fe9612df0565b603654909190613001906001600160a01b0316610271565b60408051639fb8afcd60e01b81526001600160a01b038481166004830152871660248201529491939091606086604481885afa9586156136b0575b6000908190829861367b575b5083850197885260208085019182529184528451633faacc6b60e21b81526001600160a01b0387811660048301528a1660248201529180836044818b5afa92831561366e575b60009361364f575b5060e0850192835273eeeeeeeeeeeeeeeeeeeeeeeeeeeeeeeeeeeeeeee6001600160a01b03888116918214606088019081529199909691958c91906130dd86511515612e69565b6130f86000198214938a8515918296613641575b5050612ec7565b6131058651885190612f61565b92608085019380855281613637575b5061362f575b506131286119dc8851151590565b8015613624575b61313890612f6d565b8151865181111561342d57505061315460a09151865190612fca565b9101818152603654909390613171906001600160a01b0316610271565b91855192818d51935114813b1561000e5760008f916131d98e9183978f51998a988997889663da12d96f60e01b885260048801949196959260a0949160c0870198600180881b0380921688521660208701526040860152606085015260808401521515910152565b03925af18015613420575b61340d575b50825190816132f7575b50506036546132159061320e906001600160a01b0316610271565b9351151590565b600090156132f15750613229825134612fca565b955b815196843b1561000e5786516328fcf4d360e01b81526001600160a01b0392909216600483015233602483015260448201979097527fb718f0b14f03d8c3adf35b15e3da52421b042ac879e5a689011a8b1e0036773d966132cc94600091839160649183915af180156132e4575b6132d1575b5051905196519351938493339916974292859094939260609260808301968352602083015260408201520152565b0390a4565b80610cb96132de92612297565b3861329e565b6132ec61230e565b613299565b9561322b565b60365461330c906001600160a01b0316610271565b906133178651151590565b60009015613407575082915b603554600490839061333d906001600160a01b0316610271565b8b51637744894b60e11b815292839182905afa9283156133fa575b6000936133db575b5050803b1561000e57885163c7d1423760e01b81526001600160a01b038b81166004830152336024830152604482019590955291909316606482015291600091839160849183915af180156133ce575b6133bb575b806131f3565b80610cb96133c892612297565b386133b5565b6133d661230e565b6133b0565b6133f2929350803d106103ca576103bb81836122d4565b903880613360565b61340261230e565b613358565b91613323565b80610cb961341a92612297565b386131e9565b61342861230e565b6131e4565b9250929350935089969997949751823b1561000e578a5163da12d96f60e01b81526001600160a01b0387811660048301528d1660248201526000604482018190526064820193909352608481019190915260a4810182905291829060c490829084905af18015613617575b613604575b506036546134be906134b7906001600160a01b0316610271565b9651151590565b600090156135ff575081515b825160355460049084906134e6906001600160a01b0316610271565b8c51637744894b60e11b815292839182905afa9384156135f2575b6000946135d3575b5050873b1561000e57895163c7d1423760e01b81526001600160a01b0395861660048201528b8616602482015260448101919091529190931660648201527fb718f0b14f03d8c3adf35b15e3da52421b042ac879e5a689011a8b1e0036773d956132cc9360009183916084918391905af180156135c6575b6135b3575b50519251955192839233981696429184606091949392608082019560008352602083015260408201520152565b80610cb96135c092612297565b38613586565b6135ce61230e565b613581565b6135ea929450803d106103ca576103bb81836122d4565b913880613509565b6135fa61230e565b613501565b6134ca565b80610cb961361192612297565b3861349d565b61361f61230e565b613498565b50815134101561312f565b82523861311a565b9050811038613114565b9091501633148f8b906130f1565b816136679294503d8511610d3257610d2481836122d4565b9138613096565b61367661230e565b61308e565b9150506136a091965060603d81116136a9575b61369881836122d4565b810190612e4e565b96919038613048565b503d61368e565b6136b861230e565b61303c565b156136c457565b60405162461bcd60e51b815260206004820152602a60248201527f5573657220646f6573206e6f74206861766520616e79206c69717569646974796044820152690819195c1bdcda5d195960b21b6064820152608490fd5b1561372357565b60405162461bcd60e51b815260206004820152603060248201527f55736572206465706f73697420697320616c7265616479206265696e6720757360448201526f195908185cc818dbdb1b185d195c985b60821b6064820152608490fd5b60209067ffffffffffffffff811161379f575b601f01601f19160190565b6137a7612280565b613794565b3d156137d7573d906137bd82613781565b916137cb60405193846122d4565b82523d6000602084013e565b606090565b156137e357565b60405162461bcd60e51b815260206004820152601760248201527f4c69717569646174696f6e2063616c6c206661696c65640000000000000000006044820152606490fd5b918091926000905b828210613848575011613841575050565b6000910152565b91508060209183015181860152018291613830565b919060408382031261000e5782519260208101519067ffffffffffffffff821161000e570181601f8201121561000e57805161389881613781565b926138a660405194856122d4565b8184526020828401011161000e5761230b9160208085019101613828565b90612f5d60209282815194859201613828565b906020916138f081518092818552858086019101613828565b601f01601f1916010190565b90602061230b9281815201906138d7565b60405190610120820182811067ffffffffffffffff821117613965575b604052816101006000918281528260208201528260408201528260608201528260808201528260a08201528260c08201528260e08201520152565b61396d612280565b61392a565b91908261014091031261000e5781519160208101519160408201519160608101519160808201519160a08101519160c08201519160e08101519161012061010083015192015161230b816101f8565b91908261010091031261000e5781519160208101519160408201519160608101516139eb816101e7565b9160808201516139fa816101f8565b9160a0810151613a09816101f8565b9160e060c0830151613a1a816101f8565b92015161230b816101f8565b604d8111613a35575b600a0a90565b613a3d612d84565b613a2f565b60405190613a4f826122b8565b6029825268030ba32b930b6101d160bd1b6040837f2020203d3e204c42504d203a205573657220417661696c61626c6520436f6c6c60208201520152565b60405190613a9a826122b8565b6035825274037b9102137b93937bb90283937b837b9b0b6101d1605d1b6040837f2020203d3e204c42504d203a20436f6c6c61746572616c204e6565646564206660208201520152565b15613aeb57565b60405162461bcd60e51b815260206004820152603d60248201527f5468657265206973206e6f7420656e6f75676820636f6c6c61746572616c207460448201527f6f20636f7665722061206e657720626f72726f772070726f706f73616c0000006064820152608490fd5b15613b5d57565b60405162461bcd60e51b815260206004820152601b60248201527f496e76616c696420496e746572657374205261746520496e70757400000000006044820152606490fd5b15613ba957565b60405162461bcd60e51b8152602060048201526014602482015273125b9d985b1a5908111d594811185d194814d95d60621b6044820152606490fd5b6001906000198114612f55570190565b90610100600791613c1b613c098251151590565b859060ff801983541691151516179055565b6020810151613c4f906001600160a01b03168554610100600160a81b03191660089190911b610100600160a81b0316178555565b60408101516001850180546001600160a01b039283166001600160a01b03199182161790915560608301516002870155608083015160038701805491909316911617905560a0810151600485015560c0810151600585015560e081015160068501550151910155565b906007613cc36128a4565b92613ceb8154613cd860ff8216879015159052565b60081c6001600160a01b03166020860152565b60018101546001600160a01b031660408501526002810154606085015260038101546001600160a01b03166080850152600481015460a0850152600581015460c0850152600681015460e08501520154610100830152565b15613d4a57565b60405162461bcd60e51b815260206004820152602660248201527f456e6420496e646578206f76657220626f72726f7750726f706f73616c4c69736044820152651d10dbdd5b9d60d21b6064820152608490fd5b15613da557565b60405162461bcd60e51b815260206004820152602260248201527f4d6178696d756d203230303020697465726174696f6e207065722072657175656044820152611cdd60f21b6064820152608490fd5b60209067ffffffffffffffff8111613e0f575b60051b0190565b613e17612280565b613e08565b90613e2682613df5565b613e3360405191826122d4565b8281528092613e44601f1991613df5565b019060005b828110613e5557505050565b602090613e6061390d565b82828501015201613e49565b8051821015613e805760209160051b010190565b634e487b7160e01b600052603260045260246000fd5b603654604051630283aeb760e11b81526001600160a01b0392831660048201529160209183916024918391165afa908115613f49575b600091613f2b575b5015613edc57565b60405162461bcd60e51b815260206004820152602160248201527f416374696f6e20726571756972657320616e20616374697665207265736572766044820152606560f81b6064820152608490fd5b613f43915060203d8111610cf857610ce981836122d4565b38613ed4565b613f5161230e565b613ecc565b603654604051634a08accb60e01b81526001600160a01b0392831660048201529160209183916024918391165afa90811561400a575b600091613fec575b50613f9b57565b60405162461bcd60e51b8152602060048201526024808201527f416374696f6e20726571756972657320616e20756e667265657a6564207265736044820152636572766560e01b6064820152608490fd5b614004915060203d8111610cf857610ce981836122d4565b38613f94565b61401261230e565b613f8c565b1561401e57565b60405162461bcd60e51b815260206004820152601d60248201527f416d6f756e74206d7573742062652067726561746572207468616e20300000006044820152606490fd5b6000919082916140a860405180926140946020830195632d839cb360e21b87526040602485015260648401906138d7565b90604483015203601f1981018352826122d4565b51906a636f6e736f6c652e6c6f675afa5056fea2646970667358221220f6fce914650e93868a00d89e18c986fe27dc1a33b5885a0383b544ea9c78c9e064736f6c634300080d0033",
  "linkReferences": {},
  "deployedLinkReferences": {}
}