{
  "_format": "hh-sol-artifact-1",
  "contractName": "LendingBoardProposeMode",
  "sourceName": "contracts/lendingboard/LendingBoardProposeMode.sol",
  "abi": [
    {
      "anonymous": false,
      "inputs": [
        {
          "indexed": true,
          "internalType": "address",
          "name": "_reserve",
          "type": "address"
        },
        {
          "indexed": true,
          "internalType": "address",
          "name": "_user",
          "type": "address"
        },
        {
          "indexed": false,
          "internalType": "uint256",
          "name": "_amount",
          "type": "uint256"
        },
        {
          "indexed": false,
          "internalType": "uint256",
          "name": "_borrowRateMode",
          "type": "uint256"
        },
        {
          "indexed": false,
          "internalType": "uint256",
          "name": "_borrowRate",
          "type": "uint256"
        },
        {
          "indexed": false,
          "internalType": "uint256",
          "name": "_originationFee",
          "type": "uint256"
        },
        {
          "indexed": false,
          "internalType": "uint256",
          "name": "_borrowBalanceIncrease",
          "type": "uint256"
        },
        {
          "indexed": false,
          "internalType": "uint256",
          "name": "_timestamp",
          "type": "uint256"
        }
      ],
      "name": "Borrow",
      "type": "event"
    },
    {
      "anonymous": false,
      "inputs": [
        {
          "indexed": true,
          "internalType": "address",
          "name": "_reserveToLend",
          "type": "address"
        },
        {
          "indexed": true,
          "internalType": "address",
          "name": "_lender",
          "type": "address"
        },
        {
          "indexed": false,
          "internalType": "address",
          "name": "_borrower",
          "type": "address"
        },
        {
          "indexed": true,
          "internalType": "uint256",
          "name": "_proposalId",
          "type": "uint256"
        },
        {
          "indexed": false,
          "internalType": "uint256",
          "name": "_amount",
          "type": "uint256"
        },
        {
          "indexed": false,
          "internalType": "uint256",
          "name": "_originationFee",
          "type": "uint256"
        },
        {
          "indexed": false,
          "internalType": "uint256",
          "name": "_timestamp",
          "type": "uint256"
        }
      ],
      "name": "BorrowAccepted",
      "type": "event"
    },
    {
      "anonymous": false,
      "inputs": [
        {
          "indexed": true,
          "internalType": "address",
          "name": "_reserveToBorrow",
          "type": "address"
        },
        {
          "indexed": true,
          "internalType": "address",
          "name": "_borrowProposer",
          "type": "address"
        },
        {
          "indexed": true,
          "internalType": "uint256",
          "name": "_proposalId",
          "type": "uint256"
        },
        {
          "indexed": false,
          "internalType": "uint256",
          "name": "_amount",
          "type": "uint256"
        },
        {
          "indexed": false,
          "internalType": "address",
          "name": "_reserveForCollateral",
          "type": "address"
        },
        {
          "indexed": false,
          "internalType": "uint256",
          "name": "_interestRate",
          "type": "uint256"
        },
        {
          "indexed": false,
          "internalType": "uint256",
          "name": "_originationFee",
          "type": "uint256"
        },
        {
          "indexed": false,
          "internalType": "uint256",
          "name": "_dueDate",
          "type": "uint256"
        },
        {
          "indexed": false,
          "internalType": "uint256",
          "name": "_timestamp",
          "type": "uint256"
        }
      ],
      "name": "BorrowProposed",
      "type": "event"
    },
    {
      "anonymous": false,
      "inputs": [
        {
          "indexed": true,
          "internalType": "address",
          "name": "_reserve",
          "type": "address"
        },
        {
          "indexed": true,
          "internalType": "address",
          "name": "_user",
          "type": "address"
        },
        {
          "indexed": false,
          "internalType": "uint256",
          "name": "_amount",
          "type": "uint256"
        },
        {
          "indexed": false,
          "internalType": "uint256",
          "name": "_timestamp",
          "type": "uint256"
        }
      ],
      "name": "Deposit",
      "type": "event"
    },
    {
      "anonymous": false,
      "inputs": [
        {
          "indexed": true,
          "internalType": "address",
          "name": "_reserveToLend",
          "type": "address"
        },
        {
          "indexed": true,
          "internalType": "address",
          "name": "_lender",
          "type": "address"
        },
        {
          "indexed": false,
          "internalType": "address",
          "name": "_borrower",
          "type": "address"
        },
        {
          "indexed": true,
          "internalType": "uint256",
          "name": "_proposalId",
          "type": "uint256"
        },
        {
          "indexed": false,
          "internalType": "uint256",
          "name": "_amount",
          "type": "uint256"
        },
        {
          "indexed": false,
          "internalType": "uint256",
          "name": "_originationFee",
          "type": "uint256"
        },
        {
          "indexed": false,
          "internalType": "uint256",
          "name": "_timestamp",
          "type": "uint256"
        }
      ],
      "name": "LendAccepted",
      "type": "event"
    },
    {
      "anonymous": false,
      "inputs": [
        {
          "indexed": true,
          "internalType": "address",
          "name": "_reserveToLend",
          "type": "address"
        },
        {
          "indexed": true,
          "internalType": "address",
          "name": "_lendProposer",
          "type": "address"
        },
        {
          "indexed": true,
          "internalType": "uint256",
          "name": "_proposalId",
          "type": "uint256"
        },
        {
          "indexed": false,
          "internalType": "uint256",
          "name": "_amount",
          "type": "uint256"
        },
        {
          "indexed": false,
          "internalType": "uint256",
          "name": "_interestRate",
          "type": "uint256"
        },
        {
          "indexed": false,
          "internalType": "uint256",
          "name": "_originationFee",
          "type": "uint256"
        },
        {
          "indexed": false,
          "internalType": "uint256",
          "name": "_dueDate",
          "type": "uint256"
        },
        {
          "indexed": false,
          "internalType": "uint256",
          "name": "_proposalTimeStamp",
          "type": "uint256"
        }
      ],
      "name": "LendProposed",
      "type": "event"
    },
    {
      "anonymous": false,
      "inputs": [
        {
          "indexed": true,
          "internalType": "address",
          "name": "_collateral",
          "type": "address"
        },
        {
          "indexed": true,
          "internalType": "address",
          "name": "_reserve",
          "type": "address"
        },
        {
          "indexed": true,
          "internalType": "address",
          "name": "_user",
          "type": "address"
        },
        {
          "indexed": false,
          "internalType": "uint256",
          "name": "_purchaseAmount",
          "type": "uint256"
        },
        {
          "indexed": false,
          "internalType": "uint256",
          "name": "_liquidatedCollateralAmount",
          "type": "uint256"
        },
        {
          "indexed": false,
          "internalType": "uint256",
          "name": "_accruedBorrowInterest",
          "type": "uint256"
        },
        {
          "indexed": false,
          "internalType": "address",
          "name": "_liquidator",
          "type": "address"
        },
        {
          "indexed": false,
          "internalType": "bool",
          "name": "_receiveAToken",
          "type": "bool"
        },
        {
          "indexed": false,
          "internalType": "uint256",
          "name": "_timestamp",
          "type": "uint256"
        }
      ],
      "name": "LiquidationCall",
      "type": "event"
    },
    {
      "anonymous": false,
      "inputs": [
        {
          "indexed": true,
          "internalType": "address",
          "name": "_collateral",
          "type": "address"
        },
        {
          "indexed": true,
          "internalType": "address",
          "name": "_reserve",
          "type": "address"
        },
        {
          "indexed": true,
          "internalType": "address",
          "name": "_user",
          "type": "address"
        },
        {
          "indexed": false,
          "internalType": "uint256",
          "name": "_feeLiquidated",
          "type": "uint256"
        },
        {
          "indexed": false,
          "internalType": "uint256",
          "name": "_liquidatedCollateralForFee",
          "type": "uint256"
        },
        {
          "indexed": false,
          "internalType": "uint256",
          "name": "_timestamp",
          "type": "uint256"
        }
      ],
      "name": "OriginationFeeLiquidated",
      "type": "event"
    },
    {
      "anonymous": false,
      "inputs": [
        {
          "indexed": true,
          "internalType": "address",
          "name": "_reserveToReceive",
          "type": "address"
        },
        {
          "indexed": true,
          "internalType": "address",
          "name": "_lender",
          "type": "address"
        },
        {
          "indexed": false,
          "internalType": "address",
          "name": "_reserveForCollateral",
          "type": "address"
        },
        {
          "indexed": false,
          "internalType": "address",
          "name": "_borrower",
          "type": "address"
        },
        {
          "indexed": true,
          "internalType": "uint256",
          "name": "_proposalId",
          "type": "uint256"
        },
        {
          "indexed": false,
          "internalType": "uint256",
          "name": "_amount",
          "type": "uint256"
        },
        {
          "indexed": false,
          "internalType": "bool",
          "name": "_isBorrowProposal",
          "type": "bool"
        },
        {
          "indexed": false,
          "internalType": "uint256",
          "name": "_originationFee",
          "type": "uint256"
        },
        {
          "indexed": false,
          "internalType": "uint256",
          "name": "_timestamp",
          "type": "uint256"
        }
      ],
      "name": "ProposalAccepted",
      "type": "event"
    },
    {
      "anonymous": false,
      "inputs": [
        {
          "indexed": true,
          "internalType": "address",
          "name": "_reserve",
          "type": "address"
        },
        {
          "indexed": true,
          "internalType": "address",
          "name": "_user",
          "type": "address"
        },
        {
          "indexed": false,
          "internalType": "uint256",
          "name": "_amount",
          "type": "uint256"
        },
        {
          "indexed": false,
          "internalType": "uint256",
          "name": "_timestamp",
          "type": "uint256"
        }
      ],
      "name": "RedeemUnderlying",
      "type": "event"
    },
    {
      "anonymous": false,
      "inputs": [
        {
          "indexed": true,
          "internalType": "address",
          "name": "_reserve",
          "type": "address"
        },
        {
          "indexed": true,
          "internalType": "address",
          "name": "_user",
          "type": "address"
        },
        {
          "indexed": true,
          "internalType": "address",
          "name": "_repayer",
          "type": "address"
        },
        {
          "indexed": false,
          "internalType": "uint256",
          "name": "_amountMinusFees",
          "type": "uint256"
        },
        {
          "indexed": false,
          "internalType": "uint256",
          "name": "_fees",
          "type": "uint256"
        },
        {
          "indexed": false,
          "internalType": "uint256",
          "name": "_borrowBalanceIncrease",
          "type": "uint256"
        },
        {
          "indexed": false,
          "internalType": "uint256",
          "name": "_timestamp",
          "type": "uint256"
        }
      ],
      "name": "Repay",
      "type": "event"
    },
    {
      "anonymous": false,
      "inputs": [
        {
          "indexed": true,
          "internalType": "address",
          "name": "_reserve",
          "type": "address"
        },
        {
          "indexed": true,
          "internalType": "address",
          "name": "_user",
          "type": "address"
        }
      ],
      "name": "ReserveUsedAsCollateralDisabled",
      "type": "event"
    },
    {
      "anonymous": false,
      "inputs": [
        {
          "indexed": true,
          "internalType": "address",
          "name": "_reserve",
          "type": "address"
        },
        {
          "indexed": true,
          "internalType": "address",
          "name": "_user",
          "type": "address"
        }
      ],
      "name": "ReserveUsedAsCollateralEnabled",
      "type": "event"
    },
    {
      "inputs": [],
      "name": "LENDINGPOOL_REVISION",
      "outputs": [
        {
          "internalType": "uint256",
          "name": "",
          "type": "uint256"
        }
      ],
      "stateMutability": "view",
      "type": "function"
    },
    {
      "inputs": [],
      "name": "UINT_MAX_VALUE",
      "outputs": [
        {
          "internalType": "uint256",
          "name": "",
          "type": "uint256"
        }
      ],
      "stateMutability": "view",
      "type": "function"
    },
    {
      "inputs": [],
      "name": "addressesProvider",
      "outputs": [
        {
          "internalType": "contract LendingBoardAddressesProvider",
          "name": "",
          "type": "address"
        }
      ],
      "stateMutability": "view",
      "type": "function"
    },
    {
      "inputs": [
        {
          "internalType": "address",
          "name": "_reserve",
          "type": "address"
        },
        {
          "internalType": "uint256",
          "name": "_amount",
          "type": "uint256"
        },
        {
          "internalType": "uint256",
          "name": "_interestRateMode",
          "type": "uint256"
        }
      ],
      "name": "borrow",
      "outputs": [],
      "stateMutability": "nonpayable",
      "type": "function"
    },
    {
      "inputs": [
        {
          "internalType": "address",
          "name": "_reserveToBorrow",
          "type": "address"
        },
        {
          "internalType": "uint256",
          "name": "_amount",
          "type": "uint256"
        },
        {
          "internalType": "address",
          "name": "_reserveForCollateral",
          "type": "address"
        },
        {
          "internalType": "uint256",
          "name": "_interestRate",
          "type": "uint256"
        },
        {
          "internalType": "uint256",
          "name": "_dueDate",
          "type": "uint256"
        }
      ],
      "name": "borrowProposal",
      "outputs": [],
      "stateMutability": "nonpayable",
      "type": "function"
    },
    {
      "inputs": [
        {
          "internalType": "uint256",
          "name": "_proposalId",
          "type": "uint256"
        }
      ],
      "name": "borrowProposalAccept",
      "outputs": [],
      "stateMutability": "nonpayable",
      "type": "function"
    },
    {
      "inputs": [],
      "name": "core",
      "outputs": [
        {
          "internalType": "contract LendingBoardCore",
          "name": "",
          "type": "address"
        }
      ],
      "stateMutability": "view",
      "type": "function"
    },
    {
      "inputs": [],
      "name": "dataProvider",
      "outputs": [
        {
          "internalType": "contract LendingBoardDataProvider",
          "name": "",
          "type": "address"
        }
      ],
      "stateMutability": "view",
      "type": "function"
    },
    {
      "inputs": [
        {
          "internalType": "address",
          "name": "_reserve",
          "type": "address"
        },
        {
          "internalType": "uint256",
          "name": "_amount",
          "type": "uint256"
        },
        {
          "internalType": "uint16",
          "name": "_referralCode",
          "type": "uint16"
        }
      ],
      "name": "deposit",
      "outputs": [],
      "stateMutability": "payable",
      "type": "function"
    },
    {
      "inputs": [
        {
          "internalType": "uint256",
          "name": "_proposalId",
          "type": "uint256"
        }
      ],
      "name": "getBorrowProposal",
      "outputs": [
        {
          "internalType": "bool",
          "name": "active",
          "type": "bool"
        },
        {
          "internalType": "address",
          "name": "borrower",
          "type": "address"
        },
        {
          "internalType": "address",
          "name": "reserveToBorrow",
          "type": "address"
        },
        {
          "internalType": "uint256",
          "name": "amount",
          "type": "uint256"
        },
        {
          "internalType": "address",
          "name": "reserveForCollateral",
          "type": "address"
        },
        {
          "internalType": "uint256",
          "name": "interestRate",
          "type": "uint256"
        },
        {
          "internalType": "uint256",
          "name": "dueDate",
          "type": "uint256"
        },
        {
          "internalType": "uint256",
          "name": "proposalDate",
          "type": "uint256"
        },
        {
          "internalType": "uint256",
          "name": "ltv",
          "type": "uint256"
        }
      ],
      "stateMutability": "view",
      "type": "function"
    },
    {
      "inputs": [
        {
          "internalType": "uint256",
          "name": "_startIdx",
          "type": "uint256"
        },
        {
          "internalType": "uint256",
          "name": "_endIdx",
          "type": "uint256"
        }
      ],
      "name": "getBorrowProposalList",
      "outputs": [
        {
          "components": [
            {
              "internalType": "bool",
              "name": "active",
              "type": "bool"
            },
            {
              "internalType": "address",
              "name": "proposer",
              "type": "address"
            },
            {
              "internalType": "address",
              "name": "reserveToReceive",
              "type": "address"
            },
            {
              "internalType": "uint256",
              "name": "amount",
              "type": "uint256"
            },
            {
              "internalType": "address",
              "name": "reserveForCollateral",
              "type": "address"
            },
            {
              "internalType": "uint256",
              "name": "interestRate",
              "type": "uint256"
            },
            {
              "internalType": "uint256",
              "name": "dueDate",
              "type": "uint256"
            },
            {
              "internalType": "uint256",
              "name": "proposalDate",
              "type": "uint256"
            },
            {
              "internalType": "uint256",
              "name": "serviceFee",
              "type": "uint256"
            },
            {
              "internalType": "uint256",
              "name": "ltv",
              "type": "uint256"
            }
          ],
          "internalType": "struct CoreLibrary.ProposalStructure[]",
          "name": "result",
          "type": "tuple[]"
        }
      ],
      "stateMutability": "view",
      "type": "function"
    },
    {
      "inputs": [
        {
          "internalType": "uint256",
          "name": "_proposalId",
          "type": "uint256"
        }
      ],
      "name": "getLendProposal",
      "outputs": [
        {
          "internalType": "bool",
          "name": "active",
          "type": "bool"
        },
        {
          "internalType": "address",
          "name": "lender",
          "type": "address"
        },
        {
          "internalType": "address",
          "name": "reserveToLend",
          "type": "address"
        },
        {
          "internalType": "uint256",
          "name": "amount",
          "type": "uint256"
        },
        {
          "internalType": "address",
          "name": "reserveForCollateral",
          "type": "address"
        },
        {
          "internalType": "uint256",
          "name": "interestRate",
          "type": "uint256"
        },
        {
          "internalType": "uint256",
          "name": "dueDate",
          "type": "uint256"
        },
        {
          "internalType": "uint256",
          "name": "proposalDate",
          "type": "uint256"
        },
        {
          "internalType": "uint256",
          "name": "ltv",
          "type": "uint256"
        }
      ],
      "stateMutability": "view",
      "type": "function"
    },
    {
      "inputs": [
        {
          "internalType": "uint256",
          "name": "startIdx",
          "type": "uint256"
        },
        {
          "internalType": "uint256",
          "name": "endIdx",
          "type": "uint256"
        }
      ],
      "name": "getLendProposalList",
      "outputs": [
        {
          "components": [
            {
              "internalType": "bool",
              "name": "active",
              "type": "bool"
            },
            {
              "internalType": "address",
              "name": "proposer",
              "type": "address"
            },
            {
              "internalType": "address",
              "name": "reserveToReceive",
              "type": "address"
            },
            {
              "internalType": "uint256",
              "name": "amount",
              "type": "uint256"
            },
            {
              "internalType": "address",
              "name": "reserveForCollateral",
              "type": "address"
            },
            {
              "internalType": "uint256",
              "name": "interestRate",
              "type": "uint256"
            },
            {
              "internalType": "uint256",
              "name": "dueDate",
              "type": "uint256"
            },
            {
              "internalType": "uint256",
              "name": "proposalDate",
              "type": "uint256"
            },
            {
              "internalType": "uint256",
              "name": "serviceFee",
              "type": "uint256"
            },
            {
              "internalType": "uint256",
              "name": "ltv",
              "type": "uint256"
            }
          ],
          "internalType": "struct CoreLibrary.ProposalStructure[]",
          "name": "result",
          "type": "tuple[]"
        }
      ],
      "stateMutability": "view",
      "type": "function"
    },
    {
      "inputs": [
        {
          "internalType": "address",
          "name": "_reserve",
          "type": "address"
        }
      ],
      "name": "getReserveConfigurationData",
      "outputs": [
        {
          "internalType": "uint256",
          "name": "ltv",
          "type": "uint256"
        },
        {
          "internalType": "uint256",
          "name": "liquidationThreshold",
          "type": "uint256"
        },
        {
          "internalType": "uint256",
          "name": "liquidationBonus",
          "type": "uint256"
        },
        {
          "internalType": "address",
          "name": "interestRateStrategyAddress",
          "type": "address"
        },
        {
          "internalType": "bool",
          "name": "usageAsCollateralEnabled",
          "type": "bool"
        },
        {
          "internalType": "bool",
          "name": "borrowingEnabled",
          "type": "bool"
        },
        {
          "internalType": "bool",
          "name": "stableBorrowRateEnabled",
          "type": "bool"
        },
        {
          "internalType": "bool",
          "name": "isActive",
          "type": "bool"
        }
      ],
      "stateMutability": "view",
      "type": "function"
    },
    {
      "inputs": [
        {
          "internalType": "address",
          "name": "_reserve",
          "type": "address"
        }
      ],
      "name": "getReserveData",
      "outputs": [
        {
          "internalType": "uint256",
          "name": "totalLiquidity",
          "type": "uint256"
        },
        {
          "internalType": "uint256",
          "name": "availableLiquidity",
          "type": "uint256"
        },
        {
          "internalType": "uint256",
          "name": "totalBorrowsStable",
          "type": "uint256"
        },
        {
          "internalType": "uint256",
          "name": "totalBorrowsVariable",
          "type": "uint256"
        },
        {
          "internalType": "uint256",
          "name": "liquidityRate",
          "type": "uint256"
        },
        {
          "internalType": "uint256",
          "name": "variableBorrowRate",
          "type": "uint256"
        },
        {
          "internalType": "uint256",
          "name": "stableBorrowRate",
          "type": "uint256"
        },
        {
          "internalType": "uint256",
          "name": "averageStableBorrowRate",
          "type": "uint256"
        },
        {
          "internalType": "uint256",
          "name": "utilizationRate",
          "type": "uint256"
        },
        {
          "internalType": "uint256",
          "name": "liquidityIndex",
          "type": "uint256"
        },
        {
          "internalType": "uint256",
          "name": "variableBorrowIndex",
          "type": "uint256"
        },
        {
          "internalType": "address",
          "name": "aTokenAddress",
          "type": "address"
        },
        {
          "internalType": "uint40",
          "name": "lastUpdateTimestamp",
          "type": "uint40"
        }
      ],
      "stateMutability": "view",
      "type": "function"
    },
    {
      "inputs": [],
      "name": "getReserves",
      "outputs": [
        {
          "internalType": "address[]",
          "name": "",
          "type": "address[]"
        }
      ],
      "stateMutability": "view",
      "type": "function"
    },
    {
      "inputs": [
        {
          "internalType": "address",
          "name": "_user",
          "type": "address"
        }
      ],
      "name": "getUserAccountData",
      "outputs": [
        {
          "internalType": "uint256",
          "name": "totalLiquidityETH",
          "type": "uint256"
        },
        {
          "internalType": "uint256",
          "name": "totalCollateralETH",
          "type": "uint256"
        },
        {
          "internalType": "uint256",
          "name": "totalBorrowsETH",
          "type": "uint256"
        },
        {
          "internalType": "uint256",
          "name": "totalFeesETH",
          "type": "uint256"
        },
        {
          "internalType": "uint256",
          "name": "availableBorrowsETH",
          "type": "uint256"
        },
        {
          "internalType": "uint256",
          "name": "currentLiquidationThreshold",
          "type": "uint256"
        },
        {
          "internalType": "uint256",
          "name": "ltv",
          "type": "uint256"
        },
        {
          "internalType": "uint256",
          "name": "healthFactor",
          "type": "uint256"
        }
      ],
      "stateMutability": "view",
      "type": "function"
    },
    {
      "inputs": [
        {
          "internalType": "address",
          "name": "_reserve",
          "type": "address"
        },
        {
          "internalType": "address",
          "name": "_user",
          "type": "address"
        }
      ],
      "name": "getUserReserveBalance",
      "outputs": [
        {
          "internalType": "uint256",
          "name": "",
          "type": "uint256"
        }
      ],
      "stateMutability": "view",
      "type": "function"
    },
    {
      "inputs": [
        {
          "internalType": "address",
          "name": "_reserve",
          "type": "address"
        },
        {
          "internalType": "address",
          "name": "_user",
          "type": "address"
        }
      ],
      "name": "getUserReserveData",
      "outputs": [
        {
          "internalType": "uint256",
          "name": "currentATokenBalance",
          "type": "uint256"
        },
        {
          "internalType": "uint256",
          "name": "currentBorrowBalance",
          "type": "uint256"
        },
        {
          "internalType": "uint256",
          "name": "principalBorrowBalance",
          "type": "uint256"
        },
        {
          "internalType": "uint256",
          "name": "borrowRateMode",
          "type": "uint256"
        },
        {
          "internalType": "uint256",
          "name": "borrowRate",
          "type": "uint256"
        },
        {
          "internalType": "uint256",
          "name": "liquidityRate",
          "type": "uint256"
        },
        {
          "internalType": "uint256",
          "name": "originationFee",
          "type": "uint256"
        },
        {
          "internalType": "uint256",
          "name": "variableBorrowIndex",
          "type": "uint256"
        },
        {
          "internalType": "uint256",
          "name": "lastUpdateTimestamp",
          "type": "uint256"
        },
        {
          "internalType": "bool",
          "name": "usageAsCollateralEnabled",
          "type": "bool"
        }
      ],
      "stateMutability": "view",
      "type": "function"
    },
    {
      "inputs": [
        {
          "internalType": "contract LendingBoardAddressesProvider",
          "name": "_addressesProvider",
          "type": "address"
        }
      ],
      "name": "initialize",
      "outputs": [],
      "stateMutability": "nonpayable",
      "type": "function"
    },
    {
      "inputs": [
        {
          "internalType": "address",
          "name": "_reserveToLend",
          "type": "address"
        },
        {
          "internalType": "uint256",
          "name": "_amount",
          "type": "uint256"
        },
        {
          "internalType": "address",
          "name": "_reserveForCollateral",
          "type": "address"
        },
        {
          "internalType": "uint256",
          "name": "_interestRate",
          "type": "uint256"
        },
        {
          "internalType": "uint256",
          "name": "_dueDate",
          "type": "uint256"
        }
      ],
      "name": "lendProposal",
      "outputs": [],
      "stateMutability": "nonpayable",
      "type": "function"
    },
    {
      "inputs": [
        {
          "internalType": "uint256",
          "name": "_proposalId",
          "type": "uint256"
        }
      ],
      "name": "lendProposalAccept",
      "outputs": [],
      "stateMutability": "nonpayable",
      "type": "function"
    },
    {
      "inputs": [
        {
          "internalType": "address",
          "name": "_collateral",
          "type": "address"
        },
        {
          "internalType": "address",
          "name": "_reserve",
          "type": "address"
        },
        {
          "internalType": "address",
          "name": "_user",
          "type": "address"
        },
        {
          "internalType": "uint256",
          "name": "_purchaseAmount",
          "type": "uint256"
        },
        {
          "internalType": "bool",
          "name": "_receiveAToken",
          "type": "bool"
        }
      ],
      "name": "liquidationCall",
      "outputs": [],
      "stateMutability": "payable",
      "type": "function"
    },
    {
      "inputs": [],
      "name": "nft",
      "outputs": [
        {
          "internalType": "contract LendingBoardNFT",
          "name": "",
          "type": "address"
        }
      ],
      "stateMutability": "view",
      "type": "function"
    },
    {
      "inputs": [],
      "name": "parametersProvider",
      "outputs": [
        {
          "internalType": "contract LendingBoardParametersProvider",
          "name": "",
          "type": "address"
        }
      ],
      "stateMutability": "view",
      "type": "function"
    },
    {
      "inputs": [
        {
          "internalType": "uint256",
          "name": "",
          "type": "uint256"
        }
      ],
      "name": "proposalIdToTokenId",
      "outputs": [
        {
          "internalType": "uint256",
          "name": "",
          "type": "uint256"
        }
      ],
      "stateMutability": "view",
      "type": "function"
    },
    {
      "inputs": [
        {
          "internalType": "address",
          "name": "_reserve",
          "type": "address"
        },
        {
          "internalType": "address payable",
          "name": "_user",
          "type": "address"
        },
        {
          "internalType": "uint256",
          "name": "_amount",
          "type": "uint256"
        },
        {
          "internalType": "uint256",
          "name": "_aTokenBalanceAfterRedeem",
          "type": "uint256"
        }
      ],
      "name": "redeemUnderlying",
      "outputs": [],
      "stateMutability": "nonpayable",
      "type": "function"
    },
    {
      "inputs": [
        {
          "internalType": "address",
          "name": "_reserve",
          "type": "address"
        },
        {
          "internalType": "uint256",
          "name": "_amount",
          "type": "uint256"
        },
        {
          "internalType": "address payable",
          "name": "_onBehalfOf",
          "type": "address"
        },
        {
          "internalType": "uint256",
          "name": "_proposalId",
          "type": "uint256"
        }
      ],
      "name": "repay",
      "outputs": [],
      "stateMutability": "payable",
      "type": "function"
    },
    {
      "inputs": [
        {
          "internalType": "address",
          "name": "_reserve",
          "type": "address"
        },
        {
          "internalType": "bool",
          "name": "_useAsCollateral",
          "type": "bool"
        }
      ],
      "name": "setUserUseReserveAsCollateral",
      "outputs": [],
      "stateMutability": "nonpayable",
      "type": "function"
    }
  ],
  "bytecode": "0x608080604052346100215760016000556000600155615f139081620000278239f35b600080fdfe60a06040526004361015610013575b600080fd5b60003560e01c8062a718a9146102565780630902f1ac1461024d57806328dd2d011461024457806335ea6a751461023b5780633815d34c146102325780633cedf2df146102295780633e1501411461022057806347ccca021461021757806348f163ea1461020e57806356b045061461020557806358707e06146101fc5780635a3b74b9146101f35780636aee7c1e146101ea57806379cc211e146101e15780638afaff02146101d85780638fabf76d146101cf5780639895e3d8146101c65780639a91fe9b146101bd578063a429bcaa146101b4578063ab1e8a21146101ab578063b334ed86146101a2578063bf92857c14610199578063c0c8ab6514610190578063c1bce0b714610187578063c4d66de81461017e578063c72c4d1014610175578063d0fc81d21461016c578063d2d0e066146101635763f2f4eb261461015b57600080fd5b61000e612ddd565b5061000e612afc565b5061000e612ade565b5061000e612ab4565b5061000e6129c5565b5061000e612372565b5061000e6122e4565b5061000e6121c0565b5061000e612196565b5061000e6120a6565b5061000e611f6a565b5061000e6119a8565b5061000e6118e9565b5061000e61123b565b5061000e6111ea565b5061000e611040565b5061000e610feb565b5061000e610d7c565b5061000e610d52565b5061000e610d25565b5061000e610c22565b5061000e610bf8565b5061000e610aed565b5061000e610acb565b5061000e610940565b5061000e6106c9565b5061000e6105dd565b5061000e6104a5565b5061000e61027a565b6001600160a01b0381160361000e57565b8015150361000e57565b5060a036600319011261000e576004356102938161025f565b60243561029f8161025f565b61039f6000806044356102b18161025f565b608435946102be86610270565b6102c6613191565b6102cf81615c44565b6102d887615c44565b6035546102f5906001600160a01b03165b6001600160a01b031690565b91604051968793632bd7cfb760e11b855284600460209a8b935afa938415610449575b8594610416575b5060405162a718a960e01b8982019081526001600160a01b039a8b166024830152938a166044820152989091166064808a0191909152356084890152151560a48801528660c481015b039661037c601f1998898101835282612e74565b51915af461039161038b614582565b916145b2565b828082518301019101614633565b906103b0576103ae6001600055565b005b610412926103e8926103ee6103fa9360405195869384016014907302634b8bab4b230ba34b7b7103330b4b632b21d160651b81520190565b90614699565b03908101835282612e74565b60405162461bcd60e51b8152918291600483016146d1565b0390fd5b61036891945061043b90893d8b11610442575b6104338183612e74565b810190612e95565b939061031f565b503d610429565b610451612eaa565b610318565b600091031261000e57565b6020908160408183019282815285518094520193019160005b828110610488575050505090565b83516001600160a01b03168552938101939281019260010161047a565b503461000e5760008060031936011261059d57603654604051630240bc6b60e21b815291908190839060049082906001600160a01b03165afa9081156105a8575b80916104ff575b604051806104fb8482610461565b0390f35b90503d8082843e6105108184612e74565b820160209283818303126105a0578051906001600160401b0382116105a4570181601f820112156105a05780519061054782614ded565b936105556040519586612e74565b828552858086019360051b83010193841161059d57508401905b828210610584575050506104fb9150386104ed565b84809183516105928161025f565b81520191019061056f565b80fd5b8280fd5b8380fd5b6105b0612eaa565b6104e6565b604090600319011261000e576004356105cd8161025f565b906024356105da8161025f565b90565b503461000e576105ec366105b5565b6037546040516328dd2d0160e01b81526001600160a01b039384166004820152918316602483015261014092839183916044918391165afa80156106bc575b6000918283848586918793889589978a9961067b575b50604051998a5260208a015260408901526060880152608087015260a086015260c085015260e08401526101008301521515610120820152f35b985050505050505050506106a59150823d84116106b5575b61069d8183612e74565b8101906146e2565b9790969195929492919038610641565b503d610693565b6106c4612eaa565b61062b565b503461000e57602036600319011261000e576004356106e78161025f565b6037546040516335ea6a7560e01b81526001600160a01b0392831660048201526101a0929091839183916024918391165afa801561086c575b600090819282838485868791889389958a978b998c9b6107b5575b506104fb9b9c9d506040519d8e9d8e9b99979593919d9c9a98969492909d6101a08d019e8d5260208d015260408c015260608b015260808a015260a089015260c088015260e0870152610100860152610120850152610140840152600160a01b600190031661016083015264ffffffffff16906101800152565b9c5050505050505050505050509181813d8311610865575b6107d78183612e74565b8101031261086157805190602081015190604081015192606082015191608081015160a082015160c083015160e0840151610100850151916101208601519361014087015195610180610160890151986108308a61025f565b01519864ffffffffff8a168a0361085d576104fb9b9c9d509b9c99909192939495969798998d9c9b61073b565b8d80fd5b5080fd5b503d6107cd565b610874612eaa565b610720565b8051151582526020818101516001600160a01b0316908301526040818101516001600160a01b031690830152606081810151908301526080808201516001600160a01b03169083015260a081015160a083015260c081015160c083015260e081015160e0830152610100808201519083015261012080910151910152565b6020908160408183019282815285518094520193019160005b82811061091e575050505090565b9091929382610140826109346001948951610879565b01950193929101610910565b503461000e5760408060031936011261000e5760365460049060243590823590610972906001600160a01b03166102e9565b8451630531044160e31b81526109a2906020818781865afa908115610abe575b600091610a90575b508410614d3b565b6109c96109b76109b28486613be4565b613b5f565b6109c46107d08210614d96565b614e13565b936000925b848111156109e3578651806104fb88826108f7565b865163587854a560e11b81528281018281526101409591908690829081906020010381885afa958615610a83575b600096610a4a575b505090610a3f82610a2d610a459491614e63565b96610a38828b614e73565b5288614e73565b50614e63565b6109ce565b610a4593929650610a3f9181610a7492903d10610a7c575b610a6c8183612e74565b810190614c05565b959192610a19565b503d610a62565b610a8b612eaa565b610a11565b610ab1915060203d8111610ab7575b610aa98183612e74565b810190613182565b3861099a565b503d610a9f565b610ac6612eaa565b610992565b503461000e576020610ae5610adf366105b5565b90614731565b604051908152f35b503461000e57602036600319011261000e57600435610b0b8161025f565b603754604051633e15014160e01b81526001600160a01b039283166004820152610100929091839183916024918391165afa8015610beb575b600090819282838490859286948796610ba6575b50604080519788526020880198909852968601969096526001600160a01b039095166060850152931515608084015292151560a083015291151560c082015290151560e08201526101009150f35b9650505050505050610bd29150826104fb93903d10610be4575b610bca8183612e74565b81019061494b565b95978897969591949293929190610b58565b503d610bc0565b610bf3612eaa565b610b44565b503461000e57600036600319011261000e57603a546040516001600160a01b039091168152602090f35b503461000e57602036600319011261000e576103ae610cf1600435610c456147d8565b50603654610ce190610c5f906001600160a01b03166102e9565b604051636c20351d60e11b815260048101849052610140918290829060249082905afa918215610d18575b600092610cfb575b5050610cab6001610ca38351151590565b151514614c99565b60408101516001600160a01b031660608201516020830151909291908590610100906001600160a01b031693015193339261512d565b600052603c602052604060002090565b805460ff19169055565b610d119250803d10610a7c57610a6c8183612e74565b3880610c92565b610d20612eaa565b610c8a565b503461000e57602036600319011261000e57600435600052603d6020526020604060002054604051908152f35b503461000e57600036600319011261000e576038546040516001600160a01b039091168152602090f35b503461000e5760408060031936011261000e5760043590610d9c8261025f565b60243591610da983610270565b610db1613191565b610dba81615c44565b610dc381615d04565b603654610dd8906001600160a01b03166102e9565b8251630c526de560e11b81526001600160a01b0383166004820152336024820152909390610e9690602090610e7b90829081816044818c5afa908115610fde575b600091610fc1575b50610e2d811515614494565b603754610e42906001600160a01b03166102e9565b88516376e9d61560e01b81526001600160a01b038916600482015233602482015260448101929092529092839190829081906064820190565b03915afa918215610fb4575b600092610f87575b50506144f3565b833b1561000e578251633e94615360e21b81526001600160a01b0383166004820152336024820152811515604482015260009485908290606490829084905af18015610f7a575b610f61575b508314610f2957815133916001600160a01b0316907e058a56ea94653cdf4f152d227ace22d4c00ad99e2a43f58cb7d9e3feb295f2908590a35b610f266001600055565b51f35b815133916001600160a01b0316907f44c58d81365b66dd4b1a7f36c25aa97b8c71c361ee4937adc1a00000227db5dd908590a3610f1c565b80610f6e610f7492612e1e565b80610456565b38610ee2565b610f82612eaa565b610edd565b610fa69250803d10610fad575b610f9e8183612e74565b81019061355c565b3880610e8f565b503d610f94565b610fbc612eaa565b610e87565b610fd89150823d8411610ab757610aa98183612e74565b38610e21565b610fe6612eaa565b610e19565b50608036600319011261000e576110396004356110078161025f565b6044356024356110168261025f565b61101e613191565b61102783615c44565b61103081615dc5565b60643592613bfb565b6001600055005b503461000e57602036600319011261000e576036546110d0906004359061106f906001600160a01b03166102e9565b906110a2604051630531044160e31b8152602081600481875afa9081156111dd575b6000916111bf575b50821115614cf9565b6110aa6147d8565b50604051809263587854a560e11b82528180610140968795600483019190602083019252565b03915afa9182156111b2575b600092611195575b826110ef8151151590565b60208201516104fb906001600160a01b031660408401519093906001600160a01b0316606082015160808301519192916001600160a01b031660a08301519060c08401519261012060e086015195015195604051998a998a9592919361010097949a999895919a61012088019b1515885260018060a01b03938480921660208a0152166040880152606087015216608085015260a084015260c083015260e08201520152565b6111ab9250803d10610a7c57610a6c8183612e74565b38806110e4565b6111ba612eaa565b6110dc565b6111d7915060203d8111610ab757610aa98183612e74565b38611099565b6111e5612eaa565b611091565b503461000e57600036600319011261000e57602060405160038152f35b60a090600319011261000e5760043561121f8161025f565b90602435906044356112308161025f565b906064359060843590565b503461000e5761124a36611207565b611255949394613191565b61125e84615c44565b61126784615d04565b61127085615dc5565b6112786147d8565b916112816134e0565b811515806118df575b61129390614843565b61129e42841161488f565b6036546112b3906001600160a01b03166102e9565b60405163288d4ff760e21b81526001600160a01b038816600482015290979087906020816024818d5afa9081156118d2575b6000916118b3575b50603554600490602090611309906001600160a01b03166102e9565b604051631f94a27560e31b815292839182905afa9081156118a6575b600091611887575b50604051632e79732b60e11b81526001600160a01b03848116600483015291909116919061137a906020818e8180602481015b03915afa90811561187a575b60009161185b575b50613571565b60405163e240301960e01b81526001600160a01b03841660048201526113c99085906020818f81806024810103915afa90811561184e575b60009161182f575b508061016089015210156148d2565b6113d33384614731565b6037548a906113ea906001600160a01b03166102e9565b604051633e15014160e01b81526001600160a01b0387166004820152949061010090869060249082905afa948515611822575b6000956117f8575b5060405163b3596f0760e01b8082526001600160a01b0397909716600482015294958695909190611471908990602081602481875afa9081156117eb575b6000916117cc575b506139d8565b61147a866149b0565b611483916139eb565b9461148c6149cc565b9061149691615e11565b856114a1868a6139d8565b906114ab916139eb565b6040519283526001600160a01b03939093166004830152909190826024815a93602094fa6115249561151193611504926114f59181156117bf575b6000916117a0575b50846139eb565b95896114ff614a21565b615e6f565b61150c614a80565b615e11565b61151d8261150c614ad0565b1015614b27565b603954611539906001600160a01b03166102e9565b604051630e563a7d60e41b8152336004820152602481018490529390602090859060449082905afa938415611793575b60009461176b575b50606061158491019380855215156137a5565b611591835161150c614b99565b600186523360208701526001600160a01b0388166040870152606086018290526001600160a01b03871660808701528360a08701528460c08701524260e0870152825161010087015261012086015260405197630531044160e31b8952602089600481845afa98891561175e575b60009961173d575b50803b1561000e576000809160046040518094819363259d9fd160e21b83525af18015611730575b61171d575b5060365461164a906001600160a01b03166102e9565b91823b1561000e5761169b60007fddda05bca10ccedb67628486050c0637ba56c3b1d4d271f7524748d5e3931c85976116f0958c83604051809681958294632528874160e01b845260048401614bee565b03925af18015611710575b6116fd575b5051604080519283526001600160a01b039788166020840152820193909352606081019290925260808201929092524260a082015233949093169290819060c0820190565b0390a46103ae6001600055565b80610f6e61170a92612e1e565b386116ab565b611718612eaa565b6116a6565b80610f6e61172a92612e1e565b38611634565b611738612eaa565b61162f565b61175791995060203d602011610ab757610aa98183612e74565b9738611607565b611766612eaa565b6115ff565b61158491945061178b60609160203d602011610ab757610aa98183612e74565b949150611571565b61179b612eaa565b611569565b6117b9915060203d602011610ab757610aa98183612e74565b386114ee565b6117c7612eaa565b6114e6565b6117e5915060203d602011610ab757610aa98183612e74565b3861146b565b6117f3612eaa565b611463565b6118149195506101003d61010011610be457610bca8183612e74565b505050505050509338611425565b61182a612eaa565b61141d565b611848915060203d602011610ab757610aa98183612e74565b386113ba565b611856612eaa565b6113b2565b611874915060203d602011610fad57610f9e8183612e74565b38611374565b611882612eaa565b61136c565b6118a0915060203d602011610442576104338183612e74565b3861132d565b6118ae612eaa565b611325565b6118cc915060203d602011610ab757610aa98183612e74565b386112ed565b6118da612eaa565b6112e5565b506064821061128a565b503461000e57608036600319011261000e5761197360043561190a8161025f565b602435906119178261025f565b61191f613191565b61196660018060a01b0360246020826036541660405192838092631a59df7760e11b825286891660048301525afa90811561199b575b60009161197d575b501633146131e7565b606435916044359161326d565b6103ae6001600055565b611995915060203d8111610442576104338183612e74565b3861195d565b6119a3612eaa565b611955565b503461000e576119b736611207565b6119c49493919294613191565b6119cd84615c44565b6119d684615d04565b6119df82615dc5565b6119e76147d8565b916119f0614e9d565b84151580611f60575b611a0290614843565b611a0d42841161488f565b6036548690600490611a27906001600160a01b03166102e9565b60405163288d4ff760e21b81526001600160a01b038416838201908152919a9186919060209082908190038201818f5afa908115611f53575b600091611f34575b50603554602090611a81906001600160a01b03166102e9565b604051631f94a27560e31b815295869182905afa938415611f27575b600094611f06575b50604051632e79732b60e11b81526001600160a01b0386166004820152611ad5906020818f818060248101611360565b611b2c828d6020604051809263e240301960e01b82528180611b098d60048301919091602081019260018060a01b03169052565b03915afa908115611ef9575b600091611eda575b50806101608a01521015614f24565b611b3e611b393387614731565b6139af565b603754909190611b56906001600160a01b03166102e9565b604051633e15014160e01b81526001600160a01b0386166004820152959061010090879060249082905afa958615611ecd575b600096611e84575b5060405163b3596f0760e01b81526001600160a01b03909716600488015294959394611c1494611c0d928892611c0492611bfe91611bf891899160209082908180602481015b03916001600160a01b03165afa9081156117eb576000916117cc57506139d8565b916149b0565b906139eb565b846114ff614f9b565b1015614ffa565b603954611c29906001600160a01b03166102e9565b604051630e563a7d60e41b8152336004820152602481018690529390602090859060449082905afa938415611e77575b600094611e49575b5090611c786060611cb593019480865215156137a5565b611c85845161150c61507e565b600187523360208801526001600160a01b0389166040880152606087018590526001600160a01b03166080870152565b8560a08601528360c08601524260e086015281516101008601526101208501526040519663369f271360e01b8852602088600481845afa978815611e3c575b600098611e1b575b50803b1561000e5760008091600460405180948193635420f5a760e01b83525af18015611e0e575b611dfb575b50603654611d3f906001600160a01b03166102e9565b90813b1561000e57611d9060007ff8b6062ca08c00ea54f74d7f53f049ed4cb014a7787c62250e6dfa1229d7d460966116f0948b83604051809681958294631a675fcf60e21b845260048401614bee565b03925af18015611dee575b611ddb575b505160408051938452602084019690965294820194909452606081019190915242608082015233936001600160a01b031692819060a0820190565b80610f6e611de892612e1e565b38611da0565b611df6612eaa565b611d9b565b80610f6e611e0892612e1e565b38611d29565b611e16612eaa565b611d24565b611e3591985060203d602011610ab757610aa98183612e74565b9638611cfc565b611e44612eaa565b611cf4565b611cb5929194506060611e6d611c789260203d602011610ab757610aa98183612e74565b9592935050611c61565b611e7f612eaa565b611c59565b611c14959650611c0d92611bfe611bf887611bd76020611eb7611c04976101003d61010011610be457610bca8183612e74565b505050505050509c9b5050505050509250611b91565b611ed5612eaa565b611b89565b611ef3915060203d602011610ab757610aa98183612e74565b38611b1d565b611f01612eaa565b611b15565b611f2091945060203d602011610442576104338183612e74565b9238611aa5565b611f2f612eaa565b611a9d565b611f4d915060203d602011610ab757610aa98183612e74565b38611a68565b611f5b612eaa565b611a60565b50606485106119f9565b503461000e5760408060031936011261000e5760365460049060243590823590611f9c906001600160a01b03166102e9565b845163369f271360e01b8152611fcc906020818781865afa908115612099575b60009161207b575b5084106150cf565b611fdc6109b76109b28486613be4565b936000925b84811115611ff6578651806104fb88826108f7565b8651636c20351d60e11b81528281018281526101409591908690829081906020010381885afa95861561206e575b600096612045575b505090610a3f82610a2d6120409491614e63565b611fe1565b61204093929650610a3f918161206692903d10610a7c57610a6c8183612e74565b95919261202c565b612076612eaa565b612024565b612093915060203d8111610ab757610aa98183612e74565b38611fc4565b6120a1612eaa565b611fbc565b503461000e57602036600319011261000e576103ae610cf16004356120c96147d8565b5060365461215c906120e3906001600160a01b03166102e9565b60405163587854a560e11b815260048101849052610140918290829060249082905afa918215612189575b60009261216c575b50506121276001610ca38351151590565b60408101516001600160a01b0316606082015160208301519092908590610100906001600160a01b031692015193339361568c565b600052603b602052604060002090565b6121829250803d10610a7c57610a6c8183612e74565b3880612116565b612191612eaa565b61210e565b503461000e57600036600319011261000e576037546040516001600160a01b039091168152602090f35b503461000e57602036600319011261000e576004356121de8161025f565b603754604051632fe4a15f60e21b81526001600160a01b0392831660048201529161010091829184916024918391165afa80156122d7575b600090819282838490859286948796612270575b506104fb969798506040519889988994919260e0969399989794919961010087019a8752602087015260408601526060850152608084015260a083015260c08201520152565b96975050505050505082813d83116122d0575b61228d8183612e74565b8101031261059d57508051602082015160408301516060840151608085015160a086015160c087015160e0909701519496879695949093919291906104fb61222a565b503d612283565b6122df612eaa565b612216565b503461000e57602036600319011261000e576036546110d09060043590612313906001600160a01b03166102e9565b9061234460405163369f271360e01b8152602081600481875afa9081156111dd576000916111bf5750821115614cf9565b61234c6147d8565b506040518092636c20351d60e11b82528180610140968795600483019190602083019252565b503461000e57606036600319011261000e5761238f60043561025f565b60443561239a613191565b6123a5600435615c44565b6123b0600435615d04565b6123bb602435615dc5565b6123c36134e0565b603654612672906040906123df906001600160a01b03166102e9565b8151632e79732b60e11b8152600480356001600160a01b03169082015261241d90602081602481865afa90811561187a5760009161185b5750613571565b8460021480156129bb575b612431906135e9565b61243a856135c9565b6101c084019061244a8683613641565b825163e240301960e01b8152600480356001600160a01b03169082015261249690602081602481865afa9081156129ae575b60009161298f575b5080610160880152602435111561364d565b603754612621906124af906001600160a01b03166102e9565b8451632c6d0e9b60e01b8152336004820152602090610100906125409061253b906125379084816024818a5afa908115612982575b8d6000918290839084908590869761293d575b509260c09285928796956125166101e06125319a98019a8b9015159052565b60408501528d8401528b83015260e0820152015215156136e7565b51151590565b1590565b613733565b60395461259d90612559906001600160a01b03166102e9565b8851630e563a7d60e41b81523360048201526024803590820152908490829060449082905afa908115612930575b600091612913575b508060608c015215156137a5565b606089015160e08a0151918a0151838b015189516312737c3360e01b8152600480356001600160a01b031690820152602480359082015260448101939093526064830193909352608482015260a4810191909152918290818060c4810103915afa908115612906575b6000916128e7575b508060a088015260c087015110156137fb565b6001825161262e816135c9565b612637816135c9565b146127d9575b606085015191519161264e836135c9565b60008451809681958294630deb1bf960e21b8452602435336004356004870161395e565b03925af19283156127cc575b6000918294612799575b5061012083019384526101a083019182526036546126ae906001600160a01b03166102e9565b803b1561000e5760405163fa93b2a560e01b8152600480356001600160a01b031690820152336024808301919091523560448201527fe27fbad0754d6c730a8161378bc066f66fac114445968dcfc26d42a3002960139360609290919060009082908183816064810103925af1801561278c575b612779575b505193015193516040805160243581526020810193909352820193909352606081019390935260808301919091524260a083015233916001600160a01b0360043516919060c090a36103ae6001600055565b80610f6e61278692612e1e565b38612727565b612794612eaa565b612722565b9093506127be915060403d6040116127c5575b6127b68183612e74565b810190613948565b9238612688565b503d6127ac565b6127d4612eaa565b61267e565b825163710ba6c360e11b8152600480356001600160a01b0316908201523360248083019190915235604482015261282990602081606481865afa9081156128da575b6000916128bb575b50613864565b61288a6128806128796004602061284a6102e960385460018060a01b031690565b88516335adc96b60e21b815292839182905afa9081156128ae575b60009161288f575b506101608901516139d8565b6064900490565b60243511156138d6565b61263d565b6128a8915060203d602011610ab757610aa98183612e74565b3861286d565b6128b6612eaa565b612865565b6128d4915060203d602011610fad57610f9e8183612e74565b38612823565b6128e2612eaa565b61281b565b612900915060203d602011610ab757610aa98183612e74565b3861260e565b61290e612eaa565b612606565b61292a9150843d8611610ab757610aa98183612e74565b3861258f565b612938612eaa565b612587565b9250505060c09450612531935061296a9150883d8a1161297b575b6129628183612e74565b8101906136a6565b9995985093955091939092506124f7565b503d612958565b61298a612eaa565b6124e4565b6129a8915060203d602011610ab757610aa98183612e74565b38612484565b6129b6612eaa565b61247c565b5060018514612428565b503461000e57602036600319011261000e576004356129e38161025f565b60ff600254169081159182612aab575b8015612a9f575b15612a4357612a0d9082612a2257612ec4565b612a1357005b6103ae60ff1960025416600255565b612a34600160ff196002541617600255565b612a3e6003600155565b612ec4565b60405162461bcd60e51b815260206004820152602e60248201527f436f6e747261637420696e7374616e63652068617320616c726561647920626560448201526d195b881a5b9a5d1a585b1a5e995960921b6064820152608490fd5b506001546003116129fa565b50303b156129f3565b503461000e57600036600319011261000e576035546040516001600160a01b039091168152602090f35b503461000e57600036600319011261000e5760206040516000198152f35b50606036600319011261000e576004803590612b178261025f565b6024359160443561ffff81160361000e57612b30613191565b612b3983615dc5565b603654612b4e906001600160a01b03166102e9565b60408051631a59df7760e11b81526001600160a01b0384168186019081529095919491929060209081908890819083010381855afa968715612dd0575b600097612db1575b5085516370a0823160e01b8152338482019081526001600160a01b039889169391908390829081906020010381875afa928315612da4575b600093612d85575b5050803b1561000e578651632f35bfe960e21b81526001600160a01b038716858201908152336020820152604081018790529215606084015291600091839182908490829060800103925af18015612d78575b612d65575b50803b1561000e5784516394362e8b60e01b81523383820190815260208101859052909160009183919082908490829060400103925af18015612d58575b612d45575b50603654612c84906001600160a01b03166102e9565b803b1561000e5784516328fcf4d360e01b81526001600160a01b038516928101928352336020840152604083018490526000967fdcbc1c05240f31ff3ad067ef1ee35ce4997762752e3a095284754544f4c709d793612d1893919291899183919082908190606001039134905af18015612d38575b612d25575b508551938452426020850152339416929081906040820190565b0390a3610f266001600055565b80610f6e612d3292612e1e565b38612cfe565b612d40612eaa565b612cf9565b80610f6e612d5292612e1e565b38612c6e565b612d60612eaa565b612c69565b80610f6e612d7292612e1e565b38612c2b565b612d80612eaa565b612c26565b612d9c929350803d10610ab757610aa98183612e74565b903880612bd3565b612dac612eaa565b612bcb565b81612dc99298503d8911610442576104338183612e74565b9538612b93565b612dd8612eaa565b612b8b565b503461000e57600036600319011261000e576036546040516001600160a01b039091168152602090f35b50634e487b7160e01b600052604160045260246000fd5b6001600160401b038111612e3157604052565b612e39612e07565b604052565b606081019081106001600160401b03821117612e3157604052565b604081019081106001600160401b03821117612e3157604052565b90601f801991011681019081106001600160401b03821117612e3157604052565b9081602091031261000e57516105da8161025f565b506040513d6000823e3d90fd5b5190612ec28261025f565b565b603580546001600160a01b0319166001600160a01b03929092169182179055612ec290612ef0906102e9565b6040518091630774f5f560e21b825281600460209384935afa918215613175575b600092613156575b50603680546001600160a01b0319166001600160a01b03938416179055612f9482600483612f516102e960355460018060a01b031690565b6040516352cb335b60e11b815292839182905afa908115613149575b60009161312c575b501660018060a01b03166001600160601b0360a01b6037541617603755565b612ff282600483612faf6102e960355460018060a01b031690565b604051639fabe17560e01b815292839182905afa90811561311f575b600091613102575b501660018060a01b03166001600160601b0360a01b6038541617603855565b6130508260048361300d6102e960355460018060a01b031690565b604051633efbbf0f60e21b815292839182905afa9081156130f5575b6000916130d8575b501660018060a01b03166001600160601b0360a01b6039541617603955565b603554600490829061306a906001600160a01b03166102e9565b604051635920a6a160e01b815292839182905afa9182156130cb575b6000926130ae575b50501660018060a01b03166001600160601b0360a01b603a541617603a55565b6130c49250803d10610442576104338183612e74565b388061308e565b6130d3612eaa565b613086565b6130ef9150843d8611610442576104338183612e74565b38613031565b6130fd612eaa565b613029565b6131199150843d8611610442576104338183612e74565b38612fd3565b613127612eaa565b612fcb565b6131439150843d8611610442576104338183612e74565b38612f75565b613151612eaa565b612f6d565b8161316e9293503d8411610442576104338183612e74565b9038612f19565b61317d612eaa565b612f11565b9081602091031261000e575190565b6002600054146131a2576002600055565b60405162461bcd60e51b815260206004820152601f60248201527f5265656e7472616e637947756172643a207265656e7472616e742063616c6c006044820152606490fd5b156131ee57565b60405162461bcd60e51b815260206004820152604b60248201527f5468652063616c6c6572206f6620746869732066756e6374696f6e2063616e2060448201527f6f6e6c79206265207468652061546f6b656e20636f6e7472616374206f66207460648201526a686973207265736572766560a81b608482015260a490fd5b9261327784615c44565b61328083615dc5565b603654613295906001600160a01b03166102e9565b60405163e240301960e01b81526001600160a01b03861660048201526132d8908590602081602481875afa90811561343f575b600091613421575b50101561344c565b803b1561000e5760405163afcdbea360e01b81526001600160a01b0386811660048301528416602482015260448101859052911560648301526000908290608490829084905af18015613414575b613401575b50603654613341906001600160a01b03166102e9565b803b1561000e5760405163fa93b2a560e01b81526001600160a01b03858116600483015283166024820152604481018490527f9c4ed599cd8555b9c1e8cd7643240d7d71eb76b792948c49fcb4d411f7b6b3c6926133dc929091906000908290606490829084905af180156133f4575b6133e1575b50604080519485524260208601526001600160a01b039182169590911693918291820190565b0390a3565b80610f6e6133ee92612e1e565b386133b6565b6133fc612eaa565b6133b1565b80610f6e61340e92612e1e565b3861332b565b61341c612eaa565b613326565b613439915060203d8111610ab757610aa98183612e74565b386132d0565b613447612eaa565b6132c8565b1561345357565b60405162461bcd60e51b81526020600482015260316024820152600080516020615ebe83398151915260448201527061696c61626c6520746f2072656465656d60781b6064820152608490fd5b6040519061020082018281106001600160401b03821117612e3157604052565b6040519061014082018281106001600160401b03821117612e3157604052565b6134e86134a0565b9060008083528060208401528060408401528060608401528060808401528060a08401528060c08401528060e08401528061010084015280610120840152806101408401528061016084015280610180840152806101a0840152806101c08401526101e0830152565b5190612ec282610270565b9081602091031261000e57516105da81610270565b1561357857565b60405162461bcd60e51b8152602060048201526024808201527f52657365727665206973206e6f7420656e61626c656420666f7220626f72726f60448201526377696e6760e01b6064820152608490fd5b600311156135d357565b634e487b7160e01b600052602160045260246000fd5b156135f057565b60405162461bcd60e51b815260206004820152602360248201527f496e76616c696420696e7465726573742072617465206d6f64652073656c65636044820152621d195960ea1b6064820152608490fd5b60038210156135d35752565b1561365457565b60405162461bcd60e51b81526020600482015260366024820152600080516020615ebe83398151915260448201527561696c61626c6520696e20746865207265736572766560501b6064820152608490fd5b91908261010091031261000e5781519160208101519160408201519160608101519160808201519160a08101519160e060c08301519201516105da81610270565b156136ee57565b60405162461bcd60e51b815260206004820152601b60248201527f54686520636f6c6c61746572616c2062616c616e6365206973203000000000006044820152606490fd5b1561373a57565b60405162461bcd60e51b815260206004820152603f60248201527f54686520626f72726f7765722063616e20616c7265616479206265206c69717560448201527f69646174656420736f2068652063616e6e6f7420626f72726f77206d6f7265006064820152608490fd5b156137ac57565b60405162461bcd60e51b815260206004820152602160248201527f54686520616d6f756e7420746f20626f72726f7720697320746f6f20736d616c6044820152601b60fa1b6064820152608490fd5b1561380257565b60405162461bcd60e51b815260206004820152603460248201527f5468657265206973206e6f7420656e6f75676820636f6c6c61746572616c20746044820152736f20636f7665722061206e657720626f72726f7760601b6064820152608490fd5b1561386b57565b60405162461bcd60e51b815260206004820152603960248201527f557365722063616e6e6f7420626f72726f77207468652073656c65637465642060448201527f616d6f756e742077697468206120737461626c652072617465000000000000006064820152608490fd5b156138dd57565b60405162461bcd60e51b815260206004820152603c60248201527f5573657220697320747279696e6720746f20626f72726f7720746f6f206d756360448201527f68206c6971756964697479206174206120737461626c652072617465000000006064820152608490fd5b919082604091031261000e576020825192015190565b6001600160a01b039182168152911660208201526040810191909152606081019190915260a0810192919060038210156135d35760800152565b50634e487b7160e01b600052601160045260246000fd5b670de0b6b3a76400009080600019048211811515166139cc570290565b6139d4613998565b0290565b80600019048211811515166139cc570290565b81156139f5570490565b634e487b7160e01b600052601260045260246000fd5b6040519061010082018281106001600160401b03821117613a5b575b6040528160e06000918281528260208201528260408201528260608201528260808201528260a08201528260c08201520152565b613a63612e07565b613a27565b9081606091031261000e578051916040602083015192015190565b15613a8a57565b60405162461bcd60e51b815260206004820152602960248201527f546865207573657220646f6573206e6f74206861766520616e7920626f72726f604482015268772070656e64696e6760b81b6064820152608490fd5b15613ae857565b60a460405162461bcd60e51b815260206004820152604460248201527f546f207265706179206f6e20626568616c66206f6620616e207573657220616e60448201527f206578706c6963697420616d6f756e7420746f207265706179206973206e65656064820152633232b21760e11b6084820152fd5b6001906001198111613b6f570190565b613b77613998565b0190565b81198111613b6f570190565b15613b8e57565b60405162461bcd60e51b815260206004820152602860248201527f496e76616c6964206d73672e76616c75652073656e7420666f72207468652072604482015267195c185e5b595b9d60c21b6064820152608490fd5b818110613bef570390565b613bf7613998565b0390565b929192613c06613a0b565b6036805490949190613c20906001600160a01b03166102e9565b60408051639fb8afcd60e01b81526001600160a01b03868116600480840191909152908a16602483015292979295919489926060836044818d5afa998a15614487575b6000928394849c61444d575b508888019b8c5260208881019586529388528851633faacc6b60e21b81526001600160a01b03808516828d01908152971687860152958490879081906040010381855afa958615614440575b600096614421575b5060e0880195865273eeeeeeeeeeeeeeeeeeeeeeeeeeeeeeeeeeeeeeee6001600160a01b0384811691821460608b01908152919c909991938f9190613d0a89511515613a83565b60001982149182158093614416575b613d2290613ae1565b613d2f8a518c5190613b7b565b9260808601938085528161440c575b50614404575b50613d526125378751151590565b80156143f9575b613d6290613b87565b8151908a518211156141fb5750509060a08f92613d8290518b5190613be4565b93018381528a54909890613d9e906001600160a01b03166102e9565b90848b51945191511493823b1561000e578f8f6000968b948894613e0593519a8b998a98899763da12d96f60e01b89528801949196959260a0949160c0870198600180881b0380921688521660208701526040860152606085015260808401521515910152565b03925af180156141ee575b6141db575b508551806140be575b508654613e3e90613e37906001600160a01b03166102e9565b9251151590565b600090156140b85750613e52865134613be4565b915b855192813b1561000e578a516328fcf4d360e01b81526001600160a01b038616818e019081523360208201526040810195909552613ebc9490926000928492839190829060600103925af180156140ab575b614098575b50600052603d602052604060002090565b5494613ef68387613ed76102e9603a5460018060a01b031690565b8b516331a9108f60e11b8152808e019283529384928391829160200190565b03915afa93841561408b575b600094614064575b505054613f1f906001600160a01b03166102e9565b90835191803b1561000e57885163fa93b2a560e01b81526001600160a01b039283168b82019081529489169092166020850152604084019290925291600091839182908490829060600103925af18015614057575b614044575b50603a54613f8f906001600160a01b03166102e9565b803b1561000e57600061401f94613fe1927fb718f0b14f03d8c3adf35b15e3da52421b042ac879e5a689011a8b1e0036773d99838a51809681958294632890e0d760e01b845283019190602083019252565b03925af18015614037575b614024575b5051905196519351938493339916974292859094939260609260808301968352602083015260408201520152565b0390a4565b80610f6e61403192612e1e565b38613ff1565b61403f612eaa565b613fec565b80610f6e61405192612e1e565b38613f79565b61405f612eaa565b613f74565b613f1f9294506102e9918161408492903d10610442576104338183612e74565b9391613f0a565b614093612eaa565b613f02565b80610f6e6140a592612e1e565b38613eab565b6140b3612eaa565b613ea6565b91613e54565b87546140d2906001600160a01b03166102e9565b8b6140dd8551151590565b600090156141d5575082915b60355488908e90614102906001600160a01b03166102e9565b9051637744894b60e11b815293849182905afa9182156141c8575b6000926141a9575b50803b1561000e57614179936000938f8f519687958694859363c7d1423760e01b85528d339186019293606092919594608085019660018060a01b0393848092168752166020860152604085015216910152565b03925af1801561419c575b15613e1e5780610f6e61419692612e1e565b38613e1e565b6141a4612eaa565b614184565b6141c1919250883d8a11610442576104338183612e74565b9038614125565b6141d0612eaa565b61411d565b916140e9565b80610f6e6141e892612e1e565b38613e15565b6141f6612eaa565b613e10565b9450959c9699949750975050508b989b5191813b1561000e576142919360008f8f948e838a614273613e379a6102e99a519889978896879563da12d96f60e01b87528601909360009360a093969560c0840197600180871b038092168552166020840152846040840152606083015260808201520152565b03925af180156143ec575b6143d9575b50546001600160a01b031690565b600090156143d357508251935b83519282826142b76102e960355460018060a01b031690565b8d51637744894b60e11b815292839182905afa9283156143c6575b6000936143a7575b5050803b1561000e578a5163c7d1423760e01b81526001600160a01b03998a16938101938452898d1660208501526040840194909452971660608201527fb718f0b14f03d8c3adf35b15e3da52421b042ac879e5a689011a8b1e0036773d9661401f946000928492918391829060800103925af1801561439a575b614387575b50519251955192839233981696429184606091949392608082019560008352602083015260408201520152565b80610f6e61439492612e1e565b3861435a565b6143a2612eaa565b614355565b6143be929350803d10610442576104338183612e74565b9038806142da565b6143ce612eaa565b6142d2565b9361429e565b80610f6e6143e692612e1e565b38614283565b6143f4612eaa565b61427e565b508151341015613d59565b825238613d44565b9050811038613d3e565b5033848e1614613d19565b614439919650843d8611610ab757610aa98183612e74565b9438613cc3565b614448612eaa565b613cbb565b9193509a5061447491935060603d8111614480575b61446c8183612e74565b810190613a68565b93919290939a38613c6f565b503d614462565b61448f612eaa565b613c63565b1561449b57565b60405162461bcd60e51b815260206004820152602a60248201527f5573657220646f6573206e6f74206861766520616e79206c69717569646974796044820152690819195c1bdcda5d195960b21b6064820152608490fd5b156144fa57565b60405162461bcd60e51b815260206004820152603060248201527f55736572206465706f73697420697320616c7265616479206265696e6720757360448201526f195908185cc818dbdb1b185d195c985b60821b6064820152608490fd5b6020906001600160401b038111614575575b601f01601f19160190565b61457d612e07565b61456a565b3d156145ad573d9061459382614558565b916145a16040519384612e74565b82523d6000602084013e565b606090565b156145b957565b60405162461bcd60e51b815260206004820152601760248201527f4c69717569646174696f6e2063616c6c206661696c65640000000000000000006044820152606490fd5b918091926000905b82821061461e575011614617575050565b6000910152565b91508060209183015181860152018291614606565b919060408382031261000e578251926020810151906001600160401b03821161000e570181601f8201121561000e57805161466d81614558565b9261467b6040519485612e74565b8184526020828401011161000e576105da91602080850191016145fe565b90613b77602092828151948592016145fe565b906020916146c5815180928185528580860191016145fe565b601f01601f1916010190565b9060206105da9281815201906146ac565b91908261014091031261000e5781519160208101519160408201519160608101519160808201519160a08101519160c08201519160e0810151916101206101008301519201516105da81610270565b6037546040516328dd2d0160e01b81526001600160a01b0392831660048201529282166024840152670de0b6b3a7640000929161014091829184916044918391165afa9182156147cb575b60009182936147a1575b505081811061479457030490565b61479c613998565b030490565b6147bb935080919250903d106106b55761069d8183612e74565b5050505050505050903880614786565b6147d3612eaa565b61477c565b6040519061014082018281106001600160401b03821117614836575b604052816101206000918281528260208201528260408201528260608201528260808201528260a08201528260c08201528260e0820152826101008201520152565b61483e612e07565b6147f4565b1561484a57565b60405162461bcd60e51b815260206004820152601b60248201527f496e76616c696420496e746572657374205261746520496e70757400000000006044820152606490fd5b1561489657565b60405162461bcd60e51b8152602060048201526014602482015273125b9d985b1a5908111d594811185d194814d95d60621b6044820152606490fd5b156148d957565b60405162461bcd60e51b81526020600482015260506024820152600080516020615ebe83398151915260448201527f61696c61626c6520696e20746865207265736572766520746f206d616b65206160648201526f08189bdc9c9bddc81c1c9bdc1bdcd85b60821b608482015260a490fd5b91908261010091031261000e5781519160208101519160408201519160608101516149758161025f565b91608082015161498481610270565b9160a081015161499381610270565b9160e060c08301516149a481610270565b9201516105da81610270565b604d81116149bf575b600a0a90565b6149c7613998565b6149b9565b604051906149d982612e3e565b603382527202fb932b9b2b93b32aa37a137b93937bb901d1606d1b6040837f2020203d3e204c42504d203a72657365727665446563696d616c7320666f722060208201520152565b60405190614a2e82612e3e565b603a82527f6f72726f77416d6f756e744554482c20626f72726f774c5456200000000000006040837f2020203d3e204c42504d203a205f616d6f756e742c207265717565737465644260208201520152565b60405190614a8d82612e3e565b602e82526d037bb90283937b837b9b0b6101d160951b6040837f2020203d3e204c42504d203a20455448204e656564656420666f7220426f727260208201520152565b60405190614add82612e3e565b6035825274037b9102137b93937bb90283937b837b9b0b6101d1605d1b6040837f2020203d3e204c42504d203a20436f6c6c61746572616c204e6565646564206660208201520152565b15614b2e57565b60405162461bcd60e51b815260206004820152603d60248201527f5468657265206973206e6f7420656e6f75676820636f6c6c61746572616c207460448201527f6f20636f7665722061206e657720626f72726f772070726f706f73616c0000006064820152608490fd5b60405190614ba682612e3e565b60338252720103137b93937bb90383937b837b9b0b6101d1606d1b6040837f2020203d3e204c42504d203a20426f72726f772046656520666f72207468697360208201520152565b90815261016081019291612ec29160200190610879565b908161014091031261000e57614c196134c0565b90614c2381613551565b8252614c3160208201612eb7565b6020830152614c4260408201612eb7565b604083015260608101516060830152614c5d60808201612eb7565b608083015260a081015160a083015260c081015160c083015260e081015160e08301526101008082015190830152610120809101519082015290565b15614ca057565b60405162461bcd60e51b815260206004820152602b60248201527f4f6e6c792041637469766520426f72726f772050726f706f73616c2063616e2060448201526a1899481058d8d95c1d195960aa1b6064820152608490fd5b15614d0057565b60405162461bcd60e51b8152602060048201526013602482015272125b9d985b1a590817dc1c9bdc1bdcd85b1259606a1b6044820152606490fd5b15614d4257565b60405162461bcd60e51b815260206004820152602660248201527f456e6420496e646578206f76657220626f72726f7750726f706f73616c4c69736044820152651d10dbdd5b9d60d21b6064820152608490fd5b15614d9d57565b60405162461bcd60e51b815260206004820152602260248201527f4d6178696d756d203230303020697465726174696f6e207065722072657175656044820152611cdd60f21b6064820152608490fd5b6020906001600160401b038111614e06575b60051b0190565b614e0e612e07565b614dff565b90614e1d82614ded565b614e2a6040519182612e74565b8281528092614e3b601f1991614ded565b019060005b828110614e4c57505050565b602090614e576147d8565b82828501015201614e40565b6001906000198114613b6f570190565b8051821015614e875760209160051b010190565b634e487b7160e01b600052603260045260246000fd5b604051906101c082018281106001600160401b03821117614f17575b604052816101a06000918281528260208201528260408201528260608201528260808201528260a08201528260c08201528260e082015282610100820152826101208201528261014082015282610160820152826101808201520152565b614f1f612e07565b614eb9565b15614f2b57565b60405162461bcd60e51b815260206004820152604e6024820152600080516020615ebe83398151915260448201527f61696c61626c6520696e20746865207265736572766520746f206d616b65206160648201526d081b195b99081c1c9bdc1bdcd85b60921b608482015260a490fd5b60405190614fa882612e3e565b604082527f656e64416d6f756e74496e5765692c20636f6c6c61746572616c4c5456203a206040837f2020203d3e204c42504d203a205f616d6f756e742c207265717565737465644c60208201520152565b1561500157565b60405162461bcd60e51b815260206004820152604960248201527f5468657265206973206e6f7420656e6f7567682062616c616e636520746f206c60448201527f656e6420696e206f7264657220746f20636f7665722061206e6577206c656e64606482015268081c1c9bdc1bdcd85b60ba1b608482015260a490fd5b6040519061508b82612e3e565b602f82526e032b73210383937b837b9b0b6101d1608d1b6040837f2020203d3e204c42504d203a204c656e642046656520666f722074686973206c60208201520152565b156150d657565b60405162461bcd60e51b815260206004820152602960248201527f456e6420496e64657820657863656564696e67204c656e6450726f706f73616c604482015268131a5cdd10dbdd5b9d60ba1b6064820152608490fd5b93949194615139613191565b61514285615c44565b61514b85615d04565b61515482615dc5565b603654615169906001600160a01b03166102e9565b604051636c20351d60e11b8152600481018890529093610140918281602481895afa92831561567f575b600093615660575b505060808201516001600160a01b0316908885828a826101208801519a8c60c08a0151968460a08c01519b606001516151d48d826139d8565b606490046151e191613b7b565b603554909f906001600160a01b03166001600160a01b0316928c82604051808097631f94a27560e31b82525a92600491602094fa9586156153276153cb9e61530f602060409f60009c6153ae9b6153499a6153359961532799615653575b600093615628575b5060405163b3596f0760e01b81526001600160a01b0390911660048201526152d691858280602481015b6001600160a01b03909716960381875afa91821561561b575b6000926155ec575b506152c56152b0836152ab6152ce946152ab338b614731565b6139d8565b6ec097ce7bc90715b34b9f1000000000900490565b9b61150c615952565b61150c61598b565b6152e28961150c6159d7565b60405163b3596f0760e01b81526001600160a01b0390921660048301529092839190829081906024820190565b03915afa9081156155df575b8b916117cc57506139d8565b670de0b6b3a7640000900490565b906153428261150c615a26565b1015615a6d565b6153558961150c615bbc565b8751637eb83b6360e11b81526001600160a01b0393841660048201529290941660248301526044820195909552606481019690965260016084870152600060a487015260c48601919091528492839190829060e4820190565b03925af19081156155d2575b6000916155b1575b5061150c615bf5565b6036546153e0906001600160a01b03166102e9565b96873b1561000e5786615558958a60008e6154e88f966154667f0fe896ff57f0d00b15c188699fac3b7ce27c564a706118e52c3c45e88c7bab7e9f88869160209b838a6040519687958694859363fa93b2a560e01b855260018060a01b0316906004850160409194939294606082019560018060a01b0380921683521660208201520152565b03925af180156155a4575b615591575b50603a5461548c906001600160a01b03166102e9565b958d6040519a8b998a9889976327b13f6760e21b8952429460048a019491989796939060e0969361010087019a60018060a01b03809316885260208801521660408601526060850152608084015260a083015260c08201520152565b03925af1908115615584575b600091615565575b506155118a600052603d602052604060002090565b55604080516001600160a01b03938416815297831660208901528701949094526000606087015260808601939093524260a0860152908216949091169290819060c0820190565b0390a4612ec26001600055565b61557e915060203d602011610ab757610aa98183612e74565b386154fc565b61558c612eaa565b6154f4565b80610f6e61559e92612e1e565b38615476565b6155ac612eaa565b615471565b6155ca915060403d6040116127c5576127b68183612e74565b9050386153c2565b6155da612eaa565b6153ba565b6155e7612eaa565b61531b565b6152ab92506152b06152ce926156116152c5938a3d8c11610ab757610aa98183612e74565b9450925050615292565b615623612eaa565b61528a565b61527191935091856156496152d694823d8411610442576104338183612e74565b9492505091615247565b61565b612eaa565b61523f565b615677929350803d10610a7c57610a6c8183612e74565b90388061519b565b615687612eaa565b615193565b938295615697613191565b6156a086615c44565b6156a986615d04565b6156b283615dc5565b6036546156c7906001600160a01b03166102e9565b604051636c20351d60e11b81526004810186905261014092908381602481865afa938415615945575b600094615926575b505060808301516001600160a01b0316918160c085015191878a8c60a089015198606001516157278a826139d8565b6064900461573491613b7b565b9b836157403384614731565b615749906139af565b80615752615adf565b9061575c91615e11565b101561576790615b3e565b85615770615bbc565b9061577a91615e11565b604051637eb83b6360e11b81526001600160a01b0392831660048201529290911660248301526044820192909252606481019390935260016084840181905260a484015260c48301528160e4815a604094600091f16157e99181156155d2576000916155b1575061150c615bf5565b6036546157fe906001600160a01b03166102e9565b96873b1561000e5786615558958a60008e61588a8f966154667f0fe896ff57f0d00b15c188699fac3b7ce27c564a706118e52c3c45e88c7bab7e9f88869160209b838a6040519687958694859363fa93b2a560e01b855260018060a01b0360805260805116906004850160409194939294606082019560018060a01b0380921683521660208201520152565b03925af1908115615919575b6000916158fb575b506158b38a600052603d602052604060002090565b556040519485946080511698608051169742938691959493909260a09360c0840197600180871b03809216855216602084015260408301526001606083015260808201520152565b615913915060203d8111610ab757610aa98183612e74565b3861589e565b615921612eaa565b615896565b61593d929450803d10610a7c57610a6c8183612e74565b9138806156f8565b61594d612eaa565b6156f0565b6040519061595f82612e59565b601d82527f2020203d3e204c42504d203a20636f6c6c61746572616c4c7476203a200000006020830152565b6040519061599882612e3e565b602a825269031b2a4b72bb2b4901d160b51b6040837f2020203d3e204c42504d203a20636f6c6c61746572616c4f7261636c6550726960208201520152565b604051906159e482612e3e565b602d82526c0383634b2b22b30b63ab2901d1609d1b6040837f2020203d3e204c42504d203a2075736572436f6c6c61746572616c4c7476417060208201520152565b60405190615a3382612e3e565b602582526403a34101d160dd1b6040837f2020203d3e204c42504d203a20626f72726f7741737365745072696365496e4560208201520152565b15615a7457565b60405162461bcd60e51b815260206004820152603f60248201527f426f72726f77657220646f65736e2774206861766520656e6f75676820636f6c60448201527f6c61746572616c20746f20616363657074204c656e642050726f706f73616c006064820152608490fd5b60405190615aec82612e3e565b603d82527f626c6520526573657276652042616c616e636520696e20576569203a200000006040837f2020203d3e204c42504d203a20757365722043757272656e7420417661696c6160208201520152565b15615b4557565b60a460405162461bcd60e51b815260206004820152604460248201527f4c656e64657220646f65736e2774206861766520656e6f75676820526573657260448201527f76652042616c616e636520746f2041636365707420426f72726f772050726f706064820152631bdcd85b60e21b6084820152fd5b60405190615bc982612e59565b601b82527f2020203d3e204c42504d203a205365727669636520466565203a2000000000006020830152565b60405190615c0282612e3e565b602d82526c01024b731b932b0b9b2b2101d1609d1b6040837f2020203d3e204c42504d203a205573657220426f72726f772042616c616e636560208201520152565b603654604051630283aeb760e11b81526001600160a01b0392831660048201529160209183916024918391165afa908115615cf7575b600091615cd9575b5015615c8a57565b60405162461bcd60e51b815260206004820152602160248201527f416374696f6e20726571756972657320616e20616374697665207265736572766044820152606560f81b6064820152608490fd5b615cf1915060203d8111610fad57610f9e8183612e74565b38615c82565b615cff612eaa565b615c7a565b603654604051634a08accb60e01b81526001600160a01b0392831660048201529160209183916024918391165afa908115615db8575b600091615d9a575b50615d4957565b60405162461bcd60e51b8152602060048201526024808201527f416374696f6e20726571756972657320616e20756e667265657a6564207265736044820152636572766560e01b6064820152608490fd5b615db2915060203d8111610fad57610f9e8183612e74565b38615d42565b615dc0612eaa565b615d3a565b15615dcc57565b60405162461bcd60e51b815260206004820152601d60248201527f416d6f756e74206d7573742062652067726561746572207468616e20300000006044820152606490fd5b615e54615e4091612ec293604051938492632d839cb360e21b60208501526040602485015260648401906146ac565b90604483015203601f198101835282612e74565b600080916020815191016a636f6e736f6c652e6c6f675afa50565b615e5491612ec294615e9f9460405195869463a7a8785360e01b60208701526080602487015260a48601906146ac565b9260448501526064840152608483015203601f198101835282612e7456fe5468657265206973206e6f7420656e6f756768206c6971756964697479206176a2646970667358221220dfa50a51b8fb90a631b4370fb43db7752a19816114ef8004ff6251d7bc9124d864736f6c634300080d0033",
  "linkReferences": {},
  "deployedLinkReferences": {}
}