{
  "_format": "hh-sol-artifact-1",
  "contractName": "LendingBoardProposeMode",
  "sourceName": "contracts/lendingboard/LendingBoardProposeMode.sol",
  "abi": [
    {
      "anonymous": false,
      "inputs": [
        {
          "indexed": true,
          "internalType": "address",
          "name": "_reserve",
          "type": "address"
        },
        {
          "indexed": true,
          "internalType": "address",
          "name": "_user",
          "type": "address"
        },
        {
          "indexed": false,
          "internalType": "uint256",
          "name": "_amount",
          "type": "uint256"
        },
        {
          "indexed": false,
          "internalType": "uint256",
          "name": "_borrowRateMode",
          "type": "uint256"
        },
        {
          "indexed": false,
          "internalType": "uint256",
          "name": "_borrowRate",
          "type": "uint256"
        },
        {
          "indexed": false,
          "internalType": "uint256",
          "name": "_originationFee",
          "type": "uint256"
        },
        {
          "indexed": false,
          "internalType": "uint256",
          "name": "_borrowBalanceIncrease",
          "type": "uint256"
        },
        {
          "indexed": false,
          "internalType": "uint256",
          "name": "_timestamp",
          "type": "uint256"
        }
      ],
      "name": "Borrow",
      "type": "event"
    },
    {
      "anonymous": false,
      "inputs": [
        {
          "indexed": true,
          "internalType": "address",
          "name": "_reserveToLend",
          "type": "address"
        },
        {
          "indexed": true,
          "internalType": "address",
          "name": "_lender",
          "type": "address"
        },
        {
          "indexed": false,
          "internalType": "address",
          "name": "_borrower",
          "type": "address"
        },
        {
          "indexed": true,
          "internalType": "uint256",
          "name": "_proposalId",
          "type": "uint256"
        },
        {
          "indexed": false,
          "internalType": "uint256",
          "name": "_amount",
          "type": "uint256"
        },
        {
          "indexed": false,
          "internalType": "uint256",
          "name": "_originationFee",
          "type": "uint256"
        },
        {
          "indexed": false,
          "internalType": "uint256",
          "name": "_timestamp",
          "type": "uint256"
        }
      ],
      "name": "BorrowAccepted",
      "type": "event"
    },
    {
      "anonymous": false,
      "inputs": [
        {
          "indexed": true,
          "internalType": "address",
          "name": "_reserveToBorrow",
          "type": "address"
        },
        {
          "indexed": true,
          "internalType": "address",
          "name": "_borrowProposer",
          "type": "address"
        },
        {
          "indexed": true,
          "internalType": "uint256",
          "name": "_proposalId",
          "type": "uint256"
        },
        {
          "indexed": false,
          "internalType": "uint256",
          "name": "_amount",
          "type": "uint256"
        },
        {
          "indexed": false,
          "internalType": "address",
          "name": "_reserveForCollateral",
          "type": "address"
        },
        {
          "indexed": false,
          "internalType": "uint256",
          "name": "_interestRate",
          "type": "uint256"
        },
        {
          "indexed": false,
          "internalType": "uint256",
          "name": "_originationFee",
          "type": "uint256"
        },
        {
          "indexed": false,
          "internalType": "uint256",
          "name": "_dueDate",
          "type": "uint256"
        },
        {
          "indexed": false,
          "internalType": "uint256",
          "name": "_timestamp",
          "type": "uint256"
        }
      ],
      "name": "BorrowProposed",
      "type": "event"
    },
    {
      "anonymous": false,
      "inputs": [
        {
          "indexed": true,
          "internalType": "address",
          "name": "_reserve",
          "type": "address"
        },
        {
          "indexed": true,
          "internalType": "address",
          "name": "_user",
          "type": "address"
        },
        {
          "indexed": false,
          "internalType": "uint256",
          "name": "_amount",
          "type": "uint256"
        },
        {
          "indexed": false,
          "internalType": "uint256",
          "name": "_timestamp",
          "type": "uint256"
        }
      ],
      "name": "Deposit",
      "type": "event"
    },
    {
      "anonymous": false,
      "inputs": [
        {
          "indexed": true,
          "internalType": "address",
          "name": "_reserveToLend",
          "type": "address"
        },
        {
          "indexed": true,
          "internalType": "address",
          "name": "_lender",
          "type": "address"
        },
        {
          "indexed": false,
          "internalType": "address",
          "name": "_borrower",
          "type": "address"
        },
        {
          "indexed": true,
          "internalType": "uint256",
          "name": "_proposalId",
          "type": "uint256"
        },
        {
          "indexed": false,
          "internalType": "uint256",
          "name": "_amount",
          "type": "uint256"
        },
        {
          "indexed": false,
          "internalType": "uint256",
          "name": "_originationFee",
          "type": "uint256"
        },
        {
          "indexed": false,
          "internalType": "uint256",
          "name": "_timestamp",
          "type": "uint256"
        }
      ],
      "name": "LendAccepted",
      "type": "event"
    },
    {
      "anonymous": false,
      "inputs": [
        {
          "indexed": true,
          "internalType": "address",
          "name": "_reserveToLend",
          "type": "address"
        },
        {
          "indexed": true,
          "internalType": "address",
          "name": "_lendProposer",
          "type": "address"
        },
        {
          "indexed": true,
          "internalType": "uint256",
          "name": "_proposalId",
          "type": "uint256"
        },
        {
          "indexed": false,
          "internalType": "uint256",
          "name": "_amount",
          "type": "uint256"
        },
        {
          "indexed": false,
          "internalType": "uint256",
          "name": "_interestRate",
          "type": "uint256"
        },
        {
          "indexed": false,
          "internalType": "uint256",
          "name": "_originationFee",
          "type": "uint256"
        },
        {
          "indexed": false,
          "internalType": "uint256",
          "name": "_dueDate",
          "type": "uint256"
        },
        {
          "indexed": false,
          "internalType": "uint256",
          "name": "_proposalTimeStamp",
          "type": "uint256"
        }
      ],
      "name": "LendProposed",
      "type": "event"
    },
    {
      "anonymous": false,
      "inputs": [
        {
          "indexed": true,
          "internalType": "address",
          "name": "_collateral",
          "type": "address"
        },
        {
          "indexed": true,
          "internalType": "address",
          "name": "_reserve",
          "type": "address"
        },
        {
          "indexed": true,
          "internalType": "address",
          "name": "_user",
          "type": "address"
        },
        {
          "indexed": false,
          "internalType": "uint256",
          "name": "_purchaseAmount",
          "type": "uint256"
        },
        {
          "indexed": false,
          "internalType": "uint256",
          "name": "_liquidatedCollateralAmount",
          "type": "uint256"
        },
        {
          "indexed": false,
          "internalType": "uint256",
          "name": "_accruedBorrowInterest",
          "type": "uint256"
        },
        {
          "indexed": false,
          "internalType": "address",
          "name": "_liquidator",
          "type": "address"
        },
        {
          "indexed": false,
          "internalType": "bool",
          "name": "_receiveAToken",
          "type": "bool"
        },
        {
          "indexed": false,
          "internalType": "uint256",
          "name": "_timestamp",
          "type": "uint256"
        }
      ],
      "name": "LiquidationCall",
      "type": "event"
    },
    {
      "anonymous": false,
      "inputs": [
        {
          "indexed": true,
          "internalType": "address",
          "name": "_collateral",
          "type": "address"
        },
        {
          "indexed": true,
          "internalType": "address",
          "name": "_reserve",
          "type": "address"
        },
        {
          "indexed": true,
          "internalType": "address",
          "name": "_user",
          "type": "address"
        },
        {
          "indexed": false,
          "internalType": "uint256",
          "name": "_feeLiquidated",
          "type": "uint256"
        },
        {
          "indexed": false,
          "internalType": "uint256",
          "name": "_liquidatedCollateralForFee",
          "type": "uint256"
        },
        {
          "indexed": false,
          "internalType": "uint256",
          "name": "_timestamp",
          "type": "uint256"
        }
      ],
      "name": "OriginationFeeLiquidated",
      "type": "event"
    },
    {
      "anonymous": false,
      "inputs": [
        {
          "indexed": true,
          "internalType": "address",
          "name": "_reserveToReceive",
          "type": "address"
        },
        {
          "indexed": true,
          "internalType": "address",
          "name": "_lender",
          "type": "address"
        },
        {
          "indexed": false,
          "internalType": "address",
          "name": "_reserveForCollateral",
          "type": "address"
        },
        {
          "indexed": false,
          "internalType": "address",
          "name": "_borrower",
          "type": "address"
        },
        {
          "indexed": true,
          "internalType": "uint256",
          "name": "_proposalId",
          "type": "uint256"
        },
        {
          "indexed": false,
          "internalType": "uint256",
          "name": "_amount",
          "type": "uint256"
        },
        {
          "indexed": false,
          "internalType": "bool",
          "name": "_isBorrowProposal",
          "type": "bool"
        },
        {
          "indexed": false,
          "internalType": "uint256",
          "name": "_originationFee",
          "type": "uint256"
        },
        {
          "indexed": false,
          "internalType": "uint256",
          "name": "_timestamp",
          "type": "uint256"
        }
      ],
      "name": "ProposalAccepted",
      "type": "event"
    },
    {
      "anonymous": false,
      "inputs": [
        {
          "indexed": true,
          "internalType": "address",
          "name": "_reserve",
          "type": "address"
        },
        {
          "indexed": true,
          "internalType": "address",
          "name": "_user",
          "type": "address"
        },
        {
          "indexed": false,
          "internalType": "uint256",
          "name": "_amount",
          "type": "uint256"
        },
        {
          "indexed": false,
          "internalType": "uint256",
          "name": "_timestamp",
          "type": "uint256"
        }
      ],
      "name": "RedeemUnderlying",
      "type": "event"
    },
    {
      "anonymous": false,
      "inputs": [
        {
          "indexed": true,
          "internalType": "address",
          "name": "_reserve",
          "type": "address"
        },
        {
          "indexed": true,
          "internalType": "address",
          "name": "_user",
          "type": "address"
        },
        {
          "indexed": true,
          "internalType": "address",
          "name": "_repayer",
          "type": "address"
        },
        {
          "indexed": false,
          "internalType": "uint256",
          "name": "_paybackAmount",
          "type": "uint256"
        },
        {
          "indexed": false,
          "internalType": "uint256",
          "name": "_fees",
          "type": "uint256"
        },
        {
          "indexed": false,
          "internalType": "uint256",
          "name": "_borrowBalanceIncrease",
          "type": "uint256"
        },
        {
          "indexed": false,
          "internalType": "uint256",
          "name": "_timestamp",
          "type": "uint256"
        }
      ],
      "name": "Repay",
      "type": "event"
    },
    {
      "anonymous": false,
      "inputs": [
        {
          "indexed": true,
          "internalType": "address",
          "name": "_reserve",
          "type": "address"
        },
        {
          "indexed": true,
          "internalType": "address",
          "name": "_user",
          "type": "address"
        }
      ],
      "name": "ReserveUsedAsCollateralDisabled",
      "type": "event"
    },
    {
      "anonymous": false,
      "inputs": [
        {
          "indexed": true,
          "internalType": "address",
          "name": "_reserve",
          "type": "address"
        },
        {
          "indexed": true,
          "internalType": "address",
          "name": "_user",
          "type": "address"
        }
      ],
      "name": "ReserveUsedAsCollateralEnabled",
      "type": "event"
    },
    {
      "inputs": [],
      "name": "LENDINGPOOL_REVISION",
      "outputs": [
        {
          "internalType": "uint256",
          "name": "",
          "type": "uint256"
        }
      ],
      "stateMutability": "view",
      "type": "function"
    },
    {
      "inputs": [],
      "name": "UINT_MAX_VALUE",
      "outputs": [
        {
          "internalType": "uint256",
          "name": "",
          "type": "uint256"
        }
      ],
      "stateMutability": "view",
      "type": "function"
    },
    {
      "inputs": [],
      "name": "addressesProvider",
      "outputs": [
        {
          "internalType": "contract LendingBoardAddressesProvider",
          "name": "",
          "type": "address"
        }
      ],
      "stateMutability": "view",
      "type": "function"
    },
    {
      "inputs": [
        {
          "internalType": "address",
          "name": "_reserve",
          "type": "address"
        },
        {
          "internalType": "uint256",
          "name": "_amount",
          "type": "uint256"
        },
        {
          "internalType": "uint256",
          "name": "_interestRateMode",
          "type": "uint256"
        }
      ],
      "name": "borrow",
      "outputs": [],
      "stateMutability": "nonpayable",
      "type": "function"
    },
    {
      "inputs": [
        {
          "internalType": "address",
          "name": "_reserveToBorrow",
          "type": "address"
        },
        {
          "internalType": "uint256",
          "name": "_amount",
          "type": "uint256"
        },
        {
          "internalType": "address",
          "name": "_reserveForCollateral",
          "type": "address"
        },
        {
          "internalType": "uint256",
          "name": "_interestRate",
          "type": "uint256"
        },
        {
          "internalType": "uint256",
          "name": "_dueDate",
          "type": "uint256"
        }
      ],
      "name": "borrowProposal",
      "outputs": [],
      "stateMutability": "nonpayable",
      "type": "function"
    },
    {
      "inputs": [
        {
          "internalType": "uint256",
          "name": "_proposalId",
          "type": "uint256"
        }
      ],
      "name": "borrowProposalAccept",
      "outputs": [],
      "stateMutability": "nonpayable",
      "type": "function"
    },
    {
      "inputs": [],
      "name": "core",
      "outputs": [
        {
          "internalType": "contract LendingBoardCore",
          "name": "",
          "type": "address"
        }
      ],
      "stateMutability": "view",
      "type": "function"
    },
    {
      "inputs": [],
      "name": "dataProvider",
      "outputs": [
        {
          "internalType": "contract LendingBoardDataProvider",
          "name": "",
          "type": "address"
        }
      ],
      "stateMutability": "view",
      "type": "function"
    },
    {
      "inputs": [
        {
          "internalType": "address",
          "name": "_reserve",
          "type": "address"
        },
        {
          "internalType": "uint256",
          "name": "_amount",
          "type": "uint256"
        },
        {
          "internalType": "uint16",
          "name": "_referralCode",
          "type": "uint16"
        }
      ],
      "name": "deposit",
      "outputs": [],
      "stateMutability": "payable",
      "type": "function"
    },
    {
      "inputs": [
        {
          "internalType": "uint256",
          "name": "_proposalId",
          "type": "uint256"
        }
      ],
      "name": "getBorrowProposal",
      "outputs": [
        {
          "internalType": "bool",
          "name": "active",
          "type": "bool"
        },
        {
          "internalType": "address",
          "name": "borrower",
          "type": "address"
        },
        {
          "internalType": "address",
          "name": "reserveToBorrow",
          "type": "address"
        },
        {
          "internalType": "uint256",
          "name": "amount",
          "type": "uint256"
        },
        {
          "internalType": "address",
          "name": "reserveForCollateral",
          "type": "address"
        },
        {
          "internalType": "uint256",
          "name": "interestRate",
          "type": "uint256"
        },
        {
          "internalType": "uint256",
          "name": "dueDate",
          "type": "uint256"
        },
        {
          "internalType": "uint256",
          "name": "proposalDate",
          "type": "uint256"
        },
        {
          "internalType": "uint256",
          "name": "ltv",
          "type": "uint256"
        }
      ],
      "stateMutability": "view",
      "type": "function"
    },
    {
      "inputs": [
        {
          "internalType": "uint256",
          "name": "_startIdx",
          "type": "uint256"
        },
        {
          "internalType": "uint256",
          "name": "_endIdx",
          "type": "uint256"
        }
      ],
      "name": "getBorrowProposalList",
      "outputs": [
        {
          "components": [
            {
              "internalType": "bool",
              "name": "active",
              "type": "bool"
            },
            {
              "internalType": "address",
              "name": "proposer",
              "type": "address"
            },
            {
              "internalType": "address",
              "name": "reserveToReceive",
              "type": "address"
            },
            {
              "internalType": "uint256",
              "name": "amount",
              "type": "uint256"
            },
            {
              "internalType": "address",
              "name": "reserveForCollateral",
              "type": "address"
            },
            {
              "internalType": "uint256",
              "name": "interestRate",
              "type": "uint256"
            },
            {
              "internalType": "uint256",
              "name": "dueDate",
              "type": "uint256"
            },
            {
              "internalType": "uint256",
              "name": "proposalDate",
              "type": "uint256"
            },
            {
              "internalType": "uint256",
              "name": "serviceFee",
              "type": "uint256"
            },
            {
              "internalType": "uint256",
              "name": "ltv",
              "type": "uint256"
            },
            {
              "internalType": "uint256",
              "name": "tokenId",
              "type": "uint256"
            },
            {
              "internalType": "bool",
              "name": "isRepayed",
              "type": "bool"
            }
          ],
          "internalType": "struct CoreLibrary.ProposalStructure[]",
          "name": "result",
          "type": "tuple[]"
        }
      ],
      "stateMutability": "view",
      "type": "function"
    },
    {
      "inputs": [
        {
          "internalType": "uint256",
          "name": "_proposalId",
          "type": "uint256"
        }
      ],
      "name": "getLendProposal",
      "outputs": [
        {
          "internalType": "bool",
          "name": "active",
          "type": "bool"
        },
        {
          "internalType": "address",
          "name": "lender",
          "type": "address"
        },
        {
          "internalType": "address",
          "name": "reserveToLend",
          "type": "address"
        },
        {
          "internalType": "uint256",
          "name": "amount",
          "type": "uint256"
        },
        {
          "internalType": "address",
          "name": "reserveForCollateral",
          "type": "address"
        },
        {
          "internalType": "uint256",
          "name": "interestRate",
          "type": "uint256"
        },
        {
          "internalType": "uint256",
          "name": "dueDate",
          "type": "uint256"
        },
        {
          "internalType": "uint256",
          "name": "proposalDate",
          "type": "uint256"
        },
        {
          "internalType": "uint256",
          "name": "ltv",
          "type": "uint256"
        }
      ],
      "stateMutability": "view",
      "type": "function"
    },
    {
      "inputs": [
        {
          "internalType": "uint256",
          "name": "startIdx",
          "type": "uint256"
        },
        {
          "internalType": "uint256",
          "name": "endIdx",
          "type": "uint256"
        }
      ],
      "name": "getLendProposalList",
      "outputs": [
        {
          "components": [
            {
              "internalType": "bool",
              "name": "active",
              "type": "bool"
            },
            {
              "internalType": "address",
              "name": "proposer",
              "type": "address"
            },
            {
              "internalType": "address",
              "name": "reserveToReceive",
              "type": "address"
            },
            {
              "internalType": "uint256",
              "name": "amount",
              "type": "uint256"
            },
            {
              "internalType": "address",
              "name": "reserveForCollateral",
              "type": "address"
            },
            {
              "internalType": "uint256",
              "name": "interestRate",
              "type": "uint256"
            },
            {
              "internalType": "uint256",
              "name": "dueDate",
              "type": "uint256"
            },
            {
              "internalType": "uint256",
              "name": "proposalDate",
              "type": "uint256"
            },
            {
              "internalType": "uint256",
              "name": "serviceFee",
              "type": "uint256"
            },
            {
              "internalType": "uint256",
              "name": "ltv",
              "type": "uint256"
            },
            {
              "internalType": "uint256",
              "name": "tokenId",
              "type": "uint256"
            },
            {
              "internalType": "bool",
              "name": "isRepayed",
              "type": "bool"
            }
          ],
          "internalType": "struct CoreLibrary.ProposalStructure[]",
          "name": "result",
          "type": "tuple[]"
        }
      ],
      "stateMutability": "view",
      "type": "function"
    },
    {
      "inputs": [
        {
          "internalType": "address",
          "name": "_reserve",
          "type": "address"
        }
      ],
      "name": "getReserveConfigurationData",
      "outputs": [
        {
          "internalType": "uint256",
          "name": "ltv",
          "type": "uint256"
        },
        {
          "internalType": "uint256",
          "name": "liquidationThreshold",
          "type": "uint256"
        },
        {
          "internalType": "uint256",
          "name": "liquidationBonus",
          "type": "uint256"
        },
        {
          "internalType": "address",
          "name": "interestRateStrategyAddress",
          "type": "address"
        },
        {
          "internalType": "bool",
          "name": "usageAsCollateralEnabled",
          "type": "bool"
        },
        {
          "internalType": "bool",
          "name": "borrowingEnabled",
          "type": "bool"
        },
        {
          "internalType": "bool",
          "name": "stableBorrowRateEnabled",
          "type": "bool"
        },
        {
          "internalType": "bool",
          "name": "isActive",
          "type": "bool"
        }
      ],
      "stateMutability": "view",
      "type": "function"
    },
    {
      "inputs": [
        {
          "internalType": "address",
          "name": "_reserve",
          "type": "address"
        }
      ],
      "name": "getReserveData",
      "outputs": [
        {
          "internalType": "uint256",
          "name": "totalLiquidity",
          "type": "uint256"
        },
        {
          "internalType": "uint256",
          "name": "availableLiquidity",
          "type": "uint256"
        },
        {
          "internalType": "uint256",
          "name": "totalBorrowsStable",
          "type": "uint256"
        },
        {
          "internalType": "uint256",
          "name": "totalBorrowsVariable",
          "type": "uint256"
        },
        {
          "internalType": "uint256",
          "name": "liquidityRate",
          "type": "uint256"
        },
        {
          "internalType": "uint256",
          "name": "variableBorrowRate",
          "type": "uint256"
        },
        {
          "internalType": "uint256",
          "name": "stableBorrowRate",
          "type": "uint256"
        },
        {
          "internalType": "uint256",
          "name": "averageStableBorrowRate",
          "type": "uint256"
        },
        {
          "internalType": "uint256",
          "name": "utilizationRate",
          "type": "uint256"
        },
        {
          "internalType": "uint256",
          "name": "liquidityIndex",
          "type": "uint256"
        },
        {
          "internalType": "uint256",
          "name": "variableBorrowIndex",
          "type": "uint256"
        },
        {
          "internalType": "address",
          "name": "aTokenAddress",
          "type": "address"
        },
        {
          "internalType": "uint40",
          "name": "lastUpdateTimestamp",
          "type": "uint40"
        }
      ],
      "stateMutability": "view",
      "type": "function"
    },
    {
      "inputs": [],
      "name": "getReserves",
      "outputs": [
        {
          "internalType": "address[]",
          "name": "",
          "type": "address[]"
        }
      ],
      "stateMutability": "view",
      "type": "function"
    },
    {
      "inputs": [
        {
          "internalType": "address",
          "name": "_user",
          "type": "address"
        }
      ],
      "name": "getUserAccountData",
      "outputs": [
        {
          "internalType": "uint256",
          "name": "totalLiquidityETH",
          "type": "uint256"
        },
        {
          "internalType": "uint256",
          "name": "totalCollateralETH",
          "type": "uint256"
        },
        {
          "internalType": "uint256",
          "name": "totalBorrowsETH",
          "type": "uint256"
        },
        {
          "internalType": "uint256",
          "name": "totalFeesETH",
          "type": "uint256"
        },
        {
          "internalType": "uint256",
          "name": "availableBorrowsETH",
          "type": "uint256"
        },
        {
          "internalType": "uint256",
          "name": "currentLiquidationThreshold",
          "type": "uint256"
        },
        {
          "internalType": "uint256",
          "name": "ltv",
          "type": "uint256"
        },
        {
          "internalType": "uint256",
          "name": "healthFactor",
          "type": "uint256"
        }
      ],
      "stateMutability": "view",
      "type": "function"
    },
    {
      "inputs": [
        {
          "internalType": "address",
          "name": "_reserve",
          "type": "address"
        },
        {
          "internalType": "address",
          "name": "_user",
          "type": "address"
        }
      ],
      "name": "getUserReserveBalance",
      "outputs": [
        {
          "internalType": "uint256",
          "name": "",
          "type": "uint256"
        }
      ],
      "stateMutability": "view",
      "type": "function"
    },
    {
      "inputs": [
        {
          "internalType": "address",
          "name": "_reserve",
          "type": "address"
        },
        {
          "internalType": "address",
          "name": "_user",
          "type": "address"
        }
      ],
      "name": "getUserReserveData",
      "outputs": [
        {
          "internalType": "uint256",
          "name": "currentATokenBalance",
          "type": "uint256"
        },
        {
          "internalType": "uint256",
          "name": "currentBorrowBalance",
          "type": "uint256"
        },
        {
          "internalType": "uint256",
          "name": "principalBorrowBalance",
          "type": "uint256"
        },
        {
          "internalType": "uint256",
          "name": "borrowRateMode",
          "type": "uint256"
        },
        {
          "internalType": "uint256",
          "name": "borrowRate",
          "type": "uint256"
        },
        {
          "internalType": "uint256",
          "name": "liquidityRate",
          "type": "uint256"
        },
        {
          "internalType": "uint256",
          "name": "originationFee",
          "type": "uint256"
        },
        {
          "internalType": "uint256",
          "name": "variableBorrowIndex",
          "type": "uint256"
        },
        {
          "internalType": "uint256",
          "name": "lastUpdateTimestamp",
          "type": "uint256"
        },
        {
          "internalType": "bool",
          "name": "usageAsCollateralEnabled",
          "type": "bool"
        }
      ],
      "stateMutability": "view",
      "type": "function"
    },
    {
      "inputs": [
        {
          "internalType": "contract LendingBoardAddressesProvider",
          "name": "_addressesProvider",
          "type": "address"
        }
      ],
      "name": "initialize",
      "outputs": [],
      "stateMutability": "nonpayable",
      "type": "function"
    },
    {
      "inputs": [
        {
          "internalType": "address",
          "name": "_reserveToLend",
          "type": "address"
        },
        {
          "internalType": "uint256",
          "name": "_amount",
          "type": "uint256"
        },
        {
          "internalType": "address",
          "name": "_reserveForCollateral",
          "type": "address"
        },
        {
          "internalType": "uint256",
          "name": "_interestRate",
          "type": "uint256"
        },
        {
          "internalType": "uint256",
          "name": "_dueDate",
          "type": "uint256"
        }
      ],
      "name": "lendProposal",
      "outputs": [],
      "stateMutability": "nonpayable",
      "type": "function"
    },
    {
      "inputs": [
        {
          "internalType": "uint256",
          "name": "_proposalId",
          "type": "uint256"
        }
      ],
      "name": "lendProposalAccept",
      "outputs": [],
      "stateMutability": "nonpayable",
      "type": "function"
    },
    {
      "inputs": [
        {
          "internalType": "address",
          "name": "_collateral",
          "type": "address"
        },
        {
          "internalType": "address",
          "name": "_reserve",
          "type": "address"
        },
        {
          "internalType": "address",
          "name": "_user",
          "type": "address"
        },
        {
          "internalType": "uint256",
          "name": "_purchaseAmount",
          "type": "uint256"
        },
        {
          "internalType": "bool",
          "name": "_receiveAToken",
          "type": "bool"
        }
      ],
      "name": "liquidationCall",
      "outputs": [],
      "stateMutability": "payable",
      "type": "function"
    },
    {
      "inputs": [],
      "name": "nft",
      "outputs": [
        {
          "internalType": "contract LendingBoardNFT",
          "name": "",
          "type": "address"
        }
      ],
      "stateMutability": "view",
      "type": "function"
    },
    {
      "inputs": [],
      "name": "parametersProvider",
      "outputs": [
        {
          "internalType": "contract LendingBoardParametersProvider",
          "name": "",
          "type": "address"
        }
      ],
      "stateMutability": "view",
      "type": "function"
    },
    {
      "inputs": [
        {
          "internalType": "uint256",
          "name": "",
          "type": "uint256"
        }
      ],
      "name": "proposalIdToTokenId",
      "outputs": [
        {
          "internalType": "uint256",
          "name": "",
          "type": "uint256"
        }
      ],
      "stateMutability": "view",
      "type": "function"
    },
    {
      "inputs": [
        {
          "internalType": "address",
          "name": "_reserve",
          "type": "address"
        },
        {
          "internalType": "address payable",
          "name": "_user",
          "type": "address"
        },
        {
          "internalType": "uint256",
          "name": "_amount",
          "type": "uint256"
        },
        {
          "internalType": "uint256",
          "name": "_aTokenBalanceAfterRedeem",
          "type": "uint256"
        }
      ],
      "name": "redeemUnderlying",
      "outputs": [],
      "stateMutability": "nonpayable",
      "type": "function"
    },
    {
      "inputs": [
        {
          "internalType": "address",
          "name": "_reserve",
          "type": "address"
        },
        {
          "internalType": "uint256",
          "name": "_amount",
          "type": "uint256"
        },
        {
          "internalType": "address payable",
          "name": "_onBehalfOf",
          "type": "address"
        },
        {
          "internalType": "uint256",
          "name": "_proposalId",
          "type": "uint256"
        },
        {
          "internalType": "bool",
          "name": "isBorrorwProposal",
          "type": "bool"
        }
      ],
      "name": "repay",
      "outputs": [],
      "stateMutability": "payable",
      "type": "function"
    },
    {
      "inputs": [
        {
          "internalType": "address",
          "name": "_reserve",
          "type": "address"
        },
        {
          "internalType": "bool",
          "name": "_useAsCollateral",
          "type": "bool"
        }
      ],
      "name": "setUserUseReserveAsCollateral",
      "outputs": [],
      "stateMutability": "nonpayable",
      "type": "function"
    }
  ],
  "bytecode": "0x608080604052346100215760016000556000600155615d859081620000278239f35b600080fdfe60806040526004361015610013575b600080fd5b60003560e01c8062a718a9146102565780630902f1ac1461024d57806328dd2d011461024457806335ea6a751461023b5780633815d34c146102325780633cedf2df146102295780633e1501411461022057806347ccca021461021757806348f163ea1461020e57806356b045061461020557806358707e06146101fc5780635a3b74b9146101f357806379cc211e146101ea5780638afaff02146101e15780638fabf76d146101d85780639895e3d8146101cf5780639a91fe9b146101c65780639cf46a00146101bd578063a429bcaa146101b4578063ab1e8a21146101ab578063b334ed86146101a2578063bf92857c14610199578063c0c8ab6514610190578063c1bce0b714610187578063c4d66de81461017e578063c72c4d1014610175578063d0fc81d21461016c578063d2d0e066146101635763f2f4eb261461015b57600080fd5b61000e613388565b5061000e6130a7565b5061000e613089565b5061000e61305f565b5061000e612f70565b5061000e612924565b5061000e612896565b5061000e612772565b5061000e612748565b5061000e612658565b5061000e61251c565b5061000e611f36565b5061000e611974565b5061000e6118b5565b5061000e611207565b5061000e6111b6565b5061000e61100c565b5061000e610d9d565b5061000e610d73565b5061000e610d46565b5061000e610c43565b5061000e610c19565b5061000e610b0e565b5061000e610aec565b5061000e610961565b5061000e6106c9565b5061000e6105dd565b5061000e6104a5565b5061000e61027a565b6001600160a01b0381160361000e57565b8015150361000e57565b5060a036600319011261000e576004356102938161025f565b60243561029f8161025f565b61039f6000806044356102b18161025f565b608435946102be86610270565b6102c661373a565b6102cf81615ab6565b6102d887615ab6565b6035546102f5906001600160a01b03165b6001600160a01b031690565b91604051968793632bd7cfb760e11b855284600460209a8b935afa938415610449575b8594610416575b5060405162a718a960e01b8982019081526001600160a01b039a8b166024830152938a166044820152989091166064808a0191909152356084890152151560a48801528660c481015b039661037c601f199889810183528261341f565b51915af461039161038b614482565b916144b2565b828082518301019101614533565b906103b0576103ae6001600055565b005b610412926103e8926103ee6103fa9360405195869384016014907302634b8bab4b230ba34b7b7103330b4b632b21d160651b81520190565b90614599565b0390810183528261341f565b60405162461bcd60e51b8152918291600483016145d1565b0390fd5b61036891945061043b90893d8b11610442575b610433818361341f565b810190613440565b939061031f565b503d610429565b610451613455565b610318565b600091031261000e57565b6020908160408183019282815285518094520193019160005b828110610488575050505090565b83516001600160a01b03168552938101939281019260010161047a565b503461000e5760008060031936011261059d57603654604051630240bc6b60e21b815291908190839060049082906001600160a01b03165afa9081156105a8575b80916104ff575b604051806104fb8482610461565b0390f35b90503d8082843e610510818461341f565b820160209283818303126105a0578051906001600160401b0382116105a4570181601f820112156105a05780519061054782614bee565b93610555604051958661341f565b828552858086019360051b83010193841161059d57508401905b828210610584575050506104fb9150386104ed565b84809183516105928161025f565b81520191019061056f565b80fd5b8280fd5b8380fd5b6105b0613455565b6104e6565b604090600319011261000e576004356105cd8161025f565b906024356105da8161025f565b90565b503461000e576105ec366105b5565b6037546040516328dd2d0160e01b81526001600160a01b039384166004820152918316602483015261014092839183916044918391165afa80156106bc575b6000918283848586918793889589978a9961067b575b50604051998a5260208a015260408901526060880152608087015260a086015260c085015260e08401526101008301521515610120820152f35b985050505050505050506106a59150823d84116106b5575b61069d818361341f565b8101906145e2565b9790969195929492919038610641565b503d610693565b6106c4613455565b61062b565b503461000e57602036600319011261000e576004356106e78161025f565b6037546040516335ea6a7560e01b81526001600160a01b0392831660048201526101a0929091839183916024918391165afa801561086c575b600090819282838485868791889389958a978b998c9b6107b5575b506104fb9b9c9d506040519d8e9d8e9b99979593919d9c9a98969492909d6101a08d019e8d5260208d015260408c015260608b015260808a015260a089015260c088015260e0870152610100860152610120850152610140840152600160a01b600190031661016083015264ffffffffff16906101800152565b9c5050505050505050505050509181813d8311610865575b6107d7818361341f565b8101031261086157805190602081015190604081015192606082015191608081015160a082015160c083015160e0840151610100850151916101208601519361014087015195610180610160890151986108308a61025f565b01519864ffffffffff8a168a0361085d576104fb9b9c9d509b9c99909192939495969798998d9c9b61073b565b8d80fd5b5080fd5b503d6107cd565b610874613455565b610720565b80511515825261091691906020818101516001600160a01b0316908301526040818101516001600160a01b031690830152606081810151908301526080808201516001600160a01b03169083015260a081015160a083015260c081015160c083015260e081015160e08301526101008082015190830152610120808201519083015261014080820151908301526101608091015191019015159052565b565b6020908160408183019282815285518094520193019160005b82811061093f575050505090565b9091929382610180826109556001948951610879565b01950193929101610931565b503461000e5760408060031936011261000e5760365460049060243590823590610993906001600160a01b03166102e9565b8451630531044160e31b81526109c3906020818781865afa908115610adf575b600091610ab1575b508410614b3c565b6109ea6109d86109d384866143a7565b614217565b6109e56107d08210614b97565b614c14565b936000925b84811115610a04578651806104fb8882610918565b865163587854a560e11b81528281018281526101809591908690829081906020010381885afa958615610aa4575b600096610a6b575b505090610a6082610a4e610a669491614c64565b96610a59828b614c74565b5288614c74565b50614c64565b6109ef565b610a6693929650610a609181610a9592903d10610a9d575b610a8d818361341f565b81019061408a565b959192610a3a565b503d610a83565b610aac613455565b610a32565b610ad2915060203d8111610ad8575b610aca818361341f565b81019061372b565b386109bb565b503d610ac0565b610ae7613455565b6109b3565b503461000e576020610b06610b00366105b5565b90614631565b604051908152f35b503461000e57602036600319011261000e57600435610b2c8161025f565b603754604051633e15014160e01b81526001600160a01b039283166004820152610100929091839183916024918391165afa8015610c0c575b600090819282838490859286948796610bc7575b50604080519788526020880198909852968601969096526001600160a01b039095166060850152931515608084015292151560a083015291151560c082015290151560e08201526101009150f35b9650505050505050610bf39150826104fb93903d10610c05575b610beb818361341f565b8101906147e0565b95978897969591949293929190610b79565b503d610be1565b610c14613455565b610b65565b503461000e57600036600319011261000e57603a546040516001600160a01b039091168152602090f35b503461000e57602036600319011261000e576103ae610d12600435610c66614011565b50603654610d0290610c80906001600160a01b03166102e9565b604051636c20351d60e11b815260048101849052610180918290829060249082905afa918215610d39575b600092610d1c575b5050610ccc6001610cc48351151590565b151514614a9a565b60408101516001600160a01b031660608201516020830151909291908590610100906001600160a01b0316930151933392614f2e565b600052603c602052604060002090565b805460ff19169055565b610d329250803d10610a9d57610a8d818361341f565b3880610cb3565b610d41613455565b610cab565b503461000e57602036600319011261000e57600435600052603d6020526020604060002054604051908152f35b503461000e57600036600319011261000e576038546040516001600160a01b039091168152602090f35b503461000e5760408060031936011261000e5760043590610dbd8261025f565b60243591610dca83610270565b610dd261373a565b610ddb81615ab6565b610de481615b76565b603654610df9906001600160a01b03166102e9565b8251630c526de560e11b81526001600160a01b0383166004820152336024820152909390610eb790602090610e9c90829081816044818c5afa908115610fff575b600091610fe2575b50610e4e8115156143be565b603754610e63906001600160a01b03166102e9565b88516376e9d61560e01b81526001600160a01b038916600482015233602482015260448101929092529092839190829081906064820190565b03915afa918215610fd5575b600092610fa8575b505061441d565b833b1561000e578251633e94615360e21b81526001600160a01b0383166004820152336024820152811515604482015260009485908290606490829084905af18015610f9b575b610f82575b508314610f4a57815133916001600160a01b0316907e058a56ea94653cdf4f152d227ace22d4c00ad99e2a43f58cb7d9e3feb295f2908590a35b610f476001600055565b51f35b815133916001600160a01b0316907f44c58d81365b66dd4b1a7f36c25aa97b8c71c361ee4937adc1a00000227db5dd908590a3610f3d565b80610f8f610f95926133c9565b80610456565b38610f03565b610fa3613455565b610efe565b610fc79250803d10610fce575b610fbf818361341f565b810190613b05565b3880610eb0565b503d610fb5565b610fdd613455565b610ea8565b610ff99150823d8411610ad857610aca818361341f565b38610e42565b611007613455565b610e3a565b503461000e57602036600319011261000e5760365461109c906004359061103b906001600160a01b03166102e9565b9061106e604051630531044160e31b8152602081600481875afa9081156111a9575b60009161118b575b50821115614afa565b611076614011565b50604051809263587854a560e11b82528180610180968795600483019190602083019252565b03915afa91821561117e575b600092611161575b826110bb8151151590565b60208201516104fb906001600160a01b031660408401519093906001600160a01b0316606082015160808301519192916001600160a01b031660a08301519060c08401519261012060e086015195015195604051998a998a9592919361010097949a999895919a61012088019b1515885260018060a01b03938480921660208a0152166040880152606087015216608085015260a084015260c083015260e08201520152565b6111779250803d10610a9d57610a8d818361341f565b38806110b0565b611186613455565b6110a8565b6111a3915060203d8111610ad857610aca818361341f565b38611065565b6111b1613455565b61105d565b503461000e57600036600319011261000e57602060405160038152f35b60a090600319011261000e576004356111eb8161025f565b90602435906044356111fc8161025f565b906064359060843590565b503461000e57611216366111d3565b61122194939461373a565b61122a84615ab6565b61123384615b76565b61123c85615c37565b611244614011565b9161124d613a89565b811515806118ab575b61125f906146d8565b61126a428411614724565b60365461127f906001600160a01b03166102e9565b60405163288d4ff760e21b81526001600160a01b038816600482015290979087906020816024818d5afa90811561189e575b60009161187f575b506035546004906020906112d5906001600160a01b03166102e9565b604051631f94a27560e31b815292839182905afa908115611872575b600091611853575b50604051632e79732b60e11b81526001600160a01b038481166004830152919091169190611346906020818e8180602481015b03915afa908115611846575b600091611827575b50613b1a565b60405163e240301960e01b81526001600160a01b03841660048201526113959085906020818f81806024810103915afa90811561181a575b6000916117fb575b50806101608901521015614767565b61139f3384614631565b6037548a906113b6906001600160a01b03166102e9565b604051633e15014160e01b81526001600160a01b0387166004820152949061010090869060249082905afa9485156117ee575b6000956117c4575b5060405163b3596f0760e01b8082526001600160a01b039790971660048201529495869590919061143d908990602081602481875afa9081156117b7575b600091611798575b50613f81565b61144686614845565b61144f91613f94565b94611458614861565b9061146291615c83565b8561146d868a613f81565b9061147791613f94565b6040519283526001600160a01b03939093166004830152909190826024815a93602094fa6114f0956114dd936114d0926114c191811561178b575b60009161176c575b5084613f94565b95896114cb6148b6565b615ce1565b6114d8614915565b615c83565b6114e9826114d8614965565b10156149bc565b603954611505906001600160a01b03166102e9565b604051630e563a7d60e41b8152336004820152602481018490529390602090859060449082905afa93841561175f575b600094611737575b5060606115509101938085521515613d4e565b61155d83516114d8614a2e565b600186523360208701526001600160a01b0388166040870152606086018290526001600160a01b03871660808701528360a08701528460c08701524260e0870152825161010087015261012086015260405197630531044160e31b8952602089600481845afa98891561172a575b600099611709575b50803b1561000e576000809160046040518094819363259d9fd160e21b83525af180156116fc575b6116e9575b50603654611616906001600160a01b03166102e9565b91823b1561000e5761166760007fddda05bca10ccedb67628486050c0637ba56c3b1d4d271f7524748d5e3931c85976116bc958c8360405180968195829463967a76cb60e01b845260048401614a83565b03925af180156116dc575b6116c9575b5051604080519283526001600160a01b039788166020840152820193909352606081019290925260808201929092524260a082015233949093169290819060c0820190565b0390a46103ae6001600055565b80610f8f6116d6926133c9565b38611677565b6116e4613455565b611672565b80610f8f6116f6926133c9565b38611600565b611704613455565b6115fb565b61172391995060203d602011610ad857610aca818361341f565b97386115d3565b611732613455565b6115cb565b61155091945061175760609160203d602011610ad857610aca818361341f565b94915061153d565b611767613455565b611535565b611785915060203d602011610ad857610aca818361341f565b386114ba565b611793613455565b6114b2565b6117b1915060203d602011610ad857610aca818361341f565b38611437565b6117bf613455565b61142f565b6117e09195506101003d61010011610c0557610beb818361341f565b5050505050505093386113f1565b6117f6613455565b6113e9565b611814915060203d602011610ad857610aca818361341f565b38611386565b611822613455565b61137e565b611840915060203d602011610fce57610fbf818361341f565b38611340565b61184e613455565b611338565b61186c915060203d60201161044257610433818361341f565b386112f9565b61187a613455565b6112f1565b611898915060203d602011610ad857610aca818361341f565b386112b9565b6118a6613455565b6112b1565b5060648210611256565b503461000e57608036600319011261000e5761193f6004356118d68161025f565b602435906118e38261025f565b6118eb61373a565b61193260018060a01b0360246020826036541660405192838092631a59df7760e11b825286891660048301525afa908115611967575b600091611949575b50163314613790565b6064359160443591613816565b6103ae6001600055565b611961915060203d811161044257610433818361341f565b38611929565b61196f613455565b611921565b503461000e57611983366111d3565b611990949391929461373a565b61199984615ab6565b6119a284615b76565b6119ab82615c37565b6119b3614011565b916119bc614c9e565b84151580611f2c575b6119ce906146d8565b6119d9428411614724565b60365486906004906119f3906001600160a01b03166102e9565b60405163288d4ff760e21b81526001600160a01b038416838201908152919a9186919060209082908190038201818f5afa908115611f1f575b600091611f00575b50603554602090611a4d906001600160a01b03166102e9565b604051631f94a27560e31b815295869182905afa938415611ef3575b600094611ed2575b50604051632e79732b60e11b81526001600160a01b0386166004820152611aa1906020818f81806024810161132c565b611af8828d6020604051809263e240301960e01b82528180611ad58d60048301919091602081019260018060a01b03169052565b03915afa908115611ec5575b600091611ea6575b50806101608a01521015614d25565b611b0a611b053387614631565b613f58565b603754909190611b22906001600160a01b03166102e9565b604051633e15014160e01b81526001600160a01b0386166004820152959061010090879060249082905afa958615611e99575b600096611e50575b5060405163b3596f0760e01b81526001600160a01b03909716600488015294959394611be094611bd9928892611bd092611bca91611bc491899160209082908180602481015b03916001600160a01b03165afa9081156117b7576000916117985750613f81565b91614845565b90613f94565b846114cb614d9c565b1015614dfb565b603954611bf5906001600160a01b03166102e9565b604051630e563a7d60e41b8152336004820152602481018690529390602090859060449082905afa938415611e43575b600094611e15575b5090611c446060611c819301948086521515613d4e565b611c5184516114d8614e7f565b600187523360208801526001600160a01b0389166040880152606087018590526001600160a01b03166080870152565b8560a08601528360c08601524260e086015281516101008601526101208501526040519663369f271360e01b8852602088600481845afa978815611e08575b600098611de7575b50803b1561000e5760008091600460405180948193635420f5a760e01b83525af18015611dda575b611dc7575b50603654611d0b906001600160a01b03166102e9565b90813b1561000e57611d5c60007ff8b6062ca08c00ea54f74d7f53f049ed4cb014a7787c62250e6dfa1229d7d460966116bc948b8360405180968195829463014c0f2b60e31b845260048401614a83565b03925af18015611dba575b611da7575b505160408051938452602084019690965294820194909452606081019190915242608082015233936001600160a01b031692819060a0820190565b80610f8f611db4926133c9565b38611d6c565b611dc2613455565b611d67565b80610f8f611dd4926133c9565b38611cf5565b611de2613455565b611cf0565b611e0191985060203d602011610ad857610aca818361341f565b9638611cc8565b611e10613455565b611cc0565b611c81929194506060611e39611c449260203d602011610ad857610aca818361341f565b9592935050611c2d565b611e4b613455565b611c25565b611be0959650611bd992611bca611bc487611ba36020611e83611bd0976101003d61010011610c0557610beb818361341f565b505050505050509c9b5050505050509250611b5d565b611ea1613455565b611b55565b611ebf915060203d602011610ad857610aca818361341f565b38611ae9565b611ecd613455565b611ae1565b611eec91945060203d60201161044257610433818361341f565b9238611a71565b611efb613455565b611a69565b611f19915060203d602011610ad857610aca818361341f565b38611a34565b611f27613455565b611a2c565b50606485106119c5565b5060a036600319011261000e57611f4e60043561025f565b611f5960443561025f565b606435608435611f6881610270565b611f7061373a565b611f7b600435615ab6565b611f86602435615c37565b611f8e613fb4565b91600091611f9a614011565b501561249a57603654611fe09250611fba906001600160a01b03166102e9565b90604051809263587854a560e11b82528180610180968795600483019190602083019252565b03915afa91821561248d575b600092612470575b50505b6120356120276060830161202161201a825192838852519260a087015190613f81565b6064900490565b90614233565b8060208501528351906143a7565b60408301908152603654909190612054906001600160a01b03166102e9565b604051633faacc6b60e21b81526001600160a01b0360048035821690830152604480359091166024830152602090829081855afa908115612463575b600091612444575b5060e085015273eeeeeeeeeeeeeeeeeeeeeeeeeeeeeeeeeeeeeeee6004356001600160a01b03161460608501526120d46020850151151561413b565b60243560001914801590612430575b6120ec90614199565b612180612102602086015160e087015190614233565b61211560a08701918083526114d8614269565b6121236024356114d86142a2565b6121318151602435146142d1565b604051630c526de560e11b81526001600160a01b0360048035821690830152604480359091166024830152909190602090839081875afa918215612423575b600092612402575b505110614335565b6020840151916080850192835261219a6060860151151590565b600090156123fd57506121b160e0860151346143a7565b835192803b1561000e576040516328fcf4d360e01b8152600480356001600160a01b0316908201523360248201526044810194909452610140939160009183918290816064810103925af180156123f0575b6123dd575b500151603a54909190612223906001600160a01b03166102e9565b6040516331a9108f60e11b81526004810184905290602090829060249082905afa9081156123d0575b6000916123b1575b5060365461226a906001600160a01b03166102e9565b908251823b1561000e5760405163fa93b2a560e01b81526001600160a01b036004803582169083015292909216602483015260448201529060009082908183816064810103925af180156123a4575b612391575b50603a546122d4906001600160a01b03166102e9565b91823b1561000e57604051632890e0d760e01b8152600481019190915260e0926000908290602490829084905af18015612384575b612371575b505192015190516040805193845260208401929092529082015242606082015233906001600160a01b03604435811691600435909116907fb718f0b14f03d8c3adf35b15e3da52421b042ac879e5a689011a8b1e0036773d9080608081016116bc565b80610f8f61237e926133c9565b3861230e565b61238c613455565b612309565b80610f8f61239e926133c9565b386122be565b6123ac613455565b6122b9565b6123ca915060203d60201161044257610433818361341f565b38612254565b6123d8613455565b61224c565b80610f8f6123ea926133c9565b38612208565b6123f8613455565b612203565b6121b1565b61241c91925060203d602011610ad857610aca818361341f565b9038612178565b61242b613455565b612170565b50336044356001600160a01b0316146120e3565b61245d915060203d602011610ad857610aca818361341f565b38612098565b61246b613455565b612090565b6124869250803d10610a9d57610a8d818361341f565b3880611ff4565b612495613455565b611fec565b6036546124d9906124b3906001600160a01b03166102e9565b916040518093636c20351d60e11b82528180610180958695600483019190602083019252565b03915afa92831561250f575b926124f2575b5050611ff7565b6125089250803d10610a9d57610a8d818361341f565b38806124eb565b612517613455565b6124e5565b503461000e5760408060031936011261000e576036546004906024359082359061254e906001600160a01b03166102e9565b845163369f271360e01b815261257e906020818781865afa90811561264b575b60009161262d575b508410614ed0565b61258e6109d86109d384866143a7565b936000925b848111156125a8578651806104fb8882610918565b8651636c20351d60e11b81528281018281526101809591908690829081906020010381885afa958615612620575b6000966125f7575b505090610a6082610a4e6125f29491614c64565b612593565b6125f293929650610a60918161261892903d10610a9d57610a8d818361341f565b9591926125de565b612628613455565b6125d6565b612645915060203d8111610ad857610aca818361341f565b38612576565b612653613455565b61256e565b503461000e57602036600319011261000e576103ae610d1260043561267b614011565b5060365461270e90612695906001600160a01b03166102e9565b60405163587854a560e11b815260048101849052610180918290829060249082905afa91821561273b575b60009261271e575b50506126d96001610cc48351151590565b60408101516001600160a01b0316606082015160208301519092908590610100906001600160a01b03169201519333936154db565b600052603b602052604060002090565b6127349250803d10610a9d57610a8d818361341f565b38806126c8565b612743613455565b6126c0565b503461000e57600036600319011261000e576037546040516001600160a01b039091168152602090f35b503461000e57602036600319011261000e576004356127908161025f565b603754604051632fe4a15f60e21b81526001600160a01b0392831660048201529161010091829184916024918391165afa8015612889575b600090819282838490859286948796612822575b506104fb969798506040519889988994919260e0969399989794919961010087019a8752602087015260408601526060850152608084015260a083015260c08201520152565b96975050505050505082813d8311612882575b61283f818361341f565b8101031261059d57508051602082015160408301516060840151608085015160a086015160c087015160e0909701519496879695949093919291906104fb6127dc565b503d612835565b612891613455565b6127c8565b503461000e57602036600319011261000e5760365461109c90600435906128c5906001600160a01b03166102e9565b906128f660405163369f271360e01b8152602081600481875afa9081156111a95760009161118b5750821115614afa565b6128fe614011565b506040518092636c20351d60e11b82528180610180968795600483019190602083019252565b503461000e57606036600319011261000e5761294160043561025f565b60443561294c61373a565b612957600435615ab6565b612962600435615b76565b61296d602435615c37565b612975613a89565b603654612c2490604090612991906001600160a01b03166102e9565b8151632e79732b60e11b8152600480356001600160a01b0316908201526129cf90602081602481865afa908115611846576000916118275750613b1a565b846002148015612f66575b6129e390613b92565b6129ec85613b72565b6101c08401906129fc8683613bea565b825163e240301960e01b8152600480356001600160a01b031690820152612a4890602081602481865afa908115612f59575b600091612f3a575b50806101608801526024351115613bf6565b603754612bd390612a61906001600160a01b03166102e9565b8451632c6d0e9b60e01b815233600482015260209061010090612af290612aed90612ae99084816024818a5afa908115612f2d575b8d60009182908390849085908697612ee8575b509260c0928592879695612ac86101e0612ae39a98019a8b9015159052565b60408501528d8401528b83015260e082015201521515613c90565b51151590565b1590565b613cdc565b603954612b4f90612b0b906001600160a01b03166102e9565b8851630e563a7d60e41b81523360048201526024803590820152908490829060449082905afa908115612edb575b600091612ebe575b508060608c01521515613d4e565b606089015160e08a0151918a0151838b015189516312737c3360e01b8152600480356001600160a01b031690820152602480359082015260448101939093526064830193909352608482015260a4810191909152918290818060c4810103915afa908115612eb1575b600091612e92575b508060a088015260c08701511015613da4565b60018251612be081613b72565b612be981613b72565b14612d8b575b6060850151915191612c0083613b72565b60008451809681958294630deb1bf960e21b84526024353360043560048701613f07565b03925af1928315612d7e575b6000918294612d4b575b5061012083019384526101a08301918252603654612c60906001600160a01b03166102e9565b803b1561000e5760405163fa93b2a560e01b8152600480356001600160a01b031690820152336024808301919091523560448201527fe27fbad0754d6c730a8161378bc066f66fac114445968dcfc26d42a3002960139360609290919060009082908183816064810103925af18015612d3e575b612d2b575b505193015193516040805160243581526020810193909352820193909352606081019390935260808301919091524260a083015233916001600160a01b0360043516919060c090a36103ae6001600055565b80610f8f612d38926133c9565b38612cd9565b612d46613455565b612cd4565b909350612d70915060403d604011612d77575b612d68818361341f565b810190613ef1565b9238612c3a565b503d612d5e565b612d86613455565b612c30565b825163710ba6c360e11b8152600480356001600160a01b03169082015233602480830191909152356044820152612ddb90602081606481865afa908115612e85575b600091612e66575b50613e0d565b612e35612e2b61201a60046020612dfc6102e960385460018060a01b031690565b88516335adc96b60e21b815292839182905afa908115612e59575b600091612e3a575b50610160890151613f81565b6024351115613e7f565b612bef565b612e53915060203d602011610ad857610aca818361341f565b38612e1f565b612e61613455565b612e17565b612e7f915060203d602011610fce57610fbf818361341f565b38612dd5565b612e8d613455565b612dcd565b612eab915060203d602011610ad857610aca818361341f565b38612bc0565b612eb9613455565b612bb8565b612ed59150843d8611610ad857610aca818361341f565b38612b41565b612ee3613455565b612b39565b9250505060c09450612ae39350612f159150883d8a11612f26575b612f0d818361341f565b810190613c4f565b999598509395509193909250612aa9565b503d612f03565b612f35613455565b612a96565b612f53915060203d602011610ad857610aca818361341f565b38612a36565b612f61613455565b612a2e565b50600185146129da565b503461000e57602036600319011261000e57600435612f8e8161025f565b60ff600254169081159182613056575b801561304a575b15612fee57612fb89082612fcd5761346d565b612fbe57005b6103ae60ff1960025416600255565b612fdf600160ff196002541617600255565b612fe96003600155565b61346d565b60405162461bcd60e51b815260206004820152602e60248201527f436f6e747261637420696e7374616e63652068617320616c726561647920626560448201526d195b881a5b9a5d1a585b1a5e995960921b6064820152608490fd5b50600154600311612fa5565b50303b15612f9e565b503461000e57600036600319011261000e576035546040516001600160a01b039091168152602090f35b503461000e57600036600319011261000e5760206040516000198152f35b50606036600319011261000e5760048035906130c28261025f565b6024359160443561ffff81160361000e576130db61373a565b6130e483615c37565b6036546130f9906001600160a01b03166102e9565b60408051631a59df7760e11b81526001600160a01b0384168186019081529095919491929060209081908890819083010381855afa96871561337b575b60009761335c575b5085516370a0823160e01b8152338482019081526001600160a01b039889169391908390829081906020010381875afa92831561334f575b600093613330575b5050803b1561000e578651632f35bfe960e21b81526001600160a01b038716858201908152336020820152604081018790529215606084015291600091839182908490829060800103925af18015613323575b613310575b50803b1561000e5784516394362e8b60e01b81523383820190815260208101859052909160009183919082908490829060400103925af18015613303575b6132f0575b5060365461322f906001600160a01b03166102e9565b803b1561000e5784516328fcf4d360e01b81526001600160a01b038516928101928352336020840152604083018490526000967fdcbc1c05240f31ff3ad067ef1ee35ce4997762752e3a095284754544f4c709d7936132c393919291899183919082908190606001039134905af180156132e3575b6132d0575b508551938452426020850152339416929081906040820190565b0390a3610f476001600055565b80610f8f6132dd926133c9565b386132a9565b6132eb613455565b6132a4565b80610f8f6132fd926133c9565b38613219565b61330b613455565b613214565b80610f8f61331d926133c9565b386131d6565b61332b613455565b6131d1565b613347929350803d10610ad857610aca818361341f565b90388061317e565b613357613455565b613176565b816133749298503d891161044257610433818361341f565b953861313e565b613383613455565b613136565b503461000e57600036600319011261000e576036546040516001600160a01b039091168152602090f35b50634e487b7160e01b600052604160045260246000fd5b6001600160401b0381116133dc57604052565b6133e46133b2565b604052565b604081019081106001600160401b038211176133dc57604052565b606081019081106001600160401b038211176133dc57604052565b90601f801991011681019081106001600160401b038211176133dc57604052565b9081602091031261000e57516105da8161025f565b506040513d6000823e3d90fd5b51906109168261025f565b603580546001600160a01b0319166001600160a01b0392909216918217905561091690613499906102e9565b6040518091630774f5f560e21b825281600460209384935afa91821561371e575b6000926136ff575b50603680546001600160a01b0319166001600160a01b0393841617905561353d826004836134fa6102e960355460018060a01b031690565b6040516352cb335b60e11b815292839182905afa9081156136f2575b6000916136d5575b501660018060a01b03166001600160601b0360a01b6037541617603755565b61359b826004836135586102e960355460018060a01b031690565b604051639fabe17560e01b815292839182905afa9081156136c8575b6000916136ab575b501660018060a01b03166001600160601b0360a01b6038541617603855565b6135f9826004836135b66102e960355460018060a01b031690565b604051633efbbf0f60e21b815292839182905afa90811561369e575b600091613681575b501660018060a01b03166001600160601b0360a01b6039541617603955565b6035546004908290613613906001600160a01b03166102e9565b604051635920a6a160e01b815292839182905afa918215613674575b600092613657575b50501660018060a01b03166001600160601b0360a01b603a541617603a55565b61366d9250803d1061044257610433818361341f565b3880613637565b61367c613455565b61362f565b6136989150843d861161044257610433818361341f565b386135da565b6136a6613455565b6135d2565b6136c29150843d861161044257610433818361341f565b3861357c565b6136d0613455565b613574565b6136ec9150843d861161044257610433818361341f565b3861351e565b6136fa613455565b613516565b816137179293503d841161044257610433818361341f565b90386134c2565b613726613455565b6134ba565b9081602091031261000e575190565b60026000541461374b576002600055565b60405162461bcd60e51b815260206004820152601f60248201527f5265656e7472616e637947756172643a207265656e7472616e742063616c6c006044820152606490fd5b1561379757565b60405162461bcd60e51b815260206004820152604b60248201527f5468652063616c6c6572206f6620746869732066756e6374696f6e2063616e2060448201527f6f6e6c79206265207468652061546f6b656e20636f6e7472616374206f66207460648201526a686973207265736572766560a81b608482015260a490fd5b9261382084615ab6565b61382983615c37565b60365461383e906001600160a01b03166102e9565b60405163e240301960e01b81526001600160a01b0386166004820152613881908590602081602481875afa9081156139e8575b6000916139ca575b5010156139f5565b803b1561000e5760405163afcdbea360e01b81526001600160a01b0386811660048301528416602482015260448101859052911560648301526000908290608490829084905af180156139bd575b6139aa575b506036546138ea906001600160a01b03166102e9565b803b1561000e5760405163fa93b2a560e01b81526001600160a01b03858116600483015283166024820152604481018490527f9c4ed599cd8555b9c1e8cd7643240d7d71eb76b792948c49fcb4d411f7b6b3c692613985929091906000908290606490829084905af1801561399d575b61398a575b50604080519485524260208601526001600160a01b039182169590911693918291820190565b0390a3565b80610f8f613997926133c9565b3861395f565b6139a5613455565b61395a565b80610f8f6139b7926133c9565b386138d4565b6139c5613455565b6138cf565b6139e2915060203d8111610ad857610aca818361341f565b38613879565b6139f0613455565b613871565b156139fc57565b60405162461bcd60e51b81526020600482015260316024820152600080516020615d3083398151915260448201527061696c61626c6520746f2072656465656d60781b6064820152608490fd5b6040519061020082018281106001600160401b038211176133dc57604052565b6040519061018082018281106001600160401b038211176133dc57604052565b613a91613a49565b9060008083528060208401528060408401528060608401528060808401528060a08401528060c08401528060e08401528061010084015280610120840152806101408401528061016084015280610180840152806101a0840152806101c08401526101e0830152565b519061091682610270565b9081602091031261000e57516105da81610270565b15613b2157565b60405162461bcd60e51b8152602060048201526024808201527f52657365727665206973206e6f7420656e61626c656420666f7220626f72726f60448201526377696e6760e01b6064820152608490fd5b60031115613b7c57565b634e487b7160e01b600052602160045260246000fd5b15613b9957565b60405162461bcd60e51b815260206004820152602360248201527f496e76616c696420696e7465726573742072617465206d6f64652073656c65636044820152621d195960ea1b6064820152608490fd5b6003821015613b7c5752565b15613bfd57565b60405162461bcd60e51b81526020600482015260366024820152600080516020615d3083398151915260448201527561696c61626c6520696e20746865207265736572766560501b6064820152608490fd5b91908261010091031261000e5781519160208101519160408201519160608101519160808201519160a08101519160e060c08301519201516105da81610270565b15613c9757565b60405162461bcd60e51b815260206004820152601b60248201527f54686520636f6c6c61746572616c2062616c616e6365206973203000000000006044820152606490fd5b15613ce357565b60405162461bcd60e51b815260206004820152603f60248201527f54686520626f72726f7765722063616e20616c7265616479206265206c69717560448201527f69646174656420736f2068652063616e6e6f7420626f72726f77206d6f7265006064820152608490fd5b15613d5557565b60405162461bcd60e51b815260206004820152602160248201527f54686520616d6f756e7420746f20626f72726f7720697320746f6f20736d616c6044820152601b60fa1b6064820152608490fd5b15613dab57565b60405162461bcd60e51b815260206004820152603460248201527f5468657265206973206e6f7420656e6f75676820636f6c6c61746572616c20746044820152736f20636f7665722061206e657720626f72726f7760601b6064820152608490fd5b15613e1457565b60405162461bcd60e51b815260206004820152603960248201527f557365722063616e6e6f7420626f72726f77207468652073656c65637465642060448201527f616d6f756e742077697468206120737461626c652072617465000000000000006064820152608490fd5b15613e8657565b60405162461bcd60e51b815260206004820152603c60248201527f5573657220697320747279696e6720746f20626f72726f7720746f6f206d756360448201527f68206c6971756964697479206174206120737461626c652072617465000000006064820152608490fd5b919082604091031261000e576020825192015190565b6001600160a01b039182168152911660208201526040810191909152606081019190915260a081019291906003821015613b7c5760800152565b50634e487b7160e01b600052601160045260246000fd5b670de0b6b3a7640000908060001904821181151516613f75570290565b613f7d613f41565b0290565b8060001904821181151516613f75570290565b8115613f9e570490565b634e487b7160e01b600052601260045260246000fd5b6040519061010082018281106001600160401b03821117614004575b6040528160e06000918281528260208201528260408201528260608201528260808201528260a08201528260c08201520152565b61400c6133b2565b613fd0565b6040519061018082018281106001600160401b0382111761407d575b604052816101606000918281528260208201528260408201528260608201528260808201528260a08201528260c08201528260e08201528261010082015282610120820152826101408201520152565b6140856133b2565b61402d565b908161018091031261000e5761409e613a69565b906140a881613afa565b82526140b660208201613462565b60208301526140c760408201613462565b6040830152606081015160608301526140e260808201613462565b608083015260a081015160a083015260c081015160c083015260e081015160e0830152610100808201519083015261012080820151908301526101408082015190830152614134610160809201613afa565b9082015290565b1561414257565b60405162461bcd60e51b815260206004820152602960248201527f546865207573657220646f6573206e6f74206861766520616e7920626f72726f604482015268772070656e64696e6760b81b6064820152608490fd5b156141a057565b60a460405162461bcd60e51b815260206004820152604460248201527f546f207265706179206f6e20626568616c66206f6620616e207573657220616e60448201527f206578706c6963697420616d6f756e7420746f207265706179206973206e65656064820152633232b21760e11b6084820152fd5b6001906001198111614227570190565b61422f613f41565b0190565b81198111614227570190565b6020906001600160401b03811161425c575b601f01601f19160190565b6142646133b2565b614251565b60405190614276826133e9565b601a82527f5b44454255475d20616d6f756e742073686f756c642062653a200000000000006020830152565b604051906142af826133e9565b601382527202da222a12aa3ae9030b6b7bab73a1034b99d1606d1b6020830152565b156142d857565b60405162461bcd60e51b815260206004820152602f60248201527f496e76616c696420616d6f756e7420706172616d657465722073656e7420666f60448201526e1c881d1a19481c995c185e5b595b9d608a1b6064820152608490fd5b1561433c57565b60405162461bcd60e51b815260206004820152603f60248201527f546865207573657220646f6573206e6f74206861766520656e6f75676820626160448201527f6c616e636520746f20636f6d706c657465207468652072657061796d656e74006064820152608490fd5b8181106143b2570390565b6143ba613f41565b0390565b156143c557565b60405162461bcd60e51b815260206004820152602a60248201527f5573657220646f6573206e6f74206861766520616e79206c69717569646974796044820152690819195c1bdcda5d195960b21b6064820152608490fd5b1561442457565b60405162461bcd60e51b815260206004820152603060248201527f55736572206465706f73697420697320616c7265616479206265696e6720757360448201526f195908185cc818dbdb1b185d195c985b60821b6064820152608490fd5b3d156144ad573d906144938261423f565b916144a1604051938461341f565b82523d6000602084013e565b606090565b156144b957565b60405162461bcd60e51b815260206004820152601760248201527f4c69717569646174696f6e2063616c6c206661696c65640000000000000000006044820152606490fd5b918091926000905b82821061451e575011614517575050565b6000910152565b91508060209183015181860152018291614506565b919060408382031261000e578251926020810151906001600160401b03821161000e570181601f8201121561000e57805161456d8161423f565b9261457b604051948561341f565b8184526020828401011161000e576105da91602080850191016144fe565b9061422f602092828151948592016144fe565b906020916145c5815180928185528580860191016144fe565b601f01601f1916010190565b9060206105da9281815201906145ac565b91908261014091031261000e5781519160208101519160408201519160608101519160808201519160a08101519160c08201519160e0810151916101206101008301519201516105da81610270565b6037546040516328dd2d0160e01b81526001600160a01b0392831660048201529282166024840152670de0b6b3a7640000929161014091829184916044918391165afa9182156146cb575b60009182936146a1575b505081811061469457030490565b61469c613f41565b030490565b6146bb935080919250903d106106b55761069d818361341f565b5050505050505050903880614686565b6146d3613455565b61467c565b156146df57565b60405162461bcd60e51b815260206004820152601b60248201527f496e76616c696420496e746572657374205261746520496e70757400000000006044820152606490fd5b1561472b57565b60405162461bcd60e51b8152602060048201526014602482015273125b9d985b1a5908111d594811185d194814d95d60621b6044820152606490fd5b1561476e57565b60405162461bcd60e51b81526020600482015260506024820152600080516020615d3083398151915260448201527f61696c61626c6520696e20746865207265736572766520746f206d616b65206160648201526f08189bdc9c9bddc81c1c9bdc1bdcd85b60821b608482015260a490fd5b91908261010091031261000e57815191602081015191604082015191606081015161480a8161025f565b91608082015161481981610270565b9160a081015161482881610270565b9160e060c083015161483981610270565b9201516105da81610270565b604d8111614854575b600a0a90565b61485c613f41565b61484e565b6040519061486e82613404565b603382527202fb932b9b2b93b32aa37a137b93937bb901d1606d1b6040837f2020203d3e204c42504d203a72657365727665446563696d616c7320666f722060208201520152565b604051906148c382613404565b603a82527f6f72726f77416d6f756e744554482c20626f72726f774c5456200000000000006040837f2020203d3e204c42504d203a205f616d6f756e742c207265717565737465644260208201520152565b6040519061492282613404565b602e82526d037bb90283937b837b9b0b6101d160951b6040837f2020203d3e204c42504d203a20455448204e656564656420666f7220426f727260208201520152565b6040519061497282613404565b6035825274037b9102137b93937bb90283937b837b9b0b6101d1605d1b6040837f2020203d3e204c42504d203a20436f6c6c61746572616c204e6565646564206660208201520152565b156149c357565b60405162461bcd60e51b815260206004820152603d60248201527f5468657265206973206e6f7420656e6f75676820636f6c6c61746572616c207460448201527f6f20636f7665722061206e657720626f72726f772070726f706f73616c0000006064820152608490fd5b60405190614a3b82613404565b60338252720103137b93937bb90383937b837b9b0b6101d1606d1b6040837f2020203d3e204c42504d203a20426f72726f772046656520666f72207468697360208201520152565b9081526101a0810192916109169160200190610879565b15614aa157565b60405162461bcd60e51b815260206004820152602b60248201527f4f6e6c792041637469766520426f72726f772050726f706f73616c2063616e2060448201526a1899481058d8d95c1d195960aa1b6064820152608490fd5b15614b0157565b60405162461bcd60e51b8152602060048201526013602482015272125b9d985b1a590817dc1c9bdc1bdcd85b1259606a1b6044820152606490fd5b15614b4357565b60405162461bcd60e51b815260206004820152602660248201527f456e6420496e646578206f76657220626f72726f7750726f706f73616c4c69736044820152651d10dbdd5b9d60d21b6064820152608490fd5b15614b9e57565b60405162461bcd60e51b815260206004820152602260248201527f4d6178696d756d203230303020697465726174696f6e207065722072657175656044820152611cdd60f21b6064820152608490fd5b6020906001600160401b038111614c07575b60051b0190565b614c0f6133b2565b614c00565b90614c1e82614bee565b614c2b604051918261341f565b8281528092614c3c601f1991614bee565b019060005b828110614c4d57505050565b602090614c58614011565b82828501015201614c41565b6001906000198114614227570190565b8051821015614c885760209160051b010190565b634e487b7160e01b600052603260045260246000fd5b604051906101c082018281106001600160401b03821117614d18575b604052816101a06000918281528260208201528260408201528260608201528260808201528260a08201528260c08201528260e082015282610100820152826101208201528261014082015282610160820152826101808201520152565b614d206133b2565b614cba565b15614d2c57565b60405162461bcd60e51b815260206004820152604e6024820152600080516020615d3083398151915260448201527f61696c61626c6520696e20746865207265736572766520746f206d616b65206160648201526d081b195b99081c1c9bdc1bdcd85b60921b608482015260a490fd5b60405190614da982613404565b604082527f656e64416d6f756e74496e5765692c20636f6c6c61746572616c4c5456203a206040837f2020203d3e204c42504d203a205f616d6f756e742c207265717565737465644c60208201520152565b15614e0257565b60405162461bcd60e51b815260206004820152604960248201527f5468657265206973206e6f7420656e6f7567682062616c616e636520746f206c60448201527f656e6420696e206f7264657220746f20636f7665722061206e6577206c656e64606482015268081c1c9bdc1bdcd85b60ba1b608482015260a490fd5b60405190614e8c82613404565b602f82526e032b73210383937b837b9b0b6101d1608d1b6040837f2020203d3e204c42504d203a204c656e642046656520666f722074686973206c60208201520152565b15614ed757565b60405162461bcd60e51b815260206004820152602960248201527f456e6420496e64657820657863656564696e67204c656e6450726f706f73616c604482015268131a5cdd10dbdd5b9d60ba1b6064820152608490fd5b938295614f3961373a565b614f4286615ab6565b614f4b86615b76565b614f5483615c37565b603654614f69906001600160a01b03166102e9565b604051636c20351d60e11b81526004810186905261018091908281602481855afa9283156154ce575b6000936154af575b505060808201516001600160a01b03169185848a82610120850151958c60c08701519c8460a08901519860600151614fd28a82613f81565b60649004614fdf91614233565b603554909a906001600160a01b03166001600160a01b0316928c82604051808097631f94a27560e31b82525a92600491602094fa9586156151256151c99e61510d602060409f60009c6151ac9b6151479a61513399615125996154a2575b600093615477575b5060405163b3596f0760e01b81526001600160a01b0390911660048201526150d491858280602481015b6001600160a01b03909716960381875afa91821561546a575b60009261543b575b506150c36150ae836150a96150cc946150a9338b614631565b613f81565b6ec097ce7bc90715b34b9f1000000000900490565b9b6114d86157c4565b6114d86157fd565b6150e0896114d8615849565b60405163b3596f0760e01b81526001600160a01b0390921660048301529092839190829081906024820190565b03915afa90811561542e575b8b916117985750613f81565b670de0b6b3a7640000900490565b90615140826114d8615898565b10156158df565b615153896114d8615a2e565b8751637eb83b6360e11b81526001600160a01b0393841660048201529290941660248301526044820195909552606481019690965260016084870152600060a487015260c48601919091528492839190829060e4820190565b03925af1908115615421575b600091615400575b506114d8615a67565b6036546151de906001600160a01b03166102e9565b90813b1561000e5760405163fa93b2a560e01b81526001600160a01b03808c1660048301528a1660248201526044810188905260209388938b926000928f926152b0929085908290818381606481015b03925af180156153f3575b6153e0575b50603a54615254906001600160a01b03166102e9565b958b6040519e8f998a9889976327b13f6760e21b8952429460048a019491989796939060e0969361010087019a60018060a01b03809316885260208801521660408601526060850152608084015260a083015260c08201520152565b03925af19485156153d3575b6000956153b2575b506036546152da906001600160a01b03166102e9565b91823b1561000e576040516324f8d7ff60e11b8152600481018a905260248101969096527f0fe896ff57f0d00b15c188699fac3b7ce27c564a706118e52c3c45e88c7bab7e95615385936000908290604490829084905af180156153a5575b615392575b50604080516001600160a01b03938416815297831660208901528701949094526000606087015260808601939093524260a0860152908216949091169290819060c0820190565b0390a46109166001600055565b80610f8f61539f926133c9565b3861533e565b6153ad613455565b615339565b6153cc91955060203d602011610ad857610aca818361341f565b93386152c4565b6153db613455565b6152bc565b80610f8f6153ed926133c9565b3861523e565b6153fb613455565b615239565b615419915060403d604011612d7757612d68818361341f565b9050386151c0565b615429613455565b6151b8565b615436613455565b615119565b6150a992506150ae6150cc926154606150c3938a3d8c11610ad857610aca818361341f565b9450925050615090565b615472613455565b615088565b61506f91935091856154986150d494823d841161044257610433818361341f565b9492505091615045565b6154aa613455565b61503d565b6154c6929350803d10610a9d57610a8d818361341f565b903880614f9a565b6154d6613455565b614f92565b938492956154e761373a565b6154f084615ab6565b6154f984615b76565b61550283615c37565b603654615517906001600160a01b03166102e9565b604051636c20351d60e11b8152600481018990528890610180908181602481875afa9182156157b7575b60009261579a575b5050608081015161560f90859060409089906001600160a01b0316968c600060c08801519d6151ac61558b606060a08c01519b015161202161201a8d83613f81565b9a6155b08761559d611b053387614631565b6155a9816114d8615951565b10156159b0565b6155bc896114d8615a2e565b875198899788968795637eb83b6360e11b87526004870191959493909260c09360e084019760018060a01b0380921685521660208401526040830152606082015260016080820152600160a08201520152565b603654615624906001600160a01b03166102e9565b90813b1561000e5760405163fa93b2a560e01b81526001600160a01b03808c1660048301528a1660248201526044810188905260209388938b926000928f926156789290859082908183816064810161522e565b03925af194851561578d575b60009561576d575b506036546156a2906001600160a01b03166102e9565b91823b1561000e5760405163dd122fa760e01b8152600481018a905260248101969096527f0fe896ff57f0d00b15c188699fac3b7ce27c564a706118e52c3c45e88c7bab7e95615385936000908290604490829084905af18015615760575b61574d575b50604080516001600160a01b03938416815297831660208901528701949094526001606087015260808601939093524260a0860152908216949091169290819060c0820190565b80610f8f61575a926133c9565b38615706565b615768613455565b615701565b61578691955060203d8111610ad857610aca818361341f565b933861568c565b615795613455565b615684565b6157b09250803d10610a9d57610a8d818361341f565b3880615549565b6157bf613455565b615541565b604051906157d1826133e9565b601d82527f2020203d3e204c42504d203a20636f6c6c61746572616c4c7476203a200000006020830152565b6040519061580a82613404565b602a825269031b2a4b72bb2b4901d160b51b6040837f2020203d3e204c42504d203a20636f6c6c61746572616c4f7261636c6550726960208201520152565b6040519061585682613404565b602d82526c0383634b2b22b30b63ab2901d1609d1b6040837f2020203d3e204c42504d203a2075736572436f6c6c61746572616c4c7476417060208201520152565b604051906158a582613404565b602582526403a34101d160dd1b6040837f2020203d3e204c42504d203a20626f72726f7741737365745072696365496e4560208201520152565b156158e657565b60405162461bcd60e51b815260206004820152603f60248201527f426f72726f77657220646f65736e2774206861766520656e6f75676820636f6c60448201527f6c61746572616c20746f20616363657074204c656e642050726f706f73616c006064820152608490fd5b6040519061595e82613404565b603d82527f626c6520526573657276652042616c616e636520696e20576569203a200000006040837f2020203d3e204c42504d203a20757365722043757272656e7420417661696c6160208201520152565b156159b757565b60a460405162461bcd60e51b815260206004820152604460248201527f4c656e64657220646f65736e2774206861766520656e6f75676820526573657260448201527f76652042616c616e636520746f2041636365707420426f72726f772050726f706064820152631bdcd85b60e21b6084820152fd5b60405190615a3b826133e9565b601b82527f2020203d3e204c42504d203a205365727669636520466565203a2000000000006020830152565b60405190615a7482613404565b602d82526c01024b731b932b0b9b2b2101d1609d1b6040837f2020203d3e204c42504d203a205573657220426f72726f772042616c616e636560208201520152565b603654604051630283aeb760e11b81526001600160a01b0392831660048201529160209183916024918391165afa908115615b69575b600091615b4b575b5015615afc57565b60405162461bcd60e51b815260206004820152602160248201527f416374696f6e20726571756972657320616e20616374697665207265736572766044820152606560f81b6064820152608490fd5b615b63915060203d8111610fce57610fbf818361341f565b38615af4565b615b71613455565b615aec565b603654604051634a08accb60e01b81526001600160a01b0392831660048201529160209183916024918391165afa908115615c2a575b600091615c0c575b50615bbb57565b60405162461bcd60e51b8152602060048201526024808201527f416374696f6e20726571756972657320616e20756e667265657a6564207265736044820152636572766560e01b6064820152608490fd5b615c24915060203d8111610fce57610fbf818361341f565b38615bb4565b615c32613455565b615bac565b15615c3e57565b60405162461bcd60e51b815260206004820152601d60248201527f416d6f756e74206d7573742062652067726561746572207468616e20300000006044820152606490fd5b615cc6615cb29161091693604051938492632d839cb360e21b60208501526040602485015260648401906145ac565b90604483015203601f19810183528261341f565b600080916020815191016a636f6e736f6c652e6c6f675afa50565b615cc69161091694615d119460405195869463a7a8785360e01b60208701526080602487015260a48601906145ac565b9260448501526064840152608483015203601f19810183528261341f56fe5468657265206973206e6f7420656e6f756768206c6971756964697479206176a26469706673582212202cca80d410ea78b9bde34dcd844aa5415c124dab1a6406a496dc414a56b1155864736f6c634300080d0033",
  "linkReferences": {},
  "deployedLinkReferences": {}
}