{
  "_format": "hh-sol-artifact-1",
  "contractName": "LendingBoardLiquidationManager",
  "sourceName": "contracts/lendingboard/LendingBoardLiquidationManager.sol",
  "abi": [
    {
      "anonymous": false,
      "inputs": [
        {
          "indexed": true,
          "internalType": "address",
          "name": "_collateral",
          "type": "address"
        },
        {
          "indexed": true,
          "internalType": "address",
          "name": "_reserve",
          "type": "address"
        },
        {
          "indexed": true,
          "internalType": "address",
          "name": "_user",
          "type": "address"
        },
        {
          "indexed": false,
          "internalType": "uint256",
          "name": "_purchaseAmount",
          "type": "uint256"
        },
        {
          "indexed": false,
          "internalType": "uint256",
          "name": "_liquidatedCollateralAmount",
          "type": "uint256"
        },
        {
          "indexed": false,
          "internalType": "uint256",
          "name": "_accruedBorrowInterest",
          "type": "uint256"
        },
        {
          "indexed": false,
          "internalType": "address",
          "name": "_liquidator",
          "type": "address"
        },
        {
          "indexed": false,
          "internalType": "bool",
          "name": "_receiveAToken",
          "type": "bool"
        },
        {
          "indexed": false,
          "internalType": "uint256",
          "name": "_timestamp",
          "type": "uint256"
        }
      ],
      "name": "LiquidationCall",
      "type": "event"
    },
    {
      "anonymous": false,
      "inputs": [
        {
          "indexed": true,
          "internalType": "address",
          "name": "_collateral",
          "type": "address"
        },
        {
          "indexed": true,
          "internalType": "address",
          "name": "_reserve",
          "type": "address"
        },
        {
          "indexed": true,
          "internalType": "address",
          "name": "_user",
          "type": "address"
        },
        {
          "indexed": false,
          "internalType": "uint256",
          "name": "_feeLiquidated",
          "type": "uint256"
        },
        {
          "indexed": false,
          "internalType": "uint256",
          "name": "_liquidatedCollateralForFee",
          "type": "uint256"
        },
        {
          "indexed": false,
          "internalType": "uint256",
          "name": "_timestamp",
          "type": "uint256"
        }
      ],
      "name": "OriginationFeeLiquidated",
      "type": "event"
    },
    {
      "inputs": [],
      "name": "addressesProvider",
      "outputs": [
        {
          "internalType": "contract LendingBoardAddressesProvider",
          "name": "",
          "type": "address"
        }
      ],
      "stateMutability": "view",
      "type": "function"
    },
    {
      "inputs": [
        {
          "internalType": "address",
          "name": "_collateral",
          "type": "address"
        },
        {
          "internalType": "address",
          "name": "_reserve",
          "type": "address"
        },
        {
          "internalType": "address",
          "name": "_user",
          "type": "address"
        },
        {
          "internalType": "uint256",
          "name": "_purchaseAmount",
          "type": "uint256"
        },
        {
          "internalType": "bool",
          "name": "_receiveAToken",
          "type": "bool"
        }
      ],
      "name": "liquidationCall",
      "outputs": [
        {
          "internalType": "uint256",
          "name": "",
          "type": "uint256"
        },
        {
          "internalType": "string",
          "name": "",
          "type": "string"
        }
      ],
      "stateMutability": "payable",
      "type": "function"
    }
  ],
  "bytecode": "0x60808060405234610020576001600055600060015561129290816100268239f35b600080fdfe60806040526004361015610013575b600080fd5b60003560e01c8062a718a91461003a5763c72c4d101461003257600080fd5b61000e61010e565b60a036600319011261000e57610084600435610055816100e8565b60243590610062826100e8565b60443561006e816100e8565b6084359261007b846100f9565b60643592610496565b6040519182528160206040818301528251928360408401526000915b8483106100cf5750509180606093116100c2575b601f01601f19168101030190f35b60008382840101526100b4565b81830181015186840160600152859350918201916100a0565b6001600160a01b0381160361000e57565b8015150361000e57565b600091031261000e57565b503461000e57600036600319011261000e576035546040516001600160a01b039091168152602090f35b50634e487b7160e01b600052604160045260246000fd5b67ffffffffffffffff811161016357604052565b61016b610138565b604052565b6060810190811067ffffffffffffffff82111761016357604052565b6040810190811067ffffffffffffffff82111761016357604052565b90601f8019910116810190811067ffffffffffffffff82111761016357604052565b60405190610200820182811067ffffffffffffffff82111761016357604052565b6101f36101ca565b9060008083528060208401528060408401528060608401528060808401528060a08401528060c08401528060e08401528061010084015280610120840152806101408401528061016084015280610180840152806101a0840152806101c08401526101e0830152565b91908261010091031261000e5781519160208101519160408201519160608101519160808201519160a08101519160e060c083015192015161029d816100f9565b90565b506040513d6000823e3d90fd5b604051906102ba82610170565b60288252671a1c995cda1bdb1960c21b6040837f4865616c746820666163746f72206973206e6f742062656c6f7720746865207460208201520152565b9081602091031261000e575190565b604051906103138261018c565b601f82527f496e76616c696420636f6c6c61746572616c20746f206c6971756964617465006020830152565b9081602091031261000e575161029d816100f9565b6040519061036182610170565b602a8252691b1a5c5d5a59185d195960b21b6040837f54686520636f6c6c61746572616c2063686f73656e2063616e6e6f742062652060208201520152565b9081606091031261000e578051916040602083015192015190565b604051906103c882610170565b602a825269642063757272656e637960b01b6040837f5573657220646964206e6f7420626f72726f772074686520737065636966696560208201520152565b6040519061041482610170565b6033825272696c61626c6520746f206c697175696461746560681b6040837f54686572652069736e277420656e6f756768206c69717569646974792061766160208201520152565b9081602091031261000e575161029d816100e8565b6040519061047e8261018c565b60098252684e6f206572726f727360b81b6020830152565b929390936104a26101eb565b9261051b6105176104c96104bd60375460018060a01b031690565b6001600160a01b031690565b604051632c6d0e9b60e01b81526001600160a01b0385166004820152610100918290829060249082905afa918215610ef8575b600092610ec3575b505015156101e087019081525b51151590565b1590565b610eb257603654610534906001600160a01b03166104bd565b604051630c526de560e11b81526001600160a01b03878116600483015283166024820152909290602081604481875afa908115610ea5575b600091610e86575b5080865215610e7457604051630c7cddd760e11b81526001600160a01b0387166004820152602081602481875afa908115610e67575b600091610e48575b5080610dbd575b15156101c086019081526105d09061051790610511565b610dab57604051639fb8afcd60e01b81526001600160a01b0388811660048301528316602482015290606082604481875afa918215610d9e575b6000908193610d6a575b506020870192604088015280835215610d575761063e6106376106619351610f33565b6064900490565b90816060880152818111600014610d5057505b8060808701528551908888610fe8565b604051633faacc6b60e21b81526001600160a01b03898116600483015284166024820152919391602081604481865afa908115610d43575b600091610d24575b508061012088015280610cfb575b5060808601518110610cf0575b508315610c64575b6080850151906101408601519061016087015190604088015191813b1561000e5760405163345f5a6b60e11b81526001600160a01b038c811660048301528b811660248301528716604482015260648101959095526084850187905260a485019390935260c484019290925260e4830152841515610104830152600090829061012490829084905af18015610c57575b610c44575b5060365461076f906001600160a01b03166104bd565b604051631a59df7760e11b81526001600160a01b03871660048201529290602090849060249082905afa928315610c37575b600093610c16575b506001600160a01b039283168415610b2f57803b1561000e5760405163f866c31960e01b81526001600160a01b03841660048201523360248201526044810183905260008160648183865af18015610b22575b610b0f575b505b603654610818906001600160a01b03166104bd565b608087015190803b1561000e576040516328fcf4d360e01b81526001600160a01b038b16600482015233602482015260448101929092526000908290606490829034905af18015610b02575b610aef575b506101408601516108eb575b506080858101516040968701518751918252602082019390935295860191909152336060860152921515928401929092524260a08401529081169381169216907f56864757fd5b1fc9f38f5f3a981cd8ae512ce41b902cf73fc506ee369c6bc237908060c081015b0390a460009061029d610471565b90610160860151823b1561000e576040516307db6f9760e31b81526001600160a01b038516600480830191909152602482019290925290926000908290604490829084905af18015610ae2575b610acf575b50603654610953906001600160a01b03166104bd565b61016087015160355490969190602090610975906001600160a01b03166104bd565b604051637744894b60e11b815295869182905afa938415610ac2575b600094610a91575b50803b1561000e5760405163479c2e1160e11b81526001600160a01b038a8116600483015260248201989098529390961660448401527f56864757fd5b1fc9f38f5f3a981cd8ae512ce41b902cf73fc506ee369c6bc237956108dd93906000908290606490829084905af18015610a84575b610a6b575b506101408701516101608801516040805192835260208301919091524290820152858516908a8716908a8816907f36ca8b16d61dc13b1062adff83e3778ab92d14f9e35bfe9fd1283e02b13fb0a190606090a4945090610875565b80610a78610a7e9261014f565b80610103565b38610a10565b610a8c6102a0565b610a0b565b610ab491945060203d602011610abb575b610aac81836101a8565b81019061045c565b9238610999565b503d610aa2565b610aca6102a0565b610991565b80610a78610adc9261014f565b3861093d565b610aea6102a0565b610938565b80610a78610afc9261014f565b38610869565b610b0a6102a0565b610864565b80610a78610b1c9261014f565b38610801565b610b2a6102a0565b6107fc565b803b1561000e576040516307db6f9760e31b81526001600160a01b03841660048201526024810183905260008160448183865af18015610c09575b610bf6575b50603654610b85906001600160a01b03166104bd565b803b1561000e5760405163fa93b2a560e01b81526001600160a01b038916600482015233602482015260448101849052906000908290606490829084905af18015610be9575b610bd6575b50610803565b80610a78610be39261014f565b38610bd0565b610bf16102a0565b610bcb565b80610a78610c039261014f565b38610b6f565b610c116102a0565b610b6a565b610c3091935060203d602011610abb57610aac81836101a8565b91386107a9565b610c3f6102a0565b6107a1565b80610a78610c519261014f565b38610759565b610c5f6102a0565b610754565b60405163e240301960e01b81526001600160a01b03871660048201528390602081602481865afa908115610ce3575b600091610cb4575b5010156106c4575050505050505060059061029d610407565b610cd6915060203d602011610cdc575b610cce81836101a8565b8101906102f7565b38610c9b565b503d610cc4565b610ceb6102a0565b610c93565b6080860152386106bc565b610d1290610d0a868951610f1c565b908a8a610fe8565b610140880152610160870152386106af565b610d3d915060203d602011610cdc57610cce81836101a8565b386106a1565b610d4b6102a0565b610699565b9050610651565b505050505050505060039061029d6103bb565b9050610d8e91925060603d8111610d97575b610d8681836101a8565b8101906103a0565b92915038610614565b503d610d7c565b610da66102a0565b61060a565b5050505050505060029061029d610354565b50604051639e3c4f3b60e01b81526001600160a01b038781166004830152831660248201526105d09061051790602081604481895afa908115610e3b575b600091610e0c575b509150506105b9565b610e2e915060203d602011610e34575b610e2681836101a8565b81019061033f565b38610e03565b503d610e1c565b610e436102a0565b610dfb565b610e61915060203d602011610e3457610e2681836101a8565b386105b2565b610e6f6102a0565b6105aa565b5050505050505060019061029d610306565b610e9f915060203d602011610cdc57610cce81836101a8565b38610574565b610ead6102a0565b61056c565b50505050505060049061029d6102ad565b610ee29250803d10610ef1575b610eda81836101a8565b81019061025c565b96505050505050503880610504565b503d610ed0565b610f006102a0565b6104fc565b50634e487b7160e01b600052601160045260246000fd5b818110610f27570390565b610f2f610f05565b0390565b6032908060001904821181151516610f49570290565b610f51610f05565b0290565b6064908060001904821181151516610f49570290565b8060001904821181151516610f49570290565b8115610f88570490565b634e487b7160e01b600052601260045260246000fd5b6040519060a0820182811067ffffffffffffffff821117610fdb575b60405260006080838281528260208201528260408201528260608201520152565b610fe3610138565b610fba565b603554909493929190611003906001600160a01b03166104bd565b6040518091631f94a27560e31b825281600460209485935afa90811561124f575b600091611232575b506001600160a01b03169561103f610f9e565b60405163b3596f0760e01b8082526001600160a01b0384166004830152909891949190848a602481855afa998a15611225575b60009a6111ed575b5060408087019a8b52519081526001600160a01b03909216600483015261111096919591949193919290829087908180602481015b03915afa9586156111e0575b6000966111bf575b50606083019586526036548291906110e3906001600160a01b03166104bd565b6040516331da9b2760e21b81526001600160a01b0390921660048301529097889190829081906024820190565b03915afa9586156111b2575b60009661118e575b5090608091810195865261115261063761114a611142868951610f6b565b8b5190610f7e565b885190610f6b565b91018190528281111561118557505061118061029d939261117883611178949851610f6b565b905190610f7e565b610f55565b95509392505050565b8196506111aa90608093923d8911610cdc57610cce81836101a8565b959091611124565b6111ba6102a0565b61111c565b829196506111d990823d8411610cdc57610cce81836101a8565b95906110c3565b6111e86102a0565b6110bb565b85939084929b50926112156111109a9896946110af9a983d8611610cdc57610cce81836101a8565b9b9250929496985092949661107a565b61122d6102a0565b611072565b6112499150823d8411610abb57610aac81836101a8565b3861102c565b6112576102a0565b61102456fea264697066735822122025702a1d4e30f7b18928c7bb7e0ca905fe5219df44e1c1af805345cc06926c5c64736f6c634300080d0033",
  "linkReferences": {},
  "deployedLinkReferences": {}
}