{
  "_format": "hh-sol-artifact-1",
  "contractName": "LendingBoardLiquidationManager",
  "sourceName": "contracts/lendingboard/LendingBoardLiquidationManager.sol",
  "abi": [
    {
      "anonymous": false,
      "inputs": [
        {
          "indexed": true,
          "internalType": "address",
          "name": "_collateral",
          "type": "address"
        },
        {
          "indexed": true,
          "internalType": "address",
          "name": "_reserve",
          "type": "address"
        },
        {
          "indexed": true,
          "internalType": "address",
          "name": "_user",
          "type": "address"
        },
        {
          "indexed": false,
          "internalType": "uint256",
          "name": "_purchaseAmount",
          "type": "uint256"
        },
        {
          "indexed": false,
          "internalType": "uint256",
          "name": "_liquidatedCollateralAmount",
          "type": "uint256"
        },
        {
          "indexed": false,
          "internalType": "uint256",
          "name": "_accruedBorrowInterest",
          "type": "uint256"
        },
        {
          "indexed": false,
          "internalType": "address",
          "name": "_liquidator",
          "type": "address"
        },
        {
          "indexed": false,
          "internalType": "bool",
          "name": "_receiveAToken",
          "type": "bool"
        },
        {
          "indexed": false,
          "internalType": "uint256",
          "name": "_timestamp",
          "type": "uint256"
        }
      ],
      "name": "LiquidationCall",
      "type": "event"
    },
    {
      "anonymous": false,
      "inputs": [
        {
          "indexed": true,
          "internalType": "address",
          "name": "_collateral",
          "type": "address"
        },
        {
          "indexed": true,
          "internalType": "address",
          "name": "_reserve",
          "type": "address"
        },
        {
          "indexed": true,
          "internalType": "address",
          "name": "_user",
          "type": "address"
        },
        {
          "indexed": false,
          "internalType": "uint256",
          "name": "_feeLiquidated",
          "type": "uint256"
        },
        {
          "indexed": false,
          "internalType": "uint256",
          "name": "_liquidatedCollateralForFee",
          "type": "uint256"
        },
        {
          "indexed": false,
          "internalType": "uint256",
          "name": "_timestamp",
          "type": "uint256"
        }
      ],
      "name": "OriginationFeeLiquidated",
      "type": "event"
    },
    {
      "inputs": [],
      "name": "addressesProvider",
      "outputs": [
        {
          "internalType": "contract LendingBoardAddressesProvider",
          "name": "",
          "type": "address"
        }
      ],
      "stateMutability": "view",
      "type": "function"
    },
    {
      "inputs": [
        {
          "internalType": "address",
          "name": "_collateral",
          "type": "address"
        },
        {
          "internalType": "address",
          "name": "_reserve",
          "type": "address"
        },
        {
          "internalType": "address",
          "name": "_user",
          "type": "address"
        },
        {
          "internalType": "uint256",
          "name": "_purchaseAmount",
          "type": "uint256"
        },
        {
          "internalType": "bool",
          "name": "_receiveAToken",
          "type": "bool"
        }
      ],
      "name": "liquidationCall",
      "outputs": [
        {
          "internalType": "uint256",
          "name": "",
          "type": "uint256"
        },
        {
          "internalType": "string",
          "name": "",
          "type": "string"
        }
      ],
      "stateMutability": "payable",
      "type": "function"
    },
    {
      "inputs": [
        {
          "internalType": "uint256",
          "name": "_proposalId",
          "type": "uint256"
        },
        {
          "internalType": "bool",
          "name": "_isBorrowProposal",
          "type": "bool"
        },
        {
          "internalType": "bool",
          "name": "_receiveAToken",
          "type": "bool"
        }
      ],
      "name": "liquidationCallProposeMode",
      "outputs": [
        {
          "internalType": "uint256",
          "name": "",
          "type": "uint256"
        },
        {
          "internalType": "string",
          "name": "",
          "type": "string"
        }
      ],
      "stateMutability": "payable",
      "type": "function"
    }
  ],
  "bytecode": "0x60808060405234610020576001600055600060015561270d90816100268239f35b600080fdfe60806040526004361015610013575b600080fd5b60003560e01c8062a718a91461004e578063c72c4d10146100455763d548d9301461003d57600080fd5b61000e610167565b5061000e61013d565b60a036600319011261000e57610098600435610069816100ac565b60243590610076826100ac565b604435610082816100ac565b6084359261008f846100bd565b60643592610574565b906100a860405192839283610118565b0390f35b6001600160a01b0381160361000e57565b8015150361000e57565b91908251928382526000905b8482106101005750928060209394116100f3575b601f01601f1916010190565b60008382840101526100e7565b906020908180828501015190828601015201906100d3565b60409061012f9392815281602082015201906100c7565b90565b600091031261000e57565b503461000e57600036600319011261000e576035546040516001600160a01b039091168152602090f35b50606036600319011261000e57610098602435610183816100bd565b60443590610190826100bd565b6004356116ef565b50634e487b7160e01b600052604160045260246000fd5b67ffffffffffffffff81116101c357604052565b6101cb610198565b604052565b6060810190811067ffffffffffffffff8211176101c357604052565b6080810190811067ffffffffffffffff8211176101c357604052565b6040810190811067ffffffffffffffff8211176101c357604052565b90601f8019910116810190811067ffffffffffffffff8211176101c357604052565b60405190610200820182811067ffffffffffffffff8211176101c357604052565b61026f610246565b9060008083528060208401528060408401528060608401528060808401528060a08401528060c08401528060e08401528061010084015280610120840152806101408401528061016084015280610180840152806101a0840152806101c08401526101e0830152565b51906102e3826100bd565b565b91908261010091031261000e5781519160208101519160408201519160608101519160808201519160a08101519160e060c083015192015161012f816100bd565b506040513d6000823e3d90fd5b60405190610340826101d0565b60288252671a1c995cda1bdb1960c21b6040837f4865616c746820666163746f72206973206e6f742062656c6f7720746865207460208201520152565b9081602091031261000e575190565b6040519061039982610208565b601f82527f496e76616c696420636f6c6c61746572616c20746f206c6971756964617465006020830152565b9081602091031261000e575161012f816100bd565b604051906103e7826101d0565b602a8252691b1a5c5d5a59185d195960b21b6040837f54686520636f6c6c61746572616c2063686f73656e2063616e6e6f742062652060208201520152565b9081606091031261000e578051916040602083015192015190565b6040519061044e826101d0565b602a825269642063757272656e637960b01b6040837f5573657220646964206e6f7420626f72726f772074686520737065636966696560208201520152565b6040519061049a826101d0565b6033825272696c61626c6520746f206c697175696461746560681b6040837f54686572652069736e277420656e6f756768206c69717569646974792061766160208201520152565b9794916101009794919a9996936101208a019b60018060a01b0392838092168c521660208b01521660408901526060880152608087015260a086015260c085015260e08401521515910152565b51906102e3826100ac565b9081602091031261000e575161012f816100ac565b6040519061055c82610208565b60098252684e6f206572726f727360b81b6020830152565b92939093610580610267565b926105f96105f56105a761059b60375460018060a01b031690565b6001600160a01b031690565b604051632c6d0e9b60e01b81526001600160a01b0385166004820152610100918290829060249082905afa918215610f9d575b600092610f68575b505015156101e087019081525b51151590565b1590565b610f5757603654610612906001600160a01b031661059b565b604051630c526de560e11b81526001600160a01b03878116600483015283166024820152909290602081604481875afa908115610f4a575b600091610f2b575b5080865215610f1957604051630c7cddd760e11b81526001600160a01b0387166004820152602081602481875afa908115610f0c575b600091610eed575b5080610e62575b15156101c086019081526106ae906105f5906105ef565b610e5057604051639fb8afcd60e01b81526001600160a01b0388811660048301528316602482015290606082604481875afa918215610e43575b6000908193610e0f575b506020870192604088015280835215610dfc5761071c61071561073f9351610fd8565b6064900490565b90816060880152818111600014610df557505b8060808701528551908888612174565b604051633faacc6b60e21b81526001600160a01b03898116600483015284166024820152919391602081604481865afa908115610de8575b600091610dc9575b508061012088015280610da0575b5060808601518110610d95575b508315610d09575b6080850151906101408601519061016087015190604088015191813b1561000e5760008b6107ee8a89968e9585998d6040519c8d9b8c9a8b9963345f5a6b60e11b8b5260048b016104e2565b03925af18015610cfc575b610ce9575b50603654610814906001600160a01b031661059b565b604051631a59df7760e11b81526001600160a01b03871660048201529290602090849060249082905afa928315610cdc575b600093610cbb575b506001600160a01b039283168415610bd457803b1561000e5760405163f866c31960e01b81526001600160a01b03841660048201523360248201526044810183905260008160648183865af18015610bc7575b610bb4575b505b6036546108bd906001600160a01b031661059b565b608087015190803b1561000e576040516328fcf4d360e01b81526001600160a01b038b16600482015233602482015260448101929092526000908290606490829034905af18015610ba7575b610b94575b50610140860151610990575b506080858101516040968701518751918252602082019390935295860191909152336060860152921515928401929092524260a08401529081169381169216907f56864757fd5b1fc9f38f5f3a981cd8ae512ce41b902cf73fc506ee369c6bc237908060c081015b0390a460009061012f61054f565b90610160860151823b1561000e576040516307db6f9760e31b81526001600160a01b038516600480830191909152602482019290925290926000908290604490829084905af18015610b87575b610b74575b506036546109f8906001600160a01b031661059b565b61016087015160355490969190602090610a1a906001600160a01b031661059b565b604051637744894b60e11b815295869182905afa938415610b67575b600094610b36575b50803b1561000e5760405163479c2e1160e11b81526001600160a01b038a8116600483015260248201989098529390961660448401527f56864757fd5b1fc9f38f5f3a981cd8ae512ce41b902cf73fc506ee369c6bc2379561098293906000908290606490829084905af18015610b29575b610b10575b506101408701516101608801516040805192835260208301919091524290820152858516908a8716908a8816907f36ca8b16d61dc13b1062adff83e3778ab92d14f9e35bfe9fd1283e02b13fb0a190606090a494509061091a565b80610b1d610b23926101af565b80610132565b38610ab5565b610b31610326565b610ab0565b610b5991945060203d602011610b60575b610b518183610224565b81019061053a565b9238610a3e565b503d610b47565b610b6f610326565b610a36565b80610b1d610b81926101af565b386109e2565b610b8f610326565b6109dd565b80610b1d610ba1926101af565b3861090e565b610baf610326565b610909565b80610b1d610bc1926101af565b386108a6565b610bcf610326565b6108a1565b803b1561000e576040516307db6f9760e31b81526001600160a01b03841660048201526024810183905260008160448183865af18015610cae575b610c9b575b50603654610c2a906001600160a01b031661059b565b803b1561000e5760405163fa93b2a560e01b81526001600160a01b038916600482015233602482015260448101849052906000908290606490829084905af18015610c8e575b610c7b575b506108a8565b80610b1d610c88926101af565b38610c75565b610c96610326565b610c70565b80610b1d610ca8926101af565b38610c14565b610cb6610326565b610c0f565b610cd591935060203d602011610b6057610b518183610224565b913861084e565b610ce4610326565b610846565b80610b1d610cf6926101af565b386107fe565b610d04610326565b6107f9565b60405163e240301960e01b81526001600160a01b03871660048201528390602081602481865afa908115610d88575b600091610d59575b5010156107a2575050505050505060059061012f61048d565b610d7b915060203d602011610d81575b610d738183610224565b81019061037d565b38610d40565b503d610d69565b610d90610326565b610d38565b60808601523861079a565b610db790610daf868951610fc1565b908a8a612174565b6101408801526101608701523861078d565b610de2915060203d602011610d8157610d738183610224565b3861077f565b610df0610326565b610777565b905061072f565b505050505050505060039061012f610441565b9050610e3391925060603d8111610e3c575b610e2b8183610224565b810190610426565b929150386106f2565b503d610e21565b610e4b610326565b6106e8565b5050505050505060029061012f6103da565b50604051639e3c4f3b60e01b81526001600160a01b038781166004830152831660248201526106ae906105f590602081604481895afa908115610ee0575b600091610eb1575b50915050610697565b610ed3915060203d602011610ed9575b610ecb8183610224565b8101906103c5565b38610ea8565b503d610ec1565b610ee8610326565b610ea0565b610f06915060203d602011610ed957610ecb8183610224565b38610690565b610f14610326565b610688565b5050505050505060019061012f61038c565b610f44915060203d602011610d8157610d738183610224565b38610652565b610f52610326565b61064a565b50505050505060049061012f610333565b610f879250803d10610f96575b610f7f8183610224565b8101906102e5565b965050505050505038806105e2565b503d610f75565b610fa5610326565b6105da565b50634e487b7160e01b600052601160045260246000fd5b818110610fcc570390565b610fd4610faa565b0390565b6032908060001904821181151516610fee570290565b610ff6610faa565b0290565b6064908060001904821181151516610fee570290565b8060001904821181151516610fee570290565b811561102d570490565b634e487b7160e01b600052601260045260246000fd5b6040519061105082610208565b600b82526a1b5b34336d25731b5b306d60a81b6020830152565b6040519061107782610208565b602082527f0a2020203d3e204c69717569646174696f6e204d616e616765722053746172746020830152565b9190826101c091031261000e576110b9826102d8565b916110c66020820161052f565b916110d36040830161052f565b916110e06060820161052f565b916080820151916110f360a0820161052f565b9160c08201519160e0810151916101008201519161012081015191610140820151916101608101519161012f6101a061018084015193016102d8565b6040519061113c826101d0565b603182527050726f706f73616c4461746120646f6e6560781b6040837f0a2020203d3e204c69717569646174696f6e204d616e61676572203a2067657460208201520152565b1561118957565b60405162461bcd60e51b815260206004820152603660248201527f5468652050726f706f73616c2073686f756c64206e6f74206265204163746976604482015275185d1959080989881b9bdd0818994814995c185e595960521b6064820152608490fd5b604051906111fa826101d0565b603382527218995b1bddc81d1a19481d1a1c995cda1bdb19606a1b6040837f50726f706f73616c2773204865616c746820666163746f72206973206e6f742060208201520152565b6040519061124f826101d0565b603c82527f6c746820466163746f72205468726573686f6c6420436865636b6564000000006040837f0a2020203d3e204c69717569646174696f6e204d616e61676572203a2048656160208201520152565b604051906112ae82610208565b600e82526d1b5b34336d25732025731b5b306d60901b6020830152565b604051906112d8826101d0565b603782527f726f776572436f6c6c61746572616c42616c616e6365200000000000000000006040837f0a2020203d3e204c69717569646174696f6e204d616e61676572203a20626f7260208201520152565b60405190611337826101ec565b6042825261195960f21b6060837f0a2020203d3e204c69717569646174696f6e204d616e61676572203a2020204260208201527f6f72726f77657220436f6c6c61746572616c2042616c616e636520436865636b60408201520152565b604051906113a1826101d0565b603882527f6c6c61746572616c20456e61626c656420436865636b656400000000000000006040837f0a2020203d3e204c69717569646174696f6e204d616e61676572203a2020436f60208201520152565b156113fa57565b60405162461bcd60e51b815260206004820152604c60248201527f212d2d2d2d2d2d43757272656e746c79204f6e6c7920426f72726f772050726f60448201527f706f73616c732061726520617661696c61626c6520666f72204c69717569646160648201526b74696f6e2d2d2d2d2d2d2d2160a01b608482015260a490fd5b60405190611487826101d0565b603b82527f7569646174696f6e20436f6e646974696f6e7320617265204d657400000000006040837f0a2020203d3e204c69717569646174696f6e204d616e61676572203a204c697160208201520152565b604051906114e6826101ec565b60428252616e6560f01b6060837f0a2020203d3e204c69717569646174696f6e204d616e61676572203a20636f6c60208201527f6c61746572616c546f5472616e736665722063616c63756c6174696f6e20646f60408201520152565b60405190611550826101ec565b6048825267696f6e20646f6e6560c01b6060837f0a2020203d3e204c69717569646174696f6e204d616e61676572203a206c697160208201527f75696461746564436f6c6c61746572616c466f724665652063616c63756c617460408201520152565b604051906115c082610208565b600e82526d1b5b34326d25732025731b5b306d60901b6020830152565b604051906115ea826101d0565b603a82527f72732e61637475616c416d6f756e74546f4c69717569646174650000000000006040837f0a2020203d3e204c69717569646174696f6e204d616e61676572203a2020766160208201520152565b60405190611649826101d0565b6032825271363630ba32b930b62a37aa3930b739b332b960711b6040837f0a2020203d3e204c69717569646174696f6e204d616e61676572203a2020636f60208201520152565b6040519061169d826101d0565b603a82527f61746553746174654f6e4c69717569646174696f6e20646f6e650000000000006040837f0a2020203d3e204c69717569646174696f6e204d616e61676572203a2075706460208201520152565b91909161170b6116fd611043565b61170561106a565b90612611565b611713610267565b603754611728906001600160a01b031661059b565b60405163a7b3a3c160e01b81526004810184905285151560248201526101c095909490918686604481845afa92831561211d575b6000968780938196828094819d82936120c7575b5050906117989161178a611782611043565b61170561112f565b1590816120be575b50611182565b60405163335530ff60e01b8152600481019990995283151560248a0152602098908990829060449082905afa6117ed916105f5919081156120b1575b600091612094575b505060016101e08a019081526105ef565b61207f576118046117fc611043565b611705611242565b603654611819906001600160a01b031661059b565b604051630c526de560e11b81526001600160a01b0383811660048301528b1660248201529093908981604481885afa908115612072575b600091612055575b50611873816118656112a1565b61186d6112cb565b9061267e565b1561203f5761188b611883611043565b61170561132a565b604051630c7cddd760e11b81526001600160a01b03831660048201528981602481885afa908115612032575b600091612015575b5080611fa8575b15611f92576118e7906118e26118da611043565b611705611394565b6113f3565b604051639fb8afcd60e01b81526001600160a01b0385811660048301528a16602482015295606087604481875afa968715611f85575b6000908198611f61575b5060408901978852808a8a015215611f4b5761196190611950611948611043565b61170561147a565b6080890193818552895285836123e8565b9261197561196d611043565b6117056114d9565b61014061198b8c6101208b019d8e5287856123e8565b9b6101608a019c8d525198019788526119ad6119a5611043565b611705611543565b8515611ece575b8251908851908c5190895191813b1561000e576000898f948c6119f3918a9585998e6040519c8d9b8c9a8b9963345f5a6b60e11b8b5260048b016104e2565b03925af18015611ec1575b611eae575b50611a198251611a116115b3565b61186d6115dd565b611a2d83611a256115b3565b61186d61163c565b611a40611a38611043565b611705611690565b603654611a55906001600160a01b031661059b565b604051631a59df7760e11b81526001600160a01b03831660048201529990898b602481845afa9a8b15611ea1575b60009b611e82575b506001600160a01b039a8b16908715611d9957813b1561000e5760405163f866c31960e01b81526001600160a01b039190911660048201523360248201526044810186905260008160648183865af18015611d8c575b611d79575b505b603654611afd906001600160a01b031661059b565b845190803b1561000e576040516328fcf4d360e01b81526001600160a01b038916600482015233602482015260448101929092526000908290606490829034905af18015611d6c575b611d59575b508b5190803b1561000e576040516307db6f9760e31b81526001600160a01b038416600482015260248101929092526000908290604490829084905af18015611d4c575b611d39575b50603654611baa906001600160a01b031661059b565b948b5160048b611bc461059b60355460018060a01b031690565b604051637744894b60e11b815292839182905afa9b8c15611d2c575b60009c611d0d575b5050863b1561000e5760405163479c2e1160e11b81526001600160a01b03858116600483015260248201929092529a1660448b01528a997f56864757fd5b1fc9f38f5f3a981cd8ae512ce41b902cf73fc506ee369c6bc23799610982977f36ca8b16d61dc13b1062adff83e3778ab92d14f9e35bfe9fd1283e02b13fb0a1928d92916000908290606490829084905af18015611d00575b611ced575b50519d5194169a8b92169b8c93169c8d94611cb76040519283924291846040919493926060820195825260208201520152565b0390a45193516040805195865260208601929092529084015233606084015290151560808301524260a0830152819060c0820190565b80610b1d611cfa926101af565b38611c84565b611d08610326565b611c7f565b611d24929c50803d10610b6057610b518183610224565b993880611be8565b611d34610326565b611be0565b80610b1d611d46926101af565b38611b94565b611d54610326565b611b8f565b80610b1d611d66926101af565b38611b4b565b611d74610326565b611b46565b80610b1d611d86926101af565b38611ae6565b611d94610326565b611ae1565b813b1561000e576040516307db6f9760e31b81526001600160a01b039190911660048201526024810186905260008160448183865af18015611e75575b611e62575b50603654611df1906001600160a01b031661059b565b803b1561000e5760405163fa93b2a560e01b81526001600160a01b038516600482015233602482015260448101879052906000908290606490829084905af18015611e55575b611e42575b50611ae8565b80610b1d611e4f926101af565b38611e3c565b611e5d610326565b611e37565b80610b1d611e6f926101af565b38611ddb565b611e7d610326565b611dd6565b611e9a919b508a3d8c11610b6057610b518183610224565b9938611a8b565b611ea9610326565b611a83565b80610b1d611ebb926101af565b38611a03565b611ec9610326565b6119fe565b60405163e240301960e01b81526001600160a01b038316600482015284908a81602481865afa908115611f3e575b600091611f21575b5010156119b457505050505050505050505060059061012f61048d565b611f3891508b3d8d11610d8157610d738183610224565b38611f04565b611f46610326565b611efc565b505050505050505050505060039061012f610441565b9050611f7c91975060603d8111610e3c57610e2b8183610224565b97915038611927565b611f8d610326565b61191d565b505050505050505050505060029061012f6103da565b50604051639e3c4f3b60e01b81526001600160a01b0383811660048301528b1660248201528981604481885afa908115612008575b600091611feb575b506118c6565b61200291508a3d8c11610ed957610ecb8183610224565b38611fe5565b612010610326565b611fdd565b61202c91508a3d8c11610ed957610ecb8183610224565b386118bf565b61203a610326565b6118b7565b505050505050505050505060019061012f61038c565b61206c91508a3d8c11610d8157610d738183610224565b38611858565b61207a610326565b611850565b5050505050505050505060049061012f6111ed565b6120ab91508b3d8d11610ed957610ecb8183610224565b386117dc565b6120b9610326565b6117d4565b90501538611792565b9550959c50505098505061179894506120f59250803d10612116575b6120ed8183610224565b8101906110a3565b9a505050979f9893969e959992505050989198909b969893949c9138611770565b503d6120e3565b612125610326565b61175c565b6040519060a0820182811067ffffffffffffffff821117612167575b60405260006080838281528260208201528260408201528260608201520152565b61216f610198565b612146565b60355490949392919061218f906001600160a01b031661059b565b6040518091631f94a27560e31b825281600460209485935afa9081156123db575b6000916123be575b506001600160a01b0316956121cb61212a565b60405163b3596f0760e01b8082526001600160a01b0384166004830152909891949190848a602481855afa998a156123b1575b60009a612379575b5060408087019a8b52519081526001600160a01b03909216600483015261229c96919591949193919290829087908180602481015b03915afa95861561236c575b60009661234b575b506060830195865260365482919061226f906001600160a01b031661059b565b6040516331da9b2760e21b81526001600160a01b0390921660048301529097889190829081906024820190565b03915afa95861561233e575b60009661231a575b509060809181019586526122de6107156122d66122ce868951611010565b8b5190611023565b885190611010565b91018190528281111561231157505061230c61012f939261230483612304949851611010565b905190611023565b610ffa565b95509392505050565b81965061233690608093923d8911610d8157610d738183610224565b9590916122b0565b612346610326565b6122a8565b8291965061236590823d8411610d8157610d738183610224565b959061224f565b612374610326565b612247565b85939084929b50926123a161229c9a98969461223b9a983d8611610d8157610d738183610224565b9b92509294969850929496612206565b6123b9610326565b6121fe565b6123d59150823d8411610b6057610b518183610224565b386121b8565b6123e3610326565b6121b0565b906107156080936125106125429361240a61059b60355460018060a01b031690565b926040518094631f94a27560e31b825281600460209788935afa908115612604575b6000916125e7575b506001600160a01b0316908461244861212a565b60405163b3596f0760e01b8082526001600160a01b038c166004830152919a8b96919590928487602481855afa9687156125da575b6000976125ac575b50604097880196875296519687526001600160a01b03909116600487015293949293829084908180602481015b03915afa92831561259f575b600093612580575b5060608a019283526036546124e3906001600160a01b031661059b565b6040516331da9b2760e21b81526001600160a01b0390921660048301529095869190829081906024820190565b03915afa938415612573575b60009461254a575b50906123049161253a9495890195865251611010565b905190611010565b918291015290565b61253a94509061256a6123049392873d8911610d8157610d738183610224565b94509091612524565b61257b610326565b61251c565b612598919350823d8411610d8157610d738183610224565b91386124c6565b6125a7610326565b6124be565b6124b29697509060406125ce87959493863d8811610d8157610d738183610224565b98975050909192612485565b6125e2610326565b61247d565b6125fe9150853d8711610b6057610b518183610224565b38612434565b61260c610326565b61242c565b612663612643916126556102e394604051948593634b5c427760e01b60208601526040602486015260648501906100c7565b838103602319016044850152906100c7565b03601f198101835282610224565b600080916020815191016a636f6e736f6c652e6c6f675afa50565b612663906102e3936126c36126b194604051958694635821efa160e01b60208701526060602487015260848601906100c7565b848103602319016044860152906100c7565b90606483015203601f19810183528261022456fea2646970667358221220ed8788b01d2856f44fd908fa5ebcdc55e228a938a9e6dd975230bd3e76f1b26d64736f6c634300080d0033",
  "linkReferences": {},
  "deployedLinkReferences": {}
}