{
  "_format": "hh-sol-artifact-1",
  "contractName": "LendingBoardProposeModeTemporal",
  "sourceName": "contracts/lendingboard/LendingBoardProposeModeTemporal.sol",
  "abi": [
    {
      "anonymous": false,
      "inputs": [
        {
          "indexed": true,
          "internalType": "address",
          "name": "_reserve",
          "type": "address"
        },
        {
          "indexed": true,
          "internalType": "address",
          "name": "_user",
          "type": "address"
        },
        {
          "indexed": false,
          "internalType": "uint256",
          "name": "_amount",
          "type": "uint256"
        },
        {
          "indexed": false,
          "internalType": "uint256",
          "name": "_borrowRateMode",
          "type": "uint256"
        },
        {
          "indexed": false,
          "internalType": "uint256",
          "name": "_borrowRate",
          "type": "uint256"
        },
        {
          "indexed": false,
          "internalType": "uint256",
          "name": "_originationFee",
          "type": "uint256"
        },
        {
          "indexed": false,
          "internalType": "uint256",
          "name": "_borrowBalanceIncrease",
          "type": "uint256"
        },
        {
          "indexed": false,
          "internalType": "uint256",
          "name": "_timestamp",
          "type": "uint256"
        }
      ],
      "name": "Borrow",
      "type": "event"
    },
    {
      "anonymous": false,
      "inputs": [
        {
          "indexed": true,
          "internalType": "address",
          "name": "_reserveToLend",
          "type": "address"
        },
        {
          "indexed": true,
          "internalType": "address",
          "name": "_lender",
          "type": "address"
        },
        {
          "indexed": false,
          "internalType": "address",
          "name": "_borrower",
          "type": "address"
        },
        {
          "indexed": true,
          "internalType": "uint256",
          "name": "_proposalId",
          "type": "uint256"
        },
        {
          "indexed": false,
          "internalType": "uint256",
          "name": "_amount",
          "type": "uint256"
        },
        {
          "indexed": false,
          "internalType": "uint256",
          "name": "_originationFee",
          "type": "uint256"
        },
        {
          "indexed": false,
          "internalType": "uint256",
          "name": "_timestamp",
          "type": "uint256"
        }
      ],
      "name": "BorrowAccepted",
      "type": "event"
    },
    {
      "anonymous": false,
      "inputs": [
        {
          "indexed": true,
          "internalType": "address",
          "name": "_reserveToBorrow",
          "type": "address"
        },
        {
          "indexed": true,
          "internalType": "address",
          "name": "_borrowProposer",
          "type": "address"
        },
        {
          "indexed": true,
          "internalType": "uint256",
          "name": "_proposalId",
          "type": "uint256"
        },
        {
          "indexed": false,
          "internalType": "uint256",
          "name": "_amount",
          "type": "uint256"
        },
        {
          "indexed": false,
          "internalType": "address",
          "name": "_reserveForCollateral",
          "type": "address"
        },
        {
          "indexed": false,
          "internalType": "uint256",
          "name": "_interestRate",
          "type": "uint256"
        },
        {
          "indexed": false,
          "internalType": "uint256",
          "name": "_originationFee",
          "type": "uint256"
        },
        {
          "indexed": false,
          "internalType": "uint256",
          "name": "_dueDate",
          "type": "uint256"
        },
        {
          "indexed": false,
          "internalType": "uint256",
          "name": "_timestamp",
          "type": "uint256"
        }
      ],
      "name": "BorrowProposed",
      "type": "event"
    },
    {
      "anonymous": false,
      "inputs": [
        {
          "indexed": true,
          "internalType": "address",
          "name": "_reserve",
          "type": "address"
        },
        {
          "indexed": true,
          "internalType": "address",
          "name": "_user",
          "type": "address"
        },
        {
          "indexed": false,
          "internalType": "uint256",
          "name": "_amount",
          "type": "uint256"
        },
        {
          "indexed": false,
          "internalType": "uint256",
          "name": "_timestamp",
          "type": "uint256"
        }
      ],
      "name": "Deposit",
      "type": "event"
    },
    {
      "anonymous": false,
      "inputs": [
        {
          "indexed": true,
          "internalType": "address",
          "name": "_reserveToLend",
          "type": "address"
        },
        {
          "indexed": true,
          "internalType": "address",
          "name": "_lender",
          "type": "address"
        },
        {
          "indexed": false,
          "internalType": "address",
          "name": "_borrower",
          "type": "address"
        },
        {
          "indexed": true,
          "internalType": "uint256",
          "name": "_proposalId",
          "type": "uint256"
        },
        {
          "indexed": false,
          "internalType": "uint256",
          "name": "_amount",
          "type": "uint256"
        },
        {
          "indexed": false,
          "internalType": "uint256",
          "name": "_originationFee",
          "type": "uint256"
        },
        {
          "indexed": false,
          "internalType": "uint256",
          "name": "_timestamp",
          "type": "uint256"
        }
      ],
      "name": "LendAccepted",
      "type": "event"
    },
    {
      "anonymous": false,
      "inputs": [
        {
          "indexed": true,
          "internalType": "address",
          "name": "_reserveToLend",
          "type": "address"
        },
        {
          "indexed": true,
          "internalType": "address",
          "name": "_lendProposer",
          "type": "address"
        },
        {
          "indexed": true,
          "internalType": "uint256",
          "name": "_proposalId",
          "type": "uint256"
        },
        {
          "indexed": false,
          "internalType": "uint256",
          "name": "_amount",
          "type": "uint256"
        },
        {
          "indexed": false,
          "internalType": "uint256",
          "name": "_interestRate",
          "type": "uint256"
        },
        {
          "indexed": false,
          "internalType": "uint256",
          "name": "_originationFee",
          "type": "uint256"
        },
        {
          "indexed": false,
          "internalType": "uint256",
          "name": "_dueDate",
          "type": "uint256"
        },
        {
          "indexed": false,
          "internalType": "uint256",
          "name": "_proposalTimeStamp",
          "type": "uint256"
        }
      ],
      "name": "LendProposed",
      "type": "event"
    },
    {
      "anonymous": false,
      "inputs": [
        {
          "indexed": true,
          "internalType": "address",
          "name": "_collateral",
          "type": "address"
        },
        {
          "indexed": true,
          "internalType": "address",
          "name": "_reserve",
          "type": "address"
        },
        {
          "indexed": true,
          "internalType": "address",
          "name": "_user",
          "type": "address"
        },
        {
          "indexed": false,
          "internalType": "uint256",
          "name": "_purchaseAmount",
          "type": "uint256"
        },
        {
          "indexed": false,
          "internalType": "uint256",
          "name": "_liquidatedCollateralAmount",
          "type": "uint256"
        },
        {
          "indexed": false,
          "internalType": "uint256",
          "name": "_accruedBorrowInterest",
          "type": "uint256"
        },
        {
          "indexed": false,
          "internalType": "address",
          "name": "_liquidator",
          "type": "address"
        },
        {
          "indexed": false,
          "internalType": "bool",
          "name": "_receiveAToken",
          "type": "bool"
        },
        {
          "indexed": false,
          "internalType": "uint256",
          "name": "_timestamp",
          "type": "uint256"
        }
      ],
      "name": "LiquidationCall",
      "type": "event"
    },
    {
      "anonymous": false,
      "inputs": [
        {
          "indexed": true,
          "internalType": "address",
          "name": "_collateral",
          "type": "address"
        },
        {
          "indexed": true,
          "internalType": "address",
          "name": "_reserve",
          "type": "address"
        },
        {
          "indexed": true,
          "internalType": "address",
          "name": "_user",
          "type": "address"
        },
        {
          "indexed": false,
          "internalType": "uint256",
          "name": "_feeLiquidated",
          "type": "uint256"
        },
        {
          "indexed": false,
          "internalType": "uint256",
          "name": "_liquidatedCollateralForFee",
          "type": "uint256"
        },
        {
          "indexed": false,
          "internalType": "uint256",
          "name": "_timestamp",
          "type": "uint256"
        }
      ],
      "name": "OriginationFeeLiquidated",
      "type": "event"
    },
    {
      "anonymous": false,
      "inputs": [
        {
          "indexed": true,
          "internalType": "address",
          "name": "_reserveToReceive",
          "type": "address"
        },
        {
          "indexed": true,
          "internalType": "address",
          "name": "_lender",
          "type": "address"
        },
        {
          "indexed": false,
          "internalType": "address",
          "name": "_reserveForCollateral",
          "type": "address"
        },
        {
          "indexed": false,
          "internalType": "address",
          "name": "_borrower",
          "type": "address"
        },
        {
          "indexed": true,
          "internalType": "uint256",
          "name": "_proposalId",
          "type": "uint256"
        },
        {
          "indexed": false,
          "internalType": "uint256",
          "name": "_amount",
          "type": "uint256"
        },
        {
          "indexed": false,
          "internalType": "uint256",
          "name": "_originationFee",
          "type": "uint256"
        },
        {
          "indexed": false,
          "internalType": "uint256",
          "name": "_timestamp",
          "type": "uint256"
        }
      ],
      "name": "ProposalAccepted",
      "type": "event"
    },
    {
      "anonymous": false,
      "inputs": [
        {
          "indexed": true,
          "internalType": "address",
          "name": "_reserve",
          "type": "address"
        },
        {
          "indexed": true,
          "internalType": "address",
          "name": "_user",
          "type": "address"
        },
        {
          "indexed": false,
          "internalType": "uint256",
          "name": "_amount",
          "type": "uint256"
        },
        {
          "indexed": false,
          "internalType": "uint256",
          "name": "_timestamp",
          "type": "uint256"
        }
      ],
      "name": "RedeemUnderlying",
      "type": "event"
    },
    {
      "anonymous": false,
      "inputs": [
        {
          "indexed": true,
          "internalType": "address",
          "name": "_reserve",
          "type": "address"
        },
        {
          "indexed": true,
          "internalType": "address",
          "name": "_user",
          "type": "address"
        },
        {
          "indexed": true,
          "internalType": "address",
          "name": "_repayer",
          "type": "address"
        },
        {
          "indexed": false,
          "internalType": "uint256",
          "name": "_amountMinusFees",
          "type": "uint256"
        },
        {
          "indexed": false,
          "internalType": "uint256",
          "name": "_fees",
          "type": "uint256"
        },
        {
          "indexed": false,
          "internalType": "uint256",
          "name": "_borrowBalanceIncrease",
          "type": "uint256"
        },
        {
          "indexed": false,
          "internalType": "uint256",
          "name": "_timestamp",
          "type": "uint256"
        }
      ],
      "name": "Repay",
      "type": "event"
    },
    {
      "anonymous": false,
      "inputs": [
        {
          "indexed": true,
          "internalType": "address",
          "name": "_reserve",
          "type": "address"
        },
        {
          "indexed": true,
          "internalType": "address",
          "name": "_user",
          "type": "address"
        }
      ],
      "name": "ReserveUsedAsCollateralDisabled",
      "type": "event"
    },
    {
      "anonymous": false,
      "inputs": [
        {
          "indexed": true,
          "internalType": "address",
          "name": "_reserve",
          "type": "address"
        },
        {
          "indexed": true,
          "internalType": "address",
          "name": "_user",
          "type": "address"
        }
      ],
      "name": "ReserveUsedAsCollateralEnabled",
      "type": "event"
    },
    {
      "inputs": [],
      "name": "LENDINGPOOL_REVISION",
      "outputs": [
        {
          "internalType": "uint256",
          "name": "",
          "type": "uint256"
        }
      ],
      "stateMutability": "view",
      "type": "function"
    },
    {
      "inputs": [],
      "name": "UINT_MAX_VALUE",
      "outputs": [
        {
          "internalType": "uint256",
          "name": "",
          "type": "uint256"
        }
      ],
      "stateMutability": "view",
      "type": "function"
    },
    {
      "inputs": [],
      "name": "addressesProvider",
      "outputs": [
        {
          "internalType": "contract LendingBoardAddressesProvider",
          "name": "",
          "type": "address"
        }
      ],
      "stateMutability": "view",
      "type": "function"
    },
    {
      "inputs": [
        {
          "internalType": "address",
          "name": "_reserve",
          "type": "address"
        },
        {
          "internalType": "uint256",
          "name": "_amount",
          "type": "uint256"
        },
        {
          "internalType": "uint256",
          "name": "_interestRateMode",
          "type": "uint256"
        }
      ],
      "name": "borrow",
      "outputs": [],
      "stateMutability": "nonpayable",
      "type": "function"
    },
    {
      "inputs": [
        {
          "internalType": "address",
          "name": "_reserveToBorrow",
          "type": "address"
        },
        {
          "internalType": "uint256",
          "name": "_amount",
          "type": "uint256"
        },
        {
          "internalType": "address",
          "name": "_reserveForCollateral",
          "type": "address"
        },
        {
          "internalType": "uint256",
          "name": "_interestRate",
          "type": "uint256"
        },
        {
          "internalType": "uint256",
          "name": "_dueDate",
          "type": "uint256"
        }
      ],
      "name": "borrowProposal",
      "outputs": [],
      "stateMutability": "nonpayable",
      "type": "function"
    },
    {
      "inputs": [
        {
          "internalType": "uint256",
          "name": "_proposalId",
          "type": "uint256"
        }
      ],
      "name": "borrowProposalAccept",
      "outputs": [],
      "stateMutability": "nonpayable",
      "type": "function"
    },
    {
      "inputs": [],
      "name": "borrowProposalListCount",
      "outputs": [
        {
          "internalType": "uint256",
          "name": "",
          "type": "uint256"
        }
      ],
      "stateMutability": "view",
      "type": "function"
    },
    {
      "inputs": [],
      "name": "core",
      "outputs": [
        {
          "internalType": "contract LendingBoardCore",
          "name": "",
          "type": "address"
        }
      ],
      "stateMutability": "view",
      "type": "function"
    },
    {
      "inputs": [],
      "name": "dataProvider",
      "outputs": [
        {
          "internalType": "contract LendingBoardDataProvider",
          "name": "",
          "type": "address"
        }
      ],
      "stateMutability": "view",
      "type": "function"
    },
    {
      "inputs": [
        {
          "internalType": "address",
          "name": "_reserve",
          "type": "address"
        },
        {
          "internalType": "uint256",
          "name": "_amount",
          "type": "uint256"
        },
        {
          "internalType": "uint16",
          "name": "_referralCode",
          "type": "uint16"
        }
      ],
      "name": "deposit",
      "outputs": [],
      "stateMutability": "payable",
      "type": "function"
    },
    {
      "inputs": [
        {
          "internalType": "uint256",
          "name": "proposalId",
          "type": "uint256"
        }
      ],
      "name": "getBorrowProposal",
      "outputs": [
        {
          "internalType": "bool",
          "name": "active",
          "type": "bool"
        },
        {
          "internalType": "address",
          "name": "borrower",
          "type": "address"
        },
        {
          "internalType": "address",
          "name": "reserveToBorrow",
          "type": "address"
        },
        {
          "internalType": "uint256",
          "name": "amount",
          "type": "uint256"
        },
        {
          "internalType": "address",
          "name": "reserveForCollateral",
          "type": "address"
        },
        {
          "internalType": "uint256",
          "name": "interestRate",
          "type": "uint256"
        },
        {
          "internalType": "uint256",
          "name": "dueDate",
          "type": "uint256"
        },
        {
          "internalType": "uint256",
          "name": "proposalDate",
          "type": "uint256"
        },
        {
          "internalType": "uint256",
          "name": "ltv",
          "type": "uint256"
        }
      ],
      "stateMutability": "view",
      "type": "function"
    },
    {
      "inputs": [
        {
          "internalType": "uint256",
          "name": "startIdx",
          "type": "uint256"
        },
        {
          "internalType": "uint256",
          "name": "endIdx",
          "type": "uint256"
        }
      ],
      "name": "getBorrowProposalList",
      "outputs": [
        {
          "components": [
            {
              "internalType": "bool",
              "name": "active",
              "type": "bool"
            },
            {
              "internalType": "address",
              "name": "proposer",
              "type": "address"
            },
            {
              "internalType": "address",
              "name": "reserveToReceive",
              "type": "address"
            },
            {
              "internalType": "uint256",
              "name": "amount",
              "type": "uint256"
            },
            {
              "internalType": "address",
              "name": "reserveForCollateral",
              "type": "address"
            },
            {
              "internalType": "uint256",
              "name": "interestRate",
              "type": "uint256"
            },
            {
              "internalType": "uint256",
              "name": "dueDate",
              "type": "uint256"
            },
            {
              "internalType": "uint256",
              "name": "proposalDate",
              "type": "uint256"
            },
            {
              "internalType": "uint256",
              "name": "serviceFee",
              "type": "uint256"
            },
            {
              "internalType": "uint256",
              "name": "ltv",
              "type": "uint256"
            }
          ],
          "internalType": "struct LendingBoardProposeModeTemporal.ProposalStructure[]",
          "name": "result",
          "type": "tuple[]"
        }
      ],
      "stateMutability": "view",
      "type": "function"
    },
    {
      "inputs": [
        {
          "internalType": "uint256",
          "name": "proposalId",
          "type": "uint256"
        }
      ],
      "name": "getLendProposal",
      "outputs": [
        {
          "internalType": "bool",
          "name": "active",
          "type": "bool"
        },
        {
          "internalType": "address",
          "name": "lender",
          "type": "address"
        },
        {
          "internalType": "address",
          "name": "reserveToLend",
          "type": "address"
        },
        {
          "internalType": "uint256",
          "name": "amount",
          "type": "uint256"
        },
        {
          "internalType": "address",
          "name": "reserveForCollateral",
          "type": "address"
        },
        {
          "internalType": "uint256",
          "name": "interestRate",
          "type": "uint256"
        },
        {
          "internalType": "uint256",
          "name": "dueDate",
          "type": "uint256"
        },
        {
          "internalType": "uint256",
          "name": "proposalDate",
          "type": "uint256"
        },
        {
          "internalType": "uint256",
          "name": "ltv",
          "type": "uint256"
        }
      ],
      "stateMutability": "view",
      "type": "function"
    },
    {
      "inputs": [
        {
          "internalType": "uint256",
          "name": "startIdx",
          "type": "uint256"
        },
        {
          "internalType": "uint256",
          "name": "endIdx",
          "type": "uint256"
        }
      ],
      "name": "getLendProposalList",
      "outputs": [
        {
          "components": [
            {
              "internalType": "bool",
              "name": "active",
              "type": "bool"
            },
            {
              "internalType": "address",
              "name": "proposer",
              "type": "address"
            },
            {
              "internalType": "address",
              "name": "reserveToReceive",
              "type": "address"
            },
            {
              "internalType": "uint256",
              "name": "amount",
              "type": "uint256"
            },
            {
              "internalType": "address",
              "name": "reserveForCollateral",
              "type": "address"
            },
            {
              "internalType": "uint256",
              "name": "interestRate",
              "type": "uint256"
            },
            {
              "internalType": "uint256",
              "name": "dueDate",
              "type": "uint256"
            },
            {
              "internalType": "uint256",
              "name": "proposalDate",
              "type": "uint256"
            },
            {
              "internalType": "uint256",
              "name": "serviceFee",
              "type": "uint256"
            },
            {
              "internalType": "uint256",
              "name": "ltv",
              "type": "uint256"
            }
          ],
          "internalType": "struct LendingBoardProposeModeTemporal.ProposalStructure[]",
          "name": "result",
          "type": "tuple[]"
        }
      ],
      "stateMutability": "view",
      "type": "function"
    },
    {
      "inputs": [
        {
          "internalType": "address",
          "name": "_reserve",
          "type": "address"
        }
      ],
      "name": "getReserveConfigurationData",
      "outputs": [
        {
          "internalType": "uint256",
          "name": "ltv",
          "type": "uint256"
        },
        {
          "internalType": "uint256",
          "name": "liquidationThreshold",
          "type": "uint256"
        },
        {
          "internalType": "uint256",
          "name": "liquidationBonus",
          "type": "uint256"
        },
        {
          "internalType": "address",
          "name": "interestRateStrategyAddress",
          "type": "address"
        },
        {
          "internalType": "bool",
          "name": "usageAsCollateralEnabled",
          "type": "bool"
        },
        {
          "internalType": "bool",
          "name": "borrowingEnabled",
          "type": "bool"
        },
        {
          "internalType": "bool",
          "name": "stableBorrowRateEnabled",
          "type": "bool"
        },
        {
          "internalType": "bool",
          "name": "isActive",
          "type": "bool"
        }
      ],
      "stateMutability": "view",
      "type": "function"
    },
    {
      "inputs": [
        {
          "internalType": "address",
          "name": "_reserve",
          "type": "address"
        }
      ],
      "name": "getReserveData",
      "outputs": [
        {
          "internalType": "uint256",
          "name": "totalLiquidity",
          "type": "uint256"
        },
        {
          "internalType": "uint256",
          "name": "availableLiquidity",
          "type": "uint256"
        },
        {
          "internalType": "uint256",
          "name": "totalBorrowsStable",
          "type": "uint256"
        },
        {
          "internalType": "uint256",
          "name": "totalBorrowsVariable",
          "type": "uint256"
        },
        {
          "internalType": "uint256",
          "name": "liquidityRate",
          "type": "uint256"
        },
        {
          "internalType": "uint256",
          "name": "variableBorrowRate",
          "type": "uint256"
        },
        {
          "internalType": "uint256",
          "name": "stableBorrowRate",
          "type": "uint256"
        },
        {
          "internalType": "uint256",
          "name": "averageStableBorrowRate",
          "type": "uint256"
        },
        {
          "internalType": "uint256",
          "name": "utilizationRate",
          "type": "uint256"
        },
        {
          "internalType": "uint256",
          "name": "liquidityIndex",
          "type": "uint256"
        },
        {
          "internalType": "uint256",
          "name": "variableBorrowIndex",
          "type": "uint256"
        },
        {
          "internalType": "address",
          "name": "aTokenAddress",
          "type": "address"
        },
        {
          "internalType": "uint40",
          "name": "lastUpdateTimestamp",
          "type": "uint40"
        }
      ],
      "stateMutability": "view",
      "type": "function"
    },
    {
      "inputs": [],
      "name": "getReserves",
      "outputs": [
        {
          "internalType": "address[]",
          "name": "",
          "type": "address[]"
        }
      ],
      "stateMutability": "view",
      "type": "function"
    },
    {
      "inputs": [
        {
          "internalType": "address",
          "name": "_user",
          "type": "address"
        }
      ],
      "name": "getUserAccountData",
      "outputs": [
        {
          "internalType": "uint256",
          "name": "totalLiquidityETH",
          "type": "uint256"
        },
        {
          "internalType": "uint256",
          "name": "totalCollateralETH",
          "type": "uint256"
        },
        {
          "internalType": "uint256",
          "name": "totalBorrowsETH",
          "type": "uint256"
        },
        {
          "internalType": "uint256",
          "name": "totalFeesETH",
          "type": "uint256"
        },
        {
          "internalType": "uint256",
          "name": "availableBorrowsETH",
          "type": "uint256"
        },
        {
          "internalType": "uint256",
          "name": "currentLiquidationThreshold",
          "type": "uint256"
        },
        {
          "internalType": "uint256",
          "name": "ltv",
          "type": "uint256"
        },
        {
          "internalType": "uint256",
          "name": "healthFactor",
          "type": "uint256"
        }
      ],
      "stateMutability": "view",
      "type": "function"
    },
    {
      "inputs": [
        {
          "internalType": "address",
          "name": "_reserve",
          "type": "address"
        },
        {
          "internalType": "address",
          "name": "_user",
          "type": "address"
        }
      ],
      "name": "getUserReserveBalance",
      "outputs": [
        {
          "internalType": "uint256",
          "name": "",
          "type": "uint256"
        }
      ],
      "stateMutability": "view",
      "type": "function"
    },
    {
      "inputs": [
        {
          "internalType": "address",
          "name": "_reserve",
          "type": "address"
        },
        {
          "internalType": "address",
          "name": "_user",
          "type": "address"
        }
      ],
      "name": "getUserReserveData",
      "outputs": [
        {
          "internalType": "uint256",
          "name": "currentATokenBalance",
          "type": "uint256"
        },
        {
          "internalType": "uint256",
          "name": "currentBorrowBalance",
          "type": "uint256"
        },
        {
          "internalType": "uint256",
          "name": "principalBorrowBalance",
          "type": "uint256"
        },
        {
          "internalType": "uint256",
          "name": "borrowRateMode",
          "type": "uint256"
        },
        {
          "internalType": "uint256",
          "name": "borrowRate",
          "type": "uint256"
        },
        {
          "internalType": "uint256",
          "name": "liquidityRate",
          "type": "uint256"
        },
        {
          "internalType": "uint256",
          "name": "originationFee",
          "type": "uint256"
        },
        {
          "internalType": "uint256",
          "name": "variableBorrowIndex",
          "type": "uint256"
        },
        {
          "internalType": "uint256",
          "name": "lastUpdateTimestamp",
          "type": "uint256"
        },
        {
          "internalType": "bool",
          "name": "usageAsCollateralEnabled",
          "type": "bool"
        }
      ],
      "stateMutability": "view",
      "type": "function"
    },
    {
      "inputs": [
        {
          "internalType": "contract LendingBoardAddressesProvider",
          "name": "_addressesProvider",
          "type": "address"
        }
      ],
      "name": "initialize",
      "outputs": [],
      "stateMutability": "nonpayable",
      "type": "function"
    },
    {
      "inputs": [
        {
          "internalType": "address",
          "name": "_reserveToLend",
          "type": "address"
        },
        {
          "internalType": "uint256",
          "name": "_amount",
          "type": "uint256"
        },
        {
          "internalType": "address",
          "name": "_reserveForCollateral",
          "type": "address"
        },
        {
          "internalType": "uint256",
          "name": "_interestRate",
          "type": "uint256"
        },
        {
          "internalType": "uint256",
          "name": "_dueDate",
          "type": "uint256"
        }
      ],
      "name": "lendProposal",
      "outputs": [],
      "stateMutability": "nonpayable",
      "type": "function"
    },
    {
      "inputs": [
        {
          "internalType": "uint256",
          "name": "_proposalId",
          "type": "uint256"
        }
      ],
      "name": "lendProposalAccept",
      "outputs": [],
      "stateMutability": "nonpayable",
      "type": "function"
    },
    {
      "inputs": [],
      "name": "lendProposalListCount",
      "outputs": [
        {
          "internalType": "uint256",
          "name": "",
          "type": "uint256"
        }
      ],
      "stateMutability": "view",
      "type": "function"
    },
    {
      "inputs": [
        {
          "internalType": "address",
          "name": "_collateral",
          "type": "address"
        },
        {
          "internalType": "address",
          "name": "_reserve",
          "type": "address"
        },
        {
          "internalType": "address",
          "name": "_user",
          "type": "address"
        },
        {
          "internalType": "uint256",
          "name": "_purchaseAmount",
          "type": "uint256"
        },
        {
          "internalType": "bool",
          "name": "_receiveAToken",
          "type": "bool"
        }
      ],
      "name": "liquidationCall",
      "outputs": [],
      "stateMutability": "payable",
      "type": "function"
    },
    {
      "inputs": [],
      "name": "nft",
      "outputs": [
        {
          "internalType": "contract LendingBoardNFT",
          "name": "",
          "type": "address"
        }
      ],
      "stateMutability": "view",
      "type": "function"
    },
    {
      "inputs": [],
      "name": "parametersProvider",
      "outputs": [
        {
          "internalType": "contract LendingBoardParametersProvider",
          "name": "",
          "type": "address"
        }
      ],
      "stateMutability": "view",
      "type": "function"
    },
    {
      "inputs": [
        {
          "internalType": "address",
          "name": "_reserve",
          "type": "address"
        },
        {
          "internalType": "address payable",
          "name": "_user",
          "type": "address"
        },
        {
          "internalType": "uint256",
          "name": "_amount",
          "type": "uint256"
        },
        {
          "internalType": "uint256",
          "name": "_aTokenBalanceAfterRedeem",
          "type": "uint256"
        }
      ],
      "name": "redeemUnderlying",
      "outputs": [],
      "stateMutability": "nonpayable",
      "type": "function"
    },
    {
      "inputs": [
        {
          "internalType": "address",
          "name": "_reserve",
          "type": "address"
        },
        {
          "internalType": "uint256",
          "name": "_amount",
          "type": "uint256"
        },
        {
          "internalType": "address payable",
          "name": "_onBehalfOf",
          "type": "address"
        }
      ],
      "name": "repay",
      "outputs": [],
      "stateMutability": "payable",
      "type": "function"
    },
    {
      "inputs": [
        {
          "internalType": "address",
          "name": "_reserve",
          "type": "address"
        },
        {
          "internalType": "bool",
          "name": "_useAsCollateral",
          "type": "bool"
        }
      ],
      "name": "setUserUseReserveAsCollateral",
      "outputs": [],
      "stateMutability": "nonpayable",
      "type": "function"
    }
  ],
  "bytecode": "0x6080806040523461002b57600160005560006001556000603c556000603e5561569c9081620000318239f35b600080fdfe60806040526004361015610013575b600080fd5b60003560e01c8062a718a91461026a5780630902f1ac1461026157806328dd2d011461025857806329e6a05f1461024f57806335ea6a75146102465780633815d34c1461023d5780633cedf2df146102345780633e1501411461022b57806347ccca021461022257806348f163ea1461021957806358707e06146102105780635a3b74b9146102075780635ceae9c4146101fe57806379cc211e146101f55780638afaff02146101ec5780638fabf76d146101e35780639895e3d8146101da5780639a91fe9b146101d1578063a429bcaa146101c8578063ab1e8a21146101bf578063b334ed86146101b6578063bf92857c146101ad578063c0c8ab65146101a4578063c1bce0b71461019b578063c4d66de814610192578063c72c4d1014610189578063d0fc81d214610180578063d2d0e06614610177578063de3148621461016e5763f2f4eb261461016657600080fd5b61000e6130ab565b5061000e61308c565b5061000e612dab565b5061000e612d8d565b5061000e612d63565b5061000e612c74565b5061000e612648565b5061000e612558565b5061000e612434565b5061000e61240a565b5061000e612113565b5061000e61204f565b5061000e611b24565b5061000e611a65565b5061000e61144b565b5061000e6113fa565b5061000e6112a6565b5061000e611254565b5061000e610fee565b5061000e610fc4565b5061000e610bca565b5061000e610ba0565b5061000e610a95565b5061000e610a73565b5061000e610971565b5061000e6106fd565b5061000e6106de565b5061000e6105f2565b5061000e6104b9565b5061000e61028e565b6001600160a01b0381160361000e57565b8015150361000e57565b5060a036600319011261000e576004356102a781610273565b6024356102b381610273565b6103b36000806044356102c581610273565b608435946102d286610284565b6102da61343c565b6102e3816153cd565b6102ec876153cd565b603554610309906001600160a01b03165b6001600160a01b031690565b91604051968793632bd7cfb760e11b855284600460209a8b935afa93841561045d575b859461042a575b5060405162a718a960e01b8982019081526001600160a01b039a8b166024830152938a166044820152989091166064808a0191909152356084890152151560a48801528660c481015b0396610390601f1998898101835282613129565b51915af46103a561039f614669565b91614699565b82808251830101910161471a565b906103c4576103c26001600055565b005b610426926103fc9261040261040e9360405195869384016014907302634b8bab4b230ba34b7b7103330b4b632b21d160651b81520190565b90614781565b03908101835282613129565b60405162461bcd60e51b8152918291600483016147b9565b0390fd5b61037c91945061044f90893d8b11610456575b6104478183613129565b81019061314b565b9390610333565b503d61043d565b610465613160565b61032c565b600091031261000e57565b6020908160408183019282815285518094520193019160005b82811061049c575050505090565b83516001600160a01b03168552938101939281019260010161048e565b503461000e576000806003193601126105b257603654604051630240bc6b60e21b815291908190839060049082906001600160a01b03165afa9081156105bd575b8091610513575b6040518061050f8482610475565b0390f35b90503d8082843e6105248184613129565b820160209283818303126105b55780519067ffffffffffffffff82116105b9570181601f820112156105b55780519061055c82614f42565b9361056a6040519586613129565b828552858086019360051b8301019384116105b257508401905b8282106105995750505061050f915038610501565b84809183516105a781610273565b815201910190610584565b80fd5b8280fd5b8380fd5b6105c5613160565b6104fa565b604090600319011261000e576004356105e281610273565b906024356105ef81610273565b90565b503461000e57610601366105ca565b6037546040516328dd2d0160e01b81526001600160a01b039384166004820152918316602483015261014092839183916044918391165afa80156106d1575b6000918283848586918793889589978a99610690575b50604051998a5260208a015260408901526060880152608087015260a086015260c085015260e08401526101008301521515610120820152f35b985050505050505050506106ba9150823d84116106ca575b6106b28183613129565b8101906147ca565b9790969195929492919038610656565b503d6106a8565b6106d9613160565b610640565b503461000e57600036600319011261000e576020603c54604051908152f35b503461000e57602036600319011261000e5760043561071b81610273565b6037546040516335ea6a7560e01b81526001600160a01b0392831660048201526101a0929091839183916024918391165afa80156108a0575b600090819282838485868791889389958a978b998c9b6107e9575b5061050f9b9c9d506040519d8e9d8e9b99979593919d9c9a98969492909d6101a08d019e8d5260208d015260408c015260608b015260808a015260a089015260c088015260e0870152610100860152610120850152610140840152600160a01b600190031661016083015264ffffffffff16906101800152565b9c5050505050505050505050509181813d8311610899575b61080b8183613129565b8101031261089557805190602081015190604081015192606082015191608081015160a082015160c083015160e0840151610100850151916101208601519361014087015195610180610160890151986108648a610273565b01519864ffffffffff8a168a036108915761050f9b9c9d509b9c99909192939495969798998d9c9b61076f565b8d80fd5b5080fd5b503d610801565b6108a8613160565b610754565b60208082019080835283518092528060408094019401926000905b8382106108d757505050505090565b90919293948361014060019288516108f182825115159052565b808401516001600160a01b031682850152808601516001600160a01b031682870152606081810151908301526080808201516001600160a01b03169083015260a0818101519083015260c0808201519083015260e080820151908301526101008082015190830152610120908101519082015201960194939201906108c8565b503461000e57604036600319011261000e57600435602435603c54811015610a1f576109ba6109a86109a38484613e87565b613e02565b6109b56107d08210614eeb565b614f69565b916000905b828111156109d5576040518061050f86826108ad565b80610a146109f0610a1a93600052603b602052604060002090565b93610a036109fd82614cd7565b95614db5565b610a0d8289614fb9565b5286614fb9565b50614cd7565b6109bf565b60405162461bcd60e51b815260206004820152602660248201527f456e6420496e646578206f76657220626f72726f7750726f706f73616c4c69736044820152651d10dbdd5b9d60d21b6064820152608490fd5b503461000e576020610a8d610a87366105ca565b90614819565b604051908152f35b503461000e57602036600319011261000e57600435610ab381610273565b603754604051633e15014160e01b81526001600160a01b039283166004820152610100929091839183916024918391165afa8015610b93575b600090819282838490859286948796610b4e575b50604080519788526020880198909852968601969096526001600160a01b039095166060850152931515608084015292151560a083015291151560c082015290151560e08201526101009150f35b9650505050505050610b7a91508261050f93903d10610b8c575b610b728183613129565b810190614a34565b95978897969591949293929190610b00565b503d610b68565b610b9b613160565b610aec565b503461000e57600036600319011261000e57603a546040516001600160a01b039091168152602090f35b503461000e5760208060031936011261000e57600435610be86148c0565b50600091818352603d815282604092610c02848320614db5565b92610c1260018551151514614e4a565b60018060a01b0393848682015116610100606083015196848401511692015192610c3a61343c565b610c43826153cd565b610c4c8261548d565b610c558761554e565b610c8387610c6b610c663386614819565b613c51565b610c7c81610c77615216565b61559a565b1015615275565b610d04610ce88986610c9f6102fd60365460018060a01b031690565b8251630deb1bf960e21b81526001600160a01b0388166004820152336024820152604481018d9052606481019290925260016084830152909283919082908c90829060a4820190565b03925af1908115610fb7575b8891610f88575b50610c776152f3565b603654610d19906001600160a01b03166102fd565b93843b15610f845787610efa610df5610ec58a8a878f98610f219f610f179f9a610da0859f9c8f938f9e7f8548f4b1ba99a93e6efd62aabdf947babb683e6735271b67e3a3ecc73ed22a369f83865180968195829463fa93b2a560e01b845233906004850160409194939294606082019560018060a01b0380921683521660208201520152565b03925af18015610f77575b610f5e575b5089866005610dc988600052603d602052604060002090565b015493610eaa610e02610dfc6004610deb8c600052603d602052604060002090565b01549d8e87613c7a565b6064900490565b85613e1e565b610e296003610e1b8c600052603d602052604060002090565b01546001600160a01b031690565b9c610e3688421115615342565b603a54610e4b906001600160a01b03166102fd565b96516327b13f6760e21b81526001600160a01b039094166004850152602484019a909a52336044840152606483019490945260848201959095524260a482015260c481019790975260e487019190915285928391908290610104820190565b03925af1928315610f51575b92610f24575b5050151561538e565b8b516001600160a01b0390911681523360208201526040810192909252606082019290925242608082015290819060a0820190565b0390a4610f076001600055565b600052603d602052604060002090565b805460ff19169055565b51f35b610f439250803d10610f4a575b610f3b8183613129565b81019061342d565b3880610ebc565b503d610f31565b610f59613160565b610eb6565b80610f6b610f71926130ec565b8061046a565b38610db0565b610f7f613160565b610dab565b8680fd5b610fa891508a3d8c11610fb0575b610fa08183613129565b810190613bea565b905038610cfb565b503d610f96565b610fbf613160565b610cf4565b503461000e57600036600319011261000e576038546040516001600160a01b039091168152602090f35b503461000e5760408060031936011261000e576004359061100e82610273565b6024359161101b83610284565b61102361343c565b61102c816153cd565b6110358161548d565b60365461104a906001600160a01b03166102fd565b8251630c526de560e11b81526001600160a01b0383166004820152336024820152909390611108906020906110ed90829081816044818c5afa908115611247575b60009161122a575b5061109f81151561457a565b6037546110b4906001600160a01b03166102fd565b88516376e9d61560e01b81526001600160a01b038916600482015233602482015260448101929092529092839190829081906064820190565b03915afa91821561121d575b6000926111f0575b50506145d9565b833b1561000e578251633e94615360e21b81526001600160a01b0383166004820152336024820152811515604482015260009485908290606490829084905af180156111e3575b6111d0575b50831461119857815133916001600160a01b0316907e058a56ea94653cdf4f152d227ace22d4c00ad99e2a43f58cb7d9e3feb295f2908590a35b610f216001600055565b815133916001600160a01b0316907f44c58d81365b66dd4b1a7f36c25aa97b8c71c361ee4937adc1a00000227db5dd908590a361118e565b80610f6b6111dd926130ec565b38611154565b6111eb613160565b61114f565b61120f9250803d10611216575b6112078183613129565b8101906137fe565b3880611101565b503d6111fd565b611225613160565b6110f9565b6112419150823d8411610f4a57610f3b8183613129565b38611093565b61124f613160565b61108b565b50606036600319011261000e5761129f60043561127081610273565b6024356044359161128083610273565b61128861343c565b611291816153cd565b61129a8261554e565b613e9e565b6001600055005b503461000e57602036600319011261000e576004356112c9603c54821115614eaa565b6000818152603b60205260409020805460ff169061050f906112f6905b5460081c6001600160a01b031690565b926113106001610e1b83600052603b602052604060002090565b90600261132782600052603b602052604060002090565b01546113426003610e1b84600052603b602052604060002090565b600461135884600052603b602052604060002090565b015490600561137185600052603b602052604060002090565b01549260086113a2600661138f88600052603b602052604060002090565b015496600052603b602052604060002090565b015495604051998a998a9592919361010097949a999895919a61012088019b1515885260018060a01b03938480921660208a0152166040880152606087015216608085015260a084015260c083015260e08201520152565b503461000e57600036600319011261000e57602060405160038152f35b60a090600319011261000e5760043561142f81610273565b906024359060443561144081610273565b906064359060843590565b503461000e5761145a36611417565b6114669493919461343c565b61146f846153cd565b6114788461548d565b6114818261554e565b6114896148c0565b9461149261378d565b81151580611a5b575b6114a49061492c565b6114af428411614978565b6036546114c4906001600160a01b03166102fd565b60405163288d4ff760e21b81526001600160a01b038816600482015290602082602481845afa918215611a4e575b600092611a2d575b506004868960206115156102fd60355460018060a01b031690565b604051631f94a27560e31b815294859182905afa928315611a20575b6000936119f6575b50604051632e79732b60e11b81526001600160a01b038216600482015292936115d7936115b4926020929091611587908481602481865afa9081156119e9575b6000916119cc575b50613813565b60405163e240301960e01b81526001600160a01b0390921660048301529092839190829081906024820190565b03915afa9081156119bf575b6000916119a0575b508061016087015210156149bb565b6115e13389614819565b60375490919088906115fb906001600160a01b03166102fd565b604051633e15014160e01b81526001600160a01b038c16600482015294908b9061010090879060249082905afa958615611993575b600096611947575b509361176b84611763886117546117307fddda05bca10ccedb67628486050c0637ba56c3b1d4d271f7524748d5e3931c859f9b9961177e996117026118af9f9d8f6116f89c816116ed6116de6116fd946116bb60208e98819c604051808095819463b3596f0760e01b835260048301919091602081019260018060a01b03169052565b03916001600160a01b03165afa90811561193a575b60009161191d575b50613c7a565b6116e784614a99565b90613c8d565b9e8f92610c77614ab5565b613c7a565b613c8d565b60405163b3596f0760e01b81526001600160a01b039092166004830152969092839190829081906024820190565b03916001600160a01b03165afa908115611910575b6000916118f1575b5084613c8d565b958a61175e614b0a565b6155f8565b610c77614b69565b61177782610c77614bb9565b1015614c10565b603954611793906001600160a01b03166102fd565b604051630e563a7d60e41b8152336004820152602481018590529290602090849060449082905afa9283156118e4575b6000936118bc575b5060606117de9101928084521515613a47565b6117eb8251610c77614c82565b60018a523360208b01526001600160a01b03891660408b015260608a018390526001600160a01b03881660808b01528460a08b01528560c08b01524260e08b015281516101008b01526101208a015261186b603c549961185261184d8c614cd7565b603c55565b6118668b600052603b602052604060002090565b614ce7565b51604080519283526001600160a01b039788166020840152820193909352606081019290925260808201929092524260a082015233949093169290819060c0820190565b0390a46103c26001600055565b6117de9193506118dc60609160203d602011610f4a57610f3b8183613129565b9391506117cb565b6118ec613160565b6117c3565b61190a915060203d602011610f4a57610f3b8183613129565b3861174d565b611918613160565b611745565b61193491508b3d8d11610f4a57610f3b8183613129565b386116d8565b611942613160565b6116d0565b8a96509984819394989692959b6101003d6101001161198c575b61196b8183613129565b810161197691614a34565b5050505050505097505099939094969291611638565b503d611961565b61199b613160565b611630565b6119b9915060203d602011610f4a57610f3b8183613129565b386115c8565b6119c7613160565b6115c0565b6119e39150853d8711611216576112078183613129565b38611581565b6119f1613160565b611579565b6115d793506115b491611a17602092833d8511610456576104478183613129565b94509150611539565b611a28613160565b611531565b611a4791925060203d602011610f4a57610f3b8183613129565b90386114fa565b611a56613160565b6114f2565b506064821061149b565b503461000e57608036600319011261000e57611aef600435611a8681610273565b60243590611a9382610273565b611a9b61343c565b611ae260018060a01b0360246020826036541660405192838092631a59df7760e11b825286891660048301525afa908115611b17575b600091611af9575b50163314613492565b6064359160443591613518565b6103c26001600055565b611b11915060203d8111610456576104478183613129565b38611ad9565b611b1f613160565b611ad1565b503461000e577ff8b6062ca08c00ea54f74d7f53f049ed4cb014a7787c62250e6dfa1229d7d460611b5436611417565b9092611b6195929561343c565b611b6a856153cd565b611b738561548d565b611b7c8161554e565b6118af611b876148c0565b96866004611b93614fe3565b9288151580612045575b611ba69061492c565b611bb1428811614978565b6036548690611bc8906001600160a01b03166102fd565b60405163288d4ff760e21b81526001600160a01b0386168582019081529091906020908390819083010381845afa918215612038575b600092612017575b50603554602090611c1f906001600160a01b03166102fd565b604051631f94a27560e31b815296879182905afa94851561200a575b600095611fe3575b50604051632e79732b60e11b81526001600160a01b0387166004820152611cd5918491611c8d9060208180602481015b0381865afa908115611fd6575b600091611fbd5750613813565b60405163e240301960e01b81526001600160a01b038916600482015290602090829060249082905afa908115611fb0575b600091611f91575b50806101608a0152101561506b565b611ce2610c663387614819565b603754909190611cfa906001600160a01b03166102fd565b604051633e15014160e01b81526001600160a01b0386166004820152959061010090879060249082905afa958615611f84575b600096611f3b575b5060405163b3596f0760e01b81526001600160a01b03909716600488015294959394611db394611dac928892611da3926116e791611d9d91899160209082908180602481015b03916001600160a01b03165afa908115611f2e575b600091611f155750613c7a565b91614a99565b8461175e6150e2565b1015615141565b603954611dc8906001600160a01b03166102fd565b604051630e563a7d60e41b8152336004820152602481018790529390602090859060449082905afa938415611f08575b600094611eda575b5090611e176060611e549301948086521515613a47565b611e248451610c776151c5565b60018b523360208c01526001600160a01b038a1660408c015260608b018690526001600160a01b031660808b0152565b8660a08a01528460c08a01524260e08a015281516101008a0152610120890152611ea0603e5498611e8c611e878b614cd7565b603e55565b6118668a600052603d602052604060002090565b5160408051938452602084019690965294820194909452606081019190915242608082015233936001600160a01b031692819060a0820190565b611e54929194506060611efe611e179260203d602011610f4a57610f3b8183613129565b9592935050611e00565b611f10613160565b611df8565b611934915060203d602011610f4a57610f3b8183613129565b611f36613160565b611d90565b611db3959650611dac926116e7611d9d87611d7b6020611f6e611da3976101003d61010011610b8c57610b728183613129565b505050505050509c9b5050505050509250611d35565b611f8c613160565b611d2d565b611faa915060203d602011610f4a57610f3b8183613129565b38611cc6565b611fb8613160565b611cbe565b6119e3915060203d602011611216576112078183613129565b611fde613160565b611c80565b611cd5919550612002849160203d602011610456576104478183613129565b959150611c43565b612012613160565b611c3b565b61203191925060203d602011610f4a57610f3b8183613129565b9038611c06565b612040613160565b611bfe565b5060648910611b9d565b503461000e57604036600319011261000e57600435602435603e548110156120bc576120816109a86109a38484613e87565b916000905b8281111561209c576040518061050f86826108ad565b80610a146109f06120b793600052603d602052604060002090565b612086565b60405162461bcd60e51b815260206004820152602960248201527f456e6420496e64657820657863656564696e67204c656e6450726f706f73616c604482015268131a5cdd10dbdd5b9d60ba1b6064820152608490fd5b503461000e5760208060031936011261000e576004356121316148c0565b50600091818352603b81528260409261214b848320614db5565b9261215b60018551151514614e4a565b60018060a01b039384868201511661010060608301519684840151169201519261218361343c565b61218c826153cd565b6121958261548d565b61219e8761554e565b6121af87610c6b610c663386614819565b612216610ce889866121cb6102fd60365460018060a01b031690565b8251630deb1bf960e21b81526001600160a01b03808916600483015289166024820152604481018d9052606481019290925260016084830152909283919082908c90829060a4820190565b60365461222b906001600160a01b03166102fd565b93843b15610f8457876123cd610df56123958a8a878f98610f219f610f179f9a6122b3859f9c8f938f9e7f8548f4b1ba99a93e6efd62aabdf947babb683e6735271b67e3a3ecc73ed22a369f83879187519687958694859363fa93b2a560e01b85526004850160409194939294606082019560018060a01b0380921683521660208201520152565b03925af180156123fd575b6123ea575b50898660056122dc88600052603b602052604060002090565b015493610eaa6122fe610dfc6004610deb8c600052603b602052604060002090565b6123176003610e1b8c600052603b602052604060002090565b9c61232488421115615342565b603a54612339906001600160a01b03166102fd565b96516327b13f6760e21b8152336004820152602481019b909b526001600160a01b0390931660448b015260648a019490945260848901959095524260a489015260c488015260e487019190915285928391908290610104820190565b8b516001600160a01b0391821681529616602087015260408601919091526060850191909152426080850152339390819060a0820190565b0390a46123da6001600055565b600052603b602052604060002090565b80610f6b6123f7926130ec565b386122c3565b612405613160565b6122be565b503461000e57600036600319011261000e576037546040516001600160a01b039091168152602090f35b503461000e57602036600319011261000e5760043561245281610273565b603754604051632fe4a15f60e21b81526001600160a01b0392831660048201529161010091829184916024918391165afa801561254b575b6000908192828384908592869487966124e4575b5061050f969798506040519889988994919260e0969399989794919961010087019a8752602087015260408601526060850152608084015260a083015260c08201520152565b96975050505050505082813d8311612544575b6125018183613129565b810103126105b257508051602082015160408301516060840151608085015160a086015160c087015160e09097015194968796959490939192919061050f61249e565b503d6124f7565b612553613160565b61248a565b503461000e57602036600319011261000e5760043561257b603e54821115614eaa565b6000818152603d60205260409020805460ff169061050f9061259c906112e6565b926125b66001610e1b83600052603d602052604060002090565b9060026125cd82600052603d602052604060002090565b01546125e86003610e1b84600052603d602052604060002090565b60046125fe84600052603d602052604060002090565b015490600561261785600052603d602052604060002090565b01549260086113a2600661263588600052603d602052604060002090565b015496600052603d602052604060002090565b503461000e57606036600319011261000e57612665600435610273565b60443561267061343c565b61267b6004356153cd565b61268660043561548d565b61269160243561554e565b61269961378d565b603654612938906040906126b5906001600160a01b03166102fd565b8151632e79732b60e11b8152600480356001600160a01b0316908201526126e3906020818060248101611c73565b846002148015612c6a575b6126f79061388b565b6127008561386b565b6101c084019061271086836138e3565b825163e240301960e01b8152600480356001600160a01b03169082015261275c90602081602481865afa908115612c5d575b600091612c3e575b508061016088015260243511156138ef565b6037546128e790612775906001600160a01b03166102fd565b8451632c6d0e9b60e01b81523360048201526020906101009061280690612801906127fd9084816024818a5afa908115612c31575b8d60009182908390849085908697612bec575b509260c09285928796956127dc6101e06127f79a98019a8b9015159052565b60408501528d8401528b83015260e082015201521515613989565b51151590565b1590565b6139d5565b6039546128639061281f906001600160a01b03166102fd565b8851630e563a7d60e41b81523360048201526024803590820152908490829060449082905afa908115612bdf575b600091612bc2575b508060608c01521515613a47565b606089015160e08a0151918a0151838b015189516312737c3360e01b8152600480356001600160a01b031690820152602480359082015260448101939093526064830193909352608482015260a4810191909152918290818060c4810103915afa908115612bb5575b600091612b96575b508060a088015260c08701511015613a9d565b600182516128f48161386b565b6128fd8161386b565b14612a8f575b60608501519151916129148361386b565b60008451809681958294630deb1bf960e21b84526024353360043560048701613c00565b03925af1928315612a82575b6000918294612a5f575b5061012083019384526101a08301918252603654612974906001600160a01b03166102fd565b803b1561000e5760405163fa93b2a560e01b8152600480356001600160a01b031690820152336024808301919091523560448201527fe27fbad0754d6c730a8161378bc066f66fac114445968dcfc26d42a3002960139360609290919060009082908183816064810103925af18015612a52575b612a3f575b505193015193516040805160243581526020810193909352820193909352606081019390935260808301919091524260a083015233916001600160a01b0360043516919060c090a36103c26001600055565b80610f6b612a4c926130ec565b386129ed565b612a5a613160565b6129e8565b909350612a7b915060403d604011610fb057610fa08183613129565b923861294e565b612a8a613160565b612944565b825163710ba6c360e11b8152600480356001600160a01b03169082015233602480830191909152356044820152612adf90602081606481865afa908115612b89575b600091612b6a575b50613b06565b612b39612b2f610df560046020612b006102fd60385460018060a01b031690565b88516335adc96b60e21b815292839182905afa908115612b5d575b600091612b3e575b50610160890151613c7a565b6024351115613b78565b612903565b612b57915060203d602011610f4a57610f3b8183613129565b38612b23565b612b65613160565b612b1b565b612b83915060203d602011611216576112078183613129565b38612ad9565b612b91613160565b612ad1565b612baf915060203d602011610f4a57610f3b8183613129565b386128d4565b612bbd613160565b6128cc565b612bd99150843d8611610f4a57610f3b8183613129565b38612855565b612be7613160565b61284d565b9250505060c094506127f79350612c199150883d8a11612c2a575b612c118183613129565b810190613948565b9995985093955091939092506127bd565b503d612c07565b612c39613160565b6127aa565b612c57915060203d602011610f4a57610f3b8183613129565b3861274a565b612c65613160565b612742565b50600185146126ee565b503461000e57602036600319011261000e57600435612c9281610273565b60ff600254169081159182612d5a575b8015612d4e575b15612cf257612cbc9082612cd15761316d565b612cc257005b6103c260ff1960025416600255565b612ce3600160ff196002541617600255565b612ced6003600155565b61316d565b60405162461bcd60e51b815260206004820152602e60248201527f436f6e747261637420696e7374616e63652068617320616c726561647920626560448201526d195b881a5b9a5d1a585b1a5e995960921b6064820152608490fd5b50600154600311612ca9565b50303b15612ca2565b503461000e57600036600319011261000e576035546040516001600160a01b039091168152602090f35b503461000e57600036600319011261000e5760206040516000198152f35b50606036600319011261000e576004803590612dc682610273565b6024359160443561ffff81160361000e57612ddf61343c565b612de88361554e565b603654612dfd906001600160a01b03166102fd565b60408051631a59df7760e11b81526001600160a01b0384168186019081529095919491929060209081908890819083010381855afa96871561307f575b600097613060575b5085516370a0823160e01b8152338482019081526001600160a01b039889169391908390829081906020010381875afa928315613053575b600093613034575b5050803b1561000e578651632f35bfe960e21b81526001600160a01b038716858201908152336020820152604081018790529215606084015291600091839182908490829060800103925af18015613027575b613014575b50803b1561000e5784516394362e8b60e01b81523383820190815260208101859052909160009183919082908490829060400103925af18015613007575b612ff4575b50603654612f33906001600160a01b03166102fd565b803b1561000e5784516328fcf4d360e01b81526001600160a01b038516928101928352336020840152604083018490526000967fdcbc1c05240f31ff3ad067ef1ee35ce4997762752e3a095284754544f4c709d793612fc793919291899183919082908190606001039134905af18015612fe7575b612fd4575b508551938452426020850152339416929081906040820190565b0390a3610f216001600055565b80610f6b612fe1926130ec565b38612fad565b612fef613160565b612fa8565b80610f6b613001926130ec565b38612f1d565b61300f613160565b612f18565b80610f6b613021926130ec565b38612eda565b61302f613160565b612ed5565b61304b929350803d10610f4a57610f3b8183613129565b903880612e82565b61305b613160565b612e7a565b816130789298503d8911610456576104478183613129565b9538612e42565b613087613160565b612e3a565b503461000e57600036600319011261000e576020603e54604051908152f35b503461000e57600036600319011261000e576036546040516001600160a01b039091168152602090f35b50634e487b7160e01b600052604160045260246000fd5b67ffffffffffffffff811161310057604052565b6131086130d5565b604052565b6060810190811067ffffffffffffffff82111761310057604052565b90601f8019910116810190811067ffffffffffffffff82111761310057604052565b9081602091031261000e57516105ef81610273565b506040513d6000823e3d90fd5b603580546001600160a01b0319166001600160a01b0392909216918217905561335790613199906102fd565b6040518091630774f5f560e21b825281600460209384935afa918215613420575b600092613401575b50603680546001600160a01b0319166001600160a01b0393841617905561323d826004836131fa6102fd60355460018060a01b031690565b6040516352cb335b60e11b815292839182905afa9081156133f4575b6000916133d7575b501660018060a01b03166001600160601b0360a01b6037541617603755565b61329b826004836132586102fd60355460018060a01b031690565b604051639fabe17560e01b815292839182905afa9081156133ca575b6000916133ad575b501660018060a01b03166001600160601b0360a01b6038541617603855565b6132f9826004836132b66102fd60355460018060a01b031690565b604051633efbbf0f60e21b815292839182905afa9081156133a0575b600091613383575b501660018060a01b03166001600160601b0360a01b6039541617603955565b6035546004908290613313906001600160a01b03166102fd565b604051635920a6a160e01b815292839182905afa918215613376575b600092613359575b50501660018060a01b03166001600160601b0360a01b603a541617603a55565b565b61336f9250803d10610456576104478183613129565b3880613337565b61337e613160565b61332f565b61339a9150843d8611610456576104478183613129565b386132da565b6133a8613160565b6132d2565b6133c49150843d8611610456576104478183613129565b3861327c565b6133d2613160565b613274565b6133ee9150843d8611610456576104478183613129565b3861321e565b6133fc613160565b613216565b816134199293503d8411610456576104478183613129565b90386131c2565b613428613160565b6131ba565b9081602091031261000e575190565b60026000541461344d576002600055565b60405162461bcd60e51b815260206004820152601f60248201527f5265656e7472616e637947756172643a207265656e7472616e742063616c6c006044820152606490fd5b1561349957565b60405162461bcd60e51b815260206004820152604b60248201527f5468652063616c6c6572206f6620746869732066756e6374696f6e2063616e2060448201527f6f6e6c79206265207468652061546f6b656e20636f6e7472616374206f66207460648201526a686973207265736572766560a81b608482015260a490fd5b92613522846153cd565b61352b8361554e565b603654613540906001600160a01b03166102fd565b60405163e240301960e01b81526001600160a01b0386166004820152613583908590602081602481875afa9081156136ea575b6000916136cc575b5010156136f7565b803b1561000e5760405163afcdbea360e01b81526001600160a01b0386811660048301528416602482015260448101859052911560648301526000908290608490829084905af180156136bf575b6136ac575b506036546135ec906001600160a01b03166102fd565b803b1561000e5760405163fa93b2a560e01b81526001600160a01b03858116600483015283166024820152604481018490527f9c4ed599cd8555b9c1e8cd7643240d7d71eb76b792948c49fcb4d411f7b6b3c692613687929091906000908290606490829084905af1801561369f575b61368c575b50604080519485524260208601526001600160a01b039182169590911693918291820190565b0390a3565b80610f6b613699926130ec565b38613661565b6136a7613160565b61365c565b80610f6b6136b9926130ec565b386135d6565b6136c7613160565b6135d1565b6136e4915060203d8111610f4a57610f3b8183613129565b3861357b565b6136f2613160565b613573565b156136fe57565b60405162461bcd60e51b8152602060048201526031602482015260008051602061564783398151915260448201527061696c61626c6520746f2072656465656d60781b6064820152608490fd5b60405190610200820182811067ffffffffffffffff82111761310057604052565b60405190610140820182811067ffffffffffffffff82111761310057604052565b61379561374b565b9060008083528060208401528060408401528060608401528060808401528060a08401528060c08401528060e08401528061010084015280610120840152806101408401528061016084015280610180840152806101a0840152806101c08401526101e0830152565b9081602091031261000e57516105ef81610284565b1561381a57565b60405162461bcd60e51b8152602060048201526024808201527f52657365727665206973206e6f7420656e61626c656420666f7220626f72726f60448201526377696e6760e01b6064820152608490fd5b6003111561387557565b634e487b7160e01b600052602160045260246000fd5b1561389257565b60405162461bcd60e51b815260206004820152602360248201527f496e76616c696420696e7465726573742072617465206d6f64652073656c65636044820152621d195960ea1b6064820152608490fd5b60038210156138755752565b156138f657565b60405162461bcd60e51b8152602060048201526036602482015260008051602061564783398151915260448201527561696c61626c6520696e20746865207265736572766560501b6064820152608490fd5b91908261010091031261000e5781519160208101519160408201519160608101519160808201519160a08101519160e060c08301519201516105ef81610284565b1561399057565b60405162461bcd60e51b815260206004820152601b60248201527f54686520636f6c6c61746572616c2062616c616e6365206973203000000000006044820152606490fd5b156139dc57565b60405162461bcd60e51b815260206004820152603f60248201527f54686520626f72726f7765722063616e20616c7265616479206265206c69717560448201527f69646174656420736f2068652063616e6e6f7420626f72726f77206d6f7265006064820152608490fd5b15613a4e57565b60405162461bcd60e51b815260206004820152602160248201527f54686520616d6f756e7420746f20626f72726f7720697320746f6f20736d616c6044820152601b60fa1b6064820152608490fd5b15613aa457565b60405162461bcd60e51b815260206004820152603460248201527f5468657265206973206e6f7420656e6f75676820636f6c6c61746572616c20746044820152736f20636f7665722061206e657720626f72726f7760601b6064820152608490fd5b15613b0d57565b60405162461bcd60e51b815260206004820152603960248201527f557365722063616e6e6f7420626f72726f77207468652073656c65637465642060448201527f616d6f756e742077697468206120737461626c652072617465000000000000006064820152608490fd5b15613b7f57565b60405162461bcd60e51b815260206004820152603c60248201527f5573657220697320747279696e6720746f20626f72726f7720746f6f206d756360448201527f68206c6971756964697479206174206120737461626c652072617465000000006064820152608490fd5b919082604091031261000e576020825192015190565b6001600160a01b039182168152911660208201526040810191909152606081019190915260a0810192919060038210156138755760800152565b50634e487b7160e01b600052601160045260246000fd5b670de0b6b3a7640000908060001904821181151516613c6e570290565b613c76613c3a565b0290565b8060001904821181151516613c6e570290565b8115613c97570490565b634e487b7160e01b600052601260045260246000fd5b60405190610100820182811067ffffffffffffffff821117613cfe575b6040528160e06000918281528260208201528260408201528260608201528260808201528260a08201528260c08201520152565b613d066130d5565b613cca565b9081606091031261000e578051916040602083015192015190565b15613d2d57565b60405162461bcd60e51b815260206004820152602960248201527f546865207573657220646f6573206e6f74206861766520616e7920626f72726f604482015268772070656e64696e6760b81b6064820152608490fd5b15613d8b57565b60a460405162461bcd60e51b815260206004820152604460248201527f546f207265706179206f6e20626568616c66206f6620616e207573657220616e60448201527f206578706c6963697420616d6f756e7420746f207265706179206973206e65656064820152633232b21760e11b6084820152fd5b6001906001198111613e12570190565b613e1a613c3a565b0190565b81198111613e12570190565b15613e3157565b60405162461bcd60e51b815260206004820152602860248201527f496e76616c6964206d73672e76616c75652073656e7420666f72207468652072604482015267195c185e5b595b9d60c21b6064820152608490fd5b818110613e92570390565b613e9a613c3a565b0390565b613ea6613cad565b603654909190613ebe906001600160a01b03166102fd565b60408051639fb8afcd60e01b81526001600160a01b038481166004830152871660248201529491939091606086604481885afa95861561456d575b60009081908298614538575b5083850197885260208085019182529184528451633faacc6b60e21b81526001600160a01b0387811660048301528a1660248201529180836044818b5afa92831561452b575b60009361450c575b5060e0850192835273eeeeeeeeeeeeeeeeeeeeeeeeeeeeeeeeeeeeeeee6001600160a01b03888116918214606088019081529199909691958c9190613f9a86511515613d26565b613fb56000198214938a85159182966144fe575b5050613d84565b613fc28651885190613e1e565b926080850193808552816144f4575b506144ec575b50613fe56127fd8851151590565b80156144e1575b613ff590613e2a565b815186518111156142ea57505061401160a09151865190613e87565b910181815260365490939061402e906001600160a01b03166102fd565b91855192818d51935114813b1561000e5760008f916140968e9183978f51998a988997889663da12d96f60e01b885260048801949196959260a0949160c0870198600180881b0380921688521660208701526040860152606085015260808401521515910152565b03925af180156142dd575b6142ca575b50825190816141b4575b50506036546140d2906140cb906001600160a01b03166102fd565b9351151590565b600090156141ae57506140e6825134613e87565b955b815196843b1561000e5786516328fcf4d360e01b81526001600160a01b0392909216600483015233602483015260448201979097527fb718f0b14f03d8c3adf35b15e3da52421b042ac879e5a689011a8b1e0036773d9661418994600091839160649183915af180156141a1575b61418e575b5051905196519351938493339916974292859094939260609260808301968352602083015260408201520152565b0390a4565b80610f6b61419b926130ec565b3861415b565b6141a9613160565b614156565b956140e8565b6036546141c9906001600160a01b03166102fd565b906141d48651151590565b600090156142c4575082915b60355460049083906141fa906001600160a01b03166102fd565b8b51637744894b60e11b815292839182905afa9283156142b7575b600093614298575b5050803b1561000e57885163c7d1423760e01b81526001600160a01b038b81166004830152336024830152604482019590955291909316606482015291600091839160849183915af1801561428b575b614278575b806140b0565b80610f6b614285926130ec565b38614272565b614293613160565b61426d565b6142af929350803d10610456576104478183613129565b90388061421d565b6142bf613160565b614215565b916141e0565b80610f6b6142d7926130ec565b386140a6565b6142e5613160565b6140a1565b9250929350935089969997949751823b1561000e578a5163da12d96f60e01b81526001600160a01b0387811660048301528d1660248201526000604482018190526064820193909352608481019190915260a4810182905291829060c490829084905af180156144d4575b6144c1575b5060365461437b90614374906001600160a01b03166102fd565b9651151590565b600090156144bc575081515b825160355460049084906143a3906001600160a01b03166102fd565b8c51637744894b60e11b815292839182905afa9384156144af575b600094614490575b5050873b1561000e57895163c7d1423760e01b81526001600160a01b0395861660048201528b8616602482015260448101919091529190931660648201527fb718f0b14f03d8c3adf35b15e3da52421b042ac879e5a689011a8b1e0036773d956141899360009183916084918391905af18015614483575b614470575b50519251955192839233981696429184606091949392608082019560008352602083015260408201520152565b80610f6b61447d926130ec565b38614443565b61448b613160565b61443e565b6144a7929450803d10610456576104478183613129565b9138806143c6565b6144b7613160565b6143be565b614387565b80610f6b6144ce926130ec565b3861435a565b6144dc613160565b614355565b508151341015613fec565b825238613fd7565b9050811038613fd1565b9091501633148f8b90613fae565b816145249294503d8511610f4a57610f3b8183613129565b9138613f53565b614533613160565b613f4b565b91505061455d91965060603d8111614566575b6145558183613129565b810190613d0b565b96919038613f05565b503d61454b565b614575613160565b613ef9565b1561458157565b60405162461bcd60e51b815260206004820152602a60248201527f5573657220646f6573206e6f74206861766520616e79206c69717569646974796044820152690819195c1bdcda5d195960b21b6064820152608490fd5b156145e057565b60405162461bcd60e51b815260206004820152603060248201527f55736572206465706f73697420697320616c7265616479206265696e6720757360448201526f195908185cc818dbdb1b185d195c985b60821b6064820152608490fd5b60209067ffffffffffffffff811161465c575b601f01601f19160190565b6146646130d5565b614651565b3d15614694573d9061467a8261463e565b916146886040519384613129565b82523d6000602084013e565b606090565b156146a057565b60405162461bcd60e51b815260206004820152601760248201527f4c69717569646174696f6e2063616c6c206661696c65640000000000000000006044820152606490fd5b918091926000905b8282106147055750116146fe575050565b6000910152565b915080602091830151818601520182916146ed565b919060408382031261000e5782519260208101519067ffffffffffffffff821161000e570181601f8201121561000e5780516147558161463e565b926147636040519485613129565b8184526020828401011161000e576105ef91602080850191016146e5565b90613e1a602092828151948592016146e5565b906020916147ad815180928185528580860191016146e5565b601f01601f1916010190565b9060206105ef928181520190614794565b91908261014091031261000e5781519160208101519160408201519160608101519160808201519160a08101519160c08201519160e0810151916101206101008301519201516105ef81610284565b6037546040516328dd2d0160e01b81526001600160a01b0392831660048201529282166024840152670de0b6b3a7640000929161014091829184916044918391165afa9182156148b3575b6000918293614889575b505081811061487c57030490565b614884613c3a565b030490565b6148a3935080919250903d106106ca576106b28183613129565b505050505050505090388061486e565b6148bb613160565b614864565b60405190610140820182811067ffffffffffffffff82111761491f575b604052816101206000918281528260208201528260408201528260608201528260808201528260a08201528260c08201528260e0820152826101008201520152565b6149276130d5565b6148dd565b1561493357565b60405162461bcd60e51b815260206004820152601b60248201527f496e76616c696420496e746572657374205261746520496e70757400000000006044820152606490fd5b1561497f57565b60405162461bcd60e51b8152602060048201526014602482015273125b9d985b1a5908111d594811185d194814d95d60621b6044820152606490fd5b156149c257565b60405162461bcd60e51b8152602060048201526050602482015260008051602061564783398151915260448201527f61696c61626c6520696e20746865207265736572766520746f206d616b65206160648201526f08189bdc9c9bddc81c1c9bdc1bdcd85b60821b608482015260a490fd5b91908261010091031261000e578151916020810151916040820151916060810151614a5e81610273565b916080820151614a6d81610284565b9160a0810151614a7c81610284565b9160e060c0830151614a8d81610284565b9201516105ef81610284565b604d8111614aa8575b600a0a90565b614ab0613c3a565b614aa2565b60405190614ac28261310d565b603382527202fb932b9b2b93b32aa37a137b93937bb901d1606d1b6040837f2020203d3e204c42504d203a72657365727665446563696d616c7320666f722060208201520152565b60405190614b178261310d565b603a82527f6f72726f77416d6f756e744554482c20626f72726f774c5456200000000000006040837f2020203d3e204c42504d203a205f616d6f756e742c207265717565737465644260208201520152565b60405190614b768261310d565b602e82526d037bb90283937b837b9b0b6101d160951b6040837f2020203d3e204c42504d203a20455448204e656564656420666f7220426f727260208201520152565b60405190614bc68261310d565b6035825274037b9102137b93937bb90283937b837b9b0b6101d1605d1b6040837f2020203d3e204c42504d203a20436f6c6c61746572616c204e6565646564206660208201520152565b15614c1757565b60405162461bcd60e51b815260206004820152603d60248201527f5468657265206973206e6f7420656e6f75676820636f6c6c61746572616c207460448201527f6f20636f7665722061206e657720626f72726f772070726f706f73616c0000006064820152608490fd5b60405190614c8f8261310d565b60338252720103137b93937bb90383937b837b9b0b6101d1606d1b6040837f2020203d3e204c42504d203a20426f72726f772046656520666f72207468697360208201520152565b6001906000198114613e12570190565b90610120600891614d0d614cfb8251151590565b859060ff801983541691151516179055565b6020810151614d41906001600160a01b03168554610100600160a81b03191660089190911b610100600160a81b0316178555565b60408101516001850180546001600160a01b039283166001600160a01b03199182161790915560608301516002870155608083015160038701805491909316911617905560a0810151600485015560c0810151600585015560e0810151600685015561010081015160078501550151910155565b906008614dc061376c565b92614de78154614dd560ff8216879015159052565b831c6001600160a01b03166020860152565b60018101546001600160a01b031660408501526002810154606085015260038101546001600160a01b03166080850152600481015460a0850152600581015460c0850152600681015460e085015260078101546101008501520154610120830152565b15614e5157565b60405162461bcd60e51b815260206004820152602b60248201527f4f6e6c792041637469766520426f72726f772050726f706f73616c2063616e2060448201526a1899481058d8d95c1d195960aa1b6064820152608490fd5b15614eb157565b60405162461bcd60e51b8152602060048201526012602482015271125b9d985b1a59081c1c9bdc1bdcd85b125960721b6044820152606490fd5b15614ef257565b60405162461bcd60e51b815260206004820152602260248201527f4d6178696d756d203230303020697465726174696f6e207065722072657175656044820152611cdd60f21b6064820152608490fd5b60209067ffffffffffffffff8111614f5c575b60051b0190565b614f646130d5565b614f55565b90614f7382614f42565b614f806040519182613129565b8281528092614f91601f1991614f42565b019060005b828110614fa257505050565b602090614fad6148c0565b82828501015201614f96565b8051821015614fcd5760209160051b010190565b634e487b7160e01b600052603260045260246000fd5b604051906101c0820182811067ffffffffffffffff82111761505e575b604052816101a06000918281528260208201528260408201528260608201528260808201528260a08201528260c08201528260e082015282610100820152826101208201528261014082015282610160820152826101808201520152565b6150666130d5565b615000565b1561507257565b60405162461bcd60e51b815260206004820152604e602482015260008051602061564783398151915260448201527f61696c61626c6520696e20746865207265736572766520746f206d616b65206160648201526d081b195b99081c1c9bdc1bdcd85b60921b608482015260a490fd5b604051906150ef8261310d565b604082527f656e64416d6f756e74496e5765692c20636f6c6c61746572616c4c5456203a206040837f2020203d3e204c42504d203a205f616d6f756e742c207265717565737465644c60208201520152565b1561514857565b60405162461bcd60e51b815260206004820152604960248201527f5468657265206973206e6f7420656e6f7567682062616c616e636520746f206c60448201527f656e6420696e206f7264657220746f20636f7665722061206e6577206c656e64606482015268081c1c9bdc1bdcd85b60ba1b608482015260a490fd5b604051906151d28261310d565b602f82526e032b73210383937b837b9b0b6101d1608d1b6040837f2020203d3e204c42504d203a204c656e642046656520666f722074686973206c60208201520152565b604051906152238261310d565b603d82527f626c6520526573657276652042616c616e636520696e20576569203a200000006040837f2020203d3e204c42504d203a20757365722043757272656e7420417661696c6160208201520152565b1561527c57565b60a460405162461bcd60e51b815260206004820152604460248201527f4c656e64657220646f65736e2774206861766520656e6f75676820526573657260448201527f76652042616c616e636520746f2041636365707420426f72726f772050726f706064820152631bdcd85b60e21b6084820152fd5b604051906153008261310d565b602d82526c01024b731b932b0b9b2b2101d1609d1b6040837f2020203d3e204c42504d203a205573657220426f72726f772042616c616e636560208201520152565b1561534957565b60405162461bcd60e51b815260206004820152601960248201527f5b215d204c6f616e3a204c6f616e2069732065787069726564000000000000006044820152606490fd5b1561539557565b60405162461bcd60e51b815260206004820152601060248201526f11985a5b081d1bc81b5a5b9d0813919560821b6044820152606490fd5b603654604051630283aeb760e11b81526001600160a01b0392831660048201529160209183916024918391165afa908115615480575b600091615462575b501561541357565b60405162461bcd60e51b815260206004820152602160248201527f416374696f6e20726571756972657320616e20616374697665207265736572766044820152606560f81b6064820152608490fd5b61547a915060203d8111611216576112078183613129565b3861540b565b615488613160565b615403565b603654604051634a08accb60e01b81526001600160a01b0392831660048201529160209183916024918391165afa908115615541575b600091615523575b506154d257565b60405162461bcd60e51b8152602060048201526024808201527f416374696f6e20726571756972657320616e20756e667265657a6564207265736044820152636572766560e01b6064820152608490fd5b61553b915060203d8111611216576112078183613129565b386154cb565b615549613160565b6154c3565b1561555557565b60405162461bcd60e51b815260206004820152601d60248201527f416d6f756e74206d7573742062652067726561746572207468616e20300000006044820152606490fd5b6155dd6155c99161335793604051938492632d839cb360e21b6020850152604060248501526064840190614794565b90604483015203601f198101835282613129565b600080916020815191016a636f6e736f6c652e6c6f675afa50565b6155dd91613357946156289460405195869463a7a8785360e01b60208701526080602487015260a4860190614794565b9260448501526064840152608483015203601f19810183528261312956fe5468657265206973206e6f7420656e6f756768206c6971756964697479206176a26469706673582212208b14835ab0f1ce1f8f1b50d9e17820ead3c49dfe67fd44db7b0ba18be5cbb52364736f6c634300080d0033",
  "linkReferences": {},
  "deployedLinkReferences": {}
}