{
  "_format": "hh-sol-artifact-1",
  "contractName": "LendingBoardProposeModeTemporal",
  "sourceName": "contracts/lendingboard/LendingBoardProposeModeTemporal.sol",
  "abi": [
    {
      "anonymous": false,
      "inputs": [
        {
          "indexed": true,
          "internalType": "address",
          "name": "_reserve",
          "type": "address"
        },
        {
          "indexed": true,
          "internalType": "address",
          "name": "_user",
          "type": "address"
        },
        {
          "indexed": false,
          "internalType": "uint256",
          "name": "_amount",
          "type": "uint256"
        },
        {
          "indexed": false,
          "internalType": "uint256",
          "name": "_borrowRateMode",
          "type": "uint256"
        },
        {
          "indexed": false,
          "internalType": "uint256",
          "name": "_borrowRate",
          "type": "uint256"
        },
        {
          "indexed": false,
          "internalType": "uint256",
          "name": "_originationFee",
          "type": "uint256"
        },
        {
          "indexed": false,
          "internalType": "uint256",
          "name": "_borrowBalanceIncrease",
          "type": "uint256"
        },
        {
          "indexed": false,
          "internalType": "uint256",
          "name": "_timestamp",
          "type": "uint256"
        }
      ],
      "name": "Borrow",
      "type": "event"
    },
    {
      "anonymous": false,
      "inputs": [
        {
          "indexed": true,
          "internalType": "address",
          "name": "_reserveToLend",
          "type": "address"
        },
        {
          "indexed": true,
          "internalType": "address",
          "name": "_lender",
          "type": "address"
        },
        {
          "indexed": false,
          "internalType": "address",
          "name": "_borrower",
          "type": "address"
        },
        {
          "indexed": true,
          "internalType": "uint256",
          "name": "_proposalId",
          "type": "uint256"
        },
        {
          "indexed": false,
          "internalType": "uint256",
          "name": "_amount",
          "type": "uint256"
        },
        {
          "indexed": false,
          "internalType": "uint256",
          "name": "_originationFee",
          "type": "uint256"
        },
        {
          "indexed": false,
          "internalType": "uint256",
          "name": "_timestamp",
          "type": "uint256"
        }
      ],
      "name": "BorrowAccepted",
      "type": "event"
    },
    {
      "anonymous": false,
      "inputs": [
        {
          "indexed": true,
          "internalType": "address",
          "name": "_reserveToBorrow",
          "type": "address"
        },
        {
          "indexed": true,
          "internalType": "address",
          "name": "_borrowProposer",
          "type": "address"
        },
        {
          "indexed": true,
          "internalType": "uint256",
          "name": "_proposalId",
          "type": "uint256"
        },
        {
          "indexed": false,
          "internalType": "uint256",
          "name": "_amount",
          "type": "uint256"
        },
        {
          "indexed": false,
          "internalType": "address",
          "name": "_reserveForCollateral",
          "type": "address"
        },
        {
          "indexed": false,
          "internalType": "uint256",
          "name": "_interestRate",
          "type": "uint256"
        },
        {
          "indexed": false,
          "internalType": "uint256",
          "name": "_originationFee",
          "type": "uint256"
        },
        {
          "indexed": false,
          "internalType": "uint256",
          "name": "_dueDate",
          "type": "uint256"
        },
        {
          "indexed": false,
          "internalType": "uint256",
          "name": "_timestamp",
          "type": "uint256"
        }
      ],
      "name": "BorrowProposed",
      "type": "event"
    },
    {
      "anonymous": false,
      "inputs": [
        {
          "indexed": true,
          "internalType": "address",
          "name": "_reserve",
          "type": "address"
        },
        {
          "indexed": true,
          "internalType": "address",
          "name": "_user",
          "type": "address"
        },
        {
          "indexed": false,
          "internalType": "uint256",
          "name": "_amount",
          "type": "uint256"
        },
        {
          "indexed": false,
          "internalType": "uint256",
          "name": "_timestamp",
          "type": "uint256"
        }
      ],
      "name": "Deposit",
      "type": "event"
    },
    {
      "anonymous": false,
      "inputs": [
        {
          "indexed": true,
          "internalType": "address",
          "name": "_reserveToLend",
          "type": "address"
        },
        {
          "indexed": true,
          "internalType": "address",
          "name": "_lender",
          "type": "address"
        },
        {
          "indexed": false,
          "internalType": "address",
          "name": "_borrower",
          "type": "address"
        },
        {
          "indexed": true,
          "internalType": "uint256",
          "name": "_proposalId",
          "type": "uint256"
        },
        {
          "indexed": false,
          "internalType": "uint256",
          "name": "_amount",
          "type": "uint256"
        },
        {
          "indexed": false,
          "internalType": "uint256",
          "name": "_originationFee",
          "type": "uint256"
        },
        {
          "indexed": false,
          "internalType": "uint256",
          "name": "_timestamp",
          "type": "uint256"
        }
      ],
      "name": "LendAccepted",
      "type": "event"
    },
    {
      "anonymous": false,
      "inputs": [
        {
          "indexed": true,
          "internalType": "address",
          "name": "_reserveToLend",
          "type": "address"
        },
        {
          "indexed": true,
          "internalType": "address",
          "name": "_lendProposer",
          "type": "address"
        },
        {
          "indexed": true,
          "internalType": "uint256",
          "name": "_proposalId",
          "type": "uint256"
        },
        {
          "indexed": false,
          "internalType": "uint256",
          "name": "_amount",
          "type": "uint256"
        },
        {
          "indexed": false,
          "internalType": "uint256",
          "name": "_interestRate",
          "type": "uint256"
        },
        {
          "indexed": false,
          "internalType": "uint256",
          "name": "_originationFee",
          "type": "uint256"
        },
        {
          "indexed": false,
          "internalType": "uint256",
          "name": "_dueDate",
          "type": "uint256"
        },
        {
          "indexed": false,
          "internalType": "uint256",
          "name": "_proposalTimeStamp",
          "type": "uint256"
        }
      ],
      "name": "LendProposed",
      "type": "event"
    },
    {
      "anonymous": false,
      "inputs": [
        {
          "indexed": true,
          "internalType": "address",
          "name": "_collateral",
          "type": "address"
        },
        {
          "indexed": true,
          "internalType": "address",
          "name": "_reserve",
          "type": "address"
        },
        {
          "indexed": true,
          "internalType": "address",
          "name": "_user",
          "type": "address"
        },
        {
          "indexed": false,
          "internalType": "uint256",
          "name": "_purchaseAmount",
          "type": "uint256"
        },
        {
          "indexed": false,
          "internalType": "uint256",
          "name": "_liquidatedCollateralAmount",
          "type": "uint256"
        },
        {
          "indexed": false,
          "internalType": "uint256",
          "name": "_accruedBorrowInterest",
          "type": "uint256"
        },
        {
          "indexed": false,
          "internalType": "address",
          "name": "_liquidator",
          "type": "address"
        },
        {
          "indexed": false,
          "internalType": "bool",
          "name": "_receiveAToken",
          "type": "bool"
        },
        {
          "indexed": false,
          "internalType": "uint256",
          "name": "_timestamp",
          "type": "uint256"
        }
      ],
      "name": "LiquidationCall",
      "type": "event"
    },
    {
      "anonymous": false,
      "inputs": [
        {
          "indexed": true,
          "internalType": "address",
          "name": "_collateral",
          "type": "address"
        },
        {
          "indexed": true,
          "internalType": "address",
          "name": "_reserve",
          "type": "address"
        },
        {
          "indexed": true,
          "internalType": "address",
          "name": "_user",
          "type": "address"
        },
        {
          "indexed": false,
          "internalType": "uint256",
          "name": "_feeLiquidated",
          "type": "uint256"
        },
        {
          "indexed": false,
          "internalType": "uint256",
          "name": "_liquidatedCollateralForFee",
          "type": "uint256"
        },
        {
          "indexed": false,
          "internalType": "uint256",
          "name": "_timestamp",
          "type": "uint256"
        }
      ],
      "name": "OriginationFeeLiquidated",
      "type": "event"
    },
    {
      "anonymous": false,
      "inputs": [
        {
          "indexed": true,
          "internalType": "address",
          "name": "_reserveToReceive",
          "type": "address"
        },
        {
          "indexed": true,
          "internalType": "address",
          "name": "_lender",
          "type": "address"
        },
        {
          "indexed": false,
          "internalType": "address",
          "name": "_reserveForCollateral",
          "type": "address"
        },
        {
          "indexed": false,
          "internalType": "address",
          "name": "_borrower",
          "type": "address"
        },
        {
          "indexed": true,
          "internalType": "uint256",
          "name": "_proposalId",
          "type": "uint256"
        },
        {
          "indexed": false,
          "internalType": "uint256",
          "name": "_amount",
          "type": "uint256"
        },
        {
          "indexed": false,
          "internalType": "uint256",
          "name": "_originationFee",
          "type": "uint256"
        },
        {
          "indexed": false,
          "internalType": "uint256",
          "name": "_timestamp",
          "type": "uint256"
        }
      ],
      "name": "ProposalAccepted",
      "type": "event"
    },
    {
      "anonymous": false,
      "inputs": [
        {
          "indexed": true,
          "internalType": "address",
          "name": "_reserve",
          "type": "address"
        },
        {
          "indexed": true,
          "internalType": "address",
          "name": "_user",
          "type": "address"
        },
        {
          "indexed": false,
          "internalType": "uint256",
          "name": "_amount",
          "type": "uint256"
        },
        {
          "indexed": false,
          "internalType": "uint256",
          "name": "_timestamp",
          "type": "uint256"
        }
      ],
      "name": "RedeemUnderlying",
      "type": "event"
    },
    {
      "anonymous": false,
      "inputs": [
        {
          "indexed": true,
          "internalType": "address",
          "name": "_reserve",
          "type": "address"
        },
        {
          "indexed": true,
          "internalType": "address",
          "name": "_user",
          "type": "address"
        },
        {
          "indexed": true,
          "internalType": "address",
          "name": "_repayer",
          "type": "address"
        },
        {
          "indexed": false,
          "internalType": "uint256",
          "name": "_amountMinusFees",
          "type": "uint256"
        },
        {
          "indexed": false,
          "internalType": "uint256",
          "name": "_fees",
          "type": "uint256"
        },
        {
          "indexed": false,
          "internalType": "uint256",
          "name": "_borrowBalanceIncrease",
          "type": "uint256"
        },
        {
          "indexed": false,
          "internalType": "uint256",
          "name": "_timestamp",
          "type": "uint256"
        }
      ],
      "name": "Repay",
      "type": "event"
    },
    {
      "anonymous": false,
      "inputs": [
        {
          "indexed": true,
          "internalType": "address",
          "name": "_reserve",
          "type": "address"
        },
        {
          "indexed": true,
          "internalType": "address",
          "name": "_user",
          "type": "address"
        }
      ],
      "name": "ReserveUsedAsCollateralDisabled",
      "type": "event"
    },
    {
      "anonymous": false,
      "inputs": [
        {
          "indexed": true,
          "internalType": "address",
          "name": "_reserve",
          "type": "address"
        },
        {
          "indexed": true,
          "internalType": "address",
          "name": "_user",
          "type": "address"
        }
      ],
      "name": "ReserveUsedAsCollateralEnabled",
      "type": "event"
    },
    {
      "inputs": [],
      "name": "LENDINGPOOL_REVISION",
      "outputs": [
        {
          "internalType": "uint256",
          "name": "",
          "type": "uint256"
        }
      ],
      "stateMutability": "view",
      "type": "function"
    },
    {
      "inputs": [],
      "name": "UINT_MAX_VALUE",
      "outputs": [
        {
          "internalType": "uint256",
          "name": "",
          "type": "uint256"
        }
      ],
      "stateMutability": "view",
      "type": "function"
    },
    {
      "inputs": [],
      "name": "addressesProvider",
      "outputs": [
        {
          "internalType": "contract LendingBoardAddressesProvider",
          "name": "",
          "type": "address"
        }
      ],
      "stateMutability": "view",
      "type": "function"
    },
    {
      "inputs": [
        {
          "internalType": "address",
          "name": "_reserve",
          "type": "address"
        },
        {
          "internalType": "uint256",
          "name": "_amount",
          "type": "uint256"
        },
        {
          "internalType": "uint256",
          "name": "_interestRateMode",
          "type": "uint256"
        }
      ],
      "name": "borrow",
      "outputs": [],
      "stateMutability": "nonpayable",
      "type": "function"
    },
    {
      "inputs": [
        {
          "internalType": "address",
          "name": "_reserveToBorrow",
          "type": "address"
        },
        {
          "internalType": "uint256",
          "name": "_amount",
          "type": "uint256"
        },
        {
          "internalType": "address",
          "name": "_reserveForCollateral",
          "type": "address"
        },
        {
          "internalType": "uint256",
          "name": "_interestRate",
          "type": "uint256"
        },
        {
          "internalType": "uint256",
          "name": "_dueDate",
          "type": "uint256"
        }
      ],
      "name": "borrowProposal",
      "outputs": [],
      "stateMutability": "nonpayable",
      "type": "function"
    },
    {
      "inputs": [
        {
          "internalType": "uint256",
          "name": "_proposalId",
          "type": "uint256"
        }
      ],
      "name": "borrowProposalAccept",
      "outputs": [],
      "stateMutability": "nonpayable",
      "type": "function"
    },
    {
      "inputs": [],
      "name": "borrowProposalListCount",
      "outputs": [
        {
          "internalType": "uint256",
          "name": "",
          "type": "uint256"
        }
      ],
      "stateMutability": "view",
      "type": "function"
    },
    {
      "inputs": [],
      "name": "core",
      "outputs": [
        {
          "internalType": "contract LendingBoardCore",
          "name": "",
          "type": "address"
        }
      ],
      "stateMutability": "view",
      "type": "function"
    },
    {
      "inputs": [],
      "name": "dataProvider",
      "outputs": [
        {
          "internalType": "contract LendingBoardDataProvider",
          "name": "",
          "type": "address"
        }
      ],
      "stateMutability": "view",
      "type": "function"
    },
    {
      "inputs": [
        {
          "internalType": "address",
          "name": "_reserve",
          "type": "address"
        },
        {
          "internalType": "uint256",
          "name": "_amount",
          "type": "uint256"
        },
        {
          "internalType": "uint16",
          "name": "_referralCode",
          "type": "uint16"
        }
      ],
      "name": "deposit",
      "outputs": [],
      "stateMutability": "payable",
      "type": "function"
    },
    {
      "inputs": [
        {
          "internalType": "uint256",
          "name": "proposalId",
          "type": "uint256"
        }
      ],
      "name": "getBorrowProposal",
      "outputs": [
        {
          "internalType": "bool",
          "name": "active",
          "type": "bool"
        },
        {
          "internalType": "address",
          "name": "borrower",
          "type": "address"
        },
        {
          "internalType": "address",
          "name": "reserveToBorrow",
          "type": "address"
        },
        {
          "internalType": "uint256",
          "name": "amount",
          "type": "uint256"
        },
        {
          "internalType": "address",
          "name": "reserveForCollateral",
          "type": "address"
        },
        {
          "internalType": "uint256",
          "name": "interestRate",
          "type": "uint256"
        },
        {
          "internalType": "uint256",
          "name": "dueDate",
          "type": "uint256"
        },
        {
          "internalType": "uint256",
          "name": "proposalDate",
          "type": "uint256"
        },
        {
          "internalType": "uint256",
          "name": "ltv",
          "type": "uint256"
        }
      ],
      "stateMutability": "view",
      "type": "function"
    },
    {
      "inputs": [
        {
          "internalType": "uint256",
          "name": "startIdx",
          "type": "uint256"
        },
        {
          "internalType": "uint256",
          "name": "endIdx",
          "type": "uint256"
        }
      ],
      "name": "getBorrowProposalList",
      "outputs": [
        {
          "components": [
            {
              "internalType": "bool",
              "name": "active",
              "type": "bool"
            },
            {
              "internalType": "address",
              "name": "proposer",
              "type": "address"
            },
            {
              "internalType": "address",
              "name": "reserveToReceive",
              "type": "address"
            },
            {
              "internalType": "uint256",
              "name": "amount",
              "type": "uint256"
            },
            {
              "internalType": "address",
              "name": "reserveForCollateral",
              "type": "address"
            },
            {
              "internalType": "uint256",
              "name": "interestRate",
              "type": "uint256"
            },
            {
              "internalType": "uint256",
              "name": "dueDate",
              "type": "uint256"
            },
            {
              "internalType": "uint256",
              "name": "proposalDate",
              "type": "uint256"
            },
            {
              "internalType": "uint256",
              "name": "serviceFee",
              "type": "uint256"
            },
            {
              "internalType": "uint256",
              "name": "ltv",
              "type": "uint256"
            }
          ],
          "internalType": "struct LendingBoardProposeModeTemporal.ProposalStructure[]",
          "name": "result",
          "type": "tuple[]"
        }
      ],
      "stateMutability": "view",
      "type": "function"
    },
    {
      "inputs": [
        {
          "internalType": "uint256",
          "name": "proposalId",
          "type": "uint256"
        }
      ],
      "name": "getLendProposal",
      "outputs": [
        {
          "internalType": "bool",
          "name": "active",
          "type": "bool"
        },
        {
          "internalType": "address",
          "name": "lender",
          "type": "address"
        },
        {
          "internalType": "address",
          "name": "reserveToLend",
          "type": "address"
        },
        {
          "internalType": "uint256",
          "name": "amount",
          "type": "uint256"
        },
        {
          "internalType": "address",
          "name": "reserveForCollateral",
          "type": "address"
        },
        {
          "internalType": "uint256",
          "name": "interestRate",
          "type": "uint256"
        },
        {
          "internalType": "uint256",
          "name": "dueDate",
          "type": "uint256"
        },
        {
          "internalType": "uint256",
          "name": "proposalDate",
          "type": "uint256"
        },
        {
          "internalType": "uint256",
          "name": "ltv",
          "type": "uint256"
        }
      ],
      "stateMutability": "view",
      "type": "function"
    },
    {
      "inputs": [
        {
          "internalType": "uint256",
          "name": "startIdx",
          "type": "uint256"
        },
        {
          "internalType": "uint256",
          "name": "endIdx",
          "type": "uint256"
        }
      ],
      "name": "getLendProposalList",
      "outputs": [
        {
          "components": [
            {
              "internalType": "bool",
              "name": "active",
              "type": "bool"
            },
            {
              "internalType": "address",
              "name": "proposer",
              "type": "address"
            },
            {
              "internalType": "address",
              "name": "reserveToReceive",
              "type": "address"
            },
            {
              "internalType": "uint256",
              "name": "amount",
              "type": "uint256"
            },
            {
              "internalType": "address",
              "name": "reserveForCollateral",
              "type": "address"
            },
            {
              "internalType": "uint256",
              "name": "interestRate",
              "type": "uint256"
            },
            {
              "internalType": "uint256",
              "name": "dueDate",
              "type": "uint256"
            },
            {
              "internalType": "uint256",
              "name": "proposalDate",
              "type": "uint256"
            },
            {
              "internalType": "uint256",
              "name": "serviceFee",
              "type": "uint256"
            },
            {
              "internalType": "uint256",
              "name": "ltv",
              "type": "uint256"
            }
          ],
          "internalType": "struct LendingBoardProposeModeTemporal.ProposalStructure[]",
          "name": "result",
          "type": "tuple[]"
        }
      ],
      "stateMutability": "view",
      "type": "function"
    },
    {
      "inputs": [
        {
          "internalType": "address",
          "name": "_reserve",
          "type": "address"
        }
      ],
      "name": "getReserveConfigurationData",
      "outputs": [
        {
          "internalType": "uint256",
          "name": "ltv",
          "type": "uint256"
        },
        {
          "internalType": "uint256",
          "name": "liquidationThreshold",
          "type": "uint256"
        },
        {
          "internalType": "uint256",
          "name": "liquidationBonus",
          "type": "uint256"
        },
        {
          "internalType": "address",
          "name": "interestRateStrategyAddress",
          "type": "address"
        },
        {
          "internalType": "bool",
          "name": "usageAsCollateralEnabled",
          "type": "bool"
        },
        {
          "internalType": "bool",
          "name": "borrowingEnabled",
          "type": "bool"
        },
        {
          "internalType": "bool",
          "name": "stableBorrowRateEnabled",
          "type": "bool"
        },
        {
          "internalType": "bool",
          "name": "isActive",
          "type": "bool"
        }
      ],
      "stateMutability": "view",
      "type": "function"
    },
    {
      "inputs": [
        {
          "internalType": "address",
          "name": "_reserve",
          "type": "address"
        }
      ],
      "name": "getReserveData",
      "outputs": [
        {
          "internalType": "uint256",
          "name": "totalLiquidity",
          "type": "uint256"
        },
        {
          "internalType": "uint256",
          "name": "availableLiquidity",
          "type": "uint256"
        },
        {
          "internalType": "uint256",
          "name": "totalBorrowsStable",
          "type": "uint256"
        },
        {
          "internalType": "uint256",
          "name": "totalBorrowsVariable",
          "type": "uint256"
        },
        {
          "internalType": "uint256",
          "name": "liquidityRate",
          "type": "uint256"
        },
        {
          "internalType": "uint256",
          "name": "variableBorrowRate",
          "type": "uint256"
        },
        {
          "internalType": "uint256",
          "name": "stableBorrowRate",
          "type": "uint256"
        },
        {
          "internalType": "uint256",
          "name": "averageStableBorrowRate",
          "type": "uint256"
        },
        {
          "internalType": "uint256",
          "name": "utilizationRate",
          "type": "uint256"
        },
        {
          "internalType": "uint256",
          "name": "liquidityIndex",
          "type": "uint256"
        },
        {
          "internalType": "uint256",
          "name": "variableBorrowIndex",
          "type": "uint256"
        },
        {
          "internalType": "address",
          "name": "aTokenAddress",
          "type": "address"
        },
        {
          "internalType": "uint40",
          "name": "lastUpdateTimestamp",
          "type": "uint40"
        }
      ],
      "stateMutability": "view",
      "type": "function"
    },
    {
      "inputs": [],
      "name": "getReserves",
      "outputs": [
        {
          "internalType": "address[]",
          "name": "",
          "type": "address[]"
        }
      ],
      "stateMutability": "view",
      "type": "function"
    },
    {
      "inputs": [
        {
          "internalType": "address",
          "name": "_user",
          "type": "address"
        }
      ],
      "name": "getUserAccountData",
      "outputs": [
        {
          "internalType": "uint256",
          "name": "totalLiquidityETH",
          "type": "uint256"
        },
        {
          "internalType": "uint256",
          "name": "totalCollateralETH",
          "type": "uint256"
        },
        {
          "internalType": "uint256",
          "name": "totalBorrowsETH",
          "type": "uint256"
        },
        {
          "internalType": "uint256",
          "name": "totalFeesETH",
          "type": "uint256"
        },
        {
          "internalType": "uint256",
          "name": "availableBorrowsETH",
          "type": "uint256"
        },
        {
          "internalType": "uint256",
          "name": "currentLiquidationThreshold",
          "type": "uint256"
        },
        {
          "internalType": "uint256",
          "name": "ltv",
          "type": "uint256"
        },
        {
          "internalType": "uint256",
          "name": "healthFactor",
          "type": "uint256"
        }
      ],
      "stateMutability": "view",
      "type": "function"
    },
    {
      "inputs": [
        {
          "internalType": "address",
          "name": "_reserve",
          "type": "address"
        },
        {
          "internalType": "address",
          "name": "_user",
          "type": "address"
        }
      ],
      "name": "getUserReserveBalance",
      "outputs": [
        {
          "internalType": "uint256",
          "name": "",
          "type": "uint256"
        }
      ],
      "stateMutability": "view",
      "type": "function"
    },
    {
      "inputs": [
        {
          "internalType": "address",
          "name": "_reserve",
          "type": "address"
        },
        {
          "internalType": "address",
          "name": "_user",
          "type": "address"
        }
      ],
      "name": "getUserReserveData",
      "outputs": [
        {
          "internalType": "uint256",
          "name": "currentATokenBalance",
          "type": "uint256"
        },
        {
          "internalType": "uint256",
          "name": "currentBorrowBalance",
          "type": "uint256"
        },
        {
          "internalType": "uint256",
          "name": "principalBorrowBalance",
          "type": "uint256"
        },
        {
          "internalType": "uint256",
          "name": "borrowRateMode",
          "type": "uint256"
        },
        {
          "internalType": "uint256",
          "name": "borrowRate",
          "type": "uint256"
        },
        {
          "internalType": "uint256",
          "name": "liquidityRate",
          "type": "uint256"
        },
        {
          "internalType": "uint256",
          "name": "originationFee",
          "type": "uint256"
        },
        {
          "internalType": "uint256",
          "name": "variableBorrowIndex",
          "type": "uint256"
        },
        {
          "internalType": "uint256",
          "name": "lastUpdateTimestamp",
          "type": "uint256"
        },
        {
          "internalType": "bool",
          "name": "usageAsCollateralEnabled",
          "type": "bool"
        }
      ],
      "stateMutability": "view",
      "type": "function"
    },
    {
      "inputs": [
        {
          "internalType": "contract LendingBoardAddressesProvider",
          "name": "_addressesProvider",
          "type": "address"
        }
      ],
      "name": "initialize",
      "outputs": [],
      "stateMutability": "nonpayable",
      "type": "function"
    },
    {
      "inputs": [
        {
          "internalType": "address",
          "name": "_reserveToLend",
          "type": "address"
        },
        {
          "internalType": "uint256",
          "name": "_amount",
          "type": "uint256"
        },
        {
          "internalType": "address",
          "name": "_reserveForCollateral",
          "type": "address"
        },
        {
          "internalType": "uint256",
          "name": "_interestRate",
          "type": "uint256"
        },
        {
          "internalType": "uint256",
          "name": "_dueDate",
          "type": "uint256"
        }
      ],
      "name": "lendProposal",
      "outputs": [],
      "stateMutability": "nonpayable",
      "type": "function"
    },
    {
      "inputs": [
        {
          "internalType": "uint256",
          "name": "_proposalId",
          "type": "uint256"
        }
      ],
      "name": "lendProposalAccept",
      "outputs": [],
      "stateMutability": "nonpayable",
      "type": "function"
    },
    {
      "inputs": [],
      "name": "lendProposalListCount",
      "outputs": [
        {
          "internalType": "uint256",
          "name": "",
          "type": "uint256"
        }
      ],
      "stateMutability": "view",
      "type": "function"
    },
    {
      "inputs": [
        {
          "internalType": "address",
          "name": "_collateral",
          "type": "address"
        },
        {
          "internalType": "address",
          "name": "_reserve",
          "type": "address"
        },
        {
          "internalType": "address",
          "name": "_user",
          "type": "address"
        },
        {
          "internalType": "uint256",
          "name": "_purchaseAmount",
          "type": "uint256"
        },
        {
          "internalType": "bool",
          "name": "_receiveAToken",
          "type": "bool"
        }
      ],
      "name": "liquidationCall",
      "outputs": [],
      "stateMutability": "payable",
      "type": "function"
    },
    {
      "inputs": [],
      "name": "nft",
      "outputs": [
        {
          "internalType": "contract LendingBoardNFT",
          "name": "",
          "type": "address"
        }
      ],
      "stateMutability": "view",
      "type": "function"
    },
    {
      "inputs": [],
      "name": "parametersProvider",
      "outputs": [
        {
          "internalType": "contract LendingBoardParametersProvider",
          "name": "",
          "type": "address"
        }
      ],
      "stateMutability": "view",
      "type": "function"
    },
    {
      "inputs": [
        {
          "internalType": "address",
          "name": "_reserve",
          "type": "address"
        },
        {
          "internalType": "address payable",
          "name": "_user",
          "type": "address"
        },
        {
          "internalType": "uint256",
          "name": "_amount",
          "type": "uint256"
        },
        {
          "internalType": "uint256",
          "name": "_aTokenBalanceAfterRedeem",
          "type": "uint256"
        }
      ],
      "name": "redeemUnderlying",
      "outputs": [],
      "stateMutability": "nonpayable",
      "type": "function"
    },
    {
      "inputs": [
        {
          "internalType": "address",
          "name": "_reserve",
          "type": "address"
        },
        {
          "internalType": "uint256",
          "name": "_amount",
          "type": "uint256"
        },
        {
          "internalType": "address payable",
          "name": "_onBehalfOf",
          "type": "address"
        }
      ],
      "name": "repay",
      "outputs": [],
      "stateMutability": "payable",
      "type": "function"
    },
    {
      "inputs": [
        {
          "internalType": "address",
          "name": "_reserve",
          "type": "address"
        },
        {
          "internalType": "bool",
          "name": "_useAsCollateral",
          "type": "bool"
        }
      ],
      "name": "setUserUseReserveAsCollateral",
      "outputs": [],
      "stateMutability": "nonpayable",
      "type": "function"
    }
  ],
  "bytecode": "0x6080806040523461002b57600160005560006001556000603c556000603e556157439081620000318239f35b600080fdfe60806040526004361015610013575b600080fd5b60003560e01c8062a718a91461026a5780630902f1ac1461026157806328dd2d011461025857806329e6a05f1461024f57806335ea6a75146102465780633815d34c1461023d5780633cedf2df146102345780633e1501411461022b57806347ccca021461022257806348f163ea1461021957806358707e06146102105780635a3b74b9146102075780635ceae9c4146101fe57806379cc211e146101f55780638afaff02146101ec5780638fabf76d146101e35780639895e3d8146101da5780639a91fe9b146101d1578063a429bcaa146101c8578063ab1e8a21146101bf578063b334ed86146101b6578063bf92857c146101ad578063c0c8ab65146101a4578063c1bce0b71461019b578063c4d66de814610192578063c72c4d1014610189578063d0fc81d214610180578063d2d0e06614610177578063de3148621461016e5763f2f4eb261461016657600080fd5b61000e613152565b5061000e613133565b5061000e612e52565b5061000e612e34565b5061000e612e0a565b5061000e612d1b565b5061000e6126ef565b5061000e6125ff565b5061000e6124db565b5061000e6124b1565b5061000e612180565b5061000e6120bc565b5061000e611b91565b5061000e611ad2565b5061000e6114b8565b5061000e611467565b5061000e611313565b5061000e6112c1565b5061000e61105b565b5061000e611031565b5061000e610bca565b5061000e610ba0565b5061000e610a95565b5061000e610a73565b5061000e610971565b5061000e6106fd565b5061000e6106de565b5061000e6105f2565b5061000e6104b9565b5061000e61028e565b6001600160a01b0381160361000e57565b8015150361000e57565b5060a036600319011261000e576004356102a781610273565b6024356102b381610273565b6103b36000806044356102c581610273565b608435946102d286610284565b6102da6134e3565b6102e381615474565b6102ec87615474565b603554610309906001600160a01b03165b6001600160a01b031690565b91604051968793632bd7cfb760e11b855284600460209a8b935afa93841561045d575b859461042a575b5060405162a718a960e01b8982019081526001600160a01b039a8b166024830152938a166044820152989091166064808a0191909152356084890152151560a48801528660c481015b0396610390601f19988981018352826131d0565b51915af46103a561039f614710565b91614740565b8280825183010191016147c1565b906103c4576103c26001600055565b005b610426926103fc9261040261040e9360405195869384016014907302634b8bab4b230ba34b7b7103330b4b632b21d160651b81520190565b90614828565b039081018352826131d0565b60405162461bcd60e51b815291829160048301614860565b0390fd5b61037c91945061044f90893d8b11610456575b61044781836131d0565b8101906131f2565b9390610333565b503d61043d565b610465613207565b61032c565b600091031261000e57565b6020908160408183019282815285518094520193019160005b82811061049c575050505090565b83516001600160a01b03168552938101939281019260010161048e565b503461000e576000806003193601126105b257603654604051630240bc6b60e21b815291908190839060049082906001600160a01b03165afa9081156105bd575b8091610513575b6040518061050f8482610475565b0390f35b90503d8082843e61052481846131d0565b820160209283818303126105b55780519067ffffffffffffffff82116105b9570181601f820112156105b55780519061055c82614fe9565b9361056a60405195866131d0565b828552858086019360051b8301019384116105b257508401905b8282106105995750505061050f915038610501565b84809183516105a781610273565b815201910190610584565b80fd5b8280fd5b8380fd5b6105c5613207565b6104fa565b604090600319011261000e576004356105e281610273565b906024356105ef81610273565b90565b503461000e57610601366105ca565b6037546040516328dd2d0160e01b81526001600160a01b039384166004820152918316602483015261014092839183916044918391165afa80156106d1575b6000918283848586918793889589978a99610690575b50604051998a5260208a015260408901526060880152608087015260a086015260c085015260e08401526101008301521515610120820152f35b985050505050505050506106ba9150823d84116106ca575b6106b281836131d0565b810190614871565b9790969195929492919038610656565b503d6106a8565b6106d9613207565b610640565b503461000e57600036600319011261000e576020603c54604051908152f35b503461000e57602036600319011261000e5760043561071b81610273565b6037546040516335ea6a7560e01b81526001600160a01b0392831660048201526101a0929091839183916024918391165afa80156108a0575b600090819282838485868791889389958a978b998c9b6107e9575b5061050f9b9c9d506040519d8e9d8e9b99979593919d9c9a98969492909d6101a08d019e8d5260208d015260408c015260608b015260808a015260a089015260c088015260e0870152610100860152610120850152610140840152600160a01b600190031661016083015264ffffffffff16906101800152565b9c5050505050505050505050509181813d8311610899575b61080b81836131d0565b8101031261089557805190602081015190604081015192606082015191608081015160a082015160c083015160e0840151610100850151916101208601519361014087015195610180610160890151986108648a610273565b01519864ffffffffff8a168a036108915761050f9b9c9d509b9c99909192939495969798998d9c9b61076f565b8d80fd5b5080fd5b503d610801565b6108a8613207565b610754565b60208082019080835283518092528060408094019401926000905b8382106108d757505050505090565b90919293948361014060019288516108f182825115159052565b808401516001600160a01b031682850152808601516001600160a01b031682870152606081810151908301526080808201516001600160a01b03169083015260a0818101519083015260c0808201519083015260e080820151908301526101008082015190830152610120908101519082015201960194939201906108c8565b503461000e57604036600319011261000e57600435602435603c54811015610a1f576109ba6109a86109a38484613f2e565b613ea9565b6109b56107d08210614f92565b615010565b916000905b828111156109d5576040518061050f86826108ad565b80610a146109f0610a1a93600052603b602052604060002090565b93610a036109fd82614d7e565b95614e5c565b610a0d8289615060565b5286615060565b50614d7e565b6109bf565b60405162461bcd60e51b815260206004820152602660248201527f456e6420496e646578206f76657220626f72726f7750726f706f73616c4c69736044820152651d10dbdd5b9d60d21b6064820152608490fd5b503461000e576020610a8d610a87366105ca565b906148c0565b604051908152f35b503461000e57602036600319011261000e57600435610ab381610273565b603754604051633e15014160e01b81526001600160a01b039283166004820152610100929091839183916024918391165afa8015610b93575b600090819282838490859286948796610b4e575b50604080519788526020880198909852968601969096526001600160a01b039095166060850152931515608084015292151560a083015291151560c082015290151560e08201526101009150f35b9650505050505050610b7a91508261050f93903d10610b8c575b610b7281836131d0565b810190614adb565b95978897969591949293929190610b00565b503d610b68565b610b9b613207565b610aec565b503461000e57600036600319011261000e57603a546040516001600160a01b039091168152602090f35b503461000e5760208060031936011261000e576004803590610bea614967565b50600092828452603d8152604092610c03848620614e5c565b92610c1360018551151514614ef1565b60018060a01b03938486820151166101006060830151968684015116920151610c3a6134e3565b610c4382615474565b610c4c82615534565b610c55876155f5565b610c8387610c6b610c6633866148c0565b613cf8565b610c7c81610c776152bd565b615641565b101561531c565b610d07610ceb89838c8b610ca16102fd60365460018060a01b031690565b8451630deb1bf960e21b81526001600160a01b038a16818d019081523360208201526040810193909352606083019490945260016080830152929485939284929091839160a00190565b03925af1908115611024575b8b91610ff5575b50610c7761539a565b6036548990610d1e906001600160a01b03166102fd565b803b1561089557895163fa93b2a560e01b81526001600160a01b038516878201908152336020820152604081018b9052909291839182908490829060600103925af18015610fe8575b610fd5575b506005610d8386600052603d602052604060002090565b01549084610d9b87600052603d602052604060002090565b015497610dbb610db5610dae8b84613d21565b6064900490565b82613ec5565b95610de36003610dd58a600052603d602052604060002090565b01546001600160a01b031690565b603a54610df8906001600160a01b03166102fd565b8d813b156105b257610efb8c8f9d610f729f610f689f8f9e988f8f939d610eb7917f8548f4b1ba99a93e6efd62aabdf947babb683e6735271b67e3a3ecc73ed22a369f828f9c610f4b9f9d8d610f169f610e9e8a9183978d51998a9889978896632f64d32760e11b885242933391890193909796959260c0959260e0860199865260018060a01b0316602086015260408501526060840152608083015260a08201520152565b03925af18015610fc8575b610faf575b504211156153e9565b603a548790610ece906001600160a01b03166102fd565b92516354ba0f2760e01b81526001600160a01b039094169184019182529295869384929091839160200190565b03925af1928315610fa2575b92610f75575b50501515615435565b8b516001600160a01b0390911681523360208201526040810192909252606082019290925242608082015290819060a0820190565b0390a4610f586001600055565b600052603d602052604060002090565b805460ff19169055565b51f35b610f949250803d10610f9b575b610f8c81836131d0565b8101906134d4565b3880610f0d565b503d610f82565b610faa613207565b610f07565b80610fbc610fc292613193565b8061046a565b38610eae565b610fd0613207565b610ea9565b80610fbc610fe292613193565b38610d6c565b610ff0613207565b610d67565b61101591508a3d8c1161101d575b61100d81836131d0565b810190613c91565b905038610cfe565b503d611003565b61102c613207565b610cf7565b503461000e57600036600319011261000e576038546040516001600160a01b039091168152602090f35b503461000e5760408060031936011261000e576004359061107b82610273565b6024359161108883610284565b6110906134e3565b61109981615474565b6110a281615534565b6036546110b7906001600160a01b03166102fd565b8251630c526de560e11b81526001600160a01b03831660048201523360248201529093906111759060209061115a90829081816044818c5afa9081156112b4575b600091611297575b5061110c811515614621565b603754611121906001600160a01b03166102fd565b88516376e9d61560e01b81526001600160a01b038916600482015233602482015260448101929092529092839190829081906064820190565b03915afa91821561128a575b60009261125d575b5050614680565b833b1561000e578251633e94615360e21b81526001600160a01b0383166004820152336024820152811515604482015260009485908290606490829084905af18015611250575b61123d575b50831461120557815133916001600160a01b0316907e058a56ea94653cdf4f152d227ace22d4c00ad99e2a43f58cb7d9e3feb295f2908590a35b610f726001600055565b815133916001600160a01b0316907f44c58d81365b66dd4b1a7f36c25aa97b8c71c361ee4937adc1a00000227db5dd908590a36111fb565b80610fbc61124a92613193565b386111c1565b611258613207565b6111bc565b61127c9250803d10611283575b61127481836131d0565b8101906138a5565b388061116e565b503d61126a565b611292613207565b611166565b6112ae9150823d8411610f9b57610f8c81836131d0565b38611100565b6112bc613207565b6110f8565b50606036600319011261000e5761130c6004356112dd81610273565b602435604435916112ed83610273565b6112f56134e3565b6112fe81615474565b611307826155f5565b613f45565b6001600055005b503461000e57602036600319011261000e57600435611336603c54821115614f51565b6000818152603b60205260409020805460ff169061050f90611363905b5460081c6001600160a01b031690565b9261137d6001610dd583600052603b602052604060002090565b90600261139482600052603b602052604060002090565b01546113af6003610dd584600052603b602052604060002090565b60046113c584600052603b602052604060002090565b01549060056113de85600052603b602052604060002090565b015492600861140f60066113fc88600052603b602052604060002090565b015496600052603b602052604060002090565b015495604051998a998a9592919361010097949a999895919a61012088019b1515885260018060a01b03938480921660208a0152166040880152606087015216608085015260a084015260c083015260e08201520152565b503461000e57600036600319011261000e57602060405160038152f35b60a090600319011261000e5760043561149c81610273565b90602435906044356114ad81610273565b906064359060843590565b503461000e576114c736611484565b6114d3949391946134e3565b6114dc84615474565b6114e584615534565b6114ee826155f5565b6114f6614967565b946114ff613834565b81151580611ac8575b611511906149d3565b61151c428411614a1f565b603654611531906001600160a01b03166102fd565b60405163288d4ff760e21b81526001600160a01b038816600482015290602082602481845afa918215611abb575b600092611a9a575b506004868960206115826102fd60355460018060a01b031690565b604051631f94a27560e31b815294859182905afa928315611a8d575b600093611a63575b50604051632e79732b60e11b81526001600160a01b03821660048201529293611644936116219260209290916115f4908481602481865afa908115611a56575b600091611a39575b506138ba565b60405163e240301960e01b81526001600160a01b0390921660048301529092839190829081906024820190565b03915afa908115611a2c575b600091611a0d575b50806101608701521015614a62565b61164e33896148c0565b6037549091908890611668906001600160a01b03166102fd565b604051633e15014160e01b81526001600160a01b038c16600482015294908b9061010090879060249082905afa958615611a00575b6000966119b4575b50936117d8846117d0886117c161179d7fddda05bca10ccedb67628486050c0637ba56c3b1d4d271f7524748d5e3931c859f9b996117eb9961176f61191c9f9d8f6117659c8161175a61174b61176a9461172860208e98819c604051808095819463b3596f0760e01b835260048301919091602081019260018060a01b03169052565b03916001600160a01b03165afa9081156119a7575b60009161198a575b50613d21565b61175484614b40565b90613d34565b9e8f92610c77614b5c565b613d21565b613d34565b60405163b3596f0760e01b81526001600160a01b039092166004830152969092839190829081906024820190565b03916001600160a01b03165afa90811561197d575b60009161195e575b5084613d34565b958a6117cb614bb1565b61569f565b610c77614c10565b6117e482610c77614c60565b1015614cb7565b603954611800906001600160a01b03166102fd565b604051630e563a7d60e41b8152336004820152602481018590529290602090849060449082905afa928315611951575b600093611929575b50606061184b9101928084521515613aee565b6118588251610c77614d29565b60018a523360208b01526001600160a01b03891660408b015260608a018390526001600160a01b03881660808b01528460a08b01528560c08b01524260e08b015281516101008b01526101208a01526118d8603c54996118bf6118ba8c614d7e565b603c55565b6118d38b600052603b602052604060002090565b614d8e565b51604080519283526001600160a01b039788166020840152820193909352606081019290925260808201929092524260a082015233949093169290819060c0820190565b0390a46103c26001600055565b61184b91935061194960609160203d602011610f9b57610f8c81836131d0565b939150611838565b611959613207565b611830565b611977915060203d602011610f9b57610f8c81836131d0565b386117ba565b611985613207565b6117b2565b6119a191508b3d8d11610f9b57610f8c81836131d0565b38611745565b6119af613207565b61173d565b8a96509984819394989692959b6101003d610100116119f9575b6119d881836131d0565b81016119e391614adb565b50505050505050975050999390949692916116a5565b503d6119ce565b611a08613207565b61169d565b611a26915060203d602011610f9b57610f8c81836131d0565b38611635565b611a34613207565b61162d565b611a509150853d87116112835761127481836131d0565b386115ee565b611a5e613207565b6115e6565b611644935061162191611a84602092833d85116104565761044781836131d0565b945091506115a6565b611a95613207565b61159e565b611ab491925060203d602011610f9b57610f8c81836131d0565b9038611567565b611ac3613207565b61155f565b5060648210611508565b503461000e57608036600319011261000e57611b5c600435611af381610273565b60243590611b0082610273565b611b086134e3565b611b4f60018060a01b0360246020826036541660405192838092631a59df7760e11b825286891660048301525afa908115611b84575b600091611b66575b50163314613539565b60643591604435916135bf565b6103c26001600055565b611b7e915060203d81116104565761044781836131d0565b38611b46565b611b8c613207565b611b3e565b503461000e577ff8b6062ca08c00ea54f74d7f53f049ed4cb014a7787c62250e6dfa1229d7d460611bc136611484565b9092611bce9592956134e3565b611bd785615474565b611be085615534565b611be9816155f5565b61191c611bf4614967565b96866004611c0061508a565b92881515806120b2575b611c13906149d3565b611c1e428811614a1f565b6036548690611c35906001600160a01b03166102fd565b60405163288d4ff760e21b81526001600160a01b0386168582019081529091906020908390819083010381845afa9182156120a5575b600092612084575b50603554602090611c8c906001600160a01b03166102fd565b604051631f94a27560e31b815296879182905afa948515612077575b600095612050575b50604051632e79732b60e11b81526001600160a01b0387166004820152611d42918491611cfa9060208180602481015b0381865afa908115612043575b60009161202a57506138ba565b60405163e240301960e01b81526001600160a01b038916600482015290602090829060249082905afa90811561201d575b600091611ffe575b50806101608a01521015615112565b611d4f610c6633876148c0565b603754909190611d67906001600160a01b03166102fd565b604051633e15014160e01b81526001600160a01b0386166004820152959061010090879060249082905afa958615611ff1575b600096611fa8575b5060405163b3596f0760e01b81526001600160a01b03909716600488015294959394611e2094611e19928892611e109261175491611e0a91899160209082908180602481015b03916001600160a01b03165afa908115611f9b575b600091611f825750613d21565b91614b40565b846117cb615189565b10156151e8565b603954611e35906001600160a01b03166102fd565b604051630e563a7d60e41b8152336004820152602481018790529390602090859060449082905afa938415611f75575b600094611f47575b5090611e846060611ec19301948086521515613aee565b611e918451610c7761526c565b60018b523360208c01526001600160a01b038a1660408c015260608b018690526001600160a01b031660808b0152565b8660a08a01528460c08a01524260e08a015281516101008a0152610120890152611f0d603e5498611ef9611ef48b614d7e565b603e55565b6118d38a600052603d602052604060002090565b5160408051938452602084019690965294820194909452606081019190915242608082015233936001600160a01b031692819060a0820190565b611ec1929194506060611f6b611e849260203d602011610f9b57610f8c81836131d0565b9592935050611e6d565b611f7d613207565b611e65565b6119a1915060203d602011610f9b57610f8c81836131d0565b611fa3613207565b611dfd565b611e20959650611e1992611754611e0a87611de86020611fdb611e10976101003d61010011610b8c57610b7281836131d0565b505050505050509c9b5050505050509250611da2565b611ff9613207565b611d9a565b612017915060203d602011610f9b57610f8c81836131d0565b38611d33565b612025613207565b611d2b565b611a50915060203d6020116112835761127481836131d0565b61204b613207565b611ced565b611d4291955061206f849160203d6020116104565761044781836131d0565b959150611cb0565b61207f613207565b611ca8565b61209e91925060203d602011610f9b57610f8c81836131d0565b9038611c73565b6120ad613207565b611c6b565b5060648910611c0a565b503461000e57604036600319011261000e57600435602435603e54811015612129576120ee6109a86109a38484613f2e565b916000905b82811115612109576040518061050f86826108ad565b80610a146109f061212493600052603d602052604060002090565b6120f3565b60405162461bcd60e51b815260206004820152602960248201527f456e6420496e64657820657863656564696e67204c656e6450726f706f73616c604482015268131a5cdd10dbdd5b9d60ba1b6064820152608490fd5b503461000e5760208060031936011261000e5760048035906121a0614967565b50600092828452603b81526040926121b9848620614e5c565b926121c960018551151514614ef1565b60018060a01b03938486820151166101006060830151968684015116920151926121f16134e3565b6121fa82615474565b61220382615534565b61220c876155f5565b61221d87610c6b610c6633866148c0565b612288610ceb89868c8b61223b6102fd60365460018060a01b031690565b8451630deb1bf960e21b81526001600160a01b03808b168a8301908152908c1660208201526040810193909352606083019490945260016080830152929485939284929091839160a00190565b603654899061229f906001600160a01b03166102fd565b803b1561089557895163fa93b2a560e01b81526001600160a01b038086168583019081529087166020820152604081018b9052909291839182908490829060600103925af180156124a4575b612491575b50600561230786600052603b602052604060002090565b0154938161231f87600052603b602052604060002090565b015497612332610db5610dae8b84613d21565b9261234c6003610dd58a600052603b602052604060002090565b603a54612361906001600160a01b03166102fd565b948d863b156105b257808c8f9d610f729f610f689f8f9e988f8f9a807f8548f4b1ba99a93e6efd62aabdf947babb683e6735271b67e3a3ecc73ed22a369f8e8a916124749f8361243c9f97610e9e61240599610efb9d8c8e519a8b998a988997632f64d32760e11b89524294890193909796959260c0959260e0860199865260018060a01b0316602086015260408501526060840152608083015260a08201520152565b603a5461241a906001600160a01b03166102fd565b91516354ba0f2760e01b81523391810191825295869384928391602090910190565b8b516001600160a01b0391821681529616602087015260408601919091526060850191909152426080850152339390819060a0820190565b0390a46124816001600055565b600052603b602052604060002090565b80610fbc61249e92613193565b386122f0565b6124ac613207565b6122eb565b503461000e57600036600319011261000e576037546040516001600160a01b039091168152602090f35b503461000e57602036600319011261000e576004356124f981610273565b603754604051632fe4a15f60e21b81526001600160a01b0392831660048201529161010091829184916024918391165afa80156125f2575b60009081928283849085928694879661258b575b5061050f969798506040519889988994919260e0969399989794919961010087019a8752602087015260408601526060850152608084015260a083015260c08201520152565b96975050505050505082813d83116125eb575b6125a881836131d0565b810103126105b257508051602082015160408301516060840151608085015160a086015160c087015160e09097015194968796959490939192919061050f612545565b503d61259e565b6125fa613207565b612531565b503461000e57602036600319011261000e57600435612622603e54821115614f51565b6000818152603d60205260409020805460ff169061050f9061264390611353565b9261265d6001610dd583600052603d602052604060002090565b90600261267482600052603d602052604060002090565b015461268f6003610dd584600052603d602052604060002090565b60046126a584600052603d602052604060002090565b01549060056126be85600052603d602052604060002090565b015492600861140f60066126dc88600052603d602052604060002090565b015496600052603d602052604060002090565b503461000e57606036600319011261000e5761270c600435610273565b6044356127176134e3565b612722600435615474565b61272d600435615534565b6127386024356155f5565b612740613834565b6036546129df9060409061275c906001600160a01b03166102fd565b8151632e79732b60e11b8152600480356001600160a01b03169082015261278a906020818060248101611ce0565b846002148015612d11575b61279e90613932565b6127a785613912565b6101c08401906127b7868361398a565b825163e240301960e01b8152600480356001600160a01b03169082015261280390602081602481865afa908115612d04575b600091612ce5575b50806101608801526024351115613996565b60375461298e9061281c906001600160a01b03166102fd565b8451632c6d0e9b60e01b8152336004820152602090610100906128ad906128a8906128a49084816024818a5afa908115612cd8575b8d60009182908390849085908697612c93575b509260c09285928796956128836101e061289e9a98019a8b9015159052565b60408501528d8401528b83015260e082015201521515613a30565b51151590565b1590565b613a7c565b60395461290a906128c6906001600160a01b03166102fd565b8851630e563a7d60e41b81523360048201526024803590820152908490829060449082905afa908115612c86575b600091612c69575b508060608c01521515613aee565b606089015160e08a0151918a0151838b015189516312737c3360e01b8152600480356001600160a01b031690820152602480359082015260448101939093526064830193909352608482015260a4810191909152918290818060c4810103915afa908115612c5c575b600091612c3d575b508060a088015260c08701511015613b44565b6001825161299b81613912565b6129a481613912565b14612b36575b60608501519151916129bb83613912565b60008451809681958294630deb1bf960e21b84526024353360043560048701613ca7565b03925af1928315612b29575b6000918294612b06575b5061012083019384526101a08301918252603654612a1b906001600160a01b03166102fd565b803b1561000e5760405163fa93b2a560e01b8152600480356001600160a01b031690820152336024808301919091523560448201527fe27fbad0754d6c730a8161378bc066f66fac114445968dcfc26d42a3002960139360609290919060009082908183816064810103925af18015612af9575b612ae6575b505193015193516040805160243581526020810193909352820193909352606081019390935260808301919091524260a083015233916001600160a01b0360043516919060c090a36103c26001600055565b80610fbc612af392613193565b38612a94565b612b01613207565b612a8f565b909350612b22915060403d60401161101d5761100d81836131d0565b92386129f5565b612b31613207565b6129eb565b825163710ba6c360e11b8152600480356001600160a01b03169082015233602480830191909152356044820152612b8690602081606481865afa908115612c30575b600091612c11575b50613bad565b612be0612bd6610dae60046020612ba76102fd60385460018060a01b031690565b88516335adc96b60e21b815292839182905afa908115612c04575b600091612be5575b50610160890151613d21565b6024351115613c1f565b6129aa565b612bfe915060203d602011610f9b57610f8c81836131d0565b38612bca565b612c0c613207565b612bc2565b612c2a915060203d6020116112835761127481836131d0565b38612b80565b612c38613207565b612b78565b612c56915060203d602011610f9b57610f8c81836131d0565b3861297b565b612c64613207565b612973565b612c809150843d8611610f9b57610f8c81836131d0565b386128fc565b612c8e613207565b6128f4565b9250505060c0945061289e9350612cc09150883d8a11612cd1575b612cb881836131d0565b8101906139ef565b999598509395509193909250612864565b503d612cae565b612ce0613207565b612851565b612cfe915060203d602011610f9b57610f8c81836131d0565b386127f1565b612d0c613207565b6127e9565b5060018514612795565b503461000e57602036600319011261000e57600435612d3981610273565b60ff600254169081159182612e01575b8015612df5575b15612d9957612d639082612d7857613214565b612d6957005b6103c260ff1960025416600255565b612d8a600160ff196002541617600255565b612d946003600155565b613214565b60405162461bcd60e51b815260206004820152602e60248201527f436f6e747261637420696e7374616e63652068617320616c726561647920626560448201526d195b881a5b9a5d1a585b1a5e995960921b6064820152608490fd5b50600154600311612d50565b50303b15612d49565b503461000e57600036600319011261000e576035546040516001600160a01b039091168152602090f35b503461000e57600036600319011261000e5760206040516000198152f35b50606036600319011261000e576004803590612e6d82610273565b6024359160443561ffff81160361000e57612e866134e3565b612e8f836155f5565b603654612ea4906001600160a01b03166102fd565b60408051631a59df7760e11b81526001600160a01b0384168186019081529095919491929060209081908890819083010381855afa968715613126575b600097613107575b5085516370a0823160e01b8152338482019081526001600160a01b039889169391908390829081906020010381875afa9283156130fa575b6000936130db575b5050803b1561000e578651632f35bfe960e21b81526001600160a01b038716858201908152336020820152604081018790529215606084015291600091839182908490829060800103925af180156130ce575b6130bb575b50803b1561000e5784516394362e8b60e01b81523383820190815260208101859052909160009183919082908490829060400103925af180156130ae575b61309b575b50603654612fda906001600160a01b03166102fd565b803b1561000e5784516328fcf4d360e01b81526001600160a01b038516928101928352336020840152604083018490526000967fdcbc1c05240f31ff3ad067ef1ee35ce4997762752e3a095284754544f4c709d79361306e93919291899183919082908190606001039134905af1801561308e575b61307b575b508551938452426020850152339416929081906040820190565b0390a3610f726001600055565b80610fbc61308892613193565b38613054565b613096613207565b61304f565b80610fbc6130a892613193565b38612fc4565b6130b6613207565b612fbf565b80610fbc6130c892613193565b38612f81565b6130d6613207565b612f7c565b6130f2929350803d10610f9b57610f8c81836131d0565b903880612f29565b613102613207565b612f21565b8161311f9298503d89116104565761044781836131d0565b9538612ee9565b61312e613207565b612ee1565b503461000e57600036600319011261000e576020603e54604051908152f35b503461000e57600036600319011261000e576036546040516001600160a01b039091168152602090f35b50634e487b7160e01b600052604160045260246000fd5b67ffffffffffffffff81116131a757604052565b6131af61317c565b604052565b6060810190811067ffffffffffffffff8211176131a757604052565b90601f8019910116810190811067ffffffffffffffff8211176131a757604052565b9081602091031261000e57516105ef81610273565b506040513d6000823e3d90fd5b603580546001600160a01b0319166001600160a01b039290921691821790556133fe90613240906102fd565b6040518091630774f5f560e21b825281600460209384935afa9182156134c7575b6000926134a8575b50603680546001600160a01b0319166001600160a01b039384161790556132e4826004836132a16102fd60355460018060a01b031690565b6040516352cb335b60e11b815292839182905afa90811561349b575b60009161347e575b501660018060a01b03166001600160601b0360a01b6037541617603755565b613342826004836132ff6102fd60355460018060a01b031690565b604051639fabe17560e01b815292839182905afa908115613471575b600091613454575b501660018060a01b03166001600160601b0360a01b6038541617603855565b6133a08260048361335d6102fd60355460018060a01b031690565b604051633efbbf0f60e21b815292839182905afa908115613447575b60009161342a575b501660018060a01b03166001600160601b0360a01b6039541617603955565b60355460049082906133ba906001600160a01b03166102fd565b604051635920a6a160e01b815292839182905afa91821561341d575b600092613400575b50501660018060a01b03166001600160601b0360a01b603a541617603a55565b565b6134169250803d106104565761044781836131d0565b38806133de565b613425613207565b6133d6565b6134419150843d86116104565761044781836131d0565b38613381565b61344f613207565b613379565b61346b9150843d86116104565761044781836131d0565b38613323565b613479613207565b61331b565b6134959150843d86116104565761044781836131d0565b386132c5565b6134a3613207565b6132bd565b816134c09293503d84116104565761044781836131d0565b9038613269565b6134cf613207565b613261565b9081602091031261000e575190565b6002600054146134f4576002600055565b60405162461bcd60e51b815260206004820152601f60248201527f5265656e7472616e637947756172643a207265656e7472616e742063616c6c006044820152606490fd5b1561354057565b60405162461bcd60e51b815260206004820152604b60248201527f5468652063616c6c6572206f6620746869732066756e6374696f6e2063616e2060448201527f6f6e6c79206265207468652061546f6b656e20636f6e7472616374206f66207460648201526a686973207265736572766560a81b608482015260a490fd5b926135c984615474565b6135d2836155f5565b6036546135e7906001600160a01b03166102fd565b60405163e240301960e01b81526001600160a01b038616600482015261362a908590602081602481875afa908115613791575b600091613773575b50101561379e565b803b1561000e5760405163afcdbea360e01b81526001600160a01b0386811660048301528416602482015260448101859052911560648301526000908290608490829084905af18015613766575b613753575b50603654613693906001600160a01b03166102fd565b803b1561000e5760405163fa93b2a560e01b81526001600160a01b03858116600483015283166024820152604481018490527f9c4ed599cd8555b9c1e8cd7643240d7d71eb76b792948c49fcb4d411f7b6b3c69261372e929091906000908290606490829084905af18015613746575b613733575b50604080519485524260208601526001600160a01b039182169590911693918291820190565b0390a3565b80610fbc61374092613193565b38613708565b61374e613207565b613703565b80610fbc61376092613193565b3861367d565b61376e613207565b613678565b61378b915060203d8111610f9b57610f8c81836131d0565b38613622565b613799613207565b61361a565b156137a557565b60405162461bcd60e51b815260206004820152603160248201526000805160206156ee83398151915260448201527061696c61626c6520746f2072656465656d60781b6064820152608490fd5b60405190610200820182811067ffffffffffffffff8211176131a757604052565b60405190610140820182811067ffffffffffffffff8211176131a757604052565b61383c6137f2565b9060008083528060208401528060408401528060608401528060808401528060a08401528060c08401528060e08401528061010084015280610120840152806101408401528061016084015280610180840152806101a0840152806101c08401526101e0830152565b9081602091031261000e57516105ef81610284565b156138c157565b60405162461bcd60e51b8152602060048201526024808201527f52657365727665206973206e6f7420656e61626c656420666f7220626f72726f60448201526377696e6760e01b6064820152608490fd5b6003111561391c57565b634e487b7160e01b600052602160045260246000fd5b1561393957565b60405162461bcd60e51b815260206004820152602360248201527f496e76616c696420696e7465726573742072617465206d6f64652073656c65636044820152621d195960ea1b6064820152608490fd5b600382101561391c5752565b1561399d57565b60405162461bcd60e51b815260206004820152603660248201526000805160206156ee83398151915260448201527561696c61626c6520696e20746865207265736572766560501b6064820152608490fd5b91908261010091031261000e5781519160208101519160408201519160608101519160808201519160a08101519160e060c08301519201516105ef81610284565b15613a3757565b60405162461bcd60e51b815260206004820152601b60248201527f54686520636f6c6c61746572616c2062616c616e6365206973203000000000006044820152606490fd5b15613a8357565b60405162461bcd60e51b815260206004820152603f60248201527f54686520626f72726f7765722063616e20616c7265616479206265206c69717560448201527f69646174656420736f2068652063616e6e6f7420626f72726f77206d6f7265006064820152608490fd5b15613af557565b60405162461bcd60e51b815260206004820152602160248201527f54686520616d6f756e7420746f20626f72726f7720697320746f6f20736d616c6044820152601b60fa1b6064820152608490fd5b15613b4b57565b60405162461bcd60e51b815260206004820152603460248201527f5468657265206973206e6f7420656e6f75676820636f6c6c61746572616c20746044820152736f20636f7665722061206e657720626f72726f7760601b6064820152608490fd5b15613bb457565b60405162461bcd60e51b815260206004820152603960248201527f557365722063616e6e6f7420626f72726f77207468652073656c65637465642060448201527f616d6f756e742077697468206120737461626c652072617465000000000000006064820152608490fd5b15613c2657565b60405162461bcd60e51b815260206004820152603c60248201527f5573657220697320747279696e6720746f20626f72726f7720746f6f206d756360448201527f68206c6971756964697479206174206120737461626c652072617465000000006064820152608490fd5b919082604091031261000e576020825192015190565b6001600160a01b039182168152911660208201526040810191909152606081019190915260a08101929190600382101561391c5760800152565b50634e487b7160e01b600052601160045260246000fd5b670de0b6b3a7640000908060001904821181151516613d15570290565b613d1d613ce1565b0290565b8060001904821181151516613d15570290565b8115613d3e570490565b634e487b7160e01b600052601260045260246000fd5b60405190610100820182811067ffffffffffffffff821117613da5575b6040528160e06000918281528260208201528260408201528260608201528260808201528260a08201528260c08201520152565b613dad61317c565b613d71565b9081606091031261000e578051916040602083015192015190565b15613dd457565b60405162461bcd60e51b815260206004820152602960248201527f546865207573657220646f6573206e6f74206861766520616e7920626f72726f604482015268772070656e64696e6760b81b6064820152608490fd5b15613e3257565b60a460405162461bcd60e51b815260206004820152604460248201527f546f207265706179206f6e20626568616c66206f6620616e207573657220616e60448201527f206578706c6963697420616d6f756e7420746f207265706179206973206e65656064820152633232b21760e11b6084820152fd5b6001906001198111613eb9570190565b613ec1613ce1565b0190565b81198111613eb9570190565b15613ed857565b60405162461bcd60e51b815260206004820152602860248201527f496e76616c6964206d73672e76616c75652073656e7420666f72207468652072604482015267195c185e5b595b9d60c21b6064820152608490fd5b818110613f39570390565b613f41613ce1565b0390565b613f4d613d54565b603654909190613f65906001600160a01b03166102fd565b60408051639fb8afcd60e01b81526001600160a01b038481166004830152871660248201529491939091606086604481885afa958615614614575b600090819082986145df575b5083850197885260208085019182529184528451633faacc6b60e21b81526001600160a01b0387811660048301528a1660248201529180836044818b5afa9283156145d2575b6000936145b3575b5060e0850192835273eeeeeeeeeeeeeeeeeeeeeeeeeeeeeeeeeeeeeeee6001600160a01b03888116918214606088019081529199909691958c919061404186511515613dcd565b61405c6000198214938a85159182966145a5575b5050613e2b565b6140698651885190613ec5565b9260808501938085528161459b575b50614593575b5061408c6128a48851151590565b8015614588575b61409c90613ed1565b815186518111156143915750506140b860a09151865190613f2e565b91018181526036549093906140d5906001600160a01b03166102fd565b91855192818d51935114813b1561000e5760008f9161413d8e9183978f51998a988997889663da12d96f60e01b885260048801949196959260a0949160c0870198600180881b0380921688521660208701526040860152606085015260808401521515910152565b03925af18015614384575b614371575b508251908161425b575b505060365461417990614172906001600160a01b03166102fd565b9351151590565b60009015614255575061418d825134613f2e565b955b815196843b1561000e5786516328fcf4d360e01b81526001600160a01b0392909216600483015233602483015260448201979097527fb718f0b14f03d8c3adf35b15e3da52421b042ac879e5a689011a8b1e0036773d9661423094600091839160649183915af18015614248575b614235575b5051905196519351938493339916974292859094939260609260808301968352602083015260408201520152565b0390a4565b80610fbc61424292613193565b38614202565b614250613207565b6141fd565b9561418f565b603654614270906001600160a01b03166102fd565b9061427b8651151590565b6000901561436b575082915b60355460049083906142a1906001600160a01b03166102fd565b8b51637744894b60e11b815292839182905afa92831561435e575b60009361433f575b5050803b1561000e57885163c7d1423760e01b81526001600160a01b038b81166004830152336024830152604482019590955291909316606482015291600091839160849183915af18015614332575b61431f575b80614157565b80610fbc61432c92613193565b38614319565b61433a613207565b614314565b614356929350803d106104565761044781836131d0565b9038806142c4565b614366613207565b6142bc565b91614287565b80610fbc61437e92613193565b3861414d565b61438c613207565b614148565b9250929350935089969997949751823b1561000e578a5163da12d96f60e01b81526001600160a01b0387811660048301528d1660248201526000604482018190526064820193909352608481019190915260a4810182905291829060c490829084905af1801561457b575b614568575b506036546144229061441b906001600160a01b03166102fd565b9651151590565b60009015614563575081515b8251603554600490849061444a906001600160a01b03166102fd565b8c51637744894b60e11b815292839182905afa938415614556575b600094614537575b5050873b1561000e57895163c7d1423760e01b81526001600160a01b0395861660048201528b8616602482015260448101919091529190931660648201527fb718f0b14f03d8c3adf35b15e3da52421b042ac879e5a689011a8b1e0036773d956142309360009183916084918391905af1801561452a575b614517575b50519251955192839233981696429184606091949392608082019560008352602083015260408201520152565b80610fbc61452492613193565b386144ea565b614532613207565b6144e5565b61454e929450803d106104565761044781836131d0565b91388061446d565b61455e613207565b614465565b61442e565b80610fbc61457592613193565b38614401565b614583613207565b6143fc565b508151341015614093565b82523861407e565b9050811038614078565b9091501633148f8b90614055565b816145cb9294503d8511610f9b57610f8c81836131d0565b9138613ffa565b6145da613207565b613ff2565b91505061460491965060603d811161460d575b6145fc81836131d0565b810190613db2565b96919038613fac565b503d6145f2565b61461c613207565b613fa0565b1561462857565b60405162461bcd60e51b815260206004820152602a60248201527f5573657220646f6573206e6f74206861766520616e79206c69717569646974796044820152690819195c1bdcda5d195960b21b6064820152608490fd5b1561468757565b60405162461bcd60e51b815260206004820152603060248201527f55736572206465706f73697420697320616c7265616479206265696e6720757360448201526f195908185cc818dbdb1b185d195c985b60821b6064820152608490fd5b60209067ffffffffffffffff8111614703575b601f01601f19160190565b61470b61317c565b6146f8565b3d1561473b573d90614721826146e5565b9161472f60405193846131d0565b82523d6000602084013e565b606090565b1561474757565b60405162461bcd60e51b815260206004820152601760248201527f4c69717569646174696f6e2063616c6c206661696c65640000000000000000006044820152606490fd5b918091926000905b8282106147ac5750116147a5575050565b6000910152565b91508060209183015181860152018291614794565b919060408382031261000e5782519260208101519067ffffffffffffffff821161000e570181601f8201121561000e5780516147fc816146e5565b9261480a60405194856131d0565b8184526020828401011161000e576105ef916020808501910161478c565b90613ec16020928281519485920161478c565b906020916148548151809281855285808601910161478c565b601f01601f1916010190565b9060206105ef92818152019061483b565b91908261014091031261000e5781519160208101519160408201519160608101519160808201519160a08101519160c08201519160e0810151916101206101008301519201516105ef81610284565b6037546040516328dd2d0160e01b81526001600160a01b0392831660048201529282166024840152670de0b6b3a7640000929161014091829184916044918391165afa91821561495a575b6000918293614930575b505081811061492357030490565b61492b613ce1565b030490565b61494a935080919250903d106106ca576106b281836131d0565b5050505050505050903880614915565b614962613207565b61490b565b60405190610140820182811067ffffffffffffffff8211176149c6575b604052816101206000918281528260208201528260408201528260608201528260808201528260a08201528260c08201528260e0820152826101008201520152565b6149ce61317c565b614984565b156149da57565b60405162461bcd60e51b815260206004820152601b60248201527f496e76616c696420496e746572657374205261746520496e70757400000000006044820152606490fd5b15614a2657565b60405162461bcd60e51b8152602060048201526014602482015273125b9d985b1a5908111d594811185d194814d95d60621b6044820152606490fd5b15614a6957565b60405162461bcd60e51b815260206004820152605060248201526000805160206156ee83398151915260448201527f61696c61626c6520696e20746865207265736572766520746f206d616b65206160648201526f08189bdc9c9bddc81c1c9bdc1bdcd85b60821b608482015260a490fd5b91908261010091031261000e578151916020810151916040820151916060810151614b0581610273565b916080820151614b1481610284565b9160a0810151614b2381610284565b9160e060c0830151614b3481610284565b9201516105ef81610284565b604d8111614b4f575b600a0a90565b614b57613ce1565b614b49565b60405190614b69826131b4565b603382527202fb932b9b2b93b32aa37a137b93937bb901d1606d1b6040837f2020203d3e204c42504d203a72657365727665446563696d616c7320666f722060208201520152565b60405190614bbe826131b4565b603a82527f6f72726f77416d6f756e744554482c20626f72726f774c5456200000000000006040837f2020203d3e204c42504d203a205f616d6f756e742c207265717565737465644260208201520152565b60405190614c1d826131b4565b602e82526d037bb90283937b837b9b0b6101d160951b6040837f2020203d3e204c42504d203a20455448204e656564656420666f7220426f727260208201520152565b60405190614c6d826131b4565b6035825274037b9102137b93937bb90283937b837b9b0b6101d1605d1b6040837f2020203d3e204c42504d203a20436f6c6c61746572616c204e6565646564206660208201520152565b15614cbe57565b60405162461bcd60e51b815260206004820152603d60248201527f5468657265206973206e6f7420656e6f75676820636f6c6c61746572616c207460448201527f6f20636f7665722061206e657720626f72726f772070726f706f73616c0000006064820152608490fd5b60405190614d36826131b4565b60338252720103137b93937bb90383937b837b9b0b6101d1606d1b6040837f2020203d3e204c42504d203a20426f72726f772046656520666f72207468697360208201520152565b6001906000198114613eb9570190565b90610120600891614db4614da28251151590565b859060ff801983541691151516179055565b6020810151614de8906001600160a01b03168554610100600160a81b03191660089190911b610100600160a81b0316178555565b60408101516001850180546001600160a01b039283166001600160a01b03199182161790915560608301516002870155608083015160038701805491909316911617905560a0810151600485015560c0810151600585015560e0810151600685015561010081015160078501550151910155565b906008614e67613813565b92614e8e8154614e7c60ff8216879015159052565b831c6001600160a01b03166020860152565b60018101546001600160a01b031660408501526002810154606085015260038101546001600160a01b03166080850152600481015460a0850152600581015460c0850152600681015460e085015260078101546101008501520154610120830152565b15614ef857565b60405162461bcd60e51b815260206004820152602b60248201527f4f6e6c792041637469766520426f72726f772050726f706f73616c2063616e2060448201526a1899481058d8d95c1d195960aa1b6064820152608490fd5b15614f5857565b60405162461bcd60e51b8152602060048201526012602482015271125b9d985b1a59081c1c9bdc1bdcd85b125960721b6044820152606490fd5b15614f9957565b60405162461bcd60e51b815260206004820152602260248201527f4d6178696d756d203230303020697465726174696f6e207065722072657175656044820152611cdd60f21b6064820152608490fd5b60209067ffffffffffffffff8111615003575b60051b0190565b61500b61317c565b614ffc565b9061501a82614fe9565b61502760405191826131d0565b8281528092615038601f1991614fe9565b019060005b82811061504957505050565b602090615054614967565b8282850101520161503d565b80518210156150745760209160051b010190565b634e487b7160e01b600052603260045260246000fd5b604051906101c0820182811067ffffffffffffffff821117615105575b604052816101a06000918281528260208201528260408201528260608201528260808201528260a08201528260c08201528260e082015282610100820152826101208201528261014082015282610160820152826101808201520152565b61510d61317c565b6150a7565b1561511957565b60405162461bcd60e51b815260206004820152604e60248201526000805160206156ee83398151915260448201527f61696c61626c6520696e20746865207265736572766520746f206d616b65206160648201526d081b195b99081c1c9bdc1bdcd85b60921b608482015260a490fd5b60405190615196826131b4565b604082527f656e64416d6f756e74496e5765692c20636f6c6c61746572616c4c5456203a206040837f2020203d3e204c42504d203a205f616d6f756e742c207265717565737465644c60208201520152565b156151ef57565b60405162461bcd60e51b815260206004820152604960248201527f5468657265206973206e6f7420656e6f7567682062616c616e636520746f206c60448201527f656e6420696e206f7264657220746f20636f7665722061206e6577206c656e64606482015268081c1c9bdc1bdcd85b60ba1b608482015260a490fd5b60405190615279826131b4565b602f82526e032b73210383937b837b9b0b6101d1608d1b6040837f2020203d3e204c42504d203a204c656e642046656520666f722074686973206c60208201520152565b604051906152ca826131b4565b603d82527f626c6520526573657276652042616c616e636520696e20576569203a200000006040837f2020203d3e204c42504d203a20757365722043757272656e7420417661696c6160208201520152565b1561532357565b60a460405162461bcd60e51b815260206004820152604460248201527f4c656e64657220646f65736e2774206861766520656e6f75676820526573657260448201527f76652042616c616e636520746f2041636365707420426f72726f772050726f706064820152631bdcd85b60e21b6084820152fd5b604051906153a7826131b4565b602d82526c01024b731b932b0b9b2b2101d1609d1b6040837f2020203d3e204c42504d203a205573657220426f72726f772042616c616e636560208201520152565b156153f057565b60405162461bcd60e51b815260206004820152601960248201527f5b215d204c6f616e3a204c6f616e2069732065787069726564000000000000006044820152606490fd5b1561543c57565b60405162461bcd60e51b815260206004820152601060248201526f11985a5b081d1bc81b5a5b9d0813919560821b6044820152606490fd5b603654604051630283aeb760e11b81526001600160a01b0392831660048201529160209183916024918391165afa908115615527575b600091615509575b50156154ba57565b60405162461bcd60e51b815260206004820152602160248201527f416374696f6e20726571756972657320616e20616374697665207265736572766044820152606560f81b6064820152608490fd5b615521915060203d81116112835761127481836131d0565b386154b2565b61552f613207565b6154aa565b603654604051634a08accb60e01b81526001600160a01b0392831660048201529160209183916024918391165afa9081156155e8575b6000916155ca575b5061557957565b60405162461bcd60e51b8152602060048201526024808201527f416374696f6e20726571756972657320616e20756e667265657a6564207265736044820152636572766560e01b6064820152608490fd5b6155e2915060203d81116112835761127481836131d0565b38615572565b6155f0613207565b61556a565b156155fc57565b60405162461bcd60e51b815260206004820152601d60248201527f416d6f756e74206d7573742062652067726561746572207468616e20300000006044820152606490fd5b615684615670916133fe93604051938492632d839cb360e21b602085015260406024850152606484019061483b565b90604483015203601f1981018352826131d0565b600080916020815191016a636f6e736f6c652e6c6f675afa50565b615684916133fe946156cf9460405195869463a7a8785360e01b60208701526080602487015260a486019061483b565b9260448501526064840152608483015203601f1981018352826131d056fe5468657265206973206e6f7420656e6f756768206c6971756964697479206176a26469706673582212206e21f35da87b916dbce887a17d5c7631f942be736db999713f13c9900cc21cab64736f6c634300080d0033",
  "linkReferences": {},
  "deployedLinkReferences": {}
}