{
  "_format": "hh-sol-artifact-1",
  "contractName": "LendingBoardProposeModeTemporal",
  "sourceName": "contracts/lendingboard/LendingBoardProposeModeTemporal.sol",
  "abi": [
    {
      "inputs": [
        {
          "internalType": "contract LendingBoardNFT",
          "name": "_nft",
          "type": "address"
        }
      ],
      "stateMutability": "nonpayable",
      "type": "constructor"
    },
    {
      "anonymous": false,
      "inputs": [
        {
          "indexed": true,
          "internalType": "address",
          "name": "_reserve",
          "type": "address"
        },
        {
          "indexed": true,
          "internalType": "address",
          "name": "_user",
          "type": "address"
        },
        {
          "indexed": false,
          "internalType": "uint256",
          "name": "_amount",
          "type": "uint256"
        },
        {
          "indexed": false,
          "internalType": "uint256",
          "name": "_borrowRateMode",
          "type": "uint256"
        },
        {
          "indexed": false,
          "internalType": "uint256",
          "name": "_borrowRate",
          "type": "uint256"
        },
        {
          "indexed": false,
          "internalType": "uint256",
          "name": "_originationFee",
          "type": "uint256"
        },
        {
          "indexed": false,
          "internalType": "uint256",
          "name": "_borrowBalanceIncrease",
          "type": "uint256"
        },
        {
          "indexed": false,
          "internalType": "uint256",
          "name": "_timestamp",
          "type": "uint256"
        }
      ],
      "name": "Borrow",
      "type": "event"
    },
    {
      "anonymous": false,
      "inputs": [
        {
          "indexed": true,
          "internalType": "address",
          "name": "_reserveToLend",
          "type": "address"
        },
        {
          "indexed": true,
          "internalType": "address",
          "name": "_lender",
          "type": "address"
        },
        {
          "indexed": true,
          "internalType": "uint256",
          "name": "_proposalId",
          "type": "uint256"
        },
        {
          "indexed": false,
          "internalType": "uint256",
          "name": "_amount",
          "type": "uint256"
        },
        {
          "indexed": false,
          "internalType": "uint256",
          "name": "_originationFee",
          "type": "uint256"
        },
        {
          "indexed": false,
          "internalType": "uint256",
          "name": "_timestamp",
          "type": "uint256"
        }
      ],
      "name": "BorrowAccepted",
      "type": "event"
    },
    {
      "anonymous": false,
      "inputs": [
        {
          "indexed": true,
          "internalType": "address",
          "name": "_reserveToBorrow",
          "type": "address"
        },
        {
          "indexed": true,
          "internalType": "address",
          "name": "_borrowProposer",
          "type": "address"
        },
        {
          "indexed": true,
          "internalType": "uint256",
          "name": "_proposalId",
          "type": "uint256"
        },
        {
          "indexed": false,
          "internalType": "uint256",
          "name": "_amount",
          "type": "uint256"
        },
        {
          "indexed": false,
          "internalType": "address",
          "name": "_reserveForCollateral",
          "type": "address"
        },
        {
          "indexed": false,
          "internalType": "uint256",
          "name": "_interestRate",
          "type": "uint256"
        },
        {
          "indexed": false,
          "internalType": "uint256",
          "name": "_originationFee",
          "type": "uint256"
        },
        {
          "indexed": false,
          "internalType": "uint256",
          "name": "_dueDate",
          "type": "uint256"
        },
        {
          "indexed": false,
          "internalType": "uint256",
          "name": "_timestamp",
          "type": "uint256"
        }
      ],
      "name": "BorrowProposed",
      "type": "event"
    },
    {
      "anonymous": false,
      "inputs": [
        {
          "indexed": true,
          "internalType": "address",
          "name": "_reserve",
          "type": "address"
        },
        {
          "indexed": true,
          "internalType": "address",
          "name": "_user",
          "type": "address"
        },
        {
          "indexed": false,
          "internalType": "uint256",
          "name": "_amount",
          "type": "uint256"
        },
        {
          "indexed": false,
          "internalType": "uint256",
          "name": "_timestamp",
          "type": "uint256"
        }
      ],
      "name": "Deposit",
      "type": "event"
    },
    {
      "anonymous": false,
      "inputs": [
        {
          "indexed": true,
          "internalType": "address",
          "name": "_collateral",
          "type": "address"
        },
        {
          "indexed": true,
          "internalType": "address",
          "name": "_reserve",
          "type": "address"
        },
        {
          "indexed": true,
          "internalType": "address",
          "name": "_user",
          "type": "address"
        },
        {
          "indexed": false,
          "internalType": "uint256",
          "name": "_purchaseAmount",
          "type": "uint256"
        },
        {
          "indexed": false,
          "internalType": "uint256",
          "name": "_liquidatedCollateralAmount",
          "type": "uint256"
        },
        {
          "indexed": false,
          "internalType": "uint256",
          "name": "_accruedBorrowInterest",
          "type": "uint256"
        },
        {
          "indexed": false,
          "internalType": "address",
          "name": "_liquidator",
          "type": "address"
        },
        {
          "indexed": false,
          "internalType": "bool",
          "name": "_receiveAToken",
          "type": "bool"
        },
        {
          "indexed": false,
          "internalType": "uint256",
          "name": "_timestamp",
          "type": "uint256"
        }
      ],
      "name": "LiquidationCall",
      "type": "event"
    },
    {
      "anonymous": false,
      "inputs": [
        {
          "indexed": true,
          "internalType": "address",
          "name": "_collateral",
          "type": "address"
        },
        {
          "indexed": true,
          "internalType": "address",
          "name": "_reserve",
          "type": "address"
        },
        {
          "indexed": true,
          "internalType": "address",
          "name": "_user",
          "type": "address"
        },
        {
          "indexed": false,
          "internalType": "uint256",
          "name": "_feeLiquidated",
          "type": "uint256"
        },
        {
          "indexed": false,
          "internalType": "uint256",
          "name": "_liquidatedCollateralForFee",
          "type": "uint256"
        },
        {
          "indexed": false,
          "internalType": "uint256",
          "name": "_timestamp",
          "type": "uint256"
        }
      ],
      "name": "OriginationFeeLiquidated",
      "type": "event"
    },
    {
      "anonymous": false,
      "inputs": [
        {
          "indexed": true,
          "internalType": "address",
          "name": "_reserve",
          "type": "address"
        },
        {
          "indexed": true,
          "internalType": "address",
          "name": "_user",
          "type": "address"
        },
        {
          "indexed": false,
          "internalType": "uint256",
          "name": "_amount",
          "type": "uint256"
        },
        {
          "indexed": false,
          "internalType": "uint256",
          "name": "_timestamp",
          "type": "uint256"
        }
      ],
      "name": "RedeemUnderlying",
      "type": "event"
    },
    {
      "anonymous": false,
      "inputs": [
        {
          "indexed": true,
          "internalType": "address",
          "name": "_reserve",
          "type": "address"
        },
        {
          "indexed": true,
          "internalType": "address",
          "name": "_user",
          "type": "address"
        },
        {
          "indexed": true,
          "internalType": "address",
          "name": "_repayer",
          "type": "address"
        },
        {
          "indexed": false,
          "internalType": "uint256",
          "name": "_amountMinusFees",
          "type": "uint256"
        },
        {
          "indexed": false,
          "internalType": "uint256",
          "name": "_fees",
          "type": "uint256"
        },
        {
          "indexed": false,
          "internalType": "uint256",
          "name": "_borrowBalanceIncrease",
          "type": "uint256"
        },
        {
          "indexed": false,
          "internalType": "uint256",
          "name": "_timestamp",
          "type": "uint256"
        }
      ],
      "name": "Repay",
      "type": "event"
    },
    {
      "anonymous": false,
      "inputs": [
        {
          "indexed": true,
          "internalType": "address",
          "name": "_reserve",
          "type": "address"
        },
        {
          "indexed": true,
          "internalType": "address",
          "name": "_user",
          "type": "address"
        }
      ],
      "name": "ReserveUsedAsCollateralDisabled",
      "type": "event"
    },
    {
      "anonymous": false,
      "inputs": [
        {
          "indexed": true,
          "internalType": "address",
          "name": "_reserve",
          "type": "address"
        },
        {
          "indexed": true,
          "internalType": "address",
          "name": "_user",
          "type": "address"
        }
      ],
      "name": "ReserveUsedAsCollateralEnabled",
      "type": "event"
    },
    {
      "inputs": [],
      "name": "LENDINGPOOL_REVISION",
      "outputs": [
        {
          "internalType": "uint256",
          "name": "",
          "type": "uint256"
        }
      ],
      "stateMutability": "view",
      "type": "function"
    },
    {
      "inputs": [],
      "name": "UINT_MAX_VALUE",
      "outputs": [
        {
          "internalType": "uint256",
          "name": "",
          "type": "uint256"
        }
      ],
      "stateMutability": "view",
      "type": "function"
    },
    {
      "inputs": [],
      "name": "addressesProvider",
      "outputs": [
        {
          "internalType": "contract LendingBoardAddressesProvider",
          "name": "",
          "type": "address"
        }
      ],
      "stateMutability": "view",
      "type": "function"
    },
    {
      "inputs": [
        {
          "internalType": "address",
          "name": "_reserve",
          "type": "address"
        },
        {
          "internalType": "uint256",
          "name": "_amount",
          "type": "uint256"
        },
        {
          "internalType": "uint256",
          "name": "_interestRateMode",
          "type": "uint256"
        }
      ],
      "name": "borrow",
      "outputs": [],
      "stateMutability": "nonpayable",
      "type": "function"
    },
    {
      "inputs": [
        {
          "internalType": "address",
          "name": "_reserveToBorrow",
          "type": "address"
        },
        {
          "internalType": "uint256",
          "name": "_amount",
          "type": "uint256"
        },
        {
          "internalType": "address",
          "name": "_reserveForCollateral",
          "type": "address"
        },
        {
          "internalType": "uint256",
          "name": "_interestRate",
          "type": "uint256"
        },
        {
          "internalType": "uint256",
          "name": "_dueDate",
          "type": "uint256"
        }
      ],
      "name": "borrowProposal",
      "outputs": [],
      "stateMutability": "nonpayable",
      "type": "function"
    },
    {
      "inputs": [
        {
          "internalType": "uint256",
          "name": "proposalId",
          "type": "uint256"
        }
      ],
      "name": "borrowProposalAccept",
      "outputs": [],
      "stateMutability": "nonpayable",
      "type": "function"
    },
    {
      "inputs": [],
      "name": "borrowProposalListCount",
      "outputs": [
        {
          "internalType": "uint256",
          "name": "",
          "type": "uint256"
        }
      ],
      "stateMutability": "view",
      "type": "function"
    },
    {
      "inputs": [],
      "name": "core",
      "outputs": [
        {
          "internalType": "contract LendingBoardCore",
          "name": "",
          "type": "address"
        }
      ],
      "stateMutability": "view",
      "type": "function"
    },
    {
      "inputs": [],
      "name": "dataProvider",
      "outputs": [
        {
          "internalType": "contract LendingBoardDataProvider",
          "name": "",
          "type": "address"
        }
      ],
      "stateMutability": "view",
      "type": "function"
    },
    {
      "inputs": [
        {
          "internalType": "address",
          "name": "_reserve",
          "type": "address"
        },
        {
          "internalType": "uint256",
          "name": "_amount",
          "type": "uint256"
        },
        {
          "internalType": "uint16",
          "name": "_referralCode",
          "type": "uint16"
        }
      ],
      "name": "deposit",
      "outputs": [],
      "stateMutability": "payable",
      "type": "function"
    },
    {
      "inputs": [
        {
          "internalType": "uint256",
          "name": "proposalId",
          "type": "uint256"
        }
      ],
      "name": "getBorrowProposal",
      "outputs": [
        {
          "internalType": "bool",
          "name": "active",
          "type": "bool"
        },
        {
          "internalType": "address",
          "name": "borrower",
          "type": "address"
        },
        {
          "internalType": "address",
          "name": "reserveToBorrow",
          "type": "address"
        },
        {
          "internalType": "uint256",
          "name": "amount",
          "type": "uint256"
        },
        {
          "internalType": "address",
          "name": "reserveForCollateral",
          "type": "address"
        },
        {
          "internalType": "uint256",
          "name": "interestRate",
          "type": "uint256"
        },
        {
          "internalType": "uint256",
          "name": "dueDate",
          "type": "uint256"
        },
        {
          "internalType": "uint256",
          "name": "proposalDate",
          "type": "uint256"
        },
        {
          "internalType": "uint256",
          "name": "ltv",
          "type": "uint256"
        }
      ],
      "stateMutability": "view",
      "type": "function"
    },
    {
      "inputs": [
        {
          "internalType": "uint256",
          "name": "startIdx",
          "type": "uint256"
        },
        {
          "internalType": "uint256",
          "name": "endIdx",
          "type": "uint256"
        }
      ],
      "name": "getBorrowProposalList",
      "outputs": [
        {
          "components": [
            {
              "internalType": "bool",
              "name": "active",
              "type": "bool"
            },
            {
              "internalType": "address",
              "name": "borrower",
              "type": "address"
            },
            {
              "internalType": "address",
              "name": "reserveToBorrow",
              "type": "address"
            },
            {
              "internalType": "uint256",
              "name": "amount",
              "type": "uint256"
            },
            {
              "internalType": "address",
              "name": "reserveForCollateral",
              "type": "address"
            },
            {
              "internalType": "uint256",
              "name": "interestRate",
              "type": "uint256"
            },
            {
              "internalType": "uint256",
              "name": "dueDate",
              "type": "uint256"
            },
            {
              "internalType": "uint256",
              "name": "proposalDate",
              "type": "uint256"
            },
            {
              "internalType": "uint256",
              "name": "borrowFee",
              "type": "uint256"
            },
            {
              "internalType": "uint256",
              "name": "ltv",
              "type": "uint256"
            }
          ],
          "internalType": "struct LendingBoardProposeModeTemporal.BorrowProposal[]",
          "name": "result",
          "type": "tuple[]"
        }
      ],
      "stateMutability": "view",
      "type": "function"
    },
    {
      "inputs": [
        {
          "internalType": "address",
          "name": "_reserve",
          "type": "address"
        }
      ],
      "name": "getReserveConfigurationData",
      "outputs": [
        {
          "internalType": "uint256",
          "name": "ltv",
          "type": "uint256"
        },
        {
          "internalType": "uint256",
          "name": "liquidationThreshold",
          "type": "uint256"
        },
        {
          "internalType": "uint256",
          "name": "liquidationBonus",
          "type": "uint256"
        },
        {
          "internalType": "address",
          "name": "interestRateStrategyAddress",
          "type": "address"
        },
        {
          "internalType": "bool",
          "name": "usageAsCollateralEnabled",
          "type": "bool"
        },
        {
          "internalType": "bool",
          "name": "borrowingEnabled",
          "type": "bool"
        },
        {
          "internalType": "bool",
          "name": "stableBorrowRateEnabled",
          "type": "bool"
        },
        {
          "internalType": "bool",
          "name": "isActive",
          "type": "bool"
        }
      ],
      "stateMutability": "view",
      "type": "function"
    },
    {
      "inputs": [
        {
          "internalType": "address",
          "name": "_reserve",
          "type": "address"
        }
      ],
      "name": "getReserveData",
      "outputs": [
        {
          "internalType": "uint256",
          "name": "totalLiquidity",
          "type": "uint256"
        },
        {
          "internalType": "uint256",
          "name": "availableLiquidity",
          "type": "uint256"
        },
        {
          "internalType": "uint256",
          "name": "totalBorrowsStable",
          "type": "uint256"
        },
        {
          "internalType": "uint256",
          "name": "totalBorrowsVariable",
          "type": "uint256"
        },
        {
          "internalType": "uint256",
          "name": "liquidityRate",
          "type": "uint256"
        },
        {
          "internalType": "uint256",
          "name": "variableBorrowRate",
          "type": "uint256"
        },
        {
          "internalType": "uint256",
          "name": "stableBorrowRate",
          "type": "uint256"
        },
        {
          "internalType": "uint256",
          "name": "averageStableBorrowRate",
          "type": "uint256"
        },
        {
          "internalType": "uint256",
          "name": "utilizationRate",
          "type": "uint256"
        },
        {
          "internalType": "uint256",
          "name": "liquidityIndex",
          "type": "uint256"
        },
        {
          "internalType": "uint256",
          "name": "variableBorrowIndex",
          "type": "uint256"
        },
        {
          "internalType": "address",
          "name": "aTokenAddress",
          "type": "address"
        },
        {
          "internalType": "uint40",
          "name": "lastUpdateTimestamp",
          "type": "uint40"
        }
      ],
      "stateMutability": "view",
      "type": "function"
    },
    {
      "inputs": [],
      "name": "getReserves",
      "outputs": [
        {
          "internalType": "address[]",
          "name": "",
          "type": "address[]"
        }
      ],
      "stateMutability": "view",
      "type": "function"
    },
    {
      "inputs": [
        {
          "internalType": "address",
          "name": "_user",
          "type": "address"
        }
      ],
      "name": "getUserAccountData",
      "outputs": [
        {
          "internalType": "uint256",
          "name": "totalLiquidityETH",
          "type": "uint256"
        },
        {
          "internalType": "uint256",
          "name": "totalCollateralETH",
          "type": "uint256"
        },
        {
          "internalType": "uint256",
          "name": "totalBorrowsETH",
          "type": "uint256"
        },
        {
          "internalType": "uint256",
          "name": "totalFeesETH",
          "type": "uint256"
        },
        {
          "internalType": "uint256",
          "name": "availableBorrowsETH",
          "type": "uint256"
        },
        {
          "internalType": "uint256",
          "name": "currentLiquidationThreshold",
          "type": "uint256"
        },
        {
          "internalType": "uint256",
          "name": "ltv",
          "type": "uint256"
        },
        {
          "internalType": "uint256",
          "name": "healthFactor",
          "type": "uint256"
        }
      ],
      "stateMutability": "view",
      "type": "function"
    },
    {
      "inputs": [
        {
          "internalType": "address",
          "name": "_reserve",
          "type": "address"
        },
        {
          "internalType": "address",
          "name": "_user",
          "type": "address"
        }
      ],
      "name": "getUserReserveData",
      "outputs": [
        {
          "internalType": "uint256",
          "name": "currentATokenBalance",
          "type": "uint256"
        },
        {
          "internalType": "uint256",
          "name": "currentBorrowBalance",
          "type": "uint256"
        },
        {
          "internalType": "uint256",
          "name": "principalBorrowBalance",
          "type": "uint256"
        },
        {
          "internalType": "uint256",
          "name": "borrowRateMode",
          "type": "uint256"
        },
        {
          "internalType": "uint256",
          "name": "borrowRate",
          "type": "uint256"
        },
        {
          "internalType": "uint256",
          "name": "liquidityRate",
          "type": "uint256"
        },
        {
          "internalType": "uint256",
          "name": "originationFee",
          "type": "uint256"
        },
        {
          "internalType": "uint256",
          "name": "variableBorrowIndex",
          "type": "uint256"
        },
        {
          "internalType": "uint256",
          "name": "lastUpdateTimestamp",
          "type": "uint256"
        },
        {
          "internalType": "bool",
          "name": "usageAsCollateralEnabled",
          "type": "bool"
        }
      ],
      "stateMutability": "view",
      "type": "function"
    },
    {
      "inputs": [
        {
          "internalType": "contract LendingBoardAddressesProvider",
          "name": "_addressesProvider",
          "type": "address"
        }
      ],
      "name": "initialize",
      "outputs": [],
      "stateMutability": "nonpayable",
      "type": "function"
    },
    {
      "inputs": [
        {
          "internalType": "address",
          "name": "_collateral",
          "type": "address"
        },
        {
          "internalType": "address",
          "name": "_reserve",
          "type": "address"
        },
        {
          "internalType": "address",
          "name": "_user",
          "type": "address"
        },
        {
          "internalType": "uint256",
          "name": "_purchaseAmount",
          "type": "uint256"
        },
        {
          "internalType": "bool",
          "name": "_receiveAToken",
          "type": "bool"
        }
      ],
      "name": "liquidationCall",
      "outputs": [],
      "stateMutability": "payable",
      "type": "function"
    },
    {
      "inputs": [],
      "name": "nft",
      "outputs": [
        {
          "internalType": "contract LendingBoardNFT",
          "name": "",
          "type": "address"
        }
      ],
      "stateMutability": "view",
      "type": "function"
    },
    {
      "inputs": [],
      "name": "parametersProvider",
      "outputs": [
        {
          "internalType": "contract LendingBoardParametersProvider",
          "name": "",
          "type": "address"
        }
      ],
      "stateMutability": "view",
      "type": "function"
    },
    {
      "inputs": [
        {
          "internalType": "address",
          "name": "_reserve",
          "type": "address"
        },
        {
          "internalType": "address payable",
          "name": "_user",
          "type": "address"
        },
        {
          "internalType": "uint256",
          "name": "_amount",
          "type": "uint256"
        },
        {
          "internalType": "uint256",
          "name": "_aTokenBalanceAfterRedeem",
          "type": "uint256"
        }
      ],
      "name": "redeemUnderlying",
      "outputs": [],
      "stateMutability": "nonpayable",
      "type": "function"
    },
    {
      "inputs": [
        {
          "internalType": "address",
          "name": "_reserve",
          "type": "address"
        },
        {
          "internalType": "uint256",
          "name": "_amount",
          "type": "uint256"
        },
        {
          "internalType": "address payable",
          "name": "_onBehalfOf",
          "type": "address"
        }
      ],
      "name": "repay",
      "outputs": [],
      "stateMutability": "payable",
      "type": "function"
    },
    {
      "inputs": [
        {
          "internalType": "address",
          "name": "_reserve",
          "type": "address"
        },
        {
          "internalType": "bool",
          "name": "_useAsCollateral",
          "type": "bool"
        }
      ],
      "name": "setUserUseReserveAsCollateral",
      "outputs": [],
      "stateMutability": "nonpayable",
      "type": "function"
    }
  ],
  "bytecode": "0x6080346200009157601f62004bcb38819003918201601f19168301916001600160401b0383118484101762000096578084926020946040528339810103126200009157516001600160a01b038116810362000091576001600081815590819055603c55603a80546001600160a01b0319166001600160a01b03909216919091179055604051614b1e9081620000ad8239f35b600080fd5b634e487b7160e01b600052604160045260246000fdfe60806040526004361015610013575b600080fd5b60003560e01c8062a718a9146101f25780630902f1ac146101e957806328dd2d01146101e057806329e6a05f146101d757806335ea6a75146101ce5780633815d34c146101c55780633e150141146101bc57806347ccca02146101b357806358707e06146101aa5780635a3b74b9146101a15780635ceae9c41461019857806379cc211e1461018f5780638afaff02146101865780638fabf76d1461017d5780639895e3d814610174578063ab1e8a211461016b578063b334ed8614610162578063bf92857c14610159578063c1bce0b714610150578063c4d66de814610147578063c72c4d101461013e578063d0fc81d214610135578063d2d0e0661461012c5763f2f4eb261461012457600080fd5b61000e61239b565b5061000e6120ba565b5061000e61209c565b5061000e612072565b5061000e611f83565b5061000e611940565b5061000e61181c565b5061000e6117f2565b5061000e61173c565b5061000e61167d565b5061000e610fc4565b5061000e610fa7565b5061000e610df5565b5061000e610da3565b5061000e610b24565b5061000e610afa565b5061000e610ad0565b5061000e6109c5565b5061000e610914565b5061000e6106a0565b5061000e610681565b5061000e610552565b5061000e610441565b5061000e610216565b6001600160a01b0381160361000e57565b8015150361000e57565b5060a036600319011261000e5760043561022f816101fb565b60243561023b816101fb565b61033b60008060443561024d816101fb565b6084359461025a8661020c565b6102626126a7565b61026b8161486f565b6102748761486f565b603554610291906001600160a01b03165b6001600160a01b031690565b91604051968793632bd7cfb760e11b855284600460209a8b935afa9384156103e5575b85946103b2575b5060405162a718a960e01b8982019081526001600160a01b039a8b166024830152938a166044820152989091166064808a0191909152356084890152151560a48801528660c481015b0396610318601f1998898101835282612419565b51915af461032d6103276138db565b9161390b565b82808251830101910161398c565b9061034c5761034a6001600055565b005b6103ae926103849261038a6103969360405195869384016014907302634b8bab4b230ba34b7b7103330b4b632b21d160651b81520190565b906139f3565b03908101835282612419565b60405162461bcd60e51b815291829160048301613a2b565b0390fd5b6103049194506103d790893d8b116103de575b6103cf8183612419565b81019061243b565b93906102bb565b503d6103c5565b6103ed612453565b6102b4565b600091031261000e57565b6020908160408183019282815285518094520193019160005b828110610424575050505090565b83516001600160a01b031685529381019392810192600101610416565b503461000e5760008060031936011261053a57603654604051630240bc6b60e21b815291908190839060049082906001600160a01b03165afa908115610545575b809161049b575b6040518061049784826103fd565b0390f35b90503d8082843e6104ac8184612419565b8201602092838183031261053d5780519067ffffffffffffffff8211610541570181601f8201121561053d578051906104e4826147ce565b936104f26040519586612419565b828552858086019360051b83010193841161053a57508401905b82821061052157505050610497915038610489565b848091835161052f816101fb565b81520191019061050c565b80fd5b8280fd5b8380fd5b61054d612453565b610482565b503461000e57604036600319011261000e57600435610570816101fb565b6024359061057d826101fb565b6037546040516328dd2d0160e01b81526001600160a01b03928316600482015292821660248401526101409291839183916044918391165afa8015610674575b60009081928283848590869287948896899861062a575b5061049798999a506040519a8b9a8b9895926101209895929b9a9794919b6101408b019c8b5260208b015260408a01526060890152608088015260a087015260c086015260e08501526101008401521515910152565b9850505050505050505061065891508261049793903d1061066d575b6106508183612419565b810190613aa8565b97998a999897919692959394939291906105d4565b503d610646565b61067c612453565b6105bd565b503461000e57600036600319011261000e576020603c54604051908152f35b503461000e57602036600319011261000e576004356106be816101fb565b6037546040516335ea6a7560e01b81526001600160a01b0392831660048201526101a0929091839183916024918391165afa8015610843575b600090819282838485868791889389958a978b998c9b61078c575b506104979b9c9d506040519d8e9d8e9b99979593919d9c9a98969492909d6101a08d019e8d5260208d015260408c015260608b015260808a015260a089015260c088015260e0870152610100860152610120850152610140840152600160a01b600190031661016083015264ffffffffff16906101800152565b9c5050505050505050505050509181813d831161083c575b6107ae8183612419565b8101031261083857805190602081015190604081015192606082015191608081015160a082015160c083015160e0840151610100850151916101208601519361014087015195610180610160890151986108078a6101fb565b01519864ffffffffff8a168a03610834576104979b9c9d509b9c99909192939495969798998d9c9b610712565b8d80fd5b5080fd5b503d6107a4565b61084b612453565b6106f7565b60208082019080835283518092528060408094019401926000905b83821061087a57505050505090565b909192939483610140600192885161089482825115159052565b808401516001600160a01b031682850152808601516001600160a01b031682870152606081810151908301526080808201516001600160a01b03169083015260a0818101519083015260c0808201519083015260e0808201519083015261010080820151908301526101209081015190820152019601949392019061086b565b503461000e57604036600319011261000e57600435602435610939603c54821061471c565b61096061094e61094984846130f9565b613074565b61095b6107d08210614777565b6147f5565b916000905b8281111561097b57604051806104978682610850565b806109ba6109966109c093600052603b602052604060002090565b936109a96109a382613e1f565b95613efd565b6109b38289614845565b5286614845565b50613e1f565b610965565b503461000e57602036600319011261000e576004356109e3816101fb565b603754604051633e15014160e01b81526001600160a01b039283166004820152610100929091839183916024918391165afa8015610ac3575b600090819282838490859286948796610a7e575b50604080519788526020880198909852968601969096526001600160a01b039095166060850152931515608084015292151560a083015291151560c082015290151560e08201526101009150f35b9650505050505050610aaa91508261049793903d10610abc575b610aa28183612419565b810190613af7565b95978897969591949293929190610a30565b503d610a98565b610acb612453565b610a1c565b503461000e57600036600319011261000e57603a546040516001600160a01b039091168152602090f35b503461000e57600036600319011261000e576038546040516001600160a01b039091168152602090f35b503461000e5760408060031936011261000e5760043590610b44826101fb565b60243591610b518361020c565b610b596126a7565b610b628161486f565b610b6b8161492f565b603654610b80906001600160a01b0316610285565b8251630c526de560e11b81526001600160a01b0383166004820152336024820152909390610c3e90602090610c2390829081816044818c5afa908115610d96575b600091610d69575b50610bd58115156137ec565b603754610bea906001600160a01b0316610285565b88516376e9d61560e01b81526001600160a01b038916600482015233602482015260448101929092529092839190829081906064820190565b03915afa918215610d5c575b600092610d2f575b505061384b565b833b1561000e578251633e94615360e21b81526001600160a01b0383166004820152336024820152811515604482015260009485908290606490829084905af18015610d22575b610d09575b508314610cd157815133916001600160a01b0316907e058a56ea94653cdf4f152d227ace22d4c00ad99e2a43f58cb7d9e3feb295f2908590a35b610cce6001600055565b51f35b815133916001600160a01b0316907f44c58d81365b66dd4b1a7f36c25aa97b8c71c361ee4937adc1a00000227db5dd908590a3610cc4565b80610d16610d1c926123dc565b806103f2565b38610c8a565b610d2a612453565b610c85565b610d4e9250803d10610d55575b610d468183612419565b810190612a7b565b3880610c37565b503d610d3c565b610d64612453565b610c2f565b610d899150823d8411610d8f575b610d818183612419565b810190612698565b38610bc9565b503d610d77565b610d9e612453565b610bc1565b50606036600319011261000e57610dee600435610dbf816101fb565b60243560443591610dcf836101fb565b610dd76126a7565b610de08161486f565b610de9826149f0565b613110565b6001600055005b503461000e57602036600319011261000e57600435603c548111610f6d57610e31610e2a82600052603b602052604060002090565b5460ff1690565b610497610e5b610e4b84600052603b602052604060002090565b5460081c6001600160a01b031690565b92610e836001610e7583600052603b602052604060002090565b01546001600160a01b031690565b906002610e9a82600052603b602052604060002090565b0154610eb56003610e7584600052603b602052604060002090565b6004610ecb84600052603b602052604060002090565b0154906005610ee485600052603b602052604060002090565b0154926008610f156006610f0288600052603b602052604060002090565b015496600052603b602052604060002090565b015495604051998a998a9592919361010097949a999895919a61012088019b1515885260018060a01b03938480921660208a0152166040880152606087015216608085015260a084015260c083015260e08201520152565b60405162461bcd60e51b8152602060048201526012602482015271125b9d985b1a59081c1c9bdc1bdcd85b125960721b6044820152606490fd5b503461000e57600036600319011261000e57602060405160038152f35b503461000e5760a036600319011261000e57610fe16004356101fb565b610fec6044356101fb565b610ff46126a7565b610fff60043561486f565b61100a60043561492f565b6110156024356149f0565b61101d613a3c565b6004611027612a0a565b60365461103c906001600160a01b0316610285565b60405163288d4ff760e21b81526001600160a01b03843516848201908152909291906020908490819083010381845afa928315611670575b60009361164f575b50603554602090611095906001600160a01b0316610285565b604051631f94a27560e31b815295869182905afa938415611642575b60009461161d575b506001855261115e90336020870152604051632e79732b60e11b8152600480356001600160a01b03169082015261110e9060208180602481015b0381865afa908115611610575b6000916115f1575b50612a90565b60405163e240301960e01b8152600480356001600160a01b03169082015290602090829081806024810103915afa9081156115e4575b6000916115c5575b50806101608401526024351115612b6c565b603754611173906001600160a01b0316610285565b6040516328dd2d0160e01b8152604480356001600160a01b031660048301523360248301529193916111d6916111c8916101409081908390818a5afa9182156115b8575b600091829361158e575b50506130f9565b670de0b6b3a7640000900490565b604051633e15014160e01b8152600480356001600160a01b0316908201529361010090859081806024810103915afa938415611581575b60009461154f575b5060405163b3596f0760e01b8152600480356001600160a01b0316908201529394929361133c93611329916112999061128b9061127c90602081806024810103816001600160a01b0389165afa908115611542575b600091611523575b5060243590612ee0565b61128587613b5c565b90612eff565b94611294613b78565b614a3c565b611321876113046112b5826112b089602435612ee0565b612eff565b60405163b3596f0760e01b81526001600160a01b036044351660048201529094602090829081806024810103916001600160a01b03165afa908115611516575b6000916114f7575b5084612eff565b9561131186611294613bcd565b60243561131c613c18565b614a9a565b611294613c77565b61133582611294613cc7565b1015613d1e565b603954611351906001600160a01b0316610285565b604051630e563a7d60e41b815233600482015260248035908201529190602090839060449082905afa9182156114ea575b6000926114c2575b50606061139d9101918083521515612cd6565b6001600160a01b0360043516604084015260243560608401526001600160a01b036044351660808401527fddda05bca10ccedb67628486050c0637ba56c3b1d4d271f7524748d5e3931c856114ab60643592831515806114b8575b61140190613d90565b8360a087015260843594611416428711613ddc565b8560c08801524260e08801528151610100880152610120870152611461603c549661144861144389613e1f565b603c55565b61145c88600052603b602052604060002090565b613e2f565b516040805160243581526001600160a01b036044358116602083015291810195909552606085019190915260808401949094524260a08401523393600435169290819060c0820190565b0390a461034a6001600055565b50606484106113f8565b61139d9192506114e260609160203d602011610d8f57610d818183612419565b92915061138a565b6114f2612453565b611382565b611510915060203d602011610d8f57610d818183612419565b386112fd565b61151e612453565b6112f5565b61153c915060203d602011610d8f57610d818183612419565b38611272565b61154a612453565b61126a565b61133c939450611572611329916101003d61010011610abc57610aa28183612419565b50505050505050949350611215565b611589612453565b61120d565b6115a8935080919250903d1061066d576106508183612419565b50505050505050509038806111c1565b6115c0612453565b6111b7565b6115de915060203d602011610d8f57610d818183612419565b3861114c565b6115ec612453565b611144565b61160a915060203d602011610d5557610d468183612419565b38611108565b611618612453565b611100565b61115e91945061163b9060203d6020116103de576103cf8183612419565b93906110b9565b61164a612453565b6110b1565b61166991935060203d602011610d8f57610d818183612419565b913861107c565b611678612453565b611074565b503461000e57608036600319011261000e5761170760043561169e816101fb565b602435906116ab826101fb565b6116b36126a7565b6116fa60018060a01b0360246020826036541660405192838092631a59df7760e11b825286891660048301525afa90811561172f575b600091611711575b501633146126fd565b6064359160443591612783565b61034a6001600055565b611729915060203d81116103de576103cf8183612419565b386116f1565b611737612453565b6116e9565b503461000e57602036600319011261000e57600435611759613a3c565b5080600052603b6020526117706040600020613efd565b906001825115150361179957604082015160609092015161034a926001600160a01b0316613f92565b60405162461bcd60e51b815260206004820152602b60248201527f4f6e6c792041637469766520426f72726f772050726f706f73616c2063616e2060448201526a1899481058d8d95c1d195960aa1b6064820152608490fd5b503461000e57600036600319011261000e576037546040516001600160a01b039091168152602090f35b503461000e57602036600319011261000e5760043561183a816101fb565b603754604051632fe4a15f60e21b81526001600160a01b0392831660048201529161010091829184916024918391165afa8015611933575b6000908192828384908592869487966118cc575b50610497969798506040519889988994919260e0969399989794919961010087019a8752602087015260408601526060850152608084015260a083015260c08201520152565b96975050505050505082813d831161192c575b6118e98183612419565b8101031261053a57508051602082015160408301516060840151608085015160a086015160c087015160e090970151949687969594909391929190610497611886565b503d6118df565b61193b612453565b611872565b503461000e57606036600319011261000e5761195d6004356101fb565b6044356119686126a7565b61197360043561486f565b61197e60043561492f565b6119896024356149f0565b611991612a0a565b603654611c30906040906119ad906001600160a01b0316610285565b8151632e79732b60e11b8152600480356001600160a01b0316908201526119db9060208180602481016110f3565b846002148015611f79575b6119ef90612b08565b6119f885612ae8565b6101c0840190611a088683612b60565b825163e240301960e01b8152600480356001600160a01b031690820152611a5490602081602481865afa908115611f6c575b600091611f4d575b50806101608801526024351115612b6c565b603754611bdf90611a6d906001600160a01b0316610285565b8451632c6d0e9b60e01b815233600482015260209061010090611afe90611af990611af59084816024818a5afa908115611f40575b8d60009182908390849085908697611efb575b509260c0928592879695611ad46101e0611aef9a98019a8b9015159052565b60408501528d8401528b83015260e082015201521515612c18565b51151590565b1590565b612c64565b603954611b5b90611b17906001600160a01b0316610285565b8851630e563a7d60e41b81523360048201526024803590820152908490829060449082905afa908115611eee575b600091611ed1575b508060608c01521515612cd6565b606089015160e08a0151918a0151838b015189516312737c3360e01b8152600480356001600160a01b031690820152602480359082015260448101939093526064830193909352608482015260a4810191909152918290818060c4810103915afa908115611ec4575b600091611ea5575b508060a088015260c08701511015612d2c565b60018251611bec81612ae8565b611bf581612ae8565b14611d97575b6060850151915191611c0c83612ae8565b60008451809681958294630deb1bf960e21b84526024353360043560048701612e8f565b03925af1928315611d8a575b6000918294611d57575b5061012083019384526101a08301918252603654611c6c906001600160a01b0316610285565b803b1561000e5760405163fa93b2a560e01b8152600480356001600160a01b031690820152336024808301919091523560448201527fe27fbad0754d6c730a8161378bc066f66fac114445968dcfc26d42a3002960139360609290919060009082908183816064810103925af18015611d4a575b611d37575b505193015193516040805160243581526020810193909352820193909352606081019390935260808301919091524260a083015233916001600160a01b0360043516919060c090a361034a6001600055565b80610d16611d44926123dc565b38611ce5565b611d52612453565b611ce0565b909350611d7c915060403d604011611d83575b611d748183612419565b810190612e79565b9238611c46565b503d611d6a565b611d92612453565b611c3c565b825163710ba6c360e11b8152600480356001600160a01b03169082015233602480830191909152356044820152611de790602081606481865afa908115611e98575b600091611e79575b50612d95565b611e48611e3e611e3760046020611e0861028560385460018060a01b031690565b88516335adc96b60e21b815292839182905afa908115611e6c575b600091611e4d575b50610160890151612ee0565b6064900490565b6024351115612e07565b611bfb565b611e66915060203d602011610d8f57610d818183612419565b38611e2b565b611e74612453565b611e23565b611e92915060203d602011610d5557610d468183612419565b38611de1565b611ea0612453565b611dd9565b611ebe915060203d602011610d8f57610d818183612419565b38611bcc565b611ecc612453565b611bc4565b611ee89150843d8611610d8f57610d818183612419565b38611b4d565b611ef6612453565b611b45565b9250505060c09450611aef9350611f289150883d8a11611f39575b611f208183612419565b810190612bd7565b999598509395509193909250611ab5565b503d611f16565b611f48612453565b611aa2565b611f66915060203d602011610d8f57610d818183612419565b38611a42565b611f74612453565b611a3a565b50600185146119e6565b503461000e57602036600319011261000e57600435611fa1816101fb565b60ff600254169081159182612069575b801561205d575b1561200157611fcb9082611fe057612460565b611fd157005b61034a60ff1960025416600255565b611ff2600160ff196002541617600255565b611ffc6003600155565b612460565b60405162461bcd60e51b815260206004820152602e60248201527f436f6e747261637420696e7374616e63652068617320616c726561647920626560448201526d195b881a5b9a5d1a585b1a5e995960921b6064820152608490fd5b50600154600311611fb8565b50303b15611fb1565b503461000e57600036600319011261000e576035546040516001600160a01b039091168152602090f35b503461000e57600036600319011261000e5760206040516000198152f35b50606036600319011261000e5760048035906120d5826101fb565b6024359160443561ffff81160361000e576120ee6126a7565b6120f7836149f0565b60365461210c906001600160a01b0316610285565b60408051631a59df7760e11b81526001600160a01b0384168186019081529095919491929060209081908890819083010381855afa96871561238e575b60009761236f575b5085516370a0823160e01b8152338482019081526001600160a01b039889169391908390829081906020010381875afa928315612362575b600093612343575b5050803b1561000e578651632f35bfe960e21b81526001600160a01b038716858201908152336020820152604081018790529215606084015291600091839182908490829060800103925af18015612336575b612323575b50803b1561000e5784516394362e8b60e01b81523383820190815260208101859052909160009183919082908490829060400103925af18015612316575b612303575b50603654612242906001600160a01b0316610285565b803b1561000e5784516328fcf4d360e01b81526001600160a01b038516928101928352336020840152604083018490526000967fdcbc1c05240f31ff3ad067ef1ee35ce4997762752e3a095284754544f4c709d7936122d693919291899183919082908190606001039134905af180156122f6575b6122e3575b508551938452426020850152339416929081906040820190565b0390a3610cce6001600055565b80610d166122f0926123dc565b386122bc565b6122fe612453565b6122b7565b80610d16612310926123dc565b3861222c565b61231e612453565b612227565b80610d16612330926123dc565b386121e9565b61233e612453565b6121e4565b61235a929350803d10610d8f57610d818183612419565b903880612191565b61236a612453565b612189565b816123879298503d89116103de576103cf8183612419565b9538612151565b612396612453565b612149565b503461000e57600036600319011261000e576036546040516001600160a01b039091168152602090f35b50634e487b7160e01b600052604160045260246000fd5b67ffffffffffffffff81116123f057604052565b6123f86123c5565b604052565b6060810190811067ffffffffffffffff8211176123f057604052565b90601f8019910116810190811067ffffffffffffffff8211176123f057604052565b9081602091031261000e5751612450816101fb565b90565b506040513d6000823e3d90fd5b603580546001600160a01b0319166001600160a01b039290921691821790556125ec9061248c90610285565b6040518091630774f5f560e21b825281600460209384935afa91821561268b575b60009261266c575b50603680546001600160a01b0319166001600160a01b03938416179055612530826004836124ed61028560355460018060a01b031690565b6040516352cb335b60e11b815292839182905afa90811561265f575b600091612642575b501660018060a01b03166001600160601b0360a01b6037541617603755565b61258e8260048361254b61028560355460018060a01b031690565b604051639fabe17560e01b815292839182905afa908115612635575b600091612618575b501660018060a01b03166001600160601b0360a01b6038541617603855565b60355460049082906125a8906001600160a01b0316610285565b604051633efbbf0f60e21b815292839182905afa91821561260b575b6000926125ee575b50501660018060a01b03166001600160601b0360a01b6039541617603955565b565b6126049250803d106103de576103cf8183612419565b38806125cc565b612613612453565b6125c4565b61262f9150843d86116103de576103cf8183612419565b3861256f565b61263d612453565b612567565b6126599150843d86116103de576103cf8183612419565b38612511565b612667612453565b612509565b816126849293503d84116103de576103cf8183612419565b90386124b5565b612693612453565b6124ad565b9081602091031261000e575190565b6002600054146126b8576002600055565b60405162461bcd60e51b815260206004820152601f60248201527f5265656e7472616e637947756172643a207265656e7472616e742063616c6c006044820152606490fd5b1561270457565b60405162461bcd60e51b815260206004820152604b60248201527f5468652063616c6c6572206f6620746869732066756e6374696f6e2063616e2060448201527f6f6e6c79206265207468652061546f6b656e20636f6e7472616374206f66207460648201526a686973207265736572766560a81b608482015260a490fd5b9261278d8461486f565b612796836149f0565b6036546127ab906001600160a01b0316610285565b60405163e240301960e01b81526001600160a01b03861660048201526127ee908590602081602481875afa908115612955575b600091612937575b501015612962565b803b1561000e5760405163afcdbea360e01b81526001600160a01b0386811660048301528416602482015260448101859052911560648301526000908290608490829084905af1801561292a575b612917575b50603654612857906001600160a01b0316610285565b803b1561000e5760405163fa93b2a560e01b81526001600160a01b03858116600483015283166024820152604481018490527f9c4ed599cd8555b9c1e8cd7643240d7d71eb76b792948c49fcb4d411f7b6b3c6926128f2929091906000908290606490829084905af1801561290a575b6128f7575b50604080519485524260208601526001600160a01b039182169590911693918291820190565b0390a3565b80610d16612904926123dc565b386128cc565b612912612453565b6128c7565b80610d16612924926123dc565b38612841565b612932612453565b61283c565b61294f915060203d8111610d8f57610d818183612419565b386127e6565b61295d612453565b6127de565b1561296957565b60405162461bcd60e51b815260206004820152603160248201527f5468657265206973206e6f7420656e6f756768206c697175696469747920617660448201527061696c61626c6520746f2072656465656d60781b6064820152608490fd5b60405190610200820182811067ffffffffffffffff8211176123f057604052565b60405190610140820182811067ffffffffffffffff8211176123f057604052565b612a126129c8565b9060008083528060208401528060408401528060608401528060808401528060a08401528060c08401528060e08401528061010084015280610120840152806101408401528061016084015280610180840152806101a0840152806101c08401526101e0830152565b9081602091031261000e57516124508161020c565b15612a9757565b60405162461bcd60e51b8152602060048201526024808201527f52657365727665206973206e6f7420656e61626c656420666f7220626f72726f60448201526377696e6760e01b6064820152608490fd5b60031115612af257565b634e487b7160e01b600052602160045260246000fd5b15612b0f57565b60405162461bcd60e51b815260206004820152602360248201527f496e76616c696420696e7465726573742072617465206d6f64652073656c65636044820152621d195960ea1b6064820152608490fd5b6003821015612af25752565b15612b7357565b60405162461bcd60e51b815260206004820152603660248201527f5468657265206973206e6f7420656e6f756768206c697175696469747920617660448201527561696c61626c6520696e20746865207265736572766560501b6064820152608490fd5b91908261010091031261000e5781519160208101519160408201519160608101519160808201519160a08101519160e060c08301519201516124508161020c565b15612c1f57565b60405162461bcd60e51b815260206004820152601b60248201527f54686520636f6c6c61746572616c2062616c616e6365206973203000000000006044820152606490fd5b15612c6b57565b60405162461bcd60e51b815260206004820152603f60248201527f54686520626f72726f7765722063616e20616c7265616479206265206c69717560448201527f69646174656420736f2068652063616e6e6f7420626f72726f77206d6f7265006064820152608490fd5b15612cdd57565b60405162461bcd60e51b815260206004820152602160248201527f54686520616d6f756e7420746f20626f72726f7720697320746f6f20736d616c6044820152601b60fa1b6064820152608490fd5b15612d3357565b60405162461bcd60e51b815260206004820152603460248201527f5468657265206973206e6f7420656e6f75676820636f6c6c61746572616c20746044820152736f20636f7665722061206e657720626f72726f7760601b6064820152608490fd5b15612d9c57565b60405162461bcd60e51b815260206004820152603960248201527f557365722063616e6e6f7420626f72726f77207468652073656c65637465642060448201527f616d6f756e742077697468206120737461626c652072617465000000000000006064820152608490fd5b15612e0e57565b60405162461bcd60e51b815260206004820152603c60248201527f5573657220697320747279696e6720746f20626f72726f7720746f6f206d756360448201527f68206c6971756964697479206174206120737461626c652072617465000000006064820152608490fd5b919082604091031261000e576020825192015190565b6001600160a01b039182168152911660208201526040810191909152606081019190915260a081019291906003821015612af25760800152565b50634e487b7160e01b600052601160045260246000fd5b8060001904821181151516612ef3570290565b612efb612ec9565b0290565b8115612f09570490565b634e487b7160e01b600052601260045260246000fd5b60405190610100820182811067ffffffffffffffff821117612f70575b6040528160e06000918281528260208201528260408201528260608201528260808201528260a08201528260c08201520152565b612f786123c5565b612f3c565b9081606091031261000e578051916040602083015192015190565b15612f9f57565b60405162461bcd60e51b815260206004820152602960248201527f546865207573657220646f6573206e6f74206861766520616e7920626f72726f604482015268772070656e64696e6760b81b6064820152608490fd5b15612ffd57565b60a460405162461bcd60e51b815260206004820152604460248201527f546f207265706179206f6e20626568616c66206f6620616e207573657220616e60448201527f206578706c6963697420616d6f756e7420746f207265706179206973206e65656064820152633232b21760e11b6084820152fd5b6001906001198111613084570190565b61308c612ec9565b0190565b81198111613084570190565b156130a357565b60405162461bcd60e51b815260206004820152602860248201527f496e76616c6964206d73672e76616c75652073656e7420666f72207468652072604482015267195c185e5b595b9d60c21b6064820152608490fd5b818110613104570390565b61310c612ec9565b0390565b613118612f1f565b603654909190613130906001600160a01b0316610285565b60408051639fb8afcd60e01b81526001600160a01b038481166004830152871660248201529491939091606086604481885afa9586156137df575b600090819082986137aa575b5083850197885260208085019182529184528451633faacc6b60e21b81526001600160a01b0387811660048301528a1660248201529180836044818b5afa92831561379d575b60009361377e575b5060e0850192835273eeeeeeeeeeeeeeeeeeeeeeeeeeeeeeeeeeeeeeee6001600160a01b03888116918214606088019081529199909691958c919061320c86511515612f98565b6132276000198214938a8515918296613770575b5050612ff6565b6132348651885190613090565b92608085019380855281613766575b5061375e575b50613257611af58851151590565b8015613753575b6132679061309c565b8151865181111561355c57505061328360a091518651906130f9565b91018181526036549093906132a0906001600160a01b0316610285565b91855192818d51935114813b1561000e5760008f916133088e9183978f51998a988997889663da12d96f60e01b885260048801949196959260a0949160c0870198600180881b0380921688521660208701526040860152606085015260808401521515910152565b03925af1801561354f575b61353c575b5082519081613426575b50506036546133449061333d906001600160a01b0316610285565b9351151590565b6000901561342057506133588251346130f9565b955b815196843b1561000e5786516328fcf4d360e01b81526001600160a01b0392909216600483015233602483015260448201979097527fb718f0b14f03d8c3adf35b15e3da52421b042ac879e5a689011a8b1e0036773d966133fb94600091839160649183915af18015613413575b613400575b5051905196519351938493339916974292859094939260609260808301968352602083015260408201520152565b0390a4565b80610d1661340d926123dc565b386133cd565b61341b612453565b6133c8565b9561335a565b60365461343b906001600160a01b0316610285565b906134468651151590565b60009015613536575082915b603554600490839061346c906001600160a01b0316610285565b8b51637744894b60e11b815292839182905afa928315613529575b60009361350a575b5050803b1561000e57885163c7d1423760e01b81526001600160a01b038b81166004830152336024830152604482019590955291909316606482015291600091839160849183915af180156134fd575b6134ea575b80613322565b80610d166134f7926123dc565b386134e4565b613505612453565b6134df565b613521929350803d106103de576103cf8183612419565b90388061348f565b613531612453565b613487565b91613452565b80610d16613549926123dc565b38613318565b613557612453565b613313565b9250929350935089969997949751823b1561000e578a5163da12d96f60e01b81526001600160a01b0387811660048301528d1660248201526000604482018190526064820193909352608481019190915260a4810182905291829060c490829084905af18015613746575b613733575b506036546135ed906135e6906001600160a01b0316610285565b9651151590565b6000901561372e575081515b82516035546004908490613615906001600160a01b0316610285565b8c51637744894b60e11b815292839182905afa938415613721575b600094613702575b5050873b1561000e57895163c7d1423760e01b81526001600160a01b0395861660048201528b8616602482015260448101919091529190931660648201527fb718f0b14f03d8c3adf35b15e3da52421b042ac879e5a689011a8b1e0036773d956133fb9360009183916084918391905af180156136f5575b6136e2575b50519251955192839233981696429184606091949392608082019560008352602083015260408201520152565b80610d166136ef926123dc565b386136b5565b6136fd612453565b6136b0565b613719929450803d106103de576103cf8183612419565b913880613638565b613729612453565b613630565b6135f9565b80610d16613740926123dc565b386135cc565b61374e612453565b6135c7565b50815134101561325e565b825238613249565b9050811038613243565b9091501633148f8b90613220565b816137969294503d8511610d8f57610d818183612419565b91386131c5565b6137a5612453565b6131bd565b9150506137cf91965060603d81116137d8575b6137c78183612419565b810190612f7d565b96919038613177565b503d6137bd565b6137e7612453565b61316b565b156137f357565b60405162461bcd60e51b815260206004820152602a60248201527f5573657220646f6573206e6f74206861766520616e79206c69717569646974796044820152690819195c1bdcda5d195960b21b6064820152608490fd5b1561385257565b60405162461bcd60e51b815260206004820152603060248201527f55736572206465706f73697420697320616c7265616479206265696e6720757360448201526f195908185cc818dbdb1b185d195c985b60821b6064820152608490fd5b60209067ffffffffffffffff81116138ce575b601f01601f19160190565b6138d66123c5565b6138c3565b3d15613906573d906138ec826138b0565b916138fa6040519384612419565b82523d6000602084013e565b606090565b1561391257565b60405162461bcd60e51b815260206004820152601760248201527f4c69717569646174696f6e2063616c6c206661696c65640000000000000000006044820152606490fd5b918091926000905b828210613977575011613970575050565b6000910152565b9150806020918301518186015201829161395f565b919060408382031261000e5782519260208101519067ffffffffffffffff821161000e570181601f8201121561000e5780516139c7816138b0565b926139d56040519485612419565b8184526020828401011161000e576124509160208085019101613957565b9061308c60209282815194859201613957565b90602091613a1f81518092818552858086019101613957565b601f01601f1916010190565b906020612450928181520190613a06565b60405190610140820182811067ffffffffffffffff821117613a9b575b604052816101206000918281528260208201528260408201528260608201528260808201528260a08201528260c08201528260e0820152826101008201520152565b613aa36123c5565b613a59565b91908261014091031261000e5781519160208101519160408201519160608101519160808201519160a08101519160c08201519160e0810151916101206101008301519201516124508161020c565b91908261010091031261000e578151916020810151916040820151916060810151613b21816101fb565b916080820151613b308161020c565b9160a0810151613b3f8161020c565b9160e060c0830151613b508161020c565b9201516124508161020c565b604d8111613b6b575b600a0a90565b613b73612ec9565b613b65565b60405190613b85826123fd565b603382527202fb932b9b2b93b32aa37a137b93937bb901d1606d1b6040837f2020203d3e204c42504d203a72657365727665446563696d616c7320666f722060208201520152565b60405190613bda826123fd565b6029825268030ba32b930b6101d160bd1b6040837f2020203d3e204c42504d203a205573657220417661696c61626c6520436f6c6c60208201520152565b60405190613c25826123fd565b603a82527f6f72726f77416d6f756e744554482c20626f72726f774c5456200000000000006040837f2020203d3e204c42504d203a205f616d6f756e742c207265717565737465644260208201520152565b60405190613c84826123fd565b602e82526d037bb90283937b837b9b0b6101d160951b6040837f2020203d3e204c42504d203a20455448204e656564656420666f7220426f727260208201520152565b60405190613cd4826123fd565b6035825274037b9102137b93937bb90283937b837b9b0b6101d1605d1b6040837f2020203d3e204c42504d203a20436f6c6c61746572616c204e6565646564206660208201520152565b15613d2557565b60405162461bcd60e51b815260206004820152603d60248201527f5468657265206973206e6f7420656e6f75676820636f6c6c61746572616c207460448201527f6f20636f7665722061206e657720626f72726f772070726f706f73616c0000006064820152608490fd5b15613d9757565b60405162461bcd60e51b815260206004820152601b60248201527f496e76616c696420496e746572657374205261746520496e70757400000000006044820152606490fd5b15613de357565b60405162461bcd60e51b8152602060048201526014602482015273125b9d985b1a5908111d594811185d194814d95d60621b6044820152606490fd5b6001906000198114613084570190565b90610120600891613e55613e438251151590565b859060ff801983541691151516179055565b6020810151613e89906001600160a01b03168554610100600160a81b03191660089190911b610100600160a81b0316178555565b60408101516001850180546001600160a01b039283166001600160a01b03199182161790915560608301516002870155608083015160038701805491909316911617905560a0810151600485015560c0810151600585015560e0810151600685015561010081015160078501550151910155565b906008613f086129e9565b92613f2f8154613f1d60ff8216879015159052565b831c6001600160a01b03166020860152565b60018101546001600160a01b031660408501526002810154606085015260038101546001600160a01b03166080850152600481015460a0850152600581015460c0850152600681015460e085015260078101546101008501520154610120830152565b90613f9b6126a7565b613fa48261486f565b613fad8261492f565b613fb6816149f0565b603754613fcb906001600160a01b0316610285565b604080516328dd2d0160e01b81526001600160a01b03851660048201523360248201529092916140299183916140229190610140908190839060449082905afa9182156115b857600091829361158e5750506130f9565b10156142e1565b614040610e4b85600052603b602052604060002090565b6036549091906140d39061405c906001600160a01b0316610285565b848360076140748a600052603b602052604060002090565b01548251630deb1bf960e21b81526001600160a01b038a8116600483015288166024820152604481019290925260648201526001608482015291829060a49082906000905af19081156142d4575b6000916142b5575b5061129461435f565b6036546140e8906001600160a01b0316610285565b803b1561000e57835163fa93b2a560e01b81526001600160a01b0386811660048301528481166024830152604482018490527fc7a916d2c9b3bd13bee6b83d7868132ae265bb8b1afb202282f2fa94054c4151949092614201926000926020926141e5929085908290606490829084905af180156142a8575b614295575b506141b360056141808d600052603b602052604060002090565b0154916141a56141986141928b6145d9565b946145d9565b8c519485938885016143ae565b03601f198101835282612419565b603a546141c8906001600160a01b0316610285565b908951948580948193633ab2af8560e21b83523360048401614546565b03925af1908115614288575b60009161426a575b501515614568565b61422261421887600052603b602052604060002090565b805460ff19169055565b61425d600761423b88600052603b602052604060002090565b0154945192835260208301949094524260408301523394169281906060820190565b0390a46125ec6001600055565b614282915060203d8111610d8f57610d818183612419565b386141f9565b614290612453565b6141f1565b80610d166142a2926123dc565b38614166565b6142b0612453565b614161565b6142cc9150853d8711611d8357611d748183612419565b9050386140ca565b6142dc612453565b6140c2565b156142e857565b60a460405162461bcd60e51b815260206004820152604460248201527f4c656e64657220646f65736e2774206861766520656e6f75676820526573657260448201527f76652042616c616e636520746f2041636365707420426f72726f772050726f706064820152631bdcd85b60e21b6084820152fd5b6040519061436c826123fd565b602d82526c01024b731b932b0b9b2b2101d1609d1b6040837f2020203d3e204c42504d203a205573657220426f72726f772042616c616e636560208201520152565b607b60f81b815274089b985b59488e8808909bdb9908151bdad95b888b605a1b60018201527f226465736372697074696f6e223a20224120756e6971756520626f6e6420746f6016820152641ad95b888b60da1b60368201526e2261747472696275746573223a205b60881b603b8201527f7b202274726169745f74797065223a2022426f72726f776572222c202276616c604a820152653ab2911d101160d11b606a82015260609190911b6bffffffffffffffffffffffff191660708201526308881f4b60e21b60848201527f7b202274726169745f74797065223a20225061796261636b20416d6f756e742260888201526a01610113b30b63ab2911d160ad1b60a8820152612450926145399261452c9261451e9291610384916144e7916144d89160b30184565b62081f4b60ea1b815260030190565b7f7b202274726169745f74797065223a20224475652044617465222c202276616c81526403ab2911d160dd1b602082015260250190565b61207d60f01b815260020190565b605d60f81b815260010190565b607d60f81b815260010190565b6001600160a01b03909116815260406020820181905261245092910190613a06565b1561456f57565b60405162461bcd60e51b815260206004820152601060248201526f11985a5b081d1bc81b5a5b9d0813919560821b6044820152606490fd5b906145b1826138b0565b6145be6040519182612419565b82815280926145cf601f19916138b0565b0190602036910137565b806000917a184f03e93ff9f4daa797ed6e38ed64bf6a1f0100000000000000008082101561470e575b506d04ee2d6d415b85acef8100000000808310156146ff575b50662386f26fc10000808310156146f0575b506305f5e100808310156146e1575b50612710808310156146d2575b5060648210156146c2575b600a809210156146b8575b6001908160216146708287016145a7565b95860101905b614682575b5050505090565b600019019083906f181899199a1a9b1b9c1cb0b131b232b360811b8282061a8353049182156146b357919082614676565b61467b565b916001019161465f565b9190606460029104910191614654565b60049193920491019138614649565b6008919392049101913861463c565b6010919392049101913861462d565b6020919392049101913861461b565b604093508104915038614602565b1561472357565b60405162461bcd60e51b815260206004820152602660248201527f456e6420496e646578206f76657220626f72726f7750726f706f73616c4c69736044820152651d10dbdd5b9d60d21b6064820152608490fd5b1561477e57565b60405162461bcd60e51b815260206004820152602260248201527f4d6178696d756d203230303020697465726174696f6e207065722072657175656044820152611cdd60f21b6064820152608490fd5b60209067ffffffffffffffff81116147e8575b60051b0190565b6147f06123c5565b6147e1565b906147ff826147ce565b61480c6040519182612419565b828152809261481d601f19916147ce565b019060005b82811061482e57505050565b602090614839613a3c565b82828501015201614822565b80518210156148595760209160051b010190565b634e487b7160e01b600052603260045260246000fd5b603654604051630283aeb760e11b81526001600160a01b0392831660048201529160209183916024918391165afa908115614922575b600091614904575b50156148b557565b60405162461bcd60e51b815260206004820152602160248201527f416374696f6e20726571756972657320616e20616374697665207265736572766044820152606560f81b6064820152608490fd5b61491c915060203d8111610d5557610d468183612419565b386148ad565b61492a612453565b6148a5565b603654604051634a08accb60e01b81526001600160a01b0392831660048201529160209183916024918391165afa9081156149e3575b6000916149c5575b5061497457565b60405162461bcd60e51b8152602060048201526024808201527f416374696f6e20726571756972657320616e20756e667265657a6564207265736044820152636572766560e01b6064820152608490fd5b6149dd915060203d8111610d5557610d468183612419565b3861496d565b6149eb612453565b614965565b156149f757565b60405162461bcd60e51b815260206004820152601d60248201527f416d6f756e74206d7573742062652067726561746572207468616e20300000006044820152606490fd5b614a7f614a6b916125ec93604051938492632d839cb360e21b6020850152604060248501526064840190613a06565b90604483015203601f198101835282612419565b600080916020815191016a636f6e736f6c652e6c6f675afa50565b614a7f916125ec94614aca9460405195869463a7a8785360e01b60208701526080602487015260a4860190613a06565b9260448501526064840152608483015203601f19810183528261241956fea264697066735822122064b0b0a0ed15db2e7697a934948d9f53bf391b2e2baeecadd756e4a3e224bf6964736f6c634300080d0033",
  "linkReferences": {},
  "deployedLinkReferences": {}
}