{
  "_format": "hh-sol-artifact-1",
  "contractName": "AToken",
  "sourceName": "contracts/tokenization/AToken.sol",
  "abi": [
    {
      "inputs": [
        {
          "internalType": "contract LendingBoardAddressesProvider",
          "name": "_addressesProvider",
          "type": "address"
        },
        {
          "internalType": "address",
          "name": "_underlyingAsset",
          "type": "address"
        },
        {
          "internalType": "uint8",
          "name": "_underlyingAssetDecimals",
          "type": "uint8"
        },
        {
          "internalType": "string",
          "name": "_name",
          "type": "string"
        },
        {
          "internalType": "string",
          "name": "_symbol",
          "type": "string"
        }
      ],
      "stateMutability": "nonpayable",
      "type": "constructor"
    },
    {
      "anonymous": false,
      "inputs": [
        {
          "indexed": true,
          "internalType": "address",
          "name": "owner",
          "type": "address"
        },
        {
          "indexed": true,
          "internalType": "address",
          "name": "spender",
          "type": "address"
        },
        {
          "indexed": false,
          "internalType": "uint256",
          "name": "value",
          "type": "uint256"
        }
      ],
      "name": "Approval",
      "type": "event"
    },
    {
      "anonymous": false,
      "inputs": [
        {
          "indexed": true,
          "internalType": "address",
          "name": "_from",
          "type": "address"
        },
        {
          "indexed": true,
          "internalType": "address",
          "name": "_to",
          "type": "address"
        },
        {
          "indexed": false,
          "internalType": "uint256",
          "name": "_value",
          "type": "uint256"
        },
        {
          "indexed": false,
          "internalType": "uint256",
          "name": "_fromBalanceIncrease",
          "type": "uint256"
        },
        {
          "indexed": false,
          "internalType": "uint256",
          "name": "_toBalanceIncrease",
          "type": "uint256"
        },
        {
          "indexed": false,
          "internalType": "uint256",
          "name": "_fromIndex",
          "type": "uint256"
        },
        {
          "indexed": false,
          "internalType": "uint256",
          "name": "_toIndex",
          "type": "uint256"
        }
      ],
      "name": "BalanceTransfer",
      "type": "event"
    },
    {
      "anonymous": false,
      "inputs": [
        {
          "indexed": true,
          "internalType": "address",
          "name": "_from",
          "type": "address"
        },
        {
          "indexed": false,
          "internalType": "uint256",
          "name": "_value",
          "type": "uint256"
        },
        {
          "indexed": false,
          "internalType": "uint256",
          "name": "_fromBalanceIncrease",
          "type": "uint256"
        },
        {
          "indexed": false,
          "internalType": "uint256",
          "name": "_fromIndex",
          "type": "uint256"
        }
      ],
      "name": "BurnOnLiquidation",
      "type": "event"
    },
    {
      "anonymous": false,
      "inputs": [
        {
          "indexed": true,
          "internalType": "address",
          "name": "_from",
          "type": "address"
        },
        {
          "indexed": true,
          "internalType": "address",
          "name": "_to",
          "type": "address"
        }
      ],
      "name": "InterestRedirectionAllowanceChanged",
      "type": "event"
    },
    {
      "anonymous": false,
      "inputs": [
        {
          "indexed": true,
          "internalType": "address",
          "name": "_from",
          "type": "address"
        },
        {
          "indexed": true,
          "internalType": "address",
          "name": "_to",
          "type": "address"
        },
        {
          "indexed": false,
          "internalType": "uint256",
          "name": "_redirectedBalance",
          "type": "uint256"
        },
        {
          "indexed": false,
          "internalType": "uint256",
          "name": "_fromBalanceIncrease",
          "type": "uint256"
        },
        {
          "indexed": false,
          "internalType": "uint256",
          "name": "_fromIndex",
          "type": "uint256"
        }
      ],
      "name": "InterestStreamRedirected",
      "type": "event"
    },
    {
      "anonymous": false,
      "inputs": [
        {
          "indexed": true,
          "internalType": "address",
          "name": "_from",
          "type": "address"
        },
        {
          "indexed": false,
          "internalType": "uint256",
          "name": "_value",
          "type": "uint256"
        },
        {
          "indexed": false,
          "internalType": "uint256",
          "name": "_fromBalanceIncrease",
          "type": "uint256"
        },
        {
          "indexed": false,
          "internalType": "uint256",
          "name": "_fromIndex",
          "type": "uint256"
        }
      ],
      "name": "MintOnDeposit",
      "type": "event"
    },
    {
      "anonymous": false,
      "inputs": [
        {
          "indexed": true,
          "internalType": "address",
          "name": "_from",
          "type": "address"
        },
        {
          "indexed": false,
          "internalType": "uint256",
          "name": "_value",
          "type": "uint256"
        },
        {
          "indexed": false,
          "internalType": "uint256",
          "name": "_fromBalanceIncrease",
          "type": "uint256"
        },
        {
          "indexed": false,
          "internalType": "uint256",
          "name": "_fromIndex",
          "type": "uint256"
        }
      ],
      "name": "Redeem",
      "type": "event"
    },
    {
      "anonymous": false,
      "inputs": [
        {
          "indexed": true,
          "internalType": "address",
          "name": "_targetAddress",
          "type": "address"
        },
        {
          "indexed": false,
          "internalType": "uint256",
          "name": "_targetBalanceIncrease",
          "type": "uint256"
        },
        {
          "indexed": false,
          "internalType": "uint256",
          "name": "_targetIndex",
          "type": "uint256"
        },
        {
          "indexed": false,
          "internalType": "uint256",
          "name": "_redirectedBalanceAdded",
          "type": "uint256"
        },
        {
          "indexed": false,
          "internalType": "uint256",
          "name": "_redirectedBalanceRemoved",
          "type": "uint256"
        }
      ],
      "name": "RedirectedBalanceUpdated",
      "type": "event"
    },
    {
      "anonymous": false,
      "inputs": [
        {
          "indexed": true,
          "internalType": "address",
          "name": "from",
          "type": "address"
        },
        {
          "indexed": true,
          "internalType": "address",
          "name": "to",
          "type": "address"
        },
        {
          "indexed": false,
          "internalType": "uint256",
          "name": "value",
          "type": "uint256"
        }
      ],
      "name": "Transfer",
      "type": "event"
    },
    {
      "inputs": [],
      "name": "UINT_MAX_VALUE",
      "outputs": [
        {
          "internalType": "uint256",
          "name": "",
          "type": "uint256"
        }
      ],
      "stateMutability": "view",
      "type": "function"
    },
    {
      "inputs": [
        {
          "internalType": "address",
          "name": "_to",
          "type": "address"
        }
      ],
      "name": "allowInterestRedirectionTo",
      "outputs": [],
      "stateMutability": "nonpayable",
      "type": "function"
    },
    {
      "inputs": [
        {
          "internalType": "address",
          "name": "owner",
          "type": "address"
        },
        {
          "internalType": "address",
          "name": "spender",
          "type": "address"
        }
      ],
      "name": "allowance",
      "outputs": [
        {
          "internalType": "uint256",
          "name": "",
          "type": "uint256"
        }
      ],
      "stateMutability": "view",
      "type": "function"
    },
    {
      "inputs": [
        {
          "internalType": "address",
          "name": "spender",
          "type": "address"
        },
        {
          "internalType": "uint256",
          "name": "amount",
          "type": "uint256"
        }
      ],
      "name": "approve",
      "outputs": [
        {
          "internalType": "bool",
          "name": "",
          "type": "bool"
        }
      ],
      "stateMutability": "nonpayable",
      "type": "function"
    },
    {
      "inputs": [
        {
          "internalType": "address",
          "name": "_user",
          "type": "address"
        }
      ],
      "name": "balanceOf",
      "outputs": [
        {
          "internalType": "uint256",
          "name": "",
          "type": "uint256"
        }
      ],
      "stateMutability": "view",
      "type": "function"
    },
    {
      "inputs": [
        {
          "internalType": "address",
          "name": "_account",
          "type": "address"
        },
        {
          "internalType": "uint256",
          "name": "_value",
          "type": "uint256"
        }
      ],
      "name": "burnOnLiquidation",
      "outputs": [],
      "stateMutability": "nonpayable",
      "type": "function"
    },
    {
      "inputs": [],
      "name": "decimals",
      "outputs": [
        {
          "internalType": "uint8",
          "name": "",
          "type": "uint8"
        }
      ],
      "stateMutability": "view",
      "type": "function"
    },
    {
      "inputs": [
        {
          "internalType": "address",
          "name": "spender",
          "type": "address"
        },
        {
          "internalType": "uint256",
          "name": "subtractedValue",
          "type": "uint256"
        }
      ],
      "name": "decreaseAllowance",
      "outputs": [
        {
          "internalType": "bool",
          "name": "",
          "type": "bool"
        }
      ],
      "stateMutability": "nonpayable",
      "type": "function"
    },
    {
      "inputs": [
        {
          "internalType": "address",
          "name": "_user",
          "type": "address"
        }
      ],
      "name": "getInterestRedirectionAddress",
      "outputs": [
        {
          "internalType": "address",
          "name": "",
          "type": "address"
        }
      ],
      "stateMutability": "view",
      "type": "function"
    },
    {
      "inputs": [
        {
          "internalType": "address",
          "name": "_user",
          "type": "address"
        }
      ],
      "name": "getRedirectedBalance",
      "outputs": [
        {
          "internalType": "uint256",
          "name": "",
          "type": "uint256"
        }
      ],
      "stateMutability": "view",
      "type": "function"
    },
    {
      "inputs": [
        {
          "internalType": "address",
          "name": "_user",
          "type": "address"
        }
      ],
      "name": "getUserIndex",
      "outputs": [
        {
          "internalType": "uint256",
          "name": "",
          "type": "uint256"
        }
      ],
      "stateMutability": "view",
      "type": "function"
    },
    {
      "inputs": [
        {
          "internalType": "address",
          "name": "spender",
          "type": "address"
        },
        {
          "internalType": "uint256",
          "name": "addedValue",
          "type": "uint256"
        }
      ],
      "name": "increaseAllowance",
      "outputs": [
        {
          "internalType": "bool",
          "name": "",
          "type": "bool"
        }
      ],
      "stateMutability": "nonpayable",
      "type": "function"
    },
    {
      "inputs": [
        {
          "internalType": "address",
          "name": "_user",
          "type": "address"
        },
        {
          "internalType": "uint256",
          "name": "_amount",
          "type": "uint256"
        }
      ],
      "name": "isTransferAllowed",
      "outputs": [
        {
          "internalType": "bool",
          "name": "",
          "type": "bool"
        }
      ],
      "stateMutability": "view",
      "type": "function"
    },
    {
      "inputs": [
        {
          "internalType": "address",
          "name": "_account",
          "type": "address"
        },
        {
          "internalType": "uint256",
          "name": "_amount",
          "type": "uint256"
        }
      ],
      "name": "mintOnDeposit",
      "outputs": [],
      "stateMutability": "nonpayable",
      "type": "function"
    },
    {
      "inputs": [],
      "name": "name",
      "outputs": [
        {
          "internalType": "string",
          "name": "",
          "type": "string"
        }
      ],
      "stateMutability": "view",
      "type": "function"
    },
    {
      "inputs": [
        {
          "internalType": "address",
          "name": "_user",
          "type": "address"
        }
      ],
      "name": "principalBalanceOf",
      "outputs": [
        {
          "internalType": "uint256",
          "name": "",
          "type": "uint256"
        }
      ],
      "stateMutability": "view",
      "type": "function"
    },
    {
      "inputs": [
        {
          "internalType": "uint256",
          "name": "_amount",
          "type": "uint256"
        }
      ],
      "name": "redeem",
      "outputs": [],
      "stateMutability": "nonpayable",
      "type": "function"
    },
    {
      "inputs": [
        {
          "internalType": "address",
          "name": "_to",
          "type": "address"
        }
      ],
      "name": "redirectInterestStream",
      "outputs": [],
      "stateMutability": "nonpayable",
      "type": "function"
    },
    {
      "inputs": [
        {
          "internalType": "address",
          "name": "_from",
          "type": "address"
        },
        {
          "internalType": "address",
          "name": "_to",
          "type": "address"
        }
      ],
      "name": "redirectInterestStreamOf",
      "outputs": [],
      "stateMutability": "nonpayable",
      "type": "function"
    },
    {
      "inputs": [],
      "name": "symbol",
      "outputs": [
        {
          "internalType": "string",
          "name": "",
          "type": "string"
        }
      ],
      "stateMutability": "view",
      "type": "function"
    },
    {
      "inputs": [],
      "name": "totalSupply",
      "outputs": [
        {
          "internalType": "uint256",
          "name": "",
          "type": "uint256"
        }
      ],
      "stateMutability": "view",
      "type": "function"
    },
    {
      "inputs": [
        {
          "internalType": "address",
          "name": "to",
          "type": "address"
        },
        {
          "internalType": "uint256",
          "name": "amount",
          "type": "uint256"
        }
      ],
      "name": "transfer",
      "outputs": [
        {
          "internalType": "bool",
          "name": "",
          "type": "bool"
        }
      ],
      "stateMutability": "nonpayable",
      "type": "function"
    },
    {
      "inputs": [
        {
          "internalType": "address",
          "name": "from",
          "type": "address"
        },
        {
          "internalType": "address",
          "name": "to",
          "type": "address"
        },
        {
          "internalType": "uint256",
          "name": "amount",
          "type": "uint256"
        }
      ],
      "name": "transferFrom",
      "outputs": [
        {
          "internalType": "bool",
          "name": "",
          "type": "bool"
        }
      ],
      "stateMutability": "nonpayable",
      "type": "function"
    },
    {
      "inputs": [
        {
          "internalType": "address",
          "name": "_from",
          "type": "address"
        },
        {
          "internalType": "address",
          "name": "_to",
          "type": "address"
        },
        {
          "internalType": "uint256",
          "name": "_value",
          "type": "uint256"
        }
      ],
      "name": "transferOnLiquidation",
      "outputs": [],
      "stateMutability": "nonpayable",
      "type": "function"
    },
    {
      "inputs": [],
      "name": "underlyingAssetAddress",
      "outputs": [
        {
          "internalType": "address",
          "name": "",
          "type": "address"
        }
      ],
      "stateMutability": "view",
      "type": "function"
    }
  ],
  "bytecode": "0x60808060405234620000b75762002a4d8038038091620000208285620000d3565b8339810160a082820312620000b7578151906200003d8262000106565b60208301516200004d8162000106565b604084015160ff811603620000b75760608401516001600160401b039490858111620000b757836200008191830162000118565b926080820151958611620000b757620000a795620000a0920162000118565b92620001d9565b60405161232a9081620007238239f35b600080fd5b50634e487b7160e01b600052604160045260246000fd5b601f909101601f19168101906001600160401b03821190821017620000f757604052565b62000101620000bc565b604052565b6001600160a01b03811603620000b757565b9080601f83011215620000b7578151906001600160401b038211620001a1575b6040519260209162000154601f8501601f1916840186620000d3565b838552828483010111620000b75782906000905b8383831062000188575050116200017e57505090565b6000918301015290565b8193508281939201015182828801015201839162000168565b620001ab620000bc565b62000138565b90816020910312620000b75751620001c98162000106565b90565b506040513d6000823e3d90fd5b620001ee6200036a9462000210939462000609565b600a80546001600160a01b0319166001600160a01b0392909216919091179055565b600a54620003489062000233906001600160a01b03165b6001600160a01b031690565b6040518091630774f5f560e21b825281600460209384935afa91821562000406575b600092620003e2575b50600b80546001600160a01b0319166001600160a01b03938416179055620002e2826004836200029962000227600a5460018060a01b031690565b604051630cc3b2e360e21b815292839182905afa908115620003d2575b600091620003b0575b50600c8054919092166001600160a01b03166001600160a01b0319909116179055565b600a546004908290620002fe906001600160a01b031662000227565b6040516352cb335b60e11b815292839182905afa918215620003a0575b6000926200036c575b5050600d8054919092166001600160a01b03166001600160a01b0319909116179055565b600580546001600160a01b0319166001600160a01b0392909216919091179055565b565b620003909250803d1062000398575b620003878183620000d3565b810190620001b1565b388062000324565b503d6200037b565b620003aa620001cc565b6200031b565b620003cb9150843d86116200039857620003878183620000d3565b38620002bf565b620003dc620001cc565b620002b6565b81620003fe9293503d84116200039857620003878183620000d3565b90386200025e565b62000410620001cc565b62000255565b90600182811c9216801562000448575b60208310146200043257565b634e487b7160e01b600052602260045260246000fd5b91607f169162000426565b601f811162000460575050565b6000906003825260208220906020601f850160051c83019410620004a1575b601f0160051c01915b8281106200049557505050565b81815560010162000488565b90925082906200047f565b601f8111620004b9575050565b6000906004825260208220906020601f850160051c83019410620004fa575b601f0160051c01915b828110620004ee57505050565b818155600101620004e1565b9092508290620004d8565b80519091906001600160401b038111620005f9575b62000532816200052c60045462000416565b620004ac565b602080601f831160011462000571575081929360009262000565575b50508160011b916000199060031b1c191617600455565b0151905038806200054e565b6004600052601f198316949091907f8a35acfbc15ff81a39ae7d344fd709f28e8600b4aa8c65c6b64bfe7fe36bd19b926000905b878210620005e0575050836001959610620005c6575b505050811b01600455565b015160001960f88460031b161c19169055388080620005bb565b80600185968294968601518155019501930190620005a5565b62000603620000bc565b6200051a565b80519091906001600160401b03811162000712575b62000636816200063060035462000416565b62000453565b602080601f83116001146200067d575081906200036a9460009262000671575b50508160011b916000199060031b1c19161760035562000505565b01519050388062000656565b60036000529293919291601f1984167fc2575a0e9e593c00f959f8c92f12db2869c3395a3b0502d05e2516446f71f85b936000905b828210620006f95750509160019391856200036a97969410620006df575b505050811b0160035562000505565b015160001960f88460031b161c19169055388080620006d0565b80600186978294978701518155019601940190620006b2565b6200071c620000bc565b6200061e56fe60806040526004361015610013575b600080fd5b60003560e01c806306fdde0314610207578063095ea7b3146101fe5780630e49072d146101f557806312c87c2d146101ec57806318160ddd146101e35780631d51e7cf146101da57806323b872dd146101d1578063313ce567146101c8578063325a9b13146101bf57806339509351146101b65780633edb7cb8146101ad578063445e8010146101a45780635eae177c1461019b57806370a082311461019257806389d1a0fc1461018957806394362e8b1461018057806395d89b4114610177578063a457c2d71461016e578063a9059cbb14610165578063c634dfaa1461015c578063d0fc81d214610153578063db006a751461014a578063dd62ed3e14610141578063ee9907a4146101385763f866c3191461013057600080fd5b61000e610ed9565b5061000e610e9e565b5061000e610e45565b5061000e610cb4565b5061000e610c96565b5061000e610c5b565b5061000e610ae8565b5061000e610a39565b5061000e610975565b5061000e6108f2565b5061000e6108c8565b5061000e6108a4565b5061000e610872565b5061000e610836565b5061000e610759565b5061000e610700565b5061000e610649565b5061000e61062c565b5061000e610575565b5061000e610505565b5061000e6104e1565b5061000e61040b565b5061000e6103e6565b5061000e6103b4565b5061000e610280565b600091031261000e57565b91908251928382526000905b848210610254575092806020939411610247575b601f01601f1916010190565b600083828401015261023b565b90602090818082850101519082860101520190610227565b90602061027d92818152019061021b565b90565b503461000e576000806003193601126103855760405190806003549060019180831c9280821692831561037b575b602092838610851461036757858852602088019490811561034b57506001146102f2575b6102ee876102e28189038261100a565b6040519182918261026c565b0390f35b600360005294509192917fc2575a0e9e593c00f959f8c92f12db2869c3395a3b0502d05e2516446f71f85b5b83861061033a57505050910190506102e2826102ee38806102d2565b80548587015294820194810161031e565b60ff191685525050500191506102e29050826102ee38806102d2565b634e487b7160e01b82526022600452602482fd5b93607f16936102ae565b80fd5b600435906001600160a01b038216820361000e57565b602435906001600160a01b038216820361000e57565b503461000e57604036600319011261000e576103db6103d1610388565b6024359033611074565b602060405160018152f35b503461000e57602036600319011261000e57610409610403610388565b33612059565b005b503461000e57602036600319011261000e57610425610388565b6001600160a01b03811633811461048e5733600090815260096020526040812080546001600160a01b0319166001600160a01b039094169390931790925560405190337fc2d6a42a9d5273283f73009a07aacfb043f2f91173a8d9d33b504afe898db08b8484a3f35b60405162461bcd60e51b815260206004820152602560248201527f557365722063616e6e6f74206769766520616c6c6f77616e636520746f20686960448201526436b9b2b63360d91b6064820152608490fd5b503461000e57600036600319011261000e5760206104fd611709565b604051908152f35b503461000e57602036600319011261000e576001600160a01b03610527610388565b1660005260086020526020604060002054604051908152f35b606090600319011261000e576001600160a01b0390600435828116810361000e5791602435908116810361000e579060443590565b503461000e5761058436610540565b6001600160a01b038316600090815260016020908152604080832033845290915290209091905492600184016105cb575b6105bf93506111f0565b60405160018152602090f35b8284106105e7576105e2836105bf95033383611074565b6105b5565b60405162461bcd60e51b815260206004820152601d60248201527f45524332303a20696e73756666696369656e7420616c6c6f77616e63650000006044820152606490fd5b503461000e57600036600319011261000e57602060405160128152f35b503461000e57604036600319011261000e57610663610388565b61066b61039e565b6001600160a01b038281166000908152600960205260409020541633036106955761040991612059565b60405162461bcd60e51b815260206004820152603a60248201527f43616c6c6572206973206e6f7420616c6c6f77656420746f207265646972656360448201527f742074686520696e746572657374206f662074686520757365720000000000006064820152608490fd5b503461000e57604036600319011261000e576103db61071d610388565b33600052600160205261075260243561074c8360406000209060018060a01b0316600052602052604060002090565b54611068565b9033611074565b503461000e57604036600319011261000e57610773610388565b7f90e5d3d68ec162d9c7de393037a3ede04dd44f68e051bf2ace4a73c299dbc4db6024359160018060a01b03906107af82600c541633146114e4565b61080f6107bb826118cc565b919092506107ca888487611bdb565b6107d48886611398565b87600091818110610829575b1461081a575b1561081457506000905b6040519485941696846040919493926060820195825260208201520152565b0390a2005b906107f0565b50610824846121f9565b6107e6565b61083161102c565b6107e0565b503461000e57602036600319011261000e5760206001600160a01b038061085b610388565b166000526007825260406000205416604051908152f35b503461000e57604036600319011261000e57602061089a610891610388565b6024359061182f565b6040519015158152f35b503461000e57602036600319011261000e5760206104fd6108c3610388565b611603565b503461000e57600036600319011261000e576005546040516001600160a01b039091168152602090f35b503461000e57604036600319011261000e5761090c610388565b7fbe7799898ca2d813ff902b487c1b434ab45b47edd8f38b77ad5e99aae8341b7a6024359160018060a01b039061094882600c541633146114e4565b61080f610954826118cc565b9250905061096b6109658883611068565b856119c7565b6107f0878561154b565b503461000e576000806003193601126103855760405190806004549060019180831c92808216928315610a2f575b602092838610851461036757858852602088019490811561034b57506001146109d6576102ee876102e28189038261100a565b600460005294509192917f8a35acfbc15ff81a39ae7d344fd709f28e8600b4aa8c65c6b64bfe7fe36bd19b5b838610610a1e57505050910190506102e2826102ee38806102d2565b805485870152948201948101610a02565b93607f16936109a3565b503461000e57604036600319011261000e57610a53610388565b60243590336000526001602052610a808160406000209060018060a01b0316600052602052604060002090565b5491808310610a95576105bf92039033611074565b60405162461bcd60e51b815260206004820152602560248201527f45524332303a2064656372656173656420616c6c6f77616e63652062656c6f77604482015264207a65726f60d81b6064820152608490fd5b503461000e57604036600319011261000e57610b02610388565b602435610b17610b12823361182f565b6111a4565b8015610bfd577f89a178eaa27e0cd201bd795ca8ff716ac0df9618494510ca79771cfc66ffcde8610bda610b4a336118cc565b90969250610b5a839492946118cc565b939250959050610b6b888a33611bdb565b610b7e610b788988611068565b866119c7565b610b89888633611ec5565b610b95886000926114cd565b15610bee575b15610be9575060005b60405194859460018060a01b0316983398869192608093969594919660a084019784526020840152604083015260608201520152565b0390a360405160018152602090f35b610ba4565b50610bf8336121f9565b610b9b565b60405162461bcd60e51b815260206004820152603060248201527f5472616e7366657272656420616d6f756e74206e6565647320746f206265206760448201526f726561746572207468616e207a65726f60801b6064820152608490fd5b503461000e57602036600319011261000e576001600160a01b03610c7d610388565b1660005260006020526020604060002054604051908152f35b503461000e57600036600319011261000e5760206040516000198152f35b503461000e57602036600319011261000e57600435610cd48115156112d9565b610cdd336118cc565b919250906000198414610e3c575b610cf783851115611324565b610d04610b12853361182f565b610d0f848333611bdb565b610d198433611398565b6000610d2585856114cd565b15610e2d575b600c54610d48906001600160a01b03165b6001600160a01b031690565b600554610d609087906001600160a01b0316966114cd565b94813b1561000e57604051631312bc7b60e31b81526001600160a01b039190911660048201523360248201526044810187905260648101959095527fbd5034ffbd47e4e72a94baa2cdb74c6fad73cb3bcdc13036b72ec8306f5a764694906000908290608490829084905af18015610e20575b610e07575b5015610e0157506000905b6040805194855260208501919091528301523391806060810161080f565b90610de3565b80610e14610e1a92610fe9565b80610210565b38610dd8565b610e2861138b565b610dd3565b50610e37336121f9565b610d2b565b92508192610ceb565b503461000e57604036600319011261000e576020610e95610e64610388565b610e6c61039e565b6001600160a01b0391821660009081526001855260408082209290931681526020919091522090565b54604051908152f35b503461000e57602036600319011261000e576001600160a01b03610ec0610388565b1660005260066020526020604060002054604051908152f35b503461000e57610ee836610540565b9060018060a01b03610eff81600c541633146114e4565b8215610bfd577f89a178eaa27e0cd201bd795ca8ff716ac0df9618494510ca79771cfc66ffcde891610fb8610f33866118cc565b925090610f3f856118cc565b959250929050610f508a858d611bdb565b610f63610f5d8b85611068565b886119c7565b610f6e8a888d611ec5565b610f7a8a6000926114cd565b15610fc3575b15610fbd57506000915b60408051998a5260208a019190915288015260608701526080860152908216949091169290819060a0820190565b0390a3005b91610f8a565b50610fcd8a6121f9565b610f80565b50634e487b7160e01b600052604160045260246000fd5b67ffffffffffffffff8111610ffd57604052565b611005610fd2565b604052565b90601f8019910116810190811067ffffffffffffffff821117610ffd57604052565b50634e487b7160e01b600052601160045260246000fd5b6b019d971e4fe8401e740000008119811161105c570190565b61106461102c565b0190565b8119811161105c570190565b6001600160a01b03808216929190831561115357821693841561110357806110ed7f8c5be1e5ebec7d5bd14f71427d1e84f3dd0314c0f7b2291e5b200ac8c7c3b925946110d66110fe9560018060a01b03166000526001602052604060002090565b9060018060a01b0316600052602052604060002090565b556040519081529081906020820190565b0390a3565b60405162461bcd60e51b815260206004820152602260248201527f45524332303a20617070726f766520746f20746865207a65726f206164647265604482015261737360f01b6064820152608490fd5b60405162461bcd60e51b8152602060048201526024808201527f45524332303a20617070726f76652066726f6d20746865207a65726f206164646044820152637265737360e01b6064820152608490fd5b156111ab57565b60405162461bcd60e51b815260206004820152601b60248201527f5472616e736665722063616e6e6f7420626520616c6c6f7765642e00000000006044820152606490fd5b91906111ff610b12838561182f565b8115610bfd576110fe7f89a178eaa27e0cd201bd795ca8ff716ac0df9618494510ca79771cfc66ffcde891611233856118cc565b9190949250611241846118cc565b94925092905061125289888c611bdb565b61126561125f8a85611068565b876119c7565b61127089878c611ec5565b61127c896000926114cd565b156112ca575b156112c457506000905b60405195869560018060a01b038091169a1698869192608093969594919660a084019784526020840152604083015260608201520152565b9061128c565b506112d4896121f9565b611282565b156112e057565b606460405162461bcd60e51b815260206004820152602060248201527f416d6f756e7420746f2072656465656d206e6565647320746f206265203e20306044820152fd5b1561132b57565b60405162461bcd60e51b815260206004820152603260248201527f557365722063616e6e6f742072656465656d206d6f7265207468616e2074686560448201527120617661696c61626c652062616c616e636560701b6064820152608490fd5b506040513d6000823e3d90fd5b6001600160a01b03811690811561147e576001600160a01b03811660009081526020819052604090205483811061142e57837fddf252ad1be2c89b69c2b068fc378daa952ba7f163c4a11628f55a4df523b3ef926114106000966110fe94039160018060a01b03166000526000602052604060002090565b5561141e8160025403600255565b6040519081529081906020820190565b60405162461bcd60e51b815260206004820152602260248201527f45524332303a206275726e20616d6f756e7420657863656564732062616c616e604482015261636560f01b6064820152608490fd5b60405162461bcd60e51b815260206004820152602160248201527f45524332303a206275726e2066726f6d20746865207a65726f206164647265736044820152607360f81b6064820152608490fd5b8181106114d8570390565b6114e061102c565b0390565b156114eb57565b60405162461bcd60e51b815260206004820152603260248201527f5468652063616c6c6572206f6620746869732066756e6374696f6e206d7573746044820152710818994818481b195b991a5b99c81c1bdbdb60721b6064820152608490fd5b6001600160a01b0381169182156115be576020816115af6000946115927fddf252ad1be2c89b69c2b068fc378daa952ba7f163c4a11628f55a4df523b3ef95600254611068565b6002556001600160a01b0316600090815260208190526040902090565b818154019055604051908152a3565b60405162461bcd60e51b815260206004820152601f60248201527f45524332303a206d696e7420746f20746865207a65726f2061646472657373006044820152606490fd5b60018060a01b038082166000526000602052604060002054611662816040516040810181811067ffffffffffffffff8211176116ed575b6040526013815272557365722041546f6b656e2042616c616e636560681b602082015261229c565b6001600160a01b038316600090815260086020526040902054918115806116e5575b6116dc576001600160a01b0384811660009081526007602052604090205416166116c45761027d926116b9836116bf93611068565b90611cf0565b6114cd565b90806116bf6116d69261027d95611cf0565b90611068565b50505050600090565b508215611684565b6116f5610fd2565b61163a565b9081602091031261000e575190565b60025480156117cc576b033b2e3c9fd0803ce800000061178961178461176a61173461027d956117d2565b600b5460055460405163d15e005360e01b81526001600160a01b0391821660048201529360209285921690829081906024820190565b03915afa9182156117bf575b60009261178f575b506117f7565b611043565b0461180a565b6117b191925060203d81116117b8575b6117a9818361100a565b8101906116fa565b903861177e565b503d61179f565b6117c761138b565b611776565b50600090565b633b9aca009080600019048211811515166117eb570290565b6117f361102c565b0290565b80600019048211811515166117eb570290565b633b9aca0090631dcd65008119811161182257010490565b61182a61102c565b010490565b600d546005546040516376e9d61560e01b81526001600160a01b03918216600482015292811660248401526044830193909352909160209183916064918391165afa9081156118bf575b600091611884575090565b6020813d82116118b7575b8161189c6020938361100a565b810103126118b35751908115158203610385575090565b5080fd5b3d915061188f565b6118c761138b565b611879565b60018060a01b038116600052600060205261194c60406000205492836118f184611603565b8181106119ba575b0392611905848261154b565b600b5460209061191d906001600160a01b0316610d3c565b60055460405163d15e005360e01b81526001600160a01b03909116600482015294859190829081906024820190565b03915afa9283156119ad575b60009361198b575b506001600160a01b0316600090815260066020526040902082905b556119868385611068565b929190565b61197b93506119a79060203d81116117b8576117a9818361100a565b92611960565b6119b561138b565b611958565b6119c261102c565b6118f9565b6001600160a01b039081166000908152600760205260409020548116918215611aca577f70ff8cf632603e2bfd1afb7e4061acce53d95356b1be9726b99fa22ba733b01f91608091611a18856118cc565b9250939050611a3d8361074c8960018060a01b03166000526008602052604060002090565b6001600160a01b0388166000908152600860209081526040808320939093556007905220541680611a84575b506040519283526020830152604082015260006060820152a2565b611ac3611aa78561074c8460018060a01b03166000526008602052604060002090565b6001600160a01b03909216600090815260086020526040902090565b5538611a69565b505050565b6001600160a01b039081166000908152600760205260409020548116918215611aca577f70ff8cf632603e2bfd1afb7e4061acce53d95356b1be9726b99fa22ba733b01f91608091611b20856118cc565b925093905082611b428860018060a01b03166000526008602052604060002090565b54818110611bce575b03611b688860018060a01b03166000526008602052604060002090565b556001600160a01b0387166000908152600760205260409020541680611ba4575b506040519283526020830152600060408301526060820152a2565b611bc7611aa78561074c8460018060a01b03166000526008602052604060002090565b5538611b89565b611bd661102c565b611b4b565b6001600160a01b0390811660009081526007602052604090205481169291908315611cea577f70ff8cf632603e2bfd1afb7e4061acce53d95356b1be9726b99fa22ba733b01f92608092611c2e866118cc565b925094905083611c548461074c8b60018060a01b03166000526008602052604060002090565b818110611cdd575b03611c798960018060a01b03166000526008602052604060002090565b556001600160a01b0388166000908152600760205260409020541680611cb3575b50604051938452602084015260408301526060820152a2565b611cd6611aa78661074c8460018060a01b03166000526008602052604060002090565b5538611c9a565b611ce561102c565b611c5c565b50505050565b611d7a90611d736b033b2e3c9fd0803ce8000000611d59611784611d3e61027d97633b9aca00908060001904821181151516611dac57600b5460209061191d906001600160a01b0316610d3c565b03915afa928315611d9f575b600093611d7f575b50026117f7565b049160018060a01b03166000526006602052604060002090565b5490611db9565b61180a565b611d9891935060203d81116117b8576117a9818361100a565b9138611d52565b611da761138b565b611d4a565b611db461102c565b611905565b611de5906b033b2e3c9fd0803ce8000000908060001904821181151516611e05575b028260011c611068565b8115611def570490565b634e487b7160e01b600052601260045260246000fd5b611e0d61102c565b611ddb565b15611e1957565b60405162461bcd60e51b815260206004820152602360248201527f45524332303a207472616e7366657220746f20746865207a65726f206164647260448201526265737360e81b6064820152608490fd5b15611e7157565b60405162461bcd60e51b815260206004820152602660248201527f45524332303a207472616e7366657220616d6f756e7420657863656564732062604482015265616c616e636560d01b6064820152608490fd5b916001600160a01b038084169290918315611f8957611f73827fddf252ad1be2c89b69c2b068fc378daa952ba7f163c4a11628f55a4df523b3ef946110fe941696611f11881515611e12565b611f5884611f318360018060a01b03166000526000602052604060002090565b54611f3e82821015611e6a565b039160018060a01b03166000526000602052604060002090565b556001600160a01b0316600090815260208190526040902090565b8054820190556040519081529081906020820190565b60405162461bcd60e51b815260206004820152602560248201527f45524332303a207472616e736665722066726f6d20746865207a65726f206164604482015264647265737360d81b6064820152608490fd5b15611fe357565b60405162461bcd60e51b815260206004820152604260248201527f496e7465726573742073747265616d2063616e206f6e6c79206265207265646960448201527f72656374656420696620746865726520697320612076616c69642062616c616e606482015261636560f01b608482015260a490fd5b6001600160a01b0381811660009081526007602052604090205491928082169290919081168381146121a15761208e856118cc565b97929094919361209f851515611fdc565b612191575b5081169384861461213c579561211f838361211a7f5e3cad45b1fe24159d1cb39788d82d0f69cc15770aa96fba1d3d1a734873559498999a6120fb6110fe9760018060a01b03166000526007602052604060002090565b80546001600160a01b0319166001600160a01b03909216919091179055565b6119c7565b604051938493846040919493926060820195825260208201520152565b506001600160a01b0316600090815260076020526040812080546001600160a01b0319169055949293507f5e3cad45b1fe24159d1cb39788d82d0f69cc15770aa96fba1d3d1a7348735594926110fe9061211f565b61219b9083611acf565b386120a4565b60405162461bcd60e51b815260206004820152602a60248201527f496e74657265737420697320616c72656164792072656469726563746564207460448201526937903a3432903ab9b2b960b11b6064820152608490fd5b60018060a01b03811690600082819382526007602052604082206bffffffffffffffffffffffff60a01b81541690557f5e3cad45b1fe24159d1cb39788d82d0f69cc15770aa96fba1d3d1a73487355946060604051848152846020820152846040820152a36001600160a01b038116600090815260086020526040902054612298576001600160a01b0316600090815260066020526040902055600190565b5090565b6000919082916122e160405180926122cd6020830195632d839cb360e21b875260406024850152606484019061021b565b90604483015203601f19810183528261100a565b51906a636f6e736f6c652e6c6f675afa5056fea264697066735822122065b2e8b1ffb2371037c144bf5e3b96b991caad79872df3b2ec890cf8bc58c6ee64736f6c634300080d0033",
  "linkReferences": {},
  "deployedLinkReferences": {}
}