{
  "_format": "hh-sol-artifact-1",
  "contractName": "AToken",
  "sourceName": "contracts/tokenization/AToken.sol",
  "abi": [
    {
      "inputs": [
        {
          "internalType": "contract LendingBoardAddressesProvider",
          "name": "_addressesProvider",
          "type": "address"
        },
        {
          "internalType": "address",
          "name": "_underlyingAsset",
          "type": "address"
        },
        {
          "internalType": "uint8",
          "name": "_underlyingAssetDecimals",
          "type": "uint8"
        },
        {
          "internalType": "string",
          "name": "_name",
          "type": "string"
        },
        {
          "internalType": "string",
          "name": "_symbol",
          "type": "string"
        }
      ],
      "stateMutability": "nonpayable",
      "type": "constructor"
    },
    {
      "anonymous": false,
      "inputs": [
        {
          "indexed": true,
          "internalType": "address",
          "name": "owner",
          "type": "address"
        },
        {
          "indexed": true,
          "internalType": "address",
          "name": "spender",
          "type": "address"
        },
        {
          "indexed": false,
          "internalType": "uint256",
          "name": "value",
          "type": "uint256"
        }
      ],
      "name": "Approval",
      "type": "event"
    },
    {
      "anonymous": false,
      "inputs": [
        {
          "indexed": true,
          "internalType": "address",
          "name": "_from",
          "type": "address"
        },
        {
          "indexed": true,
          "internalType": "address",
          "name": "_to",
          "type": "address"
        },
        {
          "indexed": false,
          "internalType": "uint256",
          "name": "_value",
          "type": "uint256"
        },
        {
          "indexed": false,
          "internalType": "uint256",
          "name": "_fromBalanceIncrease",
          "type": "uint256"
        },
        {
          "indexed": false,
          "internalType": "uint256",
          "name": "_toBalanceIncrease",
          "type": "uint256"
        },
        {
          "indexed": false,
          "internalType": "uint256",
          "name": "_fromIndex",
          "type": "uint256"
        },
        {
          "indexed": false,
          "internalType": "uint256",
          "name": "_toIndex",
          "type": "uint256"
        }
      ],
      "name": "BalanceTransfer",
      "type": "event"
    },
    {
      "anonymous": false,
      "inputs": [
        {
          "indexed": true,
          "internalType": "address",
          "name": "_from",
          "type": "address"
        },
        {
          "indexed": false,
          "internalType": "uint256",
          "name": "_value",
          "type": "uint256"
        },
        {
          "indexed": false,
          "internalType": "uint256",
          "name": "_fromBalanceIncrease",
          "type": "uint256"
        },
        {
          "indexed": false,
          "internalType": "uint256",
          "name": "_fromIndex",
          "type": "uint256"
        }
      ],
      "name": "BurnOnLiquidation",
      "type": "event"
    },
    {
      "anonymous": false,
      "inputs": [
        {
          "indexed": true,
          "internalType": "address",
          "name": "_from",
          "type": "address"
        },
        {
          "indexed": true,
          "internalType": "address",
          "name": "_to",
          "type": "address"
        }
      ],
      "name": "InterestRedirectionAllowanceChanged",
      "type": "event"
    },
    {
      "anonymous": false,
      "inputs": [
        {
          "indexed": true,
          "internalType": "address",
          "name": "_from",
          "type": "address"
        },
        {
          "indexed": true,
          "internalType": "address",
          "name": "_to",
          "type": "address"
        },
        {
          "indexed": false,
          "internalType": "uint256",
          "name": "_redirectedBalance",
          "type": "uint256"
        },
        {
          "indexed": false,
          "internalType": "uint256",
          "name": "_fromBalanceIncrease",
          "type": "uint256"
        },
        {
          "indexed": false,
          "internalType": "uint256",
          "name": "_fromIndex",
          "type": "uint256"
        }
      ],
      "name": "InterestStreamRedirected",
      "type": "event"
    },
    {
      "anonymous": false,
      "inputs": [
        {
          "indexed": true,
          "internalType": "address",
          "name": "_from",
          "type": "address"
        },
        {
          "indexed": false,
          "internalType": "uint256",
          "name": "_value",
          "type": "uint256"
        },
        {
          "indexed": false,
          "internalType": "uint256",
          "name": "_fromBalanceIncrease",
          "type": "uint256"
        },
        {
          "indexed": false,
          "internalType": "uint256",
          "name": "_fromIndex",
          "type": "uint256"
        }
      ],
      "name": "MintOnDeposit",
      "type": "event"
    },
    {
      "anonymous": false,
      "inputs": [
        {
          "indexed": true,
          "internalType": "address",
          "name": "_from",
          "type": "address"
        },
        {
          "indexed": false,
          "internalType": "uint256",
          "name": "_value",
          "type": "uint256"
        },
        {
          "indexed": false,
          "internalType": "uint256",
          "name": "_fromBalanceIncrease",
          "type": "uint256"
        },
        {
          "indexed": false,
          "internalType": "uint256",
          "name": "_fromIndex",
          "type": "uint256"
        }
      ],
      "name": "Redeem",
      "type": "event"
    },
    {
      "anonymous": false,
      "inputs": [
        {
          "indexed": true,
          "internalType": "address",
          "name": "_targetAddress",
          "type": "address"
        },
        {
          "indexed": false,
          "internalType": "uint256",
          "name": "_targetBalanceIncrease",
          "type": "uint256"
        },
        {
          "indexed": false,
          "internalType": "uint256",
          "name": "_targetIndex",
          "type": "uint256"
        },
        {
          "indexed": false,
          "internalType": "uint256",
          "name": "_redirectedBalanceAdded",
          "type": "uint256"
        },
        {
          "indexed": false,
          "internalType": "uint256",
          "name": "_redirectedBalanceRemoved",
          "type": "uint256"
        }
      ],
      "name": "RedirectedBalanceUpdated",
      "type": "event"
    },
    {
      "anonymous": false,
      "inputs": [
        {
          "indexed": true,
          "internalType": "address",
          "name": "from",
          "type": "address"
        },
        {
          "indexed": true,
          "internalType": "address",
          "name": "to",
          "type": "address"
        },
        {
          "indexed": false,
          "internalType": "uint256",
          "name": "value",
          "type": "uint256"
        }
      ],
      "name": "Transfer",
      "type": "event"
    },
    {
      "inputs": [],
      "name": "UINT_MAX_VALUE",
      "outputs": [
        {
          "internalType": "uint256",
          "name": "",
          "type": "uint256"
        }
      ],
      "stateMutability": "view",
      "type": "function"
    },
    {
      "inputs": [
        {
          "internalType": "address",
          "name": "_to",
          "type": "address"
        }
      ],
      "name": "allowInterestRedirectionTo",
      "outputs": [],
      "stateMutability": "nonpayable",
      "type": "function"
    },
    {
      "inputs": [
        {
          "internalType": "address",
          "name": "owner",
          "type": "address"
        },
        {
          "internalType": "address",
          "name": "spender",
          "type": "address"
        }
      ],
      "name": "allowance",
      "outputs": [
        {
          "internalType": "uint256",
          "name": "",
          "type": "uint256"
        }
      ],
      "stateMutability": "view",
      "type": "function"
    },
    {
      "inputs": [
        {
          "internalType": "address",
          "name": "spender",
          "type": "address"
        },
        {
          "internalType": "uint256",
          "name": "amount",
          "type": "uint256"
        }
      ],
      "name": "approve",
      "outputs": [
        {
          "internalType": "bool",
          "name": "",
          "type": "bool"
        }
      ],
      "stateMutability": "nonpayable",
      "type": "function"
    },
    {
      "inputs": [
        {
          "internalType": "address",
          "name": "_user",
          "type": "address"
        }
      ],
      "name": "balanceOf",
      "outputs": [
        {
          "internalType": "uint256",
          "name": "",
          "type": "uint256"
        }
      ],
      "stateMutability": "view",
      "type": "function"
    },
    {
      "inputs": [
        {
          "internalType": "address",
          "name": "_account",
          "type": "address"
        },
        {
          "internalType": "uint256",
          "name": "_value",
          "type": "uint256"
        }
      ],
      "name": "burnOnLiquidation",
      "outputs": [],
      "stateMutability": "nonpayable",
      "type": "function"
    },
    {
      "inputs": [],
      "name": "decimals",
      "outputs": [
        {
          "internalType": "uint8",
          "name": "",
          "type": "uint8"
        }
      ],
      "stateMutability": "view",
      "type": "function"
    },
    {
      "inputs": [
        {
          "internalType": "address",
          "name": "spender",
          "type": "address"
        },
        {
          "internalType": "uint256",
          "name": "subtractedValue",
          "type": "uint256"
        }
      ],
      "name": "decreaseAllowance",
      "outputs": [
        {
          "internalType": "bool",
          "name": "",
          "type": "bool"
        }
      ],
      "stateMutability": "nonpayable",
      "type": "function"
    },
    {
      "inputs": [
        {
          "internalType": "address",
          "name": "_user",
          "type": "address"
        }
      ],
      "name": "getInterestRedirectionAddress",
      "outputs": [
        {
          "internalType": "address",
          "name": "",
          "type": "address"
        }
      ],
      "stateMutability": "view",
      "type": "function"
    },
    {
      "inputs": [
        {
          "internalType": "address",
          "name": "_user",
          "type": "address"
        }
      ],
      "name": "getRedirectedBalance",
      "outputs": [
        {
          "internalType": "uint256",
          "name": "",
          "type": "uint256"
        }
      ],
      "stateMutability": "view",
      "type": "function"
    },
    {
      "inputs": [
        {
          "internalType": "address",
          "name": "_user",
          "type": "address"
        }
      ],
      "name": "getUserIndex",
      "outputs": [
        {
          "internalType": "uint256",
          "name": "",
          "type": "uint256"
        }
      ],
      "stateMutability": "view",
      "type": "function"
    },
    {
      "inputs": [
        {
          "internalType": "address",
          "name": "spender",
          "type": "address"
        },
        {
          "internalType": "uint256",
          "name": "addedValue",
          "type": "uint256"
        }
      ],
      "name": "increaseAllowance",
      "outputs": [
        {
          "internalType": "bool",
          "name": "",
          "type": "bool"
        }
      ],
      "stateMutability": "nonpayable",
      "type": "function"
    },
    {
      "inputs": [
        {
          "internalType": "address",
          "name": "_user",
          "type": "address"
        },
        {
          "internalType": "uint256",
          "name": "_amount",
          "type": "uint256"
        }
      ],
      "name": "isTransferAllowed",
      "outputs": [
        {
          "internalType": "bool",
          "name": "",
          "type": "bool"
        }
      ],
      "stateMutability": "view",
      "type": "function"
    },
    {
      "inputs": [
        {
          "internalType": "address",
          "name": "_account",
          "type": "address"
        },
        {
          "internalType": "uint256",
          "name": "_amount",
          "type": "uint256"
        }
      ],
      "name": "mintOnDeposit",
      "outputs": [],
      "stateMutability": "nonpayable",
      "type": "function"
    },
    {
      "inputs": [],
      "name": "name",
      "outputs": [
        {
          "internalType": "string",
          "name": "",
          "type": "string"
        }
      ],
      "stateMutability": "view",
      "type": "function"
    },
    {
      "inputs": [
        {
          "internalType": "address",
          "name": "_user",
          "type": "address"
        }
      ],
      "name": "principalBalanceOf",
      "outputs": [
        {
          "internalType": "uint256",
          "name": "",
          "type": "uint256"
        }
      ],
      "stateMutability": "view",
      "type": "function"
    },
    {
      "inputs": [
        {
          "internalType": "uint256",
          "name": "_amount",
          "type": "uint256"
        }
      ],
      "name": "redeem",
      "outputs": [],
      "stateMutability": "nonpayable",
      "type": "function"
    },
    {
      "inputs": [
        {
          "internalType": "address",
          "name": "_to",
          "type": "address"
        }
      ],
      "name": "redirectInterestStream",
      "outputs": [],
      "stateMutability": "nonpayable",
      "type": "function"
    },
    {
      "inputs": [
        {
          "internalType": "address",
          "name": "_from",
          "type": "address"
        },
        {
          "internalType": "address",
          "name": "_to",
          "type": "address"
        }
      ],
      "name": "redirectInterestStreamOf",
      "outputs": [],
      "stateMutability": "nonpayable",
      "type": "function"
    },
    {
      "inputs": [],
      "name": "symbol",
      "outputs": [
        {
          "internalType": "string",
          "name": "",
          "type": "string"
        }
      ],
      "stateMutability": "view",
      "type": "function"
    },
    {
      "inputs": [],
      "name": "totalSupply",
      "outputs": [
        {
          "internalType": "uint256",
          "name": "",
          "type": "uint256"
        }
      ],
      "stateMutability": "view",
      "type": "function"
    },
    {
      "inputs": [
        {
          "internalType": "address",
          "name": "to",
          "type": "address"
        },
        {
          "internalType": "uint256",
          "name": "amount",
          "type": "uint256"
        }
      ],
      "name": "transfer",
      "outputs": [
        {
          "internalType": "bool",
          "name": "",
          "type": "bool"
        }
      ],
      "stateMutability": "nonpayable",
      "type": "function"
    },
    {
      "inputs": [
        {
          "internalType": "address",
          "name": "from",
          "type": "address"
        },
        {
          "internalType": "address",
          "name": "to",
          "type": "address"
        },
        {
          "internalType": "uint256",
          "name": "amount",
          "type": "uint256"
        }
      ],
      "name": "transferFrom",
      "outputs": [
        {
          "internalType": "bool",
          "name": "",
          "type": "bool"
        }
      ],
      "stateMutability": "nonpayable",
      "type": "function"
    },
    {
      "inputs": [
        {
          "internalType": "address",
          "name": "_from",
          "type": "address"
        },
        {
          "internalType": "address",
          "name": "_to",
          "type": "address"
        },
        {
          "internalType": "uint256",
          "name": "_value",
          "type": "uint256"
        }
      ],
      "name": "transferOnLiquidation",
      "outputs": [],
      "stateMutability": "nonpayable",
      "type": "function"
    },
    {
      "inputs": [],
      "name": "underlyingAssetAddress",
      "outputs": [
        {
          "internalType": "address",
          "name": "",
          "type": "address"
        }
      ],
      "stateMutability": "view",
      "type": "function"
    }
  ],
  "bytecode": "0x60808060405234620000b757620029848038038091620000208285620000d3565b8339810160a082820312620000b7578151906200003d8262000106565b60208301516200004d8162000106565b604084015160ff811603620000b75760608401516001600160401b039490858111620000b757836200008191830162000118565b926080820151958611620000b757620000a795620000a0920162000118565b92620001d9565b6040516122619081620007238239f35b600080fd5b50634e487b7160e01b600052604160045260246000fd5b601f909101601f19168101906001600160401b03821190821017620000f757604052565b62000101620000bc565b604052565b6001600160a01b03811603620000b757565b9080601f83011215620000b7578151906001600160401b038211620001a1575b6040519260209162000154601f8501601f1916840186620000d3565b838552828483010111620000b75782906000905b8383831062000188575050116200017e57505090565b6000918301015290565b8193508281939201015182828801015201839162000168565b620001ab620000bc565b62000138565b90816020910312620000b75751620001c98162000106565b90565b506040513d6000823e3d90fd5b620001ee6200036a9462000210939462000609565b600a80546001600160a01b0319166001600160a01b0392909216919091179055565b600a54620003489062000233906001600160a01b03165b6001600160a01b031690565b6040518091630774f5f560e21b825281600460209384935afa91821562000406575b600092620003e2575b50600b80546001600160a01b0319166001600160a01b03938416179055620002e2826004836200029962000227600a5460018060a01b031690565b604051630cc3b2e360e21b815292839182905afa908115620003d2575b600091620003b0575b50600c8054919092166001600160a01b03166001600160a01b0319909116179055565b600a546004908290620002fe906001600160a01b031662000227565b6040516352cb335b60e11b815292839182905afa918215620003a0575b6000926200036c575b5050600d8054919092166001600160a01b03166001600160a01b0319909116179055565b600580546001600160a01b0319166001600160a01b0392909216919091179055565b565b620003909250803d1062000398575b620003878183620000d3565b810190620001b1565b388062000324565b503d6200037b565b620003aa620001cc565b6200031b565b620003cb9150843d86116200039857620003878183620000d3565b38620002bf565b620003dc620001cc565b620002b6565b81620003fe9293503d84116200039857620003878183620000d3565b90386200025e565b62000410620001cc565b62000255565b90600182811c9216801562000448575b60208310146200043257565b634e487b7160e01b600052602260045260246000fd5b91607f169162000426565b601f811162000460575050565b6000906003825260208220906020601f850160051c83019410620004a1575b601f0160051c01915b8281106200049557505050565b81815560010162000488565b90925082906200047f565b601f8111620004b9575050565b6000906004825260208220906020601f850160051c83019410620004fa575b601f0160051c01915b828110620004ee57505050565b818155600101620004e1565b9092508290620004d8565b80519091906001600160401b038111620005f9575b62000532816200052c60045462000416565b620004ac565b602080601f831160011462000571575081929360009262000565575b50508160011b916000199060031b1c191617600455565b0151905038806200054e565b6004600052601f198316949091907f8a35acfbc15ff81a39ae7d344fd709f28e8600b4aa8c65c6b64bfe7fe36bd19b926000905b878210620005e0575050836001959610620005c6575b505050811b01600455565b015160001960f88460031b161c19169055388080620005bb565b80600185968294968601518155019501930190620005a5565b62000603620000bc565b6200051a565b80519091906001600160401b03811162000712575b62000636816200063060035462000416565b62000453565b602080601f83116001146200067d575081906200036a9460009262000671575b50508160011b916000199060031b1c19161760035562000505565b01519050388062000656565b60036000529293919291601f1984167fc2575a0e9e593c00f959f8c92f12db2869c3395a3b0502d05e2516446f71f85b936000905b828210620006f95750509160019391856200036a97969410620006df575b505050811b0160035562000505565b015160001960f88460031b161c19169055388080620006d0565b80600186978294978701518155019601940190620006b2565b6200071c620000bc565b6200061e56fe60806040526004361015610013575b600080fd5b60003560e01c806306fdde0314610207578063095ea7b3146101fe5780630e49072d146101f557806312c87c2d146101ec57806318160ddd146101e35780631d51e7cf146101da57806323b872dd146101d1578063313ce567146101c8578063325a9b13146101bf57806339509351146101b65780633edb7cb8146101ad578063445e8010146101a45780635eae177c1461019b57806370a082311461019257806389d1a0fc1461018957806394362e8b1461018057806395d89b4114610177578063a457c2d71461016e578063a9059cbb14610165578063c634dfaa1461015c578063d0fc81d214610153578063db006a751461014a578063dd62ed3e14610141578063ee9907a4146101385763f866c3191461013057600080fd5b61000e610ecb565b5061000e610e90565b5061000e610e37565b5061000e610ca6565b5061000e610c88565b5061000e610c4d565b5061000e610ada565b5061000e610a2b565b5061000e610967565b5061000e6108e4565b5061000e6108ba565b5061000e610896565b5061000e610864565b5061000e610828565b5061000e61074b565b5061000e6106f2565b5061000e61063b565b5061000e61061e565b5061000e610567565b5061000e6104f7565b5061000e6104d3565b5061000e6103fd565b5061000e6103d8565b5061000e6103a6565b5061000e610272565b600091031261000e57565b919091602080825283519081818401526000945b82861061025c57505080604093941161024f575b601f01601f1916010190565b6000838284010152610243565b858101820151848701604001529481019461022f565b503461000e576000806003193601126103775760405190806003549060019180831c9280821692831561036d575b602092838610851461035957858852602088019490811561033d57506001146102e4575b6102e0876102d481890382610fee565b6040519182918261021b565b0390f35b600360005294509192917fc2575a0e9e593c00f959f8c92f12db2869c3395a3b0502d05e2516446f71f85b5b83861061032c57505050910190506102d4826102e038806102c4565b805485870152948201948101610310565b60ff191685525050500191506102d49050826102e038806102c4565b634e487b7160e01b82526022600452602482fd5b93607f16936102a0565b80fd5b600435906001600160a01b038216820361000e57565b602435906001600160a01b038216820361000e57565b503461000e57604036600319011261000e576103cd6103c361037a565b6024359033611058565b602060405160018152f35b503461000e57602036600319011261000e576103fb6103f561037a565b33611fe8565b005b503461000e57602036600319011261000e5761041761037a565b6001600160a01b0381163381146104805733600090815260096020526040812080546001600160a01b0319166001600160a01b039094169390931790925560405190337fc2d6a42a9d5273283f73009a07aacfb043f2f91173a8d9d33b504afe898db08b8484a3f35b60405162461bcd60e51b815260206004820152602560248201527f557365722063616e6e6f74206769766520616c6c6f77616e636520746f20686960448201526436b9b2b63360d91b6064820152608490fd5b503461000e57600036600319011261000e5760206104ef611698565b604051908152f35b503461000e57602036600319011261000e576001600160a01b0361051961037a565b1660005260086020526020604060002054604051908152f35b606090600319011261000e576001600160a01b0390600435828116810361000e5791602435908116810361000e579060443590565b503461000e5761057636610532565b6001600160a01b038316600090815260016020908152604080832033845290915290209091905492600184016105bd575b6105b193506111d4565b60405160018152602090f35b8284106105d9576105d4836105b195033383611058565b6105a7565b60405162461bcd60e51b815260206004820152601d60248201527f45524332303a20696e73756666696369656e7420616c6c6f77616e63650000006044820152606490fd5b503461000e57600036600319011261000e57602060405160128152f35b503461000e57604036600319011261000e5761065561037a565b61065d610390565b6001600160a01b03828116600090815260096020526040902054163303610687576103fb91611fe8565b60405162461bcd60e51b815260206004820152603a60248201527f43616c6c6572206973206e6f7420616c6c6f77656420746f207265646972656360448201527f742074686520696e746572657374206f662074686520757365720000000000006064820152608490fd5b503461000e57604036600319011261000e576103cd61070f61037a565b33600052600160205261074460243561073e8360406000209060018060a01b0316600052602052604060002090565b5461104c565b9033611058565b503461000e57604036600319011261000e5761076561037a565b7f90e5d3d68ec162d9c7de393037a3ede04dd44f68e051bf2ace4a73c299dbc4db6024359160018060a01b03906107a182600c541633146114c8565b6108016107ad8261185b565b919092506107bc888487611b6a565b6107c6888661137c565b8760009181811061081b575b1461080c575b1561080657506000905b6040519485941696846040919493926060820195825260208201520152565b0390a2005b906107e2565b5061081684612188565b6107d8565b610823611010565b6107d2565b503461000e57602036600319011261000e5760206001600160a01b038061084d61037a565b166000526007825260406000205416604051908152f35b503461000e57604036600319011261000e57602061088c61088361037a565b602435906117be565b6040519015158152f35b503461000e57602036600319011261000e5760206104ef6108b561037a565b6115e7565b503461000e57600036600319011261000e576005546040516001600160a01b039091168152602090f35b503461000e57604036600319011261000e576108fe61037a565b7fbe7799898ca2d813ff902b487c1b434ab45b47edd8f38b77ad5e99aae8341b7a6024359160018060a01b039061093a82600c541633146114c8565b6108016109468261185b565b9250905061095d610957888361104c565b85611956565b6107e2878561152f565b503461000e576000806003193601126103775760405190806004549060019180831c92808216928315610a21575b602092838610851461035957858852602088019490811561033d57506001146109c8576102e0876102d481890382610fee565b600460005294509192917f8a35acfbc15ff81a39ae7d344fd709f28e8600b4aa8c65c6b64bfe7fe36bd19b5b838610610a1057505050910190506102d4826102e038806102c4565b8054858701529482019481016109f4565b93607f1693610995565b503461000e57604036600319011261000e57610a4561037a565b60243590336000526001602052610a728160406000209060018060a01b0316600052602052604060002090565b5491808310610a87576105b192039033611058565b60405162461bcd60e51b815260206004820152602560248201527f45524332303a2064656372656173656420616c6c6f77616e63652062656c6f77604482015264207a65726f60d81b6064820152608490fd5b503461000e57604036600319011261000e57610af461037a565b602435610b09610b0482336117be565b611188565b8015610bef577f89a178eaa27e0cd201bd795ca8ff716ac0df9618494510ca79771cfc66ffcde8610bcc610b3c3361185b565b90969250610b4c8394929461185b565b939250959050610b5d888a33611b6a565b610b70610b6a898861104c565b86611956565b610b7b888633611e54565b610b87886000926114b1565b15610be0575b15610bdb575060005b60405194859460018060a01b0316983398869192608093969594919660a084019784526020840152604083015260608201520152565b0390a360405160018152602090f35b610b96565b50610bea33612188565b610b8d565b60405162461bcd60e51b815260206004820152603060248201527f5472616e7366657272656420616d6f756e74206e6565647320746f206265206760448201526f726561746572207468616e207a65726f60801b6064820152608490fd5b503461000e57602036600319011261000e576001600160a01b03610c6f61037a565b1660005260006020526020604060002054604051908152f35b503461000e57600036600319011261000e5760206040516000198152f35b503461000e57602036600319011261000e57600435610cc68115156112bd565b610ccf3361185b565b919250906000198414610e2e575b610ce983851115611308565b610cf6610b0485336117be565b610d01848333611b6a565b610d0b843361137c565b6000610d1785856114b1565b15610e1f575b600c54610d3a906001600160a01b03165b6001600160a01b031690565b600554610d529087906001600160a01b0316966114b1565b94813b1561000e57604051631312bc7b60e31b81526001600160a01b039190911660048201523360248201526044810187905260648101959095527fbd5034ffbd47e4e72a94baa2cdb74c6fad73cb3bcdc13036b72ec8306f5a764694906000908290608490829084905af18015610e12575b610df9575b5015610df357506000905b60408051948552602085019190915283015233918060608101610801565b90610dd5565b80610e06610e0c92610fc4565b80610210565b38610dca565b610e1a61136f565b610dc5565b50610e2933612188565b610d1d565b92508192610cdd565b503461000e57604036600319011261000e576020610e87610e5661037a565b610e5e610390565b6001600160a01b0391821660009081526001855260408082209290931681526020919091522090565b54604051908152f35b503461000e57602036600319011261000e576001600160a01b03610eb261037a565b1660005260066020526020604060002054604051908152f35b503461000e57610eda36610532565b9060018060a01b03610ef181600c541633146114c8565b8215610bef577f89a178eaa27e0cd201bd795ca8ff716ac0df9618494510ca79771cfc66ffcde891610faa610f258661185b565b925090610f318561185b565b959250929050610f428a858d611b6a565b610f55610f4f8b8561104c565b88611956565b610f608a888d611e54565b610f6c8a6000926114b1565b15610fb5575b15610faf57506000915b60408051998a5260208a019190915288015260608701526080860152908216949091169290819060a0820190565b0390a3005b91610f7c565b50610fbf8a612188565b610f72565b67ffffffffffffffff8111610fd857604052565b634e487b7160e01b600052604160045260246000fd5b90601f8019910116810190811067ffffffffffffffff821117610fd857604052565b50634e487b7160e01b600052601160045260246000fd5b6b019d971e4fe8401e7400000081198111611040570190565b611048611010565b0190565b81198111611040570190565b6001600160a01b0380821692919083156111375782169384156110e757806110d17f8c5be1e5ebec7d5bd14f71427d1e84f3dd0314c0f7b2291e5b200ac8c7c3b925946110ba6110e29560018060a01b03166000526001602052604060002090565b9060018060a01b0316600052602052604060002090565b556040519081529081906020820190565b0390a3565b60405162461bcd60e51b815260206004820152602260248201527f45524332303a20617070726f766520746f20746865207a65726f206164647265604482015261737360f01b6064820152608490fd5b60405162461bcd60e51b8152602060048201526024808201527f45524332303a20617070726f76652066726f6d20746865207a65726f206164646044820152637265737360e01b6064820152608490fd5b1561118f57565b60405162461bcd60e51b815260206004820152601b60248201527f5472616e736665722063616e6e6f7420626520616c6c6f7765642e00000000006044820152606490fd5b91906111e3610b0483856117be565b8115610bef576110e27f89a178eaa27e0cd201bd795ca8ff716ac0df9618494510ca79771cfc66ffcde8916112178561185b565b91909492506112258461185b565b94925092905061123689888c611b6a565b6112496112438a8561104c565b87611956565b61125489878c611e54565b611260896000926114b1565b156112ae575b156112a857506000905b60405195869560018060a01b038091169a1698869192608093969594919660a084019784526020840152604083015260608201520152565b90611270565b506112b889612188565b611266565b156112c457565b606460405162461bcd60e51b815260206004820152602060248201527f416d6f756e7420746f2072656465656d206e6565647320746f206265203e20306044820152fd5b1561130f57565b60405162461bcd60e51b815260206004820152603260248201527f557365722063616e6e6f742072656465656d206d6f7265207468616e2074686560448201527120617661696c61626c652062616c616e636560701b6064820152608490fd5b506040513d6000823e3d90fd5b6001600160a01b038116908115611462576001600160a01b03811660009081526020819052604090205483811061141257837fddf252ad1be2c89b69c2b068fc378daa952ba7f163c4a11628f55a4df523b3ef926113f46000966110e294039160018060a01b03166000526000602052604060002090565b556114028160025403600255565b6040519081529081906020820190565b60405162461bcd60e51b815260206004820152602260248201527f45524332303a206275726e20616d6f756e7420657863656564732062616c616e604482015261636560f01b6064820152608490fd5b60405162461bcd60e51b815260206004820152602160248201527f45524332303a206275726e2066726f6d20746865207a65726f206164647265736044820152607360f81b6064820152608490fd5b8181106114bc570390565b6114c4611010565b0390565b156114cf57565b60405162461bcd60e51b815260206004820152603260248201527f5468652063616c6c6572206f6620746869732066756e6374696f6e206d7573746044820152710818994818481b195b991a5b99c81c1bdbdb60721b6064820152608490fd5b6001600160a01b0381169182156115a2576020816115936000946115767fddf252ad1be2c89b69c2b068fc378daa952ba7f163c4a11628f55a4df523b3ef9560025461104c565b6002556001600160a01b0316600090815260208190526040902090565b818154019055604051908152a3565b60405162461bcd60e51b815260206004820152601f60248201527f45524332303a206d696e7420746f20746865207a65726f2061646472657373006044820152606490fd5b60018060a01b03908181166000526000602052604060002054600860205260406000205492811580611681575b611678576001600160a01b0383166000908152600760205260409020541661164a5790611644836114b19361104c565b90611c7f565b90916116598161166894611c7f565b81811061166b575b039061104c565b90565b611673611010565b611661565b50505050600090565b508315611614565b9081602091031261000e575190565b600254801561175b576b033b2e3c9fd0803ce80000006117186117136116f96116c361166895611761565b600b5460055460405163d15e005360e01b81526001600160a01b0391821660048201529360209285921690829081906024820190565b03915afa91821561174e575b60009261171e575b50611786565b611027565b04611799565b61174091925060203d8111611747575b6117388183610fee565b810190611689565b903861170d565b503d61172e565b61175661136f565b611705565b50600090565b633b9aca0090806000190482118115151661177a570290565b611782611010565b0290565b806000190482118115151661177a570290565b633b9aca0090631dcd6500811981116117b157010490565b6117b9611010565b010490565b600d546005546040516376e9d61560e01b81526001600160a01b03918216600482015292811660248401526044830193909352909160209183916064918391165afa90811561184e575b600091611813575090565b6020813d8211611846575b8161182b60209383610fee565b810103126118425751908115158203610377575090565b5080fd5b3d915061181e565b61185661136f565b611808565b60018060a01b03811660005260006020526118db6040600020549283611880846115e7565b818110611949575b0392611894848261152f565b600b546020906118ac906001600160a01b0316610d2e565b60055460405163d15e005360e01b81526001600160a01b03909116600482015294859190829081906024820190565b03915afa92831561193c575b60009361191a575b506001600160a01b0316600090815260066020526040902082905b55611915838561104c565b929190565b61190a93506119369060203d8111611747576117388183610fee565b926118ef565b61194461136f565b6118e7565b611951611010565b611888565b6001600160a01b039081166000908152600760205260409020548116918215611a59577f70ff8cf632603e2bfd1afb7e4061acce53d95356b1be9726b99fa22ba733b01f916080916119a78561185b565b92509390506119cc8361073e8960018060a01b03166000526008602052604060002090565b6001600160a01b0388166000908152600860209081526040808320939093556007905220541680611a13575b506040519283526020830152604082015260006060820152a2565b611a52611a368561073e8460018060a01b03166000526008602052604060002090565b6001600160a01b03909216600090815260086020526040902090565b55386119f8565b505050565b6001600160a01b039081166000908152600760205260409020548116918215611a59577f70ff8cf632603e2bfd1afb7e4061acce53d95356b1be9726b99fa22ba733b01f91608091611aaf8561185b565b925093905082611ad18860018060a01b03166000526008602052604060002090565b54818110611b5d575b03611af78860018060a01b03166000526008602052604060002090565b556001600160a01b0387166000908152600760205260409020541680611b33575b506040519283526020830152600060408301526060820152a2565b611b56611a368561073e8460018060a01b03166000526008602052604060002090565b5538611b18565b611b65611010565b611ada565b6001600160a01b0390811660009081526007602052604090205481169291908315611c79577f70ff8cf632603e2bfd1afb7e4061acce53d95356b1be9726b99fa22ba733b01f92608092611bbd8661185b565b925094905083611be38461073e8b60018060a01b03166000526008602052604060002090565b818110611c6c575b03611c088960018060a01b03166000526008602052604060002090565b556001600160a01b0388166000908152600760205260409020541680611c42575b50604051938452602084015260408301526060820152a2565b611c65611a368661073e8460018060a01b03166000526008602052604060002090565b5538611c29565b611c74611010565b611beb565b50505050565b611d0990611d026b033b2e3c9fd0803ce8000000611ce8611713611ccd61166897633b9aca00908060001904821181151516611d3b57600b546020906118ac906001600160a01b0316610d2e565b03915afa928315611d2e575b600093611d0e575b5002611786565b049160018060a01b03166000526006602052604060002090565b5490611d48565b611799565b611d2791935060203d8111611747576117388183610fee565b9138611ce1565b611d3661136f565b611cd9565b611d43611010565b611894565b611d74906b033b2e3c9fd0803ce8000000908060001904821181151516611d94575b028260011c61104c565b8115611d7e570490565b634e487b7160e01b600052601260045260246000fd5b611d9c611010565b611d6a565b15611da857565b60405162461bcd60e51b815260206004820152602360248201527f45524332303a207472616e7366657220746f20746865207a65726f206164647260448201526265737360e81b6064820152608490fd5b15611e0057565b60405162461bcd60e51b815260206004820152602660248201527f45524332303a207472616e7366657220616d6f756e7420657863656564732062604482015265616c616e636560d01b6064820152608490fd5b916001600160a01b038084169290918315611f1857611f02827fddf252ad1be2c89b69c2b068fc378daa952ba7f163c4a11628f55a4df523b3ef946110e2941696611ea0881515611da1565b611ee784611ec08360018060a01b03166000526000602052604060002090565b54611ecd82821015611df9565b039160018060a01b03166000526000602052604060002090565b556001600160a01b0316600090815260208190526040902090565b8054820190556040519081529081906020820190565b60405162461bcd60e51b815260206004820152602560248201527f45524332303a207472616e736665722066726f6d20746865207a65726f206164604482015264647265737360d81b6064820152608490fd5b15611f7257565b60405162461bcd60e51b815260206004820152604260248201527f496e7465726573742073747265616d2063616e206f6e6c79206265207265646960448201527f72656374656420696620746865726520697320612076616c69642062616c616e606482015261636560f01b608482015260a490fd5b6001600160a01b0381811660009081526007602052604090205491928082169290919081168381146121305761201d8561185b565b97929094919361202e851515611f6b565b612120575b508116938486146120cb57956120ae83836120a97f5e3cad45b1fe24159d1cb39788d82d0f69cc15770aa96fba1d3d1a734873559498999a61208a6110e29760018060a01b03166000526007602052604060002090565b80546001600160a01b0319166001600160a01b03909216919091179055565b611956565b604051938493846040919493926060820195825260208201520152565b506001600160a01b0316600090815260076020526040812080546001600160a01b0319169055949293507f5e3cad45b1fe24159d1cb39788d82d0f69cc15770aa96fba1d3d1a7348735594926110e2906120ae565b61212a9083611a5e565b38612033565b60405162461bcd60e51b815260206004820152602a60248201527f496e74657265737420697320616c72656164792072656469726563746564207460448201526937903a3432903ab9b2b960b11b6064820152608490fd5b60018060a01b03811690600082819382526007602052604082206bffffffffffffffffffffffff60a01b81541690557f5e3cad45b1fe24159d1cb39788d82d0f69cc15770aa96fba1d3d1a73487355946060604051848152846020820152846040820152a36001600160a01b038116600090815260086020526040902054612227576001600160a01b0316600090815260066020526040902055600190565b509056fea26469706673582212206b97e06c0a6ca971ab8c80ec6bb50ee239cce5b4afa487b9fd4eefecb1ed003164736f6c634300080d0033",
  "linkReferences": {},
  "deployedLinkReferences": {}
}