{
  "_format": "hh-sol-artifact-1",
  "contractName": "AToken",
  "sourceName": "contracts/tokenization/AToken.sol",
  "abi": [
    {
      "inputs": [
        {
          "internalType": "contract LendingBoardAddressesProvider",
          "name": "_addressesProvider",
          "type": "address"
        },
        {
          "internalType": "address",
          "name": "_underlyingAsset",
          "type": "address"
        },
        {
          "internalType": "uint8",
          "name": "_underlyingAssetDecimals",
          "type": "uint8"
        },
        {
          "internalType": "string",
          "name": "_name",
          "type": "string"
        },
        {
          "internalType": "string",
          "name": "_symbol",
          "type": "string"
        }
      ],
      "stateMutability": "nonpayable",
      "type": "constructor"
    },
    {
      "anonymous": false,
      "inputs": [
        {
          "indexed": true,
          "internalType": "address",
          "name": "owner",
          "type": "address"
        },
        {
          "indexed": true,
          "internalType": "address",
          "name": "spender",
          "type": "address"
        },
        {
          "indexed": false,
          "internalType": "uint256",
          "name": "value",
          "type": "uint256"
        }
      ],
      "name": "Approval",
      "type": "event"
    },
    {
      "anonymous": false,
      "inputs": [
        {
          "indexed": true,
          "internalType": "address",
          "name": "_from",
          "type": "address"
        },
        {
          "indexed": true,
          "internalType": "address",
          "name": "_to",
          "type": "address"
        },
        {
          "indexed": false,
          "internalType": "uint256",
          "name": "_value",
          "type": "uint256"
        },
        {
          "indexed": false,
          "internalType": "uint256",
          "name": "_fromBalanceIncrease",
          "type": "uint256"
        },
        {
          "indexed": false,
          "internalType": "uint256",
          "name": "_toBalanceIncrease",
          "type": "uint256"
        },
        {
          "indexed": false,
          "internalType": "uint256",
          "name": "_fromIndex",
          "type": "uint256"
        },
        {
          "indexed": false,
          "internalType": "uint256",
          "name": "_toIndex",
          "type": "uint256"
        }
      ],
      "name": "BalanceTransfer",
      "type": "event"
    },
    {
      "anonymous": false,
      "inputs": [
        {
          "indexed": true,
          "internalType": "address",
          "name": "_from",
          "type": "address"
        },
        {
          "indexed": false,
          "internalType": "uint256",
          "name": "_value",
          "type": "uint256"
        },
        {
          "indexed": false,
          "internalType": "uint256",
          "name": "_fromBalanceIncrease",
          "type": "uint256"
        },
        {
          "indexed": false,
          "internalType": "uint256",
          "name": "_fromIndex",
          "type": "uint256"
        }
      ],
      "name": "BurnOnLiquidation",
      "type": "event"
    },
    {
      "anonymous": false,
      "inputs": [
        {
          "indexed": true,
          "internalType": "address",
          "name": "_from",
          "type": "address"
        },
        {
          "indexed": true,
          "internalType": "address",
          "name": "_to",
          "type": "address"
        }
      ],
      "name": "InterestRedirectionAllowanceChanged",
      "type": "event"
    },
    {
      "anonymous": false,
      "inputs": [
        {
          "indexed": true,
          "internalType": "address",
          "name": "_from",
          "type": "address"
        },
        {
          "indexed": true,
          "internalType": "address",
          "name": "_to",
          "type": "address"
        },
        {
          "indexed": false,
          "internalType": "uint256",
          "name": "_redirectedBalance",
          "type": "uint256"
        },
        {
          "indexed": false,
          "internalType": "uint256",
          "name": "_fromBalanceIncrease",
          "type": "uint256"
        },
        {
          "indexed": false,
          "internalType": "uint256",
          "name": "_fromIndex",
          "type": "uint256"
        }
      ],
      "name": "InterestStreamRedirected",
      "type": "event"
    },
    {
      "anonymous": false,
      "inputs": [
        {
          "indexed": true,
          "internalType": "address",
          "name": "_from",
          "type": "address"
        },
        {
          "indexed": false,
          "internalType": "uint256",
          "name": "_value",
          "type": "uint256"
        },
        {
          "indexed": false,
          "internalType": "uint256",
          "name": "_fromBalanceIncrease",
          "type": "uint256"
        },
        {
          "indexed": false,
          "internalType": "uint256",
          "name": "_fromIndex",
          "type": "uint256"
        }
      ],
      "name": "MintOnDeposit",
      "type": "event"
    },
    {
      "anonymous": false,
      "inputs": [
        {
          "indexed": true,
          "internalType": "address",
          "name": "_from",
          "type": "address"
        },
        {
          "indexed": false,
          "internalType": "uint256",
          "name": "_value",
          "type": "uint256"
        },
        {
          "indexed": false,
          "internalType": "uint256",
          "name": "_fromBalanceIncrease",
          "type": "uint256"
        },
        {
          "indexed": false,
          "internalType": "uint256",
          "name": "_fromIndex",
          "type": "uint256"
        }
      ],
      "name": "Redeem",
      "type": "event"
    },
    {
      "anonymous": false,
      "inputs": [
        {
          "indexed": true,
          "internalType": "address",
          "name": "_targetAddress",
          "type": "address"
        },
        {
          "indexed": false,
          "internalType": "uint256",
          "name": "_targetBalanceIncrease",
          "type": "uint256"
        },
        {
          "indexed": false,
          "internalType": "uint256",
          "name": "_targetIndex",
          "type": "uint256"
        },
        {
          "indexed": false,
          "internalType": "uint256",
          "name": "_redirectedBalanceAdded",
          "type": "uint256"
        },
        {
          "indexed": false,
          "internalType": "uint256",
          "name": "_redirectedBalanceRemoved",
          "type": "uint256"
        }
      ],
      "name": "RedirectedBalanceUpdated",
      "type": "event"
    },
    {
      "anonymous": false,
      "inputs": [
        {
          "indexed": true,
          "internalType": "address",
          "name": "from",
          "type": "address"
        },
        {
          "indexed": true,
          "internalType": "address",
          "name": "to",
          "type": "address"
        },
        {
          "indexed": false,
          "internalType": "uint256",
          "name": "value",
          "type": "uint256"
        }
      ],
      "name": "Transfer",
      "type": "event"
    },
    {
      "inputs": [],
      "name": "UINT_MAX_VALUE",
      "outputs": [
        {
          "internalType": "uint256",
          "name": "",
          "type": "uint256"
        }
      ],
      "stateMutability": "view",
      "type": "function"
    },
    {
      "inputs": [
        {
          "internalType": "address",
          "name": "_to",
          "type": "address"
        }
      ],
      "name": "allowInterestRedirectionTo",
      "outputs": [],
      "stateMutability": "nonpayable",
      "type": "function"
    },
    {
      "inputs": [
        {
          "internalType": "address",
          "name": "owner",
          "type": "address"
        },
        {
          "internalType": "address",
          "name": "spender",
          "type": "address"
        }
      ],
      "name": "allowance",
      "outputs": [
        {
          "internalType": "uint256",
          "name": "",
          "type": "uint256"
        }
      ],
      "stateMutability": "view",
      "type": "function"
    },
    {
      "inputs": [
        {
          "internalType": "address",
          "name": "spender",
          "type": "address"
        },
        {
          "internalType": "uint256",
          "name": "amount",
          "type": "uint256"
        }
      ],
      "name": "approve",
      "outputs": [
        {
          "internalType": "bool",
          "name": "",
          "type": "bool"
        }
      ],
      "stateMutability": "nonpayable",
      "type": "function"
    },
    {
      "inputs": [
        {
          "internalType": "address",
          "name": "_user",
          "type": "address"
        }
      ],
      "name": "balanceOf",
      "outputs": [
        {
          "internalType": "uint256",
          "name": "",
          "type": "uint256"
        }
      ],
      "stateMutability": "view",
      "type": "function"
    },
    {
      "inputs": [
        {
          "internalType": "address",
          "name": "_account",
          "type": "address"
        },
        {
          "internalType": "uint256",
          "name": "_value",
          "type": "uint256"
        }
      ],
      "name": "burnOnLiquidation",
      "outputs": [],
      "stateMutability": "nonpayable",
      "type": "function"
    },
    {
      "inputs": [],
      "name": "decimals",
      "outputs": [
        {
          "internalType": "uint8",
          "name": "",
          "type": "uint8"
        }
      ],
      "stateMutability": "view",
      "type": "function"
    },
    {
      "inputs": [
        {
          "internalType": "address",
          "name": "spender",
          "type": "address"
        },
        {
          "internalType": "uint256",
          "name": "subtractedValue",
          "type": "uint256"
        }
      ],
      "name": "decreaseAllowance",
      "outputs": [
        {
          "internalType": "bool",
          "name": "",
          "type": "bool"
        }
      ],
      "stateMutability": "nonpayable",
      "type": "function"
    },
    {
      "inputs": [
        {
          "internalType": "address",
          "name": "_user",
          "type": "address"
        }
      ],
      "name": "getInterestRedirectionAddress",
      "outputs": [
        {
          "internalType": "address",
          "name": "",
          "type": "address"
        }
      ],
      "stateMutability": "view",
      "type": "function"
    },
    {
      "inputs": [
        {
          "internalType": "address",
          "name": "_user",
          "type": "address"
        }
      ],
      "name": "getRedirectedBalance",
      "outputs": [
        {
          "internalType": "uint256",
          "name": "",
          "type": "uint256"
        }
      ],
      "stateMutability": "view",
      "type": "function"
    },
    {
      "inputs": [
        {
          "internalType": "address",
          "name": "_user",
          "type": "address"
        }
      ],
      "name": "getUserIndex",
      "outputs": [
        {
          "internalType": "uint256",
          "name": "",
          "type": "uint256"
        }
      ],
      "stateMutability": "view",
      "type": "function"
    },
    {
      "inputs": [
        {
          "internalType": "address",
          "name": "spender",
          "type": "address"
        },
        {
          "internalType": "uint256",
          "name": "addedValue",
          "type": "uint256"
        }
      ],
      "name": "increaseAllowance",
      "outputs": [
        {
          "internalType": "bool",
          "name": "",
          "type": "bool"
        }
      ],
      "stateMutability": "nonpayable",
      "type": "function"
    },
    {
      "inputs": [
        {
          "internalType": "address",
          "name": "_user",
          "type": "address"
        },
        {
          "internalType": "uint256",
          "name": "_amount",
          "type": "uint256"
        }
      ],
      "name": "isTransferAllowed",
      "outputs": [
        {
          "internalType": "bool",
          "name": "",
          "type": "bool"
        }
      ],
      "stateMutability": "view",
      "type": "function"
    },
    {
      "inputs": [
        {
          "internalType": "address",
          "name": "_account",
          "type": "address"
        },
        {
          "internalType": "uint256",
          "name": "_amount",
          "type": "uint256"
        }
      ],
      "name": "mintOnDeposit",
      "outputs": [],
      "stateMutability": "nonpayable",
      "type": "function"
    },
    {
      "inputs": [],
      "name": "name",
      "outputs": [
        {
          "internalType": "string",
          "name": "",
          "type": "string"
        }
      ],
      "stateMutability": "view",
      "type": "function"
    },
    {
      "inputs": [
        {
          "internalType": "address",
          "name": "_user",
          "type": "address"
        }
      ],
      "name": "principalBalanceOf",
      "outputs": [
        {
          "internalType": "uint256",
          "name": "",
          "type": "uint256"
        }
      ],
      "stateMutability": "view",
      "type": "function"
    },
    {
      "inputs": [
        {
          "internalType": "uint256",
          "name": "_amount",
          "type": "uint256"
        }
      ],
      "name": "redeem",
      "outputs": [],
      "stateMutability": "nonpayable",
      "type": "function"
    },
    {
      "inputs": [
        {
          "internalType": "address",
          "name": "_to",
          "type": "address"
        }
      ],
      "name": "redirectInterestStream",
      "outputs": [],
      "stateMutability": "nonpayable",
      "type": "function"
    },
    {
      "inputs": [
        {
          "internalType": "address",
          "name": "_from",
          "type": "address"
        },
        {
          "internalType": "address",
          "name": "_to",
          "type": "address"
        }
      ],
      "name": "redirectInterestStreamOf",
      "outputs": [],
      "stateMutability": "nonpayable",
      "type": "function"
    },
    {
      "inputs": [],
      "name": "symbol",
      "outputs": [
        {
          "internalType": "string",
          "name": "",
          "type": "string"
        }
      ],
      "stateMutability": "view",
      "type": "function"
    },
    {
      "inputs": [],
      "name": "totalSupply",
      "outputs": [
        {
          "internalType": "uint256",
          "name": "",
          "type": "uint256"
        }
      ],
      "stateMutability": "view",
      "type": "function"
    },
    {
      "inputs": [
        {
          "internalType": "address",
          "name": "to",
          "type": "address"
        },
        {
          "internalType": "uint256",
          "name": "amount",
          "type": "uint256"
        }
      ],
      "name": "transfer",
      "outputs": [
        {
          "internalType": "bool",
          "name": "",
          "type": "bool"
        }
      ],
      "stateMutability": "nonpayable",
      "type": "function"
    },
    {
      "inputs": [
        {
          "internalType": "address",
          "name": "from",
          "type": "address"
        },
        {
          "internalType": "address",
          "name": "to",
          "type": "address"
        },
        {
          "internalType": "uint256",
          "name": "amount",
          "type": "uint256"
        }
      ],
      "name": "transferFrom",
      "outputs": [
        {
          "internalType": "bool",
          "name": "",
          "type": "bool"
        }
      ],
      "stateMutability": "nonpayable",
      "type": "function"
    },
    {
      "inputs": [
        {
          "internalType": "address",
          "name": "_from",
          "type": "address"
        },
        {
          "internalType": "address",
          "name": "_to",
          "type": "address"
        },
        {
          "internalType": "uint256",
          "name": "_value",
          "type": "uint256"
        }
      ],
      "name": "transferOnLiquidation",
      "outputs": [],
      "stateMutability": "nonpayable",
      "type": "function"
    },
    {
      "inputs": [
        {
          "internalType": "address",
          "name": "_from",
          "type": "address"
        },
        {
          "internalType": "address",
          "name": "_to",
          "type": "address"
        },
        {
          "internalType": "uint256",
          "name": "_value",
          "type": "uint256"
        }
      ],
      "name": "transferOnProposalAccept",
      "outputs": [],
      "stateMutability": "nonpayable",
      "type": "function"
    },
    {
      "inputs": [
        {
          "internalType": "address",
          "name": "_from",
          "type": "address"
        },
        {
          "internalType": "address",
          "name": "_to",
          "type": "address"
        },
        {
          "internalType": "uint256",
          "name": "_value",
          "type": "uint256"
        }
      ],
      "name": "transferOnRepay",
      "outputs": [],
      "stateMutability": "nonpayable",
      "type": "function"
    },
    {
      "inputs": [],
      "name": "underlyingAssetAddress",
      "outputs": [
        {
          "internalType": "address",
          "name": "",
          "type": "address"
        }
      ],
      "stateMutability": "view",
      "type": "function"
    }
  ],
  "bytecode": "0x60808060405234620000b75762002a3b8038038091620000208285620000d3565b8339810160a082820312620000b7578151906200003d8262000106565b60208301516200004d8162000106565b604084015160ff811603620000b75760608401516001600160401b039490858111620000b757836200008191830162000118565b926080820151958611620000b757620000a795620000a0920162000118565b92620001d9565b6040516123189081620007238239f35b600080fd5b50634e487b7160e01b600052604160045260246000fd5b601f909101601f19168101906001600160401b03821190821017620000f757604052565b62000101620000bc565b604052565b6001600160a01b03811603620000b757565b9080601f83011215620000b7578151906001600160401b038211620001a1575b6040519260209162000154601f8501601f1916840186620000d3565b838552828483010111620000b75782906000905b8383831062000188575050116200017e57505090565b6000918301015290565b8193508281939201015182828801015201839162000168565b620001ab620000bc565b62000138565b90816020910312620000b75751620001c98162000106565b90565b506040513d6000823e3d90fd5b620001ee6200036a9462000210939462000609565b600a80546001600160a01b0319166001600160a01b0392909216919091179055565b600a54620003489062000233906001600160a01b03165b6001600160a01b031690565b6040518091630774f5f560e21b825281600460209384935afa91821562000406575b600092620003e2575b50600b80546001600160a01b0319166001600160a01b03938416179055620002e2826004836200029962000227600a5460018060a01b031690565b604051630cc3b2e360e21b815292839182905afa908115620003d2575b600091620003b0575b50600c8054919092166001600160a01b03166001600160a01b0319909116179055565b600a546004908290620002fe906001600160a01b031662000227565b6040516352cb335b60e11b815292839182905afa918215620003a0575b6000926200036c575b5050600d8054919092166001600160a01b03166001600160a01b0319909116179055565b600580546001600160a01b0319166001600160a01b0392909216919091179055565b565b620003909250803d1062000398575b620003878183620000d3565b810190620001b1565b388062000324565b503d6200037b565b620003aa620001cc565b6200031b565b620003cb9150843d86116200039857620003878183620000d3565b38620002bf565b620003dc620001cc565b620002b6565b81620003fe9293503d84116200039857620003878183620000d3565b90386200025e565b62000410620001cc565b62000255565b90600182811c9216801562000448575b60208310146200043257565b634e487b7160e01b600052602260045260246000fd5b91607f169162000426565b601f811162000460575050565b6000906003825260208220906020601f850160051c83019410620004a1575b601f0160051c01915b8281106200049557505050565b81815560010162000488565b90925082906200047f565b601f8111620004b9575050565b6000906004825260208220906020601f850160051c83019410620004fa575b601f0160051c01915b828110620004ee57505050565b818155600101620004e1565b9092508290620004d8565b80519091906001600160401b038111620005f9575b62000532816200052c60045462000416565b620004ac565b602080601f831160011462000571575081929360009262000565575b50508160011b916000199060031b1c191617600455565b0151905038806200054e565b6004600052601f198316949091907f8a35acfbc15ff81a39ae7d344fd709f28e8600b4aa8c65c6b64bfe7fe36bd19b926000905b878210620005e0575050836001959610620005c6575b505050811b01600455565b015160001960f88460031b161c19169055388080620005bb565b80600185968294968601518155019501930190620005a5565b62000603620000bc565b6200051a565b80519091906001600160401b03811162000712575b62000636816200063060035462000416565b62000453565b602080601f83116001146200067d575081906200036a9460009262000671575b50508160011b916000199060031b1c19161760035562000505565b01519050388062000656565b60036000529293919291601f1984167fc2575a0e9e593c00f959f8c92f12db2869c3395a3b0502d05e2516446f71f85b936000905b828210620006f95750509160019391856200036a97969410620006df575b505050811b0160035562000505565b015160001960f88460031b161c19169055388080620006d0565b80600186978294978701518155019601940190620006b2565b6200071c620000bc565b6200061e56fe60806040526004361015610013575b600080fd5b60003560e01c806306fdde0314610226578063095ea7b31461021d5780630e49072d1461021457806312c87c2d1461020b57806318160ddd146102025780631d51e7cf146101f95780631f7245421461017257806323b872dd146101f0578063313ce567146101e7578063325a9b13146101de57806339509351146101d55780633edb7cb8146101cc578063445e8010146101c35780635eae177c146101ba57806370a08231146101b157806389d1a0fc146101a857806394362e8b1461019f57806395d89b4114610196578063a457c2d71461018d578063a9059cbb14610184578063c634dfaa1461017b578063cae20be014610172578063d0fc81d214610169578063db006a7514610160578063dd62ed3e14610157578063ee9907a41461014e5763f866c3191461014657600080fd5b61000e610fe3565b5061000e610fa8565b5061000e610f4f565b5061000e610dbe565b5061000e610da0565b5061000e610586565b5061000e610d65565b5061000e610c50565b5061000e610ba1565b5061000e610add565b5061000e610a5a565b5061000e610a30565b5061000e610a0c565b5061000e6109da565b5061000e61099e565b5061000e6108c1565b5061000e610868565b5061000e6107b1565b5061000e610794565b5061000e6106dd565b5061000e610516565b5061000e6104f2565b5061000e61041c565b5061000e6103f7565b5061000e6103c5565b5061000e610291565b600091031261000e57565b919091602080825283519081818401526000945b82861061027b57505080604093941161026e575b601f01601f1916010190565b6000838284010152610262565b858101820151848701604001529481019461024e565b503461000e576000806003193601126103965760405190806003549060019180831c9280821692831561038c575b602092838610851461037857858852602088019490811561035c5750600114610303575b6102ff876102f381890382611033565b6040519182918261023a565b0390f35b600360005294509192917fc2575a0e9e593c00f959f8c92f12db2869c3395a3b0502d05e2516446f71f85b5b83861061034b57505050910190506102f3826102ff38806102e3565b80548587015294820194810161032f565b60ff191685525050500191506102f39050826102ff38806102e3565b634e487b7160e01b82526022600452602482fd5b93607f16936102bf565b80fd5b600435906001600160a01b038216820361000e57565b602435906001600160a01b038216820361000e57565b503461000e57604036600319011261000e576103ec6103e2610399565b602435903361109d565b602060405160018152f35b503461000e57602036600319011261000e5761041a610414610399565b3361209f565b005b503461000e57602036600319011261000e57610436610399565b6001600160a01b03811633811461049f5733600090815260096020526040812080546001600160a01b0319166001600160a01b039094169390931790925560405190337fc2d6a42a9d5273283f73009a07aacfb043f2f91173a8d9d33b504afe898db08b8484a3f35b60405162461bcd60e51b815260206004820152602560248201527f557365722063616e6e6f74206769766520616c6c6f77616e636520746f20686960448201526436b9b2b63360d91b6064820152608490fd5b503461000e57600036600319011261000e57602061050e61174f565b604051908152f35b503461000e57602036600319011261000e576001600160a01b03610538610399565b1660005260086020526020604060002054604051908152f35b606090600319011261000e576001600160a01b0390600435828116810361000e5791602435908116810361000e579060443590565b503461000e5761059536610551565b9060018060a01b036105ac81600b5416331461162c565b821561067f577f89a178eaa27e0cd201bd795ca8ff716ac0df9618494510ca79771cfc66ffcde8916106656105e086611912565b9250906105ec85611912565b9592509290506105fd8a858d611c21565b61061061060a8b85611091565b88611a0d565b61061b8a888d611f0b565b6106278a6000926114f6565b15610670575b1561066a57506000915b60408051998a5260208a019190915288015260608701526080860152908216949091169290819060a0820190565b0390a3005b91610637565b5061067a8a61223f565b61062d565b60405162461bcd60e51b815260206004820152603060248201527f5472616e7366657272656420616d6f756e74206e6565647320746f206265206760448201526f726561746572207468616e207a65726f60801b6064820152608490fd5b503461000e576106ec36610551565b6001600160a01b03831660009081526001602090815260408083203384529091529020909190549260018401610733575b6107279350611219565b60405160018152602090f35b82841061074f5761074a836107279503338361109d565b61071d565b60405162461bcd60e51b815260206004820152601d60248201527f45524332303a20696e73756666696369656e7420616c6c6f77616e63650000006044820152606490fd5b503461000e57600036600319011261000e57602060405160128152f35b503461000e57604036600319011261000e576107cb610399565b6107d36103af565b6001600160a01b038281166000908152600960205260409020541633036107fd5761041a9161209f565b60405162461bcd60e51b815260206004820152603a60248201527f43616c6c6572206973206e6f7420616c6c6f77656420746f207265646972656360448201527f742074686520696e746572657374206f662074686520757365720000000000006064820152608490fd5b503461000e57604036600319011261000e576103ec610885610399565b3360005260016020526108ba6024356108b48360406000209060018060a01b0316600052602052604060002090565b54611091565b903361109d565b503461000e57604036600319011261000e576108db610399565b7f90e5d3d68ec162d9c7de393037a3ede04dd44f68e051bf2ace4a73c299dbc4db6024359160018060a01b039061091782600c5416331461150d565b61097761092382611912565b91909250610932888487611c21565b61093c88866113c1565b87600091818110610991575b14610982575b1561097c57506000905b6040519485941696846040919493926060820195825260208201520152565b0390a2005b90610958565b5061098c8461223f565b61094e565b610999611055565b610948565b503461000e57602036600319011261000e5760206001600160a01b03806109c3610399565b166000526007825260406000205416604051908152f35b503461000e57604036600319011261000e576020610a026109f9610399565b60243590611875565b6040519015158152f35b503461000e57602036600319011261000e57602061050e610a2b610399565b61169e565b503461000e57600036600319011261000e576005546040516001600160a01b039091168152602090f35b503461000e57604036600319011261000e57610a74610399565b7fbe7799898ca2d813ff902b487c1b434ab45b47edd8f38b77ad5e99aae8341b7a6024359160018060a01b0390610ab082600c5416331461150d565b610977610abc82611912565b92509050610ad3610acd8883611091565b85611a0d565b6109588785611574565b503461000e576000806003193601126103965760405190806004549060019180831c92808216928315610b97575b602092838610851461037857858852602088019490811561035c5750600114610b3e576102ff876102f381890382611033565b600460005294509192917f8a35acfbc15ff81a39ae7d344fd709f28e8600b4aa8c65c6b64bfe7fe36bd19b5b838610610b8657505050910190506102f3826102ff38806102e3565b805485870152948201948101610b6a565b93607f1693610b0b565b503461000e57604036600319011261000e57610bbb610399565b60243590336000526001602052610be88160406000209060018060a01b0316600052602052604060002090565b5491808310610bfd576107279203903361109d565b60405162461bcd60e51b815260206004820152602560248201527f45524332303a2064656372656173656420616c6c6f77616e63652062656c6f77604482015264207a65726f60d81b6064820152608490fd5b503461000e57604036600319011261000e57610c6a610399565b602435610c7f610c7a8233611875565b6111cd565b801561067f577f89a178eaa27e0cd201bd795ca8ff716ac0df9618494510ca79771cfc66ffcde8610d42610cb233611912565b90969250610cc283949294611912565b939250959050610cd3888a33611c21565b610ce6610ce08988611091565b86611a0d565b610cf1888633611f0b565b610cfd886000926114f6565b15610d56575b15610d51575060005b60405194859460018060a01b0316983398869192608093969594919660a084019784526020840152604083015260608201520152565b0390a360405160018152602090f35b610d0c565b50610d603361223f565b610d03565b503461000e57602036600319011261000e576001600160a01b03610d87610399565b1660005260006020526020604060002054604051908152f35b503461000e57600036600319011261000e5760206040516000198152f35b503461000e57602036600319011261000e57600435610dde811515611302565b610de733611912565b919250906000198414610f46575b610e018385111561134d565b610e0e610c7a8533611875565b610e19848333611c21565b610e2384336113c1565b6000610e2f85856114f6565b15610f37575b600c54610e52906001600160a01b03165b6001600160a01b031690565b600554610e6a9087906001600160a01b0316966114f6565b94813b1561000e57604051631312bc7b60e31b81526001600160a01b039190911660048201523360248201526044810187905260648101959095527fbd5034ffbd47e4e72a94baa2cdb74c6fad73cb3bcdc13036b72ec8306f5a764694906000908290608490829084905af18015610f2a575b610f11575b5015610f0b57506000905b60408051948552602085019190915283015233918060608101610977565b90610eed565b80610f1e610f2492611009565b8061022f565b38610ee2565b610f326113b4565b610edd565b50610f413361223f565b610e35565b92508192610df5565b503461000e57604036600319011261000e576020610f9f610f6e610399565b610f766103af565b6001600160a01b0391821660009081526001855260408082209290931681526020919091522090565b54604051908152f35b503461000e57602036600319011261000e576001600160a01b03610fca610399565b1660005260066020526020604060002054604051908152f35b503461000e57610ff236610551565b9060018060a01b036105ac81600c5416331461150d565b67ffffffffffffffff811161101d57604052565b634e487b7160e01b600052604160045260246000fd5b90601f8019910116810190811067ffffffffffffffff82111761101d57604052565b50634e487b7160e01b600052601160045260246000fd5b6b019d971e4fe8401e7400000081198111611085570190565b61108d611055565b0190565b81198111611085570190565b6001600160a01b03808216929190831561117c57821693841561112c57806111167f8c5be1e5ebec7d5bd14f71427d1e84f3dd0314c0f7b2291e5b200ac8c7c3b925946110ff6111279560018060a01b03166000526001602052604060002090565b9060018060a01b0316600052602052604060002090565b556040519081529081906020820190565b0390a3565b60405162461bcd60e51b815260206004820152602260248201527f45524332303a20617070726f766520746f20746865207a65726f206164647265604482015261737360f01b6064820152608490fd5b60405162461bcd60e51b8152602060048201526024808201527f45524332303a20617070726f76652066726f6d20746865207a65726f206164646044820152637265737360e01b6064820152608490fd5b156111d457565b60405162461bcd60e51b815260206004820152601b60248201527f5472616e736665722063616e6e6f7420626520616c6c6f7765642e00000000006044820152606490fd5b9190611228610c7a8385611875565b811561067f576111277f89a178eaa27e0cd201bd795ca8ff716ac0df9618494510ca79771cfc66ffcde89161125c85611912565b919094925061126a84611912565b94925092905061127b89888c611c21565b61128e6112888a85611091565b87611a0d565b61129989878c611f0b565b6112a5896000926114f6565b156112f3575b156112ed57506000905b60405195869560018060a01b038091169a1698869192608093969594919660a084019784526020840152604083015260608201520152565b906112b5565b506112fd8961223f565b6112ab565b1561130957565b606460405162461bcd60e51b815260206004820152602060248201527f416d6f756e7420746f2072656465656d206e6565647320746f206265203e20306044820152fd5b1561135457565b60405162461bcd60e51b815260206004820152603260248201527f557365722063616e6e6f742072656465656d206d6f7265207468616e2074686560448201527120617661696c61626c652062616c616e636560701b6064820152608490fd5b506040513d6000823e3d90fd5b6001600160a01b0381169081156114a7576001600160a01b03811660009081526020819052604090205483811061145757837fddf252ad1be2c89b69c2b068fc378daa952ba7f163c4a11628f55a4df523b3ef9261143960009661112794039160018060a01b03166000526000602052604060002090565b556114478160025403600255565b6040519081529081906020820190565b60405162461bcd60e51b815260206004820152602260248201527f45524332303a206275726e20616d6f756e7420657863656564732062616c616e604482015261636560f01b6064820152608490fd5b60405162461bcd60e51b815260206004820152602160248201527f45524332303a206275726e2066726f6d20746865207a65726f206164647265736044820152607360f81b6064820152608490fd5b818110611501570390565b611509611055565b0390565b1561151457565b60405162461bcd60e51b815260206004820152603260248201527f5468652063616c6c6572206f6620746869732066756e6374696f6e206d7573746044820152710818994818481b195b991a5b99c81c1bdbdb60721b6064820152608490fd5b6001600160a01b0381169182156115e7576020816115d86000946115bb7fddf252ad1be2c89b69c2b068fc378daa952ba7f163c4a11628f55a4df523b3ef95600254611091565b6002556001600160a01b0316600090815260208190526040902090565b818154019055604051908152a3565b60405162461bcd60e51b815260206004820152601f60248201527f45524332303a206d696e7420746f20746865207a65726f2061646472657373006044820152606490fd5b1561163357565b60405162461bcd60e51b815260206004820152603860248201527f5468652063616c6c6572206f6620746869732066756e6374696f6e206d75737460448201527f2062652061204c656e64696e6720426f61726420436f726500000000000000006064820152608490fd5b60018060a01b03908181166000526000602052604060002054600860205260406000205492811580611738575b61172f576001600160a01b0383166000908152600760205260409020541661170157906116fb836114f693611091565b90611d36565b90916117108161171f94611d36565b818110611722575b0390611091565b90565b61172a611055565b611718565b50505050600090565b5083156116cb565b9081602091031261000e575190565b6002548015611812576b033b2e3c9fd0803ce80000006117cf6117ca6117b061177a61171f95611818565b600b5460055460405163d15e005360e01b81526001600160a01b0391821660048201529360209285921690829081906024820190565b03915afa918215611805575b6000926117d5575b5061183d565b61106c565b04611850565b6117f791925060203d81116117fe575b6117ef8183611033565b810190611740565b90386117c4565b503d6117e5565b61180d6113b4565b6117bc565b50600090565b633b9aca00908060001904821181151516611831570290565b611839611055565b0290565b8060001904821181151516611831570290565b633b9aca0090631dcd65008119811161186857010490565b611870611055565b010490565b600d546005546040516376e9d61560e01b81526001600160a01b03918216600482015292811660248401526044830193909352909160209183916064918391165afa908115611905575b6000916118ca575090565b6020813d82116118fd575b816118e260209383611033565b810103126118f95751908115158203610396575090565b5080fd5b3d91506118d5565b61190d6113b4565b6118bf565b60018060a01b038116600052600060205261199260406000205492836119378461169e565b818110611a00575b039261194b8482611574565b600b54602090611963906001600160a01b0316610e46565b60055460405163d15e005360e01b81526001600160a01b03909116600482015294859190829081906024820190565b03915afa9283156119f3575b6000936119d1575b506001600160a01b0316600090815260066020526040902082905b556119cc8385611091565b929190565b6119c193506119ed9060203d81116117fe576117ef8183611033565b926119a6565b6119fb6113b4565b61199e565b611a08611055565b61193f565b6001600160a01b039081166000908152600760205260409020548116918215611b10577f70ff8cf632603e2bfd1afb7e4061acce53d95356b1be9726b99fa22ba733b01f91608091611a5e85611912565b9250939050611a83836108b48960018060a01b03166000526008602052604060002090565b6001600160a01b0388166000908152600860209081526040808320939093556007905220541680611aca575b506040519283526020830152604082015260006060820152a2565b611b09611aed856108b48460018060a01b03166000526008602052604060002090565b6001600160a01b03909216600090815260086020526040902090565b5538611aaf565b505050565b6001600160a01b039081166000908152600760205260409020548116918215611b10577f70ff8cf632603e2bfd1afb7e4061acce53d95356b1be9726b99fa22ba733b01f91608091611b6685611912565b925093905082611b888860018060a01b03166000526008602052604060002090565b54818110611c14575b03611bae8860018060a01b03166000526008602052604060002090565b556001600160a01b0387166000908152600760205260409020541680611bea575b506040519283526020830152600060408301526060820152a2565b611c0d611aed856108b48460018060a01b03166000526008602052604060002090565b5538611bcf565b611c1c611055565b611b91565b6001600160a01b0390811660009081526007602052604090205481169291908315611d30577f70ff8cf632603e2bfd1afb7e4061acce53d95356b1be9726b99fa22ba733b01f92608092611c7486611912565b925094905083611c9a846108b48b60018060a01b03166000526008602052604060002090565b818110611d23575b03611cbf8960018060a01b03166000526008602052604060002090565b556001600160a01b0388166000908152600760205260409020541680611cf9575b50604051938452602084015260408301526060820152a2565b611d1c611aed866108b48460018060a01b03166000526008602052604060002090565b5538611ce0565b611d2b611055565b611ca2565b50505050565b611dc090611db96b033b2e3c9fd0803ce8000000611d9f6117ca611d8461171f97633b9aca00908060001904821181151516611df257600b54602090611963906001600160a01b0316610e46565b03915afa928315611de5575b600093611dc5575b500261183d565b049160018060a01b03166000526006602052604060002090565b5490611dff565b611850565b611dde91935060203d81116117fe576117ef8183611033565b9138611d98565b611ded6113b4565b611d90565b611dfa611055565b61194b565b611e2b906b033b2e3c9fd0803ce8000000908060001904821181151516611e4b575b028260011c611091565b8115611e35570490565b634e487b7160e01b600052601260045260246000fd5b611e53611055565b611e21565b15611e5f57565b60405162461bcd60e51b815260206004820152602360248201527f45524332303a207472616e7366657220746f20746865207a65726f206164647260448201526265737360e81b6064820152608490fd5b15611eb757565b60405162461bcd60e51b815260206004820152602660248201527f45524332303a207472616e7366657220616d6f756e7420657863656564732062604482015265616c616e636560d01b6064820152608490fd5b916001600160a01b038084169290918315611fcf57611fb9827fddf252ad1be2c89b69c2b068fc378daa952ba7f163c4a11628f55a4df523b3ef94611127941696611f57881515611e58565b611f9e84611f778360018060a01b03166000526000602052604060002090565b54611f8482821015611eb0565b039160018060a01b03166000526000602052604060002090565b556001600160a01b0316600090815260208190526040902090565b8054820190556040519081529081906020820190565b60405162461bcd60e51b815260206004820152602560248201527f45524332303a207472616e736665722066726f6d20746865207a65726f206164604482015264647265737360d81b6064820152608490fd5b1561202957565b60405162461bcd60e51b815260206004820152604260248201527f496e7465726573742073747265616d2063616e206f6e6c79206265207265646960448201527f72656374656420696620746865726520697320612076616c69642062616c616e606482015261636560f01b608482015260a490fd5b6001600160a01b0381811660009081526007602052604090205491928082169290919081168381146121e7576120d485611912565b9792909491936120e5851515612022565b6121d7575b50811693848614612182579561216583836121607f5e3cad45b1fe24159d1cb39788d82d0f69cc15770aa96fba1d3d1a734873559498999a6121416111279760018060a01b03166000526007602052604060002090565b80546001600160a01b0319166001600160a01b03909216919091179055565b611a0d565b604051938493846040919493926060820195825260208201520152565b506001600160a01b0316600090815260076020526040812080546001600160a01b0319169055949293507f5e3cad45b1fe24159d1cb39788d82d0f69cc15770aa96fba1d3d1a73487355949261112790612165565b6121e19083611b15565b386120ea565b60405162461bcd60e51b815260206004820152602a60248201527f496e74657265737420697320616c72656164792072656469726563746564207460448201526937903a3432903ab9b2b960b11b6064820152608490fd5b60018060a01b03811690600082819382526007602052604082206bffffffffffffffffffffffff60a01b81541690557f5e3cad45b1fe24159d1cb39788d82d0f69cc15770aa96fba1d3d1a73487355946060604051848152846020820152846040820152a36001600160a01b0381166000908152600860205260409020546122de576001600160a01b0316600090815260066020526040902055600190565b509056fea2646970667358221220d84c5320c578a287bcae85f409e6928227cf3bedb8bc718f9c6374df2b47685a64736f6c634300080d0033",
  "linkReferences": {},
  "deployedLinkReferences": {}
}