{
  "_format": "hh-sol-artifact-1",
  "contractName": "DefaultReserveInterestRateStrategy",
  "sourceName": "contracts/lendingboard/DefaultReserveInterestRateStrategy.sol",
  "abi": [
    {
      "inputs": [
        {
          "internalType": "address",
          "name": "_reserve",
          "type": "address"
        },
        {
          "internalType": "contract LendingBoardAddressesProvider",
          "name": "_provider",
          "type": "address"
        },
        {
          "internalType": "uint256",
          "name": "_baseVariableBorrowRate",
          "type": "uint256"
        },
        {
          "internalType": "uint256",
          "name": "_variableRateSlope1",
          "type": "uint256"
        },
        {
          "internalType": "uint256",
          "name": "_variableRateSlope2",
          "type": "uint256"
        },
        {
          "internalType": "uint256",
          "name": "_stableRateSlope1",
          "type": "uint256"
        },
        {
          "internalType": "uint256",
          "name": "_stableRateSlope2",
          "type": "uint256"
        }
      ],
      "stateMutability": "nonpayable",
      "type": "constructor"
    },
    {
      "inputs": [],
      "name": "EXCESS_UTILIZATION_RATE",
      "outputs": [
        {
          "internalType": "uint256",
          "name": "",
          "type": "uint256"
        }
      ],
      "stateMutability": "view",
      "type": "function"
    },
    {
      "inputs": [],
      "name": "OPTIMAL_UTILIZATION_RATE",
      "outputs": [
        {
          "internalType": "uint256",
          "name": "",
          "type": "uint256"
        }
      ],
      "stateMutability": "view",
      "type": "function"
    },
    {
      "inputs": [],
      "name": "addressesProvider",
      "outputs": [
        {
          "internalType": "contract LendingBoardAddressesProvider",
          "name": "",
          "type": "address"
        }
      ],
      "stateMutability": "view",
      "type": "function"
    },
    {
      "inputs": [],
      "name": "baseVariableBorrowRate",
      "outputs": [
        {
          "internalType": "uint256",
          "name": "",
          "type": "uint256"
        }
      ],
      "stateMutability": "view",
      "type": "function"
    },
    {
      "inputs": [
        {
          "internalType": "address",
          "name": "_reserve",
          "type": "address"
        },
        {
          "internalType": "uint256",
          "name": "_availableLiquidity",
          "type": "uint256"
        },
        {
          "internalType": "uint256",
          "name": "_totalBorrowsStable",
          "type": "uint256"
        },
        {
          "internalType": "uint256",
          "name": "_totalBorrowsVariable",
          "type": "uint256"
        },
        {
          "internalType": "uint256",
          "name": "_averageStableBorrowRate",
          "type": "uint256"
        }
      ],
      "name": "calculateInterestRates",
      "outputs": [
        {
          "internalType": "uint256",
          "name": "currentLiquidityRate",
          "type": "uint256"
        },
        {
          "internalType": "uint256",
          "name": "currentStableBorrowRate",
          "type": "uint256"
        },
        {
          "internalType": "uint256",
          "name": "currentVariableBorrowRate",
          "type": "uint256"
        }
      ],
      "stateMutability": "view",
      "type": "function"
    },
    {
      "inputs": [],
      "name": "getBaseVariableBorrowRate",
      "outputs": [
        {
          "internalType": "uint256",
          "name": "",
          "type": "uint256"
        }
      ],
      "stateMutability": "view",
      "type": "function"
    },
    {
      "inputs": [],
      "name": "getStableRateSlope1",
      "outputs": [
        {
          "internalType": "uint256",
          "name": "",
          "type": "uint256"
        }
      ],
      "stateMutability": "view",
      "type": "function"
    },
    {
      "inputs": [],
      "name": "getStableRateSlope2",
      "outputs": [
        {
          "internalType": "uint256",
          "name": "",
          "type": "uint256"
        }
      ],
      "stateMutability": "view",
      "type": "function"
    },
    {
      "inputs": [],
      "name": "getVariableRateSlope1",
      "outputs": [
        {
          "internalType": "uint256",
          "name": "",
          "type": "uint256"
        }
      ],
      "stateMutability": "view",
      "type": "function"
    },
    {
      "inputs": [],
      "name": "getVariableRateSlope2",
      "outputs": [
        {
          "internalType": "uint256",
          "name": "",
          "type": "uint256"
        }
      ],
      "stateMutability": "view",
      "type": "function"
    },
    {
      "inputs": [],
      "name": "reserve",
      "outputs": [
        {
          "internalType": "address",
          "name": "",
          "type": "address"
        }
      ],
      "stateMutability": "view",
      "type": "function"
    },
    {
      "inputs": [],
      "name": "stableRateSlope1",
      "outputs": [
        {
          "internalType": "uint256",
          "name": "",
          "type": "uint256"
        }
      ],
      "stateMutability": "view",
      "type": "function"
    },
    {
      "inputs": [],
      "name": "stableRateSlope2",
      "outputs": [
        {
          "internalType": "uint256",
          "name": "",
          "type": "uint256"
        }
      ],
      "stateMutability": "view",
      "type": "function"
    },
    {
      "inputs": [],
      "name": "variableRateSlope1",
      "outputs": [
        {
          "internalType": "uint256",
          "name": "",
          "type": "uint256"
        }
      ],
      "stateMutability": "view",
      "type": "function"
    },
    {
      "inputs": [],
      "name": "variableRateSlope2",
      "outputs": [
        {
          "internalType": "uint256",
          "name": "",
          "type": "uint256"
        }
      ],
      "stateMutability": "view",
      "type": "function"
    }
  ],
  "bytecode": "0x6080346100c457601f61085e38819003918201601f19168301916001600160401b038311848410176100c95780849260e0946040528339810103126100c45780516100b59161004d826100df565b602081015161005b816100df565b604082015160608301519060808401519260c060a0860151950151959390959294919460018060a01b03958660018060a01b0319981688600054161760005560015560025560035560045560055516906006541617600655565b60405161076d90816100f18239f35b600080fd5b634e487b7160e01b600052604160045260246000fd5b6001600160a01b038116036100c45756fe60806040526004361015610013575b600080fd5b60003560e01c80630b3429a2146101005780630bdf953f146100ca57806314e32da4146100dc578063173198731461011b57806334762ca5146100ee57806357e37af01461011257806365614f81146101095780637b832f5814610100578063a15f30ac146100f7578063b2589544146100ee578063c72c4d10146100e5578063ccab01a3146100dc578063cd3293de146100d3578063d5cd7391146100ca5763f4202409146100c257600080fd5b61000e610333565b5061000e610143565b5061000e6103a4565b5061000e610162565b5061000e61037a565b5061000e6101a8565b5061000e610352565b5061000e610124565b5061000e610333565b5061000e6101c7565b5061000e610181565b503461000e57600036600319011261000e576020600254604051908152f35b503461000e57600036600319011261000e576020600454604051908152f35b503461000e57600036600319011261000e576020600554604051908152f35b503461000e57600036600319011261000e5760206040516aa56fa5b99019a5c80000008152f35b503461000e57600036600319011261000e576020600154604051908152f35b503461000e5760a036600319011261000e576004356001600160a01b0381160361000e5760443560643560843560006024356102038486610483565b9081158061032b575b15610310575050905b809361022882610223610414565b610691565b6b0295be96e6406697200000008311156102c957916102a26102a7926102c59461029a61027e61026c61026261025d8861049b565b6105e6565b9a60045490610483565b6102788b60055461053e565b90610483565b9861027861029160015460025490610483565b9160035461053e565b9687916104ce565b61053e565b91604051938493846040919493926060820195825260208201520152565b0390f35b93506102c5916102a26102a7926102f46102ee6004546102e886610592565b9061053e565b82610483565b9661029a60015461027861030787610592565b6002549061053e565b61032592508161031f91610483565b90610638565b90610215565b50801561020c565b503461000e57600036600319011261000e576020600354604051908152f35b503461000e57600036600319011261000e5760206040516b0295be96e6406697200000008152f35b503461000e57600036600319011261000e576000546040516001600160a01b039091168152602090f35b503461000e57600036600319011261000e576006546040516001600160a01b039091168152602090f35b50634e487b7160e01b600052604160045260246000fd5b90601f8019910116810190811067ffffffffffffffff82111761040757604052565b61040f6103ce565b604052565b604051906040820182811067ffffffffffffffff82111761045f575b604052601a82527f63757272656e74537461626c65426f72726f7752617465203a200000000000006020830152565b6104676103ce565b610430565b50634e487b7160e01b600052601160045260246000fd5b8119811161048f570190565b61049761046c565b0190565b6b0295be96e64066972000000081106104c1575b6b0295be96e64066971fffffff190190565b6104c961046c565b6104af565b919290926104dc8484610483565b92831561050f5761027861031f936102a2610500610506956102a261050c9a610519565b93610519565b91610519565b90565b5050505050600090565b633b9aca00908060001904821181151516610532570290565b61053a61046c565b0290565b906b033b2e3c9fd0803ce8000000918060001904821181151516610585575b026b019d971e4fe8401e740000008119811161057857010490565b61058061046c565b010490565b61058d61046c565b61055d565b6b0295be96e640669720000000906b033b2e3c9fd0803ce80000009080600019048211811515166105d9575b026b014adf4b7320334b900000008119811161057857010490565b6105e161046c565b6105be565b6aa56fa5b99019a5c8000000906b033b2e3c9fd0803ce800000090806000190482118115151661062b575b026a52b7d2dcc80cd2e40000008119811161057857010490565b61063361046c565b610611565b610664906b033b2e3c9fd0803ce8000000908060001904821181151516610684575b028260011c610483565b811561066e570490565b634e487b7160e01b600052601260045260246000fd5b61068c61046c565b61065a565b9190604051906020632d839cb360e21b81840152604060248401528451948560648501526000915b86831061070657505082856106f2936106f79697608494116106f9575b6044830152601f801991011681010360648101845201826103e5565b61071c565b565b60008483850101526106d6565b81830181015185840160840152918201916106b9565b600080916020815191016a636f6e736f6c652e6c6f675afa5056fea26469706673582212201bd73ce6fb0d52e43588c01ba7bb6e9f3f8dbdfc3ef098166f3dfaf4d01a212464736f6c634300080d0033",
  "linkReferences": {},
  "deployedLinkReferences": {}
}