{
  "_format": "hh-sol-artifact-1",
  "contractName": "DefaultReserveInterestRateStrategy",
  "sourceName": "contracts/lendingboard/DefaultReserveInterestRateStrategy.sol",
  "abi": [
    {
      "inputs": [
        {
          "internalType": "address",
          "name": "_reserve",
          "type": "address"
        },
        {
          "internalType": "contract LendingBoardAddressesProvider",
          "name": "_provider",
          "type": "address"
        },
        {
          "internalType": "uint256",
          "name": "_baseVariableBorrowRate",
          "type": "uint256"
        },
        {
          "internalType": "uint256",
          "name": "_variableRateSlope1",
          "type": "uint256"
        },
        {
          "internalType": "uint256",
          "name": "_variableRateSlope2",
          "type": "uint256"
        },
        {
          "internalType": "uint256",
          "name": "_stableRateSlope1",
          "type": "uint256"
        },
        {
          "internalType": "uint256",
          "name": "_stableRateSlope2",
          "type": "uint256"
        }
      ],
      "stateMutability": "nonpayable",
      "type": "constructor"
    },
    {
      "inputs": [],
      "name": "EXCESS_UTILIZATION_RATE",
      "outputs": [
        {
          "internalType": "uint256",
          "name": "",
          "type": "uint256"
        }
      ],
      "stateMutability": "view",
      "type": "function"
    },
    {
      "inputs": [],
      "name": "OPTIMAL_UTILIZATION_RATE",
      "outputs": [
        {
          "internalType": "uint256",
          "name": "",
          "type": "uint256"
        }
      ],
      "stateMutability": "view",
      "type": "function"
    },
    {
      "inputs": [],
      "name": "addressesProvider",
      "outputs": [
        {
          "internalType": "contract LendingBoardAddressesProvider",
          "name": "",
          "type": "address"
        }
      ],
      "stateMutability": "view",
      "type": "function"
    },
    {
      "inputs": [],
      "name": "baseVariableBorrowRate",
      "outputs": [
        {
          "internalType": "uint256",
          "name": "",
          "type": "uint256"
        }
      ],
      "stateMutability": "view",
      "type": "function"
    },
    {
      "inputs": [
        {
          "internalType": "address",
          "name": "_reserve",
          "type": "address"
        },
        {
          "internalType": "uint256",
          "name": "_availableLiquidity",
          "type": "uint256"
        },
        {
          "internalType": "uint256",
          "name": "_totalBorrowsStable",
          "type": "uint256"
        },
        {
          "internalType": "uint256",
          "name": "_totalBorrowsVariable",
          "type": "uint256"
        },
        {
          "internalType": "uint256",
          "name": "_averageStableBorrowRate",
          "type": "uint256"
        }
      ],
      "name": "calculateInterestRates",
      "outputs": [
        {
          "internalType": "uint256",
          "name": "currentLiquidityRate",
          "type": "uint256"
        },
        {
          "internalType": "uint256",
          "name": "currentStableBorrowRate",
          "type": "uint256"
        },
        {
          "internalType": "uint256",
          "name": "currentVariableBorrowRate",
          "type": "uint256"
        }
      ],
      "stateMutability": "view",
      "type": "function"
    },
    {
      "inputs": [],
      "name": "getBaseVariableBorrowRate",
      "outputs": [
        {
          "internalType": "uint256",
          "name": "",
          "type": "uint256"
        }
      ],
      "stateMutability": "view",
      "type": "function"
    },
    {
      "inputs": [],
      "name": "getStableRateSlope1",
      "outputs": [
        {
          "internalType": "uint256",
          "name": "",
          "type": "uint256"
        }
      ],
      "stateMutability": "view",
      "type": "function"
    },
    {
      "inputs": [],
      "name": "getStableRateSlope2",
      "outputs": [
        {
          "internalType": "uint256",
          "name": "",
          "type": "uint256"
        }
      ],
      "stateMutability": "view",
      "type": "function"
    },
    {
      "inputs": [],
      "name": "getVariableRateSlope1",
      "outputs": [
        {
          "internalType": "uint256",
          "name": "",
          "type": "uint256"
        }
      ],
      "stateMutability": "view",
      "type": "function"
    },
    {
      "inputs": [],
      "name": "getVariableRateSlope2",
      "outputs": [
        {
          "internalType": "uint256",
          "name": "",
          "type": "uint256"
        }
      ],
      "stateMutability": "view",
      "type": "function"
    },
    {
      "inputs": [],
      "name": "reserve",
      "outputs": [
        {
          "internalType": "address",
          "name": "",
          "type": "address"
        }
      ],
      "stateMutability": "view",
      "type": "function"
    },
    {
      "inputs": [],
      "name": "stableRateSlope1",
      "outputs": [
        {
          "internalType": "uint256",
          "name": "",
          "type": "uint256"
        }
      ],
      "stateMutability": "view",
      "type": "function"
    },
    {
      "inputs": [],
      "name": "stableRateSlope2",
      "outputs": [
        {
          "internalType": "uint256",
          "name": "",
          "type": "uint256"
        }
      ],
      "stateMutability": "view",
      "type": "function"
    },
    {
      "inputs": [],
      "name": "variableRateSlope1",
      "outputs": [
        {
          "internalType": "uint256",
          "name": "",
          "type": "uint256"
        }
      ],
      "stateMutability": "view",
      "type": "function"
    },
    {
      "inputs": [],
      "name": "variableRateSlope2",
      "outputs": [
        {
          "internalType": "uint256",
          "name": "",
          "type": "uint256"
        }
      ],
      "stateMutability": "view",
      "type": "function"
    }
  ],
  "bytecode": "0x6080346100c457601f61098a38819003918201601f19168301916001600160401b038311848410176100c95780849260e0946040528339810103126100c45780516100b59161004d826100df565b602081015161005b816100df565b604082015160608301519060808401519260c060a0860151950151959390959294919460018060a01b03958660018060a01b0319981688600054161760005560015560025560035560045560055516906006541617600655565b60405161089990816100f18239f35b600080fd5b634e487b7160e01b600052604160045260246000fd5b6001600160a01b038116036100c45756fe60806040526004361015610013575b600080fd5b60003560e01c80630b3429a2146101005780630bdf953f146100ca57806314e32da4146100dc578063173198731461011b57806334762ca5146100ee57806357e37af01461011257806365614f81146101095780637b832f5814610100578063a15f30ac146100f7578063b2589544146100ee578063c72c4d10146100e5578063ccab01a3146100dc578063cd3293de146100d3578063d5cd7391146100ca5763f4202409146100c257600080fd5b61000e610357565b5061000e610143565b5061000e6103c8565b5061000e610162565b5061000e61039e565b5061000e6101a8565b5061000e610376565b5061000e610124565b5061000e610357565b5061000e6101c7565b5061000e610181565b503461000e57600036600319011261000e576020600254604051908152f35b503461000e57600036600319011261000e576020600454604051908152f35b503461000e57600036600319011261000e576020600554604051908152f35b503461000e57600036600319011261000e5760206040516aa56fa5b99019a5c80000008152f35b503461000e57600036600319011261000e576020600154604051908152f35b503461000e5760a036600319011261000e576004356001600160a01b0381160361000e57604435606435608435600060243561020961020461042a565b6107c2565b6102138486610563565b9081158061034f575b15610334575050905b8093610238826102336104a7565b610820565b6b0295be96e6406697200000008311156102e557916102be6102c3926102e1946102aa61028e61027c61027261026d8861057b565b6106c6565b9a60045490610563565b6102888b60055461061e565b90610563565b986102886102a160015460025490610563565b9160035461061e565b9687915b6102b96102046104f1565b6105ae565b61061e565b91604051938493846040919493926060820195825260208201520152565b0390f35b93506102e1916102be6102c39261031061030a60045461030486610672565b9061061e565b82610563565b9661032c60015461028861032387610672565b6002549061061e565b9687916102ae565b61034992508161034391610563565b90610718565b90610225565b50801561021c565b503461000e57600036600319011261000e576020600354604051908152f35b503461000e57600036600319011261000e5760206040516b0295be96e6406697200000008152f35b503461000e57600036600319011261000e576000546040516001600160a01b039091168152602090f35b503461000e57600036600319011261000e576006546040516001600160a01b039091168152602090f35b90601f8019910116810190811067ffffffffffffffff82111761041457604052565b634e487b7160e01b600052604160045260246000fd5b604051906080820182811067ffffffffffffffff821117610414576040526044825263185d195960e21b6060837f2020203d3e20696e7465726573745261746553747261746567792066756e637460208201527f696f6e2063616c63756c617465496e746572657374526174657320616374697660408201520152565b604051906040820182811067ffffffffffffffff82111761041457604052601a82527f63757272656e74537461626c65426f72726f7752617465203a200000000000006020830152565b604051906060820182811067ffffffffffffffff821117610414576040526028825267185b0814dd185c9d60c21b6040837f2020203d3e206765744f766572616c6c426f72726f7752617465496e7465726e60208201520152565b50634e487b7160e01b600052601160045260246000fd5b8119811161056f570190565b61057761054c565b0190565b6b0295be96e64066972000000081106105a1575b6b0295be96e64066971fffffff190190565b6105a961054c565b61058f565b919290926105bc8484610563565b9283156105ef57610288610343936102be6105e06105e6956102be6105ec9a6105f9565b936105f9565b916105f9565b90565b5050505050600090565b633b9aca00908060001904821181151516610612570290565b61061a61054c565b0290565b906b033b2e3c9fd0803ce8000000918060001904821181151516610665575b026b019d971e4fe8401e740000008119811161065857010490565b61066061054c565b010490565b61066d61054c565b61063d565b6b0295be96e640669720000000906b033b2e3c9fd0803ce80000009080600019048211811515166106b9575b026b014adf4b7320334b900000008119811161065857010490565b6106c161054c565b61069e565b6aa56fa5b99019a5c8000000906b033b2e3c9fd0803ce800000090806000190482118115151661070b575b026a52b7d2dcc80cd2e40000008119811161065857010490565b61071361054c565b6106f1565b610744906b033b2e3c9fd0803ce8000000908060001904821181151516610764575b028260011c610563565b811561074e570490565b634e487b7160e01b600052601260045260246000fd5b61076c61054c565b61073a565b91908251928382526000905b8482106107aa57509280602093941161079d575b601f01601f1916010190565b6000838284010152610791565b9060209081808285010151908286010152019061077d565b6107f06107fe6108039260405192839163104c13eb60e21b6020840152602060248401526044830190610771565b03601f1981018352826103f2565b610805565b565b600080916020815191016a636f6e736f6c652e6c6f675afa50565b6107fe61084f9161080393604051938492632d839cb360e21b6020850152604060248501526064840190610771565b90604483015203601f1981018352826103f256fea2646970667358221220e7096202a28713551411b05d9d6192f061d0f71f4b54318904246667e6817b3164736f6c634300080d0033",
  "linkReferences": {},
  "deployedLinkReferences": {}
}