{
  "_format": "hh-sol-artifact-1",
  "contractName": "LendingBoardAddressesProvider",
  "sourceName": "contracts/configuration/LendingBoardAddressesProvider.sol",
  "abi": [
    {
      "anonymous": false,
      "inputs": [
        {
          "indexed": true,
          "internalType": "address",
          "name": "newAddress",
          "type": "address"
        }
      ],
      "name": "EthereumAddressUpdated",
      "type": "event"
    },
    {
      "anonymous": false,
      "inputs": [
        {
          "indexed": true,
          "internalType": "address",
          "name": "newAddress",
          "type": "address"
        }
      ],
      "name": "FeeProviderUpdated",
      "type": "event"
    },
    {
      "anonymous": false,
      "inputs": [
        {
          "indexed": true,
          "internalType": "address",
          "name": "newAddress",
          "type": "address"
        }
      ],
      "name": "LendingBoardConfiguratorUpdated",
      "type": "event"
    },
    {
      "anonymous": false,
      "inputs": [
        {
          "indexed": true,
          "internalType": "address",
          "name": "newAddress",
          "type": "address"
        }
      ],
      "name": "LendingBoardCoreUpdated",
      "type": "event"
    },
    {
      "anonymous": false,
      "inputs": [
        {
          "indexed": true,
          "internalType": "address",
          "name": "newAddress",
          "type": "address"
        }
      ],
      "name": "LendingBoardDataProviderUpdated",
      "type": "event"
    },
    {
      "anonymous": false,
      "inputs": [
        {
          "indexed": true,
          "internalType": "address",
          "name": "newAddress",
          "type": "address"
        }
      ],
      "name": "LendingBoardLiquidationManagerUpdated",
      "type": "event"
    },
    {
      "anonymous": false,
      "inputs": [
        {
          "indexed": true,
          "internalType": "address",
          "name": "newAddress",
          "type": "address"
        }
      ],
      "name": "LendingBoardManagerUpdated",
      "type": "event"
    },
    {
      "anonymous": false,
      "inputs": [
        {
          "indexed": true,
          "internalType": "address",
          "name": "newAddress",
          "type": "address"
        }
      ],
      "name": "LendingBoardNFTUpdated",
      "type": "event"
    },
    {
      "anonymous": false,
      "inputs": [
        {
          "indexed": true,
          "internalType": "address",
          "name": "newAddress",
          "type": "address"
        }
      ],
      "name": "LendingBoardParametersProviderUpdated",
      "type": "event"
    },
    {
      "anonymous": false,
      "inputs": [
        {
          "indexed": true,
          "internalType": "address",
          "name": "newAddress",
          "type": "address"
        }
      ],
      "name": "LendingBoardUpdated",
      "type": "event"
    },
    {
      "anonymous": false,
      "inputs": [
        {
          "indexed": true,
          "internalType": "address",
          "name": "newAddress",
          "type": "address"
        }
      ],
      "name": "LendingRateOracleUpdated",
      "type": "event"
    },
    {
      "anonymous": false,
      "inputs": [
        {
          "indexed": true,
          "internalType": "address",
          "name": "previousOwner",
          "type": "address"
        },
        {
          "indexed": true,
          "internalType": "address",
          "name": "newOwner",
          "type": "address"
        }
      ],
      "name": "OwnershipTransferred",
      "type": "event"
    },
    {
      "anonymous": false,
      "inputs": [
        {
          "indexed": true,
          "internalType": "address",
          "name": "newAddress",
          "type": "address"
        }
      ],
      "name": "PriceOracleUpdated",
      "type": "event"
    },
    {
      "anonymous": false,
      "inputs": [
        {
          "indexed": false,
          "internalType": "bytes32",
          "name": "id",
          "type": "bytes32"
        },
        {
          "indexed": true,
          "internalType": "address",
          "name": "newAddress",
          "type": "address"
        }
      ],
      "name": "ProxyCreated",
      "type": "event"
    },
    {
      "anonymous": false,
      "inputs": [
        {
          "indexed": true,
          "internalType": "address",
          "name": "newAddress",
          "type": "address"
        }
      ],
      "name": "TokenDistributorUpdated",
      "type": "event"
    },
    {
      "inputs": [
        {
          "internalType": "bytes32",
          "name": "_key",
          "type": "bytes32"
        }
      ],
      "name": "getAddress",
      "outputs": [
        {
          "internalType": "address",
          "name": "",
          "type": "address"
        }
      ],
      "stateMutability": "view",
      "type": "function"
    },
    {
      "inputs": [],
      "name": "getFeeProvider",
      "outputs": [
        {
          "internalType": "address",
          "name": "",
          "type": "address"
        }
      ],
      "stateMutability": "view",
      "type": "function"
    },
    {
      "inputs": [],
      "name": "getLendingBoard",
      "outputs": [
        {
          "internalType": "address",
          "name": "",
          "type": "address"
        }
      ],
      "stateMutability": "view",
      "type": "function"
    },
    {
      "inputs": [],
      "name": "getLendingBoardConfigurator",
      "outputs": [
        {
          "internalType": "address",
          "name": "",
          "type": "address"
        }
      ],
      "stateMutability": "view",
      "type": "function"
    },
    {
      "inputs": [],
      "name": "getLendingBoardCore",
      "outputs": [
        {
          "internalType": "address payable",
          "name": "",
          "type": "address"
        }
      ],
      "stateMutability": "view",
      "type": "function"
    },
    {
      "inputs": [],
      "name": "getLendingBoardDataProvider",
      "outputs": [
        {
          "internalType": "address",
          "name": "",
          "type": "address"
        }
      ],
      "stateMutability": "view",
      "type": "function"
    },
    {
      "inputs": [],
      "name": "getLendingBoardLiquidationManager",
      "outputs": [
        {
          "internalType": "address",
          "name": "",
          "type": "address"
        }
      ],
      "stateMutability": "view",
      "type": "function"
    },
    {
      "inputs": [],
      "name": "getLendingBoardManager",
      "outputs": [
        {
          "internalType": "address",
          "name": "",
          "type": "address"
        }
      ],
      "stateMutability": "view",
      "type": "function"
    },
    {
      "inputs": [],
      "name": "getLendingBoardNFT",
      "outputs": [
        {
          "internalType": "address",
          "name": "",
          "type": "address"
        }
      ],
      "stateMutability": "view",
      "type": "function"
    },
    {
      "inputs": [],
      "name": "getLendingBoardParametersProvider",
      "outputs": [
        {
          "internalType": "address",
          "name": "",
          "type": "address"
        }
      ],
      "stateMutability": "view",
      "type": "function"
    },
    {
      "inputs": [],
      "name": "getLendingRateOracle",
      "outputs": [
        {
          "internalType": "address",
          "name": "",
          "type": "address"
        }
      ],
      "stateMutability": "view",
      "type": "function"
    },
    {
      "inputs": [],
      "name": "getPriceOracle",
      "outputs": [
        {
          "internalType": "address",
          "name": "",
          "type": "address"
        }
      ],
      "stateMutability": "view",
      "type": "function"
    },
    {
      "inputs": [],
      "name": "getTokenDistributor",
      "outputs": [
        {
          "internalType": "address",
          "name": "",
          "type": "address"
        }
      ],
      "stateMutability": "view",
      "type": "function"
    },
    {
      "inputs": [],
      "name": "owner",
      "outputs": [
        {
          "internalType": "address",
          "name": "",
          "type": "address"
        }
      ],
      "stateMutability": "view",
      "type": "function"
    },
    {
      "inputs": [],
      "name": "renounceOwnership",
      "outputs": [],
      "stateMutability": "nonpayable",
      "type": "function"
    },
    {
      "inputs": [
        {
          "internalType": "address",
          "name": "_feeProvider",
          "type": "address"
        }
      ],
      "name": "setFeeProviderImpl",
      "outputs": [],
      "stateMutability": "nonpayable",
      "type": "function"
    },
    {
      "inputs": [
        {
          "internalType": "address",
          "name": "_configurator",
          "type": "address"
        }
      ],
      "name": "setLendingBoardConfiguratorImpl",
      "outputs": [],
      "stateMutability": "nonpayable",
      "type": "function"
    },
    {
      "inputs": [
        {
          "internalType": "address",
          "name": "_lendingBoardCore",
          "type": "address"
        }
      ],
      "name": "setLendingBoardCoreImpl",
      "outputs": [],
      "stateMutability": "nonpayable",
      "type": "function"
    },
    {
      "inputs": [
        {
          "internalType": "address",
          "name": "_provider",
          "type": "address"
        }
      ],
      "name": "setLendingBoardDataProviderImpl",
      "outputs": [],
      "stateMutability": "nonpayable",
      "type": "function"
    },
    {
      "inputs": [
        {
          "internalType": "address",
          "name": "_board",
          "type": "address"
        }
      ],
      "name": "setLendingBoardImpl",
      "outputs": [],
      "stateMutability": "nonpayable",
      "type": "function"
    },
    {
      "inputs": [
        {
          "internalType": "address",
          "name": "_manager",
          "type": "address"
        }
      ],
      "name": "setLendingBoardLiquidationManager",
      "outputs": [],
      "stateMutability": "nonpayable",
      "type": "function"
    },
    {
      "inputs": [
        {
          "internalType": "address",
          "name": "_lendingBoardManager",
          "type": "address"
        }
      ],
      "name": "setLendingBoardManager",
      "outputs": [],
      "stateMutability": "nonpayable",
      "type": "function"
    },
    {
      "inputs": [
        {
          "internalType": "address",
          "name": "_nft",
          "type": "address"
        }
      ],
      "name": "setLendingBoardNFTImpl",
      "outputs": [],
      "stateMutability": "nonpayable",
      "type": "function"
    },
    {
      "inputs": [
        {
          "internalType": "address",
          "name": "_parametersProvider",
          "type": "address"
        }
      ],
      "name": "setLendingBoardParametersProviderImpl",
      "outputs": [],
      "stateMutability": "nonpayable",
      "type": "function"
    },
    {
      "inputs": [
        {
          "internalType": "address",
          "name": "_lendingRateOracle",
          "type": "address"
        }
      ],
      "name": "setLendingRateOracle",
      "outputs": [],
      "stateMutability": "nonpayable",
      "type": "function"
    },
    {
      "inputs": [
        {
          "internalType": "address",
          "name": "_priceOracle",
          "type": "address"
        }
      ],
      "name": "setPriceOracle",
      "outputs": [],
      "stateMutability": "nonpayable",
      "type": "function"
    },
    {
      "inputs": [
        {
          "internalType": "address",
          "name": "_tokenDistributor",
          "type": "address"
        }
      ],
      "name": "setTokenDistributor",
      "outputs": [],
      "stateMutability": "nonpayable",
      "type": "function"
    },
    {
      "inputs": [
        {
          "internalType": "address",
          "name": "newOwner",
          "type": "address"
        }
      ],
      "name": "transferOwnership",
      "outputs": [],
      "stateMutability": "nonpayable",
      "type": "function"
    }
  ],
  "bytecode": "0x6080806040523461005b5760008054336001600160a01b0319821681178355916001600160a01b03909116907f8be0079c531659141344cd1fd0a4f28419497f9722a3daafe3b4186f6b6457e09084a3610f7490816100618239f35b600080fdfe60806040526004361015610013575b600080fd5b60003560e01c80631dd3d7d4146102435780632136f7c21461023a57806321f8a721146102315780632a62c6361461022857806332cb156e1461021f578063330ecb8c146102165780633618abba1461020d57806338280e6b146102045780633e1a4c4d146101fb5780634313e41b146101f2578063530e784f146101e9578063543d98e7146101e057806357af9f6e146101d75780635920a6a1146101ce578063594b6dbd146101c5578063715018a6146101bc578063820d1274146101b35780638da5cb5b146101aa5780639fabe175146101a1578063a59666b614610198578063a7c9525c1461018f578063cc30ae2f14610186578063ccda6e7c1461017d578063ee89129614610174578063f2fde38b1461016b578063f74ab48d14610162578063fbeefc3c146101595763fca513a81461015157600080fd5b61000e610e86565b5061000e610e26565b5061000e610da1565b5061000e610ce3565b5061000e610c7e565b5061000e610bf5565b5061000e610b74565b5061000e610b03565b5061000e610aa2565b5061000e610a3b565b5061000e610a11565b5061000e61098a565b5061000e610928565b5061000e6108bf565b5061000e61085a565b5061000e6107f3565b5061000e610772565b5061000e6106f2565b5061000e61066b565b5061000e6105e5565b5061000e610560565b5061000e6104f9565b5061000e610498565b5061000e610407565b5061000e610387565b5061000e610352565b5061000e6102cb565b503461000e57600036600319011261000e57714c454e44494e475f424f4152445f434f524560701b600052600160209081527fe19c10bc09cf736140f147583dd60a9376556140c36c6290a4f708db0456dc10546040516001600160a01b039091168152f35b602090600319011261000e576004356001600160a01b038116810361000e5790565b503461000e5760006102dc366102a9565b6102e4610ee6565b722624a8aaa4a220aa24a7a72fa6a0a720a3a2a960691b825260016020526040822080546001600160a01b0319166001600160a01b038316179055604051906001600160a01b03167fd65e292a5749025d2182074d2b29985a5946ec12705b43c77dc2c3115e1d5ee58383a2f35b503461000e57602036600319011261000e576004356000526001602052602060018060a01b0360406000205416604051908152f35b503461000e576000610398366102a9565b6103a0610ee6565b6b2322a2afa82927ab24a222a960a11b825260016020526040822080546001600160a01b0319166001600160a01b038316179055604051906001600160a01b03167f18e1a55b8eff9c93921eecfa1462d6a8cbb80b3988db3eb14c039e43fdb226618383a2f35b503461000e576000610418366102a9565b610420610ee6565b7f4c454e44494e475f424f4152445f434f4e464947555241544f52000000000000825260016020526040822080546001600160a01b0319166001600160a01b038316179055604051906001600160a01b03167f04665f6f0ae4e29ba2fccee0fbd15f8da1f0923aa049928fd6cccea5dd357e498383a2f35b503461000e57600036600319011261000e576c13115391125391d7d093d05491609a1b600052600160209081527f761c96b3ca383d1714cb6629cc622c074137797f8d1c4f3f00adc84f9dac2c9e546040516001600160a01b039091168152f35b503461000e57600036600319011261000e57724c454e44494e475f524154455f4f5241434c4560681b600052600160209081527fcb40a4ed28bcd13050fc5a5521ee1e9fbbff654480b0b1e986483de2a9653344546040516001600160a01b039091168152f35b503461000e576000610571366102a9565b610579610ee6565b702a27a5a2a72fa224a9aa2924a12aaa27a960791b825260016020526040822080546001600160a01b0319166001600160a01b038316179055604051906001600160a01b03167fa8b48a56ec01f81c3615a21ec43e16b925c26293e0801cf6330427f2a687f0538383a2f35b503461000e5760006105f6366102a9565b6105fe610ee6565b714c454e44494e475f424f4152445f434f524560701b825260016020526040822080546001600160a01b0319166001600160a01b038316179055604051906001600160a01b03167f22a7ddb3ceef6252f3a9f6c07b4e21b73a37a6a7cc971765de345aa0a8e281dd8383a2f35b503461000e57600061067c366102a9565b610684610ee6565b722820a920a6a2aa22a929afa82927ab24a222a960691b825260016020526040822080546001600160a01b0319166001600160a01b038316179055604051906001600160a01b03167fec31c9bbb658bfc1a99ea0cddff1a35c354ee4e209be85dc5e41ab1e2699c2148383a2f35b503461000e576000610703366102a9565b61070b610ee6565b6b50524943455f4f5241434c4560a01b825260016020526040822080546001600160a01b0319166001600160a01b038316179055604051906001600160a01b03167fefe8ab924ca486283a79dc604baa67add51afb82af1db8ac386ebbba643cdffd8383a2f35b503461000e576000610783366102a9565b61078b610ee6565b6c2220aa20afa82927ab24a222a960991b825260016020526040822080546001600160a01b0319166001600160a01b038316179055604051906001600160a01b03167f77af31a856a4fe246e887c9e3f695614a124be7ee1456a52854d5b10e04806e78383a2f35b503461000e57600036600319011261000e57722624a8aaa4a220aa24a7a72fa6a0a720a3a2a960691b600052600160209081527f0c2c596851b4651a8e6f929110f58021f1ce980da957db0b05c6345f3381e7d5546040516001600160a01b039091168152f35b503461000e57600036600319011261000e577013115391125391d7d093d0549117d39195607a1b600052600160209081527fe860f86e78d9e34558a70909424bc09e59d965cb53700a9fa23e128475187ad4546040516001600160a01b039091168152f35b503461000e57600036600319011261000e57742622a72224a723afa127a0a9222fa6a0a720a3a2a960591b600052600160209081527f517d8b615e810c69e58c0b046f43b23ecc90801b6a87517031fca78f4c3f8fd5546040516001600160a01b039091168152f35b503461000e5760008060031936011261098757610943610ee6565b80546001600160a01b0319811682556040519082906001600160a01b03167f8be0079c531659141344cd1fd0a4f28419497f9722a3daafe3b4186f6b6457e08284a3f35b80fd5b503461000e57600061099b366102a9565b6109a3610ee6565b724c454e44494e475f524154455f4f5241434c4560681b825260016020526040822080546001600160a01b0319166001600160a01b038316179055604051906001600160a01b03167f5c29179aba6942020a8a2d38f65de02fb6b7f784e7f049ed3a3cab97621859b58383a2f35b503461000e57600036600319011261000e576000546040516001600160a01b039091168152602090f35b503461000e57600036600319011261000e57722820a920a6a2aa22a929afa82927ab24a222a960691b600052600160209081527fcdcf3d45848e3bcf9a6b1c8c3ca4f131ea46efd579f7f1726dfb26f7221f5896546040516001600160a01b039091168152f35b503461000e57600036600319011261000e576c2220aa20afa82927ab24a222a960991b600052600160209081527fcbe908067b5ffd0f77b5030d0053ab5307d7d82a8127788016d5d4b1ef47c901546040516001600160a01b039091168152f35b503461000e57600036600319011261000e577f4c454e44494e475f424f4152445f434f4e464947555241544f52000000000000600052600160209081527f99ff72f201e3b7864a5e123429039ddae92ba423f886e87fc3ce0dd9696e42ef546040516001600160a01b039091168152f35b503461000e576000610b85366102a9565b610b8d610ee6565b6c13115391125391d7d093d05491609a1b825260016020526040822080546001600160a01b0319166001600160a01b038316179055604051906001600160a01b03167fde1e6dfc5fca26af62430600df35e419ecb8ff72a3f22da15f27464954df67438383a2f35b503461000e576000610c06366102a9565b610c0e610ee6565b742622a72224a723afa127a0a9222fa6a0a720a3a2a960591b825260016020526040822080546001600160a01b0319166001600160a01b038316179055604051906001600160a01b03167fef0f9a6b991edc3f0e21ba1931a1e377e7e48b1703b4e576fe784686cd5a39d58383a2f35b503461000e57600036600319011261000e57702a27a5a2a72fa224a9aa2924a12aaa27a960791b600052600160209081527f23a11b120c13a5edd7ba07f9826150ca274bafcad6a819a9cabfde56f14b0f27546040516001600160a01b039091168152f35b503461000e57610cf2366102a9565b610cfa610ee6565b6001600160a01b03908116908115610d4d57600080546001600160a01b031981168417825560405191939192167f8be0079c531659141344cd1fd0a4f28419497f9722a3daafe3b4186f6b6457e08484a3f35b60405162461bcd60e51b815260206004820152602660248201527f4f776e61626c653a206e6577206f776e657220697320746865207a65726f206160448201526564647265737360d01b6064820152608490fd5b503461000e576000610db2366102a9565b610dba610ee6565b7013115391125391d7d093d0549117d39195607a1b825260016020526040822080546001600160a01b0319166001600160a01b038316179055604051906001600160a01b03167fc69230f2558d42ec67c94a6a870a28fd522249346345b42f6150f3bac74bf0ba8383a2f35b503461000e57600036600319011261000e576b2322a2afa82927ab24a222a960a11b600052600160209081527f15f14d15d5c5d6b12ed6ebd1eaf7bd6bd59826ffae85704ff3537a8cbcb5f79e546040516001600160a01b039091168152f35b503461000e57600036600319011261000e576b50524943455f4f5241434c4560a01b600052600160209081527f09c42ce2b8743b2d739b046fe6af227cd392ebe6dc7ade0f7795bfe8b5e8d524546040516001600160a01b039091168152f35b6000546001600160a01b03163303610efa57565b606460405162461bcd60e51b815260206004820152602060248201527f4f776e61626c653a2063616c6c6572206973206e6f7420746865206f776e65726044820152fdfea26469706673582212202bdede858d7fb00dc8975f9f0fd01ade1adb64e92e3f3db2dd2d9a9082ab2fbf64736f6c634300080d0033",
  "linkReferences": {},
  "deployedLinkReferences": {}
}