{
  "_format": "hh-sol-artifact-1",
  "contractName": "LendingBoardAddressesProvider",
  "sourceName": "contracts/configuration/LendingBoardAddressesProvider.sol",
  "abi": [
    {
      "anonymous": false,
      "inputs": [
        {
          "indexed": true,
          "internalType": "address",
          "name": "newAddress",
          "type": "address"
        }
      ],
      "name": "EthereumAddressUpdated",
      "type": "event"
    },
    {
      "anonymous": false,
      "inputs": [
        {
          "indexed": true,
          "internalType": "address",
          "name": "newAddress",
          "type": "address"
        }
      ],
      "name": "FeeProviderUpdated",
      "type": "event"
    },
    {
      "anonymous": false,
      "inputs": [
        {
          "indexed": true,
          "internalType": "address",
          "name": "newAddress",
          "type": "address"
        }
      ],
      "name": "LendingBoardConfiguratorUpdated",
      "type": "event"
    },
    {
      "anonymous": false,
      "inputs": [
        {
          "indexed": true,
          "internalType": "address",
          "name": "newAddress",
          "type": "address"
        }
      ],
      "name": "LendingBoardCoreUpdated",
      "type": "event"
    },
    {
      "anonymous": false,
      "inputs": [
        {
          "indexed": true,
          "internalType": "address",
          "name": "newAddress",
          "type": "address"
        }
      ],
      "name": "LendingBoardDataProviderUpdated",
      "type": "event"
    },
    {
      "anonymous": false,
      "inputs": [
        {
          "indexed": true,
          "internalType": "address",
          "name": "newAddress",
          "type": "address"
        }
      ],
      "name": "LendingBoardLiquidationManagerUpdated",
      "type": "event"
    },
    {
      "anonymous": false,
      "inputs": [
        {
          "indexed": true,
          "internalType": "address",
          "name": "newAddress",
          "type": "address"
        }
      ],
      "name": "LendingBoardManagerUpdated",
      "type": "event"
    },
    {
      "anonymous": false,
      "inputs": [
        {
          "indexed": true,
          "internalType": "address",
          "name": "newAddress",
          "type": "address"
        }
      ],
      "name": "LendingBoardParametersProviderUpdated",
      "type": "event"
    },
    {
      "anonymous": false,
      "inputs": [
        {
          "indexed": true,
          "internalType": "address",
          "name": "newAddress",
          "type": "address"
        }
      ],
      "name": "LendingBoardUpdated",
      "type": "event"
    },
    {
      "anonymous": false,
      "inputs": [
        {
          "indexed": true,
          "internalType": "address",
          "name": "newAddress",
          "type": "address"
        }
      ],
      "name": "LendingRateOracleUpdated",
      "type": "event"
    },
    {
      "anonymous": false,
      "inputs": [
        {
          "indexed": true,
          "internalType": "address",
          "name": "previousOwner",
          "type": "address"
        },
        {
          "indexed": true,
          "internalType": "address",
          "name": "newOwner",
          "type": "address"
        }
      ],
      "name": "OwnershipTransferred",
      "type": "event"
    },
    {
      "anonymous": false,
      "inputs": [
        {
          "indexed": true,
          "internalType": "address",
          "name": "newAddress",
          "type": "address"
        }
      ],
      "name": "PriceOracleUpdated",
      "type": "event"
    },
    {
      "anonymous": false,
      "inputs": [
        {
          "indexed": false,
          "internalType": "bytes32",
          "name": "id",
          "type": "bytes32"
        },
        {
          "indexed": true,
          "internalType": "address",
          "name": "newAddress",
          "type": "address"
        }
      ],
      "name": "ProxyCreated",
      "type": "event"
    },
    {
      "anonymous": false,
      "inputs": [
        {
          "indexed": true,
          "internalType": "address",
          "name": "newAddress",
          "type": "address"
        }
      ],
      "name": "TokenDistributorUpdated",
      "type": "event"
    },
    {
      "inputs": [
        {
          "internalType": "bytes32",
          "name": "_key",
          "type": "bytes32"
        }
      ],
      "name": "getAddress",
      "outputs": [
        {
          "internalType": "address",
          "name": "",
          "type": "address"
        }
      ],
      "stateMutability": "view",
      "type": "function"
    },
    {
      "inputs": [],
      "name": "getFeeProvider",
      "outputs": [
        {
          "internalType": "address",
          "name": "",
          "type": "address"
        }
      ],
      "stateMutability": "view",
      "type": "function"
    },
    {
      "inputs": [],
      "name": "getLendingBoard",
      "outputs": [
        {
          "internalType": "address",
          "name": "",
          "type": "address"
        }
      ],
      "stateMutability": "view",
      "type": "function"
    },
    {
      "inputs": [],
      "name": "getLendingBoardConfigurator",
      "outputs": [
        {
          "internalType": "address",
          "name": "",
          "type": "address"
        }
      ],
      "stateMutability": "view",
      "type": "function"
    },
    {
      "inputs": [],
      "name": "getLendingBoardCore",
      "outputs": [
        {
          "internalType": "address payable",
          "name": "",
          "type": "address"
        }
      ],
      "stateMutability": "view",
      "type": "function"
    },
    {
      "inputs": [],
      "name": "getLendingBoardDataProvider",
      "outputs": [
        {
          "internalType": "address",
          "name": "",
          "type": "address"
        }
      ],
      "stateMutability": "view",
      "type": "function"
    },
    {
      "inputs": [],
      "name": "getLendingBoardLiquidationManager",
      "outputs": [
        {
          "internalType": "address",
          "name": "",
          "type": "address"
        }
      ],
      "stateMutability": "view",
      "type": "function"
    },
    {
      "inputs": [],
      "name": "getLendingBoardManager",
      "outputs": [
        {
          "internalType": "address",
          "name": "",
          "type": "address"
        }
      ],
      "stateMutability": "view",
      "type": "function"
    },
    {
      "inputs": [],
      "name": "getLendingBoardParametersProvider",
      "outputs": [
        {
          "internalType": "address",
          "name": "",
          "type": "address"
        }
      ],
      "stateMutability": "view",
      "type": "function"
    },
    {
      "inputs": [],
      "name": "getLendingRateOracle",
      "outputs": [
        {
          "internalType": "address",
          "name": "",
          "type": "address"
        }
      ],
      "stateMutability": "view",
      "type": "function"
    },
    {
      "inputs": [],
      "name": "getPriceOracle",
      "outputs": [
        {
          "internalType": "address",
          "name": "",
          "type": "address"
        }
      ],
      "stateMutability": "view",
      "type": "function"
    },
    {
      "inputs": [],
      "name": "getTokenDistributor",
      "outputs": [
        {
          "internalType": "address",
          "name": "",
          "type": "address"
        }
      ],
      "stateMutability": "view",
      "type": "function"
    },
    {
      "inputs": [],
      "name": "owner",
      "outputs": [
        {
          "internalType": "address",
          "name": "",
          "type": "address"
        }
      ],
      "stateMutability": "view",
      "type": "function"
    },
    {
      "inputs": [],
      "name": "renounceOwnership",
      "outputs": [],
      "stateMutability": "nonpayable",
      "type": "function"
    },
    {
      "inputs": [
        {
          "internalType": "address",
          "name": "_manager",
          "type": "address"
        }
      ],
      "name": "setLendingBoardLiquidationManager",
      "outputs": [],
      "stateMutability": "nonpayable",
      "type": "function"
    },
    {
      "inputs": [
        {
          "internalType": "address",
          "name": "_lendingBoardManager",
          "type": "address"
        }
      ],
      "name": "setLendingBoardManager",
      "outputs": [],
      "stateMutability": "nonpayable",
      "type": "function"
    },
    {
      "inputs": [
        {
          "internalType": "address",
          "name": "_lendingRateOracle",
          "type": "address"
        }
      ],
      "name": "setLendingRateOracle",
      "outputs": [],
      "stateMutability": "nonpayable",
      "type": "function"
    },
    {
      "inputs": [
        {
          "internalType": "address",
          "name": "_priceOracle",
          "type": "address"
        }
      ],
      "name": "setPriceOracle",
      "outputs": [],
      "stateMutability": "nonpayable",
      "type": "function"
    },
    {
      "inputs": [
        {
          "internalType": "address",
          "name": "_tokenDistributor",
          "type": "address"
        }
      ],
      "name": "setTokenDistributor",
      "outputs": [],
      "stateMutability": "nonpayable",
      "type": "function"
    },
    {
      "inputs": [
        {
          "internalType": "address",
          "name": "newOwner",
          "type": "address"
        }
      ],
      "name": "transferOwnership",
      "outputs": [],
      "stateMutability": "nonpayable",
      "type": "function"
    }
  ],
  "bytecode": "0x6080806040523461005b5760008054336001600160a01b0319821681178355916001600160a01b03909116907f8be0079c531659141344cd1fd0a4f28419497f9722a3daafe3b4186f6b6457e09084a3610aca90816100618239f35b600080fdfe60806040526004361015610013575b600080fd5b60003560e01c80631dd3d7d4146101a35780632136f7c21461019a57806321f8a72114610191578063330ecb8c146101885780633618abba1461017f57806338280e6b14610176578063530e784f1461016d57806357af9f6e14610164578063594b6dbd1461015b578063715018a614610152578063820d1274146101495780638da5cb5b146101405780639fabe17514610137578063a59666b61461012e578063a7c9525c14610125578063ccda6e7c1461011c578063ee89129614610113578063f2fde38b1461010a578063fbeefc3c146101015763fca513a8146100f957600080fd5b61000e6109dc565b5061000e61097c565b5061000e6108be565b5061000e610859565b5061000e6107d0565b5061000e61075f565b5061000e6106fe565b5061000e610697565b5061000e61066d565b5061000e6105e6565b5061000e610584565b5061000e61051b565b5061000e6104b4565b5061000e610434565b5061000e6103af565b5061000e610348565b5061000e6102e7565b5061000e6102b2565b5061000e61022b565b503461000e57600036600319011261000e57714c454e44494e475f424f4152445f434f524560701b600052600160209081527fe19c10bc09cf736140f147583dd60a9376556140c36c6290a4f708db0456dc10546040516001600160a01b039091168152f35b602090600319011261000e576004356001600160a01b038116810361000e5790565b503461000e57600061023c36610209565b610244610a3c565b722624a8aaa4a220aa24a7a72fa6a0a720a3a2a960691b825260016020526040822080546001600160a01b0319166001600160a01b038316179055604051906001600160a01b03167fd65e292a5749025d2182074d2b29985a5946ec12705b43c77dc2c3115e1d5ee58383a2f35b503461000e57602036600319011261000e576004356000526001602052602060018060a01b0360406000205416604051908152f35b503461000e57600036600319011261000e576c13115391125391d7d093d05491609a1b600052600160209081527f761c96b3ca383d1714cb6629cc622c074137797f8d1c4f3f00adc84f9dac2c9e546040516001600160a01b039091168152f35b503461000e57600036600319011261000e57724c454e44494e475f524154455f4f5241434c4560681b600052600160209081527fcb40a4ed28bcd13050fc5a5521ee1e9fbbff654480b0b1e986483de2a9653344546040516001600160a01b039091168152f35b503461000e5760006103c036610209565b6103c8610a3c565b702a27a5a2a72fa224a9aa2924a12aaa27a960791b825260016020526040822080546001600160a01b0319166001600160a01b038316179055604051906001600160a01b03167fa8b48a56ec01f81c3615a21ec43e16b925c26293e0801cf6330427f2a687f0538383a2f35b503461000e57600061044536610209565b61044d610a3c565b6b50524943455f4f5241434c4560a01b825260016020526040822080546001600160a01b0319166001600160a01b038316179055604051906001600160a01b03167fefe8ab924ca486283a79dc604baa67add51afb82af1db8ac386ebbba643cdffd8383a2f35b503461000e57600036600319011261000e57722624a8aaa4a220aa24a7a72fa6a0a720a3a2a960691b600052600160209081527f0c2c596851b4651a8e6f929110f58021f1ce980da957db0b05c6345f3381e7d5546040516001600160a01b039091168152f35b503461000e57600036600319011261000e57742622a72224a723afa127a0a9222fa6a0a720a3a2a960591b600052600160209081527f517d8b615e810c69e58c0b046f43b23ecc90801b6a87517031fca78f4c3f8fd5546040516001600160a01b039091168152f35b503461000e576000806003193601126105e35761059f610a3c565b80546001600160a01b0319811682556040519082906001600160a01b03167f8be0079c531659141344cd1fd0a4f28419497f9722a3daafe3b4186f6b6457e08284a3f35b80fd5b503461000e5760006105f736610209565b6105ff610a3c565b724c454e44494e475f524154455f4f5241434c4560681b825260016020526040822080546001600160a01b0319166001600160a01b038316179055604051906001600160a01b03167f5c29179aba6942020a8a2d38f65de02fb6b7f784e7f049ed3a3cab97621859b58383a2f35b503461000e57600036600319011261000e576000546040516001600160a01b039091168152602090f35b503461000e57600036600319011261000e57722820a920a6a2aa22a929afa82927ab24a222a960691b600052600160209081527fcdcf3d45848e3bcf9a6b1c8c3ca4f131ea46efd579f7f1726dfb26f7221f5896546040516001600160a01b039091168152f35b503461000e57600036600319011261000e576c2220aa20afa82927ab24a222a960991b600052600160209081527fcbe908067b5ffd0f77b5030d0053ab5307d7d82a8127788016d5d4b1ef47c901546040516001600160a01b039091168152f35b503461000e57600036600319011261000e577f4c454e44494e475f424f4152445f434f4e464947555241544f52000000000000600052600160209081527f99ff72f201e3b7864a5e123429039ddae92ba423f886e87fc3ce0dd9696e42ef546040516001600160a01b039091168152f35b503461000e5760006107e136610209565b6107e9610a3c565b742622a72224a723afa127a0a9222fa6a0a720a3a2a960591b825260016020526040822080546001600160a01b0319166001600160a01b038316179055604051906001600160a01b03167fef0f9a6b991edc3f0e21ba1931a1e377e7e48b1703b4e576fe784686cd5a39d58383a2f35b503461000e57600036600319011261000e57702a27a5a2a72fa224a9aa2924a12aaa27a960791b600052600160209081527f23a11b120c13a5edd7ba07f9826150ca274bafcad6a819a9cabfde56f14b0f27546040516001600160a01b039091168152f35b503461000e576108cd36610209565b6108d5610a3c565b6001600160a01b0390811690811561092857600080546001600160a01b031981168417825560405191939192167f8be0079c531659141344cd1fd0a4f28419497f9722a3daafe3b4186f6b6457e08484a3f35b60405162461bcd60e51b815260206004820152602660248201527f4f776e61626c653a206e6577206f776e657220697320746865207a65726f206160448201526564647265737360d01b6064820152608490fd5b503461000e57600036600319011261000e576b2322a2afa82927ab24a222a960a11b600052600160209081527f15f14d15d5c5d6b12ed6ebd1eaf7bd6bd59826ffae85704ff3537a8cbcb5f79e546040516001600160a01b039091168152f35b503461000e57600036600319011261000e576b50524943455f4f5241434c4560a01b600052600160209081527f09c42ce2b8743b2d739b046fe6af227cd392ebe6dc7ade0f7795bfe8b5e8d524546040516001600160a01b039091168152f35b6000546001600160a01b03163303610a5057565b606460405162461bcd60e51b815260206004820152602060248201527f4f776e61626c653a2063616c6c6572206973206e6f7420746865206f776e65726044820152fdfea2646970667358221220b90b64a85120b6ccf6b0f4dfa144501c02b2c652151b05459fb82dfffafef96564736f6c634300080d0033",
  "linkReferences": {},
  "deployedLinkReferences": {}
}