{
  "_format": "hh-sol-artifact-1",
  "contractName": "TokenDistributor",
  "sourceName": "contracts/fees/TokenDistributor.sol",
  "abi": [
    {
      "anonymous": false,
      "inputs": [
        {
          "indexed": false,
          "internalType": "address",
          "name": "receiver",
          "type": "address"
        },
        {
          "indexed": false,
          "internalType": "uint256",
          "name": "percentage",
          "type": "uint256"
        },
        {
          "indexed": false,
          "internalType": "uint256",
          "name": "amount",
          "type": "uint256"
        }
      ],
      "name": "Distributed",
      "type": "event"
    },
    {
      "anonymous": false,
      "inputs": [
        {
          "indexed": false,
          "internalType": "address[]",
          "name": "receivers",
          "type": "address[]"
        },
        {
          "indexed": false,
          "internalType": "uint256[]",
          "name": "percentages",
          "type": "uint256[]"
        }
      ],
      "name": "DistributionUpdated",
      "type": "event"
    },
    {
      "inputs": [],
      "name": "DISTRIBUTION_BASE",
      "outputs": [
        {
          "internalType": "uint256",
          "name": "",
          "type": "uint256"
        }
      ],
      "stateMutability": "view",
      "type": "function"
    },
    {
      "inputs": [],
      "name": "IMPLEMENTATION_REVISION",
      "outputs": [
        {
          "internalType": "uint256",
          "name": "",
          "type": "uint256"
        }
      ],
      "stateMutability": "view",
      "type": "function"
    },
    {
      "inputs": [],
      "name": "KYBER_ETH_MOCK_ADDRESS",
      "outputs": [
        {
          "internalType": "address",
          "name": "",
          "type": "address"
        }
      ],
      "stateMutability": "view",
      "type": "function"
    },
    {
      "inputs": [],
      "name": "MAX_UINT",
      "outputs": [
        {
          "internalType": "uint256",
          "name": "",
          "type": "uint256"
        }
      ],
      "stateMutability": "view",
      "type": "function"
    },
    {
      "inputs": [],
      "name": "MAX_UINT_MINUS_ONE",
      "outputs": [
        {
          "internalType": "uint256",
          "name": "",
          "type": "uint256"
        }
      ],
      "stateMutability": "view",
      "type": "function"
    },
    {
      "inputs": [],
      "name": "MIN_CONVERSION_RATE",
      "outputs": [
        {
          "internalType": "uint256",
          "name": "",
          "type": "uint256"
        }
      ],
      "stateMutability": "view",
      "type": "function"
    },
    {
      "inputs": [
        {
          "internalType": "contract IERC20[]",
          "name": "_tokens",
          "type": "address[]"
        }
      ],
      "name": "distribute",
      "outputs": [],
      "stateMutability": "nonpayable",
      "type": "function"
    },
    {
      "inputs": [
        {
          "internalType": "contract IERC20[]",
          "name": "_tokens",
          "type": "address[]"
        },
        {
          "internalType": "uint256[]",
          "name": "_amounts",
          "type": "uint256[]"
        }
      ],
      "name": "distributeWithAmounts",
      "outputs": [],
      "stateMutability": "nonpayable",
      "type": "function"
    },
    {
      "inputs": [
        {
          "internalType": "contract IERC20[]",
          "name": "_tokens",
          "type": "address[]"
        },
        {
          "internalType": "uint256[]",
          "name": "_percentages",
          "type": "uint256[]"
        }
      ],
      "name": "distributeWithPercentages",
      "outputs": [],
      "stateMutability": "nonpayable",
      "type": "function"
    },
    {
      "inputs": [],
      "name": "getDistribution",
      "outputs": [
        {
          "internalType": "address[]",
          "name": "receivers",
          "type": "address[]"
        },
        {
          "internalType": "uint256[]",
          "name": "percentages",
          "type": "uint256[]"
        }
      ],
      "stateMutability": "view",
      "type": "function"
    },
    {
      "inputs": [
        {
          "internalType": "address[]",
          "name": "_receivers",
          "type": "address[]"
        },
        {
          "internalType": "uint256[]",
          "name": "_percentages",
          "type": "uint256[]"
        }
      ],
      "name": "initialize",
      "outputs": [],
      "stateMutability": "nonpayable",
      "type": "function"
    },
    {
      "inputs": [],
      "name": "recipientBurn",
      "outputs": [
        {
          "internalType": "address",
          "name": "",
          "type": "address"
        }
      ],
      "stateMutability": "view",
      "type": "function"
    },
    {
      "inputs": [],
      "name": "tokenToBurn",
      "outputs": [
        {
          "internalType": "address",
          "name": "",
          "type": "address"
        }
      ],
      "stateMutability": "view",
      "type": "function"
    },
    {
      "stateMutability": "payable",
      "type": "receive"
    }
  ],
  "bytecode": "0x60808060405234610020576001600055600060015561113990816100268239f35b600080fdfe6080604052600436101561001b575b361561001957600080fd5b005b60003560e01c8063043c41d41461011f57806313520658146101165780631cced51b1461010d578063217ab8061461010457806323879bb1146100fb57806340d58a4a146100f25780634f1b86eb146100e95780636138889b146100e05780637fbbe46f146100d75780638c0c9a25146100ce578063cc8cc9d8146100c5578063e5b5019a146100bc5763eed64c300361000e576100b7610741565b61000e565b506100b7610723565b506100b76106d6565b506100b761065f565b506100b76105b2565b506100b7610416565b506100b76102ce565b506100b76102b1565b506100b7610294565b506100b761026a565b506100b76101db565b506100b7610142565b503461013d57600036600319011261013d5760206040516001198152f35b600080fd5b503461013d57600036600319011261013d5760206040516127108152f35b6040810190604081528251809252606081019160208094019060005b8181106101be575050508281830391015281808451928381520193019160005b8281106101aa575050505090565b83518552938101939281019260010161019c565b82516001600160a01b03168552938501939185019160010161017c565b503461013d57600036600319011261013d57604051808160355480835260208093019060356000526000805160206110c4833981519152936000905b828210610247578461022b81860382610354565b610233610bb2565b9061024360405192839283610160565b0390f35b85546001600160a01b031684526001958601958795509381019390910190610217565b503461013d57600036600319011261013d576038546040516001600160a01b039091168152602090f35b503461013d57600036600319011261013d57602060405160048152f35b503461013d57600036600319011261013d57602060405160018152f35b503461013d57600036600319011261013d576037546040516001600160a01b039091168152602090f35b50634e487b7160e01b600052604160045260246000fd5b6040810190811067ffffffffffffffff82111761032b57604052565b6103336102f8565b604052565b6080810190811067ffffffffffffffff82111761032b57604052565b90601f8019910116810190811067ffffffffffffffff82111761032b57604052565b60209067ffffffffffffffff8111610390575b60051b0190565b6103986102f8565b610389565b6001600160a01b0381160361013d57565b81601f8201121561013d578035916103c583610376565b926103d36040519485610354565b808452602092838086019260051b82010192831161013d578301905b8282106103fd575050505090565b838091833561040b8161039d565b8152019101906103ef565b503461013d5760208060031936011261013d57600490813567ffffffffffffffff811161013d5761044a90369084016103ae565b60005b8151811015610019578073eeeeeeeeeeeeeeeeeeeeeeeeeeeeeeeeeeeeeeee61049b61048f61048f6104826105099688610a78565b516001600160a01b031690565b6001600160a01b031690565b1461054e576104b061048f6104828386610a78565b6040516370a0823160e01b815230878201908152909186918391908290819060200103915afa908115610541575b600091610514575b505b801561050e57610504906104ff6104828487610a78565b610d65565b610a5c565b61044d565b50610a5c565b6105349150853d871161053a575b61052c8183610354565b810190610aa2565b386104e6565b503d610522565b610549610ab1565b6104de565b476104e8565b81601f8201121561013d5780359161056b83610376565b926105796040519485610354565b808452602092838086019260051b82010192831161013d578301905b8282106105a3575050505090565b81358152908301908301610595565b503461013d57604036600319011261013d5767ffffffffffffffff60043581811161013d573660238201121561013d5780600401356105f081610376565b916105fe6040519384610354565b81835260209160248385019160051b8301019136831161013d57602401905b828210610646576024358587821161013d57610640610019923690600401610554565b90610834565b83809183356106548161039d565b81520191019061061d565b503461013d57600036600319011261013d57602060405173eeeeeeeeeeeeeeeeeeeeeeeeeeeeeeeeeeeeeeee8152f35b90604060031983011261013d5767ffffffffffffffff60043581811161013d57836106bc916004016103ae565b9260243591821161013d576106d391600401610554565b90565b503461013d576106e53661068f565b9060005b81518110156100195761071e906105046001600160a01b0361070b8386610a78565b51166107178387610a78565b5190610d65565b6106e9565b503461013d57600036600319011261013d5760206040516000198152f35b503461013d576107503661068f565b9060005b8151811015610019578073eeeeeeeeeeeeeeeeeeeeeeeeeeeeeeeeeeeeeeee61078961048f61048f6104826107ef9688610a78565b1461081e576104e86107e86107a461048f6104828588610a78565b6040516370a0823160e01b81523060048201526020918290829060249082905afa918215610811575b6000926107f4575b50506107e18488610a78565b5190610abe565b6064900490565b610754565b61080a9250803d1061053a5761052c8183610354565b38806107d5565b610819610ab1565b6107cd565b61082f6107e8476107e18488610a78565b6104e8565b60ff6002541691821592836108fe575b80156108f2575b156108965761085e918361087557610907565b61086457565b61087360ff1960025416600255565b565b610887600160ff196002541617600255565b6108916004600155565b610907565b60405162461bcd60e51b815260206004820152602e60248201527f436f6e747261637420696e7374616e63652068617320616c726561647920626560448201526d195b881a5b9a5d1a585b1a5e995960921b6064820152608490fd5b5060015460041161084b565b50303b15610844565b908151815103610a005760405161091d8161030f565b828152602080910190828252835190600160401b82116109f3575b6109488260355481603555610af4565b8085019060356000526000805160206110c48339815191526000925b8484106109c457505050505061097a9051610b21565b604051917fdc9f439f707945ade720b0154668dd64af0689fb88b40abdb0f0289156d23e9d83806109ad85858598610160565b0390a16109bf60405192839283610160565b0390a1565b805182546001600160a01b0319166001600160a01b039190911617825560019384019391909101908201610964565b6109fb6102f8565b610938565b60405162461bcd60e51b815260206004820152601d60248201527f4172726179206c656e677468732073686f756c6420626520657175616c0000006044820152606490fd5b50634e487b7160e01b600052601160045260246000fd5b6001906000198114610a6c570190565b610a74610a45565b0190565b8051821015610a8c5760209160051b010190565b634e487b7160e01b600052603260045260246000fd5b9081602091031261013d575190565b506040513d6000823e3d90fd5b8060001904821181151516610ad1570290565b610ad9610a45565b0290565b818110610ae8575050565b60008155600101610add565b808210610aff575050565b6108739160356000526000805160206110c48339815191529182019101610add565b805190600160401b8211610ba5575b60365482603655808310610b81575b5060208091019060366000526000805160206110e48339815191526000925b848410610b6c575050505050565b60018382829351855501920193019290610b5e565b610b9f90836000805160206110e48339815191529182019101610add565b38610b3f565b610bad6102f8565b610b30565b60405190603654808352826020918282019060366000526000805160206110e4833981519152936000905b828210610bf35750505061087392500383610354565b855484526001958601958895509381019390910190610bdd565b60405190610c1a8261030f565b816040518060355480835281602080940160356000526000805160206110c48339815191529260005b86828210610cb457505050610c5a92500382610354565b825260405191828383603654928381520160366000526000805160206110e48339815191529260005b86828210610c9e57505050610c9a92500384610354565b0152565b8554845260019586019589955093019201610c83565b85546001600160a01b0316845260019586019587955093019201610c43565b3d15610d1c573d9067ffffffffffffffff8211610d0f575b60405191610d03601f8201601f191660200184610354565b82523d6000602084013e565b610d176102f8565b610ceb565b606090565b15610d2857565b60405162461bcd60e51b81526020600482015260156024820152742932bb32b93a32b21022aa24103a3930b739b332b960591b6044820152606490fd5b919091610d70610c0d565b6001600160a01b03821673eeeeeeeeeeeeeeeeeeeeeeeeeeeeeeeeeeeeeeee141591600091602081019190835b815151811015610e985780610dcb610dc3610dbc610e5f948851610a78565b518b610abe565b612710900490565b801561050e577f60ce3cc2d133631eac66a476f14997a9fa682bd05a60dd993cf02285822d78d8908815610e6457610e1181610e0b610482868951610a78565b88610ea2565b610e1f610482848751610a78565b610e57610e2d858a51610a78565b51604080516001600160a01b03909416845260208401919091528201929092529081906060820190565b0390a1610a5c565b610d9d565b610e93888080610e7e61048f61048f6104828a8d51610a78565b85604051915af1610e8d610cd3565b50610d21565b610e11565b5050505050509050565b60405163a9059cbb60e01b602082019081526001600160a01b039384166024830152604480830195909552938152610f31929091610edf83610338565b1660405191610eed8361030f565b602083527f5361666545524332303a206c6f772d6c6576656c2063616c6c206661696c65646020840152600080958192519082855af1610f2b610cd3565b91611025565b8051908115918215610f4a575b50506108739150610f7a565b8192509060209181010312610f765760200151908115158203610f735750610873903880610f3e565b80fd5b5080fd5b15610f8157565b60405162461bcd60e51b815260206004820152602a60248201527f5361666545524332303a204552433230206f7065726174696f6e20646964206e6044820152691bdd081cdd58d8d9595960b21b6064820152608490fd5b15610fe057565b60405162461bcd60e51b815260206004820152601d60248201527f416464726573733a2063616c6c20746f206e6f6e2d636f6e74726163740000006044820152606490fd5b919290156110455750815115611039575090565b6106d3903b1515610fd9565b8251909150156110585750805190602001fd5b6040519062461bcd60e51b82528160208060048301528251928360248401526000915b8483106110aa57505091806044931161109d575b601f01601f19168101030190fd5b600083828401015261108f565b818301810151868401604401528593509182019161107b56fecfa4bec1d3298408bb5afcfcd9c430549c5b31f8aa5c5848151c0a55f473c34d4a11f94e20a93c79f6ec743a1954ec4fc2c08429ae2122118bf234b2185c81b8a2646970667358221220cb541bf064fa7e1636045ffe2468948b11f170613fc8b684f38f5f307b45fdb264736f6c634300080d0033",
  "linkReferences": {},
  "deployedLinkReferences": {}
}