{
  "_format": "hh-sol-artifact-1",
  "contractName": "LendingBoardParametersProvider",
  "sourceName": "contracts/configuration/LendingBoardParametersProvider.sol",
  "abi": [
    {
      "inputs": [],
      "name": "getFlashLoanFeesInBips",
      "outputs": [
        {
          "internalType": "uint256",
          "name": "",
          "type": "uint256"
        },
        {
          "internalType": "uint256",
          "name": "",
          "type": "uint256"
        }
      ],
      "stateMutability": "pure",
      "type": "function"
    },
    {
      "inputs": [],
      "name": "getMaxStableRateBorrowSizePercent",
      "outputs": [
        {
          "internalType": "uint256",
          "name": "",
          "type": "uint256"
        }
      ],
      "stateMutability": "pure",
      "type": "function"
    },
    {
      "inputs": [],
      "name": "getRebalanceDownRateDelta",
      "outputs": [
        {
          "internalType": "uint256",
          "name": "",
          "type": "uint256"
        }
      ],
      "stateMutability": "pure",
      "type": "function"
    },
    {
      "inputs": [
        {
          "internalType": "address",
          "name": "_addressesProvider",
          "type": "address"
        }
      ],
      "name": "initialize",
      "outputs": [],
      "stateMutability": "nonpayable",
      "type": "function"
    }
  ],
  "bytecode": "0x6080806040523461001a57600080556101f690816100208239f35b600080fdfe608080604052600436101561001357600080fd5b6000803560e01c91826346f4f8d11461008a57508163586feb401461006557508063c4d66de81461005c5763d6b725ac1461004f575b38600080fd5b6100576101a3565b610049565b506100576100b1565b346100875780600319360112610087576040805160238152610bb86020820152f35b80fd5b346100ad57816003193601126100ad57806aa56fa5b99019a5c800000060209252f35b5080fd5b503461019e57602036600319011261019e576004356001600160a01b0381160361019e5760ff6001541680159081610195575b8015610189575b1561012d578061010d575b6100fc57005b61010b60ff1960015416600155565b005b61011e600160ff1981541617600155565b6101286001600055565b6100f6565b60405162461bcd60e51b815260206004820152602e60248201527f436f6e747261637420696e7374616e63652068617320616c726561647920626560448201526d195b881a5b9a5d1a585b1a5e995960921b6064820152608490fd5b506000546001116100eb565b50303b156100e4565b600080fd5b503461019e57600036600319011261019e57602060405160198152f3fea26469706673582212204fd16e7bbe950a74ff15652da1cb123ca3469ded44a275ac2a02456ac1fbe6a164736f6c634300080d0033",
  "linkReferences": {},
  "deployedLinkReferences": {}
}