{
  "_format": "hh-sol-artifact-1",
  "contractName": "LendingBoardDataProvider",
  "sourceName": "contracts/lendingboard/LendingBoardDataProvider.sol",
  "abi": [
    {
      "inputs": [],
      "name": "DATA_PROVIDER_REVISION",
      "outputs": [
        {
          "internalType": "uint256",
          "name": "",
          "type": "uint256"
        }
      ],
      "stateMutability": "view",
      "type": "function"
    },
    {
      "inputs": [],
      "name": "HEALTH_FACTOR_LIQUIDATION_THRESHOLD",
      "outputs": [
        {
          "internalType": "uint256",
          "name": "",
          "type": "uint256"
        }
      ],
      "stateMutability": "view",
      "type": "function"
    },
    {
      "inputs": [],
      "name": "addressesProvider",
      "outputs": [
        {
          "internalType": "contract LendingBoardAddressesProvider",
          "name": "",
          "type": "address"
        }
      ],
      "stateMutability": "view",
      "type": "function"
    },
    {
      "inputs": [
        {
          "internalType": "address",
          "name": "_reserve",
          "type": "address"
        },
        {
          "internalType": "address",
          "name": "_user",
          "type": "address"
        },
        {
          "internalType": "uint256",
          "name": "_amount",
          "type": "uint256"
        }
      ],
      "name": "balanceDecreaseAllowed",
      "outputs": [
        {
          "internalType": "bool",
          "name": "",
          "type": "bool"
        }
      ],
      "stateMutability": "view",
      "type": "function"
    },
    {
      "inputs": [
        {
          "internalType": "address",
          "name": "_reserve",
          "type": "address"
        },
        {
          "internalType": "uint256",
          "name": "_amount",
          "type": "uint256"
        },
        {
          "internalType": "uint256",
          "name": "_fee",
          "type": "uint256"
        },
        {
          "internalType": "uint256",
          "name": "_userCurrentBorrowBalanceTH",
          "type": "uint256"
        },
        {
          "internalType": "uint256",
          "name": "_userCurrentFeesETH",
          "type": "uint256"
        },
        {
          "internalType": "uint256",
          "name": "_userCurrentLtv",
          "type": "uint256"
        }
      ],
      "name": "calculateCollateralNeededInETH",
      "outputs": [
        {
          "internalType": "uint256",
          "name": "",
          "type": "uint256"
        }
      ],
      "stateMutability": "view",
      "type": "function"
    },
    {
      "inputs": [
        {
          "internalType": "address",
          "name": "_user",
          "type": "address"
        }
      ],
      "name": "calculateUserGlobalData",
      "outputs": [
        {
          "internalType": "uint256",
          "name": "totalLiquidityBalanceETH",
          "type": "uint256"
        },
        {
          "internalType": "uint256",
          "name": "totalCollateralBalanceETH",
          "type": "uint256"
        },
        {
          "internalType": "uint256",
          "name": "totalBorrowBalanceETH",
          "type": "uint256"
        },
        {
          "internalType": "uint256",
          "name": "totalFeesETH",
          "type": "uint256"
        },
        {
          "internalType": "uint256",
          "name": "currentLtv",
          "type": "uint256"
        },
        {
          "internalType": "uint256",
          "name": "currentLiquidationThreshold",
          "type": "uint256"
        },
        {
          "internalType": "uint256",
          "name": "healthFactor",
          "type": "uint256"
        },
        {
          "internalType": "bool",
          "name": "healthFactorBelowThreshold",
          "type": "bool"
        }
      ],
      "stateMutability": "view",
      "type": "function"
    },
    {
      "inputs": [],
      "name": "core",
      "outputs": [
        {
          "internalType": "contract LendingBoardCore",
          "name": "",
          "type": "address"
        }
      ],
      "stateMutability": "view",
      "type": "function"
    },
    {
      "inputs": [],
      "name": "getHealthFactorLiquidationThreshold",
      "outputs": [
        {
          "internalType": "uint256",
          "name": "",
          "type": "uint256"
        }
      ],
      "stateMutability": "pure",
      "type": "function"
    },
    {
      "inputs": [
        {
          "internalType": "uint256",
          "name": "_proposalId",
          "type": "uint256"
        },
        {
          "internalType": "bool",
          "name": "_isBorrowProposal",
          "type": "bool"
        }
      ],
      "name": "getProposalData",
      "outputs": [
        {
          "internalType": "bool",
          "name": "",
          "type": "bool"
        },
        {
          "internalType": "address",
          "name": "",
          "type": "address"
        },
        {
          "internalType": "address",
          "name": "",
          "type": "address"
        },
        {
          "internalType": "address",
          "name": "",
          "type": "address"
        },
        {
          "internalType": "uint256",
          "name": "",
          "type": "uint256"
        },
        {
          "internalType": "address",
          "name": "",
          "type": "address"
        },
        {
          "internalType": "uint256",
          "name": "",
          "type": "uint256"
        },
        {
          "internalType": "uint256",
          "name": "",
          "type": "uint256"
        },
        {
          "internalType": "uint256",
          "name": "",
          "type": "uint256"
        },
        {
          "internalType": "uint256",
          "name": "",
          "type": "uint256"
        },
        {
          "internalType": "uint256",
          "name": "",
          "type": "uint256"
        },
        {
          "internalType": "uint256",
          "name": "",
          "type": "uint256"
        },
        {
          "internalType": "uint256",
          "name": "",
          "type": "uint256"
        },
        {
          "internalType": "bool",
          "name": "",
          "type": "bool"
        }
      ],
      "stateMutability": "view",
      "type": "function"
    },
    {
      "inputs": [
        {
          "internalType": "uint256",
          "name": "_proposalId",
          "type": "uint256"
        },
        {
          "internalType": "bool",
          "name": "_isBorrowProposal",
          "type": "bool"
        }
      ],
      "name": "getProposalLiquidationAvailability",
      "outputs": [
        {
          "internalType": "bool",
          "name": "proposalLiquidationAvailability",
          "type": "bool"
        }
      ],
      "stateMutability": "view",
      "type": "function"
    },
    {
      "inputs": [
        {
          "internalType": "address",
          "name": "_reserve",
          "type": "address"
        }
      ],
      "name": "getReserveConfigurationData",
      "outputs": [
        {
          "internalType": "uint256",
          "name": "ltv",
          "type": "uint256"
        },
        {
          "internalType": "uint256",
          "name": "liquidationThreshold",
          "type": "uint256"
        },
        {
          "internalType": "uint256",
          "name": "liquidationBonus",
          "type": "uint256"
        },
        {
          "internalType": "address",
          "name": "rateStrategyAddress",
          "type": "address"
        },
        {
          "internalType": "bool",
          "name": "usageAsCollateralEnabled",
          "type": "bool"
        },
        {
          "internalType": "bool",
          "name": "borrowingEnabled",
          "type": "bool"
        },
        {
          "internalType": "bool",
          "name": "stableBorrowRateEnabled",
          "type": "bool"
        },
        {
          "internalType": "bool",
          "name": "isActive",
          "type": "bool"
        }
      ],
      "stateMutability": "view",
      "type": "function"
    },
    {
      "inputs": [
        {
          "internalType": "address",
          "name": "_reserve",
          "type": "address"
        }
      ],
      "name": "getReserveData",
      "outputs": [
        {
          "internalType": "uint256",
          "name": "totalLiquidity",
          "type": "uint256"
        },
        {
          "internalType": "uint256",
          "name": "availableLiquidity",
          "type": "uint256"
        },
        {
          "internalType": "uint256",
          "name": "totalBorrowsStable",
          "type": "uint256"
        },
        {
          "internalType": "uint256",
          "name": "totalBorrowsVariable",
          "type": "uint256"
        },
        {
          "internalType": "uint256",
          "name": "liquidityRate",
          "type": "uint256"
        },
        {
          "internalType": "uint256",
          "name": "variableBorrowRate",
          "type": "uint256"
        },
        {
          "internalType": "uint256",
          "name": "stableBorrowRate",
          "type": "uint256"
        },
        {
          "internalType": "uint256",
          "name": "averageStableBorrowRate",
          "type": "uint256"
        },
        {
          "internalType": "uint256",
          "name": "utilizationRate",
          "type": "uint256"
        },
        {
          "internalType": "uint256",
          "name": "liquidityIndex",
          "type": "uint256"
        },
        {
          "internalType": "uint256",
          "name": "variableBorrowIndex",
          "type": "uint256"
        },
        {
          "internalType": "address",
          "name": "aTokenAddress",
          "type": "address"
        },
        {
          "internalType": "uint40",
          "name": "lastUpdateTimestamp",
          "type": "uint40"
        }
      ],
      "stateMutability": "view",
      "type": "function"
    },
    {
      "inputs": [
        {
          "internalType": "address",
          "name": "_user",
          "type": "address"
        }
      ],
      "name": "getUserAccountData",
      "outputs": [
        {
          "internalType": "uint256",
          "name": "totalLiquidityETH",
          "type": "uint256"
        },
        {
          "internalType": "uint256",
          "name": "totalCollateralETH",
          "type": "uint256"
        },
        {
          "internalType": "uint256",
          "name": "totalBorrowsETH",
          "type": "uint256"
        },
        {
          "internalType": "uint256",
          "name": "totalFeesETH",
          "type": "uint256"
        },
        {
          "internalType": "uint256",
          "name": "availableBorrowsETH",
          "type": "uint256"
        },
        {
          "internalType": "uint256",
          "name": "currentLiquidationThreshold",
          "type": "uint256"
        },
        {
          "internalType": "uint256",
          "name": "ltv",
          "type": "uint256"
        },
        {
          "internalType": "uint256",
          "name": "healthFactor",
          "type": "uint256"
        }
      ],
      "stateMutability": "view",
      "type": "function"
    },
    {
      "inputs": [
        {
          "internalType": "address",
          "name": "_reserve",
          "type": "address"
        },
        {
          "internalType": "address",
          "name": "_user",
          "type": "address"
        }
      ],
      "name": "getUserReserveData",
      "outputs": [
        {
          "internalType": "uint256",
          "name": "currentATokenBalance",
          "type": "uint256"
        },
        {
          "internalType": "uint256",
          "name": "currentBorrowBalance",
          "type": "uint256"
        },
        {
          "internalType": "uint256",
          "name": "principalBorrowBalance",
          "type": "uint256"
        },
        {
          "internalType": "uint256",
          "name": "borrowRateMode",
          "type": "uint256"
        },
        {
          "internalType": "uint256",
          "name": "borrowRate",
          "type": "uint256"
        },
        {
          "internalType": "uint256",
          "name": "liquidityRate",
          "type": "uint256"
        },
        {
          "internalType": "uint256",
          "name": "originationFee",
          "type": "uint256"
        },
        {
          "internalType": "uint256",
          "name": "variableBorrowIndex",
          "type": "uint256"
        },
        {
          "internalType": "uint256",
          "name": "lastUpdateTimestamp",
          "type": "uint256"
        },
        {
          "internalType": "bool",
          "name": "usageAsCollateralEnabled",
          "type": "bool"
        }
      ],
      "stateMutability": "view",
      "type": "function"
    },
    {
      "inputs": [
        {
          "internalType": "contract LendingBoardAddressesProvider",
          "name": "_addressesProvider",
          "type": "address"
        }
      ],
      "name": "initialize",
      "outputs": [],
      "stateMutability": "nonpayable",
      "type": "function"
    }
  ],
  "bytecode": "0x6080806040523461001a5760008055612cba90816100208239f35b600080fdfe60806040526004361015610013575b600080fd5b60003560e01c806312737c331461013657806328dd2d011461012d5780632c6d0e9b14610124578063335530ff1461011b57806335ea6a75146101125780633e150141146101095780633e44bee8146100dc57806376e9d615146101005780638daf609f146100f7578063a7b3a3c1146100ee578063bf92857c146100e5578063c3525c28146100dc578063c4d66de8146100d3578063c72c4d10146100ca5763f2f4eb26146100c257600080fd5b61000e6117a2565b5061000e611778565b5061000e611688565b5061000e6113d0565b5061000e611625565b5061000e6114d8565b5061000e61142c565b5061000e6113f4565b5061000e611093565b5061000e610a18565b5061000e6109e3565b5061000e61097c565b5061000e61036f565b5061000e610150565b6001600160a01b0381160361000e57565b503461000e5760c036600319011261000e576102bb6102ab6102846004356101778161013f565b603454610194906001600160a01b03165b6001600160a01b031690565b60405163288d4ff760e21b81526001600160a01b0383166004820152916020918290849060249082905afa928315610362575b600093610333575b50816102458161027893600461027e966101f361018860355460018060a01b031690565b604051631f94a27560e31b815292839182905afa908115610326575b6000916102f9575b5060405163b3596f0760e01b81526001600160a01b0390921660048301529092839190829081906024820190565b03916001600160a01b03165afa9182156102ec575b6000926102bf575b5050610272604435602435611f79565b90611fa7565b91611ab9565b90611fba565b6102a66102a160a4359261029c608435606435611f79565b611f79565b611f85565b611fba565b6040519081529081906020820190565b0390f35b6102de9250803d106102e5575b6102d6818361180c565b810190611ad5565b3880610262565b503d6102cc565b6102f461182e565b61025a565b6103199150833d851161031f575b610311818361180c565b8101906118e9565b38610217565b503d610307565b61032e61182e565b61020f565b610278919350916102458161035761027e95823d84116102e5576102d6818361180c565b9593509350506101cf565b61036a61182e565b6101c7565b503461000e5760408060031936011261000e5760049081356103908161013f565b6024359161039d8361013f565b603454600094906103b6906001600160a01b0316610188565b93825193631a59df7760e11b85526020938486806103e585888301919091602081019260018060a01b03169052565b03818a5afa95861561096f575b8896610950575b5080516370a0823160e01b81526001600160a01b038416858201908152909686918891908290819060200103916001600160a01b03165afa958615610943575b8896610924575b508051631ca19f1960e01b81526001600160a01b03808416868301908152908516602082015290919086908390819060400103818b5afa918215610917575b89926108e8575b508051639fb8afcd60e01b81526001600160a01b0380851687830190815290861660208201529091906060908390819060400103818c5afa9889156108db575b8a928b9a610890575b5091839188878097956102bb9c9d9e6104ea61056c99612ba5565b6001870361080857508351631bffeac360e21b81526001600160a01b03808916828e0190815290841660208201528490829081906040010381855afa9081156107fb575b6000916107de575b50965b61054287612ba5565b84516362a00a4760e11b81526001600160a01b038216818e01908152909985918b91829160200190565b0381855afa9889156107d1575b6000996107b2575b508451633faacc6b60e21b81526001600160a01b03808316828f019081529b1660208c01529984908b9081906040010381855afa998a156107a5575b60009a610786575b508451637b7546bb60e11b81526001600160a01b03808316828f019081529c1660208d01529a84908c9081906040010381855afa9a8b15610779575b60009b61075a575b5084516366d103f360e01b81526001600160a01b038083168e83019081529085166020820152909c9085908e9081906040010381865afa9c8d1561074d575b60009d610722575b508551639e3c4f3b60e01b81526001600160a01b039283169181019182529190931660208401529291839190829081906040015b03915afa998a15610715575b60009a6106e6575b5050519a8b9a8b9895926101209895929b9a9794919b6101408b019c8b5260208b015260408a01526060890152608088015260a087015260c086015260e08501526101008401521515910152565b610706929a50803d1061070e575b6106fe818361180c565b810190611fda565b973880610698565b503d6106f4565b61071d61182e565b610690565b85949392919d5061074290610684963d87116102e5576102d6818361180c565b9c9091929394610650565b61075561182e565b610648565b610772919b50843d86116102e5576102d6818361180c565b9938610609565b61078161182e565b610601565b61079e919a50843d86116102e5576102d6818361180c565b98386105c5565b6107ad61182e565b6105bd565b6107ca919950843d86116102e5576102d6818361180c565b9738610581565b6107d961182e565b610579565b6107f59150843d86116102e5576102d6818361180c565b38610536565b61080361182e565b61052e565b9661081287612ba5565b8b60028814610822575b50610539565b855163906c0a4160e01b81526001600160a01b038316918101918252919891908590829081906020010381865afa918215610883575b91610866575b50968b61081c565b61087d9150843d86116102e5576102d6818361180c565b3861085e565b61088b61182e565b610858565b6102bb999a50869593509188866108c161056c979560603d81116108d4575b6108b9818361180c565b810190612b8a565b509d9c5095975093959193506104cf9050565b503d6108af565b6108e361182e565b6104c6565b610909919250863d8811610910575b610901818361180c565b810190612b72565b9038610486565b503d6108f7565b61091f61182e565b61047f565b61093c919650853d87116102e5576102d6818361180c565b9438610440565b61094b61182e565b610439565b610968919650853d871161031f57610311818361180c565b94386103f9565b61097761182e565b6103f2565b503461000e57602036600319011261000e576101006109a56004356109a08161013f565b611ae4565b95604095919594929451978852602088015260408701526060860152608085015260a084015260c0830152151560e0820152f35b8015150361000e57565b503461000e57604036600319011261000e576020610a0e602435610a06816109d9565b6004356125c6565b6040519015158152f35b503461000e5760208060031936011261000e576004908135610a398161013f565b603454610a4e906001600160a01b0316610188565b60408051630c33cfd960e41b81526001600160a01b0384168187019081529195929490939092918390859081906020010381885afa938415611086575b600094611067575b50855163e240301960e01b81526001600160a01b0382168382019081529095908490879081906020010381845afa95861561105a575b60009661101d575b5091610c9e610c5e610c1e610bde610b9e610b5e610b1e8d8b6102bb9d9e9f9a819c82828d829f519788928392637f90fec560e01b84528301919091602081019260018060a01b03169052565b0381845afa948515611010575b600095610ff1575b5083516398bd473760e01b81526001600160a01b038316818e01908152909684918891829160200190565b0381845afa958615610fe4575b600096610fc5575b5083516362a00a4760e11b81526001600160a01b038316818e01908152909784918991829160200190565b0381845afa968715610fb8575b600097610f99575b50835163906c0a4160e01b81526001600160a01b038316818e01908152909884918a91829160200190565b0381845afa978815610f8c575b600098610f6d575b508351631100f3b160e31b81526001600160a01b038316818e01908152909984918b91829160200190565b0381845afa988915610f60575b600099610f41575b5083516308d781e560e31b81526001600160a01b038316818e01908152909a84918c91829160200190565b0381845afa998a15610f34575b60009a610f15575b508351632feb2b6160e21b81526001600160a01b038316818e01908152909b84918d91829160200190565b0381845afa9a8b15610f08575b60009b610ee9575b508351635ebfebcd60e11b81526001600160a01b0383168d8201908152909c9084908e9081906020010381855afa9c8d15610edc575b60009d610ebd575b50845163b701d09360e01b81526001600160a01b038416828201908152909e908f9081906020010381855afa9d8e15610eb0575b60009e610e91575b5084519e8f631a59df7760e11b815280610d5886858301919091602081019260018060a01b03169052565b0381855afa9e8f15610e84575b60009f610e5b575b508451634f14460960e01b81526001600160a01b03909316908301908152919291839190829081906020015b03915afa9c8d15610e4e575b60009d610e1f575b5050519d8e9d8e9b99979593919d9c9a98969492909d6101a08d019e8d5260208d015260408c015260608b015260808a015260a089015260c088015260e0870152610100860152610120850152610140840152600160a01b600190031661016083015264ffffffffff16906101800152565b610e3f929d50803d10610e47575b610e37818361180c565b810190612a45565b9a3880610dad565b503d610e2d565b610e5661182e565b610da5565b849392919f50610e7a90610d99953d861161031f57610311818361180c565b9e90919293610d6d565b610e8c61182e565b610d65565b610ea9919e50843d86116102e5576102d6818361180c565b9c38610d2d565b610eb861182e565b610d25565b610ed5919d50843d86116102e5576102d6818361180c565b9b38610cf1565b610ee461182e565b610ce9565b610f01919b50833d85116102e5576102d6818361180c565b9938610cb3565b610f1061182e565b610cab565b610f2d919a50833d85116102e5576102d6818361180c565b9838610c73565b610f3c61182e565b610c6b565b610f59919950833d85116102e5576102d6818361180c565b9738610c33565b610f6861182e565b610c2b565b610f85919850833d85116102e5576102d6818361180c565b9638610bf3565b610f9461182e565b610beb565b610fb1919750833d85116102e5576102d6818361180c565b9538610bb3565b610fc061182e565b610bab565b610fdd919650833d85116102e5576102d6818361180c565b9438610b73565b610fec61182e565b610b6b565b611009919550833d85116102e5576102d6818361180c565b9338610b33565b61101861182e565b610b2b565b8493919795965083928391823d8411611053575b61103b818361180c565b810161104691611ad5565b9796989294509250610ad1565b503d611031565b61106261182e565b610ac9565b61107f919450833d85116102e5576102d6818361180c565b9238610a93565b61108e61182e565b610a8b565b503461000e5760208060031936011261000e576004908135906110b58261013f565b6034546110ca906001600160a01b0316610188565b60408051635fc526ff60e01b81526001600160a01b0385168682019081529094929190608090869081906020010381855afa80156113c3575b60009485968692611387575b5082516313cce90960e31b81526001600160a01b038616818a01908152979896976102bb979195908390879081906020010381845afa95861561137a575b60009661135b575b508451632e79732b60e11b81526001600160a01b0388168382019081529095908490879081906020010381855afa95861561134e575b60009661132f575b508051630283aeb760e11b81526001600160a01b03891684820190815290989085908a9081906020010381865afa988915611322575b600099611301575b5081516331da9b2760e21b81526001600160a01b03821685820190815290938692918390869081906020010381845afa9485156112f4575b6000956112d1575b508351633570a20b60e11b81526001600160a01b03909216958201958652939492939092839190829081906020015b03915afa9384156112c4575b6000946112a5575b505051978852602088019890985260408701979097526001600160a01b039096166060860152941515608085015293151560a084015292151560c083015291151560e0820152908190610100820190565b6112bc929450803d1061031f57610311818361180c565b913880611254565b6112cc61182e565b61124c565b6112409495506112ed90843d86116102e5576102d6818361180c565b9493611211565b6112fc61182e565b611209565b8591995061131b90823d841161070e576106fe818361180c565b98906111d1565b61132a61182e565b6111c9565b611347919650843d861161070e576106fe818361180c565b9438611193565b61135661182e565b61118b565b611373919650833d851161070e576106fe818361180c565b9438611155565b61138261182e565b61114d565b9096506102bb95506113b0915060803d81116113bc575b6113a8818361180c565b810190611a91565b9097919690925061110f565b503d61139e565b6113cb61182e565b611103565b503461000e57600036600319011261000e576020604051670de0b6b3a76400008152f35b503461000e57606036600319011261000e576020610a0e6004356114178161013f565b6024356114238161013f565b60443591611fef565b503461000e57600036600319011261000e57602060405160018152f35b90151581526001600160a01b039182166020820152911660408201526101c081019c9b9a9099909890979096909590949093909290916001600160a01b031660608b015260808a01526001600160a01b031660a089015260c088015260e08701526101008601526101208501526101408401526101608301526101808201526101a0016114d69115159052565b565b503461000e57604036600319011261000e5761153e6024356114f9816109d9565b60345461150e906001600160a01b0316610188565b604051632ea37ca760e01b8152600480359082015291151560248301526101c09283918391829081906044820190565b03915afa918215611618575b6000926115eb575b8261155d8151151590565b60208201516102bb906001600160a01b031660408401519093906001600160a01b031660608201519091906001600160a01b0316608082015160a08301516001600160a01b031660c084015160e0850151610100860151916101208701519361014088015195610160890151976115de6101a06101808c01519b0151151590565b9a6040519e8f9e8f611449565b61160a9250803d10611611575b611602818361180c565b810190612383565b3880611552565b503d6115f8565b61162061182e565b61154a565b503461000e57602036600319011261000e576101006116496004356109a08161013f565b5094919361165c85858386979597612a62565b92604051978852602088015260408701526060860152608085015260a084015260c083015260e0820152f35b503461000e57602036600319011261000e576004356116a68161013f565b60ff60015416908115918261176f575b8015611763575b15611707576116d090826116e75761183b565b6116d657005b6116e560ff1960015416600155565b005b6116f8600160ff1981541617600155565b6117026001600055565b61183b565b60405162461bcd60e51b815260206004820152602e60248201527f436f6e747261637420696e7374616e63652068617320616c726561647920626560448201526d195b881a5b9a5d1a585b1a5e995960921b6064820152608490fd5b506000546001116116bd565b50303b156116b6565b503461000e57600036600319011261000e576035546040516001600160a01b039091168152602090f35b503461000e57600036600319011261000e576034546040516001600160a01b039091168152602090f35b50634e487b7160e01b600052604160045260246000fd5b6040810190811067ffffffffffffffff8211176117ff57604052565b6118076117cc565b604052565b90601f8019910116810190811067ffffffffffffffff8211176117ff57604052565b506040513d6000823e3d90fd5b603580546001600160a01b039283166001600160a01b03199182168117909255604051630774f5f560e21b8152909291602090829060049082905afa9081156118d1575b600091611894575b5016906034541617603455565b906020823d82116118c9575b816118ad6020938361180c565b810103126118c65750516118c08161013f565b38611887565b80fd5b3d91506118a0565b6118d961182e565b61187f565b51906114d68261013f565b9081602091031261000e57516118fe8161013f565b90565b604051906101c0820182811067ffffffffffffffff8211176117ff57604052565b60405190610160820182811067ffffffffffffffff821117611988575b604052816101406000918281528260208201528260408201528260608201528260808201528260a08201528260c08201528260e082015282610100820152826101208201520152565b6119906117cc565b61193f565b90602090818382031261000e57825167ffffffffffffffff9384821161000e570181601f8201121561000e578051938411611a1c575b8360051b90604051946119e08584018761180c565b8552838086019282010192831161000e578301905b828210611a03575050505090565b8380918351611a118161013f565b8152019101906119f5565b611a246117cc565b6119cb565b50634e487b7160e01b600052601160045260246000fd5b6001906000198114611a50570190565b611a58611a29565b0190565b8051821015611a705760209160051b010190565b634e487b7160e01b600052603260045260246000fd5b51906114d6826109d9565b919082608091031261000e57815191602081015191606060408301519201516118fe816109d9565b604d8111611ac8575b600a0a90565b611ad0611a29565b611ac2565b9081602091031261000e575190565b906004600080600090600092600080916020611b0a61018860355460018060a01b031690565b604051631f94a27560e31b815298899182905afa968715611f6c575b600097611f4b575b50611b37611922565b603454909790611b4f906001600160a01b0316610188565b604051630240bc6b60e21b8152600081600481855afa908115611f3e575b600091611f1b575b5060005b8151811015611eba578a611bed60808f611bb7611ba6611b998789611a5c565b516001600160a01b031690565b6001600160a01b0316610140860152565b61014084015160405163e10076ad60e01b81526001600160a01b0391821660048201529116602482015291829081906044820190565b0381885afa908115611ead575b600090600092600091600091611e82575b5015156101208501525b60e0840152816060840152806040840152159081611e79575b50611e6f576101400151604051635fc526ff60e01b81526001600160a01b039091166004820152611c9f90608081602481885afa8015611e62575b8d600091600090600090600090611e34575b1515610100840152929350839260809291905b60c083015260a08201520152611ab9565b60208c01528a611ce76020611cbe61014084015160018060a01b031690565b60405163b3596f0760e01b81526001600160a01b03909116600482015291829081906024820190565b03816001600160a01b038a165afa908115611e27575b600091611e08575b50808252604082015180611d7e575b5050606081015180611d31575b5050611d2c90611a40565b611b79565b611d2c929b9a611d57836020611d4e611d5d95611d749751611fa7565b91015190611fba565b90611f79565b99611d578d6020611d4e60e0830151835190611fa7565b9990508a38611d21565b611d8e611d9991611da093611fa7565b602084015190611fba565b8097611f79565b95611daf610100830151151590565b80611dfa575b611dc0575b80611d14565b8060c0611de9611dda611d5794611df2979d969c9e611f79565b9c611d5760a08d015185611fa7565b99015190611fa7565b958a38611dba565b506101208201511515611db5565b611e21915060203d6020116102e5576102d6818361180c565b38611d05565b611e2f61182e565b611cfd565b50505090506080611e54611c8e93823d84116113bc576113a8818361180c565b929550859493509091611c7b565b611e6a61182e565b611c69565b50611d2c90611a40565b90501538611c2e565b915050611c159250611ea3915060803d6080116113bc576113a8818361180c565b9193909190611c0b565b611eb561182e565b611bfa565b505050509750929450949094858015159384600014611f135781611edd91611fba565b9315611f0957611eec91611fba565b905b611efa82858789612298565b90670de0b6b3a7640000821090565b5050600090611eee565b506000611edd565b611f3891503d806000833e611f30818361180c565b810190611995565b38611b75565b611f4661182e565b611b6d565b611f6591975060203d60201161031f57610311818361180c565b9538611b2e565b611f7461182e565b611b26565b81198111611a50570190565b6064908060001904821181151516611f9b570290565b611fa3611a29565b0290565b8060001904821181151516611f9b570290565b8115611fc4570490565b634e487b7160e01b600052601260045260246000fd5b9081602091031261000e57516118fe816109d9565b9190611ff9611922565b603454909290612011906001600160a01b0316610188565b604051635fc526ff60e01b81526001600160a01b03861660048201529290608084602481845afa8015612274575b600080958192612246575b50612077916120739160a08901976120696101408b0193849015159052565b8852885251151590565b1590565b9081156121d1575b506121c75761208d90611ae4565b505096939592989194505060209182880198604089019660608a019660808b01998a5287528188528a52156121b957826120df8161210394600461210d976101f361018860355460018060a01b031690565b03916001600160a01b03165afa9182156121ac575b60009261218f575b5050611fa7565b61027e8751611ab9565b9461212060c08201968088528851612281565b9160e0820192808452156121825761216661217e9761216061216e936121566101009a670de0b6b3a76400009d51905190611fa7565b9251905190611fa7565b90612281565b835190611fba565b9485910152519151905191612298565b1190565b5050505050505050600090565b6121a59250803d106102e5576102d6818361180c565b38806120fc565b6121b461182e565b6120f4565b505050505050505050600190565b5050505050600190565b604051639e3c4f3b60e01b81526001600160a01b038881166004830152841660248201529150602090829060449082905afa908115612239575b60009161221b575b50153861207f565b612233915060203d811161070e576106fe818361180c565b38612213565b61224161182e565b61220b565b61207396506120779250612268915060803d81116113bc576113a8818361180c565b9097909350905061204a565b61227c61182e565b61203f565b81811061228c570390565b612294611a29565b0390565b9290919282156122f1576118fe9360646122b86102a6946122bf94611fa7565b0493611f79565b91670de0b6b3a76400009080600019048211811515166122e4575b028260011c611f79565b6122ec611a29565b6122da565b5050505060001990565b604051906101c0820182811067ffffffffffffffff821117612376575b604052816101a06000918281528260208201528260408201528260608201528260808201528260a08201528260c08201528260e082015282610100820152826101208201528261014082015282610160820152826101808201520152565b61237e6117cc565b612318565b90816101c091031261000e57612397611901565b906123a181611a86565b82526123af602082016118de565b60208301526123c0604082016118de565b60408301526123d1606082016118de565b6060830152608081015160808301526123ec60a082016118de565b60a083015260c081015160c083015260e081015160e08301526101008082015190830152610120808201519083015261014080820151908301526101608082015190830152610180808201519083015261244a6101a0809201611a86565b9082015290565b6040519061245e826117e3565b600b82526a1b5b34326d25731b5b306d60a81b6020830152565b60405190612485826117e3565b601f82527f20203d3e204c42445020636f6c6c61746572616c42616c616e636545544820006020830152565b604051906124be826117e3565b601b82527f20203d3e204c42445020626f72726f7742616c616e63654554482000000000006020830152565b604051906124f7826117e3565b601882527f20203d3e204c42445020736572766963654665654554482000000000000000006020830152565b604051906060820182811067ffffffffffffffff821117612580575b60405260298252680343932b9b437b632160bd1b6040837f20203d3e204c42445020636f6c6c61746572616c4c69717569646174696f6e5460208201520152565b6125886117cc565b61253f565b6040519061259a826117e3565b602082527f20203d3e204c4244502070726f706f6f73616c4865616c7468466163746f72206020830152565b906125cf6122fb565b506035546125e5906001600160a01b0316610188565b9160409081518094631f94a27560e31b825281600460209788935afa908115612a38575b600091612a1b575b506034546000946001600160a01b039283169290916126309116610188565b8451632ea37ca760e01b815260048101949094529015156024840152916101c0908181604481875afa918215612a0e575b86926129f1575b505061010081015142116129e65760a08101805187830151865163e10076ad60e01b81526001600160a01b0392831660048201529116602482015260809691949091879189908385604481845afa9485156129d9575b83956129b7575b5087518951635fc526ff60e01b8082526001600160a01b03909216600482015298909390858a602481865afa998a156129aa575b8290839b612978575b50906127118995949392611ab9565b90518c5163b3596f0760e01b8082526001600160a01b03909216600482015290989085816024818f5afa90811561296b575b849161294e575b5081156129185761275c929350611fa7565b9061276691611fba565b9a61280d670de0b6b3a76400009d6128979c6128879b6128779a6127d66127bc6128409c6127e89c60606102a69d5b01805188519283526001600160a01b031660048301529a9092839190829081906024820190565b03915afa90811561290b575b6000916128eb575b50611ab9565b965196998a976001600160a01b031690565b92519081526001600160a01b0390921660048301529092839190829081906024820190565b03915afa9384156128de575b6000946128af575b5050610140916102a6612837928a015185611fa7565b96015190611fa7565b916128676128508685848b612298565b97612859612451565b612861612478565b90612c16565b61286f612451565b6128616124b1565b61287f612451565b6128616124ea565b61288f612451565b612861612523565b6128ab816128a3612451565b61286161258d565b1090565b6128379294506128d36101409492826102a693903d106102e5576102d6818361180c565b949250819350612821565b6128e661182e565b612819565b6129029150883d8a116113bc576113a8818361180c565b505050386127d0565b61291361182e565b6127c8565b5050509a61280d670de0b6b3a76400009d6128979c6128879b6128779a6127d66127bc6128409c6127e89c60606102a69d612795565b6129659150863d88116102e5576102d6818361180c565b3861274a565b61297361182e565b612743565b6127119b508995949392915061299a90883d8a116113bc576113a8818361180c565b509c919050919293949550612702565b6129b261182e565b6126f9565b6129cf919550843d86116113bc576113a8818361180c565b50505093386126c5565b6129e161182e565b6126be565b505050505050600190565b612a079250803d1061161157611602818361180c565b3880612668565b612a1661182e565b612661565b612a329150853d871161031f57610311818361180c565b38612611565b612a4061182e565b612609565b9081602091031261000e575164ffffffffff8116810361000e5790565b612a779193612a7091611fa7565b6064900490565b828110612b6a57612160612a8e926118fe94611f79565b603554612aa3906001600160a01b0316610188565b906040518092633efbbf0f60e21b825281600460209586935afa908115612b5d575b600091612b40575b50604051630e563a7d60e41b815233600482015260248101839052908390829060449082906001600160a01b03165afa928315612b33575b600093612b14575b5050612281565b612b2b929350803d106102e5576102d6818361180c565b903880612b0d565b612b3b61182e565b612b05565b612b579150833d851161031f57610311818361180c565b38612acd565b612b6561182e565b612ac5565b505050600090565b9081602091031261000e5751600381101561000e5790565b9081606091031261000e578051916040602083015192015190565b60031115612baf57565b634e487b7160e01b600052602160045260246000fd5b91908251928382526000905b848210612bfe575092806020939411612bf1575b601f01601f1916010190565b6000838284010152612be5565b90602090818082850101519082860101520190612bd1565b612c5d612c71600094938594604051938492612c4b6020850197635821efa160e01b8952606060248701526084860190612bc5565b84810360231901604486015290612bc5565b90606483015203601f19810183528261180c565b51906a636f6e736f6c652e6c6f675afa5056fea2646970667358221220154aef6f68a476d91ac9a24b66005cd2ee482cc8dd174d3c1a71895acd43448664736f6c634300080d0033",
  "linkReferences": {},
  "deployedLinkReferences": {}
}