{
  "_format": "hh-sol-artifact-1",
  "contractName": "UintStorage",
  "sourceName": "contracts/configuration/UintStorage.sol",
  "abi": [
    {
      "inputs": [
        {
          "internalType": "bytes32",
          "name": "_key",
          "type": "bytes32"
        }
      ],
      "name": "getUint",
      "outputs": [
        {
          "internalType": "uint256",
          "name": "",
          "type": "uint256"
        }
      ],
      "stateMutability": "view",
      "type": "function"
    }
  ],
  "bytecode": "0x608080604052346014576085908161001a8239f35b600080fdfe6080806040526004361015601257600080fd5b600090813560e01c63bd02d0f51460295750600080fd5b34604b576020366003190112604b576040602092600435815280845220548152f35b5080fdfea2646970667358221220869151dad7d3d22e976365bbae0f476905fc12723b6d31ef9cbee7bcbeefa20964736f6c634300080d0033",
  "linkReferences": {},
  "deployedLinkReferences": {}
}