{
  "_format": "hh-sol-artifact-1",
  "contractName": "FeeProvider",
  "sourceName": "contracts/fees/FeeProvider.sol",
  "abi": [
    {
      "inputs": [],
      "name": "FEE_PROVIDER_REVISION",
      "outputs": [
        {
          "internalType": "uint256",
          "name": "",
          "type": "uint256"
        }
      ],
      "stateMutability": "view",
      "type": "function"
    },
    {
      "inputs": [
        {
          "internalType": "address",
          "name": "_user",
          "type": "address"
        },
        {
          "internalType": "uint256",
          "name": "_amount",
          "type": "uint256"
        }
      ],
      "name": "calculateLoanOriginationFee",
      "outputs": [
        {
          "internalType": "uint256",
          "name": "",
          "type": "uint256"
        }
      ],
      "stateMutability": "view",
      "type": "function"
    },
    {
      "inputs": [],
      "name": "getLoanOriginationFeePercentage",
      "outputs": [
        {
          "internalType": "uint256",
          "name": "",
          "type": "uint256"
        }
      ],
      "stateMutability": "view",
      "type": "function"
    },
    {
      "inputs": [
        {
          "internalType": "address",
          "name": "_addressesProvider",
          "type": "address"
        }
      ],
      "name": "initialize",
      "outputs": [],
      "stateMutability": "nonpayable",
      "type": "function"
    },
    {
      "inputs": [],
      "name": "originationFeePercentage",
      "outputs": [
        {
          "internalType": "uint256",
          "name": "",
          "type": "uint256"
        }
      ],
      "stateMutability": "view",
      "type": "function"
    }
  ],
  "bytecode": "0x6080806040523461001a57600080556102a590816100208239f35b600080fdfe608080604052600436101561001357600080fd5b6000803560e01c9182639403ed3a1461009757508163b0d73d4e1461007957508063c211f9a414610070578063c4d66de8146100675763e563a7d01461005a575b38600080fd5b6100626101e3565b610054565b506100626100ef565b506100626100b5565b34610094578060031936011261009457602060405160018152f35b80fd5b346100b157816003193601126100b1576020906034548152f35b5080fd5b50346100d45760003660031901126100d4576020603454604051908152f35b600080fd5b600435906001600160a01b03821682036100d457565b50346100d45760203660031901126100d4576101096100d9565b5060ff60015416801590816101da575b80156101ce575b156101725780610152575b61013b6608e1bc9bf04000603455565b61014157005b61015060ff1960015416600155565b005b610163600160ff1981541617600155565b61016d6001600055565b61012b565b60405162461bcd60e51b815260206004820152602e60248201527f436f6e747261637420696e7374616e63652068617320616c726561647920626560448201526d195b881a5b9a5d1a585b1a5e995960921b6064820152608490fd5b50600054600111610120565b50303b15610119565b50346100d45760403660031901126100d4576101fd6100d9565b50602060243560345490806000190482118115151661024b575b02670de0b6b3a76400006706f05b59d3b20000918019831161023e575b6040519201048152f35b610246610258565b610234565b610253610258565b610217565b50634e487b7160e01b600052601160045260246000fdfea264697066735822122066f89b311fd4b24b5441a512df1ab9a48fb07720763426c3542d49be731dea8764736f6c634300080d0033",
  "linkReferences": {},
  "deployedLinkReferences": {}
}