{
  "_format": "hh-sol-artifact-1",
  "contractName": "LendingBoardProposeMode",
  "sourceName": "contracts/lendingboard/LendingBoardProposeMode.sol",
  "abi": [
    {
      "anonymous": false,
      "inputs": [
        {
          "indexed": true,
          "internalType": "address",
          "name": "_reserve",
          "type": "address"
        },
        {
          "indexed": true,
          "internalType": "address",
          "name": "_user",
          "type": "address"
        },
        {
          "indexed": false,
          "internalType": "uint256",
          "name": "_amount",
          "type": "uint256"
        },
        {
          "indexed": false,
          "internalType": "uint256",
          "name": "_borrowRateMode",
          "type": "uint256"
        },
        {
          "indexed": false,
          "internalType": "uint256",
          "name": "_borrowRate",
          "type": "uint256"
        },
        {
          "indexed": false,
          "internalType": "uint256",
          "name": "_originationFee",
          "type": "uint256"
        },
        {
          "indexed": false,
          "internalType": "uint256",
          "name": "_borrowBalanceIncrease",
          "type": "uint256"
        },
        {
          "indexed": false,
          "internalType": "uint256",
          "name": "_timestamp",
          "type": "uint256"
        }
      ],
      "name": "Borrow",
      "type": "event"
    },
    {
      "anonymous": false,
      "inputs": [
        {
          "indexed": true,
          "internalType": "address",
          "name": "_reserveToLend",
          "type": "address"
        },
        {
          "indexed": true,
          "internalType": "address",
          "name": "_lender",
          "type": "address"
        },
        {
          "indexed": false,
          "internalType": "address",
          "name": "_borrower",
          "type": "address"
        },
        {
          "indexed": true,
          "internalType": "uint256",
          "name": "_proposalId",
          "type": "uint256"
        },
        {
          "indexed": false,
          "internalType": "uint256",
          "name": "_amount",
          "type": "uint256"
        },
        {
          "indexed": false,
          "internalType": "uint256",
          "name": "_originationFee",
          "type": "uint256"
        },
        {
          "indexed": false,
          "internalType": "uint256",
          "name": "_timestamp",
          "type": "uint256"
        }
      ],
      "name": "BorrowAccepted",
      "type": "event"
    },
    {
      "anonymous": false,
      "inputs": [
        {
          "indexed": true,
          "internalType": "address",
          "name": "_reserveToBorrow",
          "type": "address"
        },
        {
          "indexed": true,
          "internalType": "address",
          "name": "_borrowProposer",
          "type": "address"
        },
        {
          "indexed": true,
          "internalType": "uint256",
          "name": "_proposalId",
          "type": "uint256"
        },
        {
          "indexed": false,
          "internalType": "uint256",
          "name": "_amount",
          "type": "uint256"
        },
        {
          "indexed": false,
          "internalType": "address",
          "name": "_reserveForCollateral",
          "type": "address"
        },
        {
          "indexed": false,
          "internalType": "uint256",
          "name": "_interestRate",
          "type": "uint256"
        },
        {
          "indexed": false,
          "internalType": "uint256",
          "name": "_originationFee",
          "type": "uint256"
        },
        {
          "indexed": false,
          "internalType": "uint256",
          "name": "_dueDate",
          "type": "uint256"
        },
        {
          "indexed": false,
          "internalType": "uint256",
          "name": "_timestamp",
          "type": "uint256"
        }
      ],
      "name": "BorrowProposed",
      "type": "event"
    },
    {
      "anonymous": false,
      "inputs": [
        {
          "indexed": true,
          "internalType": "address",
          "name": "_reserve",
          "type": "address"
        },
        {
          "indexed": true,
          "internalType": "address",
          "name": "_user",
          "type": "address"
        },
        {
          "indexed": false,
          "internalType": "uint256",
          "name": "_amount",
          "type": "uint256"
        },
        {
          "indexed": false,
          "internalType": "uint256",
          "name": "_timestamp",
          "type": "uint256"
        }
      ],
      "name": "Deposit",
      "type": "event"
    },
    {
      "anonymous": false,
      "inputs": [
        {
          "indexed": true,
          "internalType": "address",
          "name": "_reserveToLend",
          "type": "address"
        },
        {
          "indexed": true,
          "internalType": "address",
          "name": "_lender",
          "type": "address"
        },
        {
          "indexed": false,
          "internalType": "address",
          "name": "_borrower",
          "type": "address"
        },
        {
          "indexed": true,
          "internalType": "uint256",
          "name": "_proposalId",
          "type": "uint256"
        },
        {
          "indexed": false,
          "internalType": "uint256",
          "name": "_amount",
          "type": "uint256"
        },
        {
          "indexed": false,
          "internalType": "uint256",
          "name": "_originationFee",
          "type": "uint256"
        },
        {
          "indexed": false,
          "internalType": "uint256",
          "name": "_timestamp",
          "type": "uint256"
        }
      ],
      "name": "LendAccepted",
      "type": "event"
    },
    {
      "anonymous": false,
      "inputs": [
        {
          "indexed": true,
          "internalType": "address",
          "name": "_reserveToLend",
          "type": "address"
        },
        {
          "indexed": true,
          "internalType": "address",
          "name": "_lendProposer",
          "type": "address"
        },
        {
          "indexed": true,
          "internalType": "uint256",
          "name": "_proposalId",
          "type": "uint256"
        },
        {
          "indexed": false,
          "internalType": "uint256",
          "name": "_amount",
          "type": "uint256"
        },
        {
          "indexed": false,
          "internalType": "uint256",
          "name": "_interestRate",
          "type": "uint256"
        },
        {
          "indexed": false,
          "internalType": "uint256",
          "name": "_originationFee",
          "type": "uint256"
        },
        {
          "indexed": false,
          "internalType": "uint256",
          "name": "_dueDate",
          "type": "uint256"
        },
        {
          "indexed": false,
          "internalType": "uint256",
          "name": "_proposalTimeStamp",
          "type": "uint256"
        }
      ],
      "name": "LendProposed",
      "type": "event"
    },
    {
      "anonymous": false,
      "inputs": [
        {
          "indexed": true,
          "internalType": "address",
          "name": "_collateral",
          "type": "address"
        },
        {
          "indexed": true,
          "internalType": "address",
          "name": "_reserve",
          "type": "address"
        },
        {
          "indexed": true,
          "internalType": "address",
          "name": "_user",
          "type": "address"
        },
        {
          "indexed": false,
          "internalType": "uint256",
          "name": "_purchaseAmount",
          "type": "uint256"
        },
        {
          "indexed": false,
          "internalType": "uint256",
          "name": "_liquidatedCollateralAmount",
          "type": "uint256"
        },
        {
          "indexed": false,
          "internalType": "uint256",
          "name": "_accruedBorrowInterest",
          "type": "uint256"
        },
        {
          "indexed": false,
          "internalType": "address",
          "name": "_liquidator",
          "type": "address"
        },
        {
          "indexed": false,
          "internalType": "bool",
          "name": "_receiveAToken",
          "type": "bool"
        },
        {
          "indexed": false,
          "internalType": "uint256",
          "name": "_timestamp",
          "type": "uint256"
        }
      ],
      "name": "LiquidationCall",
      "type": "event"
    },
    {
      "anonymous": false,
      "inputs": [
        {
          "indexed": true,
          "internalType": "address",
          "name": "_collateral",
          "type": "address"
        },
        {
          "indexed": true,
          "internalType": "address",
          "name": "_reserve",
          "type": "address"
        },
        {
          "indexed": true,
          "internalType": "address",
          "name": "_user",
          "type": "address"
        },
        {
          "indexed": false,
          "internalType": "uint256",
          "name": "_feeLiquidated",
          "type": "uint256"
        },
        {
          "indexed": false,
          "internalType": "uint256",
          "name": "_liquidatedCollateralForFee",
          "type": "uint256"
        },
        {
          "indexed": false,
          "internalType": "uint256",
          "name": "_timestamp",
          "type": "uint256"
        }
      ],
      "name": "OriginationFeeLiquidated",
      "type": "event"
    },
    {
      "anonymous": false,
      "inputs": [
        {
          "indexed": true,
          "internalType": "address",
          "name": "_reserveToReceive",
          "type": "address"
        },
        {
          "indexed": true,
          "internalType": "address",
          "name": "_lender",
          "type": "address"
        },
        {
          "indexed": false,
          "internalType": "address",
          "name": "_reserveForCollateral",
          "type": "address"
        },
        {
          "indexed": false,
          "internalType": "address",
          "name": "_borrower",
          "type": "address"
        },
        {
          "indexed": true,
          "internalType": "uint256",
          "name": "_proposalId",
          "type": "uint256"
        },
        {
          "indexed": false,
          "internalType": "uint256",
          "name": "_amount",
          "type": "uint256"
        },
        {
          "indexed": false,
          "internalType": "bool",
          "name": "_isBorrowProposal",
          "type": "bool"
        },
        {
          "indexed": false,
          "internalType": "uint256",
          "name": "_originationFee",
          "type": "uint256"
        },
        {
          "indexed": false,
          "internalType": "uint256",
          "name": "_timestamp",
          "type": "uint256"
        }
      ],
      "name": "ProposalAccepted",
      "type": "event"
    },
    {
      "anonymous": false,
      "inputs": [
        {
          "indexed": true,
          "internalType": "address",
          "name": "_reserve",
          "type": "address"
        },
        {
          "indexed": true,
          "internalType": "address",
          "name": "_user",
          "type": "address"
        },
        {
          "indexed": false,
          "internalType": "uint256",
          "name": "_amount",
          "type": "uint256"
        },
        {
          "indexed": false,
          "internalType": "uint256",
          "name": "_timestamp",
          "type": "uint256"
        }
      ],
      "name": "RedeemUnderlying",
      "type": "event"
    },
    {
      "anonymous": false,
      "inputs": [
        {
          "indexed": true,
          "internalType": "address",
          "name": "_reserve",
          "type": "address"
        },
        {
          "indexed": true,
          "internalType": "address",
          "name": "_user",
          "type": "address"
        },
        {
          "indexed": true,
          "internalType": "address",
          "name": "_repayer",
          "type": "address"
        },
        {
          "indexed": false,
          "internalType": "uint256",
          "name": "_paybackAmount",
          "type": "uint256"
        },
        {
          "indexed": false,
          "internalType": "uint256",
          "name": "_fees",
          "type": "uint256"
        },
        {
          "indexed": false,
          "internalType": "uint256",
          "name": "_borrowBalanceIncrease",
          "type": "uint256"
        },
        {
          "indexed": false,
          "internalType": "uint256",
          "name": "_timestamp",
          "type": "uint256"
        }
      ],
      "name": "Repay",
      "type": "event"
    },
    {
      "anonymous": false,
      "inputs": [
        {
          "indexed": true,
          "internalType": "address",
          "name": "_reserve",
          "type": "address"
        },
        {
          "indexed": true,
          "internalType": "address",
          "name": "_user",
          "type": "address"
        }
      ],
      "name": "ReserveUsedAsCollateralDisabled",
      "type": "event"
    },
    {
      "anonymous": false,
      "inputs": [
        {
          "indexed": true,
          "internalType": "address",
          "name": "_reserve",
          "type": "address"
        },
        {
          "indexed": true,
          "internalType": "address",
          "name": "_user",
          "type": "address"
        }
      ],
      "name": "ReserveUsedAsCollateralEnabled",
      "type": "event"
    },
    {
      "inputs": [],
      "name": "LENDINGPOOL_REVISION",
      "outputs": [
        {
          "internalType": "uint256",
          "name": "",
          "type": "uint256"
        }
      ],
      "stateMutability": "view",
      "type": "function"
    },
    {
      "inputs": [],
      "name": "UINT_MAX_VALUE",
      "outputs": [
        {
          "internalType": "uint256",
          "name": "",
          "type": "uint256"
        }
      ],
      "stateMutability": "view",
      "type": "function"
    },
    {
      "inputs": [],
      "name": "addressesProvider",
      "outputs": [
        {
          "internalType": "contract LendingBoardAddressesProvider",
          "name": "",
          "type": "address"
        }
      ],
      "stateMutability": "view",
      "type": "function"
    },
    {
      "inputs": [
        {
          "internalType": "address",
          "name": "_reserveToBorrow",
          "type": "address"
        },
        {
          "internalType": "uint256",
          "name": "_amount",
          "type": "uint256"
        },
        {
          "internalType": "address",
          "name": "_reserveForCollateral",
          "type": "address"
        },
        {
          "internalType": "uint256",
          "name": "_interestRate",
          "type": "uint256"
        },
        {
          "internalType": "uint256",
          "name": "_dueDate",
          "type": "uint256"
        }
      ],
      "name": "borrowProposal",
      "outputs": [],
      "stateMutability": "nonpayable",
      "type": "function"
    },
    {
      "inputs": [
        {
          "internalType": "uint256",
          "name": "_proposalId",
          "type": "uint256"
        }
      ],
      "name": "borrowProposalAccept",
      "outputs": [],
      "stateMutability": "nonpayable",
      "type": "function"
    },
    {
      "inputs": [],
      "name": "core",
      "outputs": [
        {
          "internalType": "contract LendingBoardCore",
          "name": "",
          "type": "address"
        }
      ],
      "stateMutability": "view",
      "type": "function"
    },
    {
      "inputs": [],
      "name": "dataProvider",
      "outputs": [
        {
          "internalType": "contract LendingBoardDataProvider",
          "name": "",
          "type": "address"
        }
      ],
      "stateMutability": "view",
      "type": "function"
    },
    {
      "inputs": [
        {
          "internalType": "address",
          "name": "_reserve",
          "type": "address"
        },
        {
          "internalType": "uint256",
          "name": "_amount",
          "type": "uint256"
        },
        {
          "internalType": "uint16",
          "name": "_referralCode",
          "type": "uint16"
        }
      ],
      "name": "deposit",
      "outputs": [],
      "stateMutability": "payable",
      "type": "function"
    },
    {
      "inputs": [
        {
          "internalType": "uint256",
          "name": "_proposalId",
          "type": "uint256"
        }
      ],
      "name": "getBorrowProposal",
      "outputs": [
        {
          "internalType": "bool",
          "name": "active",
          "type": "bool"
        },
        {
          "internalType": "address",
          "name": "borrower",
          "type": "address"
        },
        {
          "internalType": "address",
          "name": "lender",
          "type": "address"
        },
        {
          "internalType": "address",
          "name": "reserveToBorrow",
          "type": "address"
        },
        {
          "internalType": "uint256",
          "name": "amount",
          "type": "uint256"
        },
        {
          "internalType": "address",
          "name": "reserveForCollateral",
          "type": "address"
        },
        {
          "internalType": "uint256",
          "name": "collateralAmount",
          "type": "uint256"
        },
        {
          "internalType": "uint256",
          "name": "interestRate",
          "type": "uint256"
        },
        {
          "internalType": "uint256",
          "name": "dueDate",
          "type": "uint256"
        },
        {
          "internalType": "uint256",
          "name": "proposalDate",
          "type": "uint256"
        },
        {
          "internalType": "uint256",
          "name": "ltv",
          "type": "uint256"
        },
        {
          "internalType": "uint256",
          "name": "tokenId",
          "type": "uint256"
        },
        {
          "internalType": "bool",
          "name": "isRepayed",
          "type": "bool"
        }
      ],
      "stateMutability": "view",
      "type": "function"
    },
    {
      "inputs": [
        {
          "internalType": "uint256",
          "name": "_startIdx",
          "type": "uint256"
        },
        {
          "internalType": "uint256",
          "name": "_endIdx",
          "type": "uint256"
        }
      ],
      "name": "getBorrowProposalList",
      "outputs": [
        {
          "components": [
            {
              "internalType": "bool",
              "name": "active",
              "type": "bool"
            },
            {
              "internalType": "address",
              "name": "borrower",
              "type": "address"
            },
            {
              "internalType": "address",
              "name": "lender",
              "type": "address"
            },
            {
              "internalType": "address",
              "name": "reserveToReceive",
              "type": "address"
            },
            {
              "internalType": "uint256",
              "name": "amount",
              "type": "uint256"
            },
            {
              "internalType": "address",
              "name": "reserveForCollateral",
              "type": "address"
            },
            {
              "internalType": "uint256",
              "name": "collateralAmount",
              "type": "uint256"
            },
            {
              "internalType": "uint256",
              "name": "interestRate",
              "type": "uint256"
            },
            {
              "internalType": "uint256",
              "name": "dueDate",
              "type": "uint256"
            },
            {
              "internalType": "uint256",
              "name": "proposalDate",
              "type": "uint256"
            },
            {
              "internalType": "uint256",
              "name": "serviceFee",
              "type": "uint256"
            },
            {
              "internalType": "uint256",
              "name": "ltv",
              "type": "uint256"
            },
            {
              "internalType": "uint256",
              "name": "tokenId",
              "type": "uint256"
            },
            {
              "internalType": "bool",
              "name": "isRepayed",
              "type": "bool"
            }
          ],
          "internalType": "struct CoreLibrary.ProposalStructure[]",
          "name": "result",
          "type": "tuple[]"
        }
      ],
      "stateMutability": "view",
      "type": "function"
    },
    {
      "inputs": [
        {
          "internalType": "uint256",
          "name": "_proposalId",
          "type": "uint256"
        }
      ],
      "name": "getLendProposal",
      "outputs": [
        {
          "internalType": "bool",
          "name": "active",
          "type": "bool"
        },
        {
          "internalType": "address",
          "name": "lender",
          "type": "address"
        },
        {
          "internalType": "address",
          "name": "reserveToLend",
          "type": "address"
        },
        {
          "internalType": "uint256",
          "name": "amount",
          "type": "uint256"
        },
        {
          "internalType": "address",
          "name": "reserveForCollateral",
          "type": "address"
        },
        {
          "internalType": "uint256",
          "name": "collateralAmount",
          "type": "uint256"
        },
        {
          "internalType": "uint256",
          "name": "interestRate",
          "type": "uint256"
        },
        {
          "internalType": "uint256",
          "name": "dueDate",
          "type": "uint256"
        },
        {
          "internalType": "uint256",
          "name": "proposalDate",
          "type": "uint256"
        },
        {
          "internalType": "uint256",
          "name": "ltv",
          "type": "uint256"
        },
        {
          "internalType": "uint256",
          "name": "tokenId",
          "type": "uint256"
        },
        {
          "internalType": "bool",
          "name": "isRepayed",
          "type": "bool"
        }
      ],
      "stateMutability": "view",
      "type": "function"
    },
    {
      "inputs": [
        {
          "internalType": "uint256",
          "name": "startIdx",
          "type": "uint256"
        },
        {
          "internalType": "uint256",
          "name": "endIdx",
          "type": "uint256"
        }
      ],
      "name": "getLendProposalList",
      "outputs": [
        {
          "components": [
            {
              "internalType": "bool",
              "name": "active",
              "type": "bool"
            },
            {
              "internalType": "address",
              "name": "borrower",
              "type": "address"
            },
            {
              "internalType": "address",
              "name": "lender",
              "type": "address"
            },
            {
              "internalType": "address",
              "name": "reserveToReceive",
              "type": "address"
            },
            {
              "internalType": "uint256",
              "name": "amount",
              "type": "uint256"
            },
            {
              "internalType": "address",
              "name": "reserveForCollateral",
              "type": "address"
            },
            {
              "internalType": "uint256",
              "name": "collateralAmount",
              "type": "uint256"
            },
            {
              "internalType": "uint256",
              "name": "interestRate",
              "type": "uint256"
            },
            {
              "internalType": "uint256",
              "name": "dueDate",
              "type": "uint256"
            },
            {
              "internalType": "uint256",
              "name": "proposalDate",
              "type": "uint256"
            },
            {
              "internalType": "uint256",
              "name": "serviceFee",
              "type": "uint256"
            },
            {
              "internalType": "uint256",
              "name": "ltv",
              "type": "uint256"
            },
            {
              "internalType": "uint256",
              "name": "tokenId",
              "type": "uint256"
            },
            {
              "internalType": "bool",
              "name": "isRepayed",
              "type": "bool"
            }
          ],
          "internalType": "struct CoreLibrary.ProposalStructure[]",
          "name": "result",
          "type": "tuple[]"
        }
      ],
      "stateMutability": "view",
      "type": "function"
    },
    {
      "inputs": [
        {
          "internalType": "address",
          "name": "_reserve",
          "type": "address"
        }
      ],
      "name": "getReserveConfigurationData",
      "outputs": [
        {
          "internalType": "uint256",
          "name": "ltv",
          "type": "uint256"
        },
        {
          "internalType": "uint256",
          "name": "liquidationThreshold",
          "type": "uint256"
        },
        {
          "internalType": "uint256",
          "name": "liquidationBonus",
          "type": "uint256"
        },
        {
          "internalType": "address",
          "name": "interestRateStrategyAddress",
          "type": "address"
        },
        {
          "internalType": "bool",
          "name": "usageAsCollateralEnabled",
          "type": "bool"
        },
        {
          "internalType": "bool",
          "name": "borrowingEnabled",
          "type": "bool"
        },
        {
          "internalType": "bool",
          "name": "stableBorrowRateEnabled",
          "type": "bool"
        },
        {
          "internalType": "bool",
          "name": "isActive",
          "type": "bool"
        }
      ],
      "stateMutability": "view",
      "type": "function"
    },
    {
      "inputs": [
        {
          "internalType": "address",
          "name": "_reserve",
          "type": "address"
        }
      ],
      "name": "getReserveData",
      "outputs": [
        {
          "internalType": "uint256",
          "name": "totalLiquidity",
          "type": "uint256"
        },
        {
          "internalType": "uint256",
          "name": "availableLiquidity",
          "type": "uint256"
        },
        {
          "internalType": "uint256",
          "name": "totalBorrowsStable",
          "type": "uint256"
        },
        {
          "internalType": "uint256",
          "name": "totalBorrowsVariable",
          "type": "uint256"
        },
        {
          "internalType": "uint256",
          "name": "liquidityRate",
          "type": "uint256"
        },
        {
          "internalType": "uint256",
          "name": "variableBorrowRate",
          "type": "uint256"
        },
        {
          "internalType": "uint256",
          "name": "stableBorrowRate",
          "type": "uint256"
        },
        {
          "internalType": "uint256",
          "name": "averageStableBorrowRate",
          "type": "uint256"
        },
        {
          "internalType": "uint256",
          "name": "utilizationRate",
          "type": "uint256"
        },
        {
          "internalType": "uint256",
          "name": "liquidityIndex",
          "type": "uint256"
        },
        {
          "internalType": "uint256",
          "name": "variableBorrowIndex",
          "type": "uint256"
        },
        {
          "internalType": "address",
          "name": "aTokenAddress",
          "type": "address"
        },
        {
          "internalType": "uint40",
          "name": "lastUpdateTimestamp",
          "type": "uint40"
        }
      ],
      "stateMutability": "view",
      "type": "function"
    },
    {
      "inputs": [],
      "name": "getReserves",
      "outputs": [
        {
          "internalType": "address[]",
          "name": "",
          "type": "address[]"
        }
      ],
      "stateMutability": "view",
      "type": "function"
    },
    {
      "inputs": [
        {
          "internalType": "address",
          "name": "_user",
          "type": "address"
        }
      ],
      "name": "getUserAccountData",
      "outputs": [
        {
          "internalType": "uint256",
          "name": "totalLiquidityETH",
          "type": "uint256"
        },
        {
          "internalType": "uint256",
          "name": "totalCollateralETH",
          "type": "uint256"
        },
        {
          "internalType": "uint256",
          "name": "totalBorrowsETH",
          "type": "uint256"
        },
        {
          "internalType": "uint256",
          "name": "totalFeesETH",
          "type": "uint256"
        },
        {
          "internalType": "uint256",
          "name": "availableBorrowsETH",
          "type": "uint256"
        },
        {
          "internalType": "uint256",
          "name": "currentLiquidationThreshold",
          "type": "uint256"
        },
        {
          "internalType": "uint256",
          "name": "ltv",
          "type": "uint256"
        },
        {
          "internalType": "uint256",
          "name": "healthFactor",
          "type": "uint256"
        }
      ],
      "stateMutability": "view",
      "type": "function"
    },
    {
      "inputs": [
        {
          "internalType": "address",
          "name": "_reserve",
          "type": "address"
        },
        {
          "internalType": "address",
          "name": "_user",
          "type": "address"
        }
      ],
      "name": "getUserReserveBalance",
      "outputs": [
        {
          "internalType": "uint256",
          "name": "",
          "type": "uint256"
        }
      ],
      "stateMutability": "view",
      "type": "function"
    },
    {
      "inputs": [
        {
          "internalType": "address",
          "name": "_reserve",
          "type": "address"
        },
        {
          "internalType": "address",
          "name": "_user",
          "type": "address"
        }
      ],
      "name": "getUserReserveData",
      "outputs": [
        {
          "internalType": "uint256",
          "name": "currentATokenBalance",
          "type": "uint256"
        },
        {
          "internalType": "uint256",
          "name": "currentBorrowBalance",
          "type": "uint256"
        },
        {
          "internalType": "uint256",
          "name": "principalBorrowBalance",
          "type": "uint256"
        },
        {
          "internalType": "uint256",
          "name": "borrowRateMode",
          "type": "uint256"
        },
        {
          "internalType": "uint256",
          "name": "borrowRate",
          "type": "uint256"
        },
        {
          "internalType": "uint256",
          "name": "liquidityRate",
          "type": "uint256"
        },
        {
          "internalType": "uint256",
          "name": "originationFee",
          "type": "uint256"
        },
        {
          "internalType": "uint256",
          "name": "variableBorrowIndex",
          "type": "uint256"
        },
        {
          "internalType": "uint256",
          "name": "lastUpdateTimestamp",
          "type": "uint256"
        },
        {
          "internalType": "bool",
          "name": "usageAsCollateralEnabled",
          "type": "bool"
        }
      ],
      "stateMutability": "view",
      "type": "function"
    },
    {
      "inputs": [
        {
          "internalType": "contract LendingBoardAddressesProvider",
          "name": "_addressesProvider",
          "type": "address"
        }
      ],
      "name": "initialize",
      "outputs": [],
      "stateMutability": "nonpayable",
      "type": "function"
    },
    {
      "inputs": [
        {
          "internalType": "address",
          "name": "_reserveToLend",
          "type": "address"
        },
        {
          "internalType": "uint256",
          "name": "_amount",
          "type": "uint256"
        },
        {
          "internalType": "address",
          "name": "_reserveForCollateral",
          "type": "address"
        },
        {
          "internalType": "uint256",
          "name": "_interestRate",
          "type": "uint256"
        },
        {
          "internalType": "uint256",
          "name": "_dueDate",
          "type": "uint256"
        }
      ],
      "name": "lendProposal",
      "outputs": [],
      "stateMutability": "nonpayable",
      "type": "function"
    },
    {
      "inputs": [
        {
          "internalType": "uint256",
          "name": "_proposalId",
          "type": "uint256"
        }
      ],
      "name": "lendProposalAccept",
      "outputs": [],
      "stateMutability": "nonpayable",
      "type": "function"
    },
    {
      "inputs": [
        {
          "internalType": "address",
          "name": "_collateral",
          "type": "address"
        },
        {
          "internalType": "address",
          "name": "_reserve",
          "type": "address"
        },
        {
          "internalType": "address",
          "name": "_user",
          "type": "address"
        },
        {
          "internalType": "uint256",
          "name": "_purchaseAmount",
          "type": "uint256"
        },
        {
          "internalType": "bool",
          "name": "_receiveAToken",
          "type": "bool"
        }
      ],
      "name": "liquidationCall",
      "outputs": [],
      "stateMutability": "payable",
      "type": "function"
    },
    {
      "inputs": [
        {
          "internalType": "uint256",
          "name": "_proposalId",
          "type": "uint256"
        },
        {
          "internalType": "bool",
          "name": "_isBorrowProposal",
          "type": "bool"
        },
        {
          "internalType": "bool",
          "name": "_receiveAToken",
          "type": "bool"
        }
      ],
      "name": "liquidationCallProposeMode",
      "outputs": [],
      "stateMutability": "payable",
      "type": "function"
    },
    {
      "inputs": [],
      "name": "nft",
      "outputs": [
        {
          "internalType": "contract LendingBoardNFT",
          "name": "",
          "type": "address"
        }
      ],
      "stateMutability": "view",
      "type": "function"
    },
    {
      "inputs": [],
      "name": "parametersProvider",
      "outputs": [
        {
          "internalType": "contract LendingBoardParametersProvider",
          "name": "",
          "type": "address"
        }
      ],
      "stateMutability": "view",
      "type": "function"
    },
    {
      "inputs": [
        {
          "internalType": "address",
          "name": "_reserve",
          "type": "address"
        },
        {
          "internalType": "address payable",
          "name": "_user",
          "type": "address"
        },
        {
          "internalType": "uint256",
          "name": "_amount",
          "type": "uint256"
        },
        {
          "internalType": "uint256",
          "name": "_aTokenBalanceAfterRedeem",
          "type": "uint256"
        }
      ],
      "name": "redeemUnderlying",
      "outputs": [],
      "stateMutability": "nonpayable",
      "type": "function"
    },
    {
      "inputs": [
        {
          "internalType": "uint256",
          "name": "_proposalId",
          "type": "uint256"
        },
        {
          "internalType": "bool",
          "name": "_isBorrowProposal",
          "type": "bool"
        }
      ],
      "name": "repay",
      "outputs": [],
      "stateMutability": "payable",
      "type": "function"
    },
    {
      "inputs": [
        {
          "internalType": "address",
          "name": "_reserve",
          "type": "address"
        },
        {
          "internalType": "bool",
          "name": "_useAsCollateral",
          "type": "bool"
        }
      ],
      "name": "setUserUseReserveAsCollateral",
      "outputs": [],
      "stateMutability": "nonpayable",
      "type": "function"
    }
  ],
  "bytecode": "0x6080806040523461003057600160008181559055603b80546001600160a01b0319169055615b5a9081620000368239f35b600080fdfe60806040526004361015610013575b600080fd5b60003560e01c8062a718a9146102425780630902f1ac1461023957806328dd2d011461023057806335ea6a75146102275780633815d34c1461021e5780633cedf2df146102155780633e1501411461020c57806347ccca021461020357806348f163ea146101fa57806358707e06146101f15780635a3b74b9146101e857806379cc211e146101df5780638afaff02146101d65780638fabf76d146101cd5780639895e3d8146101c45780639a91fe9b146101bb578063a429bcaa146101b2578063ab1e8a21146101a9578063b334ed86146101a0578063ba0b362314610197578063bf92857c1461018e578063c0c8ab6514610185578063c4d66de81461017c578063c72c4d1014610173578063d0fc81d21461016a578063d2d0e06614610161578063d548d930146101585763f2f4eb261461015057600080fd5b61000e61318d565b5061000e61308e565b5061000e612dad565b5061000e612d8f565b5061000e612d65565b5061000e612c76565b5061000e612aba565b5061000e612996565b5061000e6121c4565b5061000e61219a565b5061000e6120b9565b5061000e611f76565b5061000e611967565b5061000e6118a8565b5061000e611231565b5061000e6111e0565b5061000e61104b565b5061000e610d66565b5061000e610d3c565b5061000e610c56565b5061000e610c2c565b5061000e610b21565b5061000e610aff565b5061000e61096d565b5061000e6106b6565b5061000e6105ca565b5061000e610491565b5061000e610266565b6001600160a01b0381160361000e57565b8015150361000e57565b5060a036600319011261000e5760043561027f8161024b565b60243561028b8161024b565b61038b60008060443561029d8161024b565b608435946102aa8661025c565b6102b2613543565b6102bb81615891565b6102c487615891565b6035546102e1906001600160a01b03165b6001600160a01b031690565b91604051968793632bd7cfb760e11b855284600460209a8b935afa938415610435575b8594610402575b5060405162a718a960e01b8982019081526001600160a01b039a8b166024830152938a166044820152989091166064808a0191909152356084890152151560a48801528660c481015b0396610368601f1998898101835282613227565b51915af461037d610377613e9b565b91613ecb565b828082518301019101613f4c565b9061039c5761039a6001600055565b005b6103fe926103d4926103da6103e69360405195869384016014907302634b8bab4b230ba34b7b7103330b4b632b21d160651b81520190565b90613fb3565b03908101835282613227565b60405162461bcd60e51b815291829160048301613feb565b0390fd5b61035491945061042790893d8b1161042e575b61041f8183613227565b810190613249565b939061030b565b503d610415565b61043d61325e565b610304565b600091031261000e57565b6020908160408183019282815285518094520193019160005b828110610474575050505090565b83516001600160a01b031685529381019392810192600101610466565b503461000e5760008060031936011261058a57603654604051630240bc6b60e21b815291908190839060049082906001600160a01b03165afa908115610595575b80916104eb575b604051806104e7848261044d565b0390f35b90503d8082843e6104fc8184613227565b8201602092838183031261058d5780519067ffffffffffffffff8211610591570181601f8201121561058d5780519061053482614580565b936105426040519586613227565b828552858086019360051b83010193841161058a57508401905b828210610571575050506104e79150386104d9565b848091835161057f8161024b565b81520191019061055c565b80fd5b8280fd5b8380fd5b61059d61325e565b6104d2565b604090600319011261000e576004356105ba8161024b565b906024356105c78161024b565b90565b503461000e576105d9366105a2565b6037546040516328dd2d0160e01b81526001600160a01b039384166004820152918316602483015261014092839183916044918391165afa80156106a9575b6000918283848586918793889589978a99610668575b50604051998a5260208a015260408901526060880152608087015260a086015260c085015260e08401526101008301521515610120820152f35b985050505050505050506106929150823d84116106a2575b61068a8183613227565b810190614058565b979096919592949291903861062e565b503d610680565b6106b161325e565b610618565b503461000e57602036600319011261000e576004356106d48161024b565b6037546040516335ea6a7560e01b81526001600160a01b0392831660048201526101a0929091839183916024918391165afa8015610859575b600090819282838485868791889389958a978b998c9b6107a2575b506104e79b9c9d506040519d8e9d8e9b99979593919d9c9a98969492909d6101a08d019e8d5260208d015260408c015260608b015260808a015260a089015260c088015260e0870152610100860152610120850152610140840152600160a01b600190031661016083015264ffffffffff16906101800152565b9c5050505050505050505050509181813d8311610852575b6107c48183613227565b8101031261084e57805190602081015190604081015192606082015191608081015160a082015160c083015160e08401516101008501519161012086015193610140870151956101806101608901519861081d8a61024b565b01519864ffffffffff8a168a0361084a576104e79b9c9d509b9c99909192939495969798998d9c9b610728565b8d80fd5b5080fd5b503d6107ba565b61086161325e565b61070d565b80511515825261092291906020818101516001600160a01b0316908301526040818101516001600160a01b0316908301526060818101516001600160a01b0316908301526080818101519083015260a0808201516001600160a01b03169083015260c081015160c083015260e081015160e0830152610100808201519083015261012080820151908301526101408082015190830152610160808201519083015261018080820151908301526101a08091015191019015159052565b565b6020908160408183019282815285518094520193019160005b82811061094b575050505090565b90919293826101c0826109616001948951610866565b0195019392910161093d565b503461000e5760408060031936011261000e576036546004906024359082359061099f906001600160a01b03166102d5565b8451630531044160e31b81526109cf906020818781865afa908115610af2575b600091610ac4575b5084106144ce565b6109f66109e46109df8486613dab565b613d83565b6109f16107d08210614529565b6145a7565b936000925b84811115610a10578651806104e78882610924565b8651632ea37ca760e01b8152828101828152600160208201526101c09591908690829081906040010381885afa958615610ab7575b600096610a7e575b505090610a7382610a61610a7994916145f7565b96610a6c828b614607565b5288614607565b506145f7565b6109fb565b610a7993929650610a739181610aa892903d10610ab0575b610aa08183613227565b81019061399e565b959192610a4d565b503d610a96565b610abf61325e565b610a45565b610ae5915060203d8111610aeb575b610add8183613227565b810190613534565b386109c7565b503d610ad3565b610afa61325e565b6109bf565b503461000e576020610b19610b13366105a2565b906140a7565b604051908152f35b503461000e57602036600319011261000e57600435610b3f8161024b565b603754604051633e15014160e01b81526001600160a01b039283166004820152610100929091839183916024918391165afa8015610c1f575b600090819282838490859286948796610bda575b50604080519788526020880198909852968601969096526001600160a01b039095166060850152931515608084015292151560a083015291151560c082015290151560e08201526101009150f35b9650505050505050610c069150826104e793903d10610c18575b610bfe8183613227565b8101906142cc565b95978897969591949293929190610b8c565b503d610bf4565b610c2761325e565b610b78565b503461000e57600036600319011261000e57603a546040516001600160a01b039091168152602090f35b503461000e57602036600319011261000e5761039a600435610c7661390b565b50603654610c8c906001600160a01b03166102d5565b604051632ea37ca760e01b815260048101839052600060248201526101c0918290829060449082905afa918215610d2f575b600092610d12575b5050610cdf6001610cd78351151590565b15151461442c565b60608101516001600160a01b031660808201516040830151909390610140906001600160a01b031693015193339261479c565b610d289250803d10610ab057610aa08183613227565b3880610cc6565b610d3761325e565b610cbe565b503461000e57600036600319011261000e576038546040516001600160a01b039091168152602090f35b503461000e5760408060031936011261000e5760043590610d868261024b565b60243591610d938361025c565b610d9b613543565b610da481615891565b610dad81615951565b603654610dc2906001600160a01b03166102d5565b8251630c526de560e11b81526001600160a01b0383166004820152336024820152909390610e8090602090610e6590829081816044818c5afa908115610fc8575b600091610fab575b50610e17811515613dc2565b603754610e2c906001600160a01b03166102d5565b88516376e9d61560e01b81526001600160a01b038916600482015233602482015260448101929092529092839190829081906064820190565b03915afa918215610f9e575b600092610f71575b5050613e36565b833b1561000e578251633e94615360e21b81526001600160a01b0383166004820152336024820152811515604482015260009485908290606490829084905af18015610f64575b610f4b575b508314610f1357815133916001600160a01b0316907e058a56ea94653cdf4f152d227ace22d4c00ad99e2a43f58cb7d9e3feb295f2908590a35b610f106001600055565b51f35b815133916001600160a01b0316907f44c58d81365b66dd4b1a7f36c25aa97b8c71c361ee4937adc1a00000227db5dd908590a3610f06565b80610f58610f5e926131ce565b80610442565b38610ecc565b610f6c61325e565b610ec7565b610f909250803d10610f97575b610f888183613227565b810190613e21565b3880610e79565b503d610f7e565b610fa661325e565b610e71565b610fc29150823d8411610aeb57610add8183613227565b38610e0b565b610fd061325e565b610e03565b9a98969491938b919e9d9c9a989693946101a083019f15158352600160a01b600190039586938480931690602001521660408d01521660608b015260808a01521660a088015260c087015260e0860152610100850152610120840152610140830152610160820152610180016109229115159052565b503461000e57602036600319011261000e576036546110e4906004359061107a906001600160a01b03166102d5565b906110ad604051630531044160e31b8152602081600481875afa9081156111d3575b6000916111b5575b5082111561448c565b6110b561390b565b506040518092632ea37ca760e01b825281806101c0968795600483016020600191939293604081019481520152565b03915afa9182156111a8575b60009261118b575b826111038151151590565b60208201516104e7906001600160a01b031660408401519093906001600160a01b031660608201519091906001600160a01b0316608082015160a08301516001600160a01b031660c084015160e08501519061010086015192610120870151946101608801519661117e6101a06101808b01519a0151151590565b996040519d8e9d8e610fd5565b6111a19250803d10610ab057610aa08183613227565b38806110f8565b6111b061325e565b6110f0565b6111cd915060203d8111610aeb57610add8183613227565b386110a4565b6111db61325e565b61109c565b503461000e57600036600319011261000e57602060405160038152f35b60a090600319011261000e576004356112158161024b565b90602435906044356112268161024b565b906064359060843590565b503461000e57611240366111fd565b61124b949394613543565b61125484615891565b61125d84615951565b61126685615a12565b61126e61390b565b91611277614135565b926112834284116141a6565b603654611298906001600160a01b03166102d5565b60405163288d4ff760e21b81526001600160a01b038816600482015290979087906020816024818d5afa90811561189b575b60009161187c575b506035546004906020906112ee906001600160a01b03166102d5565b604051631f94a27560e31b815292839182905afa90811561186f575b600091611850575b50604051632e79732b60e11b81526001600160a01b03848116600483015291909116919061135e906020818e81806024810103915afa908115611843575b600091611824575b506141e9565b60405163e240301960e01b81526001600160a01b03841660048201526113ad9085906020818f81806024810103915afa908115611817575b6000916117f8575b50806101608c01521015614241565b6113b733846140a7565b60375490919085906113d1906001600160a01b03166102d5565b604051633e15014160e01b81526001600160a01b0387166004820152949061010090869060249082905afa9485156117eb575b6000956117c1575b5060405163b3596f0760e01b8082526001600160a01b039790971660048201529495869590918d9080836024815a93602094fa928315986114886114826114ce9961147c6114766114b49b6114d59f9a61148d9860209c6117b4575b600091611797575b50613b6e565b91614331565b90613b81565b8d613b6e565b613b81565b6040519485526001600160a01b039092166004850152929390928491829081906024820190565b03915afa91821561178a575b600092611769575b50613b81565b111561434d565b603954611533906114ee906001600160a01b03166102d5565b604051630e563a7d60e41b81523360048201526024810185905290602090829060449082905afa90811561175c575b60009161173d575b5080606089015215156143bf565b60018352336020840152603b546001600160a01b031660408401526001600160a01b0388166060840152608083018290526001600160a01b03871660a0840152600060c08401528360e084015284610100840152426101208401526060860151610140840152610160830152600061018083015260006101a083015260405197630531044160e31b8952602089600481845afa988915611730575b60009961170f575b50803b1561000e576000809160046040518094819363259d9fd160e21b83525af18015611702575b6116ef575b50603654611619906001600160a01b03166102d5565b803b1561000e577fddda05bca10ccedb67628486050c0637ba56c3b1d4d271f7524748d5e3931c859561166c60006116c2956060948d836040518096819582946305a5136b60e41b845260048401614415565b03925af180156116e2575b6116cf575b500151604080519283526001600160a01b039788166020840152820193909352606081019290925260808201929092524260a082015233949093169290819060c0820190565b0390a461039a6001600055565b80610f586116dc926131ce565b3861167c565b6116ea61325e565b611677565b80610f586116fc926131ce565b38611603565b61170a61325e565b6115fe565b61172991995060203d602011610aeb57610add8183613227565b97386115d6565b61173861325e565b6115ce565b611756915060203d602011610aeb57610add8183613227565b38611525565b61176461325e565b61151d565b61178391925060203d602011610aeb57610add8183613227565b90386114c8565b61179261325e565b6114c0565b6117ae91508c3d8e11610aeb57610add8183613227565b38611470565b6117bc61325e565b611468565b6117dd9195506101003d61010011610c1857610bfe8183613227565b50505050505050933861140c565b6117f361325e565b611404565b611811915060203d602011610aeb57610add8183613227565b3861139e565b61181f61325e565b611396565b61183d915060203d602011610f9757610f888183613227565b38611358565b61184b61325e565b611350565b611869915060203d60201161042e5761041f8183613227565b38611312565b61187761325e565b61130a565b611895915060203d602011610aeb57610add8183613227565b386112d2565b6118a361325e565b6112ca565b503461000e57608036600319011261000e576119326004356118c98161024b565b602435906118d68261024b565b6118de613543565b61192560018060a01b0360246020826036541660405192838092631a59df7760e11b825286891660048301525afa90811561195a575b60009161193c575b50163314613599565b606435916044359161361f565b61039a6001600055565b611954915060203d811161042e5761041f8183613227565b3861191c565b61196261325e565b611914565b503461000e57611976366111fd565b6119839493919294613543565b61198c84615891565b61199584615951565b61199e82615a12565b6119a661390b565b916119af61390b565b926119bb4284116141a6565b6036546004906119d3906001600160a01b03166102d5565b60405163288d4ff760e21b81526001600160a01b0389168382019081529199909160209083908190830103818d5afa918215611f69575b600092611f48575b5084898b6020611a2c6102d560355460018060a01b031690565b604051631f94a27560e31b815297889182905afa958615611f3b575b600096611f0d575b50604051632e79732b60e11b81526001600160a01b0383166004820152611aea9392611ac792602092611a9a908481602481865afa908115611f00575b600091611ee957506141e9565b60405163e240301960e01b81526001600160a01b0390921660048301529092839190829081906024820190565b03915afa908115611edc575b600091611ebd575b50806101608b01521015614631565b84611afd611af8338c6140a7565b613b2f565b603754611b12906001600160a01b03166102d5565b604051633e15014160e01b81526001600160a01b038516600482015294908c9061010090879060249082905afa958615611eb0575b600096611e63575b5060405163b3596f0760e01b81526001600160a01b0390911660048201529495611c5e95611bbf949392611bb792909161147c9161147691879160209082908180602481015b03916001600160a01b03165afa908115611e56575b600091611e3d5750613b6e565b5010156146ba565b603954611c1d90611bd8906001600160a01b03166102d5565b604051630e563a7d60e41b81523360048201526024810188905290602090829060449082905afa908115611e30575b600091611e11575b508060608a015215156143bf565b60018452603b546001600160a01b031660208501523360408501526001600160a01b0389166060850152608084018590526001600160a01b031660a0840152565b600060c08301528560e083015283610100830152426101208301526060850151610140830152610160820152600061018082015260006101a08201526040519663369f271360e01b8852602088600481845afa978815611e04575b600098611de3575b50803b1561000e5760008091600460405180948193635420f5a760e01b83525af18015611dd6575b611dc3575b50603654611d04906001600160a01b03166102d5565b803b1561000e577ff8b6062ca08c00ea54f74d7f53f049ed4cb014a7787c62250e6dfa1229d7d46094611d5760006116c2946060948c8360405180968195829463baf75dd360e01b845260048401614415565b03925af18015611db6575b611da3575b50015160408051938452602084019690965294820194909452606081019190915242608082015233936001600160a01b031692819060a0820190565b80610f58611db0926131ce565b38611d67565b611dbe61325e565b611d62565b80610f58611dd0926131ce565b38611cee565b611dde61325e565b611ce9565b611dfd91985060203d602011610aeb57610add8183613227565b9638611cc1565b611e0c61325e565b611cb9565b611e2a915060203d602011610aeb57610add8183613227565b38611c0f565b611e3861325e565b611c07565b6117ae915060203d602011610aeb57610add8183613227565b611e5e61325e565b611baa565b611c5e96509161147c61147686611b956020611bb796611e98611bbf9b9a996101003d61010011610c1857610bfe8183613227565b505050505050509c5096505050505050919293611b4f565b611eb861325e565b611b47565b611ed6915060203d602011610aeb57610add8183613227565b38611adb565b611ee461325e565b611ad3565b61183d9150853d8711610f9757610f888183613227565b611f0861325e565b611a8d565b611ac7919650611aea9392611f30602092833d851161042e5761041f8183613227565b979250929350611a50565b611f4361325e565b611a48565b611f6291925060203d602011610aeb57610add8183613227565b9038611a12565b611f7161325e565b611a0a565b503461000e5760408060031936011261000e5760365460049060243590823590611fa8906001600160a01b03166102d5565b845163369f271360e01b8152611fd8906020818781865afa9081156120ac575b60009161208e575b50841061473e565b611fe86109e46109df8486613dab565b936000925b84811115612002578651806104e78882610924565b8651632ea37ca760e01b8152828101828152600060208201526101c09591908690829081906040010381885afa958615612081575b600096612058575b505090610a7382610a6161205394916145f7565b611fed565b61205393929650610a73918161207992903d10610ab057610aa08183613227565b95919261203f565b61208961325e565b612037565b6120a6915060203d8111610aeb57610add8183613227565b38611fd0565b6120b461325e565b611fc8565b503461000e57602036600319011261000e5761039a6004356120d961390b565b506036546120ef906001600160a01b03166102d5565b604051632ea37ca760e01b815260048101839052600160248201526101c0918290829060449082905afa91821561218d575b600092612170575b505061213a6001610cd78351151590565b60608101516001600160a01b031690608081015192610140612165602084015160018060a01b031690565b920151933393614f45565b6121869250803d10610ab057610aa08183613227565b3880612129565b61219561325e565b612121565b503461000e57600036600319011261000e576037546040516001600160a01b039091168152602090f35b5060408060031936011261000e57602435906121df8261025c565b6121e7613543565b6121ef6138a6565b6121f761390b565b5060365461220d906001600160a01b03166102d5565b8251632ea37ca760e01b8152600480358183015294151560248201526101c092908381604481865afa938415612989575b60009461296a575b505060208381015190939061226e90612267906001600160a01b03166102d5565b3314613a6c565b60608101516001600160a01b03166101008301818152919061228f90615891565b6122bc608082016122b66122af825192838852519260e086015190613b6e565b6064900490565b90613d9f565b906122cf86850192808452855190613dab565b938781019485526101408201519260e08201938452896122f86102d5875160018060a01b031690565b73eeeeeeeeeeeeeeeeeeeeeeeeeeeeeeeeeeeeeeee14606084019081529761232283511515613ba1565b61232e86511515613bff565b8a6123398a51151590565b6000901561296457508651915b88516001600160a01b0316885160355490938e9161236c906001600160a01b03166102d5565b9051637744894b60e11b815296879182905afa948515612957575b600095612938575b50813b1561000e576000938f918f6123e390519788968795869463c7d1423760e01b8652339186019293606092919594608085019660018060a01b0393848092168752166020860152604085015216910152565b03925af1801561292b575b612918575b5083516123fe613c86565b90612407613cb2565b61241092615acb565b51835161241c91613d9f565b956080820196808852845161243091613dab565b60a09290920191825260365485518a51630c526de560e11b81526001600160a01b039182168d82019081523360208201529190921692908a90839081900360400181865afa61249c926124969190811561290b575b6000916128ee575b508a5110613cf6565b51151590565b600090156128e957506124b0845134613dab565b85516001600160a01b031691835190803b1561000e578b516328fcf4d360e01b81526001600160a01b03909416848e0190815233602082015260408101929092526000928492839190829060600103925af180156128dc575b6128c9575b50603654612524906001600160a01b03166102d5565b84518951639fb8afcd60e01b81526001600160a01b03909116818c01908152336020820152606090829081906040010381855afa80156128bc575b61288e575b5084516001600160a01b03168251855192885192813b1561000e578c5163da12d96f60e01b81526001600160a01b03909116818f01908152336020820152604081019390935260608301949094526080820192909252600060a0820181905291839182908490829060c00103925af18015612881575b61286e575b506101808201519061261f88836126006102d5603a5460018060a01b031690565b8c516331a9108f60e11b8152808f019283529384928391829160200190565b03915afa988915612861575b600099612842575b505060365461264a906001600160a01b03166102d5565b85516001600160a01b03169151813b1561000e578a5163fa93b2a560e01b81526001600160a01b03938416818e019081529a841660208c015260408b019190915291988290819060600103815a6000948591f18015612835575b612822575b50603a546126bf906001600160a01b03166102d5565b803b1561000e578851632890e0d760e01b8152808b0192835291600091839182908490829060200103925af18015612815575b612802575b5060a081015160c0906001600160a01b0316910151603654909390612724906001600160a01b03166102d5565b91823b1561000e578851633c287ea960e11b8152339a81019a8b526001600160a01b0390911660208b015260408a01949094526000987fb718f0b14f03d8c3adf35b15e3da52421b042ac879e5a689011a8b1e0036773d946127ad9390918b91839182908490829060600103925af180156127f5575b6127e2575b50516001600160a01b031690565b935190519251865191825260208201939093526040810192909252426060830152339384931691608090a4610f106001600055565b80610f586127ef926131ce565b3861279f565b6127fd61325e565b61279a565b80610f5861280f926131ce565b386126f7565b61281d61325e565b6126f2565b80610f5861282f926131ce565b386126a9565b61283d61325e565b6126a4565b612859929950803d1061042e5761041f8183613227565b963880612633565b61286961325e565b61262b565b80610f5861287b926131ce565b386125df565b61288961325e565b6125da565b6128ae9060603d81116128b5575b6128a68183613227565b810190613d68565b5050612564565b503d61289c565b6128c461325e565b61255f565b80610f586128d6926131ce565b3861250e565b6128e461325e565b612509565b6124b0565b61290591508c8d3d10610aeb57610add8183613227565b3861248d565b61291361325e565b612485565b80610f58612925926131ce565b386123f3565b61293361325e565b6123ee565b6129509195508d803d1061042e5761041f8183613227565b933861238f565b61295f61325e565b612387565b91612346565b612981929450803d10610ab057610aa08183613227565b913880612246565b61299161325e565b61223e565b503461000e57602036600319011261000e576004356129b48161024b565b603754604051632fe4a15f60e21b81526001600160a01b0392831660048201529161010091829184916024918391165afa8015612aad575b600090819282838490859286948796612a46575b506104e7969798506040519889988994919260e0969399989794919961010087019a8752602087015260408601526060850152608084015260a083015260c08201520152565b96975050505050505082813d8311612aa6575b612a638183613227565b8101031261058a57508051602082015160408301516060840151608085015160a086015160c087015160e0909701519496879695949093919291906104e7612a00565b503d612a59565b612ab561325e565b6129ec565b503461000e57602036600319011261000e57603654612b519060043590612ae9906001600160a01b03166102d5565b90612b1a60405163369f271360e01b8152602081600481875afa9081156111d3576000916111b5575082111561448c565b612b2261390b565b506040518092632ea37ca760e01b825281806101c0968795600483016020600091939293604081019481520152565b03915afa918215612c69575b600092612c4c575b82612b708151151590565b60408201516104e7906001600160a01b031660608401519093906001600160a01b0316608082015160a08301519192916001600160a01b031660c083015160e0840151610100850151916101208601519361016087015195612bdc6101a06101808a0151990151151590565b986040519c8d9c8d9a989694918b939d9c9a989694919d61018085019e15158552600160a01b60019003948580931690602001521660408c015260608b015216608089015260a088015260c087015260e08601526101008501526101208401526101408301521515906101600152565b612c629250803d10610ab057610aa08183613227565b3880612b65565b612c7161325e565b612b5d565b503461000e57602036600319011261000e57600435612c948161024b565b60ff600254169081159182612d5c575b8015612d50575b15612cf457612cbe9082612cd357613276565b612cc457005b61039a60ff1960025416600255565b612ce5600160ff196002541617600255565b612cef6003600155565b613276565b60405162461bcd60e51b815260206004820152602e60248201527f436f6e747261637420696e7374616e63652068617320616c726561647920626560448201526d195b881a5b9a5d1a585b1a5e995960921b6064820152608490fd5b50600154600311612cab565b50303b15612ca4565b503461000e57600036600319011261000e576035546040516001600160a01b039091168152602090f35b503461000e57600036600319011261000e5760206040516000198152f35b50606036600319011261000e576004803590612dc88261024b565b6024359160443561ffff81160361000e57612de1613543565b612dea83615a12565b603654612dff906001600160a01b03166102d5565b60408051631a59df7760e11b81526001600160a01b0384168186019081529095919491929060209081908890819083010381855afa968715613081575b600097613062575b5085516370a0823160e01b8152338482019081526001600160a01b039889169391908390829081906020010381875afa928315613055575b600093613036575b5050803b1561000e578651632f35bfe960e21b81526001600160a01b038716858201908152336020820152604081018790529215606084015291600091839182908490829060800103925af18015613029575b613016575b50803b1561000e5784516394362e8b60e01b81523383820190815260208101859052909160009183919082908490829060400103925af18015613009575b612ff6575b50603654612f35906001600160a01b03166102d5565b803b1561000e5784516328fcf4d360e01b81526001600160a01b038516928101928352336020840152604083018490526000967fdcbc1c05240f31ff3ad067ef1ee35ce4997762752e3a095284754544f4c709d793612fc993919291899183919082908190606001039134905af18015612fe9575b612fd6575b508551938452426020850152339416929081906040820190565b0390a3610f106001600055565b80610f58612fe3926131ce565b38612faf565b612ff161325e565b612faa565b80610f58613003926131ce565b38612f1f565b61301161325e565b612f1a565b80610f58613023926131ce565b38612edc565b61303161325e565b612ed7565b61304d929350803d10610aeb57610add8183613227565b903880612e84565b61305d61325e565b612e7c565b8161307a9298503d891161042e5761041f8183613227565b9538612e44565b61308961325e565b612e3c565b50606036600319011261000e576131386024356130aa8161025c565b61038b600080604435936130bd8561025c565b6130c5613543565b6035546130da906001600160a01b03166102d5565b90604051958692632bd7cfb760e11b84528360046020998a935afa928315613180575b8493613161575b50604051630d548d9360e41b8882019081526004356024830152921515604482015290151560648201529687906084820190565b039661314c601f1998898101835282613227565b51915af461037d61315b613e9b565b91613ffc565b613179919350873d891161042e5761041f8183613227565b9138613104565b61318861325e565b6130fd565b503461000e57600036600319011261000e576036546040516001600160a01b039091168152602090f35b50634e487b7160e01b600052604160045260246000fd5b67ffffffffffffffff81116131e257604052565b6131ea6131b7565b604052565b6040810190811067ffffffffffffffff8211176131e257604052565b6060810190811067ffffffffffffffff8211176131e257604052565b90601f8019910116810190811067ffffffffffffffff8211176131e257604052565b9081602091031261000e57516105c78161024b565b506040513d6000823e3d90fd5b51906109228261024b565b603580546001600160a01b0319166001600160a01b03929092169182179055610922906132a2906102d5565b6040518091630774f5f560e21b825281600460209384935afa918215613527575b600092613508575b50603680546001600160a01b0319166001600160a01b03938416179055613346826004836133036102d560355460018060a01b031690565b6040516352cb335b60e11b815292839182905afa9081156134fb575b6000916134de575b501660018060a01b03166001600160601b0360a01b6037541617603755565b6133a4826004836133616102d560355460018060a01b031690565b604051639fabe17560e01b815292839182905afa9081156134d1575b6000916134b4575b501660018060a01b03166001600160601b0360a01b6038541617603855565b613402826004836133bf6102d560355460018060a01b031690565b604051633efbbf0f60e21b815292839182905afa9081156134a7575b60009161348a575b501660018060a01b03166001600160601b0360a01b6039541617603955565b603554600490829061341c906001600160a01b03166102d5565b604051635920a6a160e01b815292839182905afa91821561347d575b600092613460575b50501660018060a01b03166001600160601b0360a01b603a541617603a55565b6134769250803d1061042e5761041f8183613227565b3880613440565b61348561325e565b613438565b6134a19150843d861161042e5761041f8183613227565b386133e3565b6134af61325e565b6133db565b6134cb9150843d861161042e5761041f8183613227565b38613385565b6134d961325e565b61337d565b6134f59150843d861161042e5761041f8183613227565b38613327565b61350361325e565b61331f565b816135209293503d841161042e5761041f8183613227565b90386132cb565b61352f61325e565b6132c3565b9081602091031261000e575190565b600260005414613554576002600055565b60405162461bcd60e51b815260206004820152601f60248201527f5265656e7472616e637947756172643a207265656e7472616e742063616c6c006044820152606490fd5b156135a057565b60405162461bcd60e51b815260206004820152604b60248201527f5468652063616c6c6572206f6620746869732066756e6374696f6e2063616e2060448201527f6f6e6c79206265207468652061546f6b656e20636f6e7472616374206f66207460648201526a686973207265736572766560a81b608482015260a490fd5b9261362984615891565b61363283615a12565b603654613647906001600160a01b03166102d5565b60405163e240301960e01b81526001600160a01b038616600482015261368a908590602081602481875afa9081156137f1575b6000916137d3575b5010156137fe565b803b1561000e5760405163afcdbea360e01b81526001600160a01b0386811660048301528416602482015260448101859052911560648301526000908290608490829084905af180156137c6575b6137b3575b506036546136f3906001600160a01b03166102d5565b803b1561000e5760405163fa93b2a560e01b81526001600160a01b03858116600483015283166024820152604481018490527f9c4ed599cd8555b9c1e8cd7643240d7d71eb76b792948c49fcb4d411f7b6b3c69261378e929091906000908290606490829084905af180156137a6575b613793575b50604080519485524260208601526001600160a01b039182169590911693918291820190565b0390a3565b80610f586137a0926131ce565b38613768565b6137ae61325e565b613763565b80610f586137c0926131ce565b386136dd565b6137ce61325e565b6136d8565b6137eb915060203d8111610aeb57610add8183613227565b38613682565b6137f961325e565b61367a565b1561380557565b60405162461bcd60e51b815260206004820152603160248201527f5468657265206973206e6f7420656e6f756768206c697175696469747920617660448201527061696c61626c6520746f2072656465656d60781b6064820152608490fd5b604051906101c0820182811067ffffffffffffffff8211176131e257604052565b60405190610200820182811067ffffffffffffffff8211176131e257604052565b60405190610120820182811067ffffffffffffffff8211176138fe575b604052816101006000918281528260208201528260408201528260608201528260808201528260a08201528260c08201528260e08201520152565b6139066131b7565b6138c3565b604051906101c0820182811067ffffffffffffffff821117613986575b604052816101a06000918281528260208201528260408201528260608201528260808201528260a08201528260c08201528260e082015282610100820152826101208201528261014082015282610160820152826101808201520152565b61398e6131b7565b613928565b51906109228261025c565b90816101c091031261000e576139b2613864565b906139bc81613993565b82526139ca6020820161326b565b60208301526139db6040820161326b565b60408301526139ec6060820161326b565b606083015260808101516080830152613a0760a0820161326b565b60a083015260c081015160c083015260e081015160e083015261010080820151908301526101208082015190830152610140808201519083015261016080820151908301526101808082015190830152613a656101a0809201613993565b9082015290565b15613a7357565b60405162461bcd60e51b815260206004820152606b60248201527f43757272656e746c7920426f72726f772050726f706f73616c2043617365206960448201527f73206f6e6c7920706f737369626c6520666f722074657374696e672c206c617460648201527f65722050726f706f73616c20537472756374757265204d6f646966696361746960848201526a1bdb8814995c5d5a5c995960aa1b60a482015260c490fd5b50634e487b7160e01b600052601160045260246000fd5b670de0b6b3a7640000908060001904821181151516613b4c570290565b613b54613b18565b0290565b6064908060001904821181151516613b4c570290565b8060001904821181151516613b4c570290565b8115613b8b570490565b634e487b7160e01b600052601260045260246000fd5b15613ba857565b60405162461bcd60e51b815260206004820152602960248201527f546865207573657220646f6573206e6f74206861766520616e7920626f72726f604482015268772070656e64696e6760b81b6064820152608490fd5b15613c0657565b60405162461bcd60e51b815260206004820152602760248201527f4f6967696e6174696f6e204665652073686f756c6420626520677265617465726044820152660207468616e20360cc1b6064820152608490fd5b60209067ffffffffffffffff8111613c79575b601f01601f19160190565b613c816131b7565b613c6e565b60405190613c93826131ef565b601082526f1b5b34336d202573202573201b5b306d60801b6020830152565b60405190613cbf8261320b565b60228252611b9d60f21b6040837f0a2020203d3e204c42504d203a2046656520436f6c6c656374656420416d6f7560208201520152565b15613cfd57565b60405162461bcd60e51b815260206004820152603f60248201527f546865207573657220646f6573206e6f74206861766520656e6f75676820626160448201527f6c616e636520746f20636f6d706c657465207468652072657061796d656e74006064820152608490fd5b9081606091031261000e578051916040602083015192015190565b6001906001198111613d93570190565b613d9b613b18565b0190565b81198111613d93570190565b818110613db6570390565b613dbe613b18565b0390565b15613dc957565b60405162461bcd60e51b815260206004820152602a60248201527f5573657220646f6573206e6f74206861766520616e79206c69717569646974796044820152690819195c1bdcda5d195960b21b6064820152608490fd5b9081602091031261000e57516105c78161025c565b15613e3d57565b60405162461bcd60e51b815260206004820152603060248201527f55736572206465706f73697420697320616c7265616479206265696e6720757360448201526f195908185cc818dbdb1b185d195c985b60821b6064820152608490fd5b3d15613ec6573d90613eac82613c5b565b91613eba6040519384613227565b82523d6000602084013e565b606090565b15613ed257565b60405162461bcd60e51b815260206004820152601760248201527f4c69717569646174696f6e2063616c6c206661696c65640000000000000000006044820152606490fd5b918091926000905b828210613f37575011613f30575050565b6000910152565b91508060209183015181860152018291613f1f565b919060408382031261000e5782519260208101519067ffffffffffffffff821161000e570181601f8201121561000e578051613f8781613c5b565b92613f956040519485613227565b8184526020828401011161000e576105c79160208085019101613f17565b90613d9b60209282815194859201613f17565b90602091613fdf81518092818552858086019101613f17565b601f01601f1916010190565b9060206105c7928181520190613fc6565b1561400357565b60405162461bcd60e51b815260206004820152602760248201527f4c69717569646174696f6e2043616c6c20666f722050726f706f73654d6f64656044820152660819985a5b195960ca1b6064820152608490fd5b91908261014091031261000e5781519160208101519160408201519160608101519160808201519160a08101519160c08201519160e0810151916101206101008301519201516105c78161025c565b6037546040516328dd2d0160e01b81526001600160a01b039283166004820152928216602484015261014091829184916044918391165afa918215614128575b60009182936140fe575b5050818110613db6570390565b614118935080919250903d106106a25761068a8183613227565b50505050505050509038806140f1565b61413061325e565b6140e7565b61413d613885565b9060008083528060208401528060408401528060608401528060808401528060a08401528060c08401528060e08401528061010084015280610120840152806101408401528061016084015280610180840152806101a0840152806101c08401526101e0830152565b156141ad57565b60405162461bcd60e51b8152602060048201526014602482015273125b9d985b1a5908111d594811185d194814d95d60621b6044820152606490fd5b156141f057565b60405162461bcd60e51b8152602060048201526024808201527f52657365727665206973206e6f7420656e61626c656420666f7220626f72726f60448201526377696e6760e01b6064820152608490fd5b1561424857565b60405162461bcd60e51b815260206004820152605060248201527f5468657265206973206e6f7420656e6f756768206c697175696469747920617660448201527f61696c61626c6520696e20746865207265736572766520746f206d616b65206160648201526f08189bdc9c9bddc81c1c9bdc1bdcd85b60821b608482015260a490fd5b91908261010091031261000e5781519160208101519160408201519160608101516142f68161024b565b9160808201516143058161025c565b9160a08101516143148161025c565b9160e060c08301516143258161025c565b9201516105c78161025c565b604d8111614340575b600a0a90565b614348613b18565b61433a565b1561435457565b60405162461bcd60e51b815260206004820152603d60248201527f5468657265206973206e6f7420656e6f75676820636f6c6c61746572616c207460448201527f6f20636f7665722061206e657720626f72726f772070726f706f73616c0000006064820152608490fd5b156143c657565b60405162461bcd60e51b815260206004820152602160248201527f54686520616d6f756e7420746f20626f72726f7720697320746f6f20736d616c6044820152601b60fa1b6064820152608490fd5b9081526101e0810192916109229160200190610866565b1561443357565b60405162461bcd60e51b815260206004820152602b60248201527f4f6e6c792041637469766520426f72726f772050726f706f73616c2063616e2060448201526a1899481058d8d95c1d195960aa1b6064820152608490fd5b1561449357565b60405162461bcd60e51b8152602060048201526013602482015272125b9d985b1a590817dc1c9bdc1bdcd85b1259606a1b6044820152606490fd5b156144d557565b60405162461bcd60e51b815260206004820152602660248201527f456e6420496e646578206f76657220626f72726f7750726f706f73616c4c69736044820152651d10dbdd5b9d60d21b6064820152608490fd5b1561453057565b60405162461bcd60e51b815260206004820152602260248201527f4d6178696d756d203230303020697465726174696f6e207065722072657175656044820152611cdd60f21b6064820152608490fd5b60209067ffffffffffffffff811161459a575b60051b0190565b6145a26131b7565b614593565b906145b182614580565b6145be6040519182613227565b82815280926145cf601f1991614580565b019060005b8281106145e057505050565b6020906145eb61390b565b828285010152016145d4565b6001906000198114613d93570190565b805182101561461b5760209160051b010190565b634e487b7160e01b600052603260045260246000fd5b1561463857565b60405162461bcd60e51b815260206004820152604e60248201527f5468657265206973206e6f7420656e6f756768206c697175696469747920617660448201527f61696c61626c6520696e20746865207265736572766520746f206d616b65206160648201526d081b195b99081c1c9bdc1bdcd85b60921b608482015260a490fd5b156146c157565b60405162461bcd60e51b815260206004820152604960248201527f5468657265206973206e6f7420656e6f7567682062616c616e636520746f206c60448201527f656e6420696e206f7264657220746f20636f7665722061206e6577206c656e64606482015268081c1c9bdc1bdcd85b60ba1b608482015260a490fd5b1561474557565b60405162461bcd60e51b815260206004820152602960248201527f456e6420496e64657820657863656564696e67204c656e6450726f706f73616c604482015268131a5cdd10dbdd5b9d60ba1b6064820152608490fd5b9361484992956147aa613543565b6147b386615891565b6147bc86615951565b6147c583615a12565b6035546004906020906147e0906001600160a01b03166102d5565b604051631f94a27560e31b815292839182905afa908115614f38575b600091614f19575b5060375461481a906001600160a01b03166102d5565b88604051809263a7b3a3c160e01b825281806101c09a8b95600483016020600091939293604081019481520152565b03915afa908115614f0c575b60009283809281998295614eb5575b505060405163b3596f0760e01b81526001600160a01b0390911660048201526148b490889060208180602481015b03816001600160a01b0388165afa908115611e5657600091611e3d5750613b6e565b60405163b3596f0760e01b81526001600160a01b038616600482015291908490602084806024810103816001600160a01b0387165afa938415614ea8575b600094614e7b575b5061148861490c614911938693613b81565b613b58565b603654909290614929906001600160a01b03166102d5565b91823b1561000e578d8c8b8f81946000806149718f9a8c60405194858094819363405d60e560e11b83528d600484016040909392919360608101948152600060208201520152565b03925af18015614e6e575b614e5b575b5061498c8a84613b6e565b6064900461499a9084613d9f565b60405163b3596f0760e01b81526001600160a01b038481166004830152919c9092909116826024815a93602094fa918215604099614a13614a086149fa6149fa60009a614a3499614a2d98614a1898614e4e575b8d91611e3d5750613b6e565b670de0b6b3a7640000900490565b94614a1333896140a7565b613b6e565b6ec097ce7bc90715b34b9f1000000000900490565b10156156e8565b603654614aa790614a4d906001600160a01b03166102d5565b8751637eb83b6360e11b81526001600160a01b0393841660048201529290941660248301526044820195909552606481019690965260016084870152600060a487015260c4860192909252849290918391829060e4820190565b03925af18015614e41575b614e13575b50603654614acd906001600160a01b03166102d5565b803b1561000e576040516396b910b560e01b81526001600160a01b038b811660048301528616602482015260448101929092526000908290606490829084905af18015614e06575b614df3575b50603654614b30906001600160a01b03166102d5565b803b1561000e5760405163fa93b2a560e01b81526001600160a01b038b811660048301528a16602482015260448101889052906000908290606490829084905af18015614de6575b614dd3575b50603654614b93906001600160a01b03166102d5565b90813b1561000e578860008c614c706020968b968460405180926353fcf7ed60e01b8252818381614bd58a600483016020600091939293604081019481520152565b03925af18015614dc6575b614db3575b50614bff614bf16157ee565b614bf9615815565b90615a5e565b603a54614c14906001600160a01b03166102d5565b958b6040519e8f998a9889976327b13f6760e21b8952429460048a019491989796939060e0969361010087019a60018060a01b03809316885260208801521660408601526060850152608084015260a083015260c08201520152565b03925af1948515614da6575b600095614d85575b50614c98614c906157ee565b614bf9615858565b603654614cad906001600160a01b03166102d5565b91823b1561000e5760405163517dcce360e01b8152600481018a905260248101969096527f0fe896ff57f0d00b15c188699fac3b7ce27c564a706118e52c3c45e88c7bab7e95614d58936000908290604490829084905af18015614d78575b614d65575b50604080516001600160a01b03938416815297831660208901528701949094526000606087015260808601939093524260a0860152908216949091169290819060c0820190565b0390a46109226001600055565b80610f58614d72926131ce565b38614d11565b614d8061325e565b614d0c565b614d9f91955060203d602011610aeb57610add8183613227565b9338614c84565b614dae61325e565b614c7c565b80610f58614dc0926131ce565b38614be5565b614dce61325e565b614be0565b80610f58614de0926131ce565b38614b7d565b614dee61325e565b614b78565b80610f58614e00926131ce565b38614b1a565b614e0e61325e565b614b15565b614e349060403d604011614e3a575b614e2c8183613227565b8101906157d8565b50614ab7565b503d614e22565b614e4961325e565b614ab2565b614e5661325e565b6149ee565b80610f58614e68926131ce565b38614981565b614e7661325e565b61497c565b61491192945061490c614e9f6114889260203d602011610aeb57610add8183613227565b959350506148fa565b614eb061325e565b6148f2565b899a506148929650602095506148b49450614ee59250803d10614f05575b614edd8183613227565b81019061565c565b50509a50505099979f96509a945050979190509697959b96935050614864565b503d614ed3565b614f1461325e565b614855565b614f32915060203d60201161042e5761041f8183613227565b38614804565b614f4061325e565b6147fc565b9394909194614f52613543565b614f5b85615891565b614f6485615951565b614f6d83615a12565b603554614f82906001600160a01b03166102d5565b9260409384519384928392631f94a27560e31b8452602093849160049687915afa95861561564f575b600096615630575b506037546001600160a01b03968716939061500090614fd39089166102d5565b895163a7b3a3c160e01b81528781018e8152600160208201526101c0939192849284928391829160400190565b03915afa8015615623575b8a60009789898095819782966155d7575b50508a6150ba959385938a936150748d615098995187818061505a63b3596f0760e01b97888352898301919091602081019260018060a01b03169052565b0381895afa9081156155ca575b6000916155b35750613b6e565b95519081526001600160a01b03909316908301908152919586928391829160200190565b03915afa9283156155a6575b60009361557d575b506114889161490c91613b81565b60368054909391906150d4906001600160a01b03166102d5565b90813b1561000e578f8f8f8f92908b8b938f806151d3866151818f9c8f6151556122af8f928f9d8f908f61515b966102d5986151409360009f600094908591519687958694859363405d60e560e11b855284016040909392919360608101948152600160208201520152565b03925af18015615570575b6155635750613b6e565b8c613d9f565b9d6151748c61516d611af8338c6140a7565b101561575a565b546001600160a01b031690565b958851998a9889978896637eb83b6360e11b8852870191959493909260c09360e084019760018060a01b0380921685521660208401526040830152606082015260016080820152600160a08201520152565b03925af18015615556575b615538575b505084546151f9906001600160a01b03166102d5565b803b1561000e57898f918f9260008e615243829651978896879586946396b910b560e01b8652850160409194939294606082019560018060a01b0380921683521660208201520152565b03925af1801561552b575b615518575b508354615268906001600160a01b03166102d5565b803b1561000e5760008f8f928f8f908e956152b78d8793519889978896879563fa93b2a560e01b87521691850160409194939294606082019560018060a01b0380921683521660208201520152565b03925af1801561550b575b6154f8575b5083546152dc906001600160a01b03166102d5565b90813b1561000e578f60008f938f936153ae908f92988f8c99868f9c61532682918b8d519485809481936353fcf7ed60e01b83528a83016020600191939293604081019481520152565b03925af180156154eb575b6154d8575b50615342614bf16157ee565b603a54615357906001600160a01b03166102d5565b98519b8c9a8b998a986327b13f6760e21b8a5242958a019491989796939060e0969361010087019a60018060a01b03809316885260208801521660408601526060850152608084015260a083015260c08201520152565b03925af19283156154cb575b6000936154a4575b50506102d56153d691615174614c906157ee565b97883b1561000e57615434600089937f0fe896ff57f0d00b15c188699fac3b7ce27c564a706118e52c3c45e88c7bab7e9b8f83614d589b875196879586948593636e1397b360e11b8552840160209093929193604081019481520152565b03925af18015615497575b615484575b50516001600160a01b03948516815298909316602089015260408801526001606088015260808701524260a08701529190921694169290819060c0820190565b80610f58615491926131ce565b38615444565b61549f61325e565b61543f565b6153d69293506102d591816154c492903d10610aeb57610add8183613227565b92916153c2565b6154d361325e565b6153ba565b80610f586154e5926131ce565b38615336565b6154f361325e565b615331565b80610f58615505926131ce565b386152c7565b61551361325e565b6152c2565b80610f58615525926131ce565b38615253565b61553361325e565b61524e565b8161554e92903d10614e3a57614e2c8183613227565b8e91506151e3565b61555e61325e565b6151de565b80610f586117ae926131ce565b61557861325e565b61514b565b61490c9193509161559d61148893893d8b11610aeb57610add8183613227565b939150916150ac565b6155ae61325e565b6150a4565b6117ae9150883d8a11610aeb57610add8183613227565b6155d261325e565b615067565b615600939c506150989598508997506150ba965080919250903d10614f0557614edd8183613227565b50509f9a5050509b965094505095919050949c8d9298999750939550939161501c565b61562b61325e565b61500b565b615648919650833d851161042e5761041f8183613227565b9438614fb3565b61565761325e565b614fab565b9190826101c091031261000e5761567282613993565b9161567f6020820161326b565b9161568c6040830161326b565b916156996060820161326b565b916080820151916156ac60a0820161326b565b9160c08201519160e081015191610100820151916101208101519161014082015191610160810151916105c76101a06101808401519301613993565b156156ef57565b60405162461bcd60e51b815260206004820152603f60248201527f426f72726f77657220646f65736e2774206861766520656e6f75676820636f6c60448201527f6c61746572616c20746f20616363657074204c656e642050726f706f73616c006064820152608490fd5b1561576157565b60a460405162461bcd60e51b815260206004820152604460248201527f4c656e64657220646f65736e2774206861766520656e6f75676820526573657260448201527f76652042616c616e636520746f2041636365707420426f72726f772050726f706064820152631bdcd85b60e21b6084820152fd5b919082604091031261000e576020825192015190565b604051906157fb826131ef565b600b82526a1b5b34336d25731b5b306d60a81b6020830152565b604051906158228261320b565b60218252601960fa1b6040837f0a2020203d3e204c42504d203a204e4654204d696e74696e672053746172746560208201520152565b60405190615865826131ef565b601e82527f0a2020203d3e204c42504d203a204e4654204d696e74696e6720446f6e6500006020830152565b603654604051630283aeb760e11b81526001600160a01b0392831660048201529160209183916024918391165afa908115615944575b600091615926575b50156158d757565b60405162461bcd60e51b815260206004820152602160248201527f416374696f6e20726571756972657320616e20616374697665207265736572766044820152606560f81b6064820152608490fd5b61593e915060203d8111610f9757610f888183613227565b386158cf565b61594c61325e565b6158c7565b603654604051634a08accb60e01b81526001600160a01b0392831660048201529160209183916024918391165afa908115615a05575b6000916159e7575b5061599657565b60405162461bcd60e51b8152602060048201526024808201527f416374696f6e20726571756972657320616e20756e667265657a6564207265736044820152636572766560e01b6064820152608490fd5b6159ff915060203d8111610f9757610f888183613227565b3861598f565b615a0d61325e565b615987565b15615a1957565b60405162461bcd60e51b815260206004820152601d60248201527f416d6f756e74206d7573742062652067726561746572207468616e20300000006044820152606490fd5b615ab0615a9091615aa261092294604051948593634b5c427760e01b6020860152604060248601526064850190613fc6565b83810360231901604485015290613fc6565b03601f198101835282613227565b600080916020815191016a636f6e736f6c652e6c6f675afa50565b615ab09061092293615b10615afe94604051958694635821efa160e01b6020870152606060248701526084860190613fc6565b84810360231901604486015290613fc6565b90606483015203601f19810183528261322756fea2646970667358221220df2cafb6a021ec8854e915df0f99a430172af92089002bca447de726864f9f8d64736f6c634300080d0033",
  "linkReferences": {},
  "deployedLinkReferences": {}
}