{
  "_format": "hh-sol-artifact-1",
  "contractName": "LendingBoardCore",
  "sourceName": "contracts/lendingboard/LendingBoardCore.sol",
  "abi": [
    {
      "anonymous": false,
      "inputs": [
        {
          "indexed": true,
          "internalType": "address",
          "name": "reserve",
          "type": "address"
        },
        {
          "indexed": false,
          "internalType": "uint256",
          "name": "liquidityRate",
          "type": "uint256"
        },
        {
          "indexed": false,
          "internalType": "uint256",
          "name": "stableBorrowRate",
          "type": "uint256"
        },
        {
          "indexed": false,
          "internalType": "uint256",
          "name": "variableBorrowRate",
          "type": "uint256"
        },
        {
          "indexed": false,
          "internalType": "uint256",
          "name": "liquidityIndex",
          "type": "uint256"
        },
        {
          "indexed": false,
          "internalType": "uint256",
          "name": "variableBorrowIndex",
          "type": "uint256"
        }
      ],
      "name": "ReserveUpdated",
      "type": "event"
    },
    {
      "inputs": [],
      "name": "CORE_REVISION",
      "outputs": [
        {
          "internalType": "uint256",
          "name": "",
          "type": "uint256"
        }
      ],
      "stateMutability": "view",
      "type": "function"
    },
    {
      "inputs": [
        {
          "internalType": "address",
          "name": "_reserve",
          "type": "address"
        }
      ],
      "name": "activateReserve",
      "outputs": [],
      "stateMutability": "nonpayable",
      "type": "function"
    },
    {
      "inputs": [],
      "name": "addressesProvider",
      "outputs": [
        {
          "internalType": "contract LendingBoardAddressesProvider",
          "name": "",
          "type": "address"
        }
      ],
      "stateMutability": "view",
      "type": "function"
    },
    {
      "inputs": [
        {
          "internalType": "address",
          "name": "_reserve",
          "type": "address"
        }
      ],
      "name": "deactivateReserve",
      "outputs": [],
      "stateMutability": "nonpayable",
      "type": "function"
    },
    {
      "inputs": [
        {
          "internalType": "address",
          "name": "_reserve",
          "type": "address"
        }
      ],
      "name": "disableBorrowingOnReserve",
      "outputs": [],
      "stateMutability": "nonpayable",
      "type": "function"
    },
    {
      "inputs": [
        {
          "internalType": "address",
          "name": "_reserve",
          "type": "address"
        }
      ],
      "name": "disableReserveAsCollateral",
      "outputs": [],
      "stateMutability": "nonpayable",
      "type": "function"
    },
    {
      "inputs": [
        {
          "internalType": "address",
          "name": "_reserve",
          "type": "address"
        }
      ],
      "name": "disableReserveStableBorrowRate",
      "outputs": [],
      "stateMutability": "nonpayable",
      "type": "function"
    },
    {
      "inputs": [
        {
          "internalType": "address",
          "name": "_reserve",
          "type": "address"
        },
        {
          "internalType": "bool",
          "name": "_stableBorrowRateEnabled",
          "type": "bool"
        }
      ],
      "name": "enableBorrowingOnReserve",
      "outputs": [],
      "stateMutability": "nonpayable",
      "type": "function"
    },
    {
      "inputs": [
        {
          "internalType": "address",
          "name": "_reserve",
          "type": "address"
        },
        {
          "internalType": "uint256",
          "name": "_baseLTVasCollateral",
          "type": "uint256"
        },
        {
          "internalType": "uint256",
          "name": "_liquidationThreshold",
          "type": "uint256"
        },
        {
          "internalType": "uint256",
          "name": "_liquidationBonus",
          "type": "uint256"
        }
      ],
      "name": "enableReserveAsCollateral",
      "outputs": [],
      "stateMutability": "nonpayable",
      "type": "function"
    },
    {
      "inputs": [
        {
          "internalType": "address",
          "name": "_reserve",
          "type": "address"
        }
      ],
      "name": "enableReserveStableBorrowRate",
      "outputs": [],
      "stateMutability": "nonpayable",
      "type": "function"
    },
    {
      "inputs": [
        {
          "internalType": "address",
          "name": "_reserve",
          "type": "address"
        }
      ],
      "name": "freezeReserve",
      "outputs": [],
      "stateMutability": "nonpayable",
      "type": "function"
    },
    {
      "inputs": [
        {
          "internalType": "address",
          "name": "_reserve",
          "type": "address"
        }
      ],
      "name": "getReserveATokenAddress",
      "outputs": [
        {
          "internalType": "address",
          "name": "",
          "type": "address"
        }
      ],
      "stateMutability": "view",
      "type": "function"
    },
    {
      "inputs": [
        {
          "internalType": "address",
          "name": "_reserve",
          "type": "address"
        }
      ],
      "name": "getReserveAvailableLiquidity",
      "outputs": [
        {
          "internalType": "uint256",
          "name": "",
          "type": "uint256"
        }
      ],
      "stateMutability": "view",
      "type": "function"
    },
    {
      "inputs": [
        {
          "internalType": "address",
          "name": "_reserve",
          "type": "address"
        }
      ],
      "name": "getReserveConfiguration",
      "outputs": [
        {
          "internalType": "uint256",
          "name": "",
          "type": "uint256"
        },
        {
          "internalType": "uint256",
          "name": "",
          "type": "uint256"
        },
        {
          "internalType": "uint256",
          "name": "",
          "type": "uint256"
        },
        {
          "internalType": "bool",
          "name": "",
          "type": "bool"
        }
      ],
      "stateMutability": "view",
      "type": "function"
    },
    {
      "inputs": [
        {
          "internalType": "address",
          "name": "_reserve",
          "type": "address"
        }
      ],
      "name": "getReserveCurrentAverageStableBorrowRate",
      "outputs": [
        {
          "internalType": "uint256",
          "name": "",
          "type": "uint256"
        }
      ],
      "stateMutability": "view",
      "type": "function"
    },
    {
      "inputs": [
        {
          "internalType": "address",
          "name": "_reserve",
          "type": "address"
        }
      ],
      "name": "getReserveCurrentLiquidityRate",
      "outputs": [
        {
          "internalType": "uint256",
          "name": "",
          "type": "uint256"
        }
      ],
      "stateMutability": "view",
      "type": "function"
    },
    {
      "inputs": [
        {
          "internalType": "address",
          "name": "_reserve",
          "type": "address"
        }
      ],
      "name": "getReserveCurrentStableBorrowRate",
      "outputs": [
        {
          "internalType": "uint256",
          "name": "",
          "type": "uint256"
        }
      ],
      "stateMutability": "view",
      "type": "function"
    },
    {
      "inputs": [
        {
          "internalType": "address",
          "name": "_reserve",
          "type": "address"
        }
      ],
      "name": "getReserveCurrentVariableBorrowRate",
      "outputs": [
        {
          "internalType": "uint256",
          "name": "",
          "type": "uint256"
        }
      ],
      "stateMutability": "view",
      "type": "function"
    },
    {
      "inputs": [
        {
          "internalType": "address",
          "name": "_reserve",
          "type": "address"
        }
      ],
      "name": "getReserveDecimals",
      "outputs": [
        {
          "internalType": "uint256",
          "name": "",
          "type": "uint256"
        }
      ],
      "stateMutability": "view",
      "type": "function"
    },
    {
      "inputs": [
        {
          "internalType": "address",
          "name": "_reserve",
          "type": "address"
        }
      ],
      "name": "getReserveInterestRateStrategyAddress",
      "outputs": [
        {
          "internalType": "address",
          "name": "",
          "type": "address"
        }
      ],
      "stateMutability": "view",
      "type": "function"
    },
    {
      "inputs": [
        {
          "internalType": "address",
          "name": "_reserve",
          "type": "address"
        }
      ],
      "name": "getReserveIsActive",
      "outputs": [
        {
          "internalType": "bool",
          "name": "",
          "type": "bool"
        }
      ],
      "stateMutability": "view",
      "type": "function"
    },
    {
      "inputs": [
        {
          "internalType": "address",
          "name": "_reserve",
          "type": "address"
        }
      ],
      "name": "getReserveIsFreezed",
      "outputs": [
        {
          "internalType": "bool",
          "name": "",
          "type": "bool"
        }
      ],
      "stateMutability": "view",
      "type": "function"
    },
    {
      "inputs": [
        {
          "internalType": "address",
          "name": "_reserve",
          "type": "address"
        }
      ],
      "name": "getReserveIsStableBorrowRateEnabled",
      "outputs": [
        {
          "internalType": "bool",
          "name": "",
          "type": "bool"
        }
      ],
      "stateMutability": "view",
      "type": "function"
    },
    {
      "inputs": [
        {
          "internalType": "address",
          "name": "_reserve",
          "type": "address"
        }
      ],
      "name": "getReserveLastUpdate",
      "outputs": [
        {
          "internalType": "uint40",
          "name": "timestamp",
          "type": "uint40"
        }
      ],
      "stateMutability": "view",
      "type": "function"
    },
    {
      "inputs": [
        {
          "internalType": "address",
          "name": "_reserve",
          "type": "address"
        }
      ],
      "name": "getReserveLiquidationBonus",
      "outputs": [
        {
          "internalType": "uint256",
          "name": "",
          "type": "uint256"
        }
      ],
      "stateMutability": "view",
      "type": "function"
    },
    {
      "inputs": [
        {
          "internalType": "address",
          "name": "_reserve",
          "type": "address"
        }
      ],
      "name": "getReserveLiquidationThreshold",
      "outputs": [
        {
          "internalType": "uint256",
          "name": "",
          "type": "uint256"
        }
      ],
      "stateMutability": "view",
      "type": "function"
    },
    {
      "inputs": [
        {
          "internalType": "address",
          "name": "_reserve",
          "type": "address"
        }
      ],
      "name": "getReserveLiquidityCumulativeIndex",
      "outputs": [
        {
          "internalType": "uint256",
          "name": "",
          "type": "uint256"
        }
      ],
      "stateMutability": "view",
      "type": "function"
    },
    {
      "inputs": [
        {
          "internalType": "address",
          "name": "_reserve",
          "type": "address"
        }
      ],
      "name": "getReserveNormalizedIncome",
      "outputs": [
        {
          "internalType": "uint256",
          "name": "",
          "type": "uint256"
        }
      ],
      "stateMutability": "view",
      "type": "function"
    },
    {
      "inputs": [
        {
          "internalType": "address",
          "name": "_reserve",
          "type": "address"
        }
      ],
      "name": "getReserveTotalBorrows",
      "outputs": [
        {
          "internalType": "uint256",
          "name": "",
          "type": "uint256"
        }
      ],
      "stateMutability": "view",
      "type": "function"
    },
    {
      "inputs": [
        {
          "internalType": "address",
          "name": "_reserve",
          "type": "address"
        }
      ],
      "name": "getReserveTotalBorrowsStable",
      "outputs": [
        {
          "internalType": "uint256",
          "name": "",
          "type": "uint256"
        }
      ],
      "stateMutability": "view",
      "type": "function"
    },
    {
      "inputs": [
        {
          "internalType": "address",
          "name": "_reserve",
          "type": "address"
        }
      ],
      "name": "getReserveTotalBorrowsVariable",
      "outputs": [
        {
          "internalType": "uint256",
          "name": "",
          "type": "uint256"
        }
      ],
      "stateMutability": "view",
      "type": "function"
    },
    {
      "inputs": [
        {
          "internalType": "address",
          "name": "_reserve",
          "type": "address"
        }
      ],
      "name": "getReserveTotalLiquidity",
      "outputs": [
        {
          "internalType": "uint256",
          "name": "",
          "type": "uint256"
        }
      ],
      "stateMutability": "view",
      "type": "function"
    },
    {
      "inputs": [
        {
          "internalType": "address",
          "name": "_reserve",
          "type": "address"
        }
      ],
      "name": "getReserveUtilizationRate",
      "outputs": [
        {
          "internalType": "uint256",
          "name": "",
          "type": "uint256"
        }
      ],
      "stateMutability": "view",
      "type": "function"
    },
    {
      "inputs": [
        {
          "internalType": "address",
          "name": "_reserve",
          "type": "address"
        }
      ],
      "name": "getReserveVariableBorrowsCumulativeIndex",
      "outputs": [
        {
          "internalType": "uint256",
          "name": "",
          "type": "uint256"
        }
      ],
      "stateMutability": "view",
      "type": "function"
    },
    {
      "inputs": [],
      "name": "getReserves",
      "outputs": [
        {
          "internalType": "address[]",
          "name": "",
          "type": "address[]"
        }
      ],
      "stateMutability": "view",
      "type": "function"
    },
    {
      "inputs": [
        {
          "internalType": "address",
          "name": "_reserve",
          "type": "address"
        },
        {
          "internalType": "address",
          "name": "_user",
          "type": "address"
        }
      ],
      "name": "getUserBasicReserveData",
      "outputs": [
        {
          "internalType": "uint256",
          "name": "",
          "type": "uint256"
        },
        {
          "internalType": "uint256",
          "name": "",
          "type": "uint256"
        },
        {
          "internalType": "uint256",
          "name": "",
          "type": "uint256"
        },
        {
          "internalType": "bool",
          "name": "",
          "type": "bool"
        }
      ],
      "stateMutability": "view",
      "type": "function"
    },
    {
      "inputs": [
        {
          "internalType": "address",
          "name": "_reserve",
          "type": "address"
        },
        {
          "internalType": "address",
          "name": "_user",
          "type": "address"
        }
      ],
      "name": "getUserBorrowBalances",
      "outputs": [
        {
          "internalType": "uint256",
          "name": "",
          "type": "uint256"
        },
        {
          "internalType": "uint256",
          "name": "",
          "type": "uint256"
        },
        {
          "internalType": "uint256",
          "name": "",
          "type": "uint256"
        }
      ],
      "stateMutability": "view",
      "type": "function"
    },
    {
      "inputs": [
        {
          "internalType": "address",
          "name": "_reserve",
          "type": "address"
        },
        {
          "internalType": "address",
          "name": "_user",
          "type": "address"
        }
      ],
      "name": "getUserCurrentBorrowRateMode",
      "outputs": [
        {
          "internalType": "enum CoreLibrary.InterestRateMode",
          "name": "",
          "type": "uint8"
        }
      ],
      "stateMutability": "view",
      "type": "function"
    },
    {
      "inputs": [
        {
          "internalType": "address",
          "name": "_reserve",
          "type": "address"
        },
        {
          "internalType": "address",
          "name": "_user",
          "type": "address"
        }
      ],
      "name": "getUserCurrentStableBorrowRate",
      "outputs": [
        {
          "internalType": "uint256",
          "name": "",
          "type": "uint256"
        }
      ],
      "stateMutability": "view",
      "type": "function"
    },
    {
      "inputs": [
        {
          "internalType": "address",
          "name": "_reserve",
          "type": "address"
        },
        {
          "internalType": "address",
          "name": "_user",
          "type": "address"
        }
      ],
      "name": "getUserLastUpdate",
      "outputs": [
        {
          "internalType": "uint256",
          "name": "timestamp",
          "type": "uint256"
        }
      ],
      "stateMutability": "view",
      "type": "function"
    },
    {
      "inputs": [
        {
          "internalType": "address",
          "name": "_reserve",
          "type": "address"
        },
        {
          "internalType": "address",
          "name": "_user",
          "type": "address"
        }
      ],
      "name": "getUserOriginationFee",
      "outputs": [
        {
          "internalType": "uint256",
          "name": "",
          "type": "uint256"
        }
      ],
      "stateMutability": "view",
      "type": "function"
    },
    {
      "inputs": [
        {
          "internalType": "address",
          "name": "_reserve",
          "type": "address"
        },
        {
          "internalType": "address",
          "name": "_user",
          "type": "address"
        }
      ],
      "name": "getUserUnderlyingAssetBalance",
      "outputs": [
        {
          "internalType": "uint256",
          "name": "",
          "type": "uint256"
        }
      ],
      "stateMutability": "view",
      "type": "function"
    },
    {
      "inputs": [
        {
          "internalType": "address",
          "name": "_reserve",
          "type": "address"
        },
        {
          "internalType": "address",
          "name": "_user",
          "type": "address"
        }
      ],
      "name": "getUserVariableBorrowCumulativeIndex",
      "outputs": [
        {
          "internalType": "uint256",
          "name": "",
          "type": "uint256"
        }
      ],
      "stateMutability": "view",
      "type": "function"
    },
    {
      "inputs": [
        {
          "internalType": "address",
          "name": "_reserve",
          "type": "address"
        },
        {
          "internalType": "address",
          "name": "_aTokenAddress",
          "type": "address"
        },
        {
          "internalType": "uint256",
          "name": "_decimals",
          "type": "uint256"
        },
        {
          "internalType": "address",
          "name": "_interestRateStrategyAddress",
          "type": "address"
        }
      ],
      "name": "initReserve",
      "outputs": [],
      "stateMutability": "nonpayable",
      "type": "function"
    },
    {
      "inputs": [
        {
          "internalType": "contract LendingBoardAddressesProvider",
          "name": "_addressesProvider",
          "type": "address"
        }
      ],
      "name": "initialize",
      "outputs": [],
      "stateMutability": "nonpayable",
      "type": "function"
    },
    {
      "inputs": [
        {
          "internalType": "address",
          "name": "_reserve",
          "type": "address"
        }
      ],
      "name": "isReserveBorrowingEnabled",
      "outputs": [
        {
          "internalType": "bool",
          "name": "",
          "type": "bool"
        }
      ],
      "stateMutability": "view",
      "type": "function"
    },
    {
      "inputs": [
        {
          "internalType": "address",
          "name": "_reserve",
          "type": "address"
        }
      ],
      "name": "isReserveUsageAsCollateralEnabled",
      "outputs": [
        {
          "internalType": "bool",
          "name": "",
          "type": "bool"
        }
      ],
      "stateMutability": "view",
      "type": "function"
    },
    {
      "inputs": [
        {
          "internalType": "address",
          "name": "_reserve",
          "type": "address"
        },
        {
          "internalType": "address",
          "name": "_user",
          "type": "address"
        },
        {
          "internalType": "uint256",
          "name": "_amount",
          "type": "uint256"
        }
      ],
      "name": "isUserAllowedToBorrowAtStable",
      "outputs": [
        {
          "internalType": "bool",
          "name": "",
          "type": "bool"
        }
      ],
      "stateMutability": "view",
      "type": "function"
    },
    {
      "inputs": [
        {
          "internalType": "address",
          "name": "_reserve",
          "type": "address"
        },
        {
          "internalType": "address",
          "name": "_user",
          "type": "address"
        }
      ],
      "name": "isUserUseReserveAsCollateralEnabled",
      "outputs": [
        {
          "internalType": "bool",
          "name": "",
          "type": "bool"
        }
      ],
      "stateMutability": "view",
      "type": "function"
    },
    {
      "inputs": [],
      "name": "lendingPoolAddress",
      "outputs": [
        {
          "internalType": "address",
          "name": "",
          "type": "address"
        }
      ],
      "stateMutability": "view",
      "type": "function"
    },
    {
      "inputs": [
        {
          "internalType": "address",
          "name": "_token",
          "type": "address"
        },
        {
          "internalType": "uint256",
          "name": "_amount",
          "type": "uint256"
        },
        {
          "internalType": "address",
          "name": "_destination",
          "type": "address"
        }
      ],
      "name": "liquidateFee",
      "outputs": [],
      "stateMutability": "payable",
      "type": "function"
    },
    {
      "inputs": [],
      "name": "refreshConfiguration",
      "outputs": [],
      "stateMutability": "nonpayable",
      "type": "function"
    },
    {
      "inputs": [
        {
          "internalType": "address",
          "name": "_reserveToRemove",
          "type": "address"
        }
      ],
      "name": "removeLastAddedReserve",
      "outputs": [],
      "stateMutability": "nonpayable",
      "type": "function"
    },
    {
      "inputs": [
        {
          "internalType": "uint256",
          "name": "",
          "type": "uint256"
        }
      ],
      "name": "reservesList",
      "outputs": [
        {
          "internalType": "address",
          "name": "",
          "type": "address"
        }
      ],
      "stateMutability": "view",
      "type": "function"
    },
    {
      "inputs": [
        {
          "internalType": "address",
          "name": "_reserve",
          "type": "address"
        },
        {
          "internalType": "uint256",
          "name": "_ltv",
          "type": "uint256"
        }
      ],
      "name": "setReserveBaseLTVasCollateral",
      "outputs": [],
      "stateMutability": "nonpayable",
      "type": "function"
    },
    {
      "inputs": [
        {
          "internalType": "address",
          "name": "_reserve",
          "type": "address"
        },
        {
          "internalType": "uint256",
          "name": "_decimals",
          "type": "uint256"
        }
      ],
      "name": "setReserveDecimals",
      "outputs": [],
      "stateMutability": "nonpayable",
      "type": "function"
    },
    {
      "inputs": [
        {
          "internalType": "address",
          "name": "_reserve",
          "type": "address"
        },
        {
          "internalType": "address",
          "name": "_rateStrategyAddress",
          "type": "address"
        }
      ],
      "name": "setReserveInterestRateStrategyAddress",
      "outputs": [],
      "stateMutability": "nonpayable",
      "type": "function"
    },
    {
      "inputs": [
        {
          "internalType": "address",
          "name": "_reserve",
          "type": "address"
        },
        {
          "internalType": "uint256",
          "name": "_bonus",
          "type": "uint256"
        }
      ],
      "name": "setReserveLiquidationBonus",
      "outputs": [],
      "stateMutability": "nonpayable",
      "type": "function"
    },
    {
      "inputs": [
        {
          "internalType": "address",
          "name": "_reserve",
          "type": "address"
        },
        {
          "internalType": "uint256",
          "name": "_threshold",
          "type": "uint256"
        }
      ],
      "name": "setReserveLiquidationThreshold",
      "outputs": [],
      "stateMutability": "nonpayable",
      "type": "function"
    },
    {
      "inputs": [
        {
          "internalType": "address",
          "name": "_reserve",
          "type": "address"
        },
        {
          "internalType": "address",
          "name": "_user",
          "type": "address"
        },
        {
          "internalType": "bool",
          "name": "_useAsCollateral",
          "type": "bool"
        }
      ],
      "name": "setUserUseReserveAsCollateral",
      "outputs": [],
      "stateMutability": "nonpayable",
      "type": "function"
    },
    {
      "inputs": [
        {
          "internalType": "address",
          "name": "_token",
          "type": "address"
        },
        {
          "internalType": "address",
          "name": "_user",
          "type": "address"
        },
        {
          "internalType": "uint256",
          "name": "_amount",
          "type": "uint256"
        },
        {
          "internalType": "address",
          "name": "_destination",
          "type": "address"
        }
      ],
      "name": "transferToFeeCollectionAddress",
      "outputs": [],
      "stateMutability": "payable",
      "type": "function"
    },
    {
      "inputs": [
        {
          "internalType": "address",
          "name": "_reserve",
          "type": "address"
        },
        {
          "internalType": "address payable",
          "name": "_user",
          "type": "address"
        },
        {
          "internalType": "uint256",
          "name": "_amount",
          "type": "uint256"
        }
      ],
      "name": "transferToReserve",
      "outputs": [],
      "stateMutability": "payable",
      "type": "function"
    },
    {
      "inputs": [
        {
          "internalType": "address",
          "name": "_reserve",
          "type": "address"
        },
        {
          "internalType": "address payable",
          "name": "_user",
          "type": "address"
        },
        {
          "internalType": "uint256",
          "name": "_amount",
          "type": "uint256"
        }
      ],
      "name": "transferToUser",
      "outputs": [],
      "stateMutability": "nonpayable",
      "type": "function"
    },
    {
      "inputs": [
        {
          "internalType": "address",
          "name": "_reserve",
          "type": "address"
        }
      ],
      "name": "unfreezeReserve",
      "outputs": [],
      "stateMutability": "nonpayable",
      "type": "function"
    },
    {
      "inputs": [
        {
          "internalType": "address",
          "name": "_reserve",
          "type": "address"
        },
        {
          "internalType": "address",
          "name": "_user",
          "type": "address"
        },
        {
          "internalType": "uint256",
          "name": "_amountBorrowed",
          "type": "uint256"
        },
        {
          "internalType": "uint256",
          "name": "_borrowFee",
          "type": "uint256"
        },
        {
          "internalType": "enum CoreLibrary.InterestRateMode",
          "name": "_rateMode",
          "type": "uint8"
        }
      ],
      "name": "updateStateOnBorrow",
      "outputs": [
        {
          "internalType": "uint256",
          "name": "",
          "type": "uint256"
        },
        {
          "internalType": "uint256",
          "name": "",
          "type": "uint256"
        }
      ],
      "stateMutability": "nonpayable",
      "type": "function"
    },
    {
      "inputs": [
        {
          "internalType": "address",
          "name": "_reserve",
          "type": "address"
        },
        {
          "internalType": "address",
          "name": "_user",
          "type": "address"
        },
        {
          "internalType": "uint256",
          "name": "_amount",
          "type": "uint256"
        },
        {
          "internalType": "bool",
          "name": "_isFirstDeposit",
          "type": "bool"
        }
      ],
      "name": "updateStateOnDeposit",
      "outputs": [],
      "stateMutability": "nonpayable",
      "type": "function"
    },
    {
      "inputs": [
        {
          "internalType": "address",
          "name": "_reserve",
          "type": "address"
        },
        {
          "internalType": "uint256",
          "name": "_availableLiquidityBefore",
          "type": "uint256"
        },
        {
          "internalType": "uint256",
          "name": "_income",
          "type": "uint256"
        },
        {
          "internalType": "uint256",
          "name": "_protocolFee",
          "type": "uint256"
        }
      ],
      "name": "updateStateOnFlashLoan",
      "outputs": [],
      "stateMutability": "nonpayable",
      "type": "function"
    },
    {
      "inputs": [
        {
          "internalType": "address",
          "name": "_principalReserve",
          "type": "address"
        },
        {
          "internalType": "address",
          "name": "_collateralReserve",
          "type": "address"
        },
        {
          "internalType": "address",
          "name": "_user",
          "type": "address"
        },
        {
          "internalType": "uint256",
          "name": "_amountToLiquidate",
          "type": "uint256"
        },
        {
          "internalType": "uint256",
          "name": "_collateralToLiquidate",
          "type": "uint256"
        },
        {
          "internalType": "uint256",
          "name": "_feeLiquidated",
          "type": "uint256"
        },
        {
          "internalType": "uint256",
          "name": "_liquidatedCollateralForFee",
          "type": "uint256"
        },
        {
          "internalType": "uint256",
          "name": "_balanceIncrease",
          "type": "uint256"
        },
        {
          "internalType": "bool",
          "name": "_liquidatorReceivesAToken",
          "type": "bool"
        }
      ],
      "name": "updateStateOnLiquidation",
      "outputs": [],
      "stateMutability": "nonpayable",
      "type": "function"
    },
    {
      "inputs": [
        {
          "internalType": "address",
          "name": "_reserve",
          "type": "address"
        },
        {
          "internalType": "address",
          "name": "_user",
          "type": "address"
        },
        {
          "internalType": "uint256",
          "name": "_balanceIncrease",
          "type": "uint256"
        }
      ],
      "name": "updateStateOnRebalance",
      "outputs": [
        {
          "internalType": "uint256",
          "name": "",
          "type": "uint256"
        }
      ],
      "stateMutability": "nonpayable",
      "type": "function"
    },
    {
      "inputs": [
        {
          "internalType": "address",
          "name": "_reserve",
          "type": "address"
        },
        {
          "internalType": "address",
          "name": "_user",
          "type": "address"
        },
        {
          "internalType": "uint256",
          "name": "_amountRedeemed",
          "type": "uint256"
        },
        {
          "internalType": "bool",
          "name": "_userRedeemedEverything",
          "type": "bool"
        }
      ],
      "name": "updateStateOnRedeem",
      "outputs": [],
      "stateMutability": "nonpayable",
      "type": "function"
    },
    {
      "inputs": [
        {
          "internalType": "address",
          "name": "_reserve",
          "type": "address"
        },
        {
          "internalType": "address",
          "name": "_user",
          "type": "address"
        },
        {
          "internalType": "uint256",
          "name": "_paybackAmountMinusFees",
          "type": "uint256"
        },
        {
          "internalType": "uint256",
          "name": "_originationFeeRepaid",
          "type": "uint256"
        },
        {
          "internalType": "uint256",
          "name": "_balanceIncrease",
          "type": "uint256"
        },
        {
          "internalType": "bool",
          "name": "_repaidWholeLoan",
          "type": "bool"
        }
      ],
      "name": "updateStateOnRepay",
      "outputs": [],
      "stateMutability": "nonpayable",
      "type": "function"
    },
    {
      "inputs": [
        {
          "internalType": "address",
          "name": "_reserve",
          "type": "address"
        },
        {
          "internalType": "address",
          "name": "_user",
          "type": "address"
        },
        {
          "internalType": "uint256",
          "name": "_principalBorrowBalance",
          "type": "uint256"
        },
        {
          "internalType": "uint256",
          "name": "_compoundedBorrowBalance",
          "type": "uint256"
        },
        {
          "internalType": "uint256",
          "name": "_balanceIncrease",
          "type": "uint256"
        },
        {
          "internalType": "enum CoreLibrary.InterestRateMode",
          "name": "_currentRateMode",
          "type": "uint8"
        }
      ],
      "name": "updateStateOnSwapRate",
      "outputs": [
        {
          "internalType": "enum CoreLibrary.InterestRateMode",
          "name": "",
          "type": "uint8"
        },
        {
          "internalType": "uint256",
          "name": "",
          "type": "uint256"
        }
      ],
      "stateMutability": "nonpayable",
      "type": "function"
    }
  ],
  "bytecode": "0x6080806040523461001a57600080556148f890816100208239f35b600080fdfe60806040526004361015610013575b600080fd5b60003560e01c806305075d6e146105b35780630902f1ac146105aa57806309ac2953146105a15780630c7de4e91461059857806318a4dbca1461058f57806318f9bbae146105865780631ca19f191461057d5780631d2118f91461057457806328fcf4d31461056b5780633443a14b1461056257806334b3beee1461055957806337ac6fe4146105505780633e72a4541461054757806345330a401461053e57806346bc0f28146105355780634a08accb1461052c5780634f144609146105235780634fe7a6e51461051a5780635cf2e656146105115780635fc526ff1461050857806364681083146104ff57806366bbd928146104f657806366d103f3146104ed57806368beb4d6146104e45780636ae14416146104db5780636fffab0c146104d257806370fb84f4146104c95780637aca76eb146104c05780637f90fec5146104b757806388079d88146104ae5780638f385c22146104a5578063906c0a411461049c57806398bd4737146104935780639e3c4f3b1461048a5780639e674848146104815780639fb8afcd14610478578063a2353fdc1461046f578063a5bc826c14610466578063a8dc0f451461045d578063af825b0714610454578063afcdbea31461044b578063b701d09314610442578063b75d6f3414610439578063b8c0f74514610430578063bcd6ffa414610427578063bd7fd79a1461041e578063bfacad8414610415578063c33cfd901461040c578063c4d66de814610403578063c540148e146103fa578063c72c4d10146103f1578063c76a6c9c146103e8578063c7d14237146103df578063d06e2ec1146103d6578063d15e0053146103cd578063d3ae26b3146103c4578063d466016f146103bb578063da12d96f146103b2578063dae4c4e7146103a9578063e10076ad146103a0578063e2174d8614610397578063e24030191461038e578063e6d1819014610385578063e8ae2f5b1461037c578063eede87c114610373578063ef1f93731461036a578063f054ab4614610361578063f614831114610358578063f6ea8d761461034f578063fa51854c14610346578063fa93b2a51461033d5763feab31ac1461033557600080fd5b61000e612e7b565b5061000e612e0e565b5061000e612d95565b5061000e612d55565b5061000e612bf8565b5061000e612b9e565b5061000e612b1c565b5061000e612a50565b5061000e612998565b5061000e61295b565b5061000e612933565b5061000e61290f565b5061000e6128d0565b5061000e612848565b5061000e61274c565b5061000e6126cd565b5061000e6126a3565b5061000e612629565b5061000e612496565b5061000e612384565b5061000e612343565b5061000e612319565b5061000e6122d8565b5061000e6121ea565b5061000e6121a0565b5061000e612178565b5061000e61213a565b5061000e612096565b5061000e612014565b5061000e611efb565b5061000e611eba565b5061000e611c6c565b5061000e611b19565b5061000e611a31565b5061000e61195f565b5061000e61191e565b5061000e6118f1565b5061000e6118a8565b5061000e611880565b5061000e61183f565b5061000e611817565b5061000e61172b565b5061000e611655565b5061000e611614565b5061000e61158c565b5061000e61150d565b5061000e6114c2565b5061000e61147f565b5061000e611355565b5061000e6112f9565b5061000e61127a565b5061000e6111ef565b5061000e611182565b5061000e611139565b5061000e6110ef565b5061000e61105a565b5061000e611011565b5061000e610fd0565b5061000e610eb7565b5061000e610dff565b5061000e610c1b565b5061000e610bba565b5061000e610b3b565b5061000e610a40565b5061000e610968565b5061000e61093f565b5061000e6108c9565b5061000e6108a7565b5061000e610862565b5061000e610701565b5061000e610621565b5061000e6105cd565b6001600160a01b0381160361000e57565b503461000e57602036600319011261000e576004356105eb816105bc565b60018060a01b03166000526036602052602060ff600d6040600020015460e01c166040519015158152f35b600091031261000e57565b503461000e576000806003193601126106d75760405180916038549081835260208093018092603883526000805160206148a383398151915290835b8181106106ba5750505084610673910385613002565b60405193838594850191818652518092526040850193925b82811061069a57505050500390f35b83516001600160a01b03168552869550938101939281019260010161068b565b82546001600160a01b03168452928601926001928301920161065d565b80fd5b608090600319011261000e576004356106f2816105bc565b90602435906044359060643590565b503461000e576108026107fd6107e0610719366106da565b9181959394919260018060a01b039061073782603454163314612eb6565b603554604051637744894b60e11b81528391602090829060049082906001600160a01b03165afa908115610855575b600091610827575b501691871673eeeeeeeeeeeeeeeeeeeeeeeeeeeeeeeeeeeeeeee81146108045791610798926130b7565b6001600160a01b03851660009081526036602052604090206107b990614211565b6001600160a01b03851660009081526036602052604090206107da906146d4565b90612f86565b6001600160a01b0384166000908152603660205260409020614284565b613e38565b005b50600080610822938193604051915af161081c613024565b50614065565b610798565b610848915060203d811161084e575b6108408183613002565b8101906137da565b3861076e565b503d610836565b61085d61350b565b610766565b503461000e57600036600319011261000e57602060405160068152f35b604090600319011261000e57600435610897816105bc565b906024356108a4816105bc565b90565b503461000e5760206108c16108bb3661087f565b90613518565b604051908152f35b503461000e57602036600319011261000e576004356108e7816105bc565b60018060a01b03166000526036602052602060ff600d6040600020015460d01c166040519015158152f35b6003111561091c57565b634e487b7160e01b600052602160045260246000fd5b90600382101561091c5752565b503461000e5760206109596109533661087f565b906136aa565b6109666040518092610932565bf35b503461000e5761080261097a3661087f565b9060018060a01b03906109bc600460208460355416604051928380926329f2549760e21b82525afa908115610a07575b6000916109e9575b50831633146137ef565b166000526036602052600d6040600020019060018060a01b03166001600160601b0360a01b825416179055565b610a01915060203d811161084e576108408183613002565b386109b2565b610a0f61350b565b6109aa565b606090600319011261000e57600435610a2c816105bc565b90602435610a39816105bc565b9060443590565b50610a4a36610a14565b9060018060a01b038093610a6382603454163314612eb6565b1673eeeeeeeeeeeeeeeeeeeeeeeeeeeeeeeeeeeeeeee8114610af15734610a9157610802933092169061335f565b60405162461bcd60e51b815260206004820152603260248201527f557365722069732073656e64696e672045544820616c6f6e672077697468207460448201527134329022a9219918103a3930b739b332b91760711b6064820152608490fd5b5091813410610b0081156132f5565b823411610b0957005b6108029360009384938493610b2e575b60405192165af1610b28613024565b50613072565b610b36612f15565b610b19565b503461000e57604036600319011261000e57600435610b59816105bc565b6035546040516329f2549760e21b81526001600160a01b039291610b9e91906020908290600490829088165afa908115610a07576000916109e95750831633146137ef565b1660005260366020526024356009604060002001556000604051f35b503461000e57602036600319011261000e576020600435610bda816105bc565b60018060a01b0380911660005260368252600c6040600020015416604051908152f35b60843590600382101561000e57565b60a43590600382101561000e57565b503461000e5760a036600319011261000e57600435610c39816105bc565b60243590610c46826105bc565b60443591610c52610bfd565b9160018060a01b0393610c6a85603454163314612eb6565b610c74838361376b565b96905083166000526036602052610c8e6040600020614211565b610d1682610d1188610ca088886136aa565b6001600160a01b03881660009081526036602052604090209590610cc381610912565b60018103610de45750610d116003610d088a610cf18d60018060a01b03166000526037602052604060002090565b9060018060a01b0316600052602052604060002090565b01548288614445565b612f86565b610d1f86610912565b60018603610d6e57610d5995610d4283610d4e936005610d549796015491614382565b606435888488886139af565b82613fdd565b6136f1565b604080519182526020820192909252f35b0390f35b610d7a86939293610912565b60028603610d9b57610d5995610d96610d4e92610d54956144fd565b610d42565b60405162461bcd60e51b815260206004820152601c60248201527f496e76616c6964206e657720626f72726f772072617465206d6f6465000000006044820152606490fd5b0390fd5b80610df0600292610912565b03612f8657610d11818761450c565b503461000e57602036600319011261000e57600435610e1d816105bc565b6035546040516329f2549760e21b81526001600160a01b039291610e6291906020908290600490829088165afa908115610a07576000916109e95750831633146137ef565b166000908152603660205260409020600d01805460ff60e01b19169055005b608090600319011261000e57600435610e99816105bc565b90602435610ea6816105bc565b90604435906064356108a4816105bc565b503461000e57610ec636610e81565b92919060018060a01b0391610f0a600460208560355416604051928380926329f2549760e21b82525afa908115610fc3575b600091610fa5575b50841633146137ef565b828416600052603660205260406000209473__$2ec35834968386f54fa313129cf94664e4$__95863b1561000e57610802968560849360009660405198899788966304dda73560e21b8852600488015216602486015260448501521660648301525af48015610f98575b610f7f575b50614136565b80610f8c610f9292612fa9565b80610616565b38610f79565b610fa061350b565b610f74565b610fbd915060203d811161084e576108408183613002565b38610f00565b610fcb61350b565b610ef8565b503461000e57602036600319011261000e57600435610fee816105bc565b60018060a01b031660005260366020526020600660406000200154604051908152f35b503461000e57602036600319011261000e5760043561102f816105bc565b60018060a01b03166000526036602052602060ff600d6040600020015460e81c166040519015158152f35b503461000e57602036600319011261000e57600435611078816105bc565b60018060a01b03166000526036602052602064ffffffffff600d6040600020015460a01c16604051908152f35b50634e487b7160e01b600052603260045260246000fd5b6038548110156110e2575b60386000526000805160206148a38339815191520190600090565b6110ea6110a5565b6110c7565b503461000e57602036600319011261000e5760043560385481101561000e5760386000526000805160206148a383398151915201546040516001600160a01b039091168152602090f35b503461000e57602036600319011261000e57600435611157816105bc565b60018060a01b03166000526036602052602060ff600d6040600020015460c81c166040519015158152f35b503461000e57602036600319011261000e576004356111a0816105bc565b6001600160a01b0316600090815260366020908152604091829020600b81015460088201546009830154600d909301548551928352938201529283015260d01c60ff1615156060820152608090f35b503461000e57600036600319011261000e576035546040516329f2549760e21b8152611245916001600160a01b03906020908390600490829085165afa91821561126d575b60009261124d575b501633146137ef565b6108026140bd565b61126691925060203d811161084e576108408183613002565b903861123c565b61127561350b565b611234565b503461000e57604036600319011261000e57600435611298816105bc565b6035546040516329f2549760e21b81526001600160a01b0392916112dd91906020908290600490829088165afa908115610a07576000916109e95750831633146137ef565b166000526036602052602435600b604060002001556000604051f35b503461000e57602064ffffffffff60046113406113153661087f565b60018060a01b03166000526037855260406000209060018060a01b0316600052602052604060002090565b015416604051908152f35b8015150361000e57565b503461000e5761012036600319011261000e57600435611374816105bc565b60243590611381826105bc565b61144660443591611391836105bc565b606435906107fd60e43561010435956113a98761134b565b6034546001600160a01b03906113c29082163314612eb6565b84811660009081526036602090815260408083209385168352603782528083206001600160a01b03891684529091529020906113fd81614211565b86600161140a85896136aa565b61141381610912565b03611465576003611432930161142b81548785614382565b5491614445565b61143b88613c8b565b8460a4359185613cab565b1561144d57005b6108029061145f60c435608435612f86565b90613fdd565b9061147a925061147585826144fd565b61450c565b611432565b503461000e57602036600319011261000e57602060043561149f816105bc565b60018060a01b0380911660005260368252600d6040600020015416604051908152f35b503461000e57602060036115036114d83661087f565b60018060a01b03166000526037845260406000209060018060a01b0316600052602052604060002090565b0154604051908152f35b503461000e57604036600319011261000e5760043561152b816105bc565b6035546040516329f2549760e21b81526001600160a01b03929161157091906020908290600490829088165afa908115610a07576000916109e95750831633146137ef565b166000526036602052602435600a604060002001556000604051f35b503461000e57602036600319011261000e576004356115aa816105bc565b6035546040516329f2549760e21b81526001600160a01b0392916115ef91906020908290600490829088165afa908115610a07576000916109e95750831633146137ef565b166000908152603660205260409020600d01805460ff60e81b1916600160e81b179055005b503461000e57602036600319011261000e57600435611632816105bc565b60018060a01b031660005260366020526020600260406000200154604051908152f35b503461000e57602036600319011261000e57600435611673816105bc565b60018060a01b03166000526036602052610d6a600560406000206116da60405161169c81612fca565b602681527f2020203d3e204c4243203a204f7261636c652043757272656e746c7920446973602082015265030b13632b2160d51b60408201526147ba565b015461171b816040516116ec81612fe6565b601d81527f43757272656e7420537461626c6520426f72726f772052617465203a200000006020820152614811565b6040519081529081906020820190565b50606036600319011261000e57600435611744816105bc565b602435604435611753816105bc565b6034546001600160a01b0391829161176e9083163314612eb6565b1692346117b3571673eeeeeeeeeeeeeeeeeeeeeeeeeeeeeeeeeeeeeeee811461179b5791610802926130b7565b50600080610802938193604051915af1610b28613024565b60405162461bcd60e51b815260206004820152603660248201527f466565206c69717569646174696f6e20646f6573206e6f74207265717569726560448201527520616e79207472616e73666572206f662076616c756560501b6064820152608490fd5b503461000e57602036600319011261000e5760206108c160043561183a816105bc565b613609565b503461000e57602036600319011261000e5760043561185d816105bc565b60018060a01b031660005260366020526020600360406000200154604051908152f35b503461000e57602060ff60046118986113153661087f565b015460281c166040519015158152f35b503461000e57602036600319011261000e576004356118c6816105bc565b60018060a01b03166000526036602052602060ff600d6040600020015460d81c166040519015158152f35b503461000e57606061190b6119053661087f565b9061376b565b9060405192835260208301526040820152f35b503461000e57602036600319011261000e5760043561193c816105bc565b60018060a01b031660005260366020526020600b60406000200154604051908152f35b503461000e5761196e366106da565b91909260018060a01b03906119b0600460208460355416604051928380926329f2549760e21b82525afa908115610a07576000916109e95750831633146137ef565b16600052603660205260406000209173__$2ec35834968386f54fa313129cf94664e4$__92833b1561000e57600093608492604051968795869463126ee27360e11b865260048601526024850152604484015260648301525af48015611a24575b611a1757005b80610f8c61080292612fa9565b611a2c61350b565b611a11565b503461000e57600060203660031901126106d757600435611a51816105bc565b6035546040516329f2549760e21b81526001600160a01b039291611a9691906020908290600490829088165afa908115611b0c575b85916109e95750831633146137ef565b1681526036602052604081208173__$2ec35834968386f54fa313129cf94664e4$__91823b15611b08576024604051809481936372efab5360e11b835260048301525af48015611afb575b611aec575b50604051f35b611af590612fa9565b38611ae6565b611b0361350b565b611ae1565b5080fd5b611b1461350b565b611a86565b503461000e57610d6a6003611c24611c01610cf1611b3636610a14565b603454929491926001600160a01b0391600591611b569084163314612eb6565b611bdf60408489169489611bad89868f611b9c6000968c8852603660205288882094169586885260376020528888209060018060a01b0316600052602052604060002090565b611ba584614211565b015491614382565b8152603760209081528282206001600160a01b038c166000908152915260409020958152603660205220918454612f86565b8355015487820155600401805464ffffffffff19164264ffffffffff16179055565b611c0a83614024565b6001600160a01b0316600090815260376020526040902090565b01546040519081529081906020820190565b608090600319011261000e57600435611c4e816105bc565b90602435611c5b816105bc565b90604435906064356108a48161134b565b503461000e57611c7b36611c36565b91909260018060a01b0392611c9584603454163314612eb6565b8382167f04e4f521f16fcfd987978b05504262c2a2db223844977aab000e5accedb2d7256000968288526036602052611cd060408920614211565b6001600160a01b038581166000908152603660205260409020600d8101805490921692606090611d1990611d0b86611d06613d7b565b614854565b611d148a6135a0565b6133d4565b60028301546003840154600685015460405163057e37af60e41b81526001600160a01b038d166004820152602481019490945260448401929092526064830152608482015293849060a49082908d165afa908115611ead575b8a928b948c93611e6a575b5090611dda611e0d9392611d9886611d93613dd9565b614811565b856001840155866005840155836004840155611dba611db5613e08565b6147ba565b805464ffffffffff60a01b19164260a01b64ffffffffff60a01b16179055565b6007815491015491604051958695869192608093969594919660a084019784526020840152604083015260608201520152565b0390a2611e1b575b83604051f35b600492611e5492611e3133836034541614612eb6565b1684526037602052604084209060018060a01b0316600052602052604060002090565b01805465ff000000000019169055388080611e15565b611e9791929550611dda9450611e0d935060603d8111611ea6575b611e8f8183613002565b810190613dbe565b95919490959350919091611d7d565b503d611e85565b611eb561350b565b611d72565b503461000e57602036600319011261000e57600435611ed8816105bc565b60018060a01b031660005260366020526020600760406000200154604051908152f35b503461000e5760208060031936011261000e57600435611f1a816105bc565b6035546040516329f2549760e21b81526001600160a01b039291611f5f919085908290600490829088165afa908115612007575b600091611ff05750831633146137ef565b16600052603681526040600020908154151580611fe3575b15611f9357600d8201805460ff60e01b1916600160e01b179055005b6084906040519062461bcd60e51b825260048201526024808201527f5265736572766520686173206e6f74206265656e20696e697469616c697a6564604482015263081e595d60e21b6064820152fd5b5060078201541515611f77565b610a019150853d871161084e576108408183613002565b61200f61350b565b611f4e565b503461000e57602036600319011261000e57600435612032816105bc565b6035546040516329f2549760e21b81526001600160a01b03929161207791906020908290600490829088165afa908115610a07576000916109e95750831633146137ef565b166000908152603660205260409020600d01805460ff60d81b19169055005b503461000e576120a536611c36565b6034546001600160a01b0394926120e1916120c39087163314612eb6565b85841660005260366020526120db6040600020614211565b83613e38565b6120e757005b600492612122926120fd33836034541614612eb6565b16600052603760205260406000209060018060a01b0316600052602052604060002090565b01805465ff0000000000191665010000000000179055005b503461000e57602036600319011261000e57600435612158816105bc565b60018060a01b031660005260366020526020604060002054604051908152f35b503461000e57602036600319011261000e5760206108c160043561219b816105bc565b613666565b503461000e57602036600319011261000e5760206108c16004356121c3816105bc565b60018060a01b038116600052603683526107da6121e46040600020926135a0565b916146d4565b503461000e57602036600319011261000e57600435612208816105bc565b60ff6001541690811591826122cf575b80156122c3575b1561226757612232908261224757612e91565b61223857005b61080260ff1960015416600155565b612258600160ff1981541617600155565b6122626006600055565b612e91565b60405162461bcd60e51b815260206004820152602e60248201527f436f6e747261637420696e7374616e63652068617320616c726561647920626560448201526d195b881a5b9a5d1a585b1a5e995960921b6064820152608490fd5b5060005460061161221f565b50303b15612218565b503461000e57602036600319011261000e576004356122f6816105bc565b60018060a01b031660005260366020526020600160406000200154604051908152f35b503461000e57600036600319011261000e576035546040516001600160a01b039091168152602090f35b503461000e57602036600319011261000e57600435612361816105bc565b60018060a01b031660005260366020526020600a60406000200154604051908152f35b5061238e36610e81565b603454929391926001600160a01b039182916123ad9083163314612eb6565b1691169273eeeeeeeeeeeeeeeeeeeeeeeeeeeeeeeeeeeeeeee84141560001461246f57346123de576108029361335f565b60405162461bcd60e51b815260206004820152605f60248201527f557365722069732073656e64696e672045544820616c6f6e672077697468207460448201527f6865204552433230207472616e736665722e20436865636b207468652076616c60648201527f756520617474726962757465206f6620746865207472616e73616374696f6e00608482015260a490fd5b50610802925060008092918261248883943410156132f5565b604051915af1610b28613024565b503461000e57602036600319011261000e576125f6600d6125956004356124bc816105bc565b6035546040516329f2549760e21b815261253c916001600160a01b0391612505916020908290600490829087165afa90811561261c575b6000916125fe575b50821633146137ef565b8061253161251c6125176038546133b7565b6110bc565b905460039190911b1c6001600160a01b031690565b931690831614613861565b6001600160a01b038116600090815260366020526040902061256790612561906146d4565b156138d3565b6001600160a01b0381166000908152603660205260409020838101805460ff60e01b191690556125a690600c905b0180546001600160a01b0319169055565b6001600160a01b03166000908152603660205260408120600b810182905581815560078101829055838101805461ffff60c81b191690556008810182905560098101829055600a81019190915590565b610802613938565b612616915060203d811161084e576108408183613002565b386124fb565b61262461350b565b6124f3565b503461000e57602036600319011261000e57600435612647816105bc565b60018060a01b031660005260366020526020676765c793fa10079d601b1b61269a612695604060002061268d600182015464ffffffffff600d84015460a01c16906145a2565b90549061470d565b612f6d565b04604051908152f35b503461000e57600036600319011261000e576034546040516001600160a01b039091168152602090f35b503461000e57604036600319011261000e576004356126eb816105bc565b6035546040516329f2549760e21b81526001600160a01b03929161273091906020908290600490829088165afa908115610a07576000916109e95750831633146137ef565b1660005260366020526024356008604060002001556000604051f35b503461000e5760c036600319011261000e57604061282e60043561276f816105bc565b6024359061277c826105bc565b6107fd6044359260843560a435916127938361134b565b8460018060a01b036127aa81603454163314612eb6565b87600182841661280260009d8e8381526036602052818120968916815260376020526127f4896127ee8a8585209060018060a01b0316600052602052604060002090565b996136aa565b938152603660205220614211565b61280b81610912565b03612833576003612823930161142b81548785614382565b856064359186613ac1565b604051f35b90612843925061147585826144fd565b612823565b503461000e57602036600319011261000e57600435612866816105bc565b6035546040516329f2549760e21b81526001600160a01b0392916128ab91906020908290600490829088165afa908115610a07576000916109e95750831633146137ef565b166000908152603660205260409020600d01805460ff60d81b1916600160d81b179055005b503461000e57610d6a6128eb6128e53661087f565b906133eb565b60408051948552602085019390935291830152151560608201529081906080820190565b503461000e57602061292961292336610a14565b91613468565b6040519015158152f35b503461000e57602036600319011261000e5760206108c1600435612956816105bc565b6135a0565b503461000e57602036600319011261000e57600435612979816105bc565b60018060a01b0316600052603660205260206108c160406000206146d4565b503461000e57600060203660031901126106d7576004356129b8816105bc565b6035546040516329f2549760e21b81526001600160a01b0392916129fc91906020908290600490829088165afa908115611b0c5785916109e95750831633146137ef565b1681526036602052604081208173__$2ec35834968386f54fa313129cf94664e4$__91823b15611b085760246040518094819363041e0b2d60e51b835260048301525af48015611afb57611aec5750604051f35b503461000e57604036600319011261000e57600435612a6e816105bc565b60243590612a7b8261134b565b6035546040516329f2549760e21b81526001600160a01b039291612ac091906020908290600490829088165afa908115610a07576000916109e95750831633146137ef565b166000526036602052604060002073__$2ec35834968386f54fa313129cf94664e4$__91823b1561000e5760446000926040519485938492637b1dd5df60e11b84526004840152151560248301525af48015611a2457611a1757005b503461000e57602036600319011261000e57600435612b3a816105bc565b6035546040516329f2549760e21b81526001600160a01b039291612b7f91906020908290600490829088165afa908115610a07576000916109e95750831633146137ef565b166000908152603660205260409020600d01805460ff60e81b19169055005b503461000e57602036600319011261000e57600435612bbc816105bc565b60018060a01b031660005260366020526020600960406000200154604051908152f35b60209093929193612bf4816040810196610932565b0152565b503461000e5760c036600319011261000e57600435612c16816105bc565b602435612c22816105bc565b60443590606435612c31610c0c565b9260018060a01b03612c4881603454163314612eb6565b85166000526036602052604060002090612c7886610cf18660018060a01b03166000526037602052604060002090565b612c8183614211565b612c8a86610912565b60018603612cd75792612cc79592612cae612cb3936003612cbd9701549083614445565b6144fd565b6084358386613b7a565b92610d5481614024565b90610d6a60405192839283612bdf565b509390612ce382610912565b60028203612d1057612cc794612cbd9382612d066005612d0b950154938261450c565b614382565b612cb3565b60405162461bcd60e51b815260206004820152601a60248201527f496e76616c69642072617465206d6f64652072656365697665640000000000006044820152606490fd5b503461000e5760206001611503612d6b3661087f565b838060a01b03166000526037845260406000209060018060a01b0316600052602052604060002090565b503461000e57606036600319011261000e57600435612db3816105bc565b6004612dec60243592612dc5846105bc565b60443593612dd28561134b565b6034546001600160a01b0391906120fd9083163314612eb6565b01805465ff0000000000191691151560281b65ff000000000016919091179055005b503461000e57612e1d36610a14565b909160018060a01b038091612e3782603454163314612eb6565b169073eeeeeeeeeeeeeeeeeeeeeeeeeeeeeeeeeeeeeeee8214612e5f576108029316906130b7565b6000928392509361080294839260405192165af1610b28613024565b503461000e57602060026115036114d83661087f565b60018060a01b03166001600160601b0360a01b6035541617603555612eb46140bd565b565b15612ebd57565b60405162461bcd60e51b815260206004820152602a60248201527f5468652063616c6c6572206d7573742062652061206c656e64696e6720706f6f6044820152691b0818dbdb9d1c9858dd60b21b6064820152608490fd5b50634e487b7160e01b600052601160045260246000fd5b676765c793fa10079d601b1b906b033b2e3c9fd0803ce8000000198111612f51570190565b612f59612f15565b0190565b6001906001198111612f51570190565b6b019d971e4fe8401e7400000081198111612f51570190565b81198111612f51570190565b50634e487b7160e01b600052604160045260246000fd5b67ffffffffffffffff8111612fbd57604052565b612fc5612f92565b604052565b6060810190811067ffffffffffffffff821117612fbd57604052565b6040810190811067ffffffffffffffff821117612fbd57604052565b90601f8019910116810190811067ffffffffffffffff821117612fbd57604052565b3d1561306d573d9067ffffffffffffffff8211613060575b60405191613054601f8201601f191660200184613002565b82523d6000602084013e565b613068612f92565b61303c565b606090565b1561307957565b60405162461bcd60e51b8152602060048201526016602482015275151c985b9cd9995c881bd9881155120819985a5b195960521b6044820152606490fd5b60405163a9059cbb60e01b60208201526001600160a01b039092166024830152604480830193909352918152612eb4916080820167ffffffffffffffff811183821017613107575b604052613114565b61310f612f92565b6130ff565b604051613172916001600160a01b031661312d82612fe6565b6000806020958685527f5361666545524332303a206c6f772d6c6576656c2063616c6c206661696c656487860152868151910182855af161316c613024565b91613202565b80518281159182156131e2575b505090501561318b5750565b6084906040519062461bcd60e51b82526004820152602a60248201527f5361666545524332303a204552433230206f7065726174696f6e20646964206e6044820152691bdd081cdd58d8d9595960b21b6064820152fd5b838092935001031261000e578101516131fa8161134b565b80823861317f565b919290156132645750815115613216575090565b3b1561321f5790565b60405162461bcd60e51b815260206004820152601d60248201527f416464726573733a2063616c6c20746f206e6f6e2d636f6e74726163740000006044820152606490fd5b8251909150156132775750805190602001fd5b60405162461bcd60e51b8152908190610de090600483016132e4565b91908251928382526000905b8482106132cc5750928060209394116132bf575b601f01601f1916010190565b60008382840101526132b3565b9060209081808285010151908286010152019061329f565b9060206108a4928181520190613293565b156132fc57565b60405162461bcd60e51b815260206004820152603560248201527f54686520616d6f756e7420616e64207468652076616c75652073656e7420746f604482015274040c8cae0dee6d2e840c8de40dcdee840dac2e8c6d605b1b6064820152608490fd5b6040516323b872dd60e01b60208201526001600160a01b039283166024820152929091166044830152606480830193909352918152612eb49160a0820182811067ffffffffffffffff82111761310757604052613114565b600181106133c7575b6000190190565b6133cf612f15565b6133c0565b8181106133df570390565b6133e7612f15565b0390565b6001600160a01b0381811660008181526036602090815260408083209487168352603782528083209383529290529081209390926134299190613518565b91835415613454575061343c90836142bd565b9260ff6004600285015494015460281c169193929190565b9260ff91506004015460281c169092829190565b6001600160a01b03818116600081815260366020908152604080832094871683526037825280832093835292905220600d909101549392919060d885901c60ff16156134f2576004015460281c60ff16159384156134e3575b5083156134cf575b50505090565b6134da929350613518565b103880806134c9565b60d01c60ff16159350386134c1565b5050505050600090565b9081602091031261000e575190565b506040513d6000823e3d90fd5b6001600160a01b03908116600090815260366020908152604091829020600c015491516370a0823160e01b815293831660048501529183916024918391165afa908115613593575b60009161356b575090565b6108a4915060203d811161358c575b6135848183613002565b8101906134fc565b503d61357a565b61359b61350b565b613560565b6000906001600160a01b031673eeeeeeeeeeeeeeeeeeeeeeeeeeeeeeeeeeeeeeee81036135cd5750504790565b6020602491604051928380926370a0823160e01b82523060048301525afa9182156135fc575b9161356b575090565b61360461350b565b6135f3565b6001600160a01b03908116600090815260366020526040902060048101549190821561363457505090565b600d01546040516334762ca560e01b8152925060209183916004918391165afa9081156135935760009161356b575090565b6001600160a01b0381166000908152603660205260409020613687906146d4565b80156136a35761369d81610d116108a4946135a0565b9061473d565b5050600090565b6001600160a01b03918216600090815260376020908152604080832093909416825291909152208054156136eb5760030154156136e657600190565b600290565b50600090565b906136fc81836136aa565b600381101561091c5780156137635780613717600192610912565b03613744576001600160a01b0316600090815260376020526040902060039161373f91610cf1565b015490565b506001600160a01b031660009081526036602052604090206004015490565b505050600090565b6001600160a01b0391821660009081526037602090815260408083208585168452909152812091939282549485156137ce571681526036602052604090206137b2916142bd565b908282106137c1575b82820390565b6137c9612f15565b6137bb565b50509192505080918190565b9081602091031261000e57516108a4816105bc565b156137f657565b60405162461bcd60e51b815260206004820152603760248201527f5468652063616c6c6572206d7573742062652061206c656e64696e6720706f6f60448201527f6c20636f6e666967757261746f7220636f6e74726163740000000000000000006064820152608490fd5b1561386857565b60405162461bcd60e51b815260206004820152603d60248201527f52657365727665206265696e672072656d6f766564206973206469666665726560448201527f6e74207468616e207468652072657365727665207265717565737465640000006064820152608490fd5b156138da57565b60405162461bcd60e51b815260206004820152603060248201527f43616e6e6f742072656d6f7665206120726573657276652077697468206c697160448201526f1d5a591a5d1e4819195c1bdcda5d195960821b6064820152608490fd5b6038548015613999577f38395c5dceade9603479b177b68959049485df8aa97b39f3533039af5f4561986000198201918083101561398c575b6038600052016001600160601b0360a01b8154169055603855565b6139946110a5565b613971565b634e487b7160e01b600052603160045260246000fd5b6001600160a01b0381811660009081526036602090815260408083209590931682526037905220939594936139e49190610cf1565b936139ee81610912565b60018103613a48575093610d11613a1b926005612eb49701546003870155600060018701555b8554612f86565b8255613a2c60028301918254612f86565b9055600401805464ffffffffff19164264ffffffffff16179055565b80613a57600292979397610912565b03613a7c57610d11613a1b926007612eb4976000600389015501546001870155613a14565b60405162461bcd60e51b815260206004820152601860248201527f496e76616c696420626f72726f772072617465206d6f646500000000000000006044820152606490fd5b6001600160a01b0390811660008181526036602090815260408083209490951682526037815284822092825291909152918220612eb496929360079291613b0a90978854612f86565b818110613b6d575b03865501549060018501918255613b5f575b505060028201908154818110613b52575b039055600401805464ffffffffff19164264ffffffffff16179055565b613b5a612f15565b613b35565b816003850155553880613b24565b613b75612f15565b613b12565b90613b9e82610cf1613bba9360018060a01b03166000526037602052604060002090565b6001600160a01b03909216600090815260366020526040902090565b92613bc481610912565b60028103613c0a5750613bee6108a4926005600195015460038401556000858401555b8254612f86565b8155600401805464ffffffffff19164264ffffffffff16179055565b80613c16600192610912565b03613c3a57613bee6108a49260076002956000600386015501546001840155613be7565b60405162461bcd60e51b815260206004820152602360248201527f496e76616c696420696e7465726573742072617465206d6f64652072656365696044820152621d995960ea1b6064820152608490fd5b6001600160a01b03166000908152603660205260409020612eb490614211565b613d17612eb4959260029295949560018060a01b03968783166000526037602052613cec8260406000209060018060a01b0316600052602052604060002090565b9782166000526036602052613d076040600020968954612f86565b818110613d6e575b0387556136aa565b613d2081610912565b14613d5f575b5080613d48575b50600401805464ffffffffff19164264ffffffffff16179055565b613d57600283019182546133d4565b905538613d2d565b60070154600183015538613d26565b613d76612f15565b613d0f565b60405190613d8882612fca565b60218252600160fd1b6040837f496e7465726573742d526174652053747261746567792041646472657373203a60208201520152565b9081606091031261000e578051916040602083015192015190565b60405190613de682612fe6565b601382527203732bba634b8bab4b234ba3ca930ba32901d1606d1b6020830152565b60405190613e1582612fe6565b601482527314995cd95c9d994815985c9a58589b194814d95d60621b6020830152565b6001600160a01b038116600090815260366020526040902091600d830191613e7f613e69845460018060a01b031690565b92613e7684611d06613d7b565b610d11836135a0565b60028501546003860154600687015460405163057e37af60e41b81526001600160a01b03861660048201526024810194909452604484019290925260648301526084820152936060858060a48101038160018060a01b038097165afa8015613fd0575b60009485968692613f7b575b5091859691613f44613f7694613f277f04e4f521f16fcfd987978b05504262c2a2db223844977aab000e5accedb2d72599611d93613dd9565b896001850155846005850155826004850155611dba611db5613e08565b815460079092015460408051998a5260208a0194909452928801526060870152608086015291169290819060a0820190565b0390a2565b613f4497507f04e4f521f16fcfd987978b05504262c2a2db223844977aab000e5accedb2d7259650613f7693919250613fc19060603d8111611ea657611e8f8183613002565b93919890989750509092613eee565b613fd861350b565b613ee2565b6001600160a01b038116600090815260366020526040902091600d830191613e7f61400e845460018060a01b031690565b9261401b84611d06613d7b565b611d14836135a0565b6001600160a01b0381166000908152603660205260409020600d81018054919290916001600160a01b03169061405c82611d06613d7b565b613e7f816135a0565b1561406c57565b60405162461bcd60e51b8152602060048201526024808201527f5472616e7366657220746f20746f6b656e206469737472696275746f722066616044820152631a5b195960e21b6064820152608490fd5b603554604051630cc3b2e360e21b81526001600160a01b03916020908290600490829086165afa908115614129575b60009161410b575b50166001600160601b0360a01b6034541617603455565b614123915060203d811161084e576108408183613002565b386140f4565b61413161350b565b6140ec565b60388054906000805b8381106141be57501561415157505050565b680100000000000000008210156141b1575b600182018082558210156141a4575b6000526000805160206148a38339815191520180546001600160a01b0319166001600160a01b03909216919091179055565b6141ac6110a5565b614172565b6141b9612f92565b614163565b60008390526000805160206148a38339815191528101546001600160a01b03868116911614614208575b60019060001981146141fb575b0161413f565b614203612f15565b6141f5565b600191506141e8565b61421a816146d4565b6142215750565b61269561427f6126956007614274600186015461424d64ffffffffff600d89015460a01c1680926145a2565b614267676765c793fa10079d601b1b9788928a549061470d565b0487556004870154614633565b94019384549061470d565b049055565b916126956142b56142b0676765c793fa10079d601b1b9461369d6142aa61427f966146e8565b916146e8565b612f2c565b84549061470d565b90815490811561376357676765c793fa10079d601b1b614312612695614318936142e6866146e8565b6003880154909190801561434657600489015461430c925064ffffffffff165b90614633565b9061470d565b04614795565b9181831461432557505090565b600401544264ffffffffff9091160361433c575090565b6108a49150612f5d565b5061437781600761436e600461430c950154614306600d85015464ffffffffff9060a01c1690565b91015490614720565b60018901549061473d565b919061369d6142aa6143e9936143cb6143e261269560066143d760028b01986143d06126958b54986143b4848b612f86565b809d55676765c793fa10079d601b1b9889946146e8565b61470d565b04956146e8565b99019889549061470d565b0490612f86565b9055565b156143f457565b60405162461bcd60e51b815260206004820152602360248201527f54686520616d6f756e747320746f20737562747261637420646f6e2774206d616044820152620e8c6d60eb1b6064820152608490fd5b919060028301918254918083106144b85761446081846133d4565b80945583156144ab576143e9939261449f600661449461448e61369d966144896142aa976146e8565b614720565b936146e8565b970196875490614720565b611d14828210156143ed565b5050505060066000910155565b60405162461bcd60e51b815260206004820152601a60248201527f496e76616c696420616d6f756e7420746f2064656372656173650000000000006044820152606490fd5b60036143e99101918254612f86565b60030190815481811061451e57039055565b60405162461bcd60e51b815260206004820152605060248201527f54686520616d6f756e742074686174206973206265696e67207375627472616360448201527f7465642066726f6d20746865207661726961626c6520746f74616c20626f727260648201526f1bdddcc81a5cc81a5b98dbdc9c9958dd60821b608482015260a490fd5b6146066126956145c564ffffffffff6108a49516804210614626575b42036146e8565b92667009d32da30000676765c793fa10079d601b1b85819660001904821181151516614619575b02663804e996d180008119811161460c575b01049061470d565b04612f2c565b614614612f15565b6145fe565b614621612f15565b6145ec565b61462e612f15565b6145be565b906301e1338064ffffffffff61465592168042106146c7575b42039204612f2c565b6001828116156146b657815b92811c805b6146705750505090565b6126959261468c676765c793fa10079d601b1b9482869361470d565b049282821661469f575b50811c80614666565b9093612695846146ae9261470d565b049238614696565b676765c793fa10079d601b1b614661565b6146cf612f15565b61464c565b6108a4906003600282015491015490612f86565b633b9aca00908060001904821181151516614701570290565b614709612f15565b0290565b8060001904821181151516614701570290565b612695676765c793fa10079d601b1b926147399261470d565b0490565b61476890676765c793fa10079d601b1b908060001904821181151516614788575b028260011c612f86565b8115614772570490565b634e487b7160e01b600052601260045260246000fd5b614790612f15565b61475e565b633b9aca0090631dcd6500811981116147ad57010490565b6147b5612f15565b010490565b6147e86147f6612eb49260405192839163104c13eb60e21b6020840152602060248401526044830190613293565b03601f198101835282613002565b600080916020815191016a636f6e736f6c652e6c6f675afa50565b6147f661484091612eb493604051938492632d839cb360e21b6020850152604060248501526064840190613293565b90604483015203601f198101835282613002565b6147f661488391612eb49360405193849263319af33360e01b6020850152604060248501526064840190613293565b6001600160a01b0391909116604483015203601f19810183528261300256fe38395c5dceade9603479b177b68959049485df8aa97b39f3533039af5f456199a26469706673582212209df41fabd3132f56e7e5eb956f7a2fbedfeaefc183352a02d5d4d1de18d0ec5164736f6c634300080d0033",
  "linkReferences": {
    "contracts/libraries/CoreLibrary.sol": {
      "CoreLibrary": [
        {
          "length": 20,
          "start": 3901
        },
        {
          "length": 20,
          "start": 6625
        },
        {
          "length": 20,
          "start": 6853
        },
        {
          "length": 20,
          "start": 10795
        },
        {
          "length": 20,
          "start": 10992
        }
      ]
    }
  },
  "deployedLinkReferences": {
    "contracts/libraries/CoreLibrary.sol": {
      "CoreLibrary": [
        {
          "length": 20,
          "start": 3869
        },
        {
          "length": 20,
          "start": 6593
        },
        {
          "length": 20,
          "start": 6821
        },
        {
          "length": 20,
          "start": 10763
        },
        {
          "length": 20,
          "start": 10960
        }
      ]
    }
  }
}