{
  "_format": "hh-sol-artifact-1",
  "contractName": "LendingBoardCore",
  "sourceName": "contracts/lendingboard/LendingBoardCore.sol",
  "abi": [
    {
      "anonymous": false,
      "inputs": [
        {
          "indexed": true,
          "internalType": "address",
          "name": "reserve",
          "type": "address"
        },
        {
          "indexed": false,
          "internalType": "uint256",
          "name": "liquidityRate",
          "type": "uint256"
        },
        {
          "indexed": false,
          "internalType": "uint256",
          "name": "stableBorrowRate",
          "type": "uint256"
        },
        {
          "indexed": false,
          "internalType": "uint256",
          "name": "variableBorrowRate",
          "type": "uint256"
        },
        {
          "indexed": false,
          "internalType": "uint256",
          "name": "liquidityIndex",
          "type": "uint256"
        },
        {
          "indexed": false,
          "internalType": "uint256",
          "name": "variableBorrowIndex",
          "type": "uint256"
        }
      ],
      "name": "ReserveUpdated",
      "type": "event"
    },
    {
      "inputs": [],
      "name": "CORE_REVISION",
      "outputs": [
        {
          "internalType": "uint256",
          "name": "",
          "type": "uint256"
        }
      ],
      "stateMutability": "view",
      "type": "function"
    },
    {
      "inputs": [
        {
          "internalType": "address",
          "name": "_reserve",
          "type": "address"
        }
      ],
      "name": "activateReserve",
      "outputs": [],
      "stateMutability": "nonpayable",
      "type": "function"
    },
    {
      "inputs": [],
      "name": "addressesProvider",
      "outputs": [
        {
          "internalType": "contract LendingBoardAddressesProvider",
          "name": "",
          "type": "address"
        }
      ],
      "stateMutability": "view",
      "type": "function"
    },
    {
      "inputs": [
        {
          "internalType": "address",
          "name": "_reserve",
          "type": "address"
        }
      ],
      "name": "deactivateReserve",
      "outputs": [],
      "stateMutability": "nonpayable",
      "type": "function"
    },
    {
      "inputs": [
        {
          "internalType": "address",
          "name": "_reserve",
          "type": "address"
        }
      ],
      "name": "disableBorrowingOnReserve",
      "outputs": [],
      "stateMutability": "nonpayable",
      "type": "function"
    },
    {
      "inputs": [
        {
          "internalType": "address",
          "name": "_reserve",
          "type": "address"
        }
      ],
      "name": "disableReserveAsCollateral",
      "outputs": [],
      "stateMutability": "nonpayable",
      "type": "function"
    },
    {
      "inputs": [
        {
          "internalType": "address",
          "name": "_reserve",
          "type": "address"
        }
      ],
      "name": "disableReserveStableBorrowRate",
      "outputs": [],
      "stateMutability": "nonpayable",
      "type": "function"
    },
    {
      "inputs": [
        {
          "internalType": "address",
          "name": "_reserve",
          "type": "address"
        },
        {
          "internalType": "bool",
          "name": "_stableBorrowRateEnabled",
          "type": "bool"
        }
      ],
      "name": "enableBorrowingOnReserve",
      "outputs": [],
      "stateMutability": "nonpayable",
      "type": "function"
    },
    {
      "inputs": [
        {
          "internalType": "address",
          "name": "_reserve",
          "type": "address"
        },
        {
          "internalType": "uint256",
          "name": "_baseLTVasCollateral",
          "type": "uint256"
        },
        {
          "internalType": "uint256",
          "name": "_liquidationThreshold",
          "type": "uint256"
        },
        {
          "internalType": "uint256",
          "name": "_liquidationBonus",
          "type": "uint256"
        }
      ],
      "name": "enableReserveAsCollateral",
      "outputs": [],
      "stateMutability": "nonpayable",
      "type": "function"
    },
    {
      "inputs": [
        {
          "internalType": "address",
          "name": "_reserve",
          "type": "address"
        }
      ],
      "name": "enableReserveStableBorrowRate",
      "outputs": [],
      "stateMutability": "nonpayable",
      "type": "function"
    },
    {
      "inputs": [
        {
          "internalType": "address",
          "name": "_reserve",
          "type": "address"
        }
      ],
      "name": "freezeReserve",
      "outputs": [],
      "stateMutability": "nonpayable",
      "type": "function"
    },
    {
      "inputs": [],
      "name": "getBorrowProposalCount",
      "outputs": [
        {
          "internalType": "uint256",
          "name": "",
          "type": "uint256"
        }
      ],
      "stateMutability": "view",
      "type": "function"
    },
    {
      "inputs": [
        {
          "internalType": "uint256",
          "name": "_proposalId",
          "type": "uint256"
        }
      ],
      "name": "getBorrowProposalFromCore",
      "outputs": [
        {
          "components": [
            {
              "internalType": "bool",
              "name": "active",
              "type": "bool"
            },
            {
              "internalType": "address",
              "name": "proposer",
              "type": "address"
            },
            {
              "internalType": "address",
              "name": "reserveToReceive",
              "type": "address"
            },
            {
              "internalType": "uint256",
              "name": "amount",
              "type": "uint256"
            },
            {
              "internalType": "address",
              "name": "reserveForCollateral",
              "type": "address"
            },
            {
              "internalType": "uint256",
              "name": "interestRate",
              "type": "uint256"
            },
            {
              "internalType": "uint256",
              "name": "dueDate",
              "type": "uint256"
            },
            {
              "internalType": "uint256",
              "name": "proposalDate",
              "type": "uint256"
            },
            {
              "internalType": "uint256",
              "name": "serviceFee",
              "type": "uint256"
            },
            {
              "internalType": "uint256",
              "name": "ltv",
              "type": "uint256"
            }
          ],
          "internalType": "struct CoreLibrary.ProposalStructure",
          "name": "",
          "type": "tuple"
        }
      ],
      "stateMutability": "view",
      "type": "function"
    },
    {
      "inputs": [],
      "name": "getLendProposalCount",
      "outputs": [
        {
          "internalType": "uint256",
          "name": "",
          "type": "uint256"
        }
      ],
      "stateMutability": "view",
      "type": "function"
    },
    {
      "inputs": [
        {
          "internalType": "uint256",
          "name": "_proposalId",
          "type": "uint256"
        }
      ],
      "name": "getLendProposalFromCore",
      "outputs": [
        {
          "components": [
            {
              "internalType": "bool",
              "name": "active",
              "type": "bool"
            },
            {
              "internalType": "address",
              "name": "proposer",
              "type": "address"
            },
            {
              "internalType": "address",
              "name": "reserveToReceive",
              "type": "address"
            },
            {
              "internalType": "uint256",
              "name": "amount",
              "type": "uint256"
            },
            {
              "internalType": "address",
              "name": "reserveForCollateral",
              "type": "address"
            },
            {
              "internalType": "uint256",
              "name": "interestRate",
              "type": "uint256"
            },
            {
              "internalType": "uint256",
              "name": "dueDate",
              "type": "uint256"
            },
            {
              "internalType": "uint256",
              "name": "proposalDate",
              "type": "uint256"
            },
            {
              "internalType": "uint256",
              "name": "serviceFee",
              "type": "uint256"
            },
            {
              "internalType": "uint256",
              "name": "ltv",
              "type": "uint256"
            }
          ],
          "internalType": "struct CoreLibrary.ProposalStructure",
          "name": "",
          "type": "tuple"
        }
      ],
      "stateMutability": "view",
      "type": "function"
    },
    {
      "inputs": [
        {
          "internalType": "address",
          "name": "_reserve",
          "type": "address"
        }
      ],
      "name": "getReserveATokenAddress",
      "outputs": [
        {
          "internalType": "address",
          "name": "",
          "type": "address"
        }
      ],
      "stateMutability": "view",
      "type": "function"
    },
    {
      "inputs": [
        {
          "internalType": "address",
          "name": "_reserve",
          "type": "address"
        }
      ],
      "name": "getReserveAvailableLiquidity",
      "outputs": [
        {
          "internalType": "uint256",
          "name": "",
          "type": "uint256"
        }
      ],
      "stateMutability": "view",
      "type": "function"
    },
    {
      "inputs": [
        {
          "internalType": "address",
          "name": "_reserve",
          "type": "address"
        }
      ],
      "name": "getReserveConfiguration",
      "outputs": [
        {
          "internalType": "uint256",
          "name": "",
          "type": "uint256"
        },
        {
          "internalType": "uint256",
          "name": "",
          "type": "uint256"
        },
        {
          "internalType": "uint256",
          "name": "",
          "type": "uint256"
        },
        {
          "internalType": "bool",
          "name": "",
          "type": "bool"
        }
      ],
      "stateMutability": "view",
      "type": "function"
    },
    {
      "inputs": [
        {
          "internalType": "address",
          "name": "_reserve",
          "type": "address"
        }
      ],
      "name": "getReserveCurrentAverageStableBorrowRate",
      "outputs": [
        {
          "internalType": "uint256",
          "name": "",
          "type": "uint256"
        }
      ],
      "stateMutability": "view",
      "type": "function"
    },
    {
      "inputs": [
        {
          "internalType": "address",
          "name": "_reserve",
          "type": "address"
        }
      ],
      "name": "getReserveCurrentLiquidityRate",
      "outputs": [
        {
          "internalType": "uint256",
          "name": "",
          "type": "uint256"
        }
      ],
      "stateMutability": "view",
      "type": "function"
    },
    {
      "inputs": [
        {
          "internalType": "address",
          "name": "_reserve",
          "type": "address"
        }
      ],
      "name": "getReserveCurrentStableBorrowRate",
      "outputs": [
        {
          "internalType": "uint256",
          "name": "",
          "type": "uint256"
        }
      ],
      "stateMutability": "view",
      "type": "function"
    },
    {
      "inputs": [
        {
          "internalType": "address",
          "name": "_reserve",
          "type": "address"
        }
      ],
      "name": "getReserveCurrentVariableBorrowRate",
      "outputs": [
        {
          "internalType": "uint256",
          "name": "",
          "type": "uint256"
        }
      ],
      "stateMutability": "view",
      "type": "function"
    },
    {
      "inputs": [
        {
          "internalType": "address",
          "name": "_reserve",
          "type": "address"
        }
      ],
      "name": "getReserveDecimals",
      "outputs": [
        {
          "internalType": "uint256",
          "name": "",
          "type": "uint256"
        }
      ],
      "stateMutability": "view",
      "type": "function"
    },
    {
      "inputs": [
        {
          "internalType": "address",
          "name": "_reserve",
          "type": "address"
        }
      ],
      "name": "getReserveInterestRateStrategyAddress",
      "outputs": [
        {
          "internalType": "address",
          "name": "",
          "type": "address"
        }
      ],
      "stateMutability": "view",
      "type": "function"
    },
    {
      "inputs": [
        {
          "internalType": "address",
          "name": "_reserve",
          "type": "address"
        }
      ],
      "name": "getReserveIsActive",
      "outputs": [
        {
          "internalType": "bool",
          "name": "",
          "type": "bool"
        }
      ],
      "stateMutability": "view",
      "type": "function"
    },
    {
      "inputs": [
        {
          "internalType": "address",
          "name": "_reserve",
          "type": "address"
        }
      ],
      "name": "getReserveIsFreezed",
      "outputs": [
        {
          "internalType": "bool",
          "name": "",
          "type": "bool"
        }
      ],
      "stateMutability": "view",
      "type": "function"
    },
    {
      "inputs": [
        {
          "internalType": "address",
          "name": "_reserve",
          "type": "address"
        }
      ],
      "name": "getReserveIsStableBorrowRateEnabled",
      "outputs": [
        {
          "internalType": "bool",
          "name": "",
          "type": "bool"
        }
      ],
      "stateMutability": "view",
      "type": "function"
    },
    {
      "inputs": [
        {
          "internalType": "address",
          "name": "_reserve",
          "type": "address"
        }
      ],
      "name": "getReserveLastUpdate",
      "outputs": [
        {
          "internalType": "uint40",
          "name": "timestamp",
          "type": "uint40"
        }
      ],
      "stateMutability": "view",
      "type": "function"
    },
    {
      "inputs": [
        {
          "internalType": "address",
          "name": "_reserve",
          "type": "address"
        }
      ],
      "name": "getReserveLiquidationBonus",
      "outputs": [
        {
          "internalType": "uint256",
          "name": "",
          "type": "uint256"
        }
      ],
      "stateMutability": "view",
      "type": "function"
    },
    {
      "inputs": [
        {
          "internalType": "address",
          "name": "_reserve",
          "type": "address"
        }
      ],
      "name": "getReserveLiquidationThreshold",
      "outputs": [
        {
          "internalType": "uint256",
          "name": "",
          "type": "uint256"
        }
      ],
      "stateMutability": "view",
      "type": "function"
    },
    {
      "inputs": [
        {
          "internalType": "address",
          "name": "_reserve",
          "type": "address"
        }
      ],
      "name": "getReserveLiquidityCumulativeIndex",
      "outputs": [
        {
          "internalType": "uint256",
          "name": "",
          "type": "uint256"
        }
      ],
      "stateMutability": "view",
      "type": "function"
    },
    {
      "inputs": [
        {
          "internalType": "address",
          "name": "_reserve",
          "type": "address"
        }
      ],
      "name": "getReserveNormalizedIncome",
      "outputs": [
        {
          "internalType": "uint256",
          "name": "",
          "type": "uint256"
        }
      ],
      "stateMutability": "view",
      "type": "function"
    },
    {
      "inputs": [
        {
          "internalType": "address",
          "name": "_reserve",
          "type": "address"
        }
      ],
      "name": "getReserveTotalBorrows",
      "outputs": [
        {
          "internalType": "uint256",
          "name": "",
          "type": "uint256"
        }
      ],
      "stateMutability": "view",
      "type": "function"
    },
    {
      "inputs": [
        {
          "internalType": "address",
          "name": "_reserve",
          "type": "address"
        }
      ],
      "name": "getReserveTotalBorrowsStable",
      "outputs": [
        {
          "internalType": "uint256",
          "name": "",
          "type": "uint256"
        }
      ],
      "stateMutability": "view",
      "type": "function"
    },
    {
      "inputs": [
        {
          "internalType": "address",
          "name": "_reserve",
          "type": "address"
        }
      ],
      "name": "getReserveTotalBorrowsVariable",
      "outputs": [
        {
          "internalType": "uint256",
          "name": "",
          "type": "uint256"
        }
      ],
      "stateMutability": "view",
      "type": "function"
    },
    {
      "inputs": [
        {
          "internalType": "address",
          "name": "_reserve",
          "type": "address"
        }
      ],
      "name": "getReserveTotalLiquidity",
      "outputs": [
        {
          "internalType": "uint256",
          "name": "",
          "type": "uint256"
        }
      ],
      "stateMutability": "view",
      "type": "function"
    },
    {
      "inputs": [
        {
          "internalType": "address",
          "name": "_reserve",
          "type": "address"
        }
      ],
      "name": "getReserveUtilizationRate",
      "outputs": [
        {
          "internalType": "uint256",
          "name": "",
          "type": "uint256"
        }
      ],
      "stateMutability": "view",
      "type": "function"
    },
    {
      "inputs": [
        {
          "internalType": "address",
          "name": "_reserve",
          "type": "address"
        }
      ],
      "name": "getReserveVariableBorrowsCumulativeIndex",
      "outputs": [
        {
          "internalType": "uint256",
          "name": "",
          "type": "uint256"
        }
      ],
      "stateMutability": "view",
      "type": "function"
    },
    {
      "inputs": [],
      "name": "getReserves",
      "outputs": [
        {
          "internalType": "address[]",
          "name": "",
          "type": "address[]"
        }
      ],
      "stateMutability": "view",
      "type": "function"
    },
    {
      "inputs": [
        {
          "internalType": "address",
          "name": "_reserve",
          "type": "address"
        },
        {
          "internalType": "address",
          "name": "_user",
          "type": "address"
        }
      ],
      "name": "getUserBasicReserveData",
      "outputs": [
        {
          "internalType": "uint256",
          "name": "",
          "type": "uint256"
        },
        {
          "internalType": "uint256",
          "name": "",
          "type": "uint256"
        },
        {
          "internalType": "uint256",
          "name": "",
          "type": "uint256"
        },
        {
          "internalType": "bool",
          "name": "",
          "type": "bool"
        }
      ],
      "stateMutability": "view",
      "type": "function"
    },
    {
      "inputs": [
        {
          "internalType": "address",
          "name": "_reserve",
          "type": "address"
        },
        {
          "internalType": "address",
          "name": "_user",
          "type": "address"
        }
      ],
      "name": "getUserBorrowBalances",
      "outputs": [
        {
          "internalType": "uint256",
          "name": "",
          "type": "uint256"
        },
        {
          "internalType": "uint256",
          "name": "",
          "type": "uint256"
        },
        {
          "internalType": "uint256",
          "name": "",
          "type": "uint256"
        }
      ],
      "stateMutability": "view",
      "type": "function"
    },
    {
      "inputs": [
        {
          "internalType": "address",
          "name": "_reserve",
          "type": "address"
        },
        {
          "internalType": "address",
          "name": "_user",
          "type": "address"
        },
        {
          "internalType": "uint256",
          "name": "_proposalId",
          "type": "uint256"
        },
        {
          "internalType": "bool",
          "name": "_isBorrowProposal",
          "type": "bool"
        }
      ],
      "name": "getUserBorrowBalancesProposeMode",
      "outputs": [
        {
          "internalType": "uint256",
          "name": "",
          "type": "uint256"
        },
        {
          "internalType": "uint256",
          "name": "",
          "type": "uint256"
        },
        {
          "internalType": "uint256",
          "name": "",
          "type": "uint256"
        }
      ],
      "stateMutability": "view",
      "type": "function"
    },
    {
      "inputs": [
        {
          "internalType": "address",
          "name": "_reserve",
          "type": "address"
        },
        {
          "internalType": "address",
          "name": "_user",
          "type": "address"
        }
      ],
      "name": "getUserCurrentBorrowRateMode",
      "outputs": [
        {
          "internalType": "enum CoreLibrary.InterestRateMode",
          "name": "",
          "type": "uint8"
        }
      ],
      "stateMutability": "view",
      "type": "function"
    },
    {
      "inputs": [
        {
          "internalType": "address",
          "name": "_reserve",
          "type": "address"
        },
        {
          "internalType": "address",
          "name": "_user",
          "type": "address"
        }
      ],
      "name": "getUserCurrentStableBorrowRate",
      "outputs": [
        {
          "internalType": "uint256",
          "name": "",
          "type": "uint256"
        }
      ],
      "stateMutability": "view",
      "type": "function"
    },
    {
      "inputs": [
        {
          "internalType": "address",
          "name": "_reserve",
          "type": "address"
        },
        {
          "internalType": "address",
          "name": "_user",
          "type": "address"
        }
      ],
      "name": "getUserLastUpdate",
      "outputs": [
        {
          "internalType": "uint256",
          "name": "timestamp",
          "type": "uint256"
        }
      ],
      "stateMutability": "view",
      "type": "function"
    },
    {
      "inputs": [
        {
          "internalType": "address",
          "name": "_reserve",
          "type": "address"
        },
        {
          "internalType": "address",
          "name": "_user",
          "type": "address"
        }
      ],
      "name": "getUserOriginationFee",
      "outputs": [
        {
          "internalType": "uint256",
          "name": "",
          "type": "uint256"
        }
      ],
      "stateMutability": "view",
      "type": "function"
    },
    {
      "inputs": [
        {
          "internalType": "address",
          "name": "_reserve",
          "type": "address"
        },
        {
          "internalType": "address",
          "name": "_user",
          "type": "address"
        }
      ],
      "name": "getUserUnderlyingAssetBalance",
      "outputs": [
        {
          "internalType": "uint256",
          "name": "",
          "type": "uint256"
        }
      ],
      "stateMutability": "view",
      "type": "function"
    },
    {
      "inputs": [
        {
          "internalType": "address",
          "name": "_reserve",
          "type": "address"
        },
        {
          "internalType": "address",
          "name": "_user",
          "type": "address"
        }
      ],
      "name": "getUserVariableBorrowCumulativeIndex",
      "outputs": [
        {
          "internalType": "uint256",
          "name": "",
          "type": "uint256"
        }
      ],
      "stateMutability": "view",
      "type": "function"
    },
    {
      "inputs": [],
      "name": "incrementBorrowProposalCount",
      "outputs": [],
      "stateMutability": "nonpayable",
      "type": "function"
    },
    {
      "inputs": [],
      "name": "incrementLendProposalCount",
      "outputs": [],
      "stateMutability": "nonpayable",
      "type": "function"
    },
    {
      "inputs": [
        {
          "internalType": "address",
          "name": "_reserve",
          "type": "address"
        },
        {
          "internalType": "address",
          "name": "_aTokenAddress",
          "type": "address"
        },
        {
          "internalType": "uint256",
          "name": "_decimals",
          "type": "uint256"
        },
        {
          "internalType": "address",
          "name": "_interestRateStrategyAddress",
          "type": "address"
        }
      ],
      "name": "initReserve",
      "outputs": [],
      "stateMutability": "nonpayable",
      "type": "function"
    },
    {
      "inputs": [
        {
          "internalType": "contract LendingBoardAddressesProvider",
          "name": "_addressesProvider",
          "type": "address"
        }
      ],
      "name": "initialize",
      "outputs": [],
      "stateMutability": "nonpayable",
      "type": "function"
    },
    {
      "inputs": [
        {
          "internalType": "address",
          "name": "_reserve",
          "type": "address"
        }
      ],
      "name": "isReserveBorrowingEnabled",
      "outputs": [
        {
          "internalType": "bool",
          "name": "",
          "type": "bool"
        }
      ],
      "stateMutability": "view",
      "type": "function"
    },
    {
      "inputs": [
        {
          "internalType": "address",
          "name": "_reserve",
          "type": "address"
        }
      ],
      "name": "isReserveUsageAsCollateralEnabled",
      "outputs": [
        {
          "internalType": "bool",
          "name": "",
          "type": "bool"
        }
      ],
      "stateMutability": "view",
      "type": "function"
    },
    {
      "inputs": [
        {
          "internalType": "address",
          "name": "_reserve",
          "type": "address"
        },
        {
          "internalType": "address",
          "name": "_user",
          "type": "address"
        },
        {
          "internalType": "uint256",
          "name": "_amount",
          "type": "uint256"
        }
      ],
      "name": "isUserAllowedToBorrowAtStable",
      "outputs": [
        {
          "internalType": "bool",
          "name": "",
          "type": "bool"
        }
      ],
      "stateMutability": "view",
      "type": "function"
    },
    {
      "inputs": [
        {
          "internalType": "address",
          "name": "_reserve",
          "type": "address"
        },
        {
          "internalType": "address",
          "name": "_user",
          "type": "address"
        }
      ],
      "name": "isUserUseReserveAsCollateralEnabled",
      "outputs": [
        {
          "internalType": "bool",
          "name": "",
          "type": "bool"
        }
      ],
      "stateMutability": "view",
      "type": "function"
    },
    {
      "inputs": [],
      "name": "lendingPoolAddress",
      "outputs": [
        {
          "internalType": "address",
          "name": "",
          "type": "address"
        }
      ],
      "stateMutability": "view",
      "type": "function"
    },
    {
      "inputs": [
        {
          "internalType": "address",
          "name": "_token",
          "type": "address"
        },
        {
          "internalType": "uint256",
          "name": "_amount",
          "type": "uint256"
        },
        {
          "internalType": "address",
          "name": "_destination",
          "type": "address"
        }
      ],
      "name": "liquidateFee",
      "outputs": [],
      "stateMutability": "payable",
      "type": "function"
    },
    {
      "inputs": [],
      "name": "refreshConfiguration",
      "outputs": [],
      "stateMutability": "nonpayable",
      "type": "function"
    },
    {
      "inputs": [
        {
          "internalType": "address",
          "name": "_reserveToRemove",
          "type": "address"
        }
      ],
      "name": "removeLastAddedReserve",
      "outputs": [],
      "stateMutability": "nonpayable",
      "type": "function"
    },
    {
      "inputs": [
        {
          "internalType": "uint256",
          "name": "",
          "type": "uint256"
        }
      ],
      "name": "reservesList",
      "outputs": [
        {
          "internalType": "address",
          "name": "",
          "type": "address"
        }
      ],
      "stateMutability": "view",
      "type": "function"
    },
    {
      "inputs": [
        {
          "internalType": "address",
          "name": "_reserve",
          "type": "address"
        },
        {
          "internalType": "uint256",
          "name": "_ltv",
          "type": "uint256"
        }
      ],
      "name": "setReserveBaseLTVasCollateral",
      "outputs": [],
      "stateMutability": "nonpayable",
      "type": "function"
    },
    {
      "inputs": [
        {
          "internalType": "address",
          "name": "_reserve",
          "type": "address"
        },
        {
          "internalType": "uint256",
          "name": "_decimals",
          "type": "uint256"
        }
      ],
      "name": "setReserveDecimals",
      "outputs": [],
      "stateMutability": "nonpayable",
      "type": "function"
    },
    {
      "inputs": [
        {
          "internalType": "address",
          "name": "_reserve",
          "type": "address"
        },
        {
          "internalType": "address",
          "name": "_rateStrategyAddress",
          "type": "address"
        }
      ],
      "name": "setReserveInterestRateStrategyAddress",
      "outputs": [],
      "stateMutability": "nonpayable",
      "type": "function"
    },
    {
      "inputs": [
        {
          "internalType": "address",
          "name": "_reserve",
          "type": "address"
        },
        {
          "internalType": "uint256",
          "name": "_bonus",
          "type": "uint256"
        }
      ],
      "name": "setReserveLiquidationBonus",
      "outputs": [],
      "stateMutability": "nonpayable",
      "type": "function"
    },
    {
      "inputs": [
        {
          "internalType": "address",
          "name": "_reserve",
          "type": "address"
        },
        {
          "internalType": "uint256",
          "name": "_threshold",
          "type": "uint256"
        }
      ],
      "name": "setReserveLiquidationThreshold",
      "outputs": [],
      "stateMutability": "nonpayable",
      "type": "function"
    },
    {
      "inputs": [
        {
          "internalType": "address",
          "name": "_reserve",
          "type": "address"
        },
        {
          "internalType": "address",
          "name": "_user",
          "type": "address"
        },
        {
          "internalType": "bool",
          "name": "_useAsCollateral",
          "type": "bool"
        }
      ],
      "name": "setUserUseReserveAsCollateral",
      "outputs": [],
      "stateMutability": "nonpayable",
      "type": "function"
    },
    {
      "inputs": [
        {
          "internalType": "address",
          "name": "_token",
          "type": "address"
        },
        {
          "internalType": "address",
          "name": "_user",
          "type": "address"
        },
        {
          "internalType": "uint256",
          "name": "_amount",
          "type": "uint256"
        },
        {
          "internalType": "address",
          "name": "_destination",
          "type": "address"
        }
      ],
      "name": "transferToFeeCollectionAddress",
      "outputs": [],
      "stateMutability": "payable",
      "type": "function"
    },
    {
      "inputs": [
        {
          "internalType": "address",
          "name": "_reserve",
          "type": "address"
        },
        {
          "internalType": "address payable",
          "name": "_user",
          "type": "address"
        },
        {
          "internalType": "uint256",
          "name": "_amount",
          "type": "uint256"
        }
      ],
      "name": "transferToReserve",
      "outputs": [],
      "stateMutability": "payable",
      "type": "function"
    },
    {
      "inputs": [
        {
          "internalType": "address",
          "name": "_reserve",
          "type": "address"
        },
        {
          "internalType": "address payable",
          "name": "_user",
          "type": "address"
        },
        {
          "internalType": "uint256",
          "name": "_amount",
          "type": "uint256"
        }
      ],
      "name": "transferToUser",
      "outputs": [],
      "stateMutability": "nonpayable",
      "type": "function"
    },
    {
      "inputs": [
        {
          "internalType": "address",
          "name": "_reserve",
          "type": "address"
        }
      ],
      "name": "unfreezeReserve",
      "outputs": [],
      "stateMutability": "nonpayable",
      "type": "function"
    },
    {
      "inputs": [
        {
          "internalType": "uint256",
          "name": "_proposalId",
          "type": "uint256"
        },
        {
          "components": [
            {
              "internalType": "bool",
              "name": "active",
              "type": "bool"
            },
            {
              "internalType": "address",
              "name": "proposer",
              "type": "address"
            },
            {
              "internalType": "address",
              "name": "reserveToReceive",
              "type": "address"
            },
            {
              "internalType": "uint256",
              "name": "amount",
              "type": "uint256"
            },
            {
              "internalType": "address",
              "name": "reserveForCollateral",
              "type": "address"
            },
            {
              "internalType": "uint256",
              "name": "interestRate",
              "type": "uint256"
            },
            {
              "internalType": "uint256",
              "name": "dueDate",
              "type": "uint256"
            },
            {
              "internalType": "uint256",
              "name": "proposalDate",
              "type": "uint256"
            },
            {
              "internalType": "uint256",
              "name": "serviceFee",
              "type": "uint256"
            },
            {
              "internalType": "uint256",
              "name": "ltv",
              "type": "uint256"
            }
          ],
          "internalType": "struct CoreLibrary.ProposalStructure",
          "name": "_inputBorrowProposal",
          "type": "tuple"
        }
      ],
      "name": "updateBorrowProposal",
      "outputs": [],
      "stateMutability": "nonpayable",
      "type": "function"
    },
    {
      "inputs": [
        {
          "internalType": "uint256",
          "name": "_proposalId",
          "type": "uint256"
        },
        {
          "components": [
            {
              "internalType": "bool",
              "name": "active",
              "type": "bool"
            },
            {
              "internalType": "address",
              "name": "proposer",
              "type": "address"
            },
            {
              "internalType": "address",
              "name": "reserveToReceive",
              "type": "address"
            },
            {
              "internalType": "uint256",
              "name": "amount",
              "type": "uint256"
            },
            {
              "internalType": "address",
              "name": "reserveForCollateral",
              "type": "address"
            },
            {
              "internalType": "uint256",
              "name": "interestRate",
              "type": "uint256"
            },
            {
              "internalType": "uint256",
              "name": "dueDate",
              "type": "uint256"
            },
            {
              "internalType": "uint256",
              "name": "proposalDate",
              "type": "uint256"
            },
            {
              "internalType": "uint256",
              "name": "serviceFee",
              "type": "uint256"
            },
            {
              "internalType": "uint256",
              "name": "ltv",
              "type": "uint256"
            }
          ],
          "internalType": "struct CoreLibrary.ProposalStructure",
          "name": "_inputBorrowProposal",
          "type": "tuple"
        }
      ],
      "name": "updateLendProposal",
      "outputs": [],
      "stateMutability": "nonpayable",
      "type": "function"
    },
    {
      "inputs": [
        {
          "internalType": "address",
          "name": "_reserve",
          "type": "address"
        },
        {
          "internalType": "address",
          "name": "_user",
          "type": "address"
        },
        {
          "internalType": "uint256",
          "name": "_amountBorrowed",
          "type": "uint256"
        },
        {
          "internalType": "uint256",
          "name": "_borrowFee",
          "type": "uint256"
        },
        {
          "internalType": "enum CoreLibrary.InterestRateMode",
          "name": "_rateMode",
          "type": "uint8"
        }
      ],
      "name": "updateStateOnBorrow",
      "outputs": [
        {
          "internalType": "uint256",
          "name": "",
          "type": "uint256"
        },
        {
          "internalType": "uint256",
          "name": "",
          "type": "uint256"
        }
      ],
      "stateMutability": "nonpayable",
      "type": "function"
    },
    {
      "inputs": [
        {
          "internalType": "address",
          "name": "_reserve",
          "type": "address"
        },
        {
          "internalType": "address",
          "name": "_user",
          "type": "address"
        },
        {
          "internalType": "uint256",
          "name": "_amountBorrowed",
          "type": "uint256"
        },
        {
          "internalType": "uint256",
          "name": "_borrowFee",
          "type": "uint256"
        },
        {
          "internalType": "enum CoreLibrary.InterestRateMode",
          "name": "_rateMode",
          "type": "uint8"
        },
        {
          "internalType": "bool",
          "name": "_isBorrowProposal",
          "type": "bool"
        },
        {
          "internalType": "uint256",
          "name": "_proposalId",
          "type": "uint256"
        }
      ],
      "name": "updateStateOnBorrowProposeMode",
      "outputs": [
        {
          "internalType": "uint256",
          "name": "",
          "type": "uint256"
        },
        {
          "internalType": "uint256",
          "name": "",
          "type": "uint256"
        }
      ],
      "stateMutability": "nonpayable",
      "type": "function"
    },
    {
      "inputs": [
        {
          "internalType": "address",
          "name": "_reserve",
          "type": "address"
        },
        {
          "internalType": "address",
          "name": "_user",
          "type": "address"
        },
        {
          "internalType": "uint256",
          "name": "_amount",
          "type": "uint256"
        },
        {
          "internalType": "bool",
          "name": "_isFirstDeposit",
          "type": "bool"
        }
      ],
      "name": "updateStateOnDeposit",
      "outputs": [],
      "stateMutability": "nonpayable",
      "type": "function"
    },
    {
      "inputs": [
        {
          "internalType": "address",
          "name": "_reserve",
          "type": "address"
        },
        {
          "internalType": "uint256",
          "name": "_availableLiquidityBefore",
          "type": "uint256"
        },
        {
          "internalType": "uint256",
          "name": "_income",
          "type": "uint256"
        },
        {
          "internalType": "uint256",
          "name": "_protocolFee",
          "type": "uint256"
        }
      ],
      "name": "updateStateOnFlashLoan",
      "outputs": [],
      "stateMutability": "nonpayable",
      "type": "function"
    },
    {
      "inputs": [
        {
          "internalType": "address",
          "name": "_principalReserve",
          "type": "address"
        },
        {
          "internalType": "address",
          "name": "_collateralReserve",
          "type": "address"
        },
        {
          "internalType": "address",
          "name": "_user",
          "type": "address"
        },
        {
          "internalType": "uint256",
          "name": "_amountToLiquidate",
          "type": "uint256"
        },
        {
          "internalType": "uint256",
          "name": "_collateralToLiquidate",
          "type": "uint256"
        },
        {
          "internalType": "uint256",
          "name": "_feeLiquidated",
          "type": "uint256"
        },
        {
          "internalType": "uint256",
          "name": "_liquidatedCollateralForFee",
          "type": "uint256"
        },
        {
          "internalType": "uint256",
          "name": "_balanceIncrease",
          "type": "uint256"
        },
        {
          "internalType": "bool",
          "name": "_liquidatorReceivesAToken",
          "type": "bool"
        }
      ],
      "name": "updateStateOnLiquidation",
      "outputs": [],
      "stateMutability": "nonpayable",
      "type": "function"
    },
    {
      "inputs": [
        {
          "internalType": "address",
          "name": "_reserve",
          "type": "address"
        },
        {
          "internalType": "address",
          "name": "_user",
          "type": "address"
        },
        {
          "internalType": "uint256",
          "name": "_balanceIncrease",
          "type": "uint256"
        }
      ],
      "name": "updateStateOnRebalance",
      "outputs": [
        {
          "internalType": "uint256",
          "name": "",
          "type": "uint256"
        }
      ],
      "stateMutability": "nonpayable",
      "type": "function"
    },
    {
      "inputs": [
        {
          "internalType": "address",
          "name": "_reserve",
          "type": "address"
        },
        {
          "internalType": "address",
          "name": "_user",
          "type": "address"
        },
        {
          "internalType": "uint256",
          "name": "_amountRedeemed",
          "type": "uint256"
        },
        {
          "internalType": "bool",
          "name": "_userRedeemedEverything",
          "type": "bool"
        }
      ],
      "name": "updateStateOnRedeem",
      "outputs": [],
      "stateMutability": "nonpayable",
      "type": "function"
    },
    {
      "inputs": [
        {
          "internalType": "address",
          "name": "_reserve",
          "type": "address"
        },
        {
          "internalType": "address",
          "name": "_user",
          "type": "address"
        },
        {
          "internalType": "uint256",
          "name": "_paybackAmountMinusFees",
          "type": "uint256"
        },
        {
          "internalType": "uint256",
          "name": "_originationFeeRepaid",
          "type": "uint256"
        },
        {
          "internalType": "uint256",
          "name": "_balanceIncrease",
          "type": "uint256"
        },
        {
          "internalType": "bool",
          "name": "_repaidWholeLoan",
          "type": "bool"
        }
      ],
      "name": "updateStateOnRepay",
      "outputs": [],
      "stateMutability": "nonpayable",
      "type": "function"
    },
    {
      "inputs": [
        {
          "internalType": "address",
          "name": "_reserve",
          "type": "address"
        },
        {
          "internalType": "address",
          "name": "_user",
          "type": "address"
        },
        {
          "internalType": "uint256",
          "name": "_principalBorrowBalance",
          "type": "uint256"
        },
        {
          "internalType": "uint256",
          "name": "_compoundedBorrowBalance",
          "type": "uint256"
        },
        {
          "internalType": "uint256",
          "name": "_balanceIncrease",
          "type": "uint256"
        },
        {
          "internalType": "enum CoreLibrary.InterestRateMode",
          "name": "_currentRateMode",
          "type": "uint8"
        }
      ],
      "name": "updateStateOnSwapRate",
      "outputs": [
        {
          "internalType": "enum CoreLibrary.InterestRateMode",
          "name": "",
          "type": "uint8"
        },
        {
          "internalType": "uint256",
          "name": "",
          "type": "uint256"
        }
      ],
      "stateMutability": "nonpayable",
      "type": "function"
    }
  ],
  "bytecode": "0x6080806040523461002457600080556000603a556000603b55615485908161002a8239f35b600080fdfe60806040526004361015610013575b600080fd5b60003560e01c806305075d6e1461067b5780630902f1ac1461067257806309ac2953146106695780630c7de4e91461066057806318a4dbca1461065757806318f9bbae1461064e5780631ca19f19146106455780631d2118f91461063c578063252887411461063357806328fcf4d31461062a57806329882208146106215780633443a14b1461061857806334b3beee1461060f578063369f27131461060657806337ac6fe4146105fd5780633e72a454146105f457806345330a40146105eb57806346bc0f28146105e25780634a08accb146105d95780634f144609146105d05780634fe7a6e5146105c75780635420f5a7146105be5780635cf2e656146105b55780635fc526ff146105ac57806364681083146105a357806366bbd9281461059a57806366d103f31461059157806368beb4d614610588578063699d7f3c1461057f5780636ae14416146105765780636fffab0c1461056d57806370fb84f4146105645780637aca76eb1461055b5780637f90fec51461055257806388079d88146105495780638f385c2214610540578063906c0a411461053757806396767f441461052e57806398bd4737146105255780639e3c4f3b1461051c5780639e674848146105135780639fb8afcd1461050a578063a2353fdc14610501578063a5bc826c146104f8578063a8dc0f45146104ef578063af825b07146104e6578063afcdbea3146104dd578063b0f0a94a146104d4578063b701d093146104cb578063b75d6f34146104c2578063b8c0f745146104b9578063bcd6ffa4146104b0578063bd7fd79a146104a7578063bfacad841461049e578063c33cfd9014610495578063c4d66de81461048c578063c540148e14610483578063c72c4d101461047a578063c76a6c9c14610471578063c7d1423714610468578063d06e2ec11461045f578063d15e005314610456578063d3ae26b31461044d578063d466016f14610444578063d8406a3a1461043b578063da12d96f14610432578063dae4c4e714610429578063e10076ad14610420578063e2174d8614610417578063e24030191461040e578063e6d1819014610405578063e8ae2f5b146103fc578063ed22adf1146103f3578063eede87c1146103ea578063ef1f9373146103e1578063f054ab46146103d8578063f6148311146103cf578063f6ea8d76146103c6578063fa51854c146103bd578063fa93b2a5146103b4578063fd7076c6146103ab5763feab31ac146103a357600080fd5b61000e6132ae565b5061000e61323c565b5061000e6131cf565b5061000e613156565b5061000e613116565b5061000e612fb0565b5061000e612f56565b5061000e612ed4565b5061000e612e08565b5061000e612dea565b5061000e612d32565b5061000e612cf5565b5061000e612ccd565b5061000e612ca9565b5061000e612c6a565b5061000e612be2565b5061000e612ae6565b5061000e612aae565b5061000e612a2f565b5061000e612a05565b5061000e61298b565b5061000e6127f8565b5061000e6126e6565b5061000e6126a5565b5061000e61267b565b5061000e61263a565b5061000e61254c565b5061000e612502565b5061000e6124da565b5061000e61249c565b5061000e61241d565b5061000e61239b565b5061000e612282565b5061000e612241565b5061000e6120f5565b5061000e612059565b5061000e611eef565b5061000e611e07565b5061000e611d35565b5061000e611cf4565b5061000e611cbc565b5061000e611c73565b5061000e611c4b565b5061000e611c0a565b5061000e611be8565b5061000e611bc0565b5061000e611ad4565b5061000e611aac565b5061000e611a6b565b5061000e6119e3565b5061000e611964565b5061000e611919565b5061000e6118d6565b5061000e6118a6565b5061000e61177c565b5061000e61172a565b5061000e6116ab565b5061000e611620565b5061000e6115b3565b5061000e61156a565b5061000e611548565b5061000e6114fe565b5061000e611469565b5061000e611420565b5061000e6113df565b5061000e6112c6565b5061000e61120e565b5061000e610fd7565b5061000e610f9a565b5061000e610f57565b5061000e610ed8565b5061000e610eb9565b5061000e610dbe565b5061000e610ca8565b5061000e610a6b565b5061000e610a42565b5061000e6109cc565b5061000e6109aa565b5061000e610965565b5061000e6107f2565b5061000e610712565b5061000e6106be565b6001600160a01b0381160361000e57565b604435906106a282610684565b565b606435906106a282610684565b60a435906106a282610684565b503461000e57602036600319011261000e576004356106dc81610684565b60018060a01b03166000526036602052602060ff600d6040600020015460e01c166040519015158152f35b600091031261000e57565b503461000e576000806003193601126107c8576040518091603c549081835260208093018092603c835260008051602061541083398151915290835b8181106107ab5750505084610764910385610bbf565b60405193838594850191818652518092526040850193925b82811061078b57505050500390f35b83516001600160a01b03168552869550938101939281019260010161077c565b82546001600160a01b03168452928601926001928301920161074e565b80fd5b608090600319011261000e576004356107e381610684565b90602435906044359060643590565b503461000e576109056109006108e361080a366107cb565b9181959394919260018060a01b039061082882603454163314613386565b603554829060049060209061084d906001600160a01b03165b6001600160a01b031690565b604051637744894b60e11b815292839182905afa908115610958575b60009161092a575b501691871673eeeeeeeeeeeeeeeeeeeeeeeeeeeeeeeeeeeeeeee8114610907579161089b926134d2565b6001600160a01b03851660009081526036602052604090206108bc90614a55565b6001600160a01b03851660009081526036602052604090206108dd9061527e565b90613433565b6001600160a01b0384166000908152603660205260409020614ac8565b6146fa565b005b50600080610925938193604051915af161091f61343f565b506148d8565b61089b565b61094b915060203d8111610951575b6109438183610bbf565b810190613a47565b38610871565b503d610939565b6109606138ec565b610869565b503461000e57600036600319011261000e57602060405160068152f35b604090600319011261000e5760043561099a81610684565b906024356109a781610684565b90565b503461000e5760206109c46109be36610982565b906138f9565b604051908152f35b503461000e57602036600319011261000e576004356109ea81610684565b60018060a01b03166000526036602052602060ff600d6040600020015460d01c166040519015158152f35b60031115610a1f57565b634e487b7160e01b600052602160045260246000fd5b906003821015610a1f5752565b503461000e576020610a5c610a5636610982565b90613cbf565b610a696040518092610a35565bf35b503461000e57610905610a7d36610982565b9060018060a01b0390610abf600460208460355416604051928380926329f2549760e21b82525afa908115610b0a575b600091610aec575b5083163314613f0a565b166000526036602052600d6040600020019060018060a01b03166001600160601b0360a01b825416179055565b610b04915060203d8111610951576109438183610bbf565b38610ab5565b610b126138ec565b610aad565b50634e487b7160e01b600052604160045260246000fd5b67ffffffffffffffff8111610b4257604052565b610b4a610b17565b604052565b6080810190811067ffffffffffffffff821117610b4257604052565b6040810190811067ffffffffffffffff821117610b4257604052565b60a0810190811067ffffffffffffffff821117610b4257604052565b6060810190811067ffffffffffffffff821117610b4257604052565b90601f8019910116810190811067ffffffffffffffff821117610b4257604052565b60405190610140820182811067ffffffffffffffff821117610b4257604052565b8015150361000e57565b602435906106a282610c02565b9061016060031983011261000e5761014060043592602319011261000e57610c3f610be1565b610c47610c0c565b8152610c51610695565b6020820152610c5e6106a4565b60408201526084356060820152610c736106b1565b608082015260c43560a082015260e43560c08201526101043560e0820152610124356101008201526101443561012082015290565b503461000e57610cb736610c19565b9060005260386020526008610120604060002092610cea610cd88251151590565b859060ff801983541691151516179055565b6020810151610d1e906001600160a01b03168554610100600160a81b03191660089190911b610100600160a81b0316178555565b60408101516001850180546001600160a01b039283166001600160a01b03199182161790915560608301516002870155608083015160038701805491909316911617905560a0810151600485015560c0810151600585015560e0810151600685015561010081015160078501550151910155005b606090600319011261000e57600435610daa81610684565b90602435610db781610684565b9060443590565b50610dc836610d92565b9060018060a01b038093610de182603454163314613386565b1673eeeeeeeeeeeeeeeeeeeeeeeeeeeeeeeeeeeeeeee8114610e6f5734610e0f576109059330921690613756565b60405162461bcd60e51b815260206004820152603260248201527f557365722069732073656e64696e672045544820616c6f6e672077697468207460448201527134329022a9219918103a3930b739b332b91760711b6064820152608490fd5b5091813410610e7e81156136ec565b823411610e8757005b6109059360009384938493610eac575b60405192165af1610ea661343f565b5061348d565b610eb46132e7565b610e97565b503461000e57600036600319011261000e576020603a54604051908152f35b503461000e57604036600319011261000e57600435610ef681610684565b6035546040516329f2549760e21b81526001600160a01b039291610f3b91906020908290600490829088165afa908115610b0a57600091610aec575083163314613f0a565b1660005260366020526024356009604060002001556000604051f35b503461000e57602036600319011261000e576020600435610f7781610684565b60018060a01b0380911660005260368252600c6040600020015416604051908152f35b503461000e57600036600319011261000e576020603b54604051908152f35b60843590600382101561000e57565b60a43590600382101561000e57565b503461000e5760a036600319011261000e57600435610ff581610684565b61119d60243561100481610684565b6044359283611011610fb9565b6034546001600160a01b03916110549161102e9084163314613386565b6110488161103c8888613d80565b9b918c91508a8a6140ca565b6064358885888861428d565b6001600160a01b038316600090815260366020526040902091600d830191606061109c61108d610841610841875460018060a01b031690565b9361109788613981565b6137b5565b60028601546003870154600688015460405163057e37af60e41b81526001600160a01b038b166004820152602481019490945260448401929092526064830152608482015292839060a49082905afa938415611201575b600093849385966111b2575b50946111959161115f600080516020615430833981519152969761112a87611125614680565b615383565b600183018990556005830187905560048301849055805464ffffffffff60a01b19164260a01b64ffffffffff60a01b16179055565b60078154910154916040519586958a1698869192608093969594919660a084019784526020840152604083015260608201520152565b0390a2613d06565b604080519182526020820192909252f35b0390f35b61115f965060008051602061543083398151915295506111959294506111ee9060603d81116111fa575b6111e68183610bbf565b810190614665565b975090955093916110ff565b503d6111dc565b6112096138ec565b6110f3565b503461000e57602036600319011261000e5760043561122c81610684565b6035546040516329f2549760e21b81526001600160a01b03929161127191906020908290600490829088165afa908115610b0a57600091610aec575083163314613f0a565b166000908152603660205260409020600d01805460ff60e01b19169055005b608090600319011261000e576004356112a881610684565b906024356112b581610684565b90604435906064356109a781610684565b503461000e576112d536611290565b92919060018060a01b0391611319600460208560355416604051928380926329f2549760e21b82525afa9081156113d2575b6000916113b4575b5084163314613f0a565b828416600052603660205260406000209473__$2ec35834968386f54fa313129cf94664e4$__95863b1561000e57610905968560849360009660405198899788966304dda73560e21b8852600488015216602486015260448501521660648301525af480156113a7575b61138e575b506149a9565b8061139b6113a192610b2e565b80610707565b38611388565b6113af6138ec565b611383565b6113cc915060203d8111610951576109438183610bbf565b3861130f565b6113da6138ec565b611307565b503461000e57602036600319011261000e576004356113fd81610684565b60018060a01b031660005260366020526020600660406000200154604051908152f35b503461000e57602036600319011261000e5760043561143e81610684565b60018060a01b03166000526036602052602060ff600d6040600020015460e81c166040519015158152f35b503461000e57602036600319011261000e5760043561148781610684565b60018060a01b03166000526036602052602064ffffffffff600d6040600020015460a01c16604051908152f35b50634e487b7160e01b600052603260045260246000fd5b603c548110156114f1575b603c6000526000805160206154108339815191520190600090565b6114f96114b4565b6114d6565b503461000e57602036600319011261000e57600435603c5481101561000e57603c60005260008051602061541083398151915201546040516001600160a01b039091168152602090f35b503461000e57600036600319011261000e57611565603b546132fe565b603b55005b503461000e57602036600319011261000e5760043561158881610684565b60018060a01b03166000526036602052602060ff600d6040600020015460c81c166040519015158152f35b503461000e57602036600319011261000e576004356115d181610684565b6001600160a01b0316600090815260366020908152604091829020600b81015460088201546009830154600d909301548551928352938201529283015260d01c60ff1615156060820152608090f35b503461000e57600036600319011261000e576035546040516329f2549760e21b8152611676916001600160a01b03906020908390600490829085165afa91821561169e575b60009261167e575b50163314613f0a565b610905614930565b61169791925060203d8111610951576109438183610bbf565b903861166d565b6116a66138ec565b611665565b503461000e57604036600319011261000e576004356116c981610684565b6035546040516329f2549760e21b81526001600160a01b03929161170e91906020908290600490829088165afa908115610b0a57600091610aec575083163314613f0a565b166000526036602052602435600b604060002001556000604051f35b503461000e57602064ffffffffff600461177161174636610982565b60018060a01b03166000526037855260406000209060018060a01b0316600052602052604060002090565b015416604051908152f35b503461000e5761012036600319011261000e5760043561179b81610684565b602435906117a882610684565b61186d604435916117b883610684565b6064359061090060e43561010435956117d087610c02565b6034546001600160a01b03906117e99082163314613386565b84811660009081526036602090815260408083209385168352603782528083206001600160a01b038916845290915290209061182481614a55565b8660016118318589613cbf565b61183a81610a15565b0361188c576003611859930161185281548785614e61565b5491614f1f565b61186288614575565b8460a4359185614595565b1561187457005b6109059061188660c435608435613433565b90614895565b906118a1925061189c8582614fd7565b614fe6565b611859565b503461000e576118b536610c19565b9060005260396020526008610120604060002092610cea610cd88251151590565b503461000e57602036600319011261000e5760206004356118f681610684565b60018060a01b0380911660005260368252600d6040600020015416604051908152f35b503461000e576020600361195a61192f36610982565b60018060a01b03166000526037845260406000209060018060a01b0316600052602052604060002090565b0154604051908152f35b503461000e57604036600319011261000e5760043561198281610684565b6035546040516329f2549760e21b81526001600160a01b0392916119c791906020908290600490829088165afa908115610b0a57600091610aec575083163314613f0a565b166000526036602052602435600a604060002001556000604051f35b503461000e57602036600319011261000e57600435611a0181610684565b6035546040516329f2549760e21b81526001600160a01b039291611a4691906020908290600490829088165afa908115610b0a57600091610aec575083163314613f0a565b166000908152603660205260409020600d01805460ff60e81b1916600160e81b179055005b503461000e57602036600319011261000e57600435611a8981610684565b60018060a01b031660005260366020526020600260406000200154604051908152f35b503461000e57602036600319011261000e5760206109c4600435611acf81610684565b613af3565b50606036600319011261000e57600435611aed81610684565b602435604435611afc81610684565b6034546001600160a01b03918291611b179083163314613386565b169234611b5c571673eeeeeeeeeeeeeeeeeeeeeeeeeeeeeeeeeeeeeeee8114611b445791610905926134d2565b50600080610905938193604051915af1610ea661343f565b60405162461bcd60e51b815260206004820152603660248201527f466565206c69717569646174696f6e20646f6573206e6f74207265717569726560448201527520616e79207472616e73666572206f662076616c756560501b6064820152608490fd5b503461000e57602036600319011261000e5760206109c4600435611be381610684565b6139ea565b503461000e57600036600319011261000e57611c05603a546132fe565b603a55005b503461000e57602036600319011261000e57600435611c2881610684565b60018060a01b031660005260366020526020600360406000200154604051908152f35b503461000e57602060ff6004611c6361174636610982565b015460281c166040519015158152f35b503461000e57602036600319011261000e57600435611c9181610684565b60018060a01b03166000526036602052602060ff600d6040600020015460d81c166040519015158152f35b503461000e576111ae611cd7611cd136610982565b90613d80565b604080519384526020840192909252908201529081906060820190565b503461000e57602036600319011261000e57600435611d1281610684565b60018060a01b031660005260366020526020600b60406000200154604051908152f35b503461000e57611d44366107cb565b91909260018060a01b0390611d86600460208460355416604051928380926329f2549760e21b82525afa908115610b0a57600091610aec575083163314613f0a565b16600052603660205260406000209173__$2ec35834968386f54fa313129cf94664e4$__92833b1561000e57600093608492604051968795869463126ee27360e11b865260048601526024850152604484015260648301525af48015611dfa575b611ded57005b8061139b61090592610b2e565b611e026138ec565b611de7565b503461000e57600060203660031901126107c857600435611e2781610684565b6035546040516329f2549760e21b81526001600160a01b039291611e6c91906020908290600490829088165afa908115611ee2575b8591610aec575083163314613f0a565b1681526036602052604081208173__$2ec35834968386f54fa313129cf94664e4$__91823b15611ede576024604051809481936372efab5360e11b835260048301525af48015611ed1575b611ec2575b50604051f35b611ecb90610b2e565b38611ebc565b611ed96138ec565b611eb7565b5080fd5b611eea6138ec565b611e5c565b503461000e576111ae6003612011611fd7611ffa611f0c36610d92565b603454929491926001600160a01b0391600591611f2c9084163314613386565b611fb560408489169489611f8389868f611f726000968c8852603660205288882094169586885260376020528888209060018060a01b0316600052602052604060002090565b611f7b84614a55565b015491614e61565b8152603760209081528282206001600160a01b038c166000908152915260409020958152603660205220918454613433565b8355015487820155600401805464ffffffffff19164264ffffffffff16179055565b611fe083614853565b6001600160a01b0316600090815260376020526040902090565b9060018060a01b0316600052602052604060002090565b01546040519081529081906020820190565b608090600319011261000e5760043561203b81610684565b9060243561204881610684565b90604435906064356109a781610c02565b503461000e5761206836612023565b6034546001600160a01b0394926120a4916120869087163314613386565b858416600052603660205261209e6040600020614a55565b83614895565b6120aa57005b6004926120e5926120c033836034541614613386565b16600052603760205260406000209060018060a01b0316600052602052604060002090565b01805465ff000000000019169055005b503461000e57602036600319011261000e5761210f61331a565b5060043560005260386020526111ae6040600020600861212d610be1565b91612154815461214260ff8216869015159052565b831c6001600160a01b03166020850152565b60018101546001600160a01b031660408401526002810154606084015260038101546001600160a01b03166080840152600481015460a0840152600581015460c0840152600681015460e08401526007810154610100840152015461012082015260405191829182815115158152610140810192916020818101516001600160a01b0316908301526040818101516001600160a01b031690830152606081810151908301526080808201516001600160a01b03169083015260a081015160a083015260c081015160c083015260e081015160e0830152610100808201519083015261012080910151910152565b503461000e57602036600319011261000e5760043561225f81610684565b60018060a01b031660005260366020526020600760406000200154604051908152f35b503461000e5760208060031936011261000e576004356122a181610684565b6035546040516329f2549760e21b81526001600160a01b0392916122e6919085908290600490829088165afa90811561238e575b600091612377575083163314613f0a565b1660005260368152604060002090815415158061236a575b1561231a57600d8201805460ff60e01b1916600160e01b179055005b6084906040519062461bcd60e51b825260048201526024808201527f5265736572766520686173206e6f74206265656e20696e697469616c697a6564604482015263081e595d60e21b6064820152fd5b50600782015415156122fe565b610b049150853d8711610951576109438183610bbf565b6123966138ec565b6122d5565b503461000e57602036600319011261000e576004356123b981610684565b6035546040516329f2549760e21b81526001600160a01b0392916123fe91906020908290600490829088165afa908115610b0a57600091610aec575083163314613f0a565b166000908152603660205260409020600d01805460ff60d81b19169055005b503461000e5761242c36612023565b6034546001600160a01b0394926124689161244a9087163314613386565b85841660005260366020526124626040600020614a55565b836146fa565b61246e57005b600492612484926120c033836034541614613386565b01805465ff0000000000191665010000000000179055005b503461000e57602036600319011261000e576004356124ba81610684565b60018060a01b031660005260366020526020604060002054604051908152f35b503461000e57602036600319011261000e5760206109c46004356124fd81610684565b613c76565b503461000e57602036600319011261000e5760206109c460043561252581610684565b60018060a01b038116600052603683526108dd612546604060002092613981565b9161527e565b503461000e57602036600319011261000e5760043561256a81610684565b60ff600154169081159182612631575b8015612625575b156125c95761259490826125a9576132c4565b61259a57005b61090560ff1960015416600155565b6125ba600160ff1981541617600155565b6125c46006600055565b6132c4565b60405162461bcd60e51b815260206004820152602e60248201527f436f6e747261637420696e7374616e63652068617320616c726561647920626560448201526d195b881a5b9a5d1a585b1a5e995960921b6064820152608490fd5b50600054600611612581565b50303b1561257a565b503461000e57602036600319011261000e5760043561265881610684565b60018060a01b031660005260366020526020600160406000200154604051908152f35b503461000e57600036600319011261000e576035546040516001600160a01b039091168152602090f35b503461000e57602036600319011261000e576004356126c381610684565b60018060a01b031660005260366020526020600a60406000200154604051908152f35b506126f036611290565b603454929391926001600160a01b0391829161270f9083163314613386565b1691169273eeeeeeeeeeeeeeeeeeeeeeeeeeeeeeeeeeeeeeee8414156000146127d157346127405761090593613756565b60405162461bcd60e51b815260206004820152605f60248201527f557365722069732073656e64696e672045544820616c6f6e672077697468207460448201527f6865204552433230207472616e736665722e20436865636b207468652076616c60648201527f756520617474726962757465206f6620746865207472616e73616374696f6e00608482015260a490fd5b5061090592506000809291826127ea83943410156136ec565b604051915af1610ea661343f565b503461000e57602036600319011261000e57612958600d6128f760043561281e81610684565b6035546040516329f2549760e21b815261289e916001600160a01b0391612867916020908290600490829087165afa90811561297e575b600091612960575b5082163314613f0a565b8061289361287e612879603c54613798565b6114cb565b905460039190911b1c6001600160a01b031690565b931690831614613f7c565b6001600160a01b03811660009081526036602052604090206128c9906128c39061527e565b15613fee565b6001600160a01b0381166000908152603660205260409020838101805460ff60e01b1916905561290890600c905b0180546001600160a01b0319169055565b6001600160a01b03166000908152603660205260408120600b810182905581815560078101829055838101805461ffff60c81b191690556008810182905560098101829055600a81019190915590565b610905614053565b612978915060203d8111610951576109438183610bbf565b3861285d565b6129866138ec565b612855565b503461000e57602036600319011261000e576004356129a981610684565b60018060a01b031660005260366020526020676765c793fa10079d601b1b6129fc6129f760406000206129ef600182015464ffffffffff600d84015460a01c169061507c565b905490614b26565b61341a565b04604051908152f35b503461000e57600036600319011261000e576034546040516001600160a01b039091168152602090f35b503461000e57604036600319011261000e57600435612a4d81610684565b6035546040516329f2549760e21b81526001600160a01b039291612a9291906020908290600490829088165afa908115610b0a57600091610aec575083163314613f0a565b1660005260366020526024356008604060002001556000604051f35b503461000e57602036600319011261000e57612ac861331a565b5060043560005260396020526111ae6040600020600861212d610be1565b503461000e5760c036600319011261000e576040612bc8600435612b0981610684565b60243590612b1682610684565b6109006044359260843560a43591612b2d83610c02565b8460018060a01b03612b4481603454163314613386565b876001828416612b9c60009d8e838152603660205281812096891681526037602052612b8e89612b888a8585209060018060a01b0316600052602052604060002090565b99613cbf565b938152603660205220614a55565b612ba581610a15565b03612bcd576003612bbd930161185281548785614e61565b8560643591866143ab565b604051f35b90612bdd925061189c8582614fd7565b612bbd565b503461000e57602036600319011261000e57600435612c0081610684565b6035546040516329f2549760e21b81526001600160a01b039291612c4591906020908290600490829088165afa908115610b0a57600091610aec575083163314613f0a565b166000908152603660205260409020600d01805460ff60d81b1916600160d81b179055005b503461000e576111ae612c85612c7f36610982565b906137cc565b60408051948552602085019390935291830152151560608201529081906080820190565b503461000e576020612cc3612cbd36610d92565b91613849565b6040519015158152f35b503461000e57602036600319011261000e5760206109c4600435612cf081610684565b613981565b503461000e57602036600319011261000e57600435612d1381610684565b60018060a01b0316600052603660205260206109c4604060002061527e565b503461000e57600060203660031901126107c857600435612d5281610684565b6035546040516329f2549760e21b81526001600160a01b039291612d9691906020908290600490829088165afa908115611ee2578591610aec575083163314613f0a565b1681526036602052604081208173__$2ec35834968386f54fa313129cf94664e4$__91823b15611ede5760246040518094819363041e0b2d60e51b835260048301525af48015611ed157611ec25750604051f35b503461000e576111ae611cd7612dff36612023565b92919091613def565b503461000e57604036600319011261000e57600435612e2681610684565b60243590612e3382610c02565b6035546040516329f2549760e21b81526001600160a01b039291612e7891906020908290600490829088165afa908115610b0a57600091610aec575083163314613f0a565b166000526036602052604060002073__$2ec35834968386f54fa313129cf94664e4$__91823b1561000e5760446000926040519485938492637b1dd5df60e11b84526004840152151560248301525af48015611dfa57611ded57005b503461000e57602036600319011261000e57600435612ef281610684565b6035546040516329f2549760e21b81526001600160a01b039291612f3791906020908290600490829088165afa908115610b0a57600091610aec575083163314613f0a565b166000908152603660205260409020600d01805460ff60e81b19169055005b503461000e57602036600319011261000e57600435612f7481610684565b60018060a01b031660005260366020526020600960406000200154604051908152f35b60209093929193612fac816040810196610a35565b0152565b503461000e5760c036600319011261000e57600435612fce81610684565b602435612fda81610684565b60443590606435612fe9610fc8565b9260018060a01b0361300081603454163314613386565b8516600052603660205260406000209061303086611ffa8660018060a01b03166000526037602052604060002090565b61303983614a55565b61304286610a15565b600186036130945792613084959261306661306b9360036130759701549083614f1f565b614fd7565b6084358386614464565b9261307f81614853565b613d06565b906111ae60405192839283612f97565b5093906130a082610a15565b600282036130cd576130849461307593826130c360056130c89501549382614fe6565b614e61565b61306b565b60405162461bcd60e51b815260206004820152601a60248201527f496e76616c69642072617465206d6f64652072656365697665640000000000006044820152606490fd5b0390fd5b503461000e576020600161195a61312c36610982565b838060a01b03166000526037845260406000209060018060a01b0316600052602052604060002090565b503461000e57606036600319011261000e5760043561317481610684565b60046131ad6024359261318684610684565b6044359361319385610c02565b6034546001600160a01b0391906120c09083163314613386565b01805465ff0000000000191691151560281b65ff000000000016919091179055005b503461000e576131de36610d92565b909160018060a01b0380916131f882603454163314613386565b169073eeeeeeeeeeeeeeeeeeeeeeeeeeeeeeeeeeeeeeee8214613220576109059316906134d2565b6000928392509361090594839260405192165af1610ea661343f565b503461000e5760e036600319011261000e5760043561325a81610684565b61119d60243561326981610684565b6044359283613276610fb9565b61105460a4359161328683610c02565b6110488161103c60018060a01b03956132a487603454163314613386565b60c4358a8a613def565b503461000e576020600261195a61192f36610982565b60018060a01b03166001600160601b0360a01b60355416176035556106a2614930565b50634e487b7160e01b600052601160045260246000fd5b600190600019811461330e570190565b6133166132e7565b0190565b60405190610140820182811067ffffffffffffffff821117613379575b604052816101206000918281528260208201528260408201528260608201528260808201528260a08201528260c08201528260e0820152826101008201520152565b613381610b17565b613337565b1561338d57565b60405162461bcd60e51b815260206004820152602a60248201527f5468652063616c6c6572206d7573742062652061206c656e64696e6720706f6f6044820152691b0818dbdb9d1c9858dd60b21b6064820152608490fd5b676765c793fa10079d601b1b906b033b2e3c9fd0803ce800000019811161330e570190565b600190600119811161330e570190565b6b019d971e4fe8401e740000008119811161330e570190565b8119811161330e570190565b3d15613488573d9067ffffffffffffffff821161347b575b6040519161346f601f8201601f191660200184610bbf565b82523d6000602084013e565b613483610b17565b613457565b606090565b1561349457565b60405162461bcd60e51b8152602060048201526016602482015275151c985b9cd9995c881bd9881155120819985a5b195960521b6044820152606490fd5b60405163a9059cbb60e01b60208201526001600160a01b0390921660248301526044808301939093529181526106a29161350b82610b4f565b604051613569916001600160a01b031661352482610b6b565b6000806020958685527f5361666545524332303a206c6f772d6c6576656c2063616c6c206661696c656487860152868151910182855af161356361343f565b916135f9565b80518281159182156135d9575b50509050156135825750565b6084906040519062461bcd60e51b82526004820152602a60248201527f5361666545524332303a204552433230206f7065726174696f6e20646964206e6044820152691bdd081cdd58d8d9595960b21b6064820152fd5b838092935001031261000e578101516135f181610c02565b808238613576565b9192901561365b575081511561360d575090565b3b156136165790565b60405162461bcd60e51b815260206004820152601d60248201527f416464726573733a2063616c6c20746f206e6f6e2d636f6e74726163740000006044820152606490fd5b82519091501561366e5750805190602001fd5b60405162461bcd60e51b815290819061311290600483016136db565b91908251928382526000905b8482106136c35750928060209394116136b6575b601f01601f1916010190565b60008382840101526136aa565b90602090818082850101519082860101520190613696565b9060206109a792818152019061368a565b156136f357565b60405162461bcd60e51b815260206004820152603560248201527f54686520616d6f756e7420616e64207468652076616c75652073656e7420746f604482015274040c8cae0dee6d2e840c8de40dcdee840dac2e8c6d605b1b6064820152608490fd5b6040516323b872dd60e01b60208201526001600160a01b0392831660248201529290911660448301526064808301939093529181526106a29161350b82610b87565b600181106137a8575b6000190190565b6137b06132e7565b6137a1565b8181106137c0570390565b6137c86132e7565b0390565b6001600160a01b03818116600081815260366020908152604080832094871683526037825280832093835292905290812093909261380a91906138f9565b91835415613835575061381d9083614d51565b9260ff6004600285015494015460281c169193929190565b9260ff91506004015460281c169092829190565b6001600160a01b03818116600081815260366020908152604080832094871683526037825280832093835292905220600d909101549392919060d885901c60ff16156138d3576004015460281c60ff16159384156138c4575b5083156138b0575b50505090565b6138bb9293506138f9565b103880806138aa565b60d01c60ff16159350386138a2565b5050505050600090565b9081602091031261000e575190565b506040513d6000823e3d90fd5b6001600160a01b03908116600090815260366020908152604091829020600c015491516370a0823160e01b815293831660048501529183916024918391165afa908115613974575b60009161394c575090565b6109a7915060203d811161396d575b6139658183610bbf565b8101906138dd565b503d61395b565b61397c6138ec565b613941565b6000906001600160a01b031673eeeeeeeeeeeeeeeeeeeeeeeeeeeeeeeeeeeeeeee81036139ae5750504790565b6020602491604051928380926370a0823160e01b82523060048301525afa9182156139dd575b9161394c575090565b6139e56138ec565b6139d4565b6001600160a01b039081166000908152603660205260409020600481015491908215613a1557505090565b600d01546040516334762ca560e01b8152925060209183916004918391165afa9081156139745760009161394c575090565b9081602091031261000e57516109a781610684565b60405190613a6982610ba3565b602982526803b902930ba32901d160bd1b6040837f2020203d3e204c4243203a2043757272656e7420537461626c6520426f72726f60208201520152565b60405190613ab482610ba3565b602a825269020b8383634b2b2101d160b51b6040837f2020203d3e204c4243203a204f7261636c65204c656e64696e6720526174652060208201520152565b6001600160a01b0381166000908152603660205260409020603554909190613b23906001600160a01b0316610841565b60056040518092631b0c55dd60e11b825281600460209586935afa908115613c69575b600091613c4c575b5060018060a01b031693015491613b6783611125613a5c565b8215613b74575050905090565b60405163bb85c0bb60e01b8082526001600160a01b03831660048301529294613be7945085939091613bc1908581602481875afa908115613c3f575b600091613c22575b50611125613aa7565b6040519081526001600160a01b0390921660048301529092839190829081906024820190565b03915afa918215613c15575b600092613bff57505090565b6109a79250803d1061396d576139658183610bbf565b613c1d6138ec565b613bf3565b613c399150863d881161396d576139658183610bbf565b38613bb8565b613c476138ec565b613bb0565b613c639150833d8511610951576109438183610bbf565b38613b4e565b613c716138ec565b613b46565b6001600160a01b0381166000908152603660205260409020613c979061527e565b8015613cb857613cb281613cad6109a794613981565b613433565b906152af565b5050600090565b6001600160a01b0391821660009081526037602090815260408083209390941682529190915220805415613d00576003015415613cfb57600190565b600290565b50600090565b90613d118183613cbf565b6003811015610a1f578015613d785780613d2c600192610a15565b03613d59576001600160a01b03166000908152603760205260409020600391613d5491611ffa565b015490565b506001600160a01b031660009081526036602052604090206004015490565b505050600090565b6001600160a01b039182166000908152603760209081526040808320858516845290915281209193928254948515613de357168152603660205260409020613dc791614d51565b90828210613dd6575b82820390565b613dde6132e7565b613dd0565b50509192505080918190565b6001600160a01b0391821660009081526037602090815260408083209390941682529190915290812093909290919015613ef9578252603860205260408220925b54918215613ef05750613ed3613e64600485015494856002670de0b6b3a76400009282198411613ee3575b01549101614b26565b8094604051613e7281610b4f565b604381527f2020203d3e20434c203a2050726f706f7365204d6f646520205f70726f706f7360208201527f616c2e696e7465726573745261746520616e6420436f6d706f756e6442616c616040820152626e636560e81b60608201526153c6565b613edd82846137b5565b91929190565b613eeb6132e7565b613e5b565b92508291508190565b825260396020526040822092613e30565b15613f1157565b60405162461bcd60e51b815260206004820152603760248201527f5468652063616c6c6572206d7573742062652061206c656e64696e6720706f6f60448201527f6c20636f6e666967757261746f7220636f6e74726163740000000000000000006064820152608490fd5b15613f8357565b60405162461bcd60e51b815260206004820152603d60248201527f52657365727665206265696e672072656d6f766564206973206469666665726560448201527f6e74207468616e207468652072657365727665207265717565737465640000006064820152608490fd5b15613ff557565b60405162461bcd60e51b815260206004820152603060248201527f43616e6e6f742072656d6f7665206120726573657276652077697468206c697160448201526f1d5a591a5d1e4819195c1bdcda5d195960821b6064820152608490fd5b603c5480156140b4577fc6bb06cb7f92603de181bf256cd16846b93b752a170ff24824098b31aa008a7d600019820191808310156140a7575b603c600052016001600160601b0360a01b8154169055603c55565b6140af6114b4565b61408c565b634e487b7160e01b600052603160045260246000fd5b92613cad9195949261415b9460018060a01b03811660005260366020526140f46040600020614a55565b6140fe8882613cbf565b6001600160a01b0382166000908152603660205260409020989061412181610a15565b600181036141dd57506001600160a01b03166000908152603760205260409020613cad916003916141529190611ffa565b01548289614f1f565b9061416581610a15565b6001810361417e5750906106a291600582015491614e61565b8061418a600292610a15565b03614198576106a291614fd7565b60405162461bcd60e51b815260206004820152601c60248201527f496e76616c6964206e657720626f72726f772072617465206d6f6465000000006044820152606490fd5b9050600291506141ec81610a15565b0361343357613cad8188614fe6565b6040519061420882610b87565b6064825263032901d160e51b6080837f202020202020203d3e204c4243203a2072617465206d6f646520535441424c4560208201527f2c207570646174655573657253746174654f6e426f72726f77496e7465726e6160408201527f6c20726573657276652e63757272656e74537461626c65426f72726f7752617460608201520152565b6001600160a01b0381811660009081526036602090815260408083209590931682526037905220939594936142c29190611ffa565b936142cc81610a15565b60018103614332575093613cad6143059260056106a29701546142f1816111256141fb565b6003870155600060018701555b8554613433565b825561431660028301918254613433565b9055600401805464ffffffffff19164264ffffffffff16179055565b80614341600292979397610a15565b0361436657613cad6143059260076106a29760006003890155015460018701556142fe565b60405162461bcd60e51b815260206004820152601860248201527f496e76616c696420626f72726f772072617465206d6f646500000000000000006044820152606490fd5b6001600160a01b03908116600081815260366020908152604080832094909516825260378152848220928252919091529182206106a2969293600792916143f490978854613433565b818110614457575b03865501549060018501918255614449575b50506002820190815481811061443c575b039055600401805464ffffffffff19164264ffffffffff16179055565b6144446132e7565b61441f565b81600385015555388061440e565b61445f6132e7565b6143fc565b9061448882611ffa6144a49360018060a01b03166000526037602052604060002090565b6001600160a01b03909216600090815260366020526040902090565b926144ae81610a15565b600281036144f457506144d86109a7926005600195015460038401556000858401555b8254613433565b8155600401805464ffffffffff19164264ffffffffff16179055565b80614500600192610a15565b03614524576144d86109a792600760029560006003860155015460018401556144d1565b60405162461bcd60e51b815260206004820152602360248201527f496e76616c696420696e7465726573742072617465206d6f64652072656365696044820152621d995960ea1b6064820152608490fd5b6001600160a01b031660009081526036602052604090206106a290614a55565b6146016106a2959260029295949560018060a01b039687831660005260376020526145d68260406000209060018060a01b0316600052602052604060002090565b97821660005260366020526145f16040600020968954613433565b818110614658575b038755613cbf565b61460a81610a15565b14614649575b5080614632575b50600401805464ffffffffff19164264ffffffffff16179055565b614641600283019182546137b5565b905538614617565b60070154600183015538614610565b6146606132e7565b6145f9565b9081606091031261000e578051916040602083015192015190565b6040519061468d82610b4f565b605282527101f103732bba9ba30b13632a930ba32901d160751b6060837f202020202020203d3e204c4243203a2075706461746552657365727665496e7460208201527f65726573745261746573416e6454696d657374616d70496e7465726e616c203d60408201520152565b6001600160a01b038116600090815260366020526040902091600d830191606061473d614733610841610841875460018060a01b031690565b93613cad84613981565b60028601546003870154600688015460405163057e37af60e41b81526001600160a01b0387166004820152602481019490945260448401929092526064830152608482015292839060a49082905afa938415614846575b60009384938596614807575b5094614802916147c6600080516020615430833981519152969761112a87611125614680565b600781549101549160405195869560018060a01b031698869192608093969594919660a084019784526020840152604083015260608201520152565b0390a2565b6147c69650600080516020615430833981519152955061480292945061483a9060603d81116111fa576111e68183610bbf565b975090955093916147a0565b61484e6138ec565b614794565b6001600160a01b0381166000908152603660205260409020600d810180549192909161488990610841906001600160a01b031681565b90606061473d82613981565b6001600160a01b038116600090815260366020526040902091600d830191606061473d6148ce610841610841875460018060a01b031690565b9361109784613981565b156148df57565b60405162461bcd60e51b8152602060048201526024808201527f5472616e7366657220746f20746f6b656e206469737472696275746f722066616044820152631a5b195960e21b6064820152608490fd5b603554604051630cc3b2e360e21b81526001600160a01b03916020908290600490829086165afa90811561499c575b60009161497e575b50166001600160601b0360a01b6034541617603455565b614996915060203d8111610951576109438183610bbf565b38614967565b6149a46138ec565b61495f565b603c8054600080805b838110614a16575050156149c557505050565b6149e69168010000000000000000821015614a09575b6001820190556114cb565b819291549060031b9160018060a01b039283811b93849216901b16911916179055565b614a11610b17565b6149db565b8482526000805160206154108339815191528101546001600160a01b03878116911614614a4c575b614a47906132fe565b6149b2565b60019250614a3e565b614a5e8161527e565b614a655750565b6129f7614ac36129f76007614ab86001860154614a9164ffffffffff600d89015460a01c16809261507c565b614aab676765c793fa10079d601b1b9788928a5490614b26565b048755600487015461510d565b940193845490614b26565b049055565b916129f7614af9614af4676765c793fa10079d601b1b94613cb2614aee614ac396614b01565b91614b01565b6133e5565b845490614b26565b633b9aca00908060001904821181151516614b1a570290565b614b226132e7565b0290565b8060001904821181151516614b1a570290565b60405190614b4682610ba3565b6024825263032901d160e51b6040837f2020203d3e20434c203a205f73656c662e737461626c65426f72726f7752617460208201520152565b60405190614b8c82610ba3565b603c82527f72726f7752617465203c3d203020426f72726f772052617465203a20000000006040837f2020203d3e20434c203a2063617365206f662073656c662e737461626c65426f60208201520152565b60405190614beb82610ba3565b603a82527f72726f7752617465203c3d20302054696d655374616d70203a200000000000006040837f2020203d3e20434c203a2063617365206f662073656c662e737461626c65426f60208201520152565b60405190614c4a82610b4f565b604e82526d03630ba34bb32a4b73232bc101d160951b6060837f2020203d3e20434c203a20207573657252657365727665446174612073656c6660208201527f20696e7374616e6365206c6173745661726961626c65426f72726f7743756d7560408201520152565b60405190614cc082610ba3565b602f82526e0393937bba930ba32901f1018101d1608d1b6040837f2020203d3e20434c203a2063617365206f662073656c662e737461626c65426f60208201520152565b60405190614d1182610ba3565b602b82526a74657265737420646f6e6560a81b6040837f2020203d3e20434c203a2063616c63756c617465436f6d706f756e646564496e60208201520152565b908154908115613d7857676765c793fa10079d601b1b614dcd6129f7614dd393614d7a86614b01565b90600388015490614d8d82611125614b39565b8115614e01575080614da4614db692611125614cb3565b600489015464ffffffffff169061510d565b905b614dc8614dc3614d04565b61532c565b614b26565b04615307565b91818314614de057505090565b600401544264ffffffffff90911603614df7575090565b6109a7915061340a565b614e5b9150614e2c600d600483015492614e1d84611125614b7f565b015460a01c64ffffffffff1690565b90614e46614e38614bde565b64ffffffffff841690615383565b614e5660018b0154611125614c3d565b61510d565b90614db8565b9190613cb2614aee614ec393614dc8614ebc6129f76006614eb160028b0198614eaa6129f78b5498614e93848b613433565b809d55676765c793fa10079d601b1b988994614b01565b0495614b01565b990198895490614b26565b0490613433565b9055565b15614ece57565b60405162461bcd60e51b815260206004820152602360248201527f54686520616d6f756e747320746f20737562747261637420646f6e2774206d616044820152620e8c6d60eb1b6064820152608490fd5b91906002830191825491808310614f9257614f3a81846137b5565b8094558315614f8557614ec39392614f796006614f6e614f68613cb296614f63614aee97614b01565b615292565b93614b01565b970196875490615292565b61109782821015614ec7565b5050505060066000910155565b60405162461bcd60e51b815260206004820152601a60248201527f496e76616c696420616d6f756e7420746f2064656372656173650000000000006044820152606490fd5b6003614ec39101918254613433565b600301908154818110614ff857039055565b60405162461bcd60e51b815260206004820152605060248201527f54686520616d6f756e742074686174206973206265696e67207375627472616360448201527f7465642066726f6d20746865207661726961626c6520746f74616c20626f727260648201526f1bdddcc81a5cc81a5b98dbdc9c9958dd60821b608482015260a490fd5b6150e06129f761509f64ffffffffff6109a79516804210615100575b4203614b01565b92667009d32da30000676765c793fa10079d601b1b858196600019048211811515166150f3575b02663804e996d18000811981116150e6575b010490614b26565b046133e5565b6150ee6132e7565b6150d8565b6150fb6132e7565b6150c6565b6151086132e7565b615098565b906301e13380826151756151ff9364ffffffffff6040519161512e83610ba3565b602b83527f2020203d3e20434c203a205f7261746520616e64205f6c61737455706461746560208401526a02a34b6b2b9ba30b6b81d160ad1b6040840152169283916153c6565b804210615271575b4203926151bf8460405161519081610b6b565b601c81527f2020203d3e20434c203a2074696d65446966666572656e6365203a20000000006020820152615383565b04614af4816040516151d081610b6b565b601b81527f2020203d3e20434c203a20726174655065725365636f6e64203a2000000000006020820152615383565b60018281161561526057815b92811c805b61521a5750505090565b6129f792615236676765c793fa10079d601b1b94828693614b26565b0492828216615249575b50811c80615210565b90936129f78461525892614b26565b049238615240565b676765c793fa10079d601b1b61520b565b6152796132e7565b61517d565b6109a7906003600282015491015490613433565b6129f7676765c793fa10079d601b1b926152ab92614b26565b0490565b6152da90676765c793fa10079d601b1b9080600019048211811515166152fa575b028260011c613433565b81156152e4570490565b634e487b7160e01b600052601260045260246000fd5b6153026132e7565b6152d0565b633b9aca0090631dcd65008119811161531f57010490565b6153276132e7565b010490565b61535a6153686106a29260405192839163104c13eb60e21b602084015260206024840152604483019061368a565b03601f198101835282610bbf565b600080916020815191016a636f6e736f6c652e6c6f675afa50565b6153686153b2916106a293604051938492632d839cb360e21b602085015260406024850152606484019061368a565b90604483015203601f198101835282610bbf565b615368906153f6926106a29460405194859363ca47c4eb60e01b602086015260606024860152608485019061368a565b916044840152606483015203601f198101835282610bbf56fec6bb06cb7f92603de181bf256cd16846b93b752a170ff24824098b31aa008a7e04e4f521f16fcfd987978b05504262c2a2db223844977aab000e5accedb2d725a26469706673582212207ebc7090872fea3766dd3735d8b5055e65997d80238cba490e6224044f69478f64736f6c634300080d0033",
  "linkReferences": {
    "contracts/libraries/CoreLibrary.sol": {
      "CoreLibrary": [
        {
          "length": 20,
          "start": 4950
        },
        {
          "length": 20,
          "start": 7617
        },
        {
          "length": 20,
          "start": 7845
        },
        {
          "length": 20,
          "start": 11727
        },
        {
          "length": 20,
          "start": 11954
        }
      ]
    }
  },
  "deployedLinkReferences": {
    "contracts/libraries/CoreLibrary.sol": {
      "CoreLibrary": [
        {
          "length": 20,
          "start": 4908
        },
        {
          "length": 20,
          "start": 7575
        },
        {
          "length": 20,
          "start": 7803
        },
        {
          "length": 20,
          "start": 11685
        },
        {
          "length": 20,
          "start": 11912
        }
      ]
    }
  }
}