{
  "_format": "hh-sol-artifact-1",
  "contractName": "LendingBoardCore",
  "sourceName": "contracts/lendingboard/LendingBoardCore.sol",
  "abi": [
    {
      "anonymous": false,
      "inputs": [
        {
          "indexed": true,
          "internalType": "address",
          "name": "reserve",
          "type": "address"
        },
        {
          "indexed": false,
          "internalType": "uint256",
          "name": "liquidityRate",
          "type": "uint256"
        },
        {
          "indexed": false,
          "internalType": "uint256",
          "name": "stableBorrowRate",
          "type": "uint256"
        },
        {
          "indexed": false,
          "internalType": "uint256",
          "name": "variableBorrowRate",
          "type": "uint256"
        },
        {
          "indexed": false,
          "internalType": "uint256",
          "name": "liquidityIndex",
          "type": "uint256"
        },
        {
          "indexed": false,
          "internalType": "uint256",
          "name": "variableBorrowIndex",
          "type": "uint256"
        }
      ],
      "name": "ReserveUpdated",
      "type": "event"
    },
    {
      "inputs": [],
      "name": "CORE_REVISION",
      "outputs": [
        {
          "internalType": "uint256",
          "name": "",
          "type": "uint256"
        }
      ],
      "stateMutability": "view",
      "type": "function"
    },
    {
      "inputs": [
        {
          "internalType": "address",
          "name": "_reserve",
          "type": "address"
        }
      ],
      "name": "activateReserve",
      "outputs": [],
      "stateMutability": "nonpayable",
      "type": "function"
    },
    {
      "inputs": [],
      "name": "addressesProvider",
      "outputs": [
        {
          "internalType": "contract LendingBoardAddressesProvider",
          "name": "",
          "type": "address"
        }
      ],
      "stateMutability": "view",
      "type": "function"
    },
    {
      "inputs": [
        {
          "internalType": "address",
          "name": "_reserve",
          "type": "address"
        }
      ],
      "name": "deactivateReserve",
      "outputs": [],
      "stateMutability": "nonpayable",
      "type": "function"
    },
    {
      "inputs": [
        {
          "internalType": "address",
          "name": "_reserve",
          "type": "address"
        }
      ],
      "name": "disableBorrowingOnReserve",
      "outputs": [],
      "stateMutability": "nonpayable",
      "type": "function"
    },
    {
      "inputs": [
        {
          "internalType": "address",
          "name": "_reserve",
          "type": "address"
        }
      ],
      "name": "disableReserveAsCollateral",
      "outputs": [],
      "stateMutability": "nonpayable",
      "type": "function"
    },
    {
      "inputs": [
        {
          "internalType": "address",
          "name": "_reserve",
          "type": "address"
        }
      ],
      "name": "disableReserveStableBorrowRate",
      "outputs": [],
      "stateMutability": "nonpayable",
      "type": "function"
    },
    {
      "inputs": [
        {
          "internalType": "address",
          "name": "_reserve",
          "type": "address"
        },
        {
          "internalType": "bool",
          "name": "_stableBorrowRateEnabled",
          "type": "bool"
        }
      ],
      "name": "enableBorrowingOnReserve",
      "outputs": [],
      "stateMutability": "nonpayable",
      "type": "function"
    },
    {
      "inputs": [
        {
          "internalType": "address",
          "name": "_reserve",
          "type": "address"
        },
        {
          "internalType": "uint256",
          "name": "_baseLTVasCollateral",
          "type": "uint256"
        },
        {
          "internalType": "uint256",
          "name": "_liquidationThreshold",
          "type": "uint256"
        },
        {
          "internalType": "uint256",
          "name": "_liquidationBonus",
          "type": "uint256"
        }
      ],
      "name": "enableReserveAsCollateral",
      "outputs": [],
      "stateMutability": "nonpayable",
      "type": "function"
    },
    {
      "inputs": [
        {
          "internalType": "address",
          "name": "_reserve",
          "type": "address"
        }
      ],
      "name": "enableReserveStableBorrowRate",
      "outputs": [],
      "stateMutability": "nonpayable",
      "type": "function"
    },
    {
      "inputs": [
        {
          "internalType": "address",
          "name": "_reserve",
          "type": "address"
        }
      ],
      "name": "freezeReserve",
      "outputs": [],
      "stateMutability": "nonpayable",
      "type": "function"
    },
    {
      "inputs": [],
      "name": "getBorrowProposalCount",
      "outputs": [
        {
          "internalType": "uint256",
          "name": "",
          "type": "uint256"
        }
      ],
      "stateMutability": "view",
      "type": "function"
    },
    {
      "inputs": [
        {
          "internalType": "uint256",
          "name": "_proposalId",
          "type": "uint256"
        }
      ],
      "name": "getBorrowProposalFromCore",
      "outputs": [
        {
          "components": [
            {
              "internalType": "bool",
              "name": "active",
              "type": "bool"
            },
            {
              "internalType": "address",
              "name": "proposer",
              "type": "address"
            },
            {
              "internalType": "address",
              "name": "reserveToReceive",
              "type": "address"
            },
            {
              "internalType": "uint256",
              "name": "amount",
              "type": "uint256"
            },
            {
              "internalType": "address",
              "name": "reserveForCollateral",
              "type": "address"
            },
            {
              "internalType": "uint256",
              "name": "interestRate",
              "type": "uint256"
            },
            {
              "internalType": "uint256",
              "name": "dueDate",
              "type": "uint256"
            },
            {
              "internalType": "uint256",
              "name": "proposalDate",
              "type": "uint256"
            },
            {
              "internalType": "uint256",
              "name": "serviceFee",
              "type": "uint256"
            },
            {
              "internalType": "uint256",
              "name": "ltv",
              "type": "uint256"
            },
            {
              "internalType": "bool",
              "name": "isRepayed",
              "type": "bool"
            }
          ],
          "internalType": "struct CoreLibrary.ProposalStructure",
          "name": "",
          "type": "tuple"
        }
      ],
      "stateMutability": "view",
      "type": "function"
    },
    {
      "inputs": [],
      "name": "getLendProposalCount",
      "outputs": [
        {
          "internalType": "uint256",
          "name": "",
          "type": "uint256"
        }
      ],
      "stateMutability": "view",
      "type": "function"
    },
    {
      "inputs": [
        {
          "internalType": "uint256",
          "name": "_proposalId",
          "type": "uint256"
        }
      ],
      "name": "getLendProposalFromCore",
      "outputs": [
        {
          "components": [
            {
              "internalType": "bool",
              "name": "active",
              "type": "bool"
            },
            {
              "internalType": "address",
              "name": "proposer",
              "type": "address"
            },
            {
              "internalType": "address",
              "name": "reserveToReceive",
              "type": "address"
            },
            {
              "internalType": "uint256",
              "name": "amount",
              "type": "uint256"
            },
            {
              "internalType": "address",
              "name": "reserveForCollateral",
              "type": "address"
            },
            {
              "internalType": "uint256",
              "name": "interestRate",
              "type": "uint256"
            },
            {
              "internalType": "uint256",
              "name": "dueDate",
              "type": "uint256"
            },
            {
              "internalType": "uint256",
              "name": "proposalDate",
              "type": "uint256"
            },
            {
              "internalType": "uint256",
              "name": "serviceFee",
              "type": "uint256"
            },
            {
              "internalType": "uint256",
              "name": "ltv",
              "type": "uint256"
            },
            {
              "internalType": "bool",
              "name": "isRepayed",
              "type": "bool"
            }
          ],
          "internalType": "struct CoreLibrary.ProposalStructure",
          "name": "",
          "type": "tuple"
        }
      ],
      "stateMutability": "view",
      "type": "function"
    },
    {
      "inputs": [
        {
          "internalType": "address",
          "name": "_reserve",
          "type": "address"
        }
      ],
      "name": "getReserveATokenAddress",
      "outputs": [
        {
          "internalType": "address",
          "name": "",
          "type": "address"
        }
      ],
      "stateMutability": "view",
      "type": "function"
    },
    {
      "inputs": [
        {
          "internalType": "address",
          "name": "_reserve",
          "type": "address"
        }
      ],
      "name": "getReserveAvailableLiquidity",
      "outputs": [
        {
          "internalType": "uint256",
          "name": "",
          "type": "uint256"
        }
      ],
      "stateMutability": "view",
      "type": "function"
    },
    {
      "inputs": [
        {
          "internalType": "address",
          "name": "_reserve",
          "type": "address"
        }
      ],
      "name": "getReserveConfiguration",
      "outputs": [
        {
          "internalType": "uint256",
          "name": "",
          "type": "uint256"
        },
        {
          "internalType": "uint256",
          "name": "",
          "type": "uint256"
        },
        {
          "internalType": "uint256",
          "name": "",
          "type": "uint256"
        },
        {
          "internalType": "bool",
          "name": "",
          "type": "bool"
        }
      ],
      "stateMutability": "view",
      "type": "function"
    },
    {
      "inputs": [
        {
          "internalType": "address",
          "name": "_reserve",
          "type": "address"
        }
      ],
      "name": "getReserveCurrentAverageStableBorrowRate",
      "outputs": [
        {
          "internalType": "uint256",
          "name": "",
          "type": "uint256"
        }
      ],
      "stateMutability": "view",
      "type": "function"
    },
    {
      "inputs": [
        {
          "internalType": "address",
          "name": "_reserve",
          "type": "address"
        }
      ],
      "name": "getReserveCurrentLiquidityRate",
      "outputs": [
        {
          "internalType": "uint256",
          "name": "",
          "type": "uint256"
        }
      ],
      "stateMutability": "view",
      "type": "function"
    },
    {
      "inputs": [
        {
          "internalType": "address",
          "name": "_reserve",
          "type": "address"
        }
      ],
      "name": "getReserveCurrentStableBorrowRate",
      "outputs": [
        {
          "internalType": "uint256",
          "name": "",
          "type": "uint256"
        }
      ],
      "stateMutability": "view",
      "type": "function"
    },
    {
      "inputs": [
        {
          "internalType": "address",
          "name": "_reserve",
          "type": "address"
        }
      ],
      "name": "getReserveCurrentVariableBorrowRate",
      "outputs": [
        {
          "internalType": "uint256",
          "name": "",
          "type": "uint256"
        }
      ],
      "stateMutability": "view",
      "type": "function"
    },
    {
      "inputs": [
        {
          "internalType": "address",
          "name": "_reserve",
          "type": "address"
        }
      ],
      "name": "getReserveDecimals",
      "outputs": [
        {
          "internalType": "uint256",
          "name": "",
          "type": "uint256"
        }
      ],
      "stateMutability": "view",
      "type": "function"
    },
    {
      "inputs": [
        {
          "internalType": "address",
          "name": "_reserve",
          "type": "address"
        }
      ],
      "name": "getReserveInterestRateStrategyAddress",
      "outputs": [
        {
          "internalType": "address",
          "name": "",
          "type": "address"
        }
      ],
      "stateMutability": "view",
      "type": "function"
    },
    {
      "inputs": [
        {
          "internalType": "address",
          "name": "_reserve",
          "type": "address"
        }
      ],
      "name": "getReserveIsActive",
      "outputs": [
        {
          "internalType": "bool",
          "name": "",
          "type": "bool"
        }
      ],
      "stateMutability": "view",
      "type": "function"
    },
    {
      "inputs": [
        {
          "internalType": "address",
          "name": "_reserve",
          "type": "address"
        }
      ],
      "name": "getReserveIsFreezed",
      "outputs": [
        {
          "internalType": "bool",
          "name": "",
          "type": "bool"
        }
      ],
      "stateMutability": "view",
      "type": "function"
    },
    {
      "inputs": [
        {
          "internalType": "address",
          "name": "_reserve",
          "type": "address"
        }
      ],
      "name": "getReserveIsStableBorrowRateEnabled",
      "outputs": [
        {
          "internalType": "bool",
          "name": "",
          "type": "bool"
        }
      ],
      "stateMutability": "view",
      "type": "function"
    },
    {
      "inputs": [
        {
          "internalType": "address",
          "name": "_reserve",
          "type": "address"
        }
      ],
      "name": "getReserveLastUpdate",
      "outputs": [
        {
          "internalType": "uint40",
          "name": "timestamp",
          "type": "uint40"
        }
      ],
      "stateMutability": "view",
      "type": "function"
    },
    {
      "inputs": [
        {
          "internalType": "address",
          "name": "_reserve",
          "type": "address"
        }
      ],
      "name": "getReserveLiquidationBonus",
      "outputs": [
        {
          "internalType": "uint256",
          "name": "",
          "type": "uint256"
        }
      ],
      "stateMutability": "view",
      "type": "function"
    },
    {
      "inputs": [
        {
          "internalType": "address",
          "name": "_reserve",
          "type": "address"
        }
      ],
      "name": "getReserveLiquidationThreshold",
      "outputs": [
        {
          "internalType": "uint256",
          "name": "",
          "type": "uint256"
        }
      ],
      "stateMutability": "view",
      "type": "function"
    },
    {
      "inputs": [
        {
          "internalType": "address",
          "name": "_reserve",
          "type": "address"
        }
      ],
      "name": "getReserveLiquidityCumulativeIndex",
      "outputs": [
        {
          "internalType": "uint256",
          "name": "",
          "type": "uint256"
        }
      ],
      "stateMutability": "view",
      "type": "function"
    },
    {
      "inputs": [
        {
          "internalType": "address",
          "name": "_reserve",
          "type": "address"
        }
      ],
      "name": "getReserveNormalizedIncome",
      "outputs": [
        {
          "internalType": "uint256",
          "name": "",
          "type": "uint256"
        }
      ],
      "stateMutability": "view",
      "type": "function"
    },
    {
      "inputs": [
        {
          "internalType": "address",
          "name": "_reserve",
          "type": "address"
        }
      ],
      "name": "getReserveTotalBorrows",
      "outputs": [
        {
          "internalType": "uint256",
          "name": "",
          "type": "uint256"
        }
      ],
      "stateMutability": "view",
      "type": "function"
    },
    {
      "inputs": [
        {
          "internalType": "address",
          "name": "_reserve",
          "type": "address"
        }
      ],
      "name": "getReserveTotalBorrowsStable",
      "outputs": [
        {
          "internalType": "uint256",
          "name": "",
          "type": "uint256"
        }
      ],
      "stateMutability": "view",
      "type": "function"
    },
    {
      "inputs": [
        {
          "internalType": "address",
          "name": "_reserve",
          "type": "address"
        }
      ],
      "name": "getReserveTotalBorrowsVariable",
      "outputs": [
        {
          "internalType": "uint256",
          "name": "",
          "type": "uint256"
        }
      ],
      "stateMutability": "view",
      "type": "function"
    },
    {
      "inputs": [
        {
          "internalType": "address",
          "name": "_reserve",
          "type": "address"
        }
      ],
      "name": "getReserveTotalLiquidity",
      "outputs": [
        {
          "internalType": "uint256",
          "name": "",
          "type": "uint256"
        }
      ],
      "stateMutability": "view",
      "type": "function"
    },
    {
      "inputs": [
        {
          "internalType": "address",
          "name": "_reserve",
          "type": "address"
        }
      ],
      "name": "getReserveUtilizationRate",
      "outputs": [
        {
          "internalType": "uint256",
          "name": "",
          "type": "uint256"
        }
      ],
      "stateMutability": "view",
      "type": "function"
    },
    {
      "inputs": [
        {
          "internalType": "address",
          "name": "_reserve",
          "type": "address"
        }
      ],
      "name": "getReserveVariableBorrowsCumulativeIndex",
      "outputs": [
        {
          "internalType": "uint256",
          "name": "",
          "type": "uint256"
        }
      ],
      "stateMutability": "view",
      "type": "function"
    },
    {
      "inputs": [],
      "name": "getReserves",
      "outputs": [
        {
          "internalType": "address[]",
          "name": "",
          "type": "address[]"
        }
      ],
      "stateMutability": "view",
      "type": "function"
    },
    {
      "inputs": [
        {
          "internalType": "address",
          "name": "_reserve",
          "type": "address"
        },
        {
          "internalType": "address",
          "name": "_user",
          "type": "address"
        }
      ],
      "name": "getUserBasicReserveData",
      "outputs": [
        {
          "internalType": "uint256",
          "name": "",
          "type": "uint256"
        },
        {
          "internalType": "uint256",
          "name": "",
          "type": "uint256"
        },
        {
          "internalType": "uint256",
          "name": "",
          "type": "uint256"
        },
        {
          "internalType": "bool",
          "name": "",
          "type": "bool"
        }
      ],
      "stateMutability": "view",
      "type": "function"
    },
    {
      "inputs": [
        {
          "internalType": "address",
          "name": "_reserve",
          "type": "address"
        },
        {
          "internalType": "address",
          "name": "_user",
          "type": "address"
        }
      ],
      "name": "getUserBorrowBalances",
      "outputs": [
        {
          "internalType": "uint256",
          "name": "",
          "type": "uint256"
        },
        {
          "internalType": "uint256",
          "name": "",
          "type": "uint256"
        },
        {
          "internalType": "uint256",
          "name": "",
          "type": "uint256"
        }
      ],
      "stateMutability": "view",
      "type": "function"
    },
    {
      "inputs": [
        {
          "internalType": "address",
          "name": "_reserve",
          "type": "address"
        },
        {
          "internalType": "address",
          "name": "_user",
          "type": "address"
        },
        {
          "internalType": "uint256",
          "name": "_proposalId",
          "type": "uint256"
        },
        {
          "internalType": "bool",
          "name": "_isBorrowProposal",
          "type": "bool"
        }
      ],
      "name": "getUserBorrowBalancesProposeMode",
      "outputs": [
        {
          "internalType": "uint256",
          "name": "",
          "type": "uint256"
        },
        {
          "internalType": "uint256",
          "name": "",
          "type": "uint256"
        },
        {
          "internalType": "uint256",
          "name": "",
          "type": "uint256"
        }
      ],
      "stateMutability": "view",
      "type": "function"
    },
    {
      "inputs": [
        {
          "internalType": "address",
          "name": "_reserve",
          "type": "address"
        },
        {
          "internalType": "address",
          "name": "_user",
          "type": "address"
        }
      ],
      "name": "getUserCurrentBorrowRateMode",
      "outputs": [
        {
          "internalType": "enum CoreLibrary.InterestRateMode",
          "name": "",
          "type": "uint8"
        }
      ],
      "stateMutability": "view",
      "type": "function"
    },
    {
      "inputs": [
        {
          "internalType": "address",
          "name": "_reserve",
          "type": "address"
        },
        {
          "internalType": "address",
          "name": "_user",
          "type": "address"
        }
      ],
      "name": "getUserCurrentStableBorrowRate",
      "outputs": [
        {
          "internalType": "uint256",
          "name": "",
          "type": "uint256"
        }
      ],
      "stateMutability": "view",
      "type": "function"
    },
    {
      "inputs": [
        {
          "internalType": "address",
          "name": "_reserve",
          "type": "address"
        },
        {
          "internalType": "address",
          "name": "_user",
          "type": "address"
        }
      ],
      "name": "getUserLastUpdate",
      "outputs": [
        {
          "internalType": "uint256",
          "name": "timestamp",
          "type": "uint256"
        }
      ],
      "stateMutability": "view",
      "type": "function"
    },
    {
      "inputs": [
        {
          "internalType": "address",
          "name": "_reserve",
          "type": "address"
        },
        {
          "internalType": "address",
          "name": "_user",
          "type": "address"
        }
      ],
      "name": "getUserOriginationFee",
      "outputs": [
        {
          "internalType": "uint256",
          "name": "",
          "type": "uint256"
        }
      ],
      "stateMutability": "view",
      "type": "function"
    },
    {
      "inputs": [
        {
          "internalType": "address",
          "name": "_reserve",
          "type": "address"
        },
        {
          "internalType": "address",
          "name": "_user",
          "type": "address"
        }
      ],
      "name": "getUserUnderlyingAssetBalance",
      "outputs": [
        {
          "internalType": "uint256",
          "name": "",
          "type": "uint256"
        }
      ],
      "stateMutability": "view",
      "type": "function"
    },
    {
      "inputs": [
        {
          "internalType": "address",
          "name": "_reserve",
          "type": "address"
        },
        {
          "internalType": "address",
          "name": "_user",
          "type": "address"
        }
      ],
      "name": "getUserVariableBorrowCumulativeIndex",
      "outputs": [
        {
          "internalType": "uint256",
          "name": "",
          "type": "uint256"
        }
      ],
      "stateMutability": "view",
      "type": "function"
    },
    {
      "inputs": [],
      "name": "incrementBorrowProposalCount",
      "outputs": [],
      "stateMutability": "nonpayable",
      "type": "function"
    },
    {
      "inputs": [],
      "name": "incrementLendProposalCount",
      "outputs": [],
      "stateMutability": "nonpayable",
      "type": "function"
    },
    {
      "inputs": [
        {
          "internalType": "address",
          "name": "_reserve",
          "type": "address"
        },
        {
          "internalType": "address",
          "name": "_aTokenAddress",
          "type": "address"
        },
        {
          "internalType": "uint256",
          "name": "_decimals",
          "type": "uint256"
        },
        {
          "internalType": "address",
          "name": "_interestRateStrategyAddress",
          "type": "address"
        }
      ],
      "name": "initReserve",
      "outputs": [],
      "stateMutability": "nonpayable",
      "type": "function"
    },
    {
      "inputs": [
        {
          "internalType": "contract LendingBoardAddressesProvider",
          "name": "_addressesProvider",
          "type": "address"
        }
      ],
      "name": "initialize",
      "outputs": [],
      "stateMutability": "nonpayable",
      "type": "function"
    },
    {
      "inputs": [
        {
          "internalType": "address",
          "name": "_reserve",
          "type": "address"
        }
      ],
      "name": "isReserveBorrowingEnabled",
      "outputs": [
        {
          "internalType": "bool",
          "name": "",
          "type": "bool"
        }
      ],
      "stateMutability": "view",
      "type": "function"
    },
    {
      "inputs": [
        {
          "internalType": "address",
          "name": "_reserve",
          "type": "address"
        }
      ],
      "name": "isReserveUsageAsCollateralEnabled",
      "outputs": [
        {
          "internalType": "bool",
          "name": "",
          "type": "bool"
        }
      ],
      "stateMutability": "view",
      "type": "function"
    },
    {
      "inputs": [
        {
          "internalType": "address",
          "name": "_reserve",
          "type": "address"
        },
        {
          "internalType": "address",
          "name": "_user",
          "type": "address"
        },
        {
          "internalType": "uint256",
          "name": "_amount",
          "type": "uint256"
        }
      ],
      "name": "isUserAllowedToBorrowAtStable",
      "outputs": [
        {
          "internalType": "bool",
          "name": "",
          "type": "bool"
        }
      ],
      "stateMutability": "view",
      "type": "function"
    },
    {
      "inputs": [
        {
          "internalType": "address",
          "name": "_reserve",
          "type": "address"
        },
        {
          "internalType": "address",
          "name": "_user",
          "type": "address"
        }
      ],
      "name": "isUserUseReserveAsCollateralEnabled",
      "outputs": [
        {
          "internalType": "bool",
          "name": "",
          "type": "bool"
        }
      ],
      "stateMutability": "view",
      "type": "function"
    },
    {
      "inputs": [],
      "name": "lendingPoolAddress",
      "outputs": [
        {
          "internalType": "address",
          "name": "",
          "type": "address"
        }
      ],
      "stateMutability": "view",
      "type": "function"
    },
    {
      "inputs": [
        {
          "internalType": "address",
          "name": "_token",
          "type": "address"
        },
        {
          "internalType": "uint256",
          "name": "_amount",
          "type": "uint256"
        },
        {
          "internalType": "address",
          "name": "_destination",
          "type": "address"
        }
      ],
      "name": "liquidateFee",
      "outputs": [],
      "stateMutability": "payable",
      "type": "function"
    },
    {
      "inputs": [],
      "name": "refreshConfiguration",
      "outputs": [],
      "stateMutability": "nonpayable",
      "type": "function"
    },
    {
      "inputs": [
        {
          "internalType": "address",
          "name": "_reserveToRemove",
          "type": "address"
        }
      ],
      "name": "removeLastAddedReserve",
      "outputs": [],
      "stateMutability": "nonpayable",
      "type": "function"
    },
    {
      "inputs": [
        {
          "internalType": "uint256",
          "name": "",
          "type": "uint256"
        }
      ],
      "name": "reservesList",
      "outputs": [
        {
          "internalType": "address",
          "name": "",
          "type": "address"
        }
      ],
      "stateMutability": "view",
      "type": "function"
    },
    {
      "inputs": [
        {
          "internalType": "address",
          "name": "_reserve",
          "type": "address"
        },
        {
          "internalType": "uint256",
          "name": "_ltv",
          "type": "uint256"
        }
      ],
      "name": "setReserveBaseLTVasCollateral",
      "outputs": [],
      "stateMutability": "nonpayable",
      "type": "function"
    },
    {
      "inputs": [
        {
          "internalType": "address",
          "name": "_reserve",
          "type": "address"
        },
        {
          "internalType": "uint256",
          "name": "_decimals",
          "type": "uint256"
        }
      ],
      "name": "setReserveDecimals",
      "outputs": [],
      "stateMutability": "nonpayable",
      "type": "function"
    },
    {
      "inputs": [
        {
          "internalType": "address",
          "name": "_reserve",
          "type": "address"
        },
        {
          "internalType": "address",
          "name": "_rateStrategyAddress",
          "type": "address"
        }
      ],
      "name": "setReserveInterestRateStrategyAddress",
      "outputs": [],
      "stateMutability": "nonpayable",
      "type": "function"
    },
    {
      "inputs": [
        {
          "internalType": "address",
          "name": "_reserve",
          "type": "address"
        },
        {
          "internalType": "uint256",
          "name": "_bonus",
          "type": "uint256"
        }
      ],
      "name": "setReserveLiquidationBonus",
      "outputs": [],
      "stateMutability": "nonpayable",
      "type": "function"
    },
    {
      "inputs": [
        {
          "internalType": "address",
          "name": "_reserve",
          "type": "address"
        },
        {
          "internalType": "uint256",
          "name": "_threshold",
          "type": "uint256"
        }
      ],
      "name": "setReserveLiquidationThreshold",
      "outputs": [],
      "stateMutability": "nonpayable",
      "type": "function"
    },
    {
      "inputs": [
        {
          "internalType": "address",
          "name": "_reserve",
          "type": "address"
        },
        {
          "internalType": "address",
          "name": "_user",
          "type": "address"
        },
        {
          "internalType": "bool",
          "name": "_useAsCollateral",
          "type": "bool"
        }
      ],
      "name": "setUserUseReserveAsCollateral",
      "outputs": [],
      "stateMutability": "nonpayable",
      "type": "function"
    },
    {
      "inputs": [
        {
          "internalType": "address",
          "name": "_token",
          "type": "address"
        },
        {
          "internalType": "address",
          "name": "_user",
          "type": "address"
        },
        {
          "internalType": "uint256",
          "name": "_amount",
          "type": "uint256"
        },
        {
          "internalType": "address",
          "name": "_destination",
          "type": "address"
        }
      ],
      "name": "transferToFeeCollectionAddress",
      "outputs": [],
      "stateMutability": "payable",
      "type": "function"
    },
    {
      "inputs": [
        {
          "internalType": "address",
          "name": "_reserve",
          "type": "address"
        },
        {
          "internalType": "address payable",
          "name": "_user",
          "type": "address"
        },
        {
          "internalType": "uint256",
          "name": "_amount",
          "type": "uint256"
        }
      ],
      "name": "transferToReserve",
      "outputs": [],
      "stateMutability": "payable",
      "type": "function"
    },
    {
      "inputs": [
        {
          "internalType": "address",
          "name": "_reserve",
          "type": "address"
        },
        {
          "internalType": "address payable",
          "name": "_user",
          "type": "address"
        },
        {
          "internalType": "uint256",
          "name": "_amount",
          "type": "uint256"
        }
      ],
      "name": "transferToUser",
      "outputs": [],
      "stateMutability": "nonpayable",
      "type": "function"
    },
    {
      "inputs": [
        {
          "internalType": "address",
          "name": "_reserve",
          "type": "address"
        }
      ],
      "name": "unfreezeReserve",
      "outputs": [],
      "stateMutability": "nonpayable",
      "type": "function"
    },
    {
      "inputs": [
        {
          "internalType": "uint256",
          "name": "_proposalId",
          "type": "uint256"
        },
        {
          "components": [
            {
              "internalType": "bool",
              "name": "active",
              "type": "bool"
            },
            {
              "internalType": "address",
              "name": "proposer",
              "type": "address"
            },
            {
              "internalType": "address",
              "name": "reserveToReceive",
              "type": "address"
            },
            {
              "internalType": "uint256",
              "name": "amount",
              "type": "uint256"
            },
            {
              "internalType": "address",
              "name": "reserveForCollateral",
              "type": "address"
            },
            {
              "internalType": "uint256",
              "name": "interestRate",
              "type": "uint256"
            },
            {
              "internalType": "uint256",
              "name": "dueDate",
              "type": "uint256"
            },
            {
              "internalType": "uint256",
              "name": "proposalDate",
              "type": "uint256"
            },
            {
              "internalType": "uint256",
              "name": "serviceFee",
              "type": "uint256"
            },
            {
              "internalType": "uint256",
              "name": "ltv",
              "type": "uint256"
            },
            {
              "internalType": "bool",
              "name": "isRepayed",
              "type": "bool"
            }
          ],
          "internalType": "struct CoreLibrary.ProposalStructure",
          "name": "_inputBorrowProposal",
          "type": "tuple"
        }
      ],
      "name": "updateBorrowProposal",
      "outputs": [],
      "stateMutability": "nonpayable",
      "type": "function"
    },
    {
      "inputs": [
        {
          "internalType": "uint256",
          "name": "_proposalId",
          "type": "uint256"
        },
        {
          "components": [
            {
              "internalType": "bool",
              "name": "active",
              "type": "bool"
            },
            {
              "internalType": "address",
              "name": "proposer",
              "type": "address"
            },
            {
              "internalType": "address",
              "name": "reserveToReceive",
              "type": "address"
            },
            {
              "internalType": "uint256",
              "name": "amount",
              "type": "uint256"
            },
            {
              "internalType": "address",
              "name": "reserveForCollateral",
              "type": "address"
            },
            {
              "internalType": "uint256",
              "name": "interestRate",
              "type": "uint256"
            },
            {
              "internalType": "uint256",
              "name": "dueDate",
              "type": "uint256"
            },
            {
              "internalType": "uint256",
              "name": "proposalDate",
              "type": "uint256"
            },
            {
              "internalType": "uint256",
              "name": "serviceFee",
              "type": "uint256"
            },
            {
              "internalType": "uint256",
              "name": "ltv",
              "type": "uint256"
            },
            {
              "internalType": "bool",
              "name": "isRepayed",
              "type": "bool"
            }
          ],
          "internalType": "struct CoreLibrary.ProposalStructure",
          "name": "_inputBorrowProposal",
          "type": "tuple"
        }
      ],
      "name": "updateLendProposal",
      "outputs": [],
      "stateMutability": "nonpayable",
      "type": "function"
    },
    {
      "inputs": [
        {
          "internalType": "address",
          "name": "_reserve",
          "type": "address"
        },
        {
          "internalType": "address",
          "name": "_user",
          "type": "address"
        },
        {
          "internalType": "uint256",
          "name": "_amountBorrowed",
          "type": "uint256"
        },
        {
          "internalType": "uint256",
          "name": "_borrowFee",
          "type": "uint256"
        },
        {
          "internalType": "enum CoreLibrary.InterestRateMode",
          "name": "_rateMode",
          "type": "uint8"
        }
      ],
      "name": "updateStateOnBorrow",
      "outputs": [
        {
          "internalType": "uint256",
          "name": "",
          "type": "uint256"
        },
        {
          "internalType": "uint256",
          "name": "",
          "type": "uint256"
        }
      ],
      "stateMutability": "nonpayable",
      "type": "function"
    },
    {
      "inputs": [
        {
          "internalType": "address",
          "name": "_reserve",
          "type": "address"
        },
        {
          "internalType": "address",
          "name": "_user",
          "type": "address"
        },
        {
          "internalType": "uint256",
          "name": "_amountBorrowed",
          "type": "uint256"
        },
        {
          "internalType": "uint256",
          "name": "_borrowFee",
          "type": "uint256"
        },
        {
          "internalType": "enum CoreLibrary.InterestRateMode",
          "name": "_rateMode",
          "type": "uint8"
        },
        {
          "internalType": "bool",
          "name": "_isBorrowProposal",
          "type": "bool"
        },
        {
          "internalType": "uint256",
          "name": "_proposalId",
          "type": "uint256"
        }
      ],
      "name": "updateStateOnBorrowProposeMode",
      "outputs": [
        {
          "internalType": "uint256",
          "name": "",
          "type": "uint256"
        },
        {
          "internalType": "uint256",
          "name": "",
          "type": "uint256"
        }
      ],
      "stateMutability": "nonpayable",
      "type": "function"
    },
    {
      "inputs": [
        {
          "internalType": "address",
          "name": "_reserve",
          "type": "address"
        },
        {
          "internalType": "address",
          "name": "_user",
          "type": "address"
        },
        {
          "internalType": "uint256",
          "name": "_amount",
          "type": "uint256"
        },
        {
          "internalType": "bool",
          "name": "_isFirstDeposit",
          "type": "bool"
        }
      ],
      "name": "updateStateOnDeposit",
      "outputs": [],
      "stateMutability": "nonpayable",
      "type": "function"
    },
    {
      "inputs": [
        {
          "internalType": "address",
          "name": "_reserve",
          "type": "address"
        },
        {
          "internalType": "uint256",
          "name": "_availableLiquidityBefore",
          "type": "uint256"
        },
        {
          "internalType": "uint256",
          "name": "_income",
          "type": "uint256"
        },
        {
          "internalType": "uint256",
          "name": "_protocolFee",
          "type": "uint256"
        }
      ],
      "name": "updateStateOnFlashLoan",
      "outputs": [],
      "stateMutability": "nonpayable",
      "type": "function"
    },
    {
      "inputs": [
        {
          "internalType": "address",
          "name": "_principalReserve",
          "type": "address"
        },
        {
          "internalType": "address",
          "name": "_collateralReserve",
          "type": "address"
        },
        {
          "internalType": "address",
          "name": "_user",
          "type": "address"
        },
        {
          "internalType": "uint256",
          "name": "_amountToLiquidate",
          "type": "uint256"
        },
        {
          "internalType": "uint256",
          "name": "_collateralToLiquidate",
          "type": "uint256"
        },
        {
          "internalType": "uint256",
          "name": "_feeLiquidated",
          "type": "uint256"
        },
        {
          "internalType": "uint256",
          "name": "_liquidatedCollateralForFee",
          "type": "uint256"
        },
        {
          "internalType": "uint256",
          "name": "_balanceIncrease",
          "type": "uint256"
        },
        {
          "internalType": "bool",
          "name": "_liquidatorReceivesAToken",
          "type": "bool"
        }
      ],
      "name": "updateStateOnLiquidation",
      "outputs": [],
      "stateMutability": "nonpayable",
      "type": "function"
    },
    {
      "inputs": [
        {
          "internalType": "address",
          "name": "_reserve",
          "type": "address"
        },
        {
          "internalType": "address",
          "name": "_user",
          "type": "address"
        },
        {
          "internalType": "uint256",
          "name": "_balanceIncrease",
          "type": "uint256"
        }
      ],
      "name": "updateStateOnRebalance",
      "outputs": [
        {
          "internalType": "uint256",
          "name": "",
          "type": "uint256"
        }
      ],
      "stateMutability": "nonpayable",
      "type": "function"
    },
    {
      "inputs": [
        {
          "internalType": "address",
          "name": "_reserve",
          "type": "address"
        },
        {
          "internalType": "address",
          "name": "_user",
          "type": "address"
        },
        {
          "internalType": "uint256",
          "name": "_amountRedeemed",
          "type": "uint256"
        },
        {
          "internalType": "bool",
          "name": "_userRedeemedEverything",
          "type": "bool"
        }
      ],
      "name": "updateStateOnRedeem",
      "outputs": [],
      "stateMutability": "nonpayable",
      "type": "function"
    },
    {
      "inputs": [
        {
          "internalType": "address",
          "name": "_reserve",
          "type": "address"
        },
        {
          "internalType": "address",
          "name": "_user",
          "type": "address"
        },
        {
          "internalType": "uint256",
          "name": "_paybackAmountMinusFees",
          "type": "uint256"
        },
        {
          "internalType": "uint256",
          "name": "_originationFeeRepaid",
          "type": "uint256"
        },
        {
          "internalType": "uint256",
          "name": "_balanceIncrease",
          "type": "uint256"
        },
        {
          "internalType": "bool",
          "name": "_repaidWholeLoan",
          "type": "bool"
        }
      ],
      "name": "updateStateOnRepay",
      "outputs": [],
      "stateMutability": "nonpayable",
      "type": "function"
    },
    {
      "inputs": [
        {
          "internalType": "address",
          "name": "_reserve",
          "type": "address"
        },
        {
          "internalType": "address",
          "name": "_user",
          "type": "address"
        },
        {
          "internalType": "uint256",
          "name": "_principalBorrowBalance",
          "type": "uint256"
        },
        {
          "internalType": "uint256",
          "name": "_compoundedBorrowBalance",
          "type": "uint256"
        },
        {
          "internalType": "uint256",
          "name": "_balanceIncrease",
          "type": "uint256"
        },
        {
          "internalType": "enum CoreLibrary.InterestRateMode",
          "name": "_currentRateMode",
          "type": "uint8"
        }
      ],
      "name": "updateStateOnSwapRate",
      "outputs": [
        {
          "internalType": "enum CoreLibrary.InterestRateMode",
          "name": "",
          "type": "uint8"
        },
        {
          "internalType": "uint256",
          "name": "",
          "type": "uint256"
        }
      ],
      "stateMutability": "nonpayable",
      "type": "function"
    }
  ],
  "bytecode": "0x6080806040523461002557600080556000603a556000603b556156ad90816200002b8239f35b600080fdfe60806040526004361015610013575b600080fd5b60003560e01c806305075d6e1461067b5780630902f1ac1461067257806309ac2953146106695780630c7de4e91461066057806318a4dbca1461065757806318f9bbae1461064e5780631ca19f19146106455780631d2118f91461063c57806328fcf4d314610633578063298822081461062a5780632ba0744c146106215780633443a14b1461061857806334b3beee1461060f578063369f27131461060657806337ac6fe4146105fd5780633e72a454146105f457806345330a40146105eb57806346bc0f28146105e25780634a08accb146105d95780634f144609146105d05780634fe7a6e5146105c75780635420f5a7146105be5780635cf2e656146105b55780635fc526ff146105ac57806364681083146105a357806366bbd9281461059a57806366d103f31461059157806368beb4d6146105885780636ae144161461057f5780636fffab0c1461057657806370fb84f41461056d5780637aca76eb146105645780637f90fec51461055b57806388079d88146105525780638f385c2214610549578063906c0a411461054057806396767f441461053757806398bd47371461052e5780639e3c4f3b146105255780639e6748481461051c5780639fb8afcd14610513578063a2353fdc1461050a578063a5bc826c14610501578063a8dc0f45146104f8578063af825b07146104ef578063afcdbea3146104e6578063b0f0a94a146104dd578063b701d093146104d4578063b75d6f34146104cb578063b8c0f745146104c2578063bbae7e6f146104b9578063bcd6ffa4146104b0578063bd7fd79a146104a7578063bfacad841461049e578063c33cfd9014610495578063c4d66de81461048c578063c540148e14610483578063c72c4d101461047a578063c76a6c9c14610471578063c7d1423714610468578063d06e2ec11461045f578063d15e005314610456578063d3ae26b31461044d578063d466016f14610444578063d8406a3a1461043b578063da12d96f14610432578063dae4c4e714610429578063e10076ad14610420578063e2174d8614610417578063e24030191461040e578063e6d1819014610405578063e8ae2f5b146103fc578063ed22adf1146103f3578063eede87c1146103ea578063ef1f9373146103e1578063f054ab46146103d8578063f6148311146103cf578063f6ea8d76146103c6578063fa51854c146103bd578063fa93b2a5146103b4578063fd7076c6146103ab5763feab31ac146103a357600080fd5b61000e6132cf565b5061000e6131b9565b5061000e61314c565b5061000e6130d3565b5061000e6130bd565b5061000e612f57565b5061000e612efd565b5061000e612e7b565b5061000e612daf565b5061000e612d91565b5061000e612cd9565b5061000e612c9c565b5061000e612c74565b5061000e612c50565b5061000e612c11565b5061000e612b89565b5061000e612a8d565b5061000e612a6d565b5061000e6129ee565b5061000e6129c4565b5061000e61294a565b5061000e6127b7565b5061000e6126a5565b5061000e612664565b5061000e61263a565b5061000e6125f9565b5061000e61250b565b5061000e6124c1565b5061000e612499565b5061000e61245b565b5061000e6123dc565b5061000e6123a6565b5061000e612324565b5061000e61220b565b5061000e6121ca565b5061000e61219e565b5061000e612069565b5061000e611eff565b5061000e611e17565b5061000e611d45565b5061000e611d04565b5061000e611ccc565b5061000e611c83565b5061000e611c5b565b5061000e611c1a565b5061000e611bf8565b5061000e611bd0565b5061000e611ae4565b5061000e611abc565b5061000e611a7b565b5061000e6119f3565b5061000e611974565b5061000e611929565b5061000e6118e6565b5061000e6117bc565b5061000e61176a565b5061000e6116eb565b5061000e611660565b5061000e6115f3565b5061000e6115aa565b5061000e611588565b5061000e61153e565b5061000e6114a9565b5061000e611460565b5061000e61141f565b5061000e611306565b5061000e61124e565b5061000e611017565b5061000e610fda565b5061000e610f97565b5061000e610f18565b5061000e610e0a565b5061000e610c3e565b5061000e610b43565b5061000e610a6b565b5061000e610a42565b5061000e6109cc565b5061000e6109aa565b5061000e610965565b5061000e6107f2565b5061000e610712565b5061000e6106be565b6001600160a01b0381160361000e57565b604435906106a282610684565b565b606435906106a282610684565b60a435906106a282610684565b503461000e57602036600319011261000e576004356106dc81610684565b60018060a01b03166000526036602052602060ff600d6040600020015460e01c166040519015158152f35b600091031261000e57565b503461000e576000806003193601126107c8576040518091603c549081835260208093018092603c835260008051602061563883398151915290835b8181106107ab5750505084610764910385610d05565b60405193838594850191818652518092526040850193925b82811061078b57505050500390f35b83516001600160a01b03168552869550938101939281019260010161077c565b82546001600160a01b03168452928601926001928301920161074e565b80fd5b608090600319011261000e576004356107e381610684565b90602435906044359060643590565b503461000e576109056109006108e361080a366107cb565b9181959394919260018060a01b039061082882603454163314613498565b603554829060049060209061084d906001600160a01b03165b6001600160a01b031690565b604051637744894b60e11b815292839182905afa908115610958575b60009161092a575b501691871673eeeeeeeeeeeeeeeeeeeeeeeeeeeeeeeeeeeeeeee8114610907579161089b92613715565b6001600160a01b03851660009081526036602052604090206108bc90614cba565b6001600160a01b03851660009081526036602052604090206108dd906154a6565b90613545565b6001600160a01b0384166000908152603660205260409020614d2d565b61495f565b005b50600080610925938193604051915af161091f613682565b50614b3d565b61089b565b61094b915060203d8111610951575b6109438183610d05565b810190613c56565b38610871565b503d610939565b610960613afb565b610869565b503461000e57600036600319011261000e57602060405160068152f35b604090600319011261000e5760043561099a81610684565b906024356109a781610684565b90565b503461000e5760206109c46109be36610982565b90613b08565b604051908152f35b503461000e57602036600319011261000e576004356109ea81610684565b60018060a01b03166000526036602052602060ff600d6040600020015460d01c166040519015158152f35b60031115610a1f57565b634e487b7160e01b600052602160045260246000fd5b906003821015610a1f5752565b503461000e576020610a5c610a5636610982565b90613ece565b610a696040518092610a35565bf35b503461000e57610905610a7d36610982565b9060018060a01b0390610abf600460208460355416604051928380926329f2549760e21b82525afa908115610b0a575b600091610aec575b5083163314614100565b166000526036602052600d6040600020019060018060a01b03166001600160601b0360a01b825416179055565b610b04915060203d8111610951576109438183610d05565b38610ab5565b610b12613afb565b610aad565b606090600319011261000e57600435610b2f81610684565b90602435610b3c81610684565b9060443590565b50610b4d36610b17565b9060018060a01b038093610b6682603454163314613498565b1673eeeeeeeeeeeeeeeeeeeeeeeeeeeeeeeeeeeeeeee8114610bf45734610b94576109059330921690613999565b60405162461bcd60e51b815260206004820152603260248201527f557365722069732073656e64696e672045544820616c6f6e672077697468207460448201527134329022a9219918103a3930b739b332b91760711b6064820152608490fd5b5091813410610c03811561392f565b823411610c0c57005b6109059360009384938493610c31575b60405192165af1610c2b613682565b506136d0565b610c39613308565b610c1c565b503461000e57600036600319011261000e576020603a54604051908152f35b50634e487b7160e01b600052604160045260246000fd5b67ffffffffffffffff8111610c8857604052565b610c90610c5d565b604052565b6060810190811067ffffffffffffffff821117610c8857604052565b6040810190811067ffffffffffffffff821117610c8857604052565b6080810190811067ffffffffffffffff821117610c8857604052565b60a0810190811067ffffffffffffffff821117610c8857604052565b90601f8019910116810190811067ffffffffffffffff821117610c8857604052565b60405190610160820182811067ffffffffffffffff821117610c8857604052565b8015150361000e57565b602435906106a282610d48565b61016435906106a282610d48565b9061018060031983011261000e5761016060043592602319011261000e57610d93610d27565b610d9b610d52565b8152610da5610695565b6020820152610db26106a4565b60408201526084356060820152610dc76106b1565b608082015260c43560a082015260e43560c08201526101043560e08201526101243561010082015261014435610120820152610e01610d5f565b61014082015290565b503461000e57610905610e1c36610d6d565b9060005260386020526009610f05610140604060002093610e52610e408251151590565b869060ff801983541691151516179055565b6020810151610e86906001600160a01b03168654610100600160a81b03191660089190911b610100600160a81b0316178655565b60408101516001860180546001600160a01b039283166001600160a01b03199182161790915560608301516002880155608083015160038801805491909316911617905560a0810151600486015560c0810151600586015560e08101516006860155610100810151600786015561012081015160088601550151151590565b91019060ff801983541691151516179055565b503461000e57604036600319011261000e57600435610f3681610684565b6035546040516329f2549760e21b81526001600160a01b039291610f7b91906020908290600490829088165afa908115610b0a57600091610aec575083163314614100565b1660005260366020526024356009604060002001556000604051f35b503461000e57602036600319011261000e576020600435610fb781610684565b60018060a01b0380911660005260368252600c6040600020015416604051908152f35b503461000e57600036600319011261000e576020603b54604051908152f35b60843590600382101561000e57565b60a43590600382101561000e57565b503461000e5760a036600319011261000e5760043561103581610684565b6111dd60243561104481610684565b6044359283611051610ff9565b6034546001600160a01b03916110949161106e9084163314613498565b6110888161107c8888613f7d565b9b918c91508a8a6142c0565b60643588858888614493565b6001600160a01b038316600090815260366020526040902091600d83019160606110dc6110cd610841610841875460018060a01b031690565b936110d788613b90565b61356e565b60028601546003870154600688015460405163057e37af60e41b81526001600160a01b038b166004820152602481019490945260448401929092526064830152608482015292839060a49082905afa938415611241575b600093849385966111f2575b50946111d59161119f600080516020615658833981519152969761116a876111656148e5565b6155ab565b600183018990556005830187905560048301849055805464ffffffffff60a01b19164260a01b64ffffffffff60a01b16179055565b60078154910154916040519586958a1698869192608093969594919660a084019784526020840152604083015260608201520152565b0390a2613f05565b604080519182526020820192909252f35b0390f35b61119f965060008051602061565883398151915295506111d592945061122e9060603d811161123a575b6112268183610d05565b8101906148ca565b9750909550939161113f565b503d61121c565b611249613afb565b611133565b503461000e57602036600319011261000e5760043561126c81610684565b6035546040516329f2549760e21b81526001600160a01b0392916112b191906020908290600490829088165afa908115610b0a57600091610aec575083163314614100565b166000908152603660205260409020600d01805460ff60e01b19169055005b608090600319011261000e576004356112e881610684565b906024356112f581610684565b90604435906064356109a781610684565b503461000e57611315366112d0565b92919060018060a01b0391611359600460208560355416604051928380926329f2549760e21b82525afa908115611412575b6000916113f4575b5084163314614100565b828416600052603660205260406000209473__$2ec35834968386f54fa313129cf94664e4$__95863b1561000e57610905968560849360009660405198899788966304dda73560e21b8852600488015216602486015260448501521660648301525af480156113e7575b6113ce575b50614c0e565b806113db6113e192610c74565b80610707565b386113c8565b6113ef613afb565b6113c3565b61140c915060203d8111610951576109438183610d05565b3861134f565b61141a613afb565b611347565b503461000e57602036600319011261000e5760043561143d81610684565b60018060a01b031660005260366020526020600660406000200154604051908152f35b503461000e57602036600319011261000e5760043561147e81610684565b60018060a01b03166000526036602052602060ff600d6040600020015460e81c166040519015158152f35b503461000e57602036600319011261000e576004356114c781610684565b60018060a01b03166000526036602052602064ffffffffff600d6040600020015460a01c16604051908152f35b50634e487b7160e01b600052603260045260246000fd5b603c54811015611531575b603c6000526000805160206156388339815191520190600090565b6115396114f4565b611516565b503461000e57602036600319011261000e57600435603c5481101561000e57603c60005260008051602061563883398151915201546040516001600160a01b039091168152602090f35b503461000e57600036600319011261000e576115a5603b5461331f565b603b55005b503461000e57602036600319011261000e576004356115c881610684565b60018060a01b03166000526036602052602060ff600d6040600020015460c81c166040519015158152f35b503461000e57602036600319011261000e5760043561161181610684565b6001600160a01b0316600090815260366020908152604091829020600b81015460088201546009830154600d909301548551928352938201529283015260d01c60ff1615156060820152608090f35b503461000e57600036600319011261000e576035546040516329f2549760e21b81526116b6916001600160a01b03906020908390600490829085165afa9182156116de575b6000926116be575b50163314614100565b610905614b95565b6116d791925060203d8111610951576109438183610d05565b90386116ad565b6116e6613afb565b6116a5565b503461000e57604036600319011261000e5760043561170981610684565b6035546040516329f2549760e21b81526001600160a01b03929161174e91906020908290600490829088165afa908115610b0a57600091610aec575083163314614100565b166000526036602052602435600b604060002001556000604051f35b503461000e57602064ffffffffff60056117b161178636610982565b60018060a01b03166000526037855260406000209060018060a01b0316600052602052604060002090565b015416604051908152f35b503461000e5761012036600319011261000e576004356117db81610684565b602435906117e882610684565b6118ad604435916117f883610684565b6064359061090060e435610104359561181087610d48565b6034546001600160a01b03906118299082163314613498565b84811660009081526036602090815260408083209385168352603782528083206001600160a01b038916845290915290209061186481614cba565b8660016118718589613ece565b61187a81610a15565b036118cc576004611899930161189281548785615089565b5491615147565b6118a28861477b565b8460a435918561479b565b156118b457005b610905906118c660c435608435613545565b90614afa565b906118e192506118dc85826151ff565b61520e565b611899565b503461000e57602036600319011261000e57602060043561190681610684565b60018060a01b0380911660005260368252600d6040600020015416604051908152f35b503461000e576020600461196a61193f36610982565b60018060a01b03166000526037845260406000209060018060a01b0316600052602052604060002090565b0154604051908152f35b503461000e57604036600319011261000e5760043561199281610684565b6035546040516329f2549760e21b81526001600160a01b0392916119d791906020908290600490829088165afa908115610b0a57600091610aec575083163314614100565b166000526036602052602435600a604060002001556000604051f35b503461000e57602036600319011261000e57600435611a1181610684565b6035546040516329f2549760e21b81526001600160a01b039291611a5691906020908290600490829088165afa908115610b0a57600091610aec575083163314614100565b166000908152603660205260409020600d01805460ff60e81b1916600160e81b179055005b503461000e57602036600319011261000e57600435611a9981610684565b60018060a01b031660005260366020526020600260406000200154604051908152f35b503461000e57602036600319011261000e5760206109c4600435611adf81610684565b613d02565b50606036600319011261000e57600435611afd81610684565b602435604435611b0c81610684565b6034546001600160a01b03918291611b279083163314613498565b169234611b6c571673eeeeeeeeeeeeeeeeeeeeeeeeeeeeeeeeeeeeeeee8114611b54579161090592613715565b50600080610905938193604051915af1610c2b613682565b60405162461bcd60e51b815260206004820152603660248201527f466565206c69717569646174696f6e20646f6573206e6f74207265717569726560448201527520616e79207472616e73666572206f662076616c756560501b6064820152608490fd5b503461000e57602036600319011261000e5760206109c4600435611bf381610684565b613bf9565b503461000e57600036600319011261000e57611c15603a5461331f565b603a55005b503461000e57602036600319011261000e57600435611c3881610684565b60018060a01b031660005260366020526020600360406000200154604051908152f35b503461000e57602060ff6005611c7361178636610982565b015460281c166040519015158152f35b503461000e57602036600319011261000e57600435611ca181610684565b60018060a01b03166000526036602052602060ff600d6040600020015460d81c166040519015158152f35b503461000e576111ee611ce7611ce136610982565b90613f7d565b604080519384526020840192909252908201529081906060820190565b503461000e57602036600319011261000e57600435611d2281610684565b60018060a01b031660005260366020526020600b60406000200154604051908152f35b503461000e57611d54366107cb565b91909260018060a01b0390611d96600460208460355416604051928380926329f2549760e21b82525afa908115610b0a57600091610aec575083163314614100565b16600052603660205260406000209173__$2ec35834968386f54fa313129cf94664e4$__92833b1561000e57600093608492604051968795869463126ee27360e11b865260048601526024850152604484015260648301525af48015611e0a575b611dfd57005b806113db61090592610c74565b611e12613afb565b611df7565b503461000e57600060203660031901126107c857600435611e3781610684565b6035546040516329f2549760e21b81526001600160a01b039291611e7c91906020908290600490829088165afa908115611ef2575b8591610aec575083163314614100565b1681526036602052604081208173__$2ec35834968386f54fa313129cf94664e4$__91823b15611eee576024604051809481936372efab5360e11b835260048301525af48015611ee1575b611ed2575b50604051f35b611edb90610c74565b38611ecc565b611ee9613afb565b611ec7565b5080fd5b611efa613afb565b611e6c565b503461000e576111ee6004612021611fe761200a611f1c36610b17565b603454929491926001600160a01b0391600591611f3c9084163314613498565b611fc560408489169489611f9389868f611f826000968c8852603660205288882094169586885260376020528888209060018060a01b0316600052602052604060002090565b611f8b84614cba565b015491615089565b8152603760209081528282206001600160a01b038c166000908152915260409020958152603660205220918454613545565b8355015487820155600501805464ffffffffff19164264ffffffffff16179055565b611ff083614ab8565b6001600160a01b0316600090815260376020526040902090565b9060018060a01b0316600052602052604060002090565b01546040519081529081906020820190565b608090600319011261000e5760043561204b81610684565b9060243561205881610684565b90604435906064356109a781610d48565b503461000e5761207836612033565b6034546001600160a01b0394926120b4916120969087163314613498565b85841660005260366020526120ae6040600020614cba565b83614afa565b6120ba57005b6005926120f5926120d033836034541614613498565b16600052603760205260406000209060018060a01b0316600052602052604060002090565b01805465ff000000000019169055005b815115158152610160810192916106a291906020818101516001600160a01b0316908301526040818101516001600160a01b031690830152606081810151908301526080808201516001600160a01b03169083015260a081015160a083015260c081015160c083015260e081015160e0830152610100808201519083015261012080820151908301526101408091015191019015159052565b503461000e57602036600319011261000e576111ee6121be6004356133ae565b60405191829182612105565b503461000e57602036600319011261000e576004356121e881610684565b60018060a01b031660005260366020526020600760406000200154604051908152f35b503461000e5760208060031936011261000e5760043561222a81610684565b6035546040516329f2549760e21b81526001600160a01b03929161226f919085908290600490829088165afa908115612317575b600091612300575083163314614100565b166000526036815260406000209081541515806122f3575b156122a357600d8201805460ff60e01b1916600160e01b179055005b6084906040519062461bcd60e51b825260048201526024808201527f5265736572766520686173206e6f74206265656e20696e697469616c697a6564604482015263081e595d60e21b6064820152fd5b5060078201541515612287565b610b049150853d8711610951576109438183610d05565b61231f613afb565b61225e565b503461000e57602036600319011261000e5760043561234281610684565b6035546040516329f2549760e21b81526001600160a01b03929161238791906020908290600490829088165afa908115610b0a57600091610aec575083163314614100565b166000908152603660205260409020600d01805460ff60d81b19169055005b503461000e576109056123b836610d6d565b9060005260396020526009610f05610140604060002093610e52610e408251151590565b503461000e576123eb36612033565b6034546001600160a01b039492612427916124099087163314613498565b85841660005260366020526124216040600020614cba565b8361495f565b61242d57005b600592612443926120d033836034541614613498565b01805465ff0000000000191665010000000000179055005b503461000e57602036600319011261000e5760043561247981610684565b60018060a01b031660005260366020526020604060002054604051908152f35b503461000e57602036600319011261000e5760206109c46004356124bc81610684565b613e85565b503461000e57602036600319011261000e5760206109c46004356124e481610684565b60018060a01b038116600052603683526108dd612505604060002092613b90565b916154a6565b503461000e57602036600319011261000e5760043561252981610684565b60ff6001541690811591826125f0575b80156125e4575b15612588576125539082612568576132e5565b61255957005b61090560ff1960015416600155565b612579600160ff1981541617600155565b6125836006600055565b6132e5565b60405162461bcd60e51b815260206004820152602e60248201527f436f6e747261637420696e7374616e63652068617320616c726561647920626560448201526d195b881a5b9a5d1a585b1a5e995960921b6064820152608490fd5b50600054600611612540565b50303b15612539565b503461000e57602036600319011261000e5760043561261781610684565b60018060a01b031660005260366020526020600160406000200154604051908152f35b503461000e57600036600319011261000e576035546040516001600160a01b039091168152602090f35b503461000e57602036600319011261000e5760043561268281610684565b60018060a01b031660005260366020526020600a60406000200154604051908152f35b506126af366112d0565b603454929391926001600160a01b039182916126ce9083163314613498565b1691169273eeeeeeeeeeeeeeeeeeeeeeeeeeeeeeeeeeeeeeee84141560001461279057346126ff5761090593613999565b60405162461bcd60e51b815260206004820152605f60248201527f557365722069732073656e64696e672045544820616c6f6e672077697468207460448201527f6865204552433230207472616e736665722e20436865636b207468652076616c60648201527f756520617474726962757465206f6620746865207472616e73616374696f6e00608482015260a490fd5b5061090592506000809291826127a9839434101561392f565b604051915af1610c2b613682565b503461000e57602036600319011261000e57612917600d6128b66004356127dd81610684565b6035546040516329f2549760e21b815261285d916001600160a01b0391612826916020908290600490829087165afa90811561293d575b60009161291f575b5082163314614100565b8061285261283d612838603c54613551565b61150b565b905460039190911b1c6001600160a01b031690565b931690831614614172565b6001600160a01b038116600090815260366020526040902061288890612882906154a6565b156141e4565b6001600160a01b0381166000908152603660205260409020838101805460ff60e01b191690556128c790600c905b0180546001600160a01b0319169055565b6001600160a01b03166000908152603660205260408120600b810182905581815560078101829055838101805461ffff60c81b191690556008810182905560098101829055600a81019190915590565b610905614249565b612937915060203d8111610951576109438183610d05565b3861281c565b612945613afb565b612814565b503461000e57602036600319011261000e5760043561296881610684565b60018060a01b031660005260366020526020676765c793fa10079d601b1b6129bb6129b660406000206129ae600182015464ffffffffff600d84015460a01c16906152a4565b90549061366f565b61352c565b04604051908152f35b503461000e57600036600319011261000e576034546040516001600160a01b039091168152602090f35b503461000e57604036600319011261000e57600435612a0c81610684565b6035546040516329f2549760e21b81526001600160a01b039291612a5191906020908290600490829088165afa908115610b0a57600091610aec575083163314614100565b1660005260366020526024356008604060002001556000604051f35b503461000e57602036600319011261000e576111ee6121be600435613472565b503461000e5760c036600319011261000e576040612b6f600435612ab081610684565b60243590612abd82610684565b6109006044359260843560a43591612ad483610d48565b8460018060a01b03612aeb81603454163314613498565b876001828416612b4360009d8e838152603660205281812096891681526037602052612b3589612b2f8a8585209060018060a01b0316600052602052604060002090565b99613ece565b938152603660205220614cba565b612b4c81610a15565b03612b74576004612b64930161189281548785615089565b8560643591866145b1565b604051f35b90612b8492506118dc85826151ff565b612b64565b503461000e57602036600319011261000e57600435612ba781610684565b6035546040516329f2549760e21b81526001600160a01b039291612bec91906020908290600490829088165afa908115610b0a57600091610aec575083163314614100565b166000908152603660205260409020600d01805460ff60d81b1916600160d81b179055005b503461000e576111ee612c2c612c2636610982565b906139db565b60408051948552602085019390935291830152151560608201529081906080820190565b503461000e576020612c6a612c6436610b17565b91613a58565b6040519015158152f35b503461000e57602036600319011261000e5760206109c4600435612c9781610684565b613b90565b503461000e57602036600319011261000e57600435612cba81610684565b60018060a01b0316600052603660205260206109c460406000206154a6565b503461000e57600060203660031901126107c857600435612cf981610684565b6035546040516329f2549760e21b81526001600160a01b039291612d3d91906020908290600490829088165afa908115611ef2578591610aec575083163314614100565b1681526036602052604081208173__$2ec35834968386f54fa313129cf94664e4$__91823b15611eee5760246040518094819363041e0b2d60e51b835260048301525af48015611ee157611ed25750604051f35b503461000e576111ee611ce7612da636612033565b92919091613fec565b503461000e57604036600319011261000e57600435612dcd81610684565b60243590612dda82610d48565b6035546040516329f2549760e21b81526001600160a01b039291612e1f91906020908290600490829088165afa908115610b0a57600091610aec575083163314614100565b166000526036602052604060002073__$2ec35834968386f54fa313129cf94664e4$__91823b1561000e5760446000926040519485938492637b1dd5df60e11b84526004840152151560248301525af48015611e0a57611dfd57005b503461000e57602036600319011261000e57600435612e9981610684565b6035546040516329f2549760e21b81526001600160a01b039291612ede91906020908290600490829088165afa908115610b0a57600091610aec575083163314614100565b166000908152603660205260409020600d01805460ff60e81b19169055005b503461000e57602036600319011261000e57600435612f1b81610684565b60018060a01b031660005260366020526020600960406000200154604051908152f35b60209093929193612f53816040810196610a35565b0152565b503461000e5760c036600319011261000e57600435612f7581610684565b602435612f8181610684565b60443590606435612f90611008565b9260018060a01b03612fa781603454163314613498565b85166000526036602052604060002090612fd78661200a8660018060a01b03166000526037602052604060002090565b612fe083614cba565b612fe986610a15565b6001860361303b579261302b959261300d61301293600461301c9701549083615147565b6151ff565b608435838661466a565b9261302681614ab8565b613f05565b906111ee60405192839283612f3e565b50939061304782610a15565b600282036130745761302b9461301c938261306a600561306f950154938261520e565b615089565b613012565b60405162461bcd60e51b815260206004820152601a60248201527f496e76616c69642072617465206d6f64652072656365697665640000000000006044820152606490fd5b0390fd5b503461000e576020600261196a61193f36610982565b503461000e57606036600319011261000e576004356130f181610684565b600561312a6024359261310384610684565b6044359361311085610d48565b6034546001600160a01b0391906120d09083163314613498565b01805465ff0000000000191691151560281b65ff000000000016919091179055005b503461000e5761315b36610b17565b909160018060a01b03809161317582603454163314613498565b169073eeeeeeeeeeeeeeeeeeeeeeeeeeeeeeeeeeeeeeee821461319d57610905931690613715565b6000928392509361090594839260405192165af1610c2b613682565b503461000e5760e036600319011261000e576132826111dd6004356131dd81610684565b602435906131ea82610684565b6130266044356132a16131fb610ff9565b613295818460a43561320c81610d48565b60c4359061322560018060a01b03603454163314613498565b61322d61333b565b50156132c15761323c906133ae565b60a0606082015191015180196064116132b4575b60640190806064613261848361366f565b048181106132a7575b039c8d9261327a83611165613585565b6111656135cc565b61328e82611165613611565b8a8a6142c0565b60643588848888614493565b82614afa565b6132af613308565b61326a565b6132bc613308565b613250565b6132ca90613472565b61323c565b503461000e576020600361196a61193f36610982565b60018060a01b03166001600160601b0360a01b60355416176035556106a2614b95565b50634e487b7160e01b600052601160045260246000fd5b600190600019811461332f570190565b613337613308565b0190565b60405190610160820182811067ffffffffffffffff8211176133a1575b604052816101406000918281528260208201528260408201528260608201528260808201528260a08201528260c08201528260e082015282610100820152826101208201520152565b6133a9610c5d565b613358565b6133b661333b565b50600052603860205260406000206109a761346860096133d4610d27565b936133fc81546133e960ff8216889015159052565b60081c6001600160a01b03166020870152565b60018101546001600160a01b031660408601526002810154606086015260038101546001600160a01b03166080860152600481015460a0860152600581015460c0860152600681015460e086015260078101546101008601526008810154610120860152015460ff1690565b1515610140830152565b61347a61333b565b50600052603960205260406000206109a761346860096133d4610d27565b1561349f57565b60405162461bcd60e51b815260206004820152602a60248201527f5468652063616c6c6572206d7573742062652061206c656e64696e6720706f6f6044820152691b0818dbdb9d1c9858dd60b21b6064820152608490fd5b676765c793fa10079d601b1b906b033b2e3c9fd0803ce800000019811161332f570190565b600190600119811161332f570190565b6b019d971e4fe8401e740000008119811161332f570190565b8119811161332f570190565b60018110613561575b6000190190565b613569613308565b61355a565b818110613579570390565b613581613308565b0390565b6040519061359282610c95565b6025825264031b2901d160dd1b6040837f2020203d3e204c4243203a207072696e636970616c426f72726f7742616c616e60208201520152565b604051906135d982610c95565b60238252620101d160ed1b6040837f2020203d3e204c4243203a20636f6d706f756e64496e7465726573745261746560208201520152565b6040519061361e82610cb1565b601e82527f2020203d3e204c4243203a2062616c616e6365496e637265617365203a2000006020830152565b633b9aca00908060001904821181151516613663570290565b61366b613308565b0290565b8060001904821181151516613663570290565b3d156136cb573d9067ffffffffffffffff82116136be575b604051916136b2601f8201601f191660200184610d05565b82523d6000602084013e565b6136c6610c5d565b61369a565b606090565b156136d757565b60405162461bcd60e51b8152602060048201526016602482015275151c985b9cd9995c881bd9881155120819985a5b195960521b6044820152606490fd5b60405163a9059cbb60e01b60208201526001600160a01b0390921660248301526044808301939093529181526106a29161374e82610ccd565b6040516137ac916001600160a01b031661376782610cb1565b6000806020958685527f5361666545524332303a206c6f772d6c6576656c2063616c6c206661696c656487860152868151910182855af16137a6613682565b9161383c565b805182811591821561381c575b50509050156137c55750565b6084906040519062461bcd60e51b82526004820152602a60248201527f5361666545524332303a204552433230206f7065726174696f6e20646964206e6044820152691bdd081cdd58d8d9595960b21b6064820152fd5b838092935001031261000e5781015161383481610d48565b8082386137b9565b9192901561389e5750815115613850575090565b3b156138595790565b60405162461bcd60e51b815260206004820152601d60248201527f416464726573733a2063616c6c20746f206e6f6e2d636f6e74726163740000006044820152606490fd5b8251909150156138b15750805190602001fd5b60405162461bcd60e51b81529081906130b9906004830161391e565b91908251928382526000905b8482106139065750928060209394116138f9575b601f01601f1916010190565b60008382840101526138ed565b906020908180828501015190828601015201906138d9565b9060206109a79281815201906138cd565b1561393657565b60405162461bcd60e51b815260206004820152603560248201527f54686520616d6f756e7420616e64207468652076616c75652073656e7420746f604482015274040c8cae0dee6d2e840c8de40dcdee840dac2e8c6d605b1b6064820152608490fd5b6040516323b872dd60e01b60208201526001600160a01b0392831660248201529290911660448301526064808301939093529181526106a29161374e82610ce9565b6001600160a01b038181166000818152603660209081526040808320948716835260378252808320938352929052908120939092613a199190613b08565b91835415613a445750613a2c9083614f7e565b9260ff6005600385015494015460281c169193929190565b9260ff91506005015460281c169092829190565b6001600160a01b03818116600081815260366020908152604080832094871683526037825280832093835292905220600d909101549392919060d885901c60ff1615613ae2576005015460281c60ff1615938415613ad3575b508315613abf575b50505090565b613aca929350613b08565b10388080613ab9565b60d01c60ff1615935038613ab1565b5050505050600090565b9081602091031261000e575190565b506040513d6000823e3d90fd5b6001600160a01b03908116600090815260366020908152604091829020600c015491516370a0823160e01b815293831660048501529183916024918391165afa908115613b83575b600091613b5b575090565b6109a7915060203d8111613b7c575b613b748183610d05565b810190613aec565b503d613b6a565b613b8b613afb565b613b50565b6000906001600160a01b031673eeeeeeeeeeeeeeeeeeeeeeeeeeeeeeeeeeeeeeee8103613bbd5750504790565b6020602491604051928380926370a0823160e01b82523060048301525afa918215613bec575b91613b5b575090565b613bf4613afb565b613be3565b6001600160a01b039081166000908152603660205260409020600481015491908215613c2457505090565b600d01546040516334762ca560e01b8152925060209183916004918391165afa908115613b8357600091613b5b575090565b9081602091031261000e57516109a781610684565b60405190613c7882610c95565b602982526803b902930ba32901d160bd1b6040837f2020203d3e204c4243203a2043757272656e7420537461626c6520426f72726f60208201520152565b60405190613cc382610c95565b602a825269020b8383634b2b2101d160b51b6040837f2020203d3e204c4243203a204f7261636c65204c656e64696e6720526174652060208201520152565b6001600160a01b0381166000908152603660205260409020603554909190613d32906001600160a01b0316610841565b60056040518092631b0c55dd60e11b825281600460209586935afa908115613e78575b600091613e5b575b5060018060a01b031693015491613d7683611165613c6b565b8215613d83575050905090565b60405163bb85c0bb60e01b8082526001600160a01b03831660048301529294613df6945085939091613dd0908581602481875afa908115613e4e575b600091613e31575b50611165613cb6565b6040519081526001600160a01b0390921660048301529092839190829081906024820190565b03915afa918215613e24575b600092613e0e57505090565b6109a79250803d10613b7c57613b748183610d05565b613e2c613afb565b613e02565b613e489150863d8811613b7c57613b748183610d05565b38613dc7565b613e56613afb565b613dbf565b613e729150833d8511610951576109438183610d05565b38613d5d565b613e80613afb565b613d55565b6001600160a01b0381166000908152603660205260409020613ea6906154a6565b8015613ec757613ec181613ebc6109a794613b90565b613545565b906154d7565b5050600090565b6001600160a01b03918216600090815260376020908152604080832093909416825291909152205415613f0057600190565b600090565b90613f108183613ece565b916003831015610a1f578215613f7557600183613f2e600495610a15565b03613f575761200a613f529260018060a01b03166000526037602052604060002090565b015490565b6001600160a01b031660009081526036602052604090209050015490565b505050600090565b6001600160a01b039182166000908152603760209081526040808320858516845290915281209193928254948515613fe057168152603660205260409020613fc491614f7e565b90828210613fd3575b82820390565b613fdb613308565b613fcd565b50509192505080918190565b6001600160a01b039182166000908152603760209081526040808320949093168252929092528120549182156140f657604092936000146140e8578152603860205220915b6140cb61405c600485015494856002670de0b6b3a764000092821984116140db575b0154910161366f565b809460405161406a81610ccd565b604381527f2020203d3e20434c203a2050726f706f7365204d6f646520205f70726f706f7360208201527f616c2e696e7465726573745261746520616e6420436f6d706f756e6442616c616040820152626e636560e81b60608201526155ee565b6140d5828461356e565b91929190565b6140e3613308565b614053565b815260396020522091614031565b5091505080918190565b1561410757565b60405162461bcd60e51b815260206004820152603760248201527f5468652063616c6c6572206d7573742062652061206c656e64696e6720706f6f60448201527f6c20636f6e666967757261746f7220636f6e74726163740000000000000000006064820152608490fd5b1561417957565b60405162461bcd60e51b815260206004820152603d60248201527f52657365727665206265696e672072656d6f766564206973206469666665726560448201527f6e74207468616e207468652072657365727665207265717565737465640000006064820152608490fd5b156141eb57565b60405162461bcd60e51b815260206004820152603060248201527f43616e6e6f742072656d6f7665206120726573657276652077697468206c697160448201526f1d5a591a5d1e4819195c1bdcda5d195960821b6064820152608490fd5b603c5480156142aa577fc6bb06cb7f92603de181bf256cd16846b93b752a170ff24824098b31aa008a7d6000198201918083101561429d575b603c600052016001600160601b0360a01b8154169055603c55565b6142a56114f4565b614282565b634e487b7160e01b600052603160045260246000fd5b92613ebc919594926143519460018060a01b03811660005260366020526142ea6040600020614cba565b6142f48882613ece565b6001600160a01b0382166000908152603660205260409020989061431781610a15565b600181036143d357506001600160a01b03166000908152603760205260409020613ebc91600491614348919061200a565b01548289615147565b9061435b81610a15565b600181036143745750906106a291600582015491615089565b80614380600292610a15565b0361438e576106a2916151ff565b60405162461bcd60e51b815260206004820152601c60248201527f496e76616c6964206e657720626f72726f772072617465206d6f6465000000006044820152606490fd5b9050600291506143e281610a15565b036143f157613ebc818861520e565b613ebc6143fc61486b565b615554565b6040519061440e82610ce9565b6064825263032901d160e51b6080837f202020202020203d3e204c4243203a2072617465206d6f646520535441424c4560208201527f2c207570646174655573657253746174654f6e426f72726f77496e7465726e6160408201527f6c20726573657276652e63757272656e74537461626c65426f72726f7752617460608201520152565b6001600160a01b0381811660009081526036602090815260408083209590931682526037905220939594936144c8919061200a565b936144d281610a15565b60018103614538575093613ebc61450b9260056106a29701546144f781611165614401565b6004870155600060028701555b8554613545565b825561451c60038301918254613545565b9055600501805464ffffffffff19164264ffffffffff16179055565b80614547600292979397610a15565b0361456c57613ebc61450b9260076106a2976000600489015501546002870155614504565b60405162461bcd60e51b815260206004820152601860248201527f496e76616c696420626f72726f772072617465206d6f646500000000000000006044820152606490fd5b6001600160a01b03908116600081815260366020908152604080832094909516825260378152848220928252919091529182206106a2969293600792916145fa90978854613545565b81811061465d575b0386550154906002850191825561464f575b505060038201908154818110614642575b039055600501805464ffffffffff19164264ffffffffff16179055565b61464a613308565b614625565b816004850155553880614614565b614665613308565b614602565b9061468e8261200a6146aa9360018060a01b03166000526037602052604060002090565b6001600160a01b03909216600090815260366020526040902090565b926146b481610a15565b600281036146fb57506146df6109a792600560019501546004840155600060028401555b8254613545565b8155600501805464ffffffffff19164264ffffffffff16179055565b80614707600192610a15565b0361472a576146df6109a7926007600295600060048601550154858401556146d8565b60405162461bcd60e51b815260206004820152602360248201527f496e76616c696420696e7465726573742072617465206d6f64652072656365696044820152621d995960ea1b6064820152608490fd5b6001600160a01b031660009081526036602052604090206106a290614cba565b6148076106a2959260029295949560018060a01b039687831660005260376020526147dc8260406000209060018060a01b0316600052602052604060002090565b97821660005260366020526147f76040600020968954613545565b81811061485e575b038755613ece565b61481081610a15565b1461484f575b5080614838575b50600501805464ffffffffff19164264ffffffffff16179055565b6148476003830191825461356e565b90553861481d565b60070154600283015538614816565b614866613308565b6147ff565b6040519061487882610c95565b603d82527f73206e65697468657220537461626c65206e6f72205661726961626c650000006040837f2020203d3e204c4243203a2070726576696f75732052617465204d6f6465206960208201520152565b9081606091031261000e578051916040602083015192015190565b604051906148f282610ccd565b605282527101f103732bba9ba30b13632a930ba32901d160751b6060837f202020202020203d3e204c4243203a2075706461746552657365727665496e7460208201527f65726573745261746573416e6454696d657374616d70496e7465726e616c203d60408201520152565b6001600160a01b038116600090815260366020526040902091600d83019160606149a2614998610841610841875460018060a01b031690565b93613ebc84613b90565b60028601546003870154600688015460405163057e37af60e41b81526001600160a01b0387166004820152602481019490945260448401929092526064830152608482015292839060a49082905afa938415614aab575b60009384938596614a6c575b5094614a6791614a2b600080516020615658833981519152969761116a876111656148e5565b600781549101549160405195869560018060a01b031698869192608093969594919660a084019784526020840152604083015260608201520152565b0390a2565b614a2b96506000805160206156588339815191529550614a67929450614a9f9060603d811161123a576112268183610d05565b97509095509391614a05565b614ab3613afb565b6149f9565b6001600160a01b0381166000908152603660205260409020600d8101805491929091614aee90610841906001600160a01b031681565b9060606149a282613b90565b6001600160a01b038116600090815260366020526040902091600d83019160606149a2614b33610841610841875460018060a01b031690565b936110d784613b90565b15614b4457565b60405162461bcd60e51b8152602060048201526024808201527f5472616e7366657220746f20746f6b656e206469737472696275746f722066616044820152631a5b195960e21b6064820152608490fd5b603554604051630cc3b2e360e21b81526001600160a01b03916020908290600490829086165afa908115614c01575b600091614be3575b50166001600160601b0360a01b6034541617603455565b614bfb915060203d8111610951576109438183610d05565b38614bcc565b614c09613afb565b614bc4565b603c8054600080805b838110614c7b57505015614c2a57505050565b614c4b9168010000000000000000821015614c6e575b60018201905561150b565b819291549060031b9160018060a01b039283811b93849216901b16911916179055565b614c76610c5d565b614c40565b8482526000805160206156388339815191528101546001600160a01b03878116911614614cb1575b614cac9061331f565b614c17565b60019250614ca3565b614cc3816154a6565b614cca5750565b6129b6614d286129b66007614d1d6001860154614cf664ffffffffff600d89015460a01c1680926152a4565b614d10676765c793fa10079d601b1b9788928a549061366f565b0487556004870154615335565b94019384549061366f565b049055565b916129b6614d5e614d59676765c793fa10079d601b1b94613ec1614d53614d289661364a565b9161364a565b6134f7565b84549061366f565b60405190614d7382610c95565b6024825263032901d160e51b6040837f2020203d3e20434c203a205f73656c662e737461626c65426f72726f7752617460208201520152565b60405190614db982610c95565b603c82527f72726f7752617465203c3d203020426f72726f772052617465203a20000000006040837f2020203d3e20434c203a2063617365206f662073656c662e737461626c65426f60208201520152565b60405190614e1882610c95565b603a82527f72726f7752617465203c3d20302054696d655374616d70203a200000000000006040837f2020203d3e20434c203a2063617365206f662073656c662e737461626c65426f60208201520152565b60405190614e7782610ccd565b604e82526d03630ba34bb32a4b73232bc101d160951b6060837f2020203d3e20434c203a20207573657252657365727665446174612073656c6660208201527f20696e7374616e6365206c6173745661726961626c65426f72726f7743756d7560408201520152565b60405190614eed82610c95565b602f82526e0393937bba930ba32901f1018101d1608d1b6040837f2020203d3e20434c203a2063617365206f662073656c662e737461626c65426f60208201520152565b60405190614f3e82610c95565b602b82526a74657265737420646f6e6560a81b6040837f2020203d3e20434c203a2063616c63756c617465436f6d706f756e646564496e60208201520152565b908154908115613f7557676765c793fa10079d601b1b614ff56129b6614ffb93614fa78661364a565b90600488015490614fba82611165614d66565b8115615029575080614fd1614fe392611165614ee0565b600589015464ffffffffff1690615335565b905b614ff06143fc614f31565b61366f565b0461552f565b9181831461500857505090565b600501544264ffffffffff9091160361501f575090565b6109a7915061351c565b6150839150615054600d60048301549261504584611165614dac565b015460a01c64ffffffffff1690565b9061506e615060614e0b565b64ffffffffff8416906155ab565b61507e60028b0154611165614e6a565b615335565b90614fe5565b9190613ec1614d536150eb93614ff06150e46129b660066150d960028b01986150d26129b68b54986150bb848b613545565b809d55676765c793fa10079d601b1b98899461364a565b049561364a565b99019889549061366f565b0490613545565b9055565b156150f657565b60405162461bcd60e51b815260206004820152602360248201527f54686520616d6f756e747320746f20737562747261637420646f6e2774206d616044820152620e8c6d60eb1b6064820152608490fd5b919060028301918254918083106151ba57615162818461356e565b80945583156151ad576150eb93926151a16006615196615190613ec19661518b614d539761364a565b6154ba565b9361364a565b9701968754906154ba565b6110d7828210156150ef565b5050505060066000910155565b60405162461bcd60e51b815260206004820152601a60248201527f496e76616c696420616d6f756e7420746f2064656372656173650000000000006044820152606490fd5b60036150eb9101918254613545565b60030190815481811061522057039055565b60405162461bcd60e51b815260206004820152605060248201527f54686520616d6f756e742074686174206973206265696e67207375627472616360448201527f7465642066726f6d20746865207661726961626c6520746f74616c20626f727260648201526f1bdddcc81a5cc81a5b98dbdc9c9958dd60821b608482015260a490fd5b6153086129b66152c764ffffffffff6109a79516804210615328575b420361364a565b92667009d32da30000676765c793fa10079d601b1b8581966000190482118115151661531b575b02663804e996d180008119811161530e575b01049061366f565b046134f7565b615316613308565b615300565b615323613308565b6152ee565b615330613308565b6152c0565b906301e133808261539d6154279364ffffffffff6040519161535683610c95565b602b83527f2020203d3e20434c203a205f7261746520616e64205f6c61737455706461746560208401526a02a34b6b2b9ba30b6b81d160ad1b6040840152169283916155ee565b804210615499575b4203926153e7846040516153b881610cb1565b601c81527f2020203d3e20434c203a2074696d65446966666572656e6365203a200000000060208201526155ab565b04614d59816040516153f881610cb1565b601b81527f2020203d3e20434c203a20726174655065725365636f6e64203a20000000000060208201526155ab565b60018281161561548857815b92811c805b6154425750505090565b6129b69261545e676765c793fa10079d601b1b9482869361366f565b0492828216615471575b50811c80615438565b90936129b6846154809261366f565b049238615468565b676765c793fa10079d601b1b615433565b6154a1613308565b6153a5565b6109a7906003600282015491015490613545565b6129b6676765c793fa10079d601b1b926154d39261366f565b0490565b61550290676765c793fa10079d601b1b908060001904821181151516615522575b028260011c613545565b811561550c570490565b634e487b7160e01b600052601260045260246000fd5b61552a613308565b6154f8565b633b9aca0090631dcd65008119811161554757010490565b61554f613308565b010490565b6155826155906106a29260405192839163104c13eb60e21b60208401526020602484015260448301906138cd565b03601f198101835282610d05565b600080916020815191016a636f6e736f6c652e6c6f675afa50565b6155906155da916106a293604051938492632d839cb360e21b60208501526040602485015260648401906138cd565b90604483015203601f198101835282610d05565b6155909061561e926106a29460405194859363ca47c4eb60e01b60208601526060602486015260848501906138cd565b916044840152606483015203601f198101835282610d0556fec6bb06cb7f92603de181bf256cd16846b93b752a170ff24824098b31aa008a7e04e4f521f16fcfd987978b05504262c2a2db223844977aab000e5accedb2d725a264697066735822122035e379ccbacefd77776269cd9a9a45a948455637f55e4eda868a37bd028d5c1064736f6c634300080d0033",
  "linkReferences": {
    "contracts/libraries/CoreLibrary.sol": {
      "CoreLibrary": [
        {
          "length": 20,
          "start": 5015
        },
        {
          "length": 20,
          "start": 7634
        },
        {
          "length": 20,
          "start": 7862
        },
        {
          "length": 20,
          "start": 11639
        },
        {
          "length": 20,
          "start": 11866
        }
      ]
    }
  },
  "deployedLinkReferences": {
    "contracts/libraries/CoreLibrary.sol": {
      "CoreLibrary": [
        {
          "length": 20,
          "start": 4972
        },
        {
          "length": 20,
          "start": 7591
        },
        {
          "length": 20,
          "start": 7819
        },
        {
          "length": 20,
          "start": 11596
        },
        {
          "length": 20,
          "start": 11823
        }
      ]
    }
  }
}