{
  "_format": "hh-sol-artifact-1",
  "contractName": "LendingBoardCore",
  "sourceName": "contracts/lendingboard/LendingBoardCore.sol",
  "abi": [
    {
      "anonymous": false,
      "inputs": [
        {
          "indexed": true,
          "internalType": "address",
          "name": "reserve",
          "type": "address"
        },
        {
          "indexed": false,
          "internalType": "uint256",
          "name": "liquidityRate",
          "type": "uint256"
        },
        {
          "indexed": false,
          "internalType": "uint256",
          "name": "stableBorrowRate",
          "type": "uint256"
        },
        {
          "indexed": false,
          "internalType": "uint256",
          "name": "variableBorrowRate",
          "type": "uint256"
        },
        {
          "indexed": false,
          "internalType": "uint256",
          "name": "liquidityIndex",
          "type": "uint256"
        },
        {
          "indexed": false,
          "internalType": "uint256",
          "name": "variableBorrowIndex",
          "type": "uint256"
        }
      ],
      "name": "ReserveUpdated",
      "type": "event"
    },
    {
      "inputs": [],
      "name": "CORE_REVISION",
      "outputs": [
        {
          "internalType": "uint256",
          "name": "",
          "type": "uint256"
        }
      ],
      "stateMutability": "view",
      "type": "function"
    },
    {
      "inputs": [
        {
          "internalType": "address",
          "name": "_reserve",
          "type": "address"
        }
      ],
      "name": "activateReserve",
      "outputs": [],
      "stateMutability": "nonpayable",
      "type": "function"
    },
    {
      "inputs": [],
      "name": "addressesProvider",
      "outputs": [
        {
          "internalType": "contract LendingBoardAddressesProvider",
          "name": "",
          "type": "address"
        }
      ],
      "stateMutability": "view",
      "type": "function"
    },
    {
      "inputs": [
        {
          "internalType": "address",
          "name": "_reserve",
          "type": "address"
        }
      ],
      "name": "deactivateReserve",
      "outputs": [],
      "stateMutability": "nonpayable",
      "type": "function"
    },
    {
      "inputs": [
        {
          "internalType": "address",
          "name": "_reserve",
          "type": "address"
        }
      ],
      "name": "disableBorrowingOnReserve",
      "outputs": [],
      "stateMutability": "nonpayable",
      "type": "function"
    },
    {
      "inputs": [
        {
          "internalType": "address",
          "name": "_reserve",
          "type": "address"
        }
      ],
      "name": "disableReserveAsCollateral",
      "outputs": [],
      "stateMutability": "nonpayable",
      "type": "function"
    },
    {
      "inputs": [
        {
          "internalType": "address",
          "name": "_reserve",
          "type": "address"
        }
      ],
      "name": "disableReserveStableBorrowRate",
      "outputs": [],
      "stateMutability": "nonpayable",
      "type": "function"
    },
    {
      "inputs": [
        {
          "internalType": "address",
          "name": "_reserve",
          "type": "address"
        },
        {
          "internalType": "bool",
          "name": "_stableBorrowRateEnabled",
          "type": "bool"
        }
      ],
      "name": "enableBorrowingOnReserve",
      "outputs": [],
      "stateMutability": "nonpayable",
      "type": "function"
    },
    {
      "inputs": [
        {
          "internalType": "address",
          "name": "_reserve",
          "type": "address"
        },
        {
          "internalType": "uint256",
          "name": "_baseLTVasCollateral",
          "type": "uint256"
        },
        {
          "internalType": "uint256",
          "name": "_liquidationThreshold",
          "type": "uint256"
        },
        {
          "internalType": "uint256",
          "name": "_liquidationBonus",
          "type": "uint256"
        }
      ],
      "name": "enableReserveAsCollateral",
      "outputs": [],
      "stateMutability": "nonpayable",
      "type": "function"
    },
    {
      "inputs": [
        {
          "internalType": "address",
          "name": "_reserve",
          "type": "address"
        }
      ],
      "name": "enableReserveStableBorrowRate",
      "outputs": [],
      "stateMutability": "nonpayable",
      "type": "function"
    },
    {
      "inputs": [
        {
          "internalType": "address",
          "name": "_reserve",
          "type": "address"
        }
      ],
      "name": "freezeReserve",
      "outputs": [],
      "stateMutability": "nonpayable",
      "type": "function"
    },
    {
      "inputs": [
        {
          "internalType": "address",
          "name": "_reserve",
          "type": "address"
        }
      ],
      "name": "getReserveATokenAddress",
      "outputs": [
        {
          "internalType": "address",
          "name": "",
          "type": "address"
        }
      ],
      "stateMutability": "view",
      "type": "function"
    },
    {
      "inputs": [
        {
          "internalType": "address",
          "name": "_reserve",
          "type": "address"
        }
      ],
      "name": "getReserveAvailableLiquidity",
      "outputs": [
        {
          "internalType": "uint256",
          "name": "",
          "type": "uint256"
        }
      ],
      "stateMutability": "view",
      "type": "function"
    },
    {
      "inputs": [
        {
          "internalType": "address",
          "name": "_reserve",
          "type": "address"
        }
      ],
      "name": "getReserveConfiguration",
      "outputs": [
        {
          "internalType": "uint256",
          "name": "",
          "type": "uint256"
        },
        {
          "internalType": "uint256",
          "name": "",
          "type": "uint256"
        },
        {
          "internalType": "uint256",
          "name": "",
          "type": "uint256"
        },
        {
          "internalType": "bool",
          "name": "",
          "type": "bool"
        }
      ],
      "stateMutability": "view",
      "type": "function"
    },
    {
      "inputs": [
        {
          "internalType": "address",
          "name": "_reserve",
          "type": "address"
        }
      ],
      "name": "getReserveCurrentAverageStableBorrowRate",
      "outputs": [
        {
          "internalType": "uint256",
          "name": "",
          "type": "uint256"
        }
      ],
      "stateMutability": "view",
      "type": "function"
    },
    {
      "inputs": [
        {
          "internalType": "address",
          "name": "_reserve",
          "type": "address"
        }
      ],
      "name": "getReserveCurrentLiquidityRate",
      "outputs": [
        {
          "internalType": "uint256",
          "name": "",
          "type": "uint256"
        }
      ],
      "stateMutability": "view",
      "type": "function"
    },
    {
      "inputs": [
        {
          "internalType": "address",
          "name": "_reserve",
          "type": "address"
        }
      ],
      "name": "getReserveCurrentStableBorrowRate",
      "outputs": [
        {
          "internalType": "uint256",
          "name": "",
          "type": "uint256"
        }
      ],
      "stateMutability": "view",
      "type": "function"
    },
    {
      "inputs": [
        {
          "internalType": "address",
          "name": "_reserve",
          "type": "address"
        }
      ],
      "name": "getReserveCurrentVariableBorrowRate",
      "outputs": [
        {
          "internalType": "uint256",
          "name": "",
          "type": "uint256"
        }
      ],
      "stateMutability": "view",
      "type": "function"
    },
    {
      "inputs": [
        {
          "internalType": "address",
          "name": "_reserve",
          "type": "address"
        }
      ],
      "name": "getReserveDecimals",
      "outputs": [
        {
          "internalType": "uint256",
          "name": "",
          "type": "uint256"
        }
      ],
      "stateMutability": "view",
      "type": "function"
    },
    {
      "inputs": [
        {
          "internalType": "address",
          "name": "_reserve",
          "type": "address"
        }
      ],
      "name": "getReserveInterestRateStrategyAddress",
      "outputs": [
        {
          "internalType": "address",
          "name": "",
          "type": "address"
        }
      ],
      "stateMutability": "view",
      "type": "function"
    },
    {
      "inputs": [
        {
          "internalType": "address",
          "name": "_reserve",
          "type": "address"
        }
      ],
      "name": "getReserveIsActive",
      "outputs": [
        {
          "internalType": "bool",
          "name": "",
          "type": "bool"
        }
      ],
      "stateMutability": "view",
      "type": "function"
    },
    {
      "inputs": [
        {
          "internalType": "address",
          "name": "_reserve",
          "type": "address"
        }
      ],
      "name": "getReserveIsFreezed",
      "outputs": [
        {
          "internalType": "bool",
          "name": "",
          "type": "bool"
        }
      ],
      "stateMutability": "view",
      "type": "function"
    },
    {
      "inputs": [
        {
          "internalType": "address",
          "name": "_reserve",
          "type": "address"
        }
      ],
      "name": "getReserveIsStableBorrowRateEnabled",
      "outputs": [
        {
          "internalType": "bool",
          "name": "",
          "type": "bool"
        }
      ],
      "stateMutability": "view",
      "type": "function"
    },
    {
      "inputs": [
        {
          "internalType": "address",
          "name": "_reserve",
          "type": "address"
        }
      ],
      "name": "getReserveLastUpdate",
      "outputs": [
        {
          "internalType": "uint40",
          "name": "timestamp",
          "type": "uint40"
        }
      ],
      "stateMutability": "view",
      "type": "function"
    },
    {
      "inputs": [
        {
          "internalType": "address",
          "name": "_reserve",
          "type": "address"
        }
      ],
      "name": "getReserveLiquidationBonus",
      "outputs": [
        {
          "internalType": "uint256",
          "name": "",
          "type": "uint256"
        }
      ],
      "stateMutability": "view",
      "type": "function"
    },
    {
      "inputs": [
        {
          "internalType": "address",
          "name": "_reserve",
          "type": "address"
        }
      ],
      "name": "getReserveLiquidationThreshold",
      "outputs": [
        {
          "internalType": "uint256",
          "name": "",
          "type": "uint256"
        }
      ],
      "stateMutability": "view",
      "type": "function"
    },
    {
      "inputs": [
        {
          "internalType": "address",
          "name": "_reserve",
          "type": "address"
        }
      ],
      "name": "getReserveLiquidityCumulativeIndex",
      "outputs": [
        {
          "internalType": "uint256",
          "name": "",
          "type": "uint256"
        }
      ],
      "stateMutability": "view",
      "type": "function"
    },
    {
      "inputs": [
        {
          "internalType": "address",
          "name": "_reserve",
          "type": "address"
        }
      ],
      "name": "getReserveNormalizedIncome",
      "outputs": [
        {
          "internalType": "uint256",
          "name": "",
          "type": "uint256"
        }
      ],
      "stateMutability": "view",
      "type": "function"
    },
    {
      "inputs": [
        {
          "internalType": "address",
          "name": "_reserve",
          "type": "address"
        }
      ],
      "name": "getReserveTotalBorrows",
      "outputs": [
        {
          "internalType": "uint256",
          "name": "",
          "type": "uint256"
        }
      ],
      "stateMutability": "view",
      "type": "function"
    },
    {
      "inputs": [
        {
          "internalType": "address",
          "name": "_reserve",
          "type": "address"
        }
      ],
      "name": "getReserveTotalBorrowsStable",
      "outputs": [
        {
          "internalType": "uint256",
          "name": "",
          "type": "uint256"
        }
      ],
      "stateMutability": "view",
      "type": "function"
    },
    {
      "inputs": [
        {
          "internalType": "address",
          "name": "_reserve",
          "type": "address"
        }
      ],
      "name": "getReserveTotalBorrowsVariable",
      "outputs": [
        {
          "internalType": "uint256",
          "name": "",
          "type": "uint256"
        }
      ],
      "stateMutability": "view",
      "type": "function"
    },
    {
      "inputs": [
        {
          "internalType": "address",
          "name": "_reserve",
          "type": "address"
        }
      ],
      "name": "getReserveTotalLiquidity",
      "outputs": [
        {
          "internalType": "uint256",
          "name": "",
          "type": "uint256"
        }
      ],
      "stateMutability": "view",
      "type": "function"
    },
    {
      "inputs": [
        {
          "internalType": "address",
          "name": "_reserve",
          "type": "address"
        }
      ],
      "name": "getReserveUtilizationRate",
      "outputs": [
        {
          "internalType": "uint256",
          "name": "",
          "type": "uint256"
        }
      ],
      "stateMutability": "view",
      "type": "function"
    },
    {
      "inputs": [
        {
          "internalType": "address",
          "name": "_reserve",
          "type": "address"
        }
      ],
      "name": "getReserveVariableBorrowsCumulativeIndex",
      "outputs": [
        {
          "internalType": "uint256",
          "name": "",
          "type": "uint256"
        }
      ],
      "stateMutability": "view",
      "type": "function"
    },
    {
      "inputs": [],
      "name": "getReserves",
      "outputs": [
        {
          "internalType": "address[]",
          "name": "",
          "type": "address[]"
        }
      ],
      "stateMutability": "view",
      "type": "function"
    },
    {
      "inputs": [
        {
          "internalType": "address",
          "name": "_reserve",
          "type": "address"
        },
        {
          "internalType": "address",
          "name": "_user",
          "type": "address"
        }
      ],
      "name": "getUserBasicReserveData",
      "outputs": [
        {
          "internalType": "uint256",
          "name": "",
          "type": "uint256"
        },
        {
          "internalType": "uint256",
          "name": "",
          "type": "uint256"
        },
        {
          "internalType": "uint256",
          "name": "",
          "type": "uint256"
        },
        {
          "internalType": "bool",
          "name": "",
          "type": "bool"
        }
      ],
      "stateMutability": "view",
      "type": "function"
    },
    {
      "inputs": [
        {
          "internalType": "address",
          "name": "_reserve",
          "type": "address"
        },
        {
          "internalType": "address",
          "name": "_user",
          "type": "address"
        }
      ],
      "name": "getUserBorrowBalances",
      "outputs": [
        {
          "internalType": "uint256",
          "name": "",
          "type": "uint256"
        },
        {
          "internalType": "uint256",
          "name": "",
          "type": "uint256"
        },
        {
          "internalType": "uint256",
          "name": "",
          "type": "uint256"
        }
      ],
      "stateMutability": "view",
      "type": "function"
    },
    {
      "inputs": [
        {
          "internalType": "address",
          "name": "_reserve",
          "type": "address"
        },
        {
          "internalType": "address",
          "name": "_user",
          "type": "address"
        }
      ],
      "name": "getUserCurrentBorrowRateMode",
      "outputs": [
        {
          "internalType": "enum CoreLibrary.InterestRateMode",
          "name": "",
          "type": "uint8"
        }
      ],
      "stateMutability": "view",
      "type": "function"
    },
    {
      "inputs": [
        {
          "internalType": "address",
          "name": "_reserve",
          "type": "address"
        },
        {
          "internalType": "address",
          "name": "_user",
          "type": "address"
        }
      ],
      "name": "getUserCurrentStableBorrowRate",
      "outputs": [
        {
          "internalType": "uint256",
          "name": "",
          "type": "uint256"
        }
      ],
      "stateMutability": "view",
      "type": "function"
    },
    {
      "inputs": [
        {
          "internalType": "address",
          "name": "_reserve",
          "type": "address"
        },
        {
          "internalType": "address",
          "name": "_user",
          "type": "address"
        }
      ],
      "name": "getUserLastUpdate",
      "outputs": [
        {
          "internalType": "uint256",
          "name": "timestamp",
          "type": "uint256"
        }
      ],
      "stateMutability": "view",
      "type": "function"
    },
    {
      "inputs": [
        {
          "internalType": "address",
          "name": "_reserve",
          "type": "address"
        },
        {
          "internalType": "address",
          "name": "_user",
          "type": "address"
        }
      ],
      "name": "getUserOriginationFee",
      "outputs": [
        {
          "internalType": "uint256",
          "name": "",
          "type": "uint256"
        }
      ],
      "stateMutability": "view",
      "type": "function"
    },
    {
      "inputs": [
        {
          "internalType": "address",
          "name": "_reserve",
          "type": "address"
        },
        {
          "internalType": "address",
          "name": "_user",
          "type": "address"
        }
      ],
      "name": "getUserUnderlyingAssetBalance",
      "outputs": [
        {
          "internalType": "uint256",
          "name": "",
          "type": "uint256"
        }
      ],
      "stateMutability": "view",
      "type": "function"
    },
    {
      "inputs": [
        {
          "internalType": "address",
          "name": "_reserve",
          "type": "address"
        },
        {
          "internalType": "address",
          "name": "_user",
          "type": "address"
        }
      ],
      "name": "getUserVariableBorrowCumulativeIndex",
      "outputs": [
        {
          "internalType": "uint256",
          "name": "",
          "type": "uint256"
        }
      ],
      "stateMutability": "view",
      "type": "function"
    },
    {
      "inputs": [
        {
          "internalType": "address",
          "name": "_reserve",
          "type": "address"
        },
        {
          "internalType": "address",
          "name": "_aTokenAddress",
          "type": "address"
        },
        {
          "internalType": "uint256",
          "name": "_decimals",
          "type": "uint256"
        },
        {
          "internalType": "address",
          "name": "_interestRateStrategyAddress",
          "type": "address"
        }
      ],
      "name": "initReserve",
      "outputs": [],
      "stateMutability": "nonpayable",
      "type": "function"
    },
    {
      "inputs": [
        {
          "internalType": "contract LendingBoardAddressesProvider",
          "name": "_addressesProvider",
          "type": "address"
        }
      ],
      "name": "initialize",
      "outputs": [],
      "stateMutability": "nonpayable",
      "type": "function"
    },
    {
      "inputs": [
        {
          "internalType": "address",
          "name": "_reserve",
          "type": "address"
        }
      ],
      "name": "isReserveBorrowingEnabled",
      "outputs": [
        {
          "internalType": "bool",
          "name": "",
          "type": "bool"
        }
      ],
      "stateMutability": "view",
      "type": "function"
    },
    {
      "inputs": [
        {
          "internalType": "address",
          "name": "_reserve",
          "type": "address"
        }
      ],
      "name": "isReserveUsageAsCollateralEnabled",
      "outputs": [
        {
          "internalType": "bool",
          "name": "",
          "type": "bool"
        }
      ],
      "stateMutability": "view",
      "type": "function"
    },
    {
      "inputs": [
        {
          "internalType": "address",
          "name": "_reserve",
          "type": "address"
        },
        {
          "internalType": "address",
          "name": "_user",
          "type": "address"
        },
        {
          "internalType": "uint256",
          "name": "_amount",
          "type": "uint256"
        }
      ],
      "name": "isUserAllowedToBorrowAtStable",
      "outputs": [
        {
          "internalType": "bool",
          "name": "",
          "type": "bool"
        }
      ],
      "stateMutability": "view",
      "type": "function"
    },
    {
      "inputs": [
        {
          "internalType": "address",
          "name": "_reserve",
          "type": "address"
        },
        {
          "internalType": "address",
          "name": "_user",
          "type": "address"
        }
      ],
      "name": "isUserUseReserveAsCollateralEnabled",
      "outputs": [
        {
          "internalType": "bool",
          "name": "",
          "type": "bool"
        }
      ],
      "stateMutability": "view",
      "type": "function"
    },
    {
      "inputs": [],
      "name": "lendingPoolAddress",
      "outputs": [
        {
          "internalType": "address",
          "name": "",
          "type": "address"
        }
      ],
      "stateMutability": "view",
      "type": "function"
    },
    {
      "inputs": [
        {
          "internalType": "address",
          "name": "_token",
          "type": "address"
        },
        {
          "internalType": "uint256",
          "name": "_amount",
          "type": "uint256"
        },
        {
          "internalType": "address",
          "name": "_destination",
          "type": "address"
        }
      ],
      "name": "liquidateFee",
      "outputs": [],
      "stateMutability": "payable",
      "type": "function"
    },
    {
      "inputs": [],
      "name": "refreshConfiguration",
      "outputs": [],
      "stateMutability": "nonpayable",
      "type": "function"
    },
    {
      "inputs": [
        {
          "internalType": "address",
          "name": "_reserveToRemove",
          "type": "address"
        }
      ],
      "name": "removeLastAddedReserve",
      "outputs": [],
      "stateMutability": "nonpayable",
      "type": "function"
    },
    {
      "inputs": [
        {
          "internalType": "uint256",
          "name": "",
          "type": "uint256"
        }
      ],
      "name": "reservesList",
      "outputs": [
        {
          "internalType": "address",
          "name": "",
          "type": "address"
        }
      ],
      "stateMutability": "view",
      "type": "function"
    },
    {
      "inputs": [
        {
          "internalType": "address",
          "name": "_reserve",
          "type": "address"
        },
        {
          "internalType": "uint256",
          "name": "_ltv",
          "type": "uint256"
        }
      ],
      "name": "setReserveBaseLTVasCollateral",
      "outputs": [],
      "stateMutability": "nonpayable",
      "type": "function"
    },
    {
      "inputs": [
        {
          "internalType": "address",
          "name": "_reserve",
          "type": "address"
        },
        {
          "internalType": "uint256",
          "name": "_decimals",
          "type": "uint256"
        }
      ],
      "name": "setReserveDecimals",
      "outputs": [],
      "stateMutability": "nonpayable",
      "type": "function"
    },
    {
      "inputs": [
        {
          "internalType": "address",
          "name": "_reserve",
          "type": "address"
        },
        {
          "internalType": "address",
          "name": "_rateStrategyAddress",
          "type": "address"
        }
      ],
      "name": "setReserveInterestRateStrategyAddress",
      "outputs": [],
      "stateMutability": "nonpayable",
      "type": "function"
    },
    {
      "inputs": [
        {
          "internalType": "address",
          "name": "_reserve",
          "type": "address"
        },
        {
          "internalType": "uint256",
          "name": "_bonus",
          "type": "uint256"
        }
      ],
      "name": "setReserveLiquidationBonus",
      "outputs": [],
      "stateMutability": "nonpayable",
      "type": "function"
    },
    {
      "inputs": [
        {
          "internalType": "address",
          "name": "_reserve",
          "type": "address"
        },
        {
          "internalType": "uint256",
          "name": "_threshold",
          "type": "uint256"
        }
      ],
      "name": "setReserveLiquidationThreshold",
      "outputs": [],
      "stateMutability": "nonpayable",
      "type": "function"
    },
    {
      "inputs": [
        {
          "internalType": "address",
          "name": "_reserve",
          "type": "address"
        },
        {
          "internalType": "address",
          "name": "_user",
          "type": "address"
        },
        {
          "internalType": "bool",
          "name": "_useAsCollateral",
          "type": "bool"
        }
      ],
      "name": "setUserUseReserveAsCollateral",
      "outputs": [],
      "stateMutability": "nonpayable",
      "type": "function"
    },
    {
      "inputs": [
        {
          "internalType": "address",
          "name": "_token",
          "type": "address"
        },
        {
          "internalType": "address",
          "name": "_user",
          "type": "address"
        },
        {
          "internalType": "uint256",
          "name": "_amount",
          "type": "uint256"
        },
        {
          "internalType": "address",
          "name": "_destination",
          "type": "address"
        }
      ],
      "name": "transferToFeeCollectionAddress",
      "outputs": [],
      "stateMutability": "payable",
      "type": "function"
    },
    {
      "inputs": [
        {
          "internalType": "address",
          "name": "_reserve",
          "type": "address"
        },
        {
          "internalType": "address payable",
          "name": "_user",
          "type": "address"
        },
        {
          "internalType": "uint256",
          "name": "_amount",
          "type": "uint256"
        }
      ],
      "name": "transferToReserve",
      "outputs": [],
      "stateMutability": "payable",
      "type": "function"
    },
    {
      "inputs": [
        {
          "internalType": "address",
          "name": "_reserve",
          "type": "address"
        },
        {
          "internalType": "address payable",
          "name": "_user",
          "type": "address"
        },
        {
          "internalType": "uint256",
          "name": "_amount",
          "type": "uint256"
        }
      ],
      "name": "transferToUser",
      "outputs": [],
      "stateMutability": "nonpayable",
      "type": "function"
    },
    {
      "inputs": [
        {
          "internalType": "address",
          "name": "_reserve",
          "type": "address"
        }
      ],
      "name": "unfreezeReserve",
      "outputs": [],
      "stateMutability": "nonpayable",
      "type": "function"
    },
    {
      "inputs": [
        {
          "internalType": "address",
          "name": "_reserve",
          "type": "address"
        },
        {
          "internalType": "address",
          "name": "_user",
          "type": "address"
        },
        {
          "internalType": "uint256",
          "name": "_amountBorrowed",
          "type": "uint256"
        },
        {
          "internalType": "uint256",
          "name": "_borrowFee",
          "type": "uint256"
        },
        {
          "internalType": "enum CoreLibrary.InterestRateMode",
          "name": "_rateMode",
          "type": "uint8"
        }
      ],
      "name": "updateStateOnBorrow",
      "outputs": [
        {
          "internalType": "uint256",
          "name": "",
          "type": "uint256"
        },
        {
          "internalType": "uint256",
          "name": "",
          "type": "uint256"
        }
      ],
      "stateMutability": "nonpayable",
      "type": "function"
    },
    {
      "inputs": [
        {
          "internalType": "address",
          "name": "_reserve",
          "type": "address"
        },
        {
          "internalType": "address",
          "name": "_user",
          "type": "address"
        },
        {
          "internalType": "uint256",
          "name": "_amount",
          "type": "uint256"
        },
        {
          "internalType": "bool",
          "name": "_isFirstDeposit",
          "type": "bool"
        }
      ],
      "name": "updateStateOnDeposit",
      "outputs": [],
      "stateMutability": "nonpayable",
      "type": "function"
    },
    {
      "inputs": [
        {
          "internalType": "address",
          "name": "_reserve",
          "type": "address"
        },
        {
          "internalType": "uint256",
          "name": "_availableLiquidityBefore",
          "type": "uint256"
        },
        {
          "internalType": "uint256",
          "name": "_income",
          "type": "uint256"
        },
        {
          "internalType": "uint256",
          "name": "_protocolFee",
          "type": "uint256"
        }
      ],
      "name": "updateStateOnFlashLoan",
      "outputs": [],
      "stateMutability": "nonpayable",
      "type": "function"
    },
    {
      "inputs": [
        {
          "internalType": "address",
          "name": "_principalReserve",
          "type": "address"
        },
        {
          "internalType": "address",
          "name": "_collateralReserve",
          "type": "address"
        },
        {
          "internalType": "address",
          "name": "_user",
          "type": "address"
        },
        {
          "internalType": "uint256",
          "name": "_amountToLiquidate",
          "type": "uint256"
        },
        {
          "internalType": "uint256",
          "name": "_collateralToLiquidate",
          "type": "uint256"
        },
        {
          "internalType": "uint256",
          "name": "_feeLiquidated",
          "type": "uint256"
        },
        {
          "internalType": "uint256",
          "name": "_liquidatedCollateralForFee",
          "type": "uint256"
        },
        {
          "internalType": "uint256",
          "name": "_balanceIncrease",
          "type": "uint256"
        },
        {
          "internalType": "bool",
          "name": "_liquidatorReceivesAToken",
          "type": "bool"
        }
      ],
      "name": "updateStateOnLiquidation",
      "outputs": [],
      "stateMutability": "nonpayable",
      "type": "function"
    },
    {
      "inputs": [
        {
          "internalType": "address",
          "name": "_reserve",
          "type": "address"
        },
        {
          "internalType": "address",
          "name": "_user",
          "type": "address"
        },
        {
          "internalType": "uint256",
          "name": "_balanceIncrease",
          "type": "uint256"
        }
      ],
      "name": "updateStateOnRebalance",
      "outputs": [
        {
          "internalType": "uint256",
          "name": "",
          "type": "uint256"
        }
      ],
      "stateMutability": "nonpayable",
      "type": "function"
    },
    {
      "inputs": [
        {
          "internalType": "address",
          "name": "_reserve",
          "type": "address"
        },
        {
          "internalType": "address",
          "name": "_user",
          "type": "address"
        },
        {
          "internalType": "uint256",
          "name": "_amountRedeemed",
          "type": "uint256"
        },
        {
          "internalType": "bool",
          "name": "_userRedeemedEverything",
          "type": "bool"
        }
      ],
      "name": "updateStateOnRedeem",
      "outputs": [],
      "stateMutability": "nonpayable",
      "type": "function"
    },
    {
      "inputs": [
        {
          "internalType": "address",
          "name": "_reserve",
          "type": "address"
        },
        {
          "internalType": "address",
          "name": "_user",
          "type": "address"
        },
        {
          "internalType": "uint256",
          "name": "_paybackAmountMinusFees",
          "type": "uint256"
        },
        {
          "internalType": "uint256",
          "name": "_originationFeeRepaid",
          "type": "uint256"
        },
        {
          "internalType": "uint256",
          "name": "_balanceIncrease",
          "type": "uint256"
        },
        {
          "internalType": "bool",
          "name": "_repaidWholeLoan",
          "type": "bool"
        }
      ],
      "name": "updateStateOnRepay",
      "outputs": [],
      "stateMutability": "nonpayable",
      "type": "function"
    },
    {
      "inputs": [
        {
          "internalType": "address",
          "name": "_reserve",
          "type": "address"
        },
        {
          "internalType": "address",
          "name": "_user",
          "type": "address"
        },
        {
          "internalType": "uint256",
          "name": "_principalBorrowBalance",
          "type": "uint256"
        },
        {
          "internalType": "uint256",
          "name": "_compoundedBorrowBalance",
          "type": "uint256"
        },
        {
          "internalType": "uint256",
          "name": "_balanceIncrease",
          "type": "uint256"
        },
        {
          "internalType": "enum CoreLibrary.InterestRateMode",
          "name": "_currentRateMode",
          "type": "uint8"
        }
      ],
      "name": "updateStateOnSwapRate",
      "outputs": [
        {
          "internalType": "enum CoreLibrary.InterestRateMode",
          "name": "",
          "type": "uint8"
        },
        {
          "internalType": "uint256",
          "name": "",
          "type": "uint256"
        }
      ],
      "stateMutability": "nonpayable",
      "type": "function"
    }
  ],
  "bytecode": "0x6080806040523461001a5760008055614f6690816100208239f35b600080fdfe60806040526004361015610013575b600080fd5b60003560e01c806305075d6e146105b35780630902f1ac146105aa57806309ac2953146105a15780630c7de4e91461059857806318a4dbca1461058f57806318f9bbae146105865780631ca19f191461057d5780631d2118f91461057457806328fcf4d31461056b5780633443a14b1461056257806334b3beee1461055957806337ac6fe4146105505780633e72a4541461054757806345330a401461053e57806346bc0f28146105355780634a08accb1461052c5780634f144609146105235780634fe7a6e51461051a5780635cf2e656146105115780635fc526ff1461050857806364681083146104ff57806366bbd928146104f657806366d103f3146104ed57806368beb4d6146104e45780636ae14416146104db5780636fffab0c146104d257806370fb84f4146104c95780637aca76eb146104c05780637f90fec5146104b757806388079d88146104ae5780638f385c22146104a5578063906c0a411461049c57806398bd4737146104935780639e3c4f3b1461048a5780639e674848146104815780639fb8afcd14610478578063a2353fdc1461046f578063a5bc826c14610466578063a8dc0f451461045d578063af825b0714610454578063afcdbea31461044b578063b701d09314610442578063b75d6f3414610439578063b8c0f74514610430578063bcd6ffa414610427578063bd7fd79a1461041e578063bfacad8414610415578063c33cfd901461040c578063c4d66de814610403578063c540148e146103fa578063c72c4d10146103f1578063c76a6c9c146103e8578063c7d14237146103df578063d06e2ec1146103d6578063d15e0053146103cd578063d3ae26b3146103c4578063d466016f146103bb578063da12d96f146103b2578063dae4c4e7146103a9578063e10076ad146103a0578063e2174d8614610397578063e24030191461038e578063e6d1819014610385578063e8ae2f5b1461037c578063eede87c114610373578063ef1f93731461036a578063f054ab4614610361578063f614831114610358578063f6ea8d761461034f578063fa51854c14610346578063fa93b2a51461033d5763feab31ac1461033557600080fd5b61000e612d3e565b5061000e612cd1565b5061000e612c58565b5061000e612c18565b5061000e612ab7565b5061000e612a5d565b5061000e6129db565b5061000e61290f565b5061000e612857565b5061000e61281a565b5061000e6127f2565b5061000e6127ce565b5061000e61278f565b5061000e612707565b5061000e61260b565b5061000e61258c565b5061000e612562565b5061000e6124e8565b5061000e612355565b5061000e612243565b5061000e612202565b5061000e6121d8565b5061000e612197565b5061000e6120a9565b5061000e61205f565b5061000e612037565b5061000e611ff9565b5061000e611f55565b5061000e611ed3565b5061000e611dba565b5061000e611d79565b5061000e611b3c565b5061000e6119d2565b5061000e6118ea565b5061000e611818565b5061000e6117d7565b5061000e6117aa565b5061000e611761565b5061000e611739565b5061000e6116f8565b5061000e6116d0565b5061000e6115e4565b5061000e6115bc565b5061000e61157b565b5061000e6114f3565b5061000e611474565b5061000e611429565b5061000e6113e6565b5061000e6112bc565b5061000e611260565b5061000e6111e1565b5061000e611156565b5061000e6110e9565b5061000e6110a0565b5061000e611056565b5061000e610fc1565b5061000e610f78565b5061000e610f37565b5061000e610e24565b5061000e610d6c565b5061000e610c2d565b5061000e610bcc565b5061000e610b4d565b5061000e610a52565b5061000e61097a565b5061000e610951565b5061000e6108db565b5061000e6108b9565b5061000e610874565b5061000e610701565b5061000e610621565b5061000e6105cd565b6001600160a01b0381160361000e57565b503461000e57602036600319011261000e576004356105eb816105bc565b60018060a01b03166000526036602052602060ff600d6040600020015460e01c166040519015158152f35b600091031261000e57565b503461000e576000806003193601126106d7576040518091603854908183526020809301809260388352600080516020614f1183398151915290835b8181106106ba5750505084610673910385612efd565b60405193838594850191818652518092526040850193925b82811061069a57505050500390f35b83516001600160a01b03168552869550938101939281019260010161068b565b82546001600160a01b03168452928601926001928301920161065d565b80fd5b608090600319011261000e576004356106f2816105bc565b90602435906044359060643590565b503461000e5761081461080f6107f2610719366106da565b9181959394919260018060a01b039061073782603454163314612d79565b603554829060049060209061075c906001600160a01b03165b6001600160a01b031690565b604051637744894b60e11b815292839182905afa908115610867575b600091610839575b501691871673eeeeeeeeeeeeeeeeeeeeeeeeeeeeeeeeeeeeeeee811461081657916107aa92612fbf565b6001600160a01b03851660009081526036602052604090206107cb90614557565b6001600160a01b03851660009081526036602052604090206107ec90614d1c565b90612e49565b6001600160a01b03841660009081526036602052604090206145ca565b614174565b005b50600080610834938193604051915af161082e612f2c565b506143ab565b6107aa565b61085a915060203d8111610860575b6108528183612efd565b810190613527565b38610780565b503d610848565b61086f612f1f565b610778565b503461000e57600036600319011261000e57602060405160068152f35b604090600319011261000e576004356108a9816105bc565b906024356108b6816105bc565b90565b503461000e5760206108d36108cd36610891565b906133d9565b604051908152f35b503461000e57602036600319011261000e576004356108f9816105bc565b60018060a01b03166000526036602052602060ff600d6040600020015460d01c166040519015158152f35b6003111561092e57565b634e487b7160e01b600052602160045260246000fd5b90600382101561092e5752565b503461000e57602061096b61096536610891565b9061379f565b6109786040518092610944565bf35b503461000e5761081461098c36610891565b9060018060a01b03906109ce600460208460355416604051928380926329f2549760e21b82525afa908115610a19575b6000916109fb575b5083163314613984565b166000526036602052600d6040600020019060018060a01b03166001600160601b0360a01b825416179055565b610a13915060203d8111610860576108528183612efd565b386109c4565b610a21612f1f565b6109bc565b606090600319011261000e57600435610a3e816105bc565b90602435610a4b816105bc565b9060443590565b50610a5c36610a26565b9060018060a01b038093610a7582603454163314612d79565b1673eeeeeeeeeeeeeeeeeeeeeeeeeeeeeeeeeeeeeeee8114610b035734610aa3576108149330921690613243565b60405162461bcd60e51b815260206004820152603260248201527f557365722069732073656e64696e672045544820616c6f6e672077697468207460448201527134329022a9219918103a3930b739b332b91760711b6064820152608490fd5b5091813410610b1281156131d9565b823411610b1b57005b6108149360009384938493610b40575b60405192165af1610b3a612f2c565b50612f7a565b610b48612dd8565b610b2b565b503461000e57604036600319011261000e57600435610b6b816105bc565b6035546040516329f2549760e21b81526001600160a01b039291610bb091906020908290600490829088165afa908115610a19576000916109fb575083163314613984565b1660005260366020526024356009604060002001556000604051f35b503461000e57602036600319011261000e576020600435610bec816105bc565b60018060a01b0380911660005260368252600c6040600020015416604051908152f35b60843590600382101561000e57565b60a43590600382101561000e57565b503461000e5760a036600319011261000e57600435610c4b816105bc565b60243590610c58826105bc565b60443591610c64610c0f565b9160018060a01b03610c7b81603454163314612d79565b821660009081526037602090815260408083206001600160a01b038516845290915290209273__$2ec35834968386f54fa313129cf94664e4$__803b1561000e57610d26610d2c9287926000610d319860446040518094819363342b41a360e01b83526004830152670de0b6b3a764000060248301525af48015610d5f575b610d46575b50610d1a81610d0e8888613860565b9b918c91508a8a613b44565b60643588848888613d07565b82614326565b6137e6565b604080519182526020820192909252f35b0390f35b80610d53610d5992612e6c565b80610616565b38610cff565b610d67612f1f565b610cfa565b503461000e57602036600319011261000e57600435610d8a816105bc565b6035546040516329f2549760e21b81526001600160a01b039291610dcf91906020908290600490829088165afa908115610a19576000916109fb575083163314613984565b166000908152603660205260409020600d01805460ff60e01b19169055005b608090600319011261000e57600435610e06816105bc565b90602435610e13816105bc565b90604435906064356108b6816105bc565b503461000e57610e3336610dee565b92919060018060a01b0391610e77600460208560355416604051928380926329f2549760e21b82525afa908115610f2a575b600091610f0c575b5084163314613984565b828416600052603660205260406000209473__$2ec35834968386f54fa313129cf94664e4$__95863b1561000e57610814968560849360009660405198899788966304dda73560e21b8852600488015216602486015260448501521660648301525af48015610eff575b610eec575b5061447c565b80610d53610ef992612e6c565b38610ee6565b610f07612f1f565b610ee1565b610f24915060203d8111610860576108528183612efd565b38610e6d565b610f32612f1f565b610e65565b503461000e57602036600319011261000e57600435610f55816105bc565b60018060a01b031660005260366020526020600660406000200154604051908152f35b503461000e57602036600319011261000e57600435610f96816105bc565b60018060a01b03166000526036602052602060ff600d6040600020015460e81c166040519015158152f35b503461000e57602036600319011261000e57600435610fdf816105bc565b60018060a01b03166000526036602052602064ffffffffff600d6040600020015460a01c16604051908152f35b50634e487b7160e01b600052603260045260246000fd5b603854811015611049575b6038600052600080516020614f118339815191520190600090565b61105161100c565b61102e565b503461000e57602036600319011261000e5760043560385481101561000e576038600052600080516020614f1183398151915201546040516001600160a01b039091168152602090f35b503461000e57602036600319011261000e576004356110be816105bc565b60018060a01b03166000526036602052602060ff600d6040600020015460c81c166040519015158152f35b503461000e57602036600319011261000e57600435611107816105bc565b6001600160a01b0316600090815260366020908152604091829020600b81015460088201546009830154600d909301548551928352938201529283015260d01c60ff1615156060820152608090f35b503461000e57600036600319011261000e576035546040516329f2549760e21b81526111ac916001600160a01b03906020908390600490829085165afa9182156111d4575b6000926111b4575b50163314613984565b610814614403565b6111cd91925060203d8111610860576108528183612efd565b90386111a3565b6111dc612f1f565b61119b565b503461000e57604036600319011261000e576004356111ff816105bc565b6035546040516329f2549760e21b81526001600160a01b03929161124491906020908290600490829088165afa908115610a19576000916109fb575083163314613984565b166000526036602052602435600b604060002001556000604051f35b503461000e57602064ffffffffff60046112a761127c36610891565b60018060a01b03166000526037855260406000209060018060a01b0316600052602052604060002090565b015416604051908152f35b8015150361000e57565b503461000e5761012036600319011261000e576004356112db816105bc565b602435906112e8826105bc565b6113ad604435916112f8836105bc565b6064359061080f60e4356101043595611310876112b2565b6034546001600160a01b03906113299082163314612d79565b84811660009081526036602090815260408083209385168352603782528083206001600160a01b038916845290915290209061136481614557565b866001611371858961379f565b61137a81610924565b036113cc57600361139993016113928154878561492b565b54916149e9565b6113a288613fef565b8460a435918561400f565b156113b457005b610814906113c660c435608435612e49565b90614326565b906113e192506113dc8582614aa1565b614ab0565b611399565b503461000e57602036600319011261000e576020600435611406816105bc565b60018060a01b0380911660005260368252600d6040600020015416604051908152f35b503461000e576020600361146a61143f36610891565b60018060a01b03166000526037845260406000209060018060a01b0316600052602052604060002090565b0154604051908152f35b503461000e57604036600319011261000e57600435611492816105bc565b6035546040516329f2549760e21b81526001600160a01b0392916114d791906020908290600490829088165afa908115610a19576000916109fb575083163314613984565b166000526036602052602435600a604060002001556000604051f35b503461000e57602036600319011261000e57600435611511816105bc565b6035546040516329f2549760e21b81526001600160a01b03929161155691906020908290600490829088165afa908115610a19576000916109fb575083163314613984565b166000908152603660205260409020600d01805460ff60e81b1916600160e81b179055005b503461000e57602036600319011261000e57600435611599816105bc565b60018060a01b031660005260366020526020600260406000200154604051908152f35b503461000e57602036600319011261000e5760206108d36004356115df816105bc565b6135d3565b50606036600319011261000e576004356115fd816105bc565b60243560443561160c816105bc565b6034546001600160a01b039182916116279083163314612d79565b16923461166c571673eeeeeeeeeeeeeeeeeeeeeeeeeeeeeeeeeeeeeeee8114611654579161081492612fbf565b50600080610814938193604051915af1610b3a612f2c565b60405162461bcd60e51b815260206004820152603660248201527f466565206c69717569646174696f6e20646f6573206e6f74207265717569726560448201527520616e79207472616e73666572206f662076616c756560501b6064820152608490fd5b503461000e57602036600319011261000e5760206108d36004356116f3816105bc565b6134ca565b503461000e57602036600319011261000e57600435611716816105bc565b60018060a01b031660005260366020526020600360406000200154604051908152f35b503461000e57602060ff600461175161127c36610891565b015460281c166040519015158152f35b503461000e57602036600319011261000e5760043561177f816105bc565b60018060a01b03166000526036602052602060ff600d6040600020015460d81c166040519015158152f35b503461000e5760606117c46117be36610891565b90613860565b9060405192835260208301526040820152f35b503461000e57602036600319011261000e576004356117f5816105bc565b60018060a01b031660005260366020526020600b60406000200154604051908152f35b503461000e57611827366106da565b91909260018060a01b0390611869600460208460355416604051928380926329f2549760e21b82525afa908115610a19576000916109fb575083163314613984565b16600052603660205260406000209173__$2ec35834968386f54fa313129cf94664e4$__92833b1561000e57600093608492604051968795869463126ee27360e11b865260048601526024850152604484015260648301525af480156118dd575b6118d057005b80610d5361081492612e6c565b6118e5612f1f565b6118ca565b503461000e57600060203660031901126106d75760043561190a816105bc565b6035546040516329f2549760e21b81526001600160a01b03929161194f91906020908290600490829088165afa9081156119c5575b85916109fb575083163314613984565b1681526036602052604081208173__$2ec35834968386f54fa313129cf94664e4$__91823b156119c1576024604051809481936372efab5360e11b835260048301525af480156119b4575b6119a5575b50604051f35b6119ae90612e6c565b3861199f565b6119bc612f1f565b61199a565b5080fd5b6119cd612f1f565b61193f565b503461000e57610d426003611af4611aba611add6119ef36610a26565b603454929491926001600160a01b0391600591611a0f9084163314612d79565b611a9860408489169489611a6689868f611a556000968c8852603660205288882094169586885260376020528888209060018060a01b0316600052602052604060002090565b611a5e84614557565b01549161492b565b8152603760209081528282206001600160a01b038c166000908152915260409020958152603660205220918454612e49565b8355015487820155600401805464ffffffffff19164264ffffffffff16179055565b611ac383614369565b6001600160a01b0316600090815260376020526040902090565b9060018060a01b0316600052602052604060002090565b01546040519081529081906020820190565b608090600319011261000e57600435611b1e816105bc565b90602435611b2b816105bc565b90604435906064356108b6816112b2565b503461000e57611b4b36611b06565b91909260018060a01b0392611b6584603454163314612d79565b8382167f04e4f521f16fcfd987978b05504262c2a2db223844977aab000e5accedb2d7256000968288526036602052611ba060408920614557565b6001600160a01b0385166000908152603660205260409020600d8101906060611be7611bd8610750610750865460018060a01b031690565b94611be28a613461565b6132a2565b60028301546003840154600685015460405163057e37af60e41b81526001600160a01b038d166004820152602481019490945260448401929092526064830152608482015293849060a49082905afa908115611d6c575b8a928b948c93611d29575b5090611c99611ccc9392611c6487611c5f6140fa565b614ecd565b600183018690556005830187905560048301849055805464ffffffffff60a01b19164260a01b64ffffffffff60a01b16179055565b6007815491015491604051958695869192608093969594919660a084019784526020840152604083015260608201520152565b0390a2611cda575b83604051f35b600492611d1392611cf033836034541614612d79565b1684526037602052604084209060018060a01b0316600052602052604060002090565b01805465ff000000000019169055388080611cd4565b611d5691929550611c999450611ccc935060603d8111611d65575b611d4e8183612efd565b8101906140df565b95919490959350919091611c49565b503d611d44565b611d74612f1f565b611c3e565b503461000e57602036600319011261000e57600435611d97816105bc565b60018060a01b031660005260366020526020600760406000200154604051908152f35b503461000e5760208060031936011261000e57600435611dd9816105bc565b6035546040516329f2549760e21b81526001600160a01b039291611e1e919085908290600490829088165afa908115611ec6575b600091611eaf575083163314613984565b16600052603681526040600020908154151580611ea2575b15611e5257600d8201805460ff60e01b1916600160e01b179055005b6084906040519062461bcd60e51b825260048201526024808201527f5265736572766520686173206e6f74206265656e20696e697469616c697a6564604482015263081e595d60e21b6064820152fd5b5060078201541515611e36565b610a139150853d8711610860576108528183612efd565b611ece612f1f565b611e0d565b503461000e57602036600319011261000e57600435611ef1816105bc565b6035546040516329f2549760e21b81526001600160a01b039291611f3691906020908290600490829088165afa908115610a19576000916109fb575083163314613984565b166000908152603660205260409020600d01805460ff60d81b19169055005b503461000e57611f6436611b06565b6034546001600160a01b039492611fa091611f829087163314612d79565b8584166000526036602052611f9a6040600020614557565b83614174565b611fa657005b600492611fe192611fbc33836034541614612d79565b16600052603760205260406000209060018060a01b0316600052602052604060002090565b01805465ff0000000000191665010000000000179055005b503461000e57602036600319011261000e57600435612017816105bc565b60018060a01b031660005260366020526020604060002054604051908152f35b503461000e57602036600319011261000e5760206108d360043561205a816105bc565b613756565b503461000e57602036600319011261000e5760206108d3600435612082816105bc565b60018060a01b038116600052603683526107ec6120a3604060002092613461565b91614d1c565b503461000e57602036600319011261000e576004356120c7816105bc565b60ff60015416908115918261218e575b8015612182575b15612126576120f1908261210657612d54565b6120f757005b61081460ff1960015416600155565b612117600160ff1981541617600155565b6121216006600055565b612d54565b60405162461bcd60e51b815260206004820152602e60248201527f436f6e747261637420696e7374616e63652068617320616c726561647920626560448201526d195b881a5b9a5d1a585b1a5e995960921b6064820152608490fd5b506000546006116120de565b50303b156120d7565b503461000e57602036600319011261000e576004356121b5816105bc565b60018060a01b031660005260366020526020600160406000200154604051908152f35b503461000e57600036600319011261000e576035546040516001600160a01b039091168152602090f35b503461000e57602036600319011261000e57600435612220816105bc565b60018060a01b031660005260366020526020600a60406000200154604051908152f35b5061224d36610dee565b603454929391926001600160a01b0391829161226c9083163314612d79565b1691169273eeeeeeeeeeeeeeeeeeeeeeeeeeeeeeeeeeeeeeee84141560001461232e573461229d5761081493613243565b60405162461bcd60e51b815260206004820152605f60248201527f557365722069732073656e64696e672045544820616c6f6e672077697468207460448201527f6865204552433230207472616e736665722e20436865636b207468652076616c60648201527f756520617474726962757465206f6620746865207472616e73616374696f6e00608482015260a490fd5b50610814925060008092918261234783943410156131d9565b604051915af1610b3a612f2c565b503461000e57602036600319011261000e576124b5600d61245460043561237b816105bc565b6035546040516329f2549760e21b81526123fb916001600160a01b03916123c4916020908290600490829087165afa9081156124db575b6000916124bd575b5082163314613984565b806123f06123db6123d6603854613285565b611023565b905460039190911b1c6001600160a01b031690565b9316908316146139f6565b6001600160a01b03811660009081526036602052604090206124269061242090614d1c565b15613a68565b6001600160a01b0381166000908152603660205260409020838101805460ff60e01b1916905561246590600c905b0180546001600160a01b0319169055565b6001600160a01b03166000908152603660205260408120600b810182905581815560078101829055838101805461ffff60c81b191690556008810182905560098101829055600a81019190915590565b610814613acd565b6124d5915060203d8111610860576108528183612efd565b386123ba565b6124e3612f1f565b6123b2565b503461000e57602036600319011261000e57600435612506816105bc565b60018060a01b031660005260366020526020676765c793fa10079d601b1b612559612554604060002061254c600182015464ffffffffff600d84015460a01c1690614b46565b905490614d55565b612e30565b04604051908152f35b503461000e57600036600319011261000e576034546040516001600160a01b039091168152602090f35b503461000e57604036600319011261000e576004356125aa816105bc565b6035546040516329f2549760e21b81526001600160a01b0392916125ef91906020908290600490829088165afa908115610a19576000916109fb575083163314613984565b1660005260366020526024356008604060002001556000604051f35b503461000e5760c036600319011261000e5760406126ed60043561262e816105bc565b6024359061263b826105bc565b61080f6044359260843560a43591612652836112b2565b8460018060a01b0361266981603454163314612d79565b8760018284166126c160009d8e8381526036602052818120968916815260376020526126b3896126ad8a8585209060018060a01b0316600052602052604060002090565b9961379f565b938152603660205220614557565b6126ca81610924565b036126f25760036126e293016113928154878561492b565b856064359186613e25565b604051f35b9061270292506113dc8582614aa1565b6126e2565b503461000e57602036600319011261000e57600435612725816105bc565b6035546040516329f2549760e21b81526001600160a01b03929161276a91906020908290600490829088165afa908115610a19576000916109fb575083163314613984565b166000908152603660205260409020600d01805460ff60d81b1916600160d81b179055005b503461000e57610d426127aa6127a436610891565b906132b9565b60408051948552602085019390935291830152151560608201529081906080820190565b503461000e5760206127e86127e236610a26565b91613336565b6040519015158152f35b503461000e57602036600319011261000e5760206108d3600435612815816105bc565b613461565b503461000e57602036600319011261000e57600435612838816105bc565b60018060a01b0316600052603660205260206108d36040600020614d1c565b503461000e57600060203660031901126106d757600435612877816105bc565b6035546040516329f2549760e21b81526001600160a01b0392916128bb91906020908290600490829088165afa9081156119c55785916109fb575083163314613984565b1681526036602052604081208173__$2ec35834968386f54fa313129cf94664e4$__91823b156119c15760246040518094819363041e0b2d60e51b835260048301525af480156119b4576119a55750604051f35b503461000e57604036600319011261000e5760043561292d816105bc565b6024359061293a826112b2565b6035546040516329f2549760e21b81526001600160a01b03929161297f91906020908290600490829088165afa908115610a19576000916109fb575083163314613984565b166000526036602052604060002073__$2ec35834968386f54fa313129cf94664e4$__91823b1561000e5760446000926040519485938492637b1dd5df60e11b84526004840152151560248301525af480156118dd576118d057005b503461000e57602036600319011261000e576004356129f9816105bc565b6035546040516329f2549760e21b81526001600160a01b039291612a3e91906020908290600490829088165afa908115610a19576000916109fb575083163314613984565b166000908152603660205260409020600d01805460ff60e81b19169055005b503461000e57602036600319011261000e57600435612a7b816105bc565b60018060a01b031660005260366020526020600960406000200154604051908152f35b60209093929193612ab3816040810196610944565b0152565b503461000e5760c036600319011261000e57600435612ad5816105bc565b602435612ae1816105bc565b60443590606435612af0610c1e565b9260018060a01b03612b0781603454163314612d79565b85166000526036602052604060002090612b3786611add8660018060a01b03166000526037602052604060002090565b612b4083614557565b612b4986610924565b60018603612b965792612b869592612b6d612b72936003612b7c97015490836149e9565b614aa1565b6084358386613ede565b92610d2c81614369565b90610d4260405192839283612a9e565b509390612ba282610924565b60028203612bcf57612b8694612b7c9382612bc56005612bca9501549382614ab0565b61492b565b612b72565b60405162461bcd60e51b815260206004820152601a60248201527f496e76616c69642072617465206d6f64652072656365697665640000000000006044820152606490fd5b0390fd5b503461000e576020600161146a612c2e36610891565b838060a01b03166000526037845260406000209060018060a01b0316600052602052604060002090565b503461000e57606036600319011261000e57600435612c76816105bc565b6004612caf60243592612c88846105bc565b60443593612c95856112b2565b6034546001600160a01b039190611fbc9083163314612d79565b01805465ff0000000000191691151560281b65ff000000000016919091179055005b503461000e57612ce036610a26565b909160018060a01b038091612cfa82603454163314612d79565b169073eeeeeeeeeeeeeeeeeeeeeeeeeeeeeeeeeeeeeeee8214612d2257610814931690612fbf565b6000928392509361081494839260405192165af1610b3a612f2c565b503461000e576020600261146a61143f36610891565b60018060a01b03166001600160601b0360a01b6035541617603555612d77614403565b565b15612d8057565b60405162461bcd60e51b815260206004820152602a60248201527f5468652063616c6c6572206d7573742062652061206c656e64696e6720706f6f6044820152691b0818dbdb9d1c9858dd60b21b6064820152608490fd5b50634e487b7160e01b600052601160045260246000fd5b676765c793fa10079d601b1b906b033b2e3c9fd0803ce8000000198111612e14570190565b612e1c612dd8565b0190565b6001906001198111612e14570190565b6b019d971e4fe8401e7400000081198111612e14570190565b81198111612e14570190565b50634e487b7160e01b600052604160045260246000fd5b67ffffffffffffffff8111612e8057604052565b612e88612e55565b604052565b6080810190811067ffffffffffffffff821117612e8057604052565b6040810190811067ffffffffffffffff821117612e8057604052565b60a0810190811067ffffffffffffffff821117612e8057604052565b6060810190811067ffffffffffffffff821117612e8057604052565b90601f8019910116810190811067ffffffffffffffff821117612e8057604052565b506040513d6000823e3d90fd5b3d15612f75573d9067ffffffffffffffff8211612f68575b60405191612f5c601f8201601f191660200184612efd565b82523d6000602084013e565b612f70612e55565b612f44565b606090565b15612f8157565b60405162461bcd60e51b8152602060048201526016602482015275151c985b9cd9995c881bd9881155120819985a5b195960521b6044820152606490fd5b60405163a9059cbb60e01b60208201526001600160a01b039092166024830152604480830193909352918152612d7791612ff882612e8d565b604051613056916001600160a01b031661301182612ea9565b6000806020958685527f5361666545524332303a206c6f772d6c6576656c2063616c6c206661696c656487860152868151910182855af1613050612f2c565b916130e6565b80518281159182156130c6575b505090501561306f5750565b6084906040519062461bcd60e51b82526004820152602a60248201527f5361666545524332303a204552433230206f7065726174696f6e20646964206e6044820152691bdd081cdd58d8d9595960b21b6064820152fd5b838092935001031261000e578101516130de816112b2565b808238613063565b9192901561314857508151156130fa575090565b3b156131035790565b60405162461bcd60e51b815260206004820152601d60248201527f416464726573733a2063616c6c20746f206e6f6e2d636f6e74726163740000006044820152606490fd5b82519091501561315b5750805190602001fd5b60405162461bcd60e51b8152908190612c1490600483016131c8565b91908251928382526000905b8482106131b05750928060209394116131a3575b601f01601f1916010190565b6000838284010152613197565b90602090818082850101519082860101520190613183565b9060206108b6928181520190613177565b156131e057565b60405162461bcd60e51b815260206004820152603560248201527f54686520616d6f756e7420616e64207468652076616c75652073656e7420746f604482015274040c8cae0dee6d2e840c8de40dcdee840dac2e8c6d605b1b6064820152608490fd5b6040516323b872dd60e01b60208201526001600160a01b039283166024820152929091166044830152606480830193909352918152612d7791612ff882612ec5565b60018110613295575b6000190190565b61329d612dd8565b61328e565b8181106132ad570390565b6132b5612dd8565b0390565b6001600160a01b0381811660008181526036602090815260408083209487168352603782528083209383529290529081209390926132f791906133d9565b91835415613322575061330a908361481b565b9260ff6004600285015494015460281c169193929190565b9260ff91506004015460281c169092829190565b6001600160a01b03818116600081815260366020908152604080832094871683526037825280832093835292905220600d909101549392919060d885901c60ff16156133c0576004015460281c60ff16159384156133b1575b50831561339d575b50505090565b6133a89293506133d9565b10388080613397565b60d01c60ff161593503861338f565b5050505050600090565b9081602091031261000e575190565b6001600160a01b03908116600090815260366020908152604091829020600c015491516370a0823160e01b815293831660048501529183916024918391165afa908115613454575b60009161342c575090565b6108b6915060203d811161344d575b6134458183612efd565b8101906133ca565b503d61343b565b61345c612f1f565b613421565b6000906001600160a01b031673eeeeeeeeeeeeeeeeeeeeeeeeeeeeeeeeeeeeeeee810361348e5750504790565b6020602491604051928380926370a0823160e01b82523060048301525afa9182156134bd575b9161342c575090565b6134c5612f1f565b6134b4565b6001600160a01b0390811660009081526036602052604090206004810154919082156134f557505090565b600d01546040516334762ca560e01b8152925060209183916004918391165afa9081156134545760009161342c575090565b9081602091031261000e57516108b6816105bc565b6040519061354982612ee1565b602982526803b902930ba32901d160bd1b6040837f2020203d3e204c4243203a2043757272656e7420537461626c6520426f72726f60208201520152565b6040519061359482612ee1565b602a825269020b8383634b2b2101d160b51b6040837f2020203d3e204c4243203a204f7261636c65204c656e64696e6720526174652060208201520152565b6001600160a01b0381166000908152603660205260409020603554909190613603906001600160a01b0316610750565b60056040518092631b0c55dd60e11b825281600460209586935afa908115613749575b60009161372c575b5060018060a01b03169301549161364783611c5f61353c565b8215613654575050905090565b60405163bb85c0bb60e01b8082526001600160a01b038316600483015292946136c79450859390916136a1908581602481875afa90811561371f575b600091613702575b50611c5f613587565b6040519081526001600160a01b0390921660048301529092839190829081906024820190565b03915afa9182156136f5575b6000926136df57505090565b6108b69250803d1061344d576134458183612efd565b6136fd612f1f565b6136d3565b6137199150863d881161344d576134458183612efd565b38613698565b613727612f1f565b613690565b6137439150833d8511610860576108528183612efd565b3861362e565b613751612f1f565b613626565b6001600160a01b038116600090815260366020526040902061377790614d1c565b8015613798576137928161378d6108b694613461565b612e49565b90614d85565b5050600090565b6001600160a01b03918216600090815260376020908152604080832093909416825291909152208054156137e05760030154156137db57600190565b600290565b50600090565b906137f1818361379f565b600381101561092e578015613858578061380c600192610924565b03613839576001600160a01b0316600090815260376020526040902060039161383491611add565b015490565b506001600160a01b031660009081526036602052604090206004015490565b505050600090565b9160018060a01b03806000931683526037602052604092613895858583209060018060a01b0316600052602052604060002090565b9182549586156139775761390b9261395c949287926138fc8a85516138b981612ee1565b602c81527f2020203d3e204c4243203a2055736572205072696e636970616c20426f72726f60208201526b03b902130b630b731b2901d160a51b87820152614ecd565b1681526036602052209061481b565b836c037bb902130b630b731b2901d1609d1b8295519161392a83612ee1565b602d83527f2020203d3e204c4243203a205573657220436f6d706f756e64656420426f72726020840152820152614ecd565b82821061396a575b82820390565b613972612dd8565b613964565b5050925050915080918190565b1561398b57565b60405162461bcd60e51b815260206004820152603760248201527f5468652063616c6c6572206d7573742062652061206c656e64696e6720706f6f60448201527f6c20636f6e666967757261746f7220636f6e74726163740000000000000000006064820152608490fd5b156139fd57565b60405162461bcd60e51b815260206004820152603d60248201527f52657365727665206265696e672072656d6f766564206973206469666665726560448201527f6e74207468616e207468652072657365727665207265717565737465640000006064820152608490fd5b15613a6f57565b60405162461bcd60e51b815260206004820152603060248201527f43616e6e6f742072656d6f7665206120726573657276652077697468206c697160448201526f1d5a591a5d1e4819195c1bdcda5d195960821b6064820152608490fd5b6038548015613b2e577f38395c5dceade9603479b177b68959049485df8aa97b39f3533039af5f45619860001982019180831015613b21575b6038600052016001600160601b0360a01b8154169055603855565b613b2961100c565b613b06565b634e487b7160e01b600052603160045260246000fd5b9261378d91959492613bd59460018060a01b0381166000526036602052613b6e6040600020614557565b613b78888261379f565b6001600160a01b03821660009081526036602052604090209890613b9b81610924565b60018103613c5757506001600160a01b0316600090815260376020526040902061378d91600391613bcc9190611add565b015482896149e9565b90613bdf81610924565b60018103613bf8575090612d779160058201549161492b565b80613c04600292610924565b03613c1257612d7791614aa1565b60405162461bcd60e51b815260206004820152601c60248201527f496e76616c6964206e657720626f72726f772072617465206d6f6465000000006044820152606490fd5b905060029150613c6681610924565b03612e495761378d8188614ab0565b60405190613c8282612ec5565b6064825263032901d160e51b6080837f202020202020203d3e204c4243203a2072617465206d6f646520535441424c4560208201527f2c207570646174655573657253746174654f6e426f72726f77496e7465726e6160408201527f6c20726573657276652e63757272656e74537461626c65426f72726f7752617460608201520152565b6001600160a01b038181166000908152603660209081526040808320959093168252603790522093959493613d3c9190611add565b93613d4681610924565b60018103613dac57509361378d613d7f926005612d77970154613d6b81611c5f613c75565b6003870155600060018701555b8554612e49565b8255613d9060028301918254612e49565b9055600401805464ffffffffff19164264ffffffffff16179055565b80613dbb600292979397610924565b03613de05761378d613d7f926007612d77976000600389015501546001870155613d78565b60405162461bcd60e51b815260206004820152601860248201527f496e76616c696420626f72726f772072617465206d6f646500000000000000006044820152606490fd5b6001600160a01b0390811660008181526036602090815260408083209490951682526037815284822092825291909152918220612d7796929360079291613e6e90978854612e49565b818110613ed1575b03865501549060018501918255613ec3575b505060028201908154818110613eb6575b039055600401805464ffffffffff19164264ffffffffff16179055565b613ebe612dd8565b613e99565b816003850155553880613e88565b613ed9612dd8565b613e76565b90613f0282611add613f1e9360018060a01b03166000526037602052604060002090565b6001600160a01b03909216600090815260366020526040902090565b92613f2881610924565b60028103613f6e5750613f526108b6926005600195015460038401556000858401555b8254612e49565b8155600401805464ffffffffff19164264ffffffffff16179055565b80613f7a600192610924565b03613f9e57613f526108b69260076002956000600386015501546001840155613f4b565b60405162461bcd60e51b815260206004820152602360248201527f496e76616c696420696e7465726573742072617465206d6f64652072656365696044820152621d995960ea1b6064820152608490fd5b6001600160a01b03166000908152603660205260409020612d7790614557565b61407b612d77959260029295949560018060a01b039687831660005260376020526140508260406000209060018060a01b0316600052602052604060002090565b978216600052603660205261406b6040600020968954612e49565b8181106140d2575b03875561379f565b61408481610924565b146140c3575b50806140ac575b50600401805464ffffffffff19164264ffffffffff16179055565b6140bb600283019182546132a2565b905538614091565b6007015460018301553861408a565b6140da612dd8565b614073565b9081606091031261000e578051916040602083015192015190565b6040519061410782612e8d565b605282527101f103732bba9ba30b13632a930ba32901d160751b6060837f202020202020203d3e204c4243203a2075706461746552657365727665496e7460208201527f65726573745261746573416e6454696d657374616d70496e7465726e616c203d60408201520152565b6001600160a01b038116600090815260366020526040902091600d83019160606141b76141ad610750610750875460018060a01b031690565b9361378d84613461565b60028601546003870154600688015460405163057e37af60e41b81526001600160a01b0387166004820152602481019490945260448401929092526064830152608482015292839060a49082905afa938415614319575b600093849385966142c8575b50946142c3916142877f04e4f521f16fcfd987978b05504262c2a2db223844977aab000e5accedb2d725969761425287611c5f6140fa565b600183018990556005830187905560048301849055805464ffffffffff60a01b19164260a01b64ffffffffff60a01b16179055565b600781549101549160405195869560018060a01b031698869192608093969594919660a084019784526020840152604083015260608201520152565b0390a2565b61428796507f04e4f521f16fcfd987978b05504262c2a2db223844977aab000e5accedb2d72595506142c392945061430d9060603d8111611d6557611d4e8183612efd565b9750909550939161421a565b614321612f1f565b61420e565b6001600160a01b038116600090815260366020526040902091600d83019160606141b761435f610750610750875460018060a01b031690565b93611be284613461565b6001600160a01b0381166000908152603660205260409020600d810180549192909161439f90610750906001600160a01b031681565b9060606141b782613461565b156143b257565b60405162461bcd60e51b8152602060048201526024808201527f5472616e7366657220746f20746f6b656e206469737472696275746f722066616044820152631a5b195960e21b6064820152608490fd5b603554604051630cc3b2e360e21b81526001600160a01b03916020908290600490829086165afa90811561446f575b600091614451575b50166001600160601b0360a01b6034541617603455565b614469915060203d8111610860576108528183612efd565b3861443a565b614477612f1f565b614432565b60388054906000805b83811061450457501561449757505050565b680100000000000000008210156144f7575b600182018082558210156144ea575b600052600080516020614f118339815191520180546001600160a01b0319166001600160a01b03909216919091179055565b6144f261100c565b6144b8565b6144ff612e55565b6144a9565b6000839052600080516020614f118339815191528101546001600160a01b0386811691161461454e575b6001906000198114614541575b01614485565b614549612dd8565b61453b565b6001915061452e565b61456081614d1c565b6145675750565b6125546145c561255460076145ba600186015461459364ffffffffff600d89015460a01c168092614b46565b6145ad676765c793fa10079d601b1b9788928a5490614d55565b0487556004870154614c49565b940193845490614d55565b049055565b916125546145fb6145f6676765c793fa10079d601b1b946137926145f06145c596614d30565b91614d30565b612def565b845490614d55565b6040519061461082612ee1565b6024825263032901d160e51b6040837f2020203d3e20434c203a205f73656c662e737461626c65426f72726f7752617460208201520152565b6040519061465682612ee1565b603c82527f72726f7752617465203c3d203020426f72726f772052617465203a20000000006040837f2020203d3e20434c203a2063617365206f662073656c662e737461626c65426f60208201520152565b604051906146b582612ee1565b603a82527f72726f7752617465203c3d20302054696d655374616d70203a200000000000006040837f2020203d3e20434c203a2063617365206f662073656c662e737461626c65426f60208201520152565b6040519061471482612e8d565b604e82526d03630ba34bb32a4b73232bc101d160951b6060837f2020203d3e20434c203a20207573657252657365727665446174612073656c6660208201527f20696e7374616e6365206c6173745661726961626c65426f72726f7743756d7560408201520152565b6040519061478a82612ee1565b602f82526e0393937bba930ba32901f1018101d1608d1b6040837f2020203d3e20434c203a2063617365206f662073656c662e737461626c65426f60208201520152565b604051906147db82612ee1565b602b82526a74657265737420646f6e6560a81b6040837f2020203d3e20434c203a2063616c63756c617465436f6d706f756e646564496e60208201520152565b90815490811561385857676765c793fa10079d601b1b61489761255461489d9361484486614d30565b9060038801549061485782611c5f614603565b81156148cb57508061486e61488092611c5f61477d565b600489015464ffffffffff1690614c49565b905b61489261488d6147ce565b614e76565b614d55565b04614ddd565b918183146148aa57505090565b600401544264ffffffffff909116036148c1575090565b6108b69150612e20565b61492591506148f6600d6004830154926148e784611c5f614649565b015460a01c64ffffffffff1690565b906149106149026146a8565b64ffffffffff841690614ecd565b61492060018b0154611c5f614707565b614c49565b90614882565b91906137926145f061498d93614892614986612554600661497b60028b01986149746125548b549861495d848b612e49565b809d55676765c793fa10079d601b1b988994614d30565b0495614d30565b990198895490614d55565b0490612e49565b9055565b1561499857565b60405162461bcd60e51b815260206004820152602360248201527f54686520616d6f756e747320746f20737562747261637420646f6e2774206d616044820152620e8c6d60eb1b6064820152608490fd5b91906002830191825491808310614a5c57614a0481846132a2565b8094558315614a4f5761498d9392614a436006614a38614a3261379296614a2d6145f097614d30565b614d68565b93614d30565b970196875490614d68565b611be282821015614991565b5050505060066000910155565b60405162461bcd60e51b815260206004820152601a60248201527f496e76616c696420616d6f756e7420746f2064656372656173650000000000006044820152606490fd5b600361498d9101918254612e49565b600301908154818110614ac257039055565b60405162461bcd60e51b815260206004820152605060248201527f54686520616d6f756e742074686174206973206265696e67207375627472616360448201527f7465642066726f6d20746865207661726961626c6520746f74616c20626f727260648201526f1bdddcc81a5cc81a5b98dbdc9c9958dd60821b608482015260a490fd5b614baa612554614b6964ffffffffff6108b69516804210614bca575b4203614d30565b92667009d32da30000676765c793fa10079d601b1b85819660001904821181151516614bbd575b02663804e996d1800081198111614bb0575b010490614d55565b04612def565b614bb8612dd8565b614ba2565b614bc5612dd8565b614b90565b614bd2612dd8565b614b62565b60405190614be482612ea9565b601c82527f2020203d3e20434c203a2074696d65446966666572656e6365203a20000000006020830152565b60405190614c1d82612ea9565b601b82527f2020203d3e20434c203a20726174655065725365636f6e64203a2000000000006020830152565b614d176301e13380614cfd6108b694614cf7614cd8614cf264ffffffffff60405194614c7486612ee1565b602b86527f2020203d3e20434c203a205f7261746520616e64205f6c61737455706461746560208701526a02a34b6b2b9ba30b6b81d160ad1b6040870152169360405192839163ca47c4eb60e01b6020840152606060248401526084830190613177565b89604483015285606483015203601f198101835282612efd565b614eb2565b426132a2565b92614d0a84611c5f614bd7565b046145f681611c5f614c10565b614e02565b6108b6906003600282015491015490612e49565b633b9aca00908060001904821181151516614d49570290565b614d51612dd8565b0290565b8060001904821181151516614d49570290565b612554676765c793fa10079d601b1b92614d8192614d55565b0490565b614db090676765c793fa10079d601b1b908060001904821181151516614dd0575b028260011c612e49565b8115614dba570490565b634e487b7160e01b600052601260045260246000fd5b614dd8612dd8565b614da6565b633b9aca0090631dcd650081198111614df557010490565b614dfd612dd8565b010490565b909190600180841615614e6557815b93811c805b614e1f57505050565b61255492614e3b676765c793fa10079d601b1b94828693614d55565b0492828216614e4e575b50811c80614e16565b909461255484614e5d92614d55565b049338614e45565b676765c793fa10079d601b1b614e11565b614ea4614cf2612d779260405192839163104c13eb60e21b6020840152602060248401526044830190613177565b03601f198101835282612efd565b600080916020815191016a636f6e736f6c652e6c6f675afa50565b614cf2614efc91612d7793604051938492632d839cb360e21b6020850152604060248501526064840190613177565b90604483015203601f198101835282612efd56fe38395c5dceade9603479b177b68959049485df8aa97b39f3533039af5f456199a26469706673582212209c6981a9b47c285c96dbee2d583ebd2dd33e7cb36b5d6598cb2fe416e592ac2464736f6c634300080d0033",
  "linkReferences": {
    "contracts/libraries/CoreLibrary.sol": {
      "CoreLibrary": [
        {
          "length": 20,
          "start": 3266
        },
        {
          "length": 20,
          "start": 3754
        },
        {
          "length": 20,
          "start": 6298
        },
        {
          "length": 20,
          "start": 6526
        },
        {
          "length": 20,
          "start": 10474
        },
        {
          "length": 20,
          "start": 10671
        }
      ]
    }
  },
  "deployedLinkReferences": {
    "contracts/libraries/CoreLibrary.sol": {
      "CoreLibrary": [
        {
          "length": 20,
          "start": 3234
        },
        {
          "length": 20,
          "start": 3722
        },
        {
          "length": 20,
          "start": 6266
        },
        {
          "length": 20,
          "start": 6494
        },
        {
          "length": 20,
          "start": 10442
        },
        {
          "length": 20,
          "start": 10639
        }
      ]
    }
  }
}